:020000040800F2
:10000000005000202D800008B9160008BB1600081B
:10001000BD160008BF160008C11600080000000049
:10002000000000000000000000000000C3160008EF
:10003000C516000800000000C7160008C916000811
:1000400075800008758000087580000875800008BC
:1000500075800008758000087580000875800008AC
:10006000D1160008758000087580000875800008AA
:10007000758000087580000875800008758000088C
:10008000758000087580000875800008758000087C
:10009000758000087580000875800008758000086C
:1000A000758000087580000875800008758000085C
:1000B00075800008DD16000875800008758000084E
:1000C000758000087580000875800008758000083C
:1000D00075800008ED160008FD1600087580000800
:1000E0007580000875800008758000080000000019
:1000F0000000000000000000000000000000000000
:0C01000000000000000000005FF808F1A3
:10010C0010B5054C237833B9044B13B10448AFF345
:10011C0000800123237010BDF400002000000000BB
:10012C00401D010808B5034B1BB103490348AFF34D
:10013C00008008BD00000000F8000020401D0108F0
:10014C00002902D0B0FBF1F0704708B14FF0FF303E
:10015C0000F01EB80029F8D00246B0FBF1F000FB0D
:10016C0011217047002902D090FBF1F07047002854
:10017C00C8BF6FF00040B8BF4FF0004000F008B8A7
:10018C000029F4D0024690FBF1F000FB11217047DE
:10019C00704700BFF0B589B000250495059506950C
:1001AC0007952E4B9A6942F004029A619A6902F003
:1001BC0004020092009A9A6942F008029A619A69C4
:1001CC0002F008020192019A9A6942F010029A61B7
:1001DC009A6902F010020292029A9A6942F0200285
:1001EC009A619B6903F020030393039B1C4F01222C
:1001FC004FF48051384602F0A2FD202304930124D1
:10020C00059406940226079604A9384602F0A4FC2D
:10021C0010230493059506940DEB0301384602F068
:10022C009BFC4FF4E053049305940694079604A9A1
:10023C000C4802F091FC04960594069407960A4E1D
:10024C0004A9304602F088FC4923049305950694D2
:10025C0004A9304602F080FC09B0F0BD0010024049
:10026C0000080140000C01400010014030B587B07F
:10027C0000240294039404940594009401940E4D6C
:10028C000E4B2B6023236B60AC600923EB602C615D
:10029C008023AB61284601F0AFFC4FF480530293EE
:1002AC0002A9284601F06DFD009401946946284688
:1002BC0001F002FE07B030BD0C030020000400402A
:1002CC0008B50848084B03604FF4E1334360002342
:1002DC008360C36003610C2242618361C36101F0DE
:1002EC00EAFE08BD7C0300200038014008B5084830
:1002FC00084B03604FF41643436000238360C360D4
:10030C0003610C2242618361C36101F0D4FE08BD1C
:10031C00000400200044004000B583B000238DF899
:10032C0007300DF106010DF1070011F0EDFC0E4B3D
:10033C001B78042B03D00D4A1278934208D00B4B38
:10034C001B789DF807100A4AD15403B05DF804FBE2
:10035C00084B1B789DF807008342F0D0054B1870B2
:10036C0009F0C8F9EBE700BF38010020D1060020E6
:10037C00300100200502002010B50138012809D8F1
:10038C0014464FF47A7392B2074801F0C3FE40B1A1
:10039C00002010BD07F06AFE092303604FF0FF3008
:1003AC00F7E72046F5E700BF7C03002038B55B4B30
:1003BC001870042820D8DFE800F02044688C030073
:1003CC00574D01224021284602F0B9FC554C012220
:1003DC002021204602F0B3FC01221021204602F01D
:1003EC00AEFC01220821204602F0A9FC01224FF4A8
:1003FC000041284602F0A3FC38BD494D01224021A2
:10040C00284602F09CFC474C00222021204602F09A
:10041C0096FC01221021204602F091FC01220821B9
:10042C00204602F08CFC01224FF40041284602F0D9
:10043C0086FC3D4C207809F05DF922783B4B1A7014
:10044C00DAE7374D01224021284602F078FC354C82
:10045C0001222021204602F072FC002210212046AD
:10046C0002F06DFC01220821204602F068FC0122FA
:10047C004FF40041284602F062FC2B4C607809F0E6
:10048C0039F96278294B1A70B6E7254D00224021C4
:10049C00284602F054FC234C01222021204602F075
:1004AC004EFC01221021204602F049FC00220821BA
:1004BC00204602F044FC01224FF40041284602F091
:1004CC003EFC194CA07809F015F9A278174B1A705C
:1004DC0092E7134D00224021284602F030FC114CCB
:1004EC0001222021204602F02AFC01221021204664
:1004FC0002F025FC01220821204602F020FC0022FB
:10050C004FF40041284602F01AFC074CE07809F041
:10051C00F1F8E278054B1A706EE700BF3801002045
:10052C0000080140000C01403001002005020020B1
:10053C0010B50446012809D001220821064802F012
:10054C00FEFB2146054807F0A3F810BD0022082148
:10055C00014802F0F4FBF4E700100140F81D01081B
:10056C0030B583B0002458E06E4B1B78142B03D0AD
:10057C006D4B01221A555CE06B4B00221A5558E06A
:10058C0020460FF029F8631C009340F2AC43674AF5
:10059C006749684807F0A8FD674BDB794BB101222E
:1005AC00664B1A60002366490B6066490A70664AFE
:1005BC001370664B1B7814226549CA546549CA549A
:1005CC00654A127802B91BB10120FFF7B1FF44E074
:1005DC000121002003F022FBF6E7012C05D0284670
:1005EC0011F0A0FA5A4B58553DE04E4B1A78584B27
:1005FC005A5538E0554B1B78012B4CD10121192051
:10060C0002F0A6FC47E0544B1B78012B79D04F4BE2
:10061C001B78002B7FD00134E4B2012C7FD84B4BDC
:10062C001C70012CA0D011F081FB484B1B783E4A6A
:10063C00D054464B1B78494AD15C494AD25C914212
:10064C0001D04649CA54384AD25C4649C95C8A42F0
:10065C0003D04449CA54002A92D03C4B1D78324BEB
:10066C005B5D012BB9D0394B1B78394AD25C3949C7
:10067C00C95C8A42CFD03749CA54142ACBD02546FC
:10068C002D4B1A78324B195D20460EF019FE324B69
:10069C001B78012BAED0344B33F81530334A32F87B
:1006AC001520334931F81510324830F815000090F8
:1006BC0020460FF0C1FB264B5B5D01930135009585
:1006CC0040F2D943194A1A492B4807F00DFD1A4B31
:1006DC00DB794BB10122194B1A60002318490B60CE
:1006EC0018490A70184A13701B4B1B78002B8AD1BF
:1006FC00164B1B78002B86D10021084603F08EFA8E
:10070C0081E7124B1B78012B81D140214FF47A7079
:10071C0007F070F87BE70020FFF70AFF7BE703B0D8
:10072C0030BD00BF200000202C010020C01E01089D
:10073C006C1D0108781D01084404002014010020E0
:10074C00200100200800002011010020D10600200B
:10075C00D40600200C0000201E010020F006002012
:10076C00A807002028010020C8000020D00000208D
:10077C00C0000020D8000020A01D010808B507F01B
:10078C0029F83F2142F2107007F034F808BD000040
:10079C0038B507F0E9FB04460146184806F078FF27
:1007AC0007F0E2FB092809D107F0DEFB09281AD172
:1007BC00092C12D1642002F00DFC38BD104D09211A
:1007CC00284606F065FF092007F0F4FB07F0CCFB88
:1007DC000146284606F05CFFE6E707F00FFC0948E7
:1007EC0006F056FFE6E7084806F052FF074806F009
:1007FC004FFF074BFF221A70DFE700BFA01F010855
:10080C00B41F0108C41F0108002001081C200108A6
:10081C00BD03002010B588B0602301930290002323
:10082C0003930593054C082201A9204601F030FAE8
:10083C000821204601F022FB08B010BDC0030020A7
:10084C0038B50546002406E0295D044B185D02F01E
:10085C007FFB0134E4B2572CF6D938BD2073010864
:10086C0008B5034806F014FF0248FFF7E9FF08BD7E
:10087C002C1E01087873010808B5054806F008FF1E
:10088C000448FFF7DDFF1021D72002F061FB08BD03
:10089C00541E0108D073010808B5034806F0F8FE91
:1008AC000248FFF7CDFF08BD781E01082874010827
:1008BC0008B5034806F0ECFE0248FFF7C1FF08BD7F
:1008CC009C1E01088074010808B5FE4806F0E0FE85
:1008DC000021012002F03CFB0021022002F038FB39
:1008EC007521032002F034FB1821042002F030FBA8
:1008FC008021052002F02CFB2021062002F028FB91
:10090C000821072002F024FB4021082002F020FBE4
:10091C000A21092002F01CFB41210A2002F018FBDD
:10092C0007210B2002F014FB00210C2002F010FB1D
:10093C0020210D2002F00CFB10210E2002F008FBF0
:10094C0000210F2002F004FB8021102002F000FB9C
:10095C008221112002F0FCFA2121122002F0F8FA77
:10096C00D021132002F0F4FAE021142002F0F0FA66
:10097C007821152002F0ECFAFE21162002F0E8FA9C
:10098C000021172002F0E4FAC821182002F0E0FA46
:10099C000021192002F0DCFA23211A2002F0D8FAE7
:1009AC0000211B2002F0D4FA00211C2002F0D0FA06
:1009BC0000211D2002F0CCFA20211E2002F0C8FAE2
:1009CC0032211F2002F0C4FA5A21202002F0C0FA72
:1009DC000D21212002F0BCFA3221222002F0B8FABB
:1009EC005A21232002F0B4FAD021242002F0B0FACC
:1009FC002121252002F0ACFA0D21262002F0A8FAC4
:100A0C00E021272002F0A4FAF021282002F0A0FA1D
:100A1C000021292002F09CFA00212A2002F098FAE9
:100A2C0001212B2002F094FAFF212C2002F090FAE5
:100A3C0000212D2002F08CFA12212E2002F088FACF
:100A4C00D0212F2002F084FAE021302002F080FA2D
:100A5C008021312002F07CFA8021322002F078FAD9
:100A6C008021332002F074FAA021342002F070FAB5
:100A7C001821352002F06CFA4621362002F068FA73
:100A8C006421372002F064FA0021382002F060FA69
:100A9C00FF21392002F05CFA03213A2002F058FAC7
:100AAC0080213B2002F054FA80213C2002F050FAC5
:100ABC0080213D2002F04CFA80213E2002F048FAC1
:100ACC0080213F2002F044FA6021412002F040FADC
:100ADC005F21422002F03CFA3721432002F038FA21
:100AEC001421442002F034FA0421452002F030FA9B
:100AFC000021462002F02CFA0021472002F028FAAF
:100B0C000021482002F024FA0021492002F020FAAA
:100B1C0020214B2002F01CFA00214C2002F018FA84
:100B2C0000214D2002F014FA00214E2002F010FAA0
:100B3C007F214F2002F00CFA2021502002F008FAFD
:100B4C000021512002F004FA0021522002F000FA98
:100B5C000421532002F0FCF90021542002F0F8F992
:100B6C00E021552002F0F4F94021562002F0F0F972
:100B7C000421572002F0ECF90021582002F0E8F98A
:100B8C000821592002F0E4F910215A2002F0E0F972
:100B9C0000215B2002F0DCF968215C2002F0D8F91E
:100BAC0040215D2002F0D4F908215E2002F0D0F93A
:100BBC0000215F2002F0CCF9E021602002F0C8F99E
:100BCC005421612002F0C4F93321622002F0C0F9F3
:100BDC000121632002F0BCF9FF21642002F0B8F976
:100BEC000121652002F0B4F9FF21662002F0B0F972
:100BFC008921672002F0ACF9AB21682002F0A8F93A
:100C0C008821692002F0A4F96E216A2002F0A0F973
:100C1C006E216B2002F09CF96E216C2002F098F989
:100C2C0000216D2002F094F900216E2002F090F961
:100C3C0000216F2002F08CF90021702002F088F95D
:100C4C000021712002F084F90021722002F080F959
:100C5C000021732002F07CF90021742002F078F955
:100C6C00FF21752002F074F9FF21762002F070F953
:100C7C00FF21772002F06CF9FF21782002F068F94F
:100C8C00FF21792002F064F9FF217A2002F060F94B
:100C9C00FF217B2002F05CF9FF217C2002F058F947
:100CAC00F0217D2002F054F980217E2002F050F9D1
:100CBC0000217F2002F04CF90021802002F048F93D
:100CCC0002E000BF101E01083421812002F040F91F
:100CDC004021822002F03CF90521832002F038F9F2
:100CEC005921842002F034F9FD21852002F030F9DD
:100CFC000421862002F02CF92421872002F028F907
:100D0C009421882002F024F95821892002F020F93E
:100D1C0000218A2002F01CF97E218B2002F018F9A8
:100D2C0003218C2002F014F92C218D2002F010F9F3
:100D3C008C218E2002F00CF900218F2002F008F992
:100D4C00CC21902002F004F94121912002F000F90D
:100D5C00C421922002F0FCF83121932002F0F8F823
:100D6C008721942002F0F4F8D021952002F0F0F8BD
:100D7C00F321962002F0ECF82021972002F0E8F8FD
:100D8C001121982002F0E4F89021992002F0E0F86B
:100D9C00FF219A2002F0DCF804219B2002F0D8F805
:100DAC000A219C2002F0D4F800219D2002F0D0F8FA
:100DBC0004219E2002F0CCF865219F2002F0C8F897
:100DCC002F21A02002F0C4F8D921A12002F0C0F8F4
:100DDC009821A22002F0BCF88721A32002F0B8F8D9
:100DEC00E121A42002F0B4F83821A52002F0B0F8DB
:100DFC00C221A62002F0ACF87021A72002F0A8F8BE
:100E0C000021A82002F0A4F81E21A92002F0A0F8CD
:100E1C002E21AA2002F09CF80021AB2002F098F8B9
:100E2C008421AC2002F094F8F321AD2002F090F86C
:100E3C006521AE2002F08CF89921AF2002F088F8E1
:100E4C000021B02002F084F80021B12002F080F8DB
:100E5C000021B22002F07CF80021B32002F078F8D7
:100E6C000021B42002F074F80021B52002F070F8D3
:100E7C000021B62002F06CF88021B82002F068F84E
:100E8C000021B92002F064F80121BA2002F060F8C8
:100E9C000021BB2002F05CF89021BC2002F058F835
:100EAC000121BD2002F054F82C21BE2002F050F894
:100EBC000021C02002F04CF82021C12002F048F89B
:100ECC002021C22002F044F82021C32002F040F877
:100EDC002021C42002F03CF82021C52002F038F873
:100EEC00FF21D02002F034F83F21D12002F030F85D
:100EFC00C221D22002F02CF83F21D32002F028F896
:100F0C000021D42002F024F80021D52002F020F892
:100F1C000021D62002F01CF81021D72002F018F87E
:100F2C000021D82002F014F87721DC2002F010F810
:100F3C000021DD2002F00CF8AF21DE2002F008F8D1
:100F4C00EF21DF2002F004F80021E02002F000F88D
:100F5C000021E12001F0FCFF0021E22001F0F8FF6C
:100F6C001221E32001F0F4FFE221E42001F0F0FF74
:100F7C00D021E52001F0ECFF0021E62001F0E8FF94
:100F8C000021E72001F0E4FF0F21E82001F0E0FF51
:100F9C000021E92001F0DCFF0021EA2001F0D8FF5C
:100FAC000021EB2001F0D4FF8821EC2001F0D0FFD0
:100FBC000021ED2001F0CCFF0021EE2001F0C8FF54
:100FCC000021EF2001F0C4FF3021F02001F0C0FF20
:100FDC004321F12001F0BCFF1F21F22001F0B8FFEA
:100FEC001F21F32001F0B4FF2221F42001F0B0FF07
:100FFC007321F52001F0ACFF5321F62001F0A8FF7E
:10100C008021F72001F0A4FF0121F82001F0A0FFBE
:10101C000121F92001F09CFF0021FA2001F098FF3A
:10102C000021FB2001F094FF0021FC2001F090FF37
:10103C007021FD2001F08CFF4021FE2001F088FF83
:10104C000721FF2001F084FF08BD00BF70B590B0F0
:10105C002022002107A807F03EF8002401940294F6
:10106C000394049405940225069501260A961023F0
:10107C000B930D954FF4E0130F9306A801F052FA61
:10108C000F2301930295039404940594314601A80F
:10109C0001F088FC10B070BD0268184B9A4200D069
:1010AC007047174A13780133DBB2137015490A687D
:1010BC0001320A6014490A6801320A60632B09D9AB
:1010CC00124A1368013313600D4B00221A70104B37
:1010DC0001221A600F4B1A6801321A601A680E4B03
:1010EC009A42DDD90B4B00221A600C4B1B78012B5A
:1010FC00D6D10B4A137801331370D1E700040040AA
:10110C006B0100206C0100207001002064010020A4
:10111C00600100203C010020A08601000800002096
:10112C001101002010B504460268184B9A4204D0F5
:10113C002268174B9A4214D010BD16490A78531CDA
:10114C00DBB20B7014490878144988541D2B02D952
:10115C00104B00221A7001220F49114801F04AF875
:10116C00E6E710490A78531CDBB20B700E4908787D
:10117C000E4988541D2B02D90A4B00221A700122E9
:10118C0009490B4801F036F8D6E700BF003801409A
:10119C0000440040590100201C0100205C05002087
:1011AC007C03002057010020180100209C05002022
:1011BC00000400207047000038B5012825D000211C
:1011CC00322001F0C5FE0021192001F0C1FE0024DF
:1011DC00394B1C70394806F0FBFF39480470012369
:1011EC0043700EF0A3FA2146192001F0B1FE354BE5
:1011FC001B78012B04D00121002002F00FFD23E00D
:10120C002146204602F00AFD1EE00021322001F0AA
:10121C009FFE294C012525702B4806F0D9FF284844
:10122C000570022343700EF081FA0421192001F09D
:10123C008FFE2378AB420ED0224B5B78012B35D03E
:10124C000121084602F0EAFC204B00221A70204BC8
:10125C0001221A7038BD1F4B1B78072B10D01E486B
:10126C0006F042FF1D4B1B78052B13D0062B14D018
:10127C00B3B1012B17D00121102001F069FEDBE77F
:10128C00FFF7EEFA164806F02FFF2946284602F023
:10129C00C5FCD1E7FFF7F0FACEE7FFF7E1FACBE7B1
:1012AC00FFF7FAFAC8E7FFF703FBC5E700210120B7
:1012BC0002F0B4FCC8E700BF1E010020C01D0108ED
:1012CC00440400202C010020D41D01081101002031
:1012DC0008000020DC040020F01D01081C00002088
:1012EC00E81D010800B583B061E0134600221A70B6
:1012FC0008F026F96AE05B4A13780133DBB213700D
:10130C00594A127893427FD90021564B1970574B8A
:10131C0019705B78032B14D8013354494B70534C20
:10132C0063780192009340F63103514A5149524877
:10133C0006F0DAFE20460EF0F9F9504B00221A7036
:10134C0062E04A4B01215970E9E7484B5B784B4A04
:10135C0012780192009340F63903454A45494848B2
:10136C0006F0C2FE54E0454B1B78092B54D90023E0
:10137C00424A1370434A137002F00DFC4CE080217A
:10138C00322001F0E5FD4CE0FFF716FF01E005F01F
:10139C00E3F904F0CDFA0028F9D13B4B1B68002B84
:1013AC00F7D006F0EBFB06F0C7FB03F0A1F9364BC8
:1013BC001B68012BEDD1FFF7D3F8FEF7ADFF334AD5
:1013CC0013780133DBB213700A2B8ED80A2001F08C
:1013DC00A7FD2F4A138801339BB21380642B06D9C7
:1013EC00134600221A80254A137801331370234BBD
:1013FC001B78284A1268934213D0264A1360264B56
:10140C001B78012B3FF477AF234B1B78012B9CD01F
:10141C001C4B1B78012BA6D0322001F08FFD00282D
:10142C00ADD003F0FDFD10211C4801F081FC1C4BDC
:10143C0018701C4B1B789842ABD0322001F070FD19
:10144C001021164801F074FC154B1870154B1B78C5
:10145C0098429ED0134B1870012895D00020FFF7AE
:10146C00ABFE96E737010020120000204404002058
:10147C00E01E01086C1D01082C2001081101002040
:10148C005020010808000020240000202401002026
:10149C003401002004000020360100200008014027
:1014AC00100100201E0100202DE9F04383B000F054
:1014BC00EBFFFFF7CBFDFFF761F9FEF76BFEFEF7D5
:1014CC00D5FEFEF7FDFEFEF711FF09F09DFA09F0BF
:1014DC0047FD09F0EDFE0AF0D7F90121002002F0DA
:1014EC009DFB0120FFF724F8322001F019FD0122A9
:1014FC005749584800F07EFE01225749574800F0E2
:10150C0079FE574D00224FF48051284601F017FC0C
:10151C00544C00220221204601F011FC642001F001
:10152C00FFFC01224FF48051284601F008FC0122F7
:10153C000221204601F003FC002420E04A4B1C70E1
:10154C004A4E4B4D009440F21F733246294649488F
:10155C0006F0CAFD002010F0E2FB8021892009F082
:10156C000FFB022009F0D0FA0190009440F2257391
:10157C0032462946404806F0B7FD0134E4B2012C4E
:10158C00DCD93E4C0025257065710126A67166706C
:10159C000223A3700327E7700423237138490F201B
:1015AC0002F01CFBFFF7F4F802F0CAFE284601F02B
:1015BC00C5FCDFF8B890DFF8B880009040F25373A8
:1015CC004A4641462F4806F08FFD40F254734A4676
:1015DC0041462D4806F088FDE771A67125726572AB
:1015EC00284601F04CFE20460EF0A0F8E3793BB102
:1015FC00264B1E6026490D6026490E70264A157032
:10160C0026485D2300F8013B20226D2106F063FD86
:10161C00012221230AE002F17F002049C854581C02
:10162C006D240C540132D2B20233DBB2402BF2D90E
:10163C001F226D211A4806F04EFD0020FEF7B6FE63
:10164C00184800F0CCF9184806F04EFDFFF74AFE9A
:10165C001C0100207C030020180100200004002045
:10166C00000C014000100140D1060020D81E0108DA
:10167C006C1D0108EC1E0108141F01084404002015
:10168C00D8970108441F0108681F010814010020A5
:10169C002001002008000020110100200802002079
:1016AC00470200200C030020901F01087047FEE742
:1016BC00FEE7FEE7FEE770477047704708B500F09D
:1016CC00F5FE08BD08B5042001F040FB08BD000084
:1016DC0008B5024800F098F908BD00BF0C030020C3
:1016EC0008B5024800F012FE08BD00BF7C030020C4
:1016FC0008B5024800F00AFE08BD00BF0004002037
:10170C0082B00E4B9A6942F001029A619A6902F01A
:10171C0001020092009ADA6942F08052DA61DB69C8
:10172C0003F080530193019B054A536823F0E06357
:10173C0043F00073536002B0704700BF00100240CA
:10174C000000014002680E4B9A4200D0704700B571
:10175C0083B003F50333DA6942F00202DA61DB6924
:10176C0003F002030193019B002211461D2001F09E
:10177C0059FB1D2001F08AFB03B05DF804FB00BF90
:10178C000004004070B588B0044600230493059310
:10179C00069307930268364B9A4205D02268354B64
:1017AC009A4234D008B070BD03F558439A6942F49C
:1017BC0080429A619A6902F480420092009A9A6976
:1017CC0042F004029A619B6903F004030193019BAC
:1017DC004FF4007304930223059303230793264EBF
:1017EC0004A9304601F0B8F94FF480630493002546
:1017FC000595069504A9304601F0AEF92A4629460E
:10180C00252001F00FFB252001F040FBC6E703F576
:10181C00E633DA6942F40032DA61DA6902F4003252
:10182C000292029A9A6942F004029A619B6903F04F
:10183C0004030393039B04230493022305930323C0
:10184C0007930D4D04A9284601F086F9082304934B
:10185C0000240594069404A9284601F07DF922463B
:10186C002146262001F0DEFA262001F00FFB99E735
:10187C0000380140004400400008014070B4036A85
:10188C0023F001030362036A4268846924F0730441
:10189C000D6845EA040623F002048B6823430D4DC2
:1018AC00A84209D00B4DA8420DD0426086614A680F
:1018BC004263036270BC704723F00803CC68234377
:1018CC0023F00403EEE722F440724C6914438A6956
:1018DC002243EAE7002C014030B4036A23F48073FE
:1018EC000362036A4268C46924F073040D682C43D4
:1018FC0023F400738D6843EA05230F4DA84209D0E9
:10190C000D4DA8420ED04260C4614A68C2630362A6
:10191C0030BC704723F40063CD6843EA052323F4FD
:10192C008063EDE722F440524D6942EA05128D695D
:10193C0042EA0512E7E700BF002C014030B4036A0D
:10194C0023F480530362036A4468C26922F4E642BA
:10195C000D6842EA052223F400538D6843EA0533EF
:10196C00074DA84206D04460C2614A680264036213
:10197C0030BC704724F480444D6944EA8514F2E786
:10198C00002C014010B4036A046A24F001040462C0
:10199C00846924F0F00444EA021223F00A030B4396
:1019AC008261036210BC704710B4036A23F0100309
:1019BC0003628469036A24F4704444EA023223F01B
:1019CC00A00343EA01138261036210BC7047836871
:1019DC0023F07003194341F00701816070470268DE
:1019EC00D36843F00103D3600268936803F00703E4
:1019FC00062B03D0136843F00103136000207047DB
:101A0C00704770477047704710B5044603681A69F1
:101A1C0012F0020F11D0DA6812F0020F0DD06FF035
:101A2C0002021A610123037703689B6913F0030F09
:101A3C0070D0FFF7E6FF0023237723681A6912F0B2
:101A4C00040F12D0DA6812F0040F0ED06FF00402FB
:101A5C001A610223237723689B6913F4407F5FD0BC
:101A6C002046FFF7CEFF0023237723681A6912F074
:101A7C00080F12D0DA6812F0080F0ED06FF00802BF
:101A8C001A61042323772368DB6913F0030F4ED00C
:101A9C002046FFF7B6FF0023237723681A6912F05C
:101AAC00100F12D0DA6812F0100F0ED06FF0100277
:101ABC001A61082323772368DB6913F4407F3DD038
:101ACC002046FFF79EFF0023237723681A6912F044
:101ADC00010F03D0DA6812F0010F36D123681A69AE
:101AEC0012F0800F03D0DA6812F0800F34D1236823
:101AFC001A6912F0400F03D0DA6812F0400F32D19D
:101B0C0023681A6912F0200F03D0DA6812F0200F44
:101B1C0030D110BDFFF774FF2046FFF773FF8AE743
:101B2C002046FFF76DFF2046FFF76CFF9BE7204632
:101B3C00FFF766FF2046FFF765FFACE72046FFF78F
:101B4C005FFF2046FFF75EFFBDE76FF001021A61F1
:101B5C002046FFF7A1FAC1E76FF080021A61204618
:101B6C0000F0CEF9C3E76FF040021A612046FFF790
:101B7C004AFFC5E76FF020021A61204600F0BFF95A
:101B8C00C7E7000003681B4A90420AD0B0F1804FAF
:101B9C0007D0A2F59432904203D002F580629042B5
:101BAC0003D123F070034A681343124A90420AD0BF
:101BBC00B0F1804F07D0A2F59432904203D002F5D9
:101BCC008062904203D123F44073CA68134323F01C
:101BDC0080034A69134303608B68C3620B6883629A
:101BEC00044B984202D00123436170470B69036395
:101BFC00F9E700BF002C0140A8B110B5044690F8DD
:101C0C003D305BB1022384F83D30211D2068FFF785
:101C1C00B9FF012384F83D30002010BD80F83C3022
:101C2C00FFF790FDEEE701207047000030B4036A27
:101C3C0023F010030362036A4468826922F4E642CB
:101C4C000D6842EA052223F020038D6843EA051350
:101C5C000E4DA84209D00D4DA8420ED044608261B1
:101C6C004A688263036230BC704723F08003CD68FE
:101C7C0043EA051323F04003EDE724F440644D6977
:101C8C0044EA85048D6944EA8504E7E7002C0140A9
:101C9C0038B590F83C30012B66D00D460446012334
:101CAC0080F83C30022380F83D300C2A1AD8DFE84B
:101CBC0002F00719191920191919341919194700A3
:101CCC000068FFF7DBFD2268936943F0080393611A
:101CDC002268936923F0040393612268936929694C
:101CEC000B439361012384F83D30002084F83C00C1
:101CFC0038BD0068FFF79AFF2268936943F40063CC
:101D0C0093612268936923F48063936122689369D9
:101D1C00296943EA01239361E4E70068FFF7DCFDDE
:101D2C002268D36943F00803D3612268D36923F096
:101D3C000403D3612268D36929690B43D361D1E7CA
:101D4C000068FFF7FBFD2268D36943F40063D3619D
:101D5C002268D36923F48063D3612268D36929692B
:101D6C0043EA0123D361BDE70220C1E710B48468C4
:101D7C0024F47F4442EA03230B432343836010BCC7
:101D8C00704790F83C30012B66D010B50446012307
:101D9C0080F83C30022380F83D300268936823F4CD
:101DAC007F4323F0770393600B68402B4AD013D901
:101DBC00602B3DD01ED9702B28D0B3F5005F30D1ED
:101DCC00CB684A6889680068FFF7D0FF226893687F
:101DDC0043F48043936024E0102B06D004D9202BCD
:101DEC0003D0302B01D01CE0DBB919462068FFF77B
:101DFC00EEFD16E0502B14D1CA6849680068FFF755
:101E0C00C1FD50212068FFF7E2FD0AE0CB684A686B
:101E1C0089680068FFF7AAFF2268936843F077038C
:101E2C009360012384F83D30002084F83C0010BD01
:101E3C00CA6849680068FFF7B7FD60212068FFF7A2
:101E4C00C6FDEEE7CA6849680068FFF79BFD4021B4
:101E5C002068FFF7BCFDE4E70220704710B401F0E6
:101E6C001F01012303FA01F4036A23EA040303624A
:101E7C00036A8A401343036210BC704710B50446D2
:101E8C0001220068FFF7EAFF23680A4A93420BD04D
:101E9C002268936803F00703062B03D0136843F002
:101EAC0001031360002010BD5A6C42F400425A64C6
:101EBC00EEE700BF002C014090F83C30012B1CD009
:101ECC0070B4012680F83C60022380F83D30026833
:101EDC005568936825F070050C682C4323F0800539
:101EEC004B682B4354600268936080F83D6000237C
:101EFC0080F83C30184670BC704702207047704721
:101F0C0070470268D36823F49073D36002685369F6
:101F1C0023F001035361202380F83A30704790F886
:101F2C003930DBB2212B2AD18368B3F5805F16D010
:101F3C00036A5A1C02621A7803685A60C38C013B0C
:101F4C009BB2C384EBB90268D36823F08003D360DF
:101F5C000268D36843F04003D36000207047036AE3
:101F6C001B880268C3F30803536003691BB9036A37
:101F7C0002330362E2E7036A01330362DEE7022005
:101F8C00704700207047000038B50446026813699A
:101F9C0023F44053C1680B431361836802691343F4
:101FAC0042691A430168CB6823F4B05323F00C0345
:101FBC001343CB600268536923F4407381690B436C
:101FCC0053610268214B9A421FD000F0A5FD00EB33
:101FDC00800000EB800063689B00B0FBF3F01C4DAD
:101FEC00A5FB00325109642202FB110213013233AA
:101FFC00A5FB03235B0903F0F00202EB011203F0D3
:10200C000F03216813448B6038BD00F095FD00EB85
:10201C00800000EB800063689B00B0FBF3F00C4D7C
:10202C00A5FB00325109642202FB11021301323369
:10203C00A5FB03235B0903F0F00202EB011203F092
:10204C000F03216813448B60DEE700BF00380140AA
:10205C001F85EB512DE9F04105460F461646984673
:10206C00069C2B681B6837EA03030CBF0123002373
:10207C00B3421DD1B4F1FF3FF3D02CB100F022FAE2
:10208C00A0EB0800A042ECD92A68D36823F4D073E3
:10209C00D3602A68536923F001035361202385F828
:1020AC00393085F83A30002385F83830032000E0C9
:1020BC000020BDE8F08158B310B5044690F83930D3
:1020CC000BB3242384F839302268D36823F40053EB
:1020DC00D3602046FFF758FF2268136923F490431E
:1020EC0013612268536923F02A0353612268D36871
:1020FC0043F40053D3600020E063202384F839308C
:10210C0084F83A3010BD80F83830FFF73BFBD8E745
:10211C00012070472DE9F04182B01E4690F839300D
:10212C00DBB2202B55D104460D469046002955D0E4
:10213C00002A55D090F83830012B53D0012380F869
:10214C0038300023C363212380F8393000F0BAF90A
:10215C000746A4F82480A4F8268010E000963B469D
:10216C00002280212046FFF775FF00283CD12B88E8
:10217C002268C3F3080353602369C3B90235E38CA7
:10218C009BB2B3B1E38C013B9BB2E384A368B3F580
:10219C00805FE3D000963B46002280212046FFF76B
:1021AC0059FF18BB2A7823685A600135E7E70135D7
:1021BC00E5E700963B46002240212046FFF74AFF08
:1021CC000346A8B9202284F83920002284F838204C
:1021DC0000E00223184602B0BDE8F0810123F9E7C4
:1021EC000123F7E70223F5E70323F3E70323F1E7E2
:1021FC000323EFE790F83A30DBB2202B20D109B360
:10220C0012B390F83830012B20D081628285C285C0
:10221C000023C363222280F83A2080F8383001680A
:10222C00CA6842F48072CA6001684A6942F00102CD
:10223C004A610168CA6842F02002CA6018467047B9
:10224C000220704701207047012070470220704720
:10225C00704708B50168CB6823F04003CB6020239E
:10226C0080F83930FFF7F4FF002008BD08B590F86E
:10227C003A30DBB2222B45D18368B3F5805F0ED0A8
:10228C00036903BB03685A68836A591C81621A701C
:10229C00C38D013B9BB2C385F3B1002033E0826A4E
:1022AC00036943B903685B68C3F308031380836A4B
:1022BC0002338362ECE703685B68DBB21380836AEA
:1022CC0001338362E4E703685B68826A511C8162B4
:1022DC0003F07F031370DBE70268D36823F020035D
:1022EC00D3600268D36823F48073D36002685369A7
:1022FC0023F001035361202380F83A30FEF712FFDC
:10230C00002000E0022008BD7047000010B5044614
:10231C0002681368D168526913F00F0005D113F0ED
:10232C00200F02D011F0200F53D1002867D012F0EB
:10233C00010202D111F4907F61D013F0010F06D08D
:10234C0011F4807F03D0E06B40F00100E06313F0E8
:10235C00040F04D01AB1E06B40F00200E06313F0FC
:10236C00020F04D01AB1E06B40F00400E06313F0EC
:10237C00080F04D01AB1E26B42F00802E263E26B80
:10238C00002A48D013F0200F02D011F0200F24D1D6
:10239C0023685B6903F04003E26B12F0080F00D175
:1023AC003BB32046FFF7ADFD23685A6912F0400F8E
:1023BC001BD05A6922F040025A61636B8BB11A4AE6
:1023CC005A63606B00F0D0FC28B3606B436B98478A
:1023DC0021E02046FFF74AFF1DE02046FFF746FFAD
:1023EC00D6E72046FFF790FF15E02046FFF78CFF5D
:1023FC0011E02046FFF788FF0023E3630BE013F0A6
:10240C00800F02D011F0800F06D113F0400F02D0D4
:10241C0011F0400F04D110BD2046FFF780FDFAE704
:10242C002046FFF716FFF6E73924000808B5406A86
:10243C000023C385C384FFF767FF08BD10B50446AE
:10244C000E4B18784FF47A73B3FBF0F30C4A106808
:10245C00B0FBF3F000F028FD68B90F2C01D9012076
:10246C000AE0002221464FF0FF3000F0DBFC054B68
:10247C001C60002000E0012010BD00BF13000020F4
:10248C00180000201400002008B5074A136843F018
:10249C0010031360032000F0B3FC0020FFF7CEFF05
:1024AC00FFF72EF9002008BD00200240034A1168F6
:1024BC00034B1B780B441360704700BF5C04002077
:1024CC0013000020014B1868704700BF5C0400200B
:1024DC0038B50446FFF7F6FF0546B4F1FF3F02D0CE
:1024EC00044B1B781C44FFF7EDFF401BA042FAD3B2
:1024FC0038BD00BF1300002082B0084B1B68084A8F
:10250C00A2FB03235B0A00FB03F0019000BF019BBD
:10251C005A1E0192002BF9D102B07047180000200E
:10252C00D34D6210002800F0F58170B582B00446DE
:10253C00036813F0010F2CD0AB4B5B6803F00C035A
:10254C00042B1DD0A84B5B6803F00C03082B12D096
:10255C006368B3F5803F41D0002B55D103F1804324
:10256C0003F504331A6822F480321A601A6822F4D4
:10257C0080221A6037E09C4B5B6813F4803FE7D0F5
:10258C00994B1B6813F4003F03D06368002B00F0D9
:10259C00C381236813F0020F76D0934B5B6813F062
:1025AC000C0F5FD0904B5B6803F00C03082B54D0DE
:1025BC002369002B00F08A808C4B01221A60FFF7F4
:1025CC0081FF0546884B1B6813F0020F75D1FFF78E
:1025DC0079FF401B0228F5D90320A0E1824A136839
:1025EC0043F480331360636843B3FFF76BFF054616
:1025FC007D4B1B6813F4003FCBD1FFF763FF401BEF
:10260C006428F5D903208AE1B3F5A02F09D0764BC5
:10261C001A6822F480321A601A6822F480221A6036
:10262C00E1E703F18043A3F53C331A6842F48022BE
:10263C001A601A6842F480321A60D4E7FFF742FF3E
:10264C000546694B1B6813F4003FA2D0FFF73AFF15
:10265C00401B6428F5D9032061E1634B5B6813F4DC
:10266C00803FA5D1604B1B6813F0020F04D0236987
:10267C00012B01D0012052E15B4A136823F0F803CF
:10268C00616943EAC1031360236813F0080F32D069
:10269C00A369002B5BD0564B01221A60FFF712FF87
:1026AC000546514B5B6A13F0020F21D1FFF70AFF6D
:1026BC00401B0228F5D9032031E14B4A136823F063
:1026CC00F803616943EAC1031360DDE7474B00225D
:1026DC001A60FFF7F7FE0546434B1B6813F0020F19
:1026EC00D2D0FFF7EFFE401B0228F5D9032016E1EC
:1026FC000120FFF701FF236813F0040F00F098800E
:10270C00394BDB6913F0805F33D1374BDA6942F018
:10271C008052DA61DB6903F080530193019B012540
:10272C00344B1B6813F4807F25D0E368012B36D023
:10273C00002B4CD103F1804303F504331A6A22F0C9
:10274C0001021A621A6A22F004021A622CE0284B67
:10275C0000221A60FFF7B6FE0546234B5B6A13F0A6
:10276C00020FC8D0FFF7AEFE401B0228F5D903209C
:10277C00D5E00025D4E71F4A136843F48073136037
:10278C00FFF7A0FE06461B4B1B6813F4807FCCD1D1
:10279C00FFF798FE801B6428F5D90320BFE0124A8E
:1027AC00136A43F001031362E3687BB3FFF78AFEFD
:1027BC0006460D4B1B6A13F0020F38D1FFF782FE51
:1027CC00801B41F288339842F3D90320A7E0052BF4
:1027DC0012D0054B1A6A22F001021A621A6A22F010
:1027EC0004021A62E0E700BF0010024000004242FF
:1027FC0080044242007000404C4B1A6A42F00402C2
:10280C001A621A6A42F001021A62CDE7FFF75AFE09
:10281C000646464B1B6A13F0020F08D0FFF752FE18
:10282C00801B41F288339842F3D9032077E0E5B955
:10283C00E369002B72D03D4A526802F00C02082A60
:10284C0056D0022B17D03A4B00221A60FFF73AFEF3
:10285C000446364B1B6813F0007F47D0FFF732FE5F
:10286C00001B0228F5D9032059E0304AD36923F024
:10287C008053D361DCE72E4B00221A60FFF722FE57
:10288C0005462A4B1B6813F0007F06D0FFF71AFE93
:10289C00401B0228F5D9032041E0236AB3F5803FA1
:1028AC001AD022494B6823F47413226A606A0243DB
:1028BC0013434B601E4B01221A60FFF703FE0446C4
:1028CC001A4B1B6813F0007F0ED1FFF7FBFD001BAA
:1028DC000228F5D9032022E0144A536823F400336C
:1028EC00A1680B435360DCE7002018E0002016E0E1
:1028FC00012B16D00D4B5B6803F48031226A914298
:10290C0001D001200BE003F47013626A93420AD0E9
:10291C00012004E001207047012000E0002002B0FB
:10292C0070BD0120FBE70020F9E700BF001002405A
:10293C006000424210B487B0164C94E80F000DF1C1
:10294C00180C0CE90F00238AADF80430124B5B68AD
:10295C0003F00C02082A1AD1C3F38342624412F822
:10296C00102C13F4803F05D10C4800FB02F007B08B
:10297C0010BC7047084B5B68C3F34043634413F8C7
:10298C00143C074800FB02F0B0FBF3F0EFE70448FF
:10299C00EDE700BF581D01080010024000093D0082
:1029AC0000127A00002800F0A38070B50446524B48
:1029BC001B6803F007038B420CD24F4A136823F0B9
:1029CC0007030B431360136803F007038B4201D01A
:1029DC00012070BD236813F0020F17D013F0040F01
:1029EC0004D0464A536843F4E0635360236813F001
:1029FC00080F04D0414A536843F4605353603F4A74
:102A0C00536823F0F003A068034353600D4623681A
:102A1C0013F0010F31D06368012B20D0022B25D08D
:102A2C00364A126812F0020F64D034494A6822F018
:102A3C00030213434B60FFF745FD06462F4B5B68C3
:102A4C0003F00C036268B3EB820F16D0FFF73AFD6C
:102A5C00801B41F288339842F0D90320B9E7274A0A
:102A6C00126812F4003FE0D10120B2E7234A126849
:102A7C0012F0007FD9D10120ABE71F4B1B6803F08C
:102A8C000703AB420CD91C4A136823F007032B43F2
:102A9C001360136803F00703AB4201D0012098E7E1
:102AAC00236813F0040F06D0144A536823F4E06330
:102ABC00E1680B435360236813F0080F07D00F4AEB
:102ACC00536823F46053216943EAC1035360FFF751
:102ADC0031FF0A4B5B68C3F30313094AD35CD8403C
:102AEC00084B1860084B1868FFF7A8FC002070E72B
:102AFC000120704701206CE70020024000100240CA
:102B0C00742001081800002014000020014B1868E4
:102B1C00704700BF1800002008B5FFF7F7FF044B03
:102B2C005B68C3F30223034AD35CD84008BD00BFE3
:102B3C00001002408420010808B5FFF7E7FF044BA2
:102B4C005B68C3F3C223034AD35CD84008BD00BF03
:102B5C000010024084200108F0B482B000263246F6
:102B6C00A2E0002D5AD0012D00D1CE68FF2B69D8E0
:102B7C008446FF2B69D89500DCF800400F27AF4046
:102B8C0024EA070406FA05F52C43CCF800404C68FF
:102B9C0014F0805F00F087805F4CA56945F001055B
:102BAC00A561A46904F001040194019C9508AF1C73
:102BBC005A4C54F8274002F00307BF004FF00F0C9B
:102BCC000CFA07FC24EA0C0C554CA04243D004F53B
:102BDC008064A04200F0818004F58064A0427ED025
:102BEC0004F58064A04234D0042435E04D4FBD423E
:102BFC0014D00BD94C4FBD4210D007F58037BD42D5
:102C0C000CD0A7F58017BD42B0D107E0A7F580170F
:102C1C00BD4203D007F58037BD42A7D18D687DB189
:102C2C00012D08D044610826A0E7CE6808369DE740
:102C3C00CE680C369AE70461082697E7002695E7DC
:102C4C00042693E700F1040C93E7A2F10805AD000C
:102C5C0092E7032400E00024BC4044EA0C04023553
:102C6C002E4F47F825404C6814F4803F39D02F4D37
:102C7C002C681C432C604C6814F4003F37D02B4D4F
:102C8C006C681C436C604C6814F4801F35D0274D65
:102C9C00AC681C43AC604C6814F4001F33D0234D5B
:102CAC00EC682343EB6001320B6833FA02F430D04A
:102CBC000124944023409C42F5D14D68122DB7D08D
:102CCC0094D8022DB1D07FF64CAF032DB6D0112D78
:102CDC007FF44CAFCE68043648E70124BCE70224ED
:102CEC00BAE7124D2C6824EA03042C60C3E70F4D9D
:102CFC006C6824EA03046C60C5E70C4DAC6824EAEC
:102D0C000304AC60C7E7094DEC6824EA0303EB60ED
:102D1C00C9E702B0F0BC704700100240000001404F
:102D2C000008014000002110000031100004014097
:102D3C008368194201D1002070470120704712B9F5
:102D4C0009040161704701617047000008B5054B2B
:102D5C005B69034200D108BD024B5861FEF72AFAA9
:102D6C00F9E700BF0004014008B590F82130022BB0
:102D7C0003D004238363012008BD0268136823F089
:102D8C000E0313600268136823F0010313600368D9
:102D9C00194A934214D0143293421FD014329342E6
:102DAC001ED0143293421ED0143293421ED01432D1
:102DBC00934202D04FF0807203E04FF4801200E097
:102DCC0001220E4B5A60012380F82130002380F839
:102DDC002030436B6BB198470020CDE71022F0E711
:102DEC004FF48072EDE74FF48052EAE74FF48032F3
:102DFC00E7E70020C0E700BF0800024000000240E7
:102E0C00074AD36823F4E0631B041B0C000200F494
:102E1C00E060184340F0BF6040F40030D060704771
:102E2C0000ED00E030B4174BDB68C3F30223C3F1B1
:102E3C000704042C28BF04241D1D062D18D9033BA0
:102E4C004FF0FF3505FA04F421EA0401994005FA24
:102E5C0003F322EA0303194300280BDB0901C9B26F
:102E6C0000F1604000F5614080F8001330BC704701
:102E7C000023E5E700F00F000901C9B2024B195419
:102E8C00F4E700BF00ED00E014ED00E0002807DBE4
:102E9C0000F01F02400901239340024A42F82030FF
:102EAC00704700BF00E100E00138B0F1807F0AD22A
:102EBC00064B5860064AF02182F8231000209860D7
:102ECC0007221A6070470120704700BF10E000E035
:102EDC0000ED00E00F4B1A6842F001021A605968CD
:102EEC000D4A0A405A601A6822F0847222F4803229
:102EFC001A601A6822F480221A605A6822F4FE02C0
:102F0C005A604FF41F029A60044B4FF000629A60B3
:102F1C00704700BF001002400000FFF800ED00E019
:102F2C0008B5034B1B7803B108BDFFF7D1FAFBE7DB
:102F3C006004002008B5FFF7CBFA08BD08B5034BB9
:102F4C001B780146184608F05CF808BD10000020FC
:102F5C0008B5044B1B780A460146184608F006F8DB
:102F6C0008BD00BF1000002008B5034B1B780146BC
:102F7C00184608F046F808BD1100002008B5044BAF
:102F8C001B780A460146184607F0F0FF08BD00BF43
:102F9C001100002008B508F01CFC08BD08B508F0AD
:102FAC00F1FB08BD10B51C461346224607F0FBFF8B
:102FBC0010BD70B588B004460D46164619786846A3
:102FCC0005F089F833466A462946204607F0EBFFA0
:102FDC0008B070BD38B50546002404E00520FFF7A5
:102FEC0077FA0134A4B2AC42F8D338BD08B5014627
:102FFC00024B187808F0ADF908BD00BFE8040020BA
:10300C0008B50A460146024B187808F057F908BD76
:10301C00E804002008B5FFF75BFA08BD08B50146C7
:10302C004A2008F092FA08BD08B50A4601464A2023
:10303C0008F0BFFA08BD08B5082809D8DFE800F089
:10304C00050505050D0D0D0D09005220FFF780FF3C
:10305C0008BD5720FFF77CFFFAE75D20FFF778FFEC
:10306C00F6E7F8B505460C4617465320FFF766FF02
:10307C0000F03F065E20FFF761FF00F03F0104F017
:10308C003F04082D0ED8DFE805F0050E19242F3764
:10309C00424D580031465320FFF75AFF214653202A
:1030AC00FFF756FFF8BD46F040015320FFF750FFE5
:1030BC0044F040015320FFF74BFFF3E746F080014B
:1030CC005320FFF745FF44F080015320FFF740FFEA
:1030DC00E8E746F0C0015320FFF73AFF44F0C00187
:1030EC005320FFF735FFDDE75E20FFF731FF214668
:1030FC005E20FFF72DFFD5E741F040015E20FFF782
:10310C0027FF44F040015E20FFF722FFCAE741F0A1
:10311C0080015E20FFF71CFF44F080015E20FFF76A
:10312C0017FFBFE741F0C0015E20FFF711FF44F02D
:10313C00C0015E20FFF70CFFB4E721465820FFF7D3
:10314C0007FF07F01F015920FFF702FFAAE738B568
:10315C00CDB2090A090101F07001D4B2C2F3022206
:10316C00082812D8DFE800F0050505051F1F1F1FF2
:10317C00120011435420FFF7EBFE29465520FFF7B0
:10318C00E7FE21465620FFF7E3FE38BD11435A20D7
:10319C00FFF7DEFE29465B20FFF7DAFE21465C20B6
:1031AC00FFF7D6FEF1E711435F20FFF7D1FE29466A
:1031BC006020FFF7CDFE21466120FFF7C9FEE4E752
:1031CC0070B506460C4614F8015B1021FD20FFF784
:1031DC00BFFE3146FE20FFF7BBFE044B187823469A
:1031EC002A46FF21FFF7DEFE70BD00BF1000002055
:1031FC0070B582B0064602AC04F8012D0D78702132
:10320C00FD20FFF7A5FE3146FE20FFF7A1FE044B83
:10321C00187823462A46FF21FFF7CBFE02B070BD7B
:10322C001000002038B504460D465320FFF786FEEB
:10323C0000F03F01A40164B22143C9B25320FFF74F
:10324C0087FE5E20FFF77AFE00F03F0044EA0001A3
:10325C00C9B25E20FFF77CFE5120FFF76FFE15F020
:10326C00080F01D100F0F70020F0070149B205F07A
:10327C000F052943C9B25120FFF76AFE38BD10B5BE
:10328C0004465120FFF75AFE2CB900F0F7015120EB
:10329C00FFF75EFE10BD40F00801C9B2F7E710B5AC
:1032AC0004466920FFF74AFE00F00F0141EA0411C1
:1032BC00C9B26920FFF74CFE00215820FFF748FEE9
:1032CC0010BD0000142860D8DFE800F00B0F1317B6
:1032DC001B1F23272B2F33373B3F43474B4F535752
:1032EC005B002C4B2C4A1A6070472A4B2B4A1A60F5
:1032FC007047284B2A4A1A607047264B294A1A6095
:10330C007047244B284A1A607047224B274A1A6090
:10331C007047204B264A1A6070471E4B254A1A608C
:10332C0070471C4B244A1A6070471A4B234A1A6088
:10333C007047184B1A4A1A607047164B204A1A608D
:10334C007047144B1F4A1A607047124B1E4A1A6082
:10335C007047104B1D4A1A6070470E4B1C4A1A607E
:10336C0070470C4B1B4A1A6070470A4B1A4A1A607A
:10337C007047084B194A1A607047064B184A1A6076
:10338C007047044B174A1A607047024B154A1A6073
:10339C00704700BF64040020408301085883010873
:1033AC004C830108648301081C830108C88201084E
:1033BC00288301083483010870830108988201086E
:1033CC00B0820108D4820108BC820108EC82010899
:1033DC00A4820108E082010804830108F882010834
:1033EC00108301089C8301082DE9F04705468846A7
:1033FC001746B64A1278C2F3400602F0010453BBDA
:10340C00B34B1B78012B21D04FF025094FF0F40A58
:10341C00002D40F0BB81002E40F07E81002C40F04E
:10342C0094810820FFF73BFFA84B1B78032B00F07F
:10343C006F82002E00F07F82A64B1B78002B40F091
:10344C00758204212846FFF7EDFE68E24FF03D0936
:10345C004FF0B40ADCE71A46012B1ED0022B2AD0FF
:10346C00032B36D0102B42D0202B7DD0402B00F0DC
:10347C00B880502B00F0D280303B0F2B00F21E8115
:10348C00002840F0ED80924B1B78012B00F0E3807C
:10349C004FF025094FF0F40ABAE78D4B1B78012B3E
:1034AC0004D04FF025094FF0F40AB1E74FF03D0975
:1034BC004FF0B40AACE7864B1B78012B04D04FF0CD
:1034CC0025094FF0F40AA3E74FF03D094FF0B40A79
:1034DC009EE77F4B1B78012B04D04FF025094FF052
:1034EC00F40A95E74FF03D094FF0B40A90E768B93C
:1034FC00774B1B78012B04D04FF025094FF0F40AC1
:10350C0086E74FF03D094FF0B40A81E701280AD055
:10351C00022816D06E4B1B78012B20D040F291194B
:10352C0040F2763A74E76A4B1B78012B04D04FF0CB
:10353C00250940F2763A6BE74FF03D0940F2744AA8
:10354C0066E7634B1B78012B04D040F291194FF0C6
:10355C00F40A5DE740F25B294FF0B40A58E740F2F9
:10356C005B2940F2744A53E768B9594B1B78012B1D
:10357C0004D04FF025094FF0F40A49E74FF03D090C
:10358C004FF0B40A44E701280AD0022816D0504B59
:10359C001B78012B20D04FF0250940F2B64A37E7B3
:1035AC004B4B1B78012B04D04FF0250940F2362AE7
:1035BC002EE74FF03D094FF4267A29E7444B1B7850
:1035CC00012B04D040F2911940F2362A20E740F248
:1035DC005B294FF4267A1BE74FF03D094FF4CB6A79
:1035EC0016E768B93A4B1B78012B04D04FF025092C
:1035FC004FF0F40A0CE74FF03D094FF0B40A07E71F
:10360C00334B1B78012B04D04FF0250940F2763A4E
:10361C00FEE64FF03D0940F2744AF9E668B92C4BCE
:10362C001B78012B04D04FF025094FF0F40AEFE67C
:10363C004FF03D094FF0B40AEAE6254B1B78012BFD
:10364C0004D040F291194FF0F40AE1E640F25B2904
:10365C004FF0B40ADCE64FF03D094FF0B40AD7E660
:10366C0001280AD0022816D0194B1B78012B20D028
:10367C004FF4027940F24A4ACAE6154B1B78012BEB
:10368C0004D04FF0250940F24A4AC1E64FF03D09FB
:10369C0040F2B45ABCE60E4B1B78012B04D04FF40D
:1036AC008C7940F24A4AB3E64FF4D37940F2B45ADB
:1036BC00AEE640F20F3940F2B45AA9E6602A0BD0BC
:1036CC004FF040094FF0E00AA2E600BFEF000020E7
:1036DC00DC0600206804002068B9A44B1B78012B81
:1036EC0004D04FF025094FF0F40A91E64FF03D0954
:1036FC004FF0B40A8CE601287FF48AAE9B4B1B7802
:10370C00012B04D040F2052940F24A4A80E640F2EF
:10371C000D3940F2B45A7BE6012298F800100020D3
:10372C00FFF79FFC00210846FFF785FC414600206F
:10373C00FFF746FD072241460020FFF759FD4A4698
:10374C0051460020FFF703FD68E60122397804207A
:10375C00FFF787FC40210420FFF76DFC3946402021
:10376C00FFF72EFD072239464020FFF741FD804B25
:10377C001A7802EB8202930009EB030292B2143224
:10378C0092B251460420FFF7E2FC4AE6012D2AD002
:10379C00022D66D0032D7FF444AE002E40F09F80A6
:1037AC00002C3FF43EAE012239780720FFF759FC7C
:1037BC0070210720FFF73FFC39467020FFF700FD12
:1037CC00072239467020FFF713FD694B1B7803EB7A
:1037DC0083039A004A4492B2143292B251460720A3
:1037EC00FFF7B5FC1DE61EBB002C3FF41AAE012200
:1037FC0039780520FFF735FC50210520FFF71BFC1D
:10380C0039465020FFF7DCFC072239465020FFF7E1
:10381C00EFFC574B1A7802EB8202930009EB030280
:10382C0092B2143292B251460520FFF790FCF8E5A3
:10383C00012298F800101046FFF713FC102101200C
:10384C00FFF7F9FB41461020FFF7BAFC072241466F
:10385C001020FFF7CDFC4A4651460120FFF777FCBC
:10386C00C2E71EBB002C3FF4DCAD012239780620E8
:10387C00FFF7F7FB60210620FFF7DDFB39466020E0
:10388C00FFF79EFC072239466020FFF7B1FC384B4E
:10389C001A7802EB8202930009EB030292B2143203
:1038AC0092B251460620FFF752FCBAE5012298F875
:1038BC0000100220FFF7D5FB20210120FFF7BBFBF6
:1038CC0041462020FFF77CFC072241462020FFF7D1
:1038DC008FFC4A4651460220FFF739FCC2E7012211
:1038EC0098F800100320FFF7BCFB30210320FFF7F2
:1038FC00A2FB41463020FFF763FC072241463020F3
:10390C00FFF776FC4A4651460320FFF720FC47E7B9
:10391C00184B1B782BB905212846FFF783FCBDE813
:10392C00F08707212846FFF77DFCF8E7022128469F
:10393C00FFF778FCF3E764B10E4B1B7823B9012138
:10394C002846FFF76FFCEAE702212846FFF76AFCDE
:10395C00E5E7084B1B7823B102212846FFF762FCF0
:10396C00DDE700212846FFF75DFCD8E7DC060020E8
:10397C00690400206804002070B586B005460E4628
:10398C0014462A4B1A5C012C0BD0022C2DD0032C84
:10399C002FD0002A3CD0012A3CD0022A2DD0244B17
:1039AC0002E001282BD0234B23490978914233D0D4
:1039BC0093E803000490ADF81410090C8DF8161060
:1039CC003046FFF77FFC1D4B1A6801AB106851683D
:1039DC0003C31189927A19809A70234601AA04A90B
:1039EC002846FFF701FD06B070BD02280AD0114B26
:1039FC00DAE7032809D00F4BD6E7114BD4E70022A6
:103A0C000C4BD1E700220E4BCEE70022084BCBE744
:103A1C000C4BC9E7074BC7E793E803000490ADF8DC
:103A2C0014106C238DF81630CAE700BFCC060020AA
:103A3C009483010884830108F501002064040020AC
:103A4C008C8301087C83010830B587B00D46144681
:103A5C0038B1012823D0022801D0124B02E0124BBE
:103A6C0000E0124B93E803000490ADF814106C23A3
:103A7C008DF816302846FFF725FC0D4B1A6801AB64
:103A8C001068516803C31189927A19809A70234681
:103A9C0001AA04A90020FFF7A7FC07B030BD054B15
:103AAC00E0E700BF948301088C8301087C83010844
:103ABC00640400208483010870B5F0B104465320DF
:103ACC00FFF73CFA00F03F065E20FFF737FA00F0F4
:103ADC003F05012C1CD0022C25D0032C2ED05120BC
:103AEC00FFF72CFA00F008011C4B1B788BB341F04C
:103AFC0002015120FFF72CFA09E0012200210846AF
:103B0C00FFF7AFFA012200210420FFF7AAFA70BDDB
:103B1C0046F040015320FFF71BFA45F040015E20B0
:103B2C00FFF716FADBE746F080015320FFF710FA97
:103B3C0045F080015E20FFF70BFAD0E746F0C0019C
:103B4C005320FFF705FA45F0C0015E20FFF700FA9D
:103B5C00C5E75120FFF7FCF9D9E700BF6804002046
:103B6C0008B50320FFF7A8FF08BD10B5022404E038
:103B7C002046FFF7A1FF0134E4B2032CF8D910BDA5
:103B8C0010B5012404E02046FFF796FF0134E4B29F
:103B9C00032CF8D910BD10B5002404E02046FFF723
:103BAC008BFF0134E4B2032CF8D910BD10B5C0B0B2
:103BBC0014468DF800008DF8011019460DF1020025
:103BCC0004F07EFA044B1878A21C6B46D2B2FD218D
:103BDC00FFF7E8F940B010BD100000203F2805D8D1
:103BEC0070B54500EDB20E46002413E07047A200FC
:103BFC00A318590089B2224493009BB2C1F303204D
:103C0C003344142201F0FE0140F02000FFF7CEFFF8
:103C1C000134A4B2ABB2A342E9D870BD38B50546A5
:103C2C000C46A1B1012920D140B900211020FFF789
:103C3C008FF90A219C20FFF78BF916E00121102047
:103C4C00FFF786F90A219C20FFF782F90DE0C0B13D
:103C5C001020FFF773F960F07E01C9B21020FFF756
:103C6C0077F900219C20FFF773F9224620210C489C
:103C7C00FFF765F823462A460A49012003F024FD84
:103C8C0038BD1020FFF75AF960F07F01C9B210203F
:103C9C00FFF75EF900219C20FFF75AF9E5E700BF1A
:103CAC0000080140A883010808B501212620FFF770
:103CBC00A7F908BD10B50446F520FFF797F9074B97
:103CCC00195D0140F520FFF79BF93520FFF78EF9C0
:103CDC0000F0DF013520FFF793F910BDEC870108E8
:103CEC0010B50446F520FFF781F9084B195D014327
:103CFC00C9B2F520FFF784F93520FFF777F940F0CA
:103D0C002001C9B23520FFF77BF910BDF4870108FB
:103D1C0008B5C0210720FFF773F91420FFF766F9E7
:103D2C0000F09F011420FFF76BF900211320FFF71F
:103D3C0067F904212620FFF763F9B2210620FFF76B
:103D4C005FF908BD08B5242806D0252807D02628F9
:103D5C0008D0FFF7A9FF08BDFFF7A6FFFBE7FFF7A9
:103D6C00D7FFF8E7FFF7D4FFF5E710B5044603E0FB
:103D7C006178FFF745F902342078FF28F8D132201A
:103D8C00FFF728F910BD38B504460D4604E015F8C8
:103D9C00011BFFF735F901342078FF28F7D13220C9
:103DAC00FFF718F938BD08B501464020FFF728F990
:103DBC0008BD000070B506469B4B1B5C262B00F221
:103DCC00F880DFE813F07500870027006D0099007C
:103DDC00A200F600F600B400AB00F600F6007E0080
:103DEC009000F600F600F600F600F600F600F6007D
:103DFC00F600F600F600F600F600F600F600F60007
:103E0C00F600F600F600BD00C500CD00D500DD00C3
:103E1C00E500ED000124854B1C70854804F064F925
:103E2C002546844804F0D4F9834804EB44039900F4
:103E3C000144FFF7A8FF7C4B9B5D022B00F0BC807C
:103E4C007E4B1B78262B00F0BC80252B00F0C1800C
:103E5C00242B00F0C680794B1B782F2B00F0CA80E6
:103E6C00764B1B78272B00F0D080012D00F0D880EA
:103E7C003046FFF735FF00211320FFF7C1F814205F
:103E8C00FFF7B4F800F09F011420FFF7B9F80220F7
:103E9C00FFF7ACF800F07F010220FFF7B1F870BD1E
:103EAC000125624B1D70664804F01EF90224B8E728
:103EBC005E4B00221A70634804F016F901250324A6
:103ECC00AFE75A4B00221A705F4804F00DF9022537
:103EDC000B24A6E7554B00221A705C4804F004F939
:103EEC00012504249DE7514B00221A70584804F018
:103EFC00FBF802250C2494E74C4B00221A70554811
:103F0C0004F0F2F8012505248BE7484B00221A70C7
:103F1C00514804F0E9F80125062482E7434B0322BB
:103F2C001A704E4804F0E0F80425082479E73F4B5A
:103F3C0002221A704A4804F0D7F80325072470E7C8
:103F4C0001253A4B1D70474804F0CEF8092468E768
:103F5C000125364B1D70444804F0C6F80A2460E76E
:103F6C000125324B1D70414804F0BEF80D2458E772
:103F7C0001252E4B1D703E4804F0B6F80E2450E778
:103F8C0001252A4B1D703B4804F0AEF80F2448E77E
:103F9C000125264B1D70384804F0A6F8102440E784
:103FAC00224B00221A70354804F09EF8012511248A
:103FBC0037E701252C4634E7CE211620FFF720F8F1
:103FCC003EE72F4805EBC50359000144FFF7DBFE24
:103FDC0041E72C48C5EBC50359000144FFF7D3FE5C
:103FEC0039E7294805EB450105EB81010144FFF751
:103FFC00CAFE30E7254804F0EBF8254805EB8503AD
:10400C0099000144FFF7BFFE2AE7224804F0E0F8CC
:10401C00214805EB850399000144FFF7B4FE24E722
:10402C003046FFF747FE26E7DC040020830400201F
:10403C00FC87010888880108BC8801081E0500203F
:10404C00048801080C8801081488010820880108DC
:10405C0028880108348801083C8801084488010834
:10406C0048880108508801085888010860880108B0
:10407C006888010870880108788801088088010820
:10408C00B48E0108608D0108DC8D01089088010850
:10409C00C08C0108A4880108588B010810B5274B67
:1040AC001B5C0D2B47D8DFE803F00D070B094646C8
:1040BC004646464646460D07022404E0042402E028
:1040CC00032400E00124FFF775FE1D4B1B78262B03
:1040DC0013D0A3F12402D2B2012A16D92F2B1AD055
:1040EC00272B20D01420FEF781FF40F04001C9B2ED
:1040FC001420FEF785FF204610BD124804EB840304
:10410C0059000144FFF73FFEECE70F4800EBC401F8
:10411C00FFF739FEE6E70D4804EB44039900014430
:10412C00FFF731FEDEE70A4804EB44039900014433
:10413C00FFF729FED6E70024DDE700BFDC040020F2
:10414C001E0500203C8E0108388D0108208C0108CA
:10415C00B88A010810B5264B1B5C0D2B46D8DFE83E
:10416C0003F00D070B0945454545454545450D07EC
:10417C00022404E0042402E0032400E00124FFF7FD
:10418C0019FE1C4B1B78262B0ED0A3F12402D2B2A5
:10419C00012A12D92F2B19D0272B1FD040211320E5
:1041AC00FEF72EFF204610BD134804EB440104EB30
:1041BC0081010144FFF7E7FDF0E70F4804EB4401F0
:1041CC0004EB81010144FFF7DEFDE7E70B4804EB4C
:1041DC00840399000144FFF7D6FDDFE7084804EBA0
:1041EC00840399000144FFF7CEFDD7E70024D9E7FB
:1041FC00DC0400201E050020708E01085C8C010878
:10420C00F48A010838B5054602212F20FEF7F8FE86
:10421C000420FEF7EBFE04460420FEF7E7FE044400
:10422C000420FEF7E3FE04440420FEF7DFFE044402
:10423C00640804F4FC742A4621460B4803F054FF2E
:10424C0004F0F8010820FEF7DBFE0620FEF7CEFE98
:10425C0000F0F900E10901F00201014341F0040111
:10426C000620FEF7CDFE38BDC487010808B5002135
:10427C002F20FEF7C5FE0420FEF7B8FE08BDF8B5EA
:10428C00064606212F20FEF7BBFE0420FEF7AEFEED
:10429C00B04243D204461E2717E045F080010720A8
:1042AC00FEF7AEFED5B30820FEF794FE06212F20B4
:1042BC00FEF7A6FE0420FEF799FE0446731C9842F6
:1042CC0014DCA31B0133022B28D93FB3013FFFB2EF
:1042DC000720FEF78BFE00F03F05B442DDD0002D29
:1042EC00DBD0013DEDB20134E4B2F6E70720FEF776
:1042FC007DFE00F03F00841C3F2C00D93F2444F08D
:10430C0080010720FEF77CFE3F2C07D00820FEF72B
:10431C0061FE0420FEF76AFE0446D2E7F8BD10B534
:10432C004420FEF763FE044640F04001C9B244202D
:10433C00FEF766FE04F0BF014420FEF761FE10BDDF
:10434C0038B5674B88221A700024032C0DD8FE2038
:10435C00FEF74CFE282808D0614A13780133DBB2F3
:10436C00013313700134E4B2EFE7FF20FEF73EFE99
:10437C005C4C2070FD20FEF739FE00F007025A4B12
:10438C001A702178594803F0AFFE0023584A136085
:10439C00584A1360584A13602378023B252B73D874
:1043AC00DFE803F0137213727272727272727272AD
:1043BC0072727272727272727272727272727272D1
:1043CC0072727272133747724E624C4803F000FFE0
:1043DC004B4CFFF7A4FF2046FFF7C7FC454B1B686F
:1043EC00002B58D1474B03241C705C709C70DC7004
:1043FC000020FFF7DFFC0120FFF7DCFC0220FFF7B9
:10440C00D9FC2046FFF7D6FC3F4B01221A70002442
:10441C0047E00123364A1360364A1360324B1B784F
:10442C00012B01D0394CD4E72E4B25221A70384C75
:10443C00CFE701232E4A13602E4A1360354CC8E790
:10444C0001232B4A13602B4A1360274B1B78012B3B
:10445C0005D0F3B9284B01221A602F4CB9E7214B38
:10446C002F221A702D4CB4E70123214A1360214AE4
:10447C0013601D4B1B78042B01D0214CA9E7284855
:10448C0003F0A6FE1E4CA4E7264803F0A1FE1C4C2C
:10449C009FE7214C9DE72448FFF767FCA2E7013416
:1044AC00E4B2032C1AD80023204A1355204A135582
:1044BC00204A13550725134B1D5501200BF08CF882
:1044CC001D4B1D701D4B14221A701D4B1B78012B9C
:1044DC00E5D101210846FFF7A1FBE0E738BD00BF9D
:1044EC00E80400201E0500200C050020848701082C
:1044FC00E404002084040020B8040020A0870108F4
:10450C00A08A0108DC0400201D050020A0890108F8
:10451C00248D0108CC8D0108208E0108088C01081F
:10452C00A8870108B8870108A88D0108100500208C
:10453C00A40400207C0400201C000020200000208B
:10454C001E01002030B4044600200125072102463C
:10455C000BE044FA01F32B405BB20343D8B26D007D
:10456C00EDB20239C9B20132D2B2032AF1D9802597
:10457C00072100220AE004FA01F32B405BB203434B
:10458C00D8B26D080239C9B20132D2B2032AF2D9BB
:10459C0030BC70474F4B1A784F4B1A704F4B1A78F0
:1045AC004F4B1A704F4B1B78172B1ED0062B25D058
:1045BC00072B2AD0092B2FD0082B34D00A2B39D01B
:1045CC000C2B3ED00B2B43D00D2B48D00F2B4DD0AA
:1045DC000E2B52D0112B57D0102B5CD0132B61D03B
:1045EC00122B66D0142B6BD0704700233E4A1370ED
:1045FC003E4A07211170384A137070473A4B00221B
:10460C001A703A4B08221A707047374B00221A70F6
:10461C00364B10221A707047334B00221A70334BF2
:10462C0004221A707047304B00221A702F4B022252
:10463C001A7070472C4B00221A702C4B0C221A70DB
:10464C007047294B00221A70284B0A221A707047A7
:10465C00254B00221A70254B14221A707047224BDE
:10466C0000221A70214B12221A7070471E4B022224
:10467C001A701E4B00221A7070471B4B04221A70C2
:10468C001A4B00221A707047174B00221A70174BE6
:10469C0020221A707047144B00221A70134B4022C0
:1046AC001A707047104B00221A70104B80221A702F
:1046BC0070470D4B01221A700C4B00221A70704778
:1046CC000023094A1370094A1370034A1370044AF1
:1046DC00137089E71C0500201705002082040020B8
:1046EC00DA040020F00400201605002080040020CD
:1046FC00B54B1B78162B40F2D5832DE9F04182B0D7
:10470C00B24B1E78022E02D002B0BDE8F08104201C
:10471C00FFF749FB0120FEF75DFCB620FEF766FCB7
:10472C000746B520FEF762FCB420FEF75FFC17F0DD
:10473C00F00F1AD017F0800F5FD117F0400F04D094
:10474C00A14B9B78162B00F2BB8017F0200F04D0E6
:10475C009D4B5B78162B00F2128117F0100F04D0D2
:10476C00994B1B78162B00F28D81994B1B68012BF2
:10477C00CAD1984B1C78984B1D5D002D40F01B82C4
:10478C00964B1B5D083BDBB2012B00F24D82944B28
:10479C001F78944B93F80080934B1B780F2B00F0F1
:1047AC00D1810E2B00F0CD81102B00F01582112B36
:1047BC0000F01482122B00F01482132B00F01482E0
:1047CC00062B00F01482072B00F01482092B00F04A
:1047DC001482082B00F014820A2B00F015820C2B8B
:1047EC0000F015820B2B00F015820D2B00F01582BA
:1047FC00172B00F015822E46A4E1734BDB78162B99
:10480C009BD90320FFF7CFFA00258A2408E0204625
:10481C00FEF7ECFB754B58550135EDB20134E4B2A3
:10482C00A12CF4D90021A720FEF7EAFB8321A720B5
:10483C00FEF7E6FB002305E05A1C6C49885C6C49CA
:10484C00C854D3B2042BF7D9052306E09A1C674948
:10485C00895C674AD1540133DBB2092BF6D9654820
:10486C0003F042FC002406E0614B195D624803F042
:10487C003BFC0134E4B2052CF6D95D4C617A5E4800
:10488C0003F032FCE378612B7FF457AF637A9E2BF5
:10489C007FF453AF594B197841F0080119705848FF
:1048AC0003F022FC2379382B7FF447AF6379022B7A
:1048BC007FF443AF514A137823F0080313703CE79D
:1048CC000220FFF770FA00258A2408E02046FEF744
:1048DC008DFB464B58550135EDB20134E4B2A12C99
:1048EC00F4D90021A720FEF78BFB8321A720FEF72C
:1048FC0087FB002305E05A1C3C49885C4149C8549D
:10490C00D3B2042BF7D9052306E09A1C3749895CEE
:10491C003C4AD1540133DBB2092BF6D93A4803F0A7
:10492C00E3FB002406E0374B195D334803F0DCFB56
:10493C000134E4B2052CF6D9324C617A2E4803F0DE
:10494C00D3FBE378612B7FF400AF637A9E2B7FF46B
:10495C00FCAE2A4B197841F004011970284803F079
:10496C00C3FB2379382B7FF4F0AE6379022B7FF4F1
:10497C00ECAE224A137823F004031370E5E6012011
:10498C00FFF711FA00258A2408E02046FEF72EFBDB
:10499C00164B58550135EDB20134E4B2A12CF4D9C3
:1049AC000021A720FEF72CFB8321A720FEF728FB74
:1049BC00002305E05A1C0D49885C1449C854D3B235
:1049CC00042BF7D905232AE010050020A4040020AD
:1049DC00EC040020540100207C040020DC040020A6
:1049EC001C05002082040020F0040020C0040020DC
:1049FC006C040020D4860108DC86010855010020D7
:104A0C00E486010800050020F886010888040020CF
:104A1C009A1CB749895CB74AD1540133DBB2092BD4
:104A2C00F6D9B54803F060FB002406E0B14B195DE4
:104A3C00B24803F059FB0134E4B2052CF6D9AD4C65
:104A4C00617AAE4803F050FBE378612B7FF485AEBE
:104A5C00637A9E2B7FF481AEA94B197841F0020149
:104A6C001970A84803F040FB2379382B7FF475AEFE
:104A7C006379022B7FF471AEA14A137823F0020301
:104A8C0013706AE60020FFF78EF900258A2408E0EF
:104A9C002046FEF7ABFA964B58550135EDB2013472
:104AAC00E4B2A12CF4D90021A720FEF7A9FA8321A6
:104ABC00A720FEF7A5FA002305E05A1C8C49885C58
:104ACC009149C854D3B2042BF7D9052306E09A1C9C
:104ADC008749895C8C4AD1540133DBB2092BF6D956
:104AEC008A4803F001FB002406E0874B195D8348DC
:104AFC0003F0FAFA0134E4B2052CF6D9824C617A4F
:104B0C007E4803F0F1FAE378612B7FF42EAE637AE2
:104B1C009E2B7FF42AAE7A4B197841F00101197063
:104B2C00784803F0E1FA2379382B7FF41EAE6379D1
:104B3C00022B7FF41AAE724A137823F00103137020
:104B4C0013E604263046FFF7FDFC06462846FFF721
:104B5C00F9FC05463846FFF7F5FC07464046FFF7DB
:104B6C00F1FC80462046FFF71EF931465A20FEF72D
:104B7C0047FA29465920FEF743FA39466020FEF7DA
:104B8C003FFA41465F20FEF73BFA61216F20FEF7AA
:104B9C0037FA0A20FEF71EFA60216F20FEF730FA72
:104BAC00CDF800803B462A463146594803F09CFA22
:104BBC00584B00221A60584B1878584B1B5C022B30
:104BCC005BD0554B1B78554AD35C012B00F0098107
:104BDC00504B00221A6097E50126B3E72E4680253C
:104BEC00B0E72E464025ADE72E462025AAE72E46F7
:104BFC000825A7E72E461025A4E72E460425A1E795
:104C0C0033462E461D469DE72E460C259AE72E462A
:104C1C000A2597E72E46142594E72E46122591E790
:104C2C002F462E4607258DE72046FFF7BCF83C4C57
:104C3C0021785920FEF7E4F93A4D29785A20FEF7ED
:104C4C00DFF9394E31785D20FEF7DAF9374B1978F8
:104C5C006020FEF7D5F941216F20FEF7D1F90A202B
:104C6C00FEF7B8F940216F20FEF7CAF933782A789D
:104C7C0021782F4803F038FA9AE7FFF794F8A5212A
:104C8C006E20FEF7BDF902216E20FEF7B9F9244B18
:104C9C001B78063B092B00F29380DFE803F04D5E96
:104CAC00806F91919191910550216E20FEF7A8F99A
:104CBC0000216E20FEF7A4F900216E20FEF7A0F96A
:104CCC0000216E20FEF79CF949216F20FEF798F920
:104CDC000520FEF77FF948216F20FEF791F90D4B67
:104CEC0000221A600E4B1978124803F0FDF968E7A0
:104CFC00C00400208804002000870108DC8601081D
:104D0C0055010020E4860108F404002008870108FE
:104D1C0010870108EC040020540100207C040020C2
:104D2C00F0040020820400201C05002081040020D7
:104D3C00288701083C87010808216E20FEF760F9DE
:104D4C0000216E20FEF75CF9FF216E20FEF758F96A
:104D5C0000216E20FEF754F9B6E704216E20FEF711
:104D6C004FF900216E20FEF74BF9FF216E20FEF764
:104D7C0047F900216E20FEF743F9A5E702216E20CA
:104D8C00FEF73EF9FF216E20FEF73AF900216E2066
:104D9C00FEF736F900216E20FEF732F994E7012177
:104DAC006E20FEF72DF9FF216E20FEF729F9002168
:104DBC006E20FEF725F900216E20FEF721F983E71E
:104DCC0000216E20FEF71CF900216E20FEF718F969
:104DDC0000216E20FEF714F900216E20FEF710F969
:104DEC0072E7FFF7D7FB304B1878FEF7DCFF00219A
:104DFC005A20FEF705F900216020FEF701F9002189
:104E0C006620FEF7FDF800216C20FEF7F9F845212D
:104E1C006F20FEF7F5F80520FEF7DCF844216F2033
:104E2C00FEF7EEF8214D2878FFF78CFB01465A204F
:104E3C00FEF7E6F81E4E3078FFF784FB0146602043
:104E4C00FEF7DEF81B4F3878FFF77CFB0146662037
:104E5C00FEF7D6F8184C2078FFF774FB01466C204F
:104E6C00FEF7CEF845216F20FEF7CAF80520FEF7B5
:104E7C00B1F844216F20FEF7C3F8104B00221A60E2
:104E8C000F4B1B780F4A12780F4909780F4803F023
:104E9C002BF93B7832782978207800900C4803F075
:104EAC0023F995E6704700BF540100201605002039
:104EBC008004002017050020DA040020EC040020F8
:104ECC001C05002082040020F00400204887010803
:104EDC005C870108074B0F221A700023064A1370D7
:104EEC00064A1370064BC5221A70064B01221A6033
:104EFC00704700BFF0040020820400201C05002035
:104F0C0081040020EC04002008B5444803F0ECF8C0
:104F1C0004214020FEF774F88321A720FEF770F8D7
:104F2C008021BE20FEF76CF842216F20FEF768F856
:104F3C0040217020FEF764F820217120FEF760F804
:104F4C0000217220FEF75CF80021C020FEF758F813
:104F5C000021C120FEF754F80B21C220FEF750F8B7
:104F6C000C21C320FEF74CF80D21C420FEF748F8A5
:104F7C000E21C520FEF744F81921C620FEF740F893
:104F8C007821C720FEF73CF82121C820FEF738F81D
:104F9C000721CB20FEF734F80821CC20FEF730F89F
:104FAC000921CD20FEF72CF80A21CE20FEF728F897
:104FBC000421CF20FEF724F80021D020FEF720F8A2
:104FCC000021D120FEF71CF86021D220FEF718F842
:104FDC001021D320FEF714F80621D420FEF710F888
:104FEC00BE21D520FEF70CF83921D620FEF708F8A3
:104FFC002721D720FEF704F80E21C220FEF700F877
:10500C000F21C320FDF7FCFF1021C420FDF7F8FF92
:10501C001121C520FDF7F4FF08BD00BF6C87010806
:10502C00F0B583B000243AE09F4B1B5D3BB99F4B1E
:10503C001B5DFF2B31D001339C490B552DE0002318
:10504C00994A1355994A13550725994B1D552146D5
:10505C00984B1878FEF776FE2146974803F044F8F3
:10506C0001200AF0B9FA954B1D70954B14221A7059
:10507C00944B1B78012B53D0934B00221A70934BFB
:10508C0001221A702546884B1B5D012B00F0948081
:10509C00854B5B5D022B00F031810134E4B2032CB3
:1050AC0000F20D842046FEF77EFE0120FDF79EFFE8
:1050BC00064610F0800FB7D125467D4B1B5D083B93
:1050CC00DBB2012B31D9824B60221A70804B1B78DA
:1050DC00B3432ED0744B5B5D002B4DD0022B56D0BE
:1050EC00724A525DFF2A02D0013270494A55032B95
:1050FC00C8D16E4B5B5D022BC4D96B4B01225A5548
:10510C006A4B00225A5521466A4B1878FEF71AFE54
:10511C002946704802F0E8FF20460AF05DFAB1E734
:10512C0001210846FEF77AFDA6E7694B60221A704A
:10513C00CCE75D4B5B5D022B0BD093B95A4B012234
:10514C005A555A4B00225A552946634802F0CCFF57
:10515C0098E7564B5B5DFF2B94D00133534A535564
:10516C0090E7514B02225A55504B00225A55294672
:10517C005A4802F0B9FF85E74B4B01225A554B4B6D
:10518C0000225A552946564802F0AEFF7AE7554B95
:10519C0053F82530632B04D80133524A42F825309A
:1051AC0070E7414B03225A55404B00225A55294671
:1051BC004D4802F099FF65E70320FDF717FF00F05B
:1051CC0008024A4B1A6000F00702394B1F5D062A91
:1051DC0011D0042A18D0052A4FD0022A1ED03ABB6F
:1051EC00434B1B68002B49D0304B5B5D13F0020F17
:1051FC0044D0262242E03F4B1B68002BE9D016F02E
:10520C00040F34D0092239E0394B1B688BB3274B80
:10521C005B5D13F0020F2ED10C222FE0344B1B6878
:10522C0063B3224B5B5D13F0020F27D0232225E0E2
:10523C00032A23D92E4B1B680BB93A461EE00921D1
:10524C002F20FDF7DDFE0420FDF7D0FEA0F1490371
:10525C00DBB20B2B21D9A0F15603DBB20B2B1ED9E1
:10526C00A0F17103DBB20E2B1BD93A4606E00822E3
:10527C0004E00C2202E0242200E00D220C4B5B5DCA
:10528C0093423FF405AF0A4B5A5529461A4802F08F
:10529C002BFF2046FEF78EFDFAE62022EEE72222B7
:1052AC00ECE72522EAE700BFA4040020100500204B
:1052BC00DC0400201E050020608401081C00002076
:1052CC00200000201E0100201101002008000020F9
:1052DC00DB040020D4840108788401088C84010844
:1052EC00A484010844010020B8840108E0040020D3
:1052FC00B8040020E4040020F0840108C14B5B5D7D
:10530C00002B4BD1C04B00225A55C04B1C70C04BCC
:10531C005B5D0C3BDBB2012B21D9A4F10A00BD4B28
:10532C00595DC0B2FDF76CFEBB4B1B782F2B25D003
:10533C00BA4B595DF720FDF763FEB94B595DFA2066
:10534C00FDF75EFEB74B1B78B74A11788B423FF4E2
:10535C00A4AEB44B1970B54802F0C6FE9DE603200E
:10536C00FDF744FE10F0080FD7D1A94A535D23F086
:10537C00080353552046FEF71DFDCEE7A74B595D9C
:10538C00F820FDF73DFEA64B5D5D2946FA20FDF7A2
:10539C0037FE2946FB20FDF733FED3E7012B7ED0E9
:1053AC00022B00F0B880032B00F0F380062B40F2A8
:1053BC006781132B40F27381142B00F09481152B11
:1053CC0000F02982162B7FF468AE8F4B5B5D9BBB84
:1053DC008F4B5B5D083BDBB2012B40F2378294486C
:1053EC00FEF7C3FC8A4B5B5D023BDBB2012B40F248
:1053FC002F8221464020FDF703FE8021BE20FDF7C1
:10540C00FFFDB620FDF7F2FDB520FDF7EFFDB42052
:10541C00FDF7ECFD0021A720FDF7F2FD0120FDF7C3
:10542C00D9FD8321A720FDF7EBFD794B5B5D023B9A
:10543C00DBB2012B40F21182734B5B5D012B00F050
:10544C001382714B5B5D022B7FF427AE7948FEF71C
:10545C008CFC21464020FDF7D3FD8021BE20FDF7BA
:10546C00CFFDB620FDF7C2FDB520FDF7BFFDB42082
:10547C00FDF7BCFDA420FDF7B9FDA220FDF7B6FD9C
:10548C00A320FDF7B3FD0021A720FDF7B9FD0120F6
:10549C00FDF7A0FD8321A720FDF7B2FDFDE55E4BD6
:1054AC001B78232B7FF6F9AD0120FDF79FFD0646F7
:1054BC000146614802F018FE554B595DA1F10803F5
:1054CC00DBB2012B23D906F06406602E7FF4E5AD28
:1054DC000B1FDBB2012B7FF6E0AD0C293FF4DDADE9
:1054EC000D293FF4DAAD00293FF4D7AD01293FF483
:1054FC00D4AD2046FEF72EFE00283FF4CEAD424B35
:10550C0002225A5529464D4802F0EEFDC5E54C489D
:10551C0002F0EAFDC1E5404B1B78232B7FF6BDADB5
:10552C000120FDF763FD06460146434802F0DCFD11
:10553C00374B595DA1F10803DBB2012B25D906F0DD
:10554C001103102B03D0304B5B5D022B0FD016F0E8
:10555C00040F7FF4A2AD0B1FDBB2012B07D90C2972
:10556C0005D00D2903D011B101297FF496AD204649
:10557C00FEF794FD00283FF490AD234B01225A55C1
:10558C002946304802F0B0FD87E52D4802F0ACFD0D
:10559C0083E5214B1B78232B7FF67FAD0120FDF794
:1055AC0025FD06460146244802F09EFD184B595D28
:1055BC008B1EDBB2012B49D9012B4ED90B1FDBB251
:1055CC00012B06D90C2904D00D2902D009B10129CF
:1055DC0006D116F0040F03D10B4B5B5D012B47D0AA
:1055EC00A1F10803DBB2012B46D916F0010F3FF4F1
:1055FC0054AD2046FEF7DEFB2946134802F074FD3D
:10560C004BE500BF100500207C040020780400202E
:10561C00DC040020E08701081E050020E487010857
:10562C00E88701081D050020830400200C85010873
:10563C00BC8B01085C8A010824850108448501089B
:10564C003485010858850108DC85010816F0040F23
:10565C00B2D19C4802F048FD1FE516F0040FADD006
:10566C00994B5B5D002BA9D1984802F03DFD14E5E8
:10567C00974802F039FD10E5964802F035FD0CE52F
:10568C00954E06EB85039A78DA705A789A7016F86C
:10569C0025205A70FEF7EAFD06F82500FDE48E4F32
:1056AC0007EB8506B378F3707378B37017F8253071
:1056BC007370FEF7DBFD07F82500F3781B1A013336
:1056CC00022B3FF6EAACB3781B1A0133022B3FF6E0
:1056DC00E4AC73781B1A0133022B3FF6DEAC7F4B24
:1056EC0013225A55D9E4FEF7C1FD0646764B5B5D95
:1056FC007B4F7A5D00922A4601467A4802F0F4FC10
:10570C007B5D9A1ED2B2012A12D9012B37D91A1FEE
:10571C00D2B2012A37D9A3F10C02D2B2012A36D95E
:10572C00082B38D0092B3AD06F4B14225A5502E073
:10573C006D4B06225A556C4B5A5D6C4B1A706C4B68
:10574C001B78012B2FD0684B5A5D6A4B5B5D9A42DC
:10575C002FD15D4B5B5D002B32D1674B1B78243B0B
:10576C00DBB2012B3FD95E4B5B5D082B4BD0092B79
:10577C004DD040F60911614802F0B6FC8DE45A4B4D
:10578C0005225A55D7E7584B05225A55D3E7564BA5
:10579C0005225A55CFE7544B00225A55CBE7524BB2
:1057AC0001225A55C7E740214FF47A7002F022F8D3
:1057BC00C9E7534B1B782946524802F095FCC8E7C1
:1057CC00B10861F07F01C9B20720FDF719FC3E4B0F
:1057DC005B5D012B03D04C4802F0FAFC5DE44B48B6
:1057EC0002F0F6FC59E43E4B5B5D13F0200FBAD08F
:1057FC004749A1FB0631490861F07F01C9B2072076
:10580C00FDF7FEFBAFE7434802F0E2FC45E44248FB
:10581C0002F0DEFC41E42C4B5B5D83B9364B1B780C
:10582C00243BDBB2012B3FF638AC2D4B5B5D13F008
:10583C00200F3FF432AC1620FEF721FD2DE420465C
:10584C00FEF7E0FC0C20FEF71AFD26E43348C7E512
:10585C001921C620FDF7D4FBCBE5314B1C70294632
:10586C00304802F041FCE7E5FFF74EFB2E48FEF70F
:10587C007CFA21464020FDF7C3FB04214020FDF7B4
:10588C00BFFB8021BE20FDF7BBFBB620FDF7AEFBB6
:10589C00B520FDF7ABFBB420FDF7A8FB2421A72016
:1058AC00FDF7AEFB0120FDF795FBA7210846FDF7A0
:1058BC00A7FB1B4B19781D4802F016FCC1E503B081
:1058CC00F0BD00BF6C8501087C04002088850108B0
:1058DC00A4850108C8850108A80400201005002033
:1058EC00DC040020F0850108200000201C000020B2
:1058FC001E010020D40600201E0500209C860108F5
:10590C00E80000201C860108688601085C860108F6
:10591C00ABAAAAAA7486010888860108188A01080D
:10592C0054010020B0860108B8890108BC86010822
:10593C00044B1A78044B1B789A4201D00120704713
:10594C0000207047590100205A010020044B1A789E
:10595C00044B1B789A4201D00120704700207047FD
:10596C005701002058010020064A13780649C85CEC
:10597C000133DBB213701D2B02D9134600221A70AF
:10598C00704700BF5A0100205C050020064A1378BE
:10599C000649C85C0133DBB213701D2B02D91346C8
:1059AC0000221A70704700BF580100209C0500208F
:1059BC0000B583B002A901F8010D4FF6FF73012267
:1059CC000248FCF7A7FB03B05DF804FB7C03002046
:1059DC0000B583B002A901F8010D4FF6FF73012247
:1059EC000248FCF797FB03B05DF804FB00040020B1
:1059FC0000B583B0194B1A786AB9194B1A78D2B919
:105A0C00184B1A7812BB184B1A78184B197818487F
:105A1C0001F03EFE0CE0124B1B7814490978124839
:105A2C00007801900F4800780090124801F030FE89
:105A3C0003B05DF804FB0B4B1B780C4909780A4842
:105A4C00007800900C4801F023FEF1E7064B1B7820
:105A5C0006490978094801F01BFEE9E75F010020BF
:105A6C0068010020690100206A0100202800002044
:105A7C0098950108449501086495010880950108E2
:105A8C0008B5FFF795FF08BD0246A0F13003D8B268
:105A9C00092812D9A2F16103DBB2052B08D9A2F1B6
:105AAC004103DBB2052B07D8A2F13700C0B2704717
:105ABC00A2F15700C0B270470020704738B50546B8
:105ACC00002404E02401FFF7DFFF044401352878AB
