:020000040800F2
:1000000000500020F57700089D0E00089F0E0008A4
:10001000A10E0008A30E0008A50E000800000000B5
:10002000000000000000000000000000A70E000813
:10003000A90E000800000000AB0E0008AD0E00087D
:100040003D7800083D7800083D7800083D780008BC
:100050003D7800083D7800083D7800083D780008AC
:10006000B50E00083D7800083D7800083D7800088E
:100070003D7800083D7800083D7800083D7800088C
:100080003D7800083D7800083D7800083D7800087C
:100090003D7800083D7800083D7800083D7800086C
:1000A0003D7800083D7800083D7800083D7800085C
:1000B0003D780008C10E00083D7800083D78000832
:1000C0003D7800083D7800083D7800083D7800083C
:1000D0003D780008D10E0008E10E00083D780008C8
:1000E0003D7800083D7800083D78000800000000D9
:1000F0000000000000000000000000000000000000
:0C01000000000000000000005FF808F1A3
:10010C0010B5054C237833B9044B13B10448AFF345
:10011C0000800123237010BDF400002000000000BB
:10012C000815010808B5034B1BB103490348AFF38D
:10013C00008008BD00000000F80000200815010830
:10014C00002902D0B0FBF1F0704708B14FF0FF303E
:10015C0000F01EB80029F8D00246B0FBF1F000FB0D
:10016C0011217047002902D090FBF1F07047002854
:10017C00C8BF6FF00040B8BF4FF0004000F008B8A7
:10018C000029F4D0024690FBF1F000FB11217047DE
:10019C00704700BFF0B589B000250495059506950C
:1001AC0007952E4B9A6942F004029A619A6902F003
:1001BC0004020092009A9A6942F008029A619A69C4
:1001CC0002F008020192019A9A6942F010029A61B7
:1001DC009A6902F010020292029A9A6942F0200285
:1001EC009A619B6903F020030393039B1C4F01222C
:1001FC004FF48051384602F08DF9202304930124EA
:10020C00059406940226079604A9384602F096F83F
:10021C0010230493059506940DEB0301384602F068
:10022C008DF84FF4E053049305940694079604A9B3
:10023C000C4802F083F804960594069407960A4E2F
:10024C0004A9304602F07AF84923049305950694E4
:10025C0004A9304602F072F809B0F0BD001002405B
:10026C0000080140000C01400010014030B587B07F
:10027C0000240294039404940594009401940E4D6C
:10028C000E4B2B6023236B60AC600923EB602C615D
:10029C008023AB61284601F0A1F84FF48053029300
:1002AC0002A9284601F05FF900940194694628469A
:1002BC0001F0F4F907B030BDF0020020000400405A
:1002CC0008B50848084B03604FF4E1334360002342
:1002DC008360C36003610C2242618361C36101F0DE
:1002EC00DCFA08BD600300200038014008B508485E
:1002FC00084B03604FF41643436000238360C360D4
:10030C0003610C2242618361C36101F0C6FA08BD2E
:10031C00E40300200044004000B583B000238DF8B6
:10032C0007300DF106010DF1070011F0D1F80E4B5D
:10033C001B78042B03D00D4A1278934208D00B4B38
:10034C001B789DF807100A4AD15403B05DF804FBE2
:10035C00084B1B789DF807008342F0D0054B1870B2
:10036C0008F0ACFDEBE700BF38010020550600207B
:10037C0030010020E901002010B50138012809D80E
:10038C0014464FF47A7392B2074801F0B5FA40B1B3
:10039C00002010BD07F04EFA092303604FF0FF3028
:1003AC00F7E72046F5E700BF6003002038B5674B40
:1003BC001870042825D8DFE800F0254E77A003003C
:1003CC00634C01222021204602F0A4F80122402196
:1003DC00204602F09FF85F4D01222021284602F0B2
:1003EC0099F801221021284602F094F801220821E4
:1003FC00284602F08FF801224FF40041204602F00B
:10040C0089F838BD524C00222021204602F082F897
:10041C0001224021204602F07DF84E4D0022202181
:10042C00284602F077F801221021284602F072F8D3
:10043C0001220821284602F06DF801224FF40041F8
:10044C00204602F067F8444C207808F037FD2278FB
:10045C00424B1A70D5E73E4C00222021204602F078
:10046C0059F801224021204602F054F8394D01225E
:10047C002021284602F04EF800221021284602F0D6
:10048C0049F801220821284602F044F801224FF4D1
:10049C000041204602F03EF82F4C607808F00EFD2B
:1004AC0062782E4B1A70ACE7294C01222021204691
:1004BC0002F030F800224021204602F02BF8254DA6
:1004CC0001222021284602F025F80122102128467D
:1004DC0002F020F800220821284602F01BF8012225
:1004EC004FF40041204602F015F81B4CA07808F0A0
:1004FC00E5FCA278194B1A7083E7154C01222021D8
:10050C00204602F007F800224021204602F002F8B3
:10051C00104D01222021284601F0FCFF0122102160
:10052C00284601F0F7FF01220821284601F0F2FFCE
:10053C0000224FF40041204601F0ECFF064CE0781D
:10054C0008F0BCFCE278054B1A705AE73801002021
:10055C0000080140000C014030010020E90100209E
:10056C0010B50446012809D001220821064801F0E3
:10057C00D1FF2146054806F0D9FD10BD0022082107
:10058C00014801F0C7FFF4E700100140C015010855
:10059C0070B582B000244FE0664B1B78142B03D04F
:1005AC00654B01221A5553E0634B00221A554FE05C
:1005BC0020460EF0F5FB631C009340F2A5435F4A06
:1005CC005F49604807F074F95F4BDB794BB101224E
:1005DC005E4B1A6000235E490B605E490A705E4AEE
:1005EC0013705E4B1B7814225D49CA545D49CA5482
:1005FC005D4A127802B91BB10120FFF7B1FF3BE055
:10060C000121002002F004FFF6E7012C05D028465A
:10061C0010F06CFE524B585534E0464B1A78504B48
:10062C005A552FE0504B1B78012B72D04B4B1B783B
:10063C00002B78D00134E4B2012C78D8474B1C70D5
:10064C00012CA9D010F056FF444B1B783A4AD054D9
:10065C00424B1B78454AD15C454AD25C914201D051
:10066C004249CA54344AD25C4249C95C8A4203D0DA
:10067C004049CA54002A9BD0384B1D782E4B5B5DE9
:10068C00012BC2D0354B1B78354AD25C3549C95C3D
:10069C008A42CFD03349CA54142ACBD02A4D304E7B
:1006AC002A78315D20460EF0EFF9334B33F81430D5
:1006BC00324A32F81420324931F81410314830F8EB
:1006CC001400009020460EF09BFF335D0193631CD9
:1006DC00009340F2CC43194A19492B4807F0E8F82B
:1006EC00EB794BB10122194B1A60002318490B60AE
:1006FC0018490A70184A13701B4B1B78002B91D1A8
:10070C00164B1B78002B8DD10021084602F080FE81
:10071C0088E7124B1B78012B88D140214FF47A705B
:10072C0006F0B6FD82E70020FFF71AFF82E702B061
:10073C0070BD00BF200000202C010020D81501083E
:10074C00341501084015010828040020140100206C
:10075C002001002008000020100100205506002078
:10076C00580600200C0000201E01002074060020FA
:10077C002C07002028010020C8000020D0000020F9
:10078C00C0000020D80000206815010808B506F04C
:10079C006FFD3F2142F2107006F07AFD412141F2CB
:1007AC00883006F075FD08BD38B506F0C1FF04466B
:1007BC000146184806F0BAFC06F0BAFF042809D125
:1007CC0006F0B6FF04281AD1042C12D1642001F0D3
:1007DC00EBFF38BD104D0421284606F0A7FC042081
:1007EC0006F0CCFF06F0A4FF0146284606F09EFC5E
:1007FC00E6E706F0E7FF094806F098FCE6E708484C
:10080C0006F094FC074806F091FC074BFF221A7087
:10081C00DFE700BFB8160108CC160108DC1601088A
:10082C001817010834170108A103002010B588B06F
:10083C00602301930290002303930593054C082237
:10084C0001A9204600F016FE0821204600F008FF02
:10085C0008B010BDA403002000B583B05DE01346C2
:10086C0000221A7008F050FA66E0514A13780133EE
:10087C00DBB213704F4A127893427FD900214C4B54
:10088C0019704D4B19705B78032B14D801334A49FE
:10089C004B70494C63780192009340F62203474A0F
:1008AC004749484807F004F820460EF023FB464B16
:1008BC0000221A7062E0404B01215970E9E73E4B6F
:1008CC005B78414A12780192009340F62A033B4A26
:1008DC003B493E4806F0ECFF5EE03B4B1B78DBB23D
:1008EC00092B5DD90023384A1370394A137002F072
:1008FC004CFD55E08021322001F014FF55E005F04D
:10090C00A1FF05F001FD0028F9D1324B1B68002B2B
:10091C00F7D006F03DFE06F019FE2E4B1B68012B9E
:10092C00EFD1FFF735FEFFF7F7FC2B4A13780133B5
:10093C00DBB213700A2B92D80A2001F0DBFE274A97
:10094C00138801339BB21380642B07D91346002202
:10095C001A801D4A13780133DBB213701A4B1B78C3
:10096C00DBB21F4A126893421FD0174B1A781C4BEC
:10097C001A601C4B1B78012B3FF477AF194B1B787B
:10098C00012B9CD0104B1B78009340F62E030B4A86
:10099C000B49154806F08CFF0D4B1B78012B9CD096
:1009AC00322001F0B5FE0028A4D003F0A1F8A8E78E
:1009BC00370100201200002028040020F81501083F
:1009CC0034150108441701081001002068170108AC
:1009DC000800002024000020240100203401002005
:1009EC0004000020360100208C17010870B590B06F
:1009FC002022002107A806F052FF00240194029443
:100A0C000394049405940225069501260A96102356
:100A1C000B930D954FF4E0130F9306A801F074F9A6
:100A2C000F2301930295039404940594314601A875
:100A3C0001F0AAFB10B070BD2DE9F04383B001F0BA
:100A4C0015F9FFF7D3FFFFF7A1FEFFF7A3FBFFF7A5
:100A5C000DFCFFF735FCFFF749FC09F0B9FB09F079
:100A6C0063FE0AF009F80AF0F3FA0121002002F003
:100A7C00CFFC0120FFF774FD322001F03BFE012278
:100A8C005749584800F0A8FF01225749574800F031
:100A9C00A3FF574D00224FF48051284601F03AFD38
:100AAC00544C00220221204601F034FD642001F058
:100ABC0021FE01224FF48051284601F02BFD01222A
:100ACC000221204601F026FD002420E04A4B1C7038
:100ADC004A4E4B4D00944FF4E26332462946494846
:100AEC0006F0E6FE002010F0FEFC8021892009F0C3
:100AFC002BFC022009F0ECFB0190009440F21673E1
:100B0C0032462946404806F0D3FE0134E4B2012CAB
:100B1C00DCD93E4C0025257065710126A6716670E6
:100B2C000223A3700327E7700423237138490F2095
:100B3C0002F04EFCFFF738FE03F012FB284601F0E2
:100B4C00E7FDDFF8B890DFF8B880009040F244730E
:100B5C004A4641462F4806F0ABFE40F245734A46E2
:100B6C0041462D4806F0A4FEE771A6712572657208
:100B7C00284601F06EFF20460EF0BCF9E3793BB13C
:100B8C00264B1E6026490D6026490E70264A1570AC
:100B9C0026485D2300F8013B20226D2106F07FFEE4
:100BAC00012221230AE002F17F002049C854581C7D
:100BBC006D240C540132D2B20233DBB2402BF2D989
:100BCC001F226D211A4806F06AFE0020FFF7EEFB8B
:100BDC00184800F0F6FA184806F06AFEFFF73CFEDB
:100BEC001C0100206003002018010020E4030020F9
:100BFC00000C01400010014055060020F0150108C2
:100C0C0034150108041601082C16010828040020CC
:100C1C00448B01085C1601088016010814010020A1
:100C2C00200100200800002010010020EC01002011
:100C3C002B020020F0020020A81601080268194BB4
:100C4C009A4200D07047184A13780133DBB2137004
:100C5C0016490A6801320A6015490A6801320A60AD
:100C6C00632B09D9134A1368013313600E4B00220E
:100C7C001A70114B01221A60104B1A6801321A605B
:100C8C001A680F4B9A42DDD90C4B00221A600D4B9F
:100C9C001B78012BD6D10C4A13780133DBB21370BD
:100CAC00D0E700BF0004004057010020580100208D
:100CBC005C010020500100204C0100203C01002070
:100CCC00A0860100080000201001002010B5044689
:100CDC000268184B9A4204D02268174B9A4214D0DF
:100CEC0010BD16490A78531CDBB20B7014490878F6
:100CFC00144988541D2B02D9104B00221A70012262
:100D0C000F49114800F068FEE6E710490A78531CB9
:100D1C00DBB20B700E4908780E4988541D2B02D992
:100D2C000A4B00221A70012209490B4800F054FEAC
:100D3C00D6E700BF003801400044004043010020CA
:100D4C001C010020D0040020600300204101002081
:100D5C001801002010050020E4030020704700005B
:100D6C0038B5012827D00021322001F0DBFC3021DE
:100D7C00192001F0D7FC00243C4B1C703C4806F0B9
:100D8C000BFE3C480470012343700EF0B3F8802135
:100D9C00322001F0C7FC384B1B78012B06D0012107
:100DAC00002002F035FB05F0A3F938BD21462046A2
:100DBC0002F02EFBF7E70021322001F0B3FC3021CA
:100DCC00192001F0AFFC294C012525702B4806F0A9
:100DDC00E3FD28480570022343700EF08BF8312197
:100DEC00192001F09FFC2378AB420CD080213220DB
:100DFC0001F098FC204B5B78012B31D00121084687
:100E0C0002F006FBD1E71E4B1B78072B10D01D48B8
:100E1C0006F04EFD1C4B1B78052B15D0062B16D05F
:100E2C00C3B1012B19D00121102001F07BFC08E08B
:100E3C0003F024FE154806F03BFD2946284602F037
:100E4C00E7FA05F005FAD1E703F05AFAF9E703F0EF
:100E5C0015FEF6E704F0D0F9F3E704F08BFDF0E7AC
:100E6C000021012002F0D4FA9FE700BF1E010020F0
:100E7C0088150108280400202C0100209C1501086D
:100E8C007C040020B81501081C000020B0150108D6
:100E9C007047FEE7FEE7FEE7FEE7704770477047D6
:100EAC0008B500F0F5FE08BD08B5042001F038FBCC
:100EBC0008BD000008B5024800F098F908BD00BF55
:100ECC00F002002008B5024800F012FE08BD00BF79
:100EDC006003002008B5024800F00AFE08BD00BF00
:100EEC00E403002082B00E4B9A6942F001029A6131
:100EFC009A6902F001020092009ADA6942F080527B
:100F0C00DA61DB6903F080530193019B054A536856
:100F1C0023F0E06343F00073536002B0704700BFEE
:100F2C00001002400000014002680E4B9A4200D0B3
:100F3C00704700B583B003F50333DA6942F002025F
:100F4C00DA61DB6903F002030193019B0022114675
:100F5C001D2001F051FB1D2001F082FB03B05DF858
:100F6C0004FB00BF0004004070B588B004460023A9
:100F7C0004930593069307930268364B9A4205D067
:100F8C002268354B9A4234D008B070BD03F55843F3
:100F9C009A6942F480429A619A6902F48042009202
:100FAC00009A9A6942F004029A619B6903F0040367
:100FBC000193019B4FF400730493022305930323C5
:100FCC000793264E04A9304601F0B8F94FF480631C
:100FDC00049300250595069504A9304601F0AEF959
:100FEC002A462946252001F007FB252001F038FB75
:100FFC00C6E703F5E633DA6942F40032DA61DA69FE
:10100C0002F400320292029A9A6942F004029A6146
:10101C009B6903F004030393039B042304930223AF
:10102C000593032307930D4D04A9284601F086F977
:10103C000823049300240594069404A9284601F07F
:10104C007DF922462146262001F0D6FA262001F011
:10105C0007FB99E7003801400044004000080140BC
:10106C0070B4036A23F001030362036A4268846963
:10107C0024F073040D6845EA040623F002048B681F
:10108C0023430D4DA84209D00B4DA8420DD0426010
:10109C0086614A684263036270BC704723F00803A0
:1010AC00CC68234323F00403EEE722F440724C692E
:1010BC0014438A692243EAE7002C014030B4036AE6
:1010CC0023F480730362036A4268C46924F07304D6
:1010DC000D682C4323F400738D6843EA05230F4DF0
:1010EC00A84209D00D4DA8420ED04260C4614A6896
:1010FC00C263036230BC704723F40063CD6843EADB
:10110C00052323F48063EDE722F440524D6942EA53
:10111C0005128D6942EA0512E7E700BF002C014079
:10112C0030B4036A23F480530362036A4468C269CF
:10113C0022F4E6420D6842EA052223F400538D683E
:10114C0043EA0533074DA84206D04460C2614A68A1
:10115C000264036230BC704724F480444D6944EA55
:10116C008514F2E7002C014010B4036A046A24F0E1
:10117C0001040462846924F0F00444EA021223F0AE
:10118C000A030B438261036210BC704710B4036AFC
:10119C0023F0100303628469036A24F4704444EA64
:1011AC00023223F0A00343EA01138261036210BCF4
:1011BC007047836823F07003194341F00701816085
:1011CC0070470268D36843F00103D36002689368E8
:1011DC0003F00703062B03D0136843F001031360DD
:1011EC0000207047704770477047704710B5044631
:1011FC0003681A6912F0020F11D0DA6812F0020FAC
:10120C000DD06FF002021A610123037703689B690A
:10121C0013F0030F70D0FFF7E6FF0023237723684A
:10122C001A6912F0040F12D0DA6812F0040F0ED003
:10123C006FF004021A610223237723689B6913F46D
:10124C00407F5FD02046FFF7CEFF00232377236833
:10125C001A6912F0080F12D0DA6812F0080F0ED0CB
:10126C006FF008021A61042323772368DB6913F0FB
:10127C00030F4ED02046FFF7B6FF002323772368D9
:10128C001A6912F0100F12D0DA6812F0100F0ED08B
:10129C006FF010021A61082323772368DB6913F4BB
:1012AC00407F3DD02046FFF79EFF00232377236825
:1012BC001A6912F0010F03D0DA6812F0010F36D15F
:1012CC0023681A6912F0800F03D0DA6812F0800FCD
:1012DC0034D123681A6912F0400F03D0DA6812F087
:1012EC00400F32D123681A6912F0200F03D0DA684C
:1012FC0012F0200F30D110BDFFF774FF2046FFF71E
:10130C0073FF8AE72046FFF76DFF2046FFF76CFF5F
:10131C009BE72046FFF766FF2046FFF765FFACE72B
:10132C002046FFF75FFF2046FFF75EFFBDE76FF03B
:10133C0001021A612046FFF781FCC1E76FF08002C1
:10134C001A61204600F0CEF9C3E76FF040021A6133
:10135C002046FFF74AFFC5E76FF020021A612046CE
:10136C0000F0BFF9C7E7000003681B4A90420AD09F
:10137C00B0F1804F07D0A2F59432904203D002F521
:10138C008062904203D123F070034A681343124ADF
:10139C0090420AD0B0F1804F07D0A2F5943290421F
:1013AC0003D002F58062904203D123F44073CA68E3
:1013BC00134323F080034A69134303608B68C362B1
:1013CC000B688362044B984202D00123436170473F
:1013DC000B690363F9E700BF002C0140A8B110B5FD
:1013EC00044690F83D305BB1022384F83D30211D5A
:1013FC002068FFF7B9FF012384F83D30002010BDB1
:10140C0080F83C30FFF790FDEEE7012070470000BC
:10141C0030B4036A23F010030362036A44688269E0
:10142C0022F4E6420D6842EA052223F020038D687F
:10143C0043EA05130E4DA84209D00D4DA8420ED01B
:10144C00446082614A688263036230BC704723F057
:10145C008003CD6843EA051323F04003EDE724F441
:10146C0040644D6944EA85048D6944EA8504E7E7E4
:10147C00002C014038B590F83C30012B66D00D465D
:10148C000446012380F83C30022380F83D300C2ABE
:10149C001AD8DFE802F0071919192019191934198B
:1014AC00191947000068FFF7DBFD2268936943F0C8
:1014BC00080393612268936923F004039361226803
:1014CC00936929690B439361012384F83D30002013
:1014DC0084F83C0038BD0068FFF79AFF22689369D6
:1014EC0043F4006393612268936923F480639361EE
:1014FC0022689369296943EA01239361E4E7006850
:10150C00FFF7DCFD2268D36943F00803D36122683E
:10151C00D36923F00403D3612268D36929690B438F
:10152C00D361D1E70068FFF7FBFD2268D36943F470
:10153C000063D3612268D36923F48063D36122688A
:10154C00D369296943EA0123D361BDE70220C1E7CE
:10155C0010B4846824F47F4442EA03230B432343EE
:10156C00836010BC704790F83C30012B66D010B5EE
:10157C000446012380F83C30022380F83D30026899
:10158C00936823F47F4323F0770393600B68402B1D
:10159C004AD013D9602B3DD01ED9702B28D0B3F56F
:1015AC00005F30D1CB684A6889680068FFF7D0FFCC
:1015BC002268936843F48043936024E0102B06D098
:1015CC0004D9202B03D0302B01D01CE0DBB91946F9
:1015DC002068FFF7EEFD16E0502B14D1CA6849685D
:1015EC000068FFF7C1FD50212068FFF7E2FD0AE01B
:1015FC00CB684A6889680068FFF7AAFF226893687D
:10160C0043F077039360012384F83D30002084F885
:10161C003C0010BDCA6849680068FFF7B7FD60213F
:10162C002068FFF7C6FDEEE7CA6849680068FFF757
:10163C009BFD40212068FFF7BCFDE4E702207047CA
:10164C0010B401F01F01012303FA01F4036A23EA29
:10165C0004030362036A8A401343036210BC70479D
:10166C0010B5044601220068FFF7EAFF23680A4A16
:10167C0093420BD02268936803F00703062B03D028
:10168C00136843F001031360002010BD5A6C42F440
:10169C0000425A64EEE700BF002C014090F83C3049
:1016AC00012B1CD070B4012680F83C60022380F81A
:1016BC003D3002685568936825F070050C682C4322
:1016CC0023F080054B682B4354600268936080F8CC
:1016DC003D60002380F83C30184670BC70470220F7
:1016EC007047704770470268D36823F49073D360D7
:1016FC000268536923F001035361202380F83A30C8
:10170C00704790F83930DBB2212B2AD18368B3F5BE
:10171C00805F16D0036A5A1C02621A7803685A60FA
:10172C00C38C013B9BB2C384EBB90268D36823F032
:10173C008003D3600268D36843F04003D360002079
:10174C007047036A1B880268C3F30803536003697C
:10175C001BB9036A02330362E2E7036A01330362D3
:10176C00DEE70220704700207047000038B50446C1
:10177C000268136923F44053C1680B4313618368F7
:10178C000269134342691A430168CB6823F4B053CE
:10179C0023F00C031343CB600268536923F44073AA
:1017AC0081690B4353610268214B9A421FD000F0B0
:1017BC00A5FD00EB800000EB800063689B00B0FB94
:1017CC00F3F01C4DA5FB00325109642202FB1102FF
:1017DC0013013233A5FB03235B0903F0F00202EB88
:1017EC00011203F00F03216813448B6038BD00F025
:1017FC0095FD00EB800000EB800063689B00B0FB64
:10180C00F3F00C4DA5FB00325109642202FB1102CE
:10181C0013013233A5FB03235B0903F0F00202EB47
:10182C00011203F00F03216813448B60DEE700BF45
:10183C00003801401F85EB512DE9F04105460F465C
:10184C0016469846069C2B681B6837EA03030CBFA8
:10185C0001230023B3421DD1B4F1FF3FF3D02CB1CF
:10186C0000F022FAA0EB0800A042ECD92A68D36859
:10187C0023F4D073D3602A68536923F001035361B6
:10188C00202385F8393085F83A30002385F8383034
:10189C00032000E00020BDE8F08158B310B50446E9
:1018AC0090F839300BB3242384F839302268D3688C
:1018BC0023F40053D3602046FFF758FF22681369C6
:1018CC0023F4904313612268536923F02A03536174
:1018DC002268D36843F40053D3600020E0632023D4
:1018EC0084F8393084F83A3010BD80F83830FFF77E
:1018FC003BFBD8E7012070472DE9F04182B01E4632
:10190C0090F83930DBB2202B55D104460D46904669
:10191C00002955D0002A55D090F83830012B53D0DF
:10192C00012380F838300023C363212380F8393039
:10193C0000F0BAF90746A4F82480A4F8268010E039
:10194C0000963B46002280212046FFF775FF0028B9
:10195C003CD12B882268C3F3080353602369C3B9B5
:10196C000235E38C9BB2B3B1E38C013B9BB2E384B5
:10197C00A368B3F5805FE3D000963B46002280213C
:10198C002046FFF759FF18BB2A7823685A600135A7
:10199C00E7E70135E5E700963B460022402120466B
:1019AC00FFF74AFF0346A8B9202284F83920002209
:1019BC0084F8382000E00223184602B0BDE8F0811C
:1019CC000123F9E70123F7E70223F5E70323F3E704
:1019DC000323F1E70323EFE790F83A30DBB2202B37
:1019EC0020D109B312B390F83830012B20D081628A
:1019FC008285C2850023C363222280F83A2080F8B6
:101A0C0038300168CA6842F48072CA6001684A6959
:101A1C0042F001024A610168CA6842F02002CA60C1
:101A2C00184670470220704701207047012070470C
:101A3C0002207047704708B50168CB6823F040035B
:101A4C00CB60202380F83930FFF7F4FF002008BD6D
:101A5C0008B590F83A30DBB2222B45D18368B3F548
:101A6C00805F0ED0036903BB03685A68836A591CF4
:101A7C0081621A70C38D013B9BB2C385F3B1002008
:101A8C0033E0826A036943B903685B68C3F30803F4
:101A9C001380836A02338362ECE703685B68DBB212
:101AAC001380836A01338362E4E703685B68826AAC
:101ABC00511C816203F07F031370DBE70268D3686B
:101ACC0023F02003D3600268D36823F48073D360BF
:101ADC000268536923F001035361202380F83A30E4
:101AEC00FFF7F4F8002000E0022008BD704700006A
:101AFC0010B5044602681368D168526913F00F00E0
:101B0C0005D113F0200F02D011F0200F53D1002873
:101B1C0067D012F0010202D111F4907F61D013F062
:101B2C00010F06D011F4807F03D0E06B40F0010070
:101B3C00E06313F0040F04D01AB1E06B40F0020024
:101B4C00E06313F0020F04D01AB1E06B40F0040014
:101B5C00E06313F0080F04D01AB1E26B42F00802F4
:101B6C00E263E26B002A48D013F0200F02D011F090
:101B7C00200F24D123685B6903F04003E26B12F061
:101B8C00080F00D13BB32046FFF7ADFD23685A691F
:101B9C0012F0400F1BD05A6922F040025A61636B5D
:101BAC008BB11A4A5A63606B00F0C8FC28B3606BA7
:101BBC00436B984721E02046FFF74AFF1DE0204683
:101BCC00FFF746FFD6E72046FFF790FF15E02046CB
:101BDC00FFF78CFF11E02046FFF788FF0023E3633B
:101BEC000BE013F0800F02D011F0800F06D113F030
:101BFC00400F02D011F0400F04D110BD2046FFF76A
:101C0C0080FDFAE72046FFF716FFF6E71D1C0008DB
:101C1C0008B5406A0023C385C384FFF767FF08BD7E
:101C2C0010B504460E4B18784FF47A73B3FBF0F3EF
:101C3C000C4A1068B0FBF3F000F020FD68B90F2CD3
:101C4C0001D901200AE0002221464FF0FF3000F0BC
:101C5C00D3FC054B1C60002000E0012010BD00BF30
:101C6C0013000020180000201400002008B5074ABB
:101C7C00136843F010031360032000F0ABFC00204A
:101C8C00FFF7CEFFFFF72EF9002008BD0020024021
:101C9C00034A1168034B1B780B441360704700BF59
:101CAC004004002013000020014B1868704700BF4F
:101CBC004004002038B50446FFF7F6FF0546B4F1A2
:101CCC00FF3F02D0044B1B781C44FFF7EDFF401B79
:101CDC00A042FAD338BD00BF1300002082B0084BDD
:101CEC001B68084AA2FB03235B0A00FB03F001906C
:101CFC0000BF019B5A1E0192002BF9D102B0704714
:101D0C0018000020D34D6210002800F0F58170B54A
:101D1C0082B00446036813F0010F2CD0AB4B5B6808
:101D2C0003F00C03042B1DD0A84B5B6803F00C03D1
:101D3C00082B12D06368B3F5803F41D0002B55D1EE
:101D4C0003F1804303F504331A6822F480321A60DD
:101D5C001A6822F480221A6037E09C4B5B6813F4FB
:101D6C00803FE7D0994B1B6813F4003F03D06368A6
:101D7C00002B00F0C381236813F0020F76D0934B35
:101D8C005B6813F00C0F5FD0904B5B6803F00C0397
:101D9C00082B54D02369002B00F08A808C4B012235
:101DAC001A60FFF781FF0546884B1B6813F0020F82
:101DBC0075D1FFF779FF401B0228F5D90320A0E16C
:101DCC00824A136843F480331360636843B3FFF7AC
:101DDC006BFF05467D4B1B6813F4003FCBD1FFF71F
:101DEC0063FF401B6428F5D903208AE1B3F5A02FCB
:101DFC0009D0764B1A6822F480321A601A6822F4E1
:101E0C0080221A60E1E703F18043A3F53C331A68A2
:101E1C0042F480221A601A6842F480321A60D4E7C5
:101E2C00FFF742FF0546694B1B6813F4003FA2D035
:101E3C00FFF73AFF401B6428F5D9032061E1634B9F
:101E4C005B6813F4803FA5D1604B1B6813F0020F45
:101E5C0004D02369012B01D0012052E15B4A1368A5
:101E6C0023F0F803616943EAC1031360236813F09C
:101E7C00080F32D0A369002B5BD0564B01221A609D
:101E8C00FFF712FF0546514B5B6A13F0020F21D18D
:101E9C00FFF70AFF401B0228F5D9032031E14B4A1A
:101EAC00136823F0F803616943EAC1031360DDE7AB
:101EBC00474B00221A60FFF7F7FE0546434B1B68A1
:101ECC0013F0020FD2D0FFF7EFFE401B0228F5D91A
:101EDC00032016E10120FFF701FF236813F0040F24
:101EEC0000F09880394BDB6913F0805F33D1374BAE
:101EFC00DA6942F08052DA61DB6903F080530193B6
:101F0C00019B0125344B1B6813F4807F25D0E368BB
:101F1C00012B36D0002B4CD103F1804303F5043355
:101F2C001A6A22F001021A621A6A22F004021A6278
:101F3C002CE0284B00221A60FFF7B6FE0546234B17
:101F4C005B6A13F0020FC8D0FFF7AEFE401B0228ED
:101F5C00F5D90320D5E00025D4E71F4A136843F4D4
:101F6C0080731360FFF7A0FE06461B4B1B6813F42F
:101F7C00807FCCD1FFF798FE801B6428F5D9032015
:101F8C00BFE0124A136A43F001031362E3687BB3A8
:101F9C00FFF78AFE06460D4B1B6A13F0020F38D171
:101FAC00FFF782FE801B41F288339842F3D903205D
:101FBC00A7E0052B12D0054B1A6A22F001021A6217
:101FCC001A6A22F004021A62E0E700BF0010024015
:101FDC000000424280044242007000404C4B1A6A9E
:101FEC0042F004021A621A6A42F001021A62CDE748
:101FFC00FFF75AFE0646464B1B6A13F0020F08D039
:10200C00FFF752FE801B41F288339842F3D903202C
:10201C0077E0E5B9E369002B72D03D4A526802F0D3
:10202C000C02082A56D0022B17D03A4B00221A6009
:10203C00FFF73AFE0446364B1B6813F0007F47D07F
:10204C00FFF732FE001B0228F5D9032059E0304A75
:10205C00D36923F08053D361DCE72E4B00221A6046
:10206C00FFF722FE05462A4B1B6813F0007F06D0B3
:10207C00FFF71AFE401B0228F5D9032041E0236A22
:10208C00B3F5803F1AD022494B6823F47413226AAB
:10209C00606A024313434B601E4B01221A60FFF728
:1020AC0003FE04461A4B1B6813F0007F0ED1FFF79A
:1020BC00FBFD001B0228F5D9032022E0144A5368CB
:1020CC0023F40033A1680B435360DCE7002018E0D5
:1020DC00002016E0012B16D00D4B5B6803F4803109
:1020EC00226A914201D001200BE003F47013626A62
:1020FC0093420AD0012004E001207047012000E047
:10210C00002002B070BD0120FBE70020F9E700BF02
:10211C00001002406000424210B487B0164C94E8A4
:10212C000F000DF1180C0CE90F00238AADF80430E8
:10213C00124B5B6803F00C02082A1AD1C3F38342DA
:10214C00624412F8102C13F4803F05D10C4800FBAC
:10215C0002F007B010BC7047084B5B68C3F34043F8
:10216C00634413F8143C074800FB02F0B0FBF3F097
:10217C00EFE70448EDE700BF20150108001002400E
:10218C0000093D0000127A00002800F0A38070B511
:10219C000446524B1B6803F007038B420CD24F4A88
:1021AC00136823F007030B431360136803F0070352
:1021BC008B4201D0012070BD236813F0020F17D0A1
:1021CC0013F0040F04D0464A536843F4E0635360A1
:1021DC00236813F0080F04D0414A536843F460534A
:1021EC0053603F4A536823F0F003A06803435360E5
:1021FC000D46236813F0010F31D06368012B20D0FA
:10220C00022B25D0364A126812F0020F64D03449E2
:10221C004A6822F0030213434B60FFF745FD064664
:10222C002F4B5B6803F00C036268B3EB820F16D084
:10223C00FFF73AFD801B41F288339842F0D9032016
:10224C00B9E7274A126812F4003FE0D10120B2E747
:10225C00234A126812F0007FD9D10120ABE71F4B43
:10226C001B6803F00703AB420CD91C4A136823F01C
:10227C0007032B431360136803F00703AB4201D031
:10228C00012098E7236813F0040F06D0144A536812
:10229C0023F4E063E1680B435360236813F0080FE9
:1022AC0007D00F4A536823F46053216943EAC103F2
:1022BC005360FFF731FF0A4B5B68C3F30313094A02
:1022CC00D35CD840084B1860084B1868FFF7A8FC83
:1022DC00002070E70120704701206CE700200240CD
:1022EC0000100240A817010818000020140000205C
:1022FC00014B1868704700BF1800002008B5FFF7A5
:10230C00F7FF044B5B68C3F30223034AD35CD8404A
:10231C0008BD00BF00100240B817010808B5FFF750
:10232C00E7FF044B5B68C3F3C223034AD35CD8407A
:10233C0008BD00BF00100240B8170108F0B482B00D
:10234C0000263246A2E0002D5AD0012D00D1CE68D5
:10235C00FF2B69D88446FF2B69D89500DCF8004028
:10236C000F27AF4024EA070406FA05F52C43CCF8F6
:10237C0000404C6814F0805F00F087805F4CA569CA
:10238C0045F00105A561A46904F001040194019CC8
:10239C009508AF1C5A4C54F8274002F00307BF00B5
:1023AC004FF00F0C0CFA07FC24EA0C0C554CA04215
:1023BC0043D004F58064A04200F0818004F5806471
:1023CC00A0427ED004F58064A04234D0042435E0D1
:1023DC004D4FBD4214D00BD94C4FBD4210D007F518
:1023EC008037BD420CD0A7F58017BD42B0D107E0B5
:1023FC00A7F58017BD4203D007F58037BD42A7D1A2
:10240C008D687DB1012D08D044610826A0E7CE6807
:10241C0008369DE7CE680C369AE70461082697E7E4
:10242C00002695E7042693E700F1040C93E7A2F14C
:10243C000805AD0092E7032400E00024BC4044EA08
:10244C000C0402352E4F47F825404C6814F4803F9D
:10245C0039D02F4D2C681C432C604C6814F4003F71
:10246C0037D02B4D6C681C436C604C6814F4801F87
:10247C0035D0274DAC681C43AC604C6814F4001F7D
:10248C0033D0234DEC682343EB6001320B6833FAF5
:10249C0002F430D00124944023409C42F5D14D6885
:1024AC00122DB7D094D8022DB1D07FF64CAF032D9E
:1024BC00B6D0112D7FF44CAFCE68043648E701241A
:1024CC00BCE70224BAE7124D2C6824EA03042C6002
:1024DC00C3E70F4D6C6824EA03046C60C5E70C4D30
:1024EC00AC6824EA0304AC60C7E7094DEC6824EA45
:1024FC000303EB60C9E702B0F0BC70470010024068
:10250C0000000140000801400000211000003110C3
:10251C000004014012B90904016170470161704760
:10252C0008B5054B5B69034200D108BD024B5861ED
:10253C00FEF714FCF9E700BF0004014008B590F861
:10254C002130022B03D004238363012008BD0268D1
:10255C00136823F00E0313600268136823F0010361
:10256C0013600368194A934214D0143293421FD05B
:10257C00143293421ED0143293421ED01432934222
:10258C001ED01432934202D04FF0807203E04FF40D
:10259C00801200E001220E4B5A60012380F821309A
:1025AC00002380F82030436B6BB198470020CDE7B7
:1025BC001022F0E74FF48072EDE74FF48052EAE717
:1025CC004FF48032E7E70020C0E700BF080002406C
:1025DC0000000240074AD36823F4E0631B041B0C81
:1025EC00000200F4E060184340F0BF6040F400309B
:1025FC00D060704700ED00E030B4174BDB68C3F3DC
:10260C000223C3F10704042C28BF04241D1D062D2E
:10261C0018D9033B4FF0FF3505FA04F421EA040105
:10262C00994005FA03F322EA0303194300280BDB54
:10263C000901C9B200F1604000F5614080F8001357
:10264C0030BC70470023E5E700F00F000901C9B268
:10265C00024B1954F4E700BF00ED00E014ED00E06C
:10266C00002807DB00F01F02400901239340024AB7
:10267C0042F82030704700BF00E100E00138B0F1B3
:10268C00807F0AD2064B5860064AF02182F823104C
:10269C000020986007221A6070470120704700BF25
:1026AC0010E000E000ED00E00F4B1A6842F0010270
:1026BC001A6059680D4A0A405A601A6822F08472EE
:1026CC0022F480321A601A6822F480221A605A6846
:1026DC0022F4FE025A604FF41F029A60044B4FF032
:1026EC0000629A60704700BF001002400000FFF8C3
:1026FC0000ED00E008B5034B1B7803B108BDFFF7F4
:10270C00D9FAFBE74404002008B5FFF7D3FA08BD5B
:10271C0008B5034B1B780146184608F056F808BD5F
:10272C001000002008B5044B1B780A4601461846D9
:10273C0008F000F808BD00BF1000002008B5034BDE
:10274C001B780146184608F040F808BD110000201F
:10275C0008B5044B1B780A460146184607F0EAFFF9
:10276C0008BD00BF1100002008B508F016FC08BD1C
:10277C0008B508F0EBFB08BD10B51C461346224605
:10278C0007F0F5FF10BD70B588B004460D4616462F
:10279C001978684605F083F833466A462946204680
:1027AC0007F0E5FF08B070BD38B50546002404E01D
:1027BC000520FFF77FFA0134A4B2AC42F8D338BD40
:1027CC0008B50146024B187808F0A7F908BD00BF00
:1027DC008804002008B50A460146024B187808F018
:1027EC0051F908BD8804002008B5FFF763FA08BD4D
:1027FC0008B501464A2008F08CFA08BD08B50A460F
:10280C0001464A2008F0B9FA08BD08B5082809D8CD
:10281C00DFE800F0050505050D0D0D0D0900522032
:10282C00FFF780FF08BD5720FFF77CFFFAE75D201C
:10283C00FFF778FFF6E7F8B505460C461746532028
:10284C00FFF766FF00F03F065E20FFF761FF00F028
:10285C003F0104F03F04082D0ED8DFE805F0050E0B
:10286C0019242F37424D580031465320FFF75AFF99
:10287C0021465320FFF756FFF8BD46F04001532088
:10288C00FFF750FF44F040015320FFF74BFFF3E7F5
:10289C0046F080015320FFF745FF44F080015320A0
:1028AC00FFF740FFE8E746F0C0015320FFF73AFF7F
:1028BC0044F0C0015320FFF735FFDDE75E20FFF742
:1028CC0031FF21465E20FFF72DFFD5E741F0400197
:1028DC005E20FFF727FF44F040015E20FFF722FF48
:1028EC00CAE741F080015E20FFF71CFF44F0800135
:1028FC005E20FFF717FFBFE741F0C0015E20FFF736
:10290C0011FF44F0C0015E20FFF70CFFB4E7214635
:10291C005820FFF707FF07F01F015920FFF702FFB0
:10292C00AAE738B5CDB2090A090101F07001D4B299
:10293C00C2F30222082812D8DFE800F005050505CD
:10294C001F1F1F1F120011435420FFF7EBFE2946D7
:10295C005520FFF7E7FE21465620FFF7E3FE38BD72
:10296C0011435A20FFF7DEFE29465B20FFF7DAFE03
:10297C0021465C20FFF7D6FEF1E711435F20FFF7FD
:10298C00D1FE29466020FFF7CDFE21466120FFF7DE
:10299C00C9FEE4E770B506460C4614F8015B10213D
:1029AC00FD20FFF7BFFE3146FE20FFF7BBFE044BB8
:1029BC00187823462A46FF21FFF7DEFE70BD00BFC4
:1029CC001000002070B582B0064602AC04F8012D50
:1029DC000D787021FD20FFF7A5FE3146FE20FFF794
:1029EC00A1FE044B187823462A46FF21FFF7CBFEA5
:1029FC0002B070BD1000002038B504460D465320BF
:102A0C00FFF786FE00F03F01A40164B22143C9B276
:102A1C005320FFF787FE5E20FFF77AFE00F03F00A1
:102A2C0044EA0001C9B25E20FFF77CFE5120FFF79B
:102A3C006FFE15F0080F01D100F0F70020F0070130
:102A4C0049B205F00F052943C9B25120FFF76AFEC0
:102A5C0038BD10B504465120FFF75AFE2CB900F0D2
:102A6C00F7015120FFF75EFE10BD40F00801C9B21E
:102A7C00F7E710B504466920FFF74AFE00F00F0196
:102A8C0041EA0411C9B26920FFF74CFE002158201D
:102A9C00FFF748FE10BD0000142860D8DFE800F0F6
:102AAC000B0F13171B1F23272B2F33373B3F43478A
:102ABC004B4F53575B002C4B2C4A1A6070472A4BD8
:102ACC002B4A1A607047284B2A4A1A607047264BCB
:102ADC00294A1A607047244B284A1A607047224BC7
:102AEC00274A1A607047204B264A1A6070471E4BC3
:102AFC00254A1A6070471C4B244A1A6070471A4BBF
:102B0C00234A1A607047184B1A4A1A607047164BC2
:102B1C00204A1A607047144B1F4A1A607047124BB8
:102B2C001E4A1A607047104B1D4A1A6070470E4BB4
:102B3C001C4A1A6070470C4B1B4A1A6070470A4BB0
:102B4C001A4A1A607047084B194A1A607047064BAC
:102B5C00184A1A607047044B174A1A607047024BA8
:102B6C00154A1A60704700BF480400201479010808
:102B7C002C7901082079010838790108F0780108CE
:102B8C009C780108FC78010808790108447901084F
:102B9C006C78010884780108A878010890780108FD
:102BAC00C078010878780108B4780108D878010851
:102BBC00CC780108E4780108707901082DE9F04718
:102BCC00054688461746B64A1278C2F3400602F00C
:102BDC00010453BBB34B1B78012B21D04FF02509BB
:102BEC004FF0F40A002D40F0BB81002E40F07E81A6
:102BFC00002C40F094810820FFF73BFFA84B1B787A
:102C0C00032B00F06F82002E00F07F82A64B1B7806
:102C1C00002B40F0758204212846FFF7EDFE68E298
:102C2C004FF03D094FF0B40ADCE71A46012B1ED0D9
:102C3C00022B2AD0032B36D0102B42D0202B7DD048
:102C4C00402B00F0B880502B00F0D280303B0F2B83
:102C5C0000F21E81002840F0ED80924B1B78012B76
:102C6C0000F0E3804FF025094FF0F40ABAE78D4BE2
:102C7C001B78012B04D04FF025094FF0F40AB1E773
:102C8C004FF03D094FF0B40AACE7864B1B78012B93
:102C9C0004D04FF025094FF0F40AA3E74FF03D099B
:102CAC004FF0B40A9EE77F4B1B78012B04D04FF0FA
:102CBC0025094FF0F40A95E74FF03D094FF0B40A9F
:102CCC0090E768B9774B1B78012B04D04FF025099E
:102CDC004FF0F40A86E74FF03D094FF0B40A81E754
:102CEC0001280AD0022816D06E4B1B78012B20D05D
:102CFC0040F2911940F2763A74E76A4B1B78012B3B
:102D0C0004D04FF0250940F2763A6BE74FF03D09BD
:102D1C0040F2744A66E7634B1B78012B04D040F2F7
:102D2C0091194FF0F40A5DE740F25B294FF0B40AB9
:102D3C0058E740F25B2940F2744A53E768B9594BA3
:102D4C001B78012B04D04FF025094FF0F40A49E70A
:102D5C004FF03D094FF0B40A44E701280AD002288D
:102D6C0016D0504B1B78012B20D04FF0250940F288
:102D7C00B64A37E74B4B1B78012B04D04FF0250993
:102D8C0040F2362A2EE74FF03D094FF4267A29E718
:102D9C00444B1B78012B04D040F2911940F2362A97
:102DAC0020E740F25B294FF4267A1BE74FF03D09F0
:102DBC004FF4CB6A16E768B93A4B1B78012B04D059
:102DCC004FF025094FF0F40A0CE74FF03D094FF096
:102DDC00B40A07E7334B1B78012B04D04FF02509BD
:102DEC0040F2763AFEE64FF03D0940F2744AF9E6BD
:102DFC0068B92C4B1B78012B04D04FF025094FF0F0
:102E0C00F40AEFE64FF03D094FF0B40AEAE6254B21
:102E1C001B78012B04D040F291194FF0F40AE1E633
:102E2C0040F25B294FF0B40ADCE64FF03D094FF05D
:102E3C00B40AD7E601280AD0022816D0194B1B7801
:102E4C00012B20D04FF4027940F24A4ACAE6154BC6
:102E5C001B78012B04D04FF0250940F24A4AC1E6F9
:102E6C004FF03D0940F2B45ABCE60E4B1B78012BD7
:102E7C0004D04FF48C7940F24A4AB3E64FF4D3793C
:102E8C0040F2B45AAEE640F20F3940F2B45AA9E619
:102E9C00602A0BD04FF040094FF0E00AA2E600BFC9
:102EAC00EF000020600600204C04002068B9A44B01
:102EBC001B78012B04D04FF025094FF0F40A91E652
:102ECC004FF03D094FF0B40A8CE601287FF48AAE2E
:102EDC009B4B1B78012B04D040F2052940F24A4A47
:102EEC0080E640F20D3940F2B45A7BE6012298F8A4
:102EFC0000100020FFF79FFC00210846FFF785FC1F
:102F0C0041460020FFF746FD072241460020FFF70F
:102F1C0059FD4A4651460020FFF703FD68E60122A1
:102F2C0039780420FFF787FC40210420FFF76DFC63
:102F3C0039464020FFF72EFD072239464020FFF787
:102F4C0041FD804B1A7802EB8202930009EB0302DD
:102F5C0092B2143292B251460420FFF7E2FC4AE6D8
:102F6C00012D2AD0022D66D0032D7FF444AE002E05
:102F7C0040F09F80002C3FF43EAE012239780720B0
:102F8C00FFF759FC70210720FFF73FFC39467020F2
:102F9C00FFF700FD072239467020FFF713FD694B40
:102FAC001B7803EB83039A004A4492B2143292B218
:102FBC0051460720FFF7B5FC1DE61EBB002C3FF465
:102FCC001AAE012239780520FFF735FC5021052077
:102FDC00FFF71BFC39465020FFF7DCFC0722394673
:102FEC005020FFF7EFFC574B1A7802EB820293004C
:102FFC0009EB030292B2143292B251460520FFF74C
:10300C0090FCF8E5012298F800101046FFF713FC2D
:10301C0010210120FFF7F9FB41461020FFF7BAFC05
:10302C00072241461020FFF7CDFC4A4651460120AD
:10303C00FFF777FCC2E71EBB002C3FF4DCAD01228E
:10304C0039780620FFF7F7FB60210620FFF7DDFB40
:10305C0039466020FFF79EFC072239466020FFF7B7
:10306C00B1FC384B1A7802EB8202930009EB030295
:10307C0092B2143292B251460620FFF752FCBAE5D6
:10308C00012298F800100220FFF7D5FB2021012027
:10309C00FFF7BBFB41462020FFF77CFC0722414693
:1030AC002020FFF78FFC4A4651460220FFF739FCDF
:1030BC00C2E7012298F800100320FFF7BCFB302177
:1030CC000320FFF7A2FB41463020FFF763FC0722E9
:1030DC0041463020FFF776FC4A4651460320FFF765
:1030EC0020FC47E7184B1B782BB905212846FFF726
:1030FC0083FCBDE8F08707212846FFF77DFCF8E745
:10310C0002212846FFF778FCF3E764B10E4B1B78DD
:10311C0023B901212846FFF76FFCEAE70221284674
:10312C00FFF76AFCE5E7084B1B7823B10221284620
:10313C00FFF762FCDDE700212846FFF75DFCD8E7CE
:10314C00600600204D0400204C04002070B586B0B1
:10315C0005460E4614462A4B1A5C012C0BD0022C49
:10316C002DD0032C2FD0002A3CD0012A3CD0022A8F
:10317C002DD0244B02E001282BD0234B2349097876
:10318C00914233D093E803000490ADF81410090C6D
:10319C008DF816103046FFF77FFC1D4B1A6801ABFB
:1031AC001068516803C31189927A19809A7023466A
:1031BC0001AA04A92846FFF701FD06B070BD02283C
:1031CC000AD0114BDAE7032809D00F4BD6E7114B85
:1031DC00D4E700220C4BD1E700220E4BCEE70022A5
:1031EC00084BCBE70C4BC9E7074BC7E793E8030049
:1031FC000490ADF814106C238DF81630CAE700BF9C
:10320C00500600206879010858790108D90100207E
:10321C0048040020607901085079010830B587B066
:10322C000D461446024638B1012827D0022801D099
:10323C00184B02E0184B00E0184B194909789142E1
:10324C001ED093E803000490ADF81410090C8DF80F
:10325C0016102846FFF720FC124B1A6801AB1068B9
:10326C00516803C31189927A19809A70234601AA76
:10327C0004A90020FFF7A2FC07B030BD0A4BDCE725
:10328C0093E803000490ADF814106C238DF81630FD
:10329C00DFE700BF687901086079010850790108FF
:1032AC00D9010020480400205879010870B5F0B10C
:1032BC0004465320FFF72CFA00F03F065E20FFF780
:1032CC0027FA00F03F05012C1CD0022C25D0032C32
:1032DC002ED05120FFF71CFA00F008011C4B1B7874
:1032EC008BB341F002015120FFF71CFA09E00122D7
:1032FC0000210846FFF79FFA012200210420FFF766
:10330C009AFA70BD46F040015320FFF70BFA45F0D6
:10331C0040015E20FFF706FADBE746F08001532000
:10332C00FFF700FA45F080015E20FFF7FBF9D0E7CC
:10333C0046F0C0015320FFF7F5F945F0C0015E20BF
:10334C00FFF7F0F9C5E75120FFF7ECF9D9E700BF1B
:10335C004C04002008B50320FFF7A8FF08BD10B5EA
:10336C00022404E02046FFF7A1FF0134E4B2032C51
:10337C00F8D910BD10B5012404E02046FFF796FFE4
:10338C000134E4B2032CF8D910BD10B5002404E0CC
:10339C002046FFF78BFF0134E4B2032CF8D910BDA3
:1033AC0010B5C0B014468DF800008DF80110194608
:1033BC000DF1020004F068FA044B1878A21C6B465D
:1033CC00D2B2FD21FFF7D8F940B010BD100000209B
:1033DC003F2805D870B54500EDB20E46002413E029
:1033EC007047A200A318590089B2224493009BB2E3
:1033FC00C1F303203344142201F0FE0140F02000FD
:10340C00FFF7CEFF0134A4B2ABB2A342E9D870BD32
:10341C0038B505460C46A1B101291BD140B9002194
:10342C001020FFF77FF90A219C20FFF77BF911E0B0
:10343C0001211020FFF776F90A219C20FFF772F981
:10344C0008E098B181211020FFF76CF900219C2035
:10345C00FFF768F9224620210A48FFF75BF823465C
:10346C002A460949012003F07DFE38BD8021102039
:10347C00FFF758F900219C20FFF754F902F038FEB1
:10348C00E8E700BF000801407C79010808B501217C
:10349C002620FFF79FF908BD10B50446F520FFF76D
:1034AC008FF9074B195D0140F520FFF793F9352093
:1034BC00FFF786F900F0DF013520FFF78BF910BD1F
:1034CC00907C010810B50446F520FFF779F9084BFC
:1034DC00195D0143C9B2F520FFF77CF93520FFF7E0
:1034EC006FF940F02001C9B23520FFF773F910BD18
:1034FC00987C010808B5C0210720FFF76BF9142050
:10350C00FFF75EF900F09F011420FFF763F900212B
:10351C001320FFF75FF904212620FFF75BF9B22196
:10352C000620FFF757F908BD08B5242806D0252832
:10353C0007D0262808D0FFF7A9FF08BDFFF7A6FF84
:10354C00FBE7FFF7D7FFF8E7FFF7D4FFF5E710B578
:10355C00044603E06178FFF73DF902342078FF2838
:10356C00F8D13220FFF720F910BD38B504460D46CE
:10357C0004E015F8011BFFF72DF901342078FF2822
:10358C00F7D13220FFF710F938BD08B501464020BD
:10359C00FFF720F908BD000070B50646964B1B5C82
:1035AC00262B00F2F380DFE813F070008200270076
:1035BC00680094009D00F100F100AF00A600F1003E
:1035CC00F10079008B00F100F100F100F100F10045
:1035DC00F100F100F100F100F100F100F100F10057
:1035EC00F100F100F100F100F100B800C000C800DA
:1035FC00D000D800E000E8000124804B1C7080480B
:10360C0004F056F925467F4804F0C6F97E4804EBD1
:10361C00440399000144FFF7A8FF7C4B1B78262B31
:10362C0000F0B780252B00F0BC80242B00F0C1806B
:10363C00764B1B782F2B00F0C580744B1B78272BF7
:10364C0000F0CB80012D00F0D3803046FFF73AFF1D
:10365C0000211320FFF7BEF81420FFF7B1F800F09B
:10366C009F011420FFF7B6F80220FFF7A9F800F02D
:10367C007F010220FFF7AEF870BD01255F4B1D7076
:10368C00634804F015F90224BDE75C4B00221A7064
:10369C00604804F00DF901250324B4E7574B0022D0
:1036AC001A705D4804F004F902250B24ABE7534B68
:1036BC0000221A70594804F0FBF801250424A2E7F3
:1036CC004E4B00221A70564804F0F2F802250C24D6
:1036DC0099E74A4B00221A70524804F0E9F8012588
:1036EC00052490E7454B00221A704F4804F0E0F88F
:1036FC000125062487E7414B03221A704B4804F03E
:10370C00D7F8042508247EE73C4B02221A7048485F
:10371C0004F0CEF80325072475E70125374B1D70FF
:10372C00444804F0C5F809246DE70125334B1D709E
:10373C00414804F0BDF80A2465E701252F4B1D70A4
:10374C003E4804F0B5F80D245DE701252B4B1D70A8
:10375C003B4804F0ADF80E2455E70125274B1D70AE
:10376C00384804F0A5F80F244DE70125234B1D70B4
:10377C00354804F09DF8102445E7204B00221A70C0
:10378C00324804F095F8012511243CE701252C461C
:10379C0039E72F4805EBC50359000144FFF7E5FE57
:1037AC0046E72C48C5EBC50359000144FFF7DDFE85
:1037BC003EE7294805EB450105EB81010144FFF784
:1037CC00D4FE35E7254804F0E7F8254805EB8503DA
:1037DC0099000144FFF7C9FE2FE7224804F0DCF8FA
:1037EC00214805EB850399000144FFF7BEFE29E74C
:1037FC003046FFF751FE2BE77C04002032040020FA
:10380C00A07C01082C7D0108607D0108910400203A
:10381C00A87C0108B07C0108B87C0108C47C0108B4
:10382C00CC7C0108D87C0108E07C0108E87C01080C
:10383C00EC7C0108F47C0108FC7C0108047D010887
:10384C000C7D0108147D01081C7D0108247D0108F4
:10385C0024820108D08001084C810108347D0108C4
:10386C0030800108487D0108147F010810B5274BF2
:10387C001B5C023B0B2B46D8DFE803F00A084545DE
:10388C004545454545450C06022404E0042402E068
:10389C00032400E00124FFF77FFE1D4B1B78262B31
:1038AC0013D0A3F12402D2B2012A16D92F2B1AD08D
:1038BC00272B20D01420FEF783FF40F04001C9B223
:1038CC001420FEF787FF204610BD124804EB84033A
:1038DC0059000144FFF749FEECE70F4800EBC40127
:1038EC00FFF743FEE6E70D4804EB4403990001445F
:1038FC00FFF73BFEDEE70A4804EB44039900014462
:10390C00FFF733FED6E70024DDE700BF7C04002080
:10391C0091040020AC810108A8800108907F010867
:10392C00747E010810B5264B1B5C023B0B2B45D853
:10393C00DFE803F00A0844444444444444440C067D
:10394C00022404E0042402E0032400E00124FFF735
:10395C0023FE1C4B1B78262B0ED0A3F12402D2B2D3
:10396C00012A12D92F2B19D0272B1FD0402113201D
:10397C00FEF730FF204610BD134804EB440104EB66
:10398C0081010144FFF7F1FDF0E70F4804EB44011E
:10399C0004EB81010144FFF7E8FDE7E70B4804EB7A
:1039AC00840399000144FFF7E0FDDFE7084804EBCE
:1039BC00840399000144FFF7D8FDD7E70024D9E729
:1039CC007C04002091040020E0810108CC7F0108D8
:1039DC00B07E010838B5054602212F20FEF7FAFE0D
:1039EC000420FEF7EDFE04460420FEF7E9FE044435
:1039FC000420FEF7E5FE04440420FEF7E1FE044437
:103A0C00640804F4FC742A4621460B4803F050FF6A
:103A1C0004F0F8010820FEF7DDFE0620FEF7D0FECC
:103A2C0000F0F900E10901F00201014341F0040149
:103A3C000620FEF7CFFE38BD187C010808B5002122
:103A4C002F20FEF7C7FE0420FEF7BAFE08BDF8B51E
:103A5C00064606212F20FEF7BDFE0420FEF7B0FE21
:103A6C00B04243D204461E2717E045F080010720E0
:103A7C00FEF7B0FED5B30820FEF796FE06212F20E8
:103A8C00FEF7A8FE0420FEF79BFE0446731C98422A
:103A9C0014DCA31B0133022B28D93FB3013FFFB227
:103AAC000720FEF78DFE00F03F05B442DDD0002D5F
:103ABC00DBD0013DEDB20134E4B2F6E70720FEF7AE
:103ACC007FFE00F03F00841C3F2C00D93F2444F0C3
:103ADC0080010720FEF77EFE3F2C07D00820FEF762
:103AEC0063FE0420FEF76CFE0446D2E7F8BD00002E
:103AFC00F0B583B000240CB103B0F0BD2046FFF745
:103B0C0044FD0120FEF75CFE10F0800F2AD1254603
:103B1C00904B1B5D083BDBB2012B4DD98E4B6022C9
:103B2C001A708D4B1B7883434AD08C4B5B5D002BFA
:103B3C0069D0022B72D08A4A525DFF2A02D0013220
:103B4C0087494A55032B74D02546844B1B5D012BAA
:103B5C0000F08680814B5B5D022B00F01D810134EF
:103B6C00E4B2C8E77D4B1B5D3BB97D4B1B5DFF2B66
:103B7C00F5D001337A490B55F1E70023774A1355F9
:103B8C00774A13550725734B1D552146754B1878ED
:103B9C00FFF7CAFC2146744803F08AFE01200BF0A3
:103BAC00FFF8724B1D70724B1B78012BCCD101218D
:103BBC000846FFF72DFCC7E7674B60221A70B0E789
:103BCC00664B5B5D022B0BD093B9644B01225A55AB
:103BDC00634B00225A552946664803F069FEB3E749
:103BEC005F4B5B5DFF2BAFD001335D4A5355ABE7A9
:103BFC005A4B02225A555A4B00225A5529465E48B6
:103C0C0003F056FEA0E7554B01225A55544B0022A7
:103C1C005A552946594803F04BFE95E74F4B032262
:103C2C005A554F4B00225A552946554803F040FE31
:103C3C008AE74B4B5B5D022B86D9484B01225A55C8
:103C4C00474B00225A552146464B1878FFF76CFC1F
:103C5C0029464C4803F02CFE20460BF0A1F873E7E4
:103C6C000320FEF7ADFD00F00802474B1A6000F090
:103C7C000702384B1E5D062A11D0042A1AD0052AD9
:103C8C0051D0022A20D04ABB404B1B68002B4BD092
:103C9C00334B5B5D13F0020F46D0262244E03C4BC5
:103CAC001B68002BE9D02E4B1B5D13F0010F34D099
:103CBC00092239E0354B1B688BB3294B5B5D13F044
:103CCC00020F2ED10C222FE0304B1B6863B3244B18
:103CDC005B5D13F0020F27D0232225E0032A23D9A2
:103CEC002A4B1B680BB932461EE009212F20FEF728
:103CFC0071FD0420FEF764FDA0F14903DBB20B2B30
:103D0C0021D9A0F15603DBB20B2B1ED9A0F1710304
:103D1C00DBB20E2B1BD9324606E0082204E00C2243
:103D2C0002E0242200E00D220A4B5B5D93423FF43B
:103D3C0011AF084B5A552946164803F0B9FD2046D9
:103D4C00FFF72AFC06E72022EEE72222ECE72522E9
:103D5C00EAE700BF7C040020790400206C040020FA
:103D6C008C04002091040020347A01081C000020EF
:103D7C001E0100204C7A0108607A0108787A01084B
:103D8C008C7A0108A87A01088004002074040020B1
:103D9C0084040020C47A0108B74B5B5D002B4BD127
:103DAC00B64B00225A55B64B1C70B64B5B5D0C3BA8
:103DBC00DBB2012B21D9A4F10A00B34B595DC0B27F
:103DCC00FEF708FDB14B1B782F2B25D0B04B595D5E
:103DDC00F720FEF7FFFCAF4B595DFA20FEF7FAFC1B
:103DEC00AD4B1B78AD4A11788B423FF4B8AEAA4B61
:103DFC001970AB4803F05CFDB1E60320FEF7E0FC64
:103E0C0010F0080FD7D19F4A535D23F00803535588
:103E1C002046FFF7C1FBCEE79D4B595DF820FEF71E
:103E2C00D9FC9C4B5D5D2946FA20FEF7D3FC294654
:103E3C00FB20FEF7CFFCD3E7012B24D0022B42D082
:103E4C00032B65D0062B7DD9132B40F28A80142BC3
:103E5C0000F0AB80152B7FF482AE884B5B5D002BA2
:103E6C0040F05C81894B1B78243BDBB2012B3FF685
:103E7C0076AE844B5B5D13F0200F3FF470AE1620D2
:103E8C00FFF7E5FD6BE6814B1B78232B7FF667AEC6
:103E9C000120FEF795FC06460146824803F008FD1A
:103EAC0006F06406602E7FF45AAE2046FFF73AFD0A
:103EBC0000283FF454AE714B02225A5529467A48D9
:103ECC0003F0F6FC4BE6714B1B78232B7FF647AEC9
:103EDC000120FEF775FC06460146724803F0E8FC2B
:103EEC0006F01106102E3FF43AAE644B5B5D022BCC
:103EFC007FF435AE2046FFF7B9FC00283FF42FAE17
:103F0C005E4B01225A552946684803F0D1FC26E63F
:103F1C005E4B1B78232B7FF622AE0120FEF750FC64
:103F2C00064601465F4803F0C3FC16F0010F3FF450
:103F3C0016AE544B585DFFF72FFB29465C4803F037
:103F4C00B7FC0CE65B4E06EB85039A78DA705A7870
:103F5C009A7016F825205A70FFF770FD06F82500A8
:103F6C00FDE5544F07EB8506B378F3707378B370A7
:103F7C0017F825307370FFF761FD07F82500F3780B
:103F8C001B1A0133022B3FF6EAADB3781B1A01332F
:103F9C00022B3FF6E4AD73781B1A0133022B3FF66C
:103FAC00DEAD354B13225A55D9E5FFF747FD0646D2
:103FBC00324B5B5D334F7A5D00922A4601463E4898
:103FCC0003F076FC7B5D9A1ED2B2012A12D9012B2A
:103FDC0037D91A1FD2B2012A37D9A3F10C02D2B2A7
:103FEC00012A36D9082B38D0092B3AD1334B012270
:103FFC005A5502E0314B06225A55304B5A5D304B24
:10400C001A70304B1B78012B2FD02C4B5A5D2E4B3A
:10401C005B5D9A4205D02D4B1B7829462C4803F04A
:10402C0047FC164B5B5D002B56D1184B1B78243B81
:10403C00DBB2012B63D940F2C961264803F038FC8E
:10404C008DE51E4B05225A55D7E71C4B05225A55B8
:10405C00D3E71A4B05225A55CFE7184B00225A5575
:10406C00CBE7164B14225A55C7E740214FF47A7010
:10407C0003F00EF9C9E700BF8C04002054040020A3
:10408C00500400207C040020347C010891040020A2
:10409C00387C01083C7C010890040020320400208C
:1040AC00E07A0108F47A0108047B0108187B010806
:1040BC002C7B010870040020407B010820000020AC
:1040CC001C0000201E01002058060020E8000020E3
:1040DC006C7B0108C47B0108B10861F07F01C9B297
:1040EC000720FEF777FB114B5B5D012B03D01048CB
:1040FC0003F052FC33E50F4803F04EFC2FE50E4B5A
:10410C005B5D13F0200F96D00321B6FBF1F161F04B
:10411C007F01C9B20720FEF75DFB8CE72046FFF755
:10412C0059FC0C20FFF793FC19E500BF5404002048
:10413C00B87B0108AC7B01087C04002010B544203E
:10414C00FEF73EFB044640F04001C9B24420FEF7A6
:10415C0041FB04F0BF014420FEF73CFB10BD000006
:10416C0010B5514B88221A70FF20FEF729FB4F4CDB
:10417C002070FD20FEF724FB00F007024C4B1A7058
:10418C0021784C4803F094FB00234B4A13604B4AB4
:10419C0013604B4A13602378023B252B6CD8DFE865
:1041AC0003F0136B136B6B6B6B6B6B6B6B6B6B6BE6
:1041BC006B6B6B6B6B6B6B6B6B6B6B6B6B6B6B6B43
:1041CC006B6B1330406B475B3E4803F0E5FB3E4C9A
:1041DC00FFF7B4FF2046FFF7BAF9384B1B68002BEA
:1041EC0051D13A4B03221A705A709A70DA7000202F
:1041FC00FFF7D2F9364B01221A700023002B46D060
:10420C0010BD01232C4A13602C4A1360284B1B78D9
:10421C00012B01D02F4CDBE7244B25221A702E4C9E
:10422C00D6E70123244A1360244A13602B4CCFE7B2
:10423C000123214A1360214A13601D4B1B78012B6B
:10424C0005D0F3B91E4B01221A60254CC0E7174B61
:10425C002F221A70234CBBE70123174A1360174A0D
:10426C001360134B1B78042B01D0174CB0E71E487E
:10427C0003F092FB144CABE71C4803F08DFB124C83
:10428C00A6E7174CA4E71A48FFF761F9A9E7002243
:10429C001849CA541849CA541849CA540B4A072118
:1042AC00D1540133DBB2A9E788040020910400202B
:1042BC0089040020D87B01088404002058040020C5
:1042CC0074040020F47B01085C7E01087C0400204F
:1042DC0090040020447E0108948001083C81010870
:1042EC0090810108787F0108FC7B01080C7C010897
:1042FC00188101088C0400206C0400205404002058
:10430C0008B5FE4802F012FF00210120FEF70AFA60
:10431C0000210220FEF706FA75210320FEF702FAAF
:10432C0018210420FEF7FEF980210520FEF7FAF98A
:10433C0020210620FEF7F6F908210720FEF7F2F9F6
:10434C0021210820FEF7EEF90A210920FEF7EAF9EF
:10435C0021210A20FEF7E6F90A210B20FEF7E2F9EB
:10436C0000210C20FEF7DEF920210D20FEF7DAF9F2
:10437C0010210E20FEF7D6F900210F20FEF7D2F9FE
:10438C0081211020FEF7CEF982211120FEF7CAF907
:10439C0052211220FEF7C6F94B211320FEF7C2F969
:1043AC00CF211420FEF7BEF978211520FEF7BAF9BB
:1043BC00FE211620FEF7B6F900211720FEF7B2F900
:1043CC00C0211820FEF7AEF901211920FEF7AAF939
:1043DC0036211A20FEF7A6F930211B20FEF7A2F990
:1043EC0000211C20FEF79EF900211D20FEF79AF9F2
:1043FC0020211E20FEF796F962211F20FEF792F96C
:10440C0072212020FEF78EF9EE212120FEF78AF989
:10441C0075212220FEF786F9BC212320FEF782F9B4
:10442C0000212420FEF77EF922212520FEF77AF9BF
:10443C00EE212620FEF776F9D0212720FEF772F91F
:10444C00F0212820FEF76EF900212920FEF76AF9E9
:10445C0000212A20FEF766F900212B20FEF762F9D5
:10446C0000212C20FEF75EF900212D20FEF75AF9D1
:10447C0025212E20FEF756F900212F20FEF752F9A8
:10448C00D0213020FEF74EF980213120FEF74AF979
:10449C0080213320FEF746F9A0213420FEF742F9A3
:1044AC0018213520FEF73EF946213620FEF73AF961
:1044BC0064213720FEF736F900213820FEF732F957
:1044CC00FF213920FEF72EF900213A20FEF72AF9B8
:1044DC0080213B20FEF726F980213C20FEF722F9B3
:1044EC0080213D20FEF71EF980213E20FEF71AF9AF
:1044FC0080213F20FEF716F980214020FEF712F9AB
:10450C0060214120FEF70EF95F214220FEF70AF9E7
:10451C0037214320FEF706F914214420FEF702F957
:10452C0005214520FEF7FEF800214620FEF7FAF89B
:10453C0000214720FEF7F6F800214820FEF7F2F89C
:10454C0000214920FEF7EEF820214B20FEF7EAF877
:10455C0000214C20FEF7E6F800214D20FEF7E2F892
:10456C0000214E20FEF7DEF87F214F20FEF7DAF80F
:10457C0020215020FEF7D6F800215120FEF7D2F86A
:10458C0000215220FEF7CEF806215320FEF7CAF880
:10459C0000215420FEF7C6F8B4215520FEF7C2F8CE
:1045AC003D215620FEF7BEF804215720FEF7BAF83D
:1045BC0000215820FEF7B6F808215920FEF7B2F872
:1045CC0010215A20FEF7AEF800215B20FEF7AAF866
:1045DC0068215C20FEF7A6F840215D20FEF7A2F8CA
:1045EC000A215E20FEF79EF800215F20FEF79AF864
:1045FC00B4216020FEF796F851216120FEF792F865
:10460C0033216220FEF78EF801216320FEF78AF831
:10461C00FF216420FEF786F801216520FEF782F861
:10462C00FF216620FEF77EF889216720FEF77AF8D5
:10463C00AB216820FEF776F888216920FEF772F826
:10464C006E216A20FEF76EF86E216B20FEF76AF879
:10465C006E216C20FEF766F800216D20FEF762F8E3
:10466C0000216E20FEF75EF800216F20FEF75AF84D
:10467C0000217020FEF756F800217120FEF752F849
:10468C0000217220FEF74EF800217320FEF74AF845
:10469C0000217420FEF746F8FF217520FEF742F842
:1046AC00FF217620FEF73EF8FF217720FEF73AF83F
:1046BC00FF217820FEF736F8FF217920FEF732F83B
:1046CC00FF217A20FEF72EF8FF217B20FEF72AF837
:1046DC00FF217C20FEF726F8F0217D20FEF722F842
:1046EC0080217E20FEF71EF800217F20FEF71AF8AD
:1046FC0000218020FEF716F802E000BFA882010816
:10470C0034218120FEF70EF840218220FEF70AF8B2
:10471C0005218320FEF706F857218420FEF702F8C6
:10472C00FD218520FDF7FEFF04218620FDF7FAFF11
:10473C0024218720FDF7F6FF94218820FDF7F2FF56
:10474C0058218920FDF7EEFF00218A20FDF7EAFFB2
:10475C007E218B20FDF7E6FF03218C20FDF7E2FF85
:10476C002C218D20FDF7DEFF8C218E20FDF7DAFF4A
:10477C0000218F20FDF7D6FFCC219020FDF7D2FF32
:10478C0041219120FDF7CEFFC4219220FDF7CAFFF5
:10479C0062219320FDF7C6FF78219420FDF7C2FF1C
:1047AC0000219520FDF7BEFFEC219620FDF7BAFF06
:1047BC0050219720FDF7B6FF1A219820FDF7B2FF84
:1047CC0090219920FDF7AEFF09219A20FDF7AAFF51
:1047DC0004219B20FDF7A6FF00219D20FDF7A2FFE1
:1047EC0004219E20FDF79EFF65219F20FDF79AFF77
:1047FC005521A020FDF796FFD821A120FDF792FFAF
:10480C009821A220FDF78EFF8721A320FDF78AFFB8
:10481C004421A420FDF786FF5521A520FDF782FF3A
:10482C001921A620FDF77EFF7021A720FDF77AFF46
:10483C004021A820FDF776FF1E21A920FDF772FF6D
:10484C002E21AA20FDF76EFF0021AB20FDF76AFF99
:10485C008821AC20FDF766FFEC21AD20FDF762FF4F
:10486C006521AE20FDF75EFF9921AF20FDF75AFFC1
:10487C000021B020FDF756FF0021B120FDF752FFBB
:10488C000021B220FDF74EFF0021B320FDF74AFFB7
:10489C000021B420FDF746FF0021B520FDF742FFB3
:1048AC000021B620FDF73EFF8021B820FDF73AFF2E
:1048BC000021B920FDF736FF0021BA20FDF732FFA9
:1048CC000021BB20FDF72EFF9021BC20FDF72AFF15
:1048DC000121BD20FDF726FFA521BE20FDF722FFFB
:1048EC000021C020FDF71EFF2021C120FDF71AFF7B
:1048FC002021C220FDF716FF2021C320FDF712FF57
:10490C002021C420FDF70EFF2021C520FDF70AFF52
:10491C00FF21D020FDF706FF3F21D120FDF702FF3C
:10492C00C221D220FDF7FEFE3F21D320FDF7FAFE77
:10493C000021D420FDF7F6FE0021D520FDF7F2FE74
:10494C000021D620FDF7EEFE1021D720FDF7EAFE60
:10495C000021D820FDF7E6FE7721DC20FDF7E2FEF2
:10496C000121DD20FDF7DEFEA521DE20FDF7DAFEBC
:10497C00E521DF20FDF7D6FE0021E020FDF7D2FE79
:10498C000021E120FDF7CEFE0021E220FDF7CAFE5A
:10499C002521E320FDF7C6FED221E420FDF7C2FE5F
:1049AC000021E520FDF7BEFE0021E620FDF7BAFE52
:1049BC000021E720FDF7B6FE0021E820FDF7B2FE4E
:1049CC000021E920FDF7AEFE0021EA20FDF7AAFE4A
:1049DC000021EB20FDF7A6FE8821EC20FDF7A2FEBE
:1049EC000021ED20FDF79EFE0021EE20FDF79AFE42
:1049FC000021EF20FDF796FE3521F020FDF792FE09
:104A0C004321F120FDF78EFE1F21F220FDF78AFED7
:104A1C001F21F320FDF786FE2221F420FDF782FEF4
:104A2C007321F520FDF77EFE5321F620FDF77AFE6B
:104A3C008021F720FDF776FE0121F820FDF772FEAC
:104A4C000121F920FDF76EFE0021FA20FDF76AFE28
:104A5C000021FB20FDF766FE0021FC20FDF762FE25
:104A6C007021FD20FDF75EFE4021FE20FDF75AFE71
:104A7C000721FF20FDF756FE08BD00BF08B5FE4814
:104A8C0002F054FB00210120FDF74CFE0021022016
:104A9C00FDF748FE75210320FDF744FE1821042084
:104AAC00FDF740FE80210520FDF73CFE202106206D
:104ABC00FDF738FE0C210720FDF734FE21210820DC
:104ACC00FDF730FE0A210920FDF72CFE21210A20DA
:104ADC00FDF728FE0A210B20FDF724FE00210C20F7
:104AEC00FDF720FE20210D20FDF71CFE10210E20CD
:104AFC00FDF718FE00210F20FDF714FE8121102078
:104B0C00FDF710FE82211120FDF70CFE0021122072
:104B1C00FDF708FE00211320FDF704FE00211420F0
:104B2C00FDF700FE78211520FDF7FCFDFE21162077
:104B3C00FDF7F8FD00211720FDF7F4FDC02118202A
:104B4C00FDF7F0FD01211920FDF7ECFD36211A20AF
:104B5C00FDF7E8FD30211B20FDF7E4FD00211C20B2
:104B6C00FDF7E0FD00211D20FDF7DCFD20211E20BE
:104B7C00FDF7D8FD00211F20FDF7D4FD00212020DA
:104B8C00FDF7D0FD00212120FDF7CCFDA72122202F
:104B9C00FDF7C8FD50212320FDF7C4FD8021242002
:104BAC00FDF7C0FD44212520FDF7BCFD6521262025
:104BBC00FDF7B8FD38212720FDF7B4FDF0212820A2
:104BCC00FDF7B0FD00212920FDF7ACFD00212A20C6
:104BDC00FDF7A8FD11212B20FDF7A4FD00212C20B1
:104BEC00FDF7A0FD00212D20FDF79CFD47212E2077
:104BFC00FDF798FD80212F20FDF794FD3821302002
:104C0C00FDF790FD80213120FDF78CFD80213320B4
:104C1C00FDF788FDA0213420FDF784FD18213520F7
:104C2C00FDF780FD46213620FDF77CFD6421372001
:104C3C00FDF778FD00213820FDF774FDFF213920A8
:104C4C00FDF770FD1B213A20FDF76CFD80213B2008
:104C5C00FDF768FD80213C20FDF764FD80213D209F
:104C6C00FDF760FD80213E20FDF75CFD80213F209B
:104C7C00FDF758FD80214020FDF754FD60214120B7
:104C8C00FDF750FD5F214220FDF74CFD37214320FD
:104C9C00FDF748FD14214420FDF744FD0621452075
:104CAC00FDF740FD00214620FDF73CFD002147208B
:104CBC00FDF738FD00214820FDF734FD0021492087
:104CCC00FDF730FD20214B20FDF72CFD00214C2061
:104CDC00FDF728FD00214D20FDF724FD00214E207D
:104CEC00FDF720FD7F214F20FDF71CFD20215020DA
:104CFC00FDF718FD20215120FDF714FD0021522055
:104D0C00FDF710FD04215320FDF70CFD002154206C
:104D1C00FDF708FDA0215520FDF704FD402156208C
:104D2C00FDF700FD04215720FDF7FCFC1021582055
:104D3C00FDF7F8FC08215920FDF7F4FC10215A204E
:104D4C00FDF7F0FC00215B20FDF7ECFC68215C20FA
:104D5C00FDF7E8FC84215D20FDF7E4FC08215E20D2
:104D6C00FDF7E0FC21215F20FDF7DCFC2021602019
:104D7C00FDF7D8FCB0216120FDF7D4FC3321622073
:104D8C00FDF7D0FC01216320FDF7CCFCFF21642052
:104D9C00FDF7C8FC01216520FDF7C4FCFF2166204E
:104DAC00FDF7C0FC89216720FDF7BCFCAB21682016
:104DBC00FDF7B8FC28216920FDF7B4FC6E216A20B0
:104DCC00FDF7B0FC6E216B20FDF7ACFC6E216C2066
:104DDC00FDF7A8FC00216D20FDF7A4FC00216E203E
:104DEC00FDF7A0FC00216F20FDF79CFC002170203A
:104DFC00FDF798FC00217120FDF794FC0021722036
:104E0C00FDF790FC00217320FDF78CFC0021742031
:104E1C00FDF788FCFF217520FDF784FCFF2176202F
:104E2C00FDF780FCFF217720FDF77CFCFF2178202B
:104E3C00FDF778FCFF217920FDF774FCFF217A2027
:104E4C00FDF770FCFF217B20FDF76CFCFF217C2023
:104E5C00FDF768FCF0217D20FDF764FC80217E20AD
:104E6C00FDF760FC00217F20FDF75CFC0021802019
:104E7C00FDF758FC02E000BF80820108342181203C
:104E8C00FDF750FC40218220FDF74CFC05218320CE
:104E9C00FDF748FC57218420FDF744FCFD218520BB
:104EAC00FDF740FC04218620FDF73CFC24218720E3
:104EBC00FDF738FC94218820FDF734FC582189201B
:104ECC00FDF730FC00218A20FDF72CFC7E218B2085
:104EDC00FDF728FC03218C20FDF724FC2C218D20D0
:104EEC00FDF720FC8C218E20FDF71CFC00218F206F
:104EFC00FDF718FCCC219020FDF714FC41219120EA
:104F0C00FDF710FCC4219220FDF70CFC84219320AA
:104F1C00FDF708FC98219420FDF704FC80219520D6
:104F2C00FDF700FC65219620FDF7FCFB7021972016
:104F3C00FDF7F8FB29219820FDF7F4FB902199202F
:104F4C00FDF7F0FB00219A20FDF7ECFB04219B20E0
:104F5C00FDF7E8FB00219D20FDF7E4FB04219E20DA
:104F6C00FDF7E0FB65219F20FDF7DCFB8021A020F5
:104F7C00FDF7D8FBD821A120FDF7D4FB9821A22066
:104F8C00FDF7D0FB8721A320FDF7CCFB0021A4204B
:104F9C00FDF7C8FB8021A520FDF7C4FB0021A6204E
:104FAC00FDF7C0FB7021A720FDF7BCFB4021A8201A
:104FBC00FDF7B8FB1E21A920FDF7B4FB2C21AA207C
:104FCC00FDF7B0FB0021AB20FDF7ACFB9021AC2032
:104FDC00FDF7A8FB6521AD20FDF7A4FB6521AE20F4
:104FEC00FDF7A0FB9921AF20FDF79CFB0021B02021
:104FFC00FDF798FB0021B120FDF794FB0021B220B6
:10500C00FDF790FB0021B320FDF78CFB0021B420B1
:10501C00FDF788FB0021B520FDF784FB0021B620AD
:10502C00FDF780FB0021B820FDF77CFB0021B920A7
:10503C00FDF778FB0021BA20FDF774FB0021BB20A3
:10504C00FDF770FB9021BC20FDF76CFB0121BD200E
:10505C00FDF768FBA521BE20FDF764FB0021C020F5
:10506C00FDF760FB2021C120FDF75CFB2021C22055
:10507C00FDF758FB2021C320FDF754FB2021C42051
:10508C00FDF750FB2021C520FDF74CFBFF21D02064
:10509C00FDF748FB3F21D120FDF744FBC221D22074
:1050AC00FDF740FB3F21D320FDF73CFB0021D42032
:1050BC00FDF738FB0021D520FDF734FB0021D6206D
:1050CC00FDF730FB0021D720FDF72CFB0021D82069
:1050DC00FDF728FB7721DC20FDF724FB0121DD20E7
:1050EC00FDF720FBA521DE20FDF71CFBE521DF20D1
:1050FC00FDF718FB0021E020FDF714FB0021E12057
:10510C00FDF710FB0021E220FDF70CFB4721E3200B
:10511C00FDF708FB3C21E420FDF704FB8021E52092
:10512C00FDF700FB0021E620FDF7FCFA0021E7204B
:10513C00FDF7F8FA0021E820FDF7F4FA0021E92048
:10514C00FDF7F0FA0021EA20FDF7ECFA0021EB2044
:10515C00FDF7E8FA8821EC20FDF7E4FA0021ED20B8
:10516C00FDF7E0FA0021EE20FDF7DCFA0021EF203C
:10517C00FDF7D8FA3521F020FDF7D4FA4321F120C0
:10518C00FDF7D0FA1F21F220FDF7CCFA1F21F320F6
:10519C00FDF7C8FA2221F420FDF7C4FA7321F5209B
:1051AC00FDF7C0FA5321F620FDF7BCFA8021F72059
:1051BC00FDF7B8FA0121F820FDF7B4FA0121F92026
:1051CC00FDF7B0FA0021FA20FDF7ACFA0021FB2024
:1051DC00FDF7A8FA0021FC20FDF7A4FA0021FD2020
:1051EC00FDF7A0FA0021FE20FDF79CFA0021FF201C
:1051FC00FDF798FA08BD00BF08B5FE4801F096FF10
:10520C0000210120FDF78EFA00210220FDF78AFA19
:10521C0075210320FDF786FA18210420FDF782FA88
:10522C0080210520FDF77EFA20210620FDF77AFA71
:10523C0008210720FDF776FA21210820FDF772FAE4
:10524C000A210920FDF76EFA21210A20FDF76AFADE
:10525C000A210B20FDF766FA00210C20FDF762FAFB
:10526C0020210D20FDF75EFA10210E20FDF75AFAD1
:10527C0000210F20FDF756FAA1211020FDF752FA5C
:10528C0082211120FDF74EFA21211220FDF74AFA56
:10529C00D0211320FDF746FA20211420FDF742FA05
:1052AC0078211520FDF73EFAFE211620FDF73AFA7B
:1052BC0000211720FDF736FAC0211820FDF732FA2D
:1052CC0001211920FDF72EFA30211A20FDF72AFAB8
:1052DC0004211B20FDF726FA00211C20FDF722FAE1
:1052EC0000211D20FDF71EFA20211E20FDF71AFAC1
:1052FC0031211F20FDF716FA60212020FDF712FA4C
:10530C0039212120FDF70EFA97212220FDF70AFA08
:10531C0037212320FDF706FABC212420FDF702FAE1
:10532C0010212520FDF7FEF907212620FDF7FAF9BB
:10533C00F0212720FDF7F6F9F0212820FDF7F2F9EE
:10534C0000212920FDF7EEF900212A20FDF7EAF9CA
:10535C0000212B20FDF7E6F9FF212C20FDF7E2F9C7
:10536C0000212D20FDF7DEF907212E20FDF7DAF9BB
:10537C00BC212F20FDF7D6F9F0213020FDF7D2F912
:10538C0080213120FDF7CEF980213320FDF7CAF9B9
:10539C00A0213420FDF7C6F918213520FDF7C2F9FC
:1053AC0046213620FDF7BEF964213720FDF7BAF906
:1053BC0000213820FDF7B6F9FF213920FDF7B2F9AD
:1053CC0000213A20FDF7AEF980213B20FDF7AAF928
:1053DC0080213C20FDF7A6F980213D20FDF7A2F9A4
:1053EC0080213E20FDF79EF980213F20FDF79AF9A0
:1053FC0080214020FDF796F960214120FDF792F9BC
:10540C005F214220FDF78EF937214320FDF78AF901
:10541C0014214420FDF786F905214520FDF782F97A
:10542C0000214620FDF77EF900214720FDF77AF98F
:10543C0000214820FDF776F900214920FDF772F98B
:10544C0020214B20FDF76EF900214C20FDF76AF965
:10545C0000214D20FDF766F900214E20FDF762F981
:10546C007F214F20FDF75EF920215020FDF75AF9DE
:10547C0000215120FDF756F900215220FDF752F979
:10548C0004215320FDF74EF900215420FDF74AF971
:10549C00E0215520FDF746F940215620FDF742F951
:1054AC0004215720FDF73EF900215820FDF73AF969
:1054BC0008215920FDF736F910215A20FDF732F951
:1054CC0000215B20FDF72EF968215C20FDF72AF9FD
:1054DC0040215D20FDF726F908215E20FDF722F919
:1054EC0000215F20FDF71EF9E0216020FDF71AF97D
:1054FC0054216120FDF716F933216220FDF712F9D2
:10550C0001216320FDF70EF9FF216420FDF70AF954
:10551C0001216520FDF706F9FF216620FDF702F950
:10552C0089216720FDF7FEF8AB216820FDF7FAF81A
:10553C0088216920FDF7F6F86E216A20FDF7F2F854
:10554C006E216B20FDF7EEF86E216C20FDF7EAF86A
:10555C0000216D20FDF7E6F800216E20FDF7E2F842
:10556C0000216F20FDF7DEF800217020FDF7DAF83E
:10557C0000217120FDF7D6F800217220FDF7D2F83A
:10558C0000217320FDF7CEF800217420FDF7CAF836
:10559C00FF217520FDF7C6F8FF217620FDF7C2F834
:1055AC00FF217720FDF7BEF8FF217820FDF7BAF830
:1055BC00FF217920FDF7B6F8FF217A20FDF7B2F82C
:1055CC00FF217B20FDF7AEF8FF217C20FDF7AAF828
:1055DC00F0217D20FDF7A6F880217E20FDF7A2F8B2
:1055EC0000217F20FDF79EF800218020FDF79AF81E
:1055FC0002E000BFCC82010834218120FDF792F833
:10560C0040218220FDF78EF805218320FDF78AF8D2
:10561C0057218420FDF786F8FC218520FDF782F8C0
:10562C0004218620FDF77EF824218720FDF77AF8E7
:10563C0094218820FDF776F858218920FDF772F81F
:10564C0000218A20FDF76EF87E218B20FDF76AF889
:10565C0003218C20FDF766F82C218D20FDF762F8D4
:10566C008C218E20FDF75EF800218F20FDF75AF873
:10567C00CC219020FDF756F841219120FDF752F8EE
:10568C00C4219220FDF74EF891219320FDF74AF8A2
:10569C00DA219420FDF746F8BC219520FDF742F85D
:1056AC00EB219620FDF73EF870219720FDF73AF894
:1056BC0010219820FDF736F890219920FDF732F84B
:1056CC0009219A20FDF72EF804219B20FDF72AF8DA
:1056DC0000219D20FDF726F804219E20FDF722F8DD
:1056EC0065219F20FDF71EF80221A020FDF71AF876
:1056FC00D621A120FDF716F89821A220FDF712F86B
:10570C008721A320FDF70EF8D421A420FDF70AF879
:10571C003721A520FDF706F8ED21A620FDF702F8AC
:10572C005421A720FCF7FEFF4021A820FCF7FAFF2C
:10573C001E21A920FCF7F6FF2E21AA20FCF7F2FF70
:10574C000021AB20FCF7EEFF8421AC20FCF7EAFF34
:10575C00EB21AD20FCF7E6FF6521AE20FCF7E2FF64
:10576C009921AF20FCF7DEFF0021B020FCF7DAFF17
:10577C000021B120FCF7D6FF0021B220FCF7D2FFAC
:10578C000021B320FCF7CEFF0021B420FCF7CAFFA8
:10579C000021B520FCF7C6FF0021B620FCF7C2FFA4
:1057AC000021B820FCF7BEFF0021B920FCF7BAFF9E
:1057BC000121BA20FCF7B6FF0021BB20FCF7B2FF99
:1057CC009021BC20FCF7AEFF0121BD20FCF7AAFF05
:1057DC002C21BE20FCF7A6FF0021C020FCF7A2FF65
:1057EC002021C120FCF79EFF2021C220FCF79AFF4C
:1057FC002021C320FCF796FF2021C420FCF792FF48
:10580C002021C520FCF78EFFFF21D020FCF78AFF5A
:10581C003F21D120FCF786FFC221D220FCF782FF6A
:10582C003F21D320FCF77EFF0021D420FCF77AFF28
:10583C000021D520FCF776FF0021D620FCF772FF63
:10584C001021D720FCF76EFF0021D820FCF76AFF4F
:10585C007721DC20FCF766FF0021DD20FCF762FFDE
:10586C00AF21DE20FCF75EFFA121DF20FCF75AFF01
:10587C000021E020FCF756FF0021E120FCF752FF4D
:10588C000021E220FCF74EFF1721E320FCF74AFF32
:10589C00DB21E420FCF746FFBC21E520FCF742FFAE
:1058AC000021E620FCF73EFF0021E720FCF73AFF41
:1058BC000021E820FCF736FF0021E920FCF732FF3D
:1058CC000021EA20FCF72EFF0021EB20FCF72AFF39
:1058DC008821EC20FCF726FF0021ED20FCF722FFAD
:1058EC000021EE20FCF71EFF0021EF20FCF71AFF31
:1058FC003121F020FCF716FF4321F120FCF712FFB9
:10590C001F21F220FCF70EFF1F21F320FCF70AFFEA
:10591C002221F420FCF706FF7321F520FCF702FF8F
:10592C005321F620FCF7FEFE8021F720FCF7FAFE4F
:10593C000121F820FCF7F6FE0121F920FCF7F2FE1C
:10594C000021FA20FCF7EEFE0021FB20FCF7EAFE1A
:10595C000021FC20FCF7E6FE7021FD20FCF7E2FEA6
:10596C004021FE20FCF7DEFE0721FF20FCF7DAFECB
:10597C0008BD00BF08B5FE4801F0D8FB002101208E
:10598C00FCF7D0FE00210220FCF7CCFE7521032091
:10599C00FCF7C8FE18210420FCF7C4FE802105206A
:1059AC00FCF7C0FE20210620FCF7BCFE08210720D6
:1059BC00FCF7B8FE21210820FCF7B4FE0A210920CF
:1059CC00FCF7B0FE21210A20FCF7ACFE09210B20CC
:1059DC00FCF7A8FE00210C20FCF7A4FE20210D20D2
:1059EC00FCF7A0FE10210E20FCF79CFE00210F20DE
:1059FC00FCF798FEA1211020FCF794FE82211120C7
:105A0C00FCF790FE21211220FCF78CFED0211320F4
:105A1C00FCF788FE20211420FCF784FE7821152049
:105A2C00FCF780FEF8211620FCF77CFE01211720E4
:105A3C00FCF778FEC0211820FCF774FE0121192018
:105A4C00FCF770FE30211A20FCF76CFE04211B20A1
:105A5C00FCF768FE00211C20FCF764FE00211D20D1
:105A6C00FCF760FE20211E20FCF75CFE31211F207C
:105A7C00FCF758FE60212020FCF754FE3921212030
:105A8C00FCF750FE97212220FCF74CFE38212320F6
:105A9C00FCF748FEBC212420FCF744FE10212520F5
:105AAC00FCF740FE06212620FCF73CFEF0212720C7
:105ABC00FCF738FEF0212820FCF734FE00212920C9
:105ACC00FCF730FE00212A20FCF72CFE00212B20B5
