:020000040800F2
:1000000000500020BD760008E90E0008EB0E000845
:10001000ED0E0008EF0E0008F10E000800000000D1
:10002000000000000000000000000000F30E0008C7
:10003000F50E000800000000F70E0008F90E000899
:1000400005770008057700080577000805770008A0
:100050000577000805770008057700080577000890
:10006000010F0008057700080577000805770008EC
:100070000577000805770008057700080577000870
:100080000577000805770008057700080577000860
:100090000577000805770008057700080577000850
:1000A0000577000805770008057700080577000840
:1000B000057700080D0F0008057700080577000890
:1000C0000577000805770008057700080577000820
:1000D000057700081D0F00082D0F000805770008A0
:1000E0000577000805770008057700080000000084
:1000F0000000000000000000000000000000000000
:0C01000000000000000000005FF808F1A3
:10010C0010B5054C237833B9044B13B10448AFF345
:10011C0000800123237010BDF400002000000000BB
:10012C00D013010808B5034B1BB103490348AFF3C7
:10013C00008008BD00000000F8000020D01301086A
:10014C00002902D0B0FBF1F0704708B14FF0FF303E
:10015C0000F01EB80029F8D00246B0FBF1F000FB0D
:10016C0011217047002902D090FBF1F07047002854
:10017C00C8BF6FF00040B8BF4FF0004000F008B8A7
:10018C000029F4D0024690FBF1F000FB11217047DE
:10019C00704700BFF0B589B000250495059506950C
:1001AC0007952E4B9A6942F004029A619A6902F003
:1001BC0004020092009A9A6942F008029A619A69C4
:1001CC0002F008020192019A9A6942F010029A61B7
:1001DC009A6902F010020292029A9A6942F0200285
:1001EC009A619B6903F020030393039B1C4F01222C
:1001FC004FF48051384602F0BAF9202304930124BD
:10020C00059406940226079604A9384602F0BCF819
:10021C0010230493059506940DEB0301384602F068
:10022C00B3F84FF4E053049305940694079604A98D
:10023C000C4802F0A9F804960594069407960A4E09
:10024C0004A9304602F0A0F84923049305950694BE
:10025C0004A9304602F098F809B0F0BD0010024035
:10026C0000080140000C01400010014030B587B07F
:10027C0000240294039404940594009401940E4D6C
:10028C000E4B2B6023236B60AC600923EB602C615D
:10029C008023AB61284601F0C7F84FF480530293DA
:1002AC0002A9284601F085F9009401946946284674
:1002BC0001F01AFA07B030BDF00200200004004033
:1002CC0008B50848084B03604FF4E1334360002342
:1002DC008360C36003610C2242618361C36101F0DE
:1002EC0002FB08BD600300200038014008B5084837
:1002FC00084B03604FF41643436000238360C360D4
:10030C0003610C2242618361C36101F0ECFA08BD08
:10031C00E40300200044004000B583B000238DF8B6
:10032C0007300DF106010DF1070011F035F80E4BF9
:10033C001B78042B03D00D4A1278934208D00B4B38
:10034C001B789DF807100A4AD15403B05DF804FBE2
:10035C00084B1B789DF807008342F0D0054B1870B2
:10036C0008F010FDEBE700BF380100205506002017
:10037C0030010020E901002010B50138012809D80E
:10038C0014464FF47A7392B2074801F0DBFA40B18D
:10039C00002010BD07F0B2F9092303604FF0FF30C5
:1003AC00F7E72046F5E700BF6003002038B5674B40
:1003BC001870042825D8DFE800F0254E77A003003C
:1003CC00634C01222021204602F0D1F80122402169
:1003DC00204602F0CCF85F4D01222021284602F085
:1003EC00C6F801221021284602F0C1F8012208218A
:1003FC00284602F0BCF801224FF40041204602F0DE
:10040C00B6F838BD524C00222021204602F0AFF83D
:10041C0001224021204602F0AAF84E4D0022202154
:10042C00284602F0A4F801221021284602F09FF879
:10043C0001220821284602F09AF801224FF40041CB
:10044C00204602F094F8444C207808F09BFC22786B
:10045C00424B1A70D5E73E4C00222021204602F078
:10046C0086F801224021204602F081F8394D012204
:10047C002021284602F07BF800221021284602F0A9
:10048C0076F801220821284602F071F801224FF477
:10049C000041204602F06BF82F4C607808F072FC9B
:1004AC0062782E4B1A70ACE7294C01222021204691
:1004BC0002F05DF800224021204602F058F8254D4C
:1004CC0001222021284602F052F801221021284650
:1004DC0002F04DF800220821284602F048F80122CB
:1004EC004FF40041204602F042F81B4CA07808F073
:1004FC0049FCA278194B1A7083E7154C0122202174
:10050C00204602F034F800224021204602F02FF859
:10051C00104D01222021284602F029F80122102139
:10052C00284602F024F801220821284602F01FF880
:10053C0000224FF40041204602F019F8064CE078F6
:10054C0008F020FCE278054B1A705AE738010020BD
:10055C0000080140000C014030010020E90100209E
:10056C0010B50446012809D001220821064801F0E3
:10057C00FEFF2146054806F047FD10BD002208216C
:10058C00014801F0F4FFF4E7001001408814010861
:10059C0070B582B000244FE0664B1B78142B03D04F
:1005AC00654B01221A5553E0634B00221A554FE05C
:1005BC0020460EF059FB631C009340F2A5435F4AA2
:1005CC005F49604807F0D8F85F4BDB794BB10122EB
:1005DC005E4B1A6000235E490B605E490A705E4AEE
:1005EC0013705E4B1B7814225D49CA545D49CA5482
:1005FC005D4A127802B91BB10120FFF7B1FF3BE055
:10060C000121002002F032FFF6E7012C05D028462C
:10061C0010F0D0FD524B585534E0464B1A78504BE5
:10062C005A552FE0504B1B78012B72D04B4B1B783B
:10063C00002B78D00134E4B2012C78D8474B1C70D5
:10064C00012CA9D010F0BAFE444B1B783A4AD05476
:10065C00424B1B78454AD15C454AD25C914201D051
:10066C004249CA54344AD25C4249C95C8A4203D0DA
:10067C004049CA54002A9BD0384B1D782E4B5B5DE9
:10068C00012BC2D0354B1B78354AD25C3549C95C3D
:10069C008A42CFD03349CA54142ACBD02A4D304E7B
:1006AC002A78315D20460EF053F9334B33F8143071
:1006BC00324A32F81420324931F81410314830F8EB
:1006CC001400009020460EF0FFFE335D0193631C76
:1006DC00009340F2CC43194A19492B4807F04CF8C7
:1006EC00EB794BB10122194B1A60002318490B60AE
:1006FC0018490A70184A13701B4B1B78002B91D1A8
:10070C00164B1B78002B8DD10021084602F0AEFE53
:10071C0088E7124B1B78012B88D140214FF47A705B
:10072C0006F024FD82E70020FFF71AFF82E702B0F3
:10073C0070BD00BF200000202C010020A014010877
:10074C00FC130108081401082804002014010020DF
:10075C002001002008000020100100205506002078
:10076C00580600200C0000201E01002074060020FA
:10077C002C07002028010020C8000020D0000020F9
:10078C00C0000020D80000203014010808B506F085
:10079C00DDFC3F2142F2107006F0E8FC412141F2F1
:1007AC00883006F0E3FC08BD38B506F025FF04469A
:1007BC000146184806F028FC06F01EFF032809D154
:1007CC0006F01AFF03281AD1032C12D1642002F070
:1007DC0019F838BD104D0321284606F015FC0320EE
:1007EC0006F030FF06F008FF0146284606F00CFC28
:1007FC00E6E706F04BFF094806F006FCE6E708487A
:10080C0006F002FC074806F0FFFB074BFF221A70AC
:10081C00DFE700BF8015010894150108A415010835
:10082C00E0150108FC150108A103002010B588B0E3
:10083C00602301930290002303930593054C082237
:10084C0001A9204600F03CFE0821204600F02EFFB6
:10085C0008B010BDA403002070B590B02022002178
:10086C0007A806F080FF00240194029403940494DA
:10087C0005940225069501260A9610230B930D95D7
:10088C004FF4E0130F9306A801F064FA0F230193C1
:10089C000295039404940594314601A801F09AFC46
:1008AC0010B070BD0268194B9A4200D07047184ABC
:1008BC0013780133DBB2137016490A6801320A60EF
:1008CC0015490A6801320A60632B09D9134A136867
:1008DC00013313600E4B00221A70114B01221A6067
:1008EC00104B1A6801321A601A680F4B9A42DDD904
:1008FC000C4B00221A600D4B1B78012BD6D10C4AE5
:10090C0013780133DBB21370D0E700BF0004004052
:10091C0057010020580100205C01002050010020EC
:10092C004C0100203C010020A086010008000020A2
:10093C001001002010B504460268184B9A4204D0EE
:10094C002268174B9A4214D010BD16490A78531CD2
:10095C00DBB20B7014490878144988541D2B02D94A
:10096C00104B00221A7001220F49114801F05AF85D
:10097C00E6E710490A78531CDBB20B700E49087875
:10098C000E4988541D2B02D90A4B00221A700122E1
:10099C0009490B4801F046F8D6E700BF0038014082
:1009AC0000440040430100201C010020D004002022
:1009BC0060030020410100201801002010050020D8
:1009CC00E40300207047000038B5012829D000212D
:1009DC00322001F0D5FE3021192001F0D1FE002487
:1009EC003C4B1C703C4806F03BFF3C480470012318
:1009FC0043700EF0E3F92146192001F0C1FE80216D
:100A0C00322001F0BDFE364B1B78012B04D00121A6
:100A1C00002002F02BFD2BE02146204602F026FDA3
:100A2C0026E00021322001F0ABFE3021192001F02C
:100A3C00A7FE284C012525702A4806F011FF2748EF
:100A4C000570022343700EF0B9F93121192001F021
:100A5C0097FE2378AB420CD08021322001F090FE1F
:100A6C001F4B5B78012B2FD00121084602F0FEFCB6
:100A7C0038BD1D4B1B78072B10D01C4806F07CFE94
:100A8C001B4B1B78052B13D0062B14D0B3B1012BA9
:100A9C0017D00121102001F073FEDDE704F01AF8E5
:100AAC00144806F069FE2946284602F0DFFCD3E71D
:100ABC0003F052FCD0E704F00DF8CDE704F0C8FBCE
:100ACC00CAE704F083FFC7E70021012002F0CEFC47
:100ADC00CEE700BF1E01002050140108280400209E
:100AEC002C010020641401087C04002080140108EF
:100AFC001C0000207814010800B583B061E0134697
:100B0C0000221A7008F064F86AE0624A1378013324
:100B1C00DBB21370604A1278934240F2838000215A
:100B2C005C4B19705D4B19705B78032B14D8013337
:100B3C005A494B70594C63780192009340F622034A
:100B4C00574A5849584806F017FE20460EF036F919
:100B5C00564B00221A7065E0504B01215970E9E7A1
:100B6C004E4B5B78514A12780192009340F62A035F
:100B7C004B4A4C494E4806F0FFFD61E04B4B1B784D
:100B8C00DBB2092B60D90023484A1370494A137011
:100B9C0002F029FC58E08021322001F0F1FD58E0F0
:100BAC00FFF712FF01E005F0CDFD05F02DFB00284D
:100BBC00F9D1414B1B68002BF7D006F04DFC06F029
:100BCC0029FC3D4B1B68012BEFD1FFF7E1FCFFF734
:100BDC00A3FB3A4A13780133DBB213700A2B8ED87D
:100BEC000A2001F0B5FD364A138801339BB21380FD
:100BFC00642B07D9134600221A802C4A1378013330
:100C0C00DBB21370294B1B78DBB22E4A126893426D
:100C1C001FD0264B1A782B4B1A602B4B1B78012BB1
:100C2C003FF473AF284B1B78012B99D01F4B1B78CB
:100C3C00009340F62E031A4A1A49244806F09CFDEC
:100C4C001C4B1B78012B99D0322001F08FFD002812
:100C5C00A1D002F079FF10211D4801F081FC1D4B41
:100C6C001B789842A1D0322001F072FD1021184857
:100C7C0001F076FC174B1B78984296D01021144843
:100C8C0001F06EFC134B1870012889D00020FFF77F
:100C9C009BFE8AE737010020120000202804002068
:100CAC00C0140108FC1301080C16010810010020E7
:100CBC003016010808000020240000202401002028
:100CCC0034010020040000203601002054160108D5
:100CDC00000801401E0100202DE9F04383B000F014
:100CEC00EBFFFFF7B9FDFFF751FDFFF753FAFFF7E5
:100CFC00BDFAFFF7E5FAFFF7F9FA09F0CDF909F0BB
:100D0C0077FC09F01DFE0AF007F90121002002F022
:100D1C00ADFB0120FFF724FC322001F019FD01226C
:100D2C005749584800F07EFE01225749574800F0B9
:100D3C0079FE574D00224FF48051284601F017FCE4
:100D4C00544C00220221204601F011FC642001F0D9
:100D5C00FFFC01224FF48051284601F008FC0122CF
:100D6C000221204601F003FC002420E04A4B1C70B9
:100D7C004A4E4B4D00944FF4E263324629464948A3
:100D8C0006F0FAFC002010F012FB8021892009F0FB
:100D9C003FFA022009F000FA0190009440F2167319
:100DAC0032462946404806F0E7FC0134E4B2012CF7
:100DBC00DCD93E4C0025257065710126A671667044
:100DCC000223A3700327E7700423237138490F20F3
:100DDC0002F02CFBFFF7E8FC03F0EEF9284601F0DB
:100DEC00C5FCDFF8B890DFF8B880009040F244738F
:100DFC004A4641462F4806F0BFFC40F245734A462E
:100E0C0041462D4806F0B8FCE771A6712572657253
:100E1C00284601F04CFE20460DF0D0FFE3793BB1A3
:100E2C00264B1E6026490D6026490E70264A157009
:100E3C0026485D2300F8013B20226D2106F093FC2F
:100E4C00012221230AE002F17F002049C854581CDA
:100E5C006D240C540132D2B20233DBB2402BF2D9E6
:100E6C001F226D211A4806F07EFC0020FFF79EFA27
:100E7C00184800F0CCF9184806F07EFCFFF73CFE51
:100E8C001C0100206003002018010020E403002056
:100E9C00000C01400010014055060020B814010858
:100EAC00FC130108CC140108F414010828040020D8
:100EBC00DC890108241501084815010814010020DB
:100ECC00200100200800002010010020EC0100206F
:100EDC002B020020F0020020701501087047FEE77D
:100EEC00FEE7FEE7FEE770477047704708B500F075
:100EFC00F5FE08BD08B5042001F040FB08BD00005C
:100F0C0008B5024800F098F908BD00BFF0020020B7
:100F1C0008B5024800F012FE08BD00BF60030020B7
:100F2C0008B5024800F00AFE08BD00BFE40300202B
:100F3C0082B00E4B9A6942F001029A619A6902F0F2
:100F4C0001020092009ADA6942F08052DA61DB69A0
:100F5C0003F080530193019B054A536823F0E0632F
:100F6C0043F00073536002B0704700BF00100240A2
:100F7C000000014002680E4B9A4200D0704700B549
:100F8C0083B003F50333DA6942F00202DA61DB69FC
:100F9C0003F002030193019B002211461D2001F076
:100FAC0059FB1D2001F08AFB03B05DF804FB00BF68
:100FBC000004004070B588B00446002304930593E8
:100FCC00069307930268364B9A4205D02268354B3C
:100FDC009A4234D008B070BD03F558439A6942F474
:100FEC0080429A619A6902F480420092009A9A694E
:100FFC0042F004029A619B6903F004030193019B84
:10100C004FF4007304930223059303230793264E96
:10101C0004A9304601F0B8F94FF48063049300251D
:10102C000595069504A9304601F0AEF92A462946E5
:10103C00252001F00FFB252001F040FBC6E703F54E
:10104C00E633DA6942F40032DA61DA6902F400322A
:10105C000292029A9A6942F004029A619B6903F027
:10106C0004030393039B0423049302230593032398
:10107C0007930D4D04A9284601F086F90823049323
:10108C0000240594069404A9284601F07DF9224613
:10109C002146262001F0DEFA262001F00FFB99E70D
:1010AC0000380140004400400008014070B4036A5D
:1010BC0023F001030362036A4268846924F0730419
:1010CC000D6845EA040623F002048B6823430D4D9A
:1010DC00A84209D00B4DA8420DD0426086614A68E7
:1010EC004263036270BC704723F00803CC6823434F
:1010FC0023F00403EEE722F440724C6914438A692E
:10110C002243EAE7002C014030B4036A23F48073D5
:10111C000362036A4268C46924F073040D682C43AB
:10112C0023F400738D6843EA05230F4DA84209D0C0
:10113C000D4DA8420ED04260C4614A68C26303627E
:10114C0030BC704723F40063CD6843EA052323F4D5
:10115C008063EDE722F440524D6942EA05128D6935
:10116C0042EA0512E7E700BF002C014030B4036AE5
:10117C0023F480530362036A4468C26922F4E64292
:10118C000D6842EA052223F400538D6843EA0533C7
:10119C00074DA84206D04460C2614A6802640362EB
:1011AC0030BC704724F480444D6944EA8514F2E75E
:1011BC00002C014010B4036A046A24F00104046298
:1011CC00846924F0F00444EA021223F00A030B436E
:1011DC008261036210BC704710B4036A23F01003E1
:1011EC0003628469036A24F4704444EA023223F0F3
:1011FC00A00343EA01138261036210BC7047836849
:10120C0023F07003194341F00701816070470268B5
:10121C00D36843F00103D3600268936803F00703BB
:10122C00062B03D0136843F00103136000207047B2
:10123C00704770477047704710B5044603681A69C9
:10124C0012F0020F11D0DA6812F0020F0DD06FF00D
:10125C0002021A610123037703689B6913F0030FE1
:10126C0070D0FFF7E6FF0023237723681A6912F08A
:10127C00040F12D0DA6812F0040F0ED06FF00402D3
:10128C001A610223237723689B6913F4407F5FD094
:10129C002046FFF7CEFF0023237723681A6912F04C
:1012AC00080F12D0DA6812F0080F0ED06FF0080297
:1012BC001A61042323772368DB6913F0030F4ED0E4
:1012CC002046FFF7B6FF0023237723681A6912F034
:1012DC00100F12D0DA6812F0100F0ED06FF010024F
:1012EC001A61082323772368DB6913F4407F3DD010
:1012FC002046FFF79EFF0023237723681A6912F01C
:10130C00010F03D0DA6812F0010F36D123681A6985
:10131C0012F0800F03D0DA6812F0800F34D12368FA
:10132C001A6912F0400F03D0DA6812F0400F32D174
:10133C0023681A6912F0200F03D0DA6812F0200F1C
:10134C0030D110BDFFF774FF2046FFF773FF8AE71B
:10135C002046FFF76DFF2046FFF76CFF9BE720460A
:10136C00FFF766FF2046FFF765FFACE72046FFF767
:10137C005FFF2046FFF75EFFBDE76FF001021A61C9
:10138C002046FFF78FFAC1E76FF080021A61204602
:10139C0000F0CEF9C3E76FF040021A612046FFF768
:1013AC004AFFC5E76FF020021A61204600F0BFF932
:1013BC00C7E7000003681B4A90420AD0B0F1804F87
:1013CC0007D0A2F59432904203D002F5806290428D
:1013DC0003D123F070034A681343124A90420AD097
:1013EC00B0F1804F07D0A2F59432904203D002F5B1
:1013FC008062904203D123F44073CA68134323F0F4
:10140C0080034A69134303608B68C3620B68836271
:10141C00044B984202D00123436170470B6903636C
:10142C00F9E700BF002C0140A8B110B5044690F8B4
:10143C003D305BB1022384F83D30211D2068FFF75D
:10144C00B9FF012384F83D30002010BD80F83C30FA
:10145C00FFF790FDEEE701207047000030B4036AFF
:10146C0023F010030362036A4468826922F4E642A3
:10147C000D6842EA052223F020038D6843EA051328
:10148C000E4DA84209D00D4DA8420ED04460826189
:10149C004A688263036230BC704723F08003CD68D6
:1014AC0043EA051323F04003EDE724F440644D694F
:1014BC0044EA85048D6944EA8504E7E7002C014081
:1014CC0038B590F83C30012B66D00D46044601230C
:1014DC0080F83C30022380F83D300C2A1AD8DFE823
:1014EC0002F007191919201919193419191947007B
:1014FC000068FFF7DBFD2268936943F008039361F2
:10150C002268936923F00403936122689369296923
:10151C000B439361012384F83D30002084F83C0098
:10152C0038BD0068FFF79AFF2268936943F40063A3
:10153C0093612268936923F48063936122689369B1
:10154C00296943EA01239361E4E70068FFF7DCFDB6
:10155C002268D36943F00803D3612268D36923F06E
:10156C000403D3612268D36929690B43D361D1E7A2
:10157C000068FFF7FBFD2268D36943F40063D36175
:10158C002268D36923F48063D3612268D369296903
:10159C0043EA0123D361BDE70220C1E710B484689C
:1015AC0024F47F4442EA03230B432343836010BC9F
:1015BC00704790F83C30012B66D010B504460123DF
:1015CC0080F83C30022380F83D300268936823F4A5
:1015DC007F4323F0770393600B68402B4AD013D9D9
:1015EC00602B3DD01ED9702B28D0B3F5005F30D1C5
:1015FC00CB684A6889680068FFF7D0FF2268936857
:10160C0043F48043936024E0102B06D004D9202BA4
:10161C0003D0302B01D01CE0DBB919462068FFF752
:10162C00EEFD16E0502B14D1CA6849680068FFF72C
:10163C00C1FD50212068FFF7E2FD0AE0CB684A6843
:10164C0089680068FFF7AAFF2268936843F0770364
:10165C009360012384F83D30002084F83C0010BDD9
:10166C00CA6849680068FFF7B7FD60212068FFF77A
:10167C00C6FDEEE7CA6849680068FFF79BFD40218C
:10168C002068FFF7BCFDE4E70220704710B401F0BE
:10169C001F01012303FA01F4036A23EA0403036222
:1016AC00036A8A401343036210BC704710B50446AA
:1016BC0001220068FFF7EAFF23680A4A93420BD025
:1016CC002268936803F00703062B03D0136843F0DA
:1016DC0001031360002010BD5A6C42F400425A649E
:1016EC00EEE700BF002C014090F83C30012B1CD0E1
:1016FC0070B4012680F83C60022380F83D3002680B
:10170C005568936825F070050C682C4323F0800510
:10171C004B682B4354600268936080F83D60002353
:10172C0080F83C30184670BC7047022070477047F8
:10173C0070470268D36823F49073D36002685369CE
:10174C0023F001035361202380F83A30704790F85E
:10175C003930DBB2212B2AD18368B3F5805F16D0E8
:10176C00036A5A1C02621A7803685A60C38C013BE4
:10177C009BB2C384EBB90268D36823F08003D360B7
:10178C000268D36843F04003D36000207047036ABB
:10179C001B880268C3F30803536003691BB9036A0F
:1017AC0002330362E2E7036A01330362DEE70220DD
:1017BC00704700207047000038B504460268136972
:1017CC0023F44053C1680B431361836802691343CC
:1017DC0042691A430168CB6823F4B05323F00C031D
:1017EC001343CB600268536923F4407381690B4344
:1017FC0053610268214B9A421FD000F0A5FD00EB0B
:10180C00800000EB800063689B00B0FBF3F01C4D84
:10181C00A5FB00325109642202FB11021301323381
:10182C00A5FB03235B0903F0F00202EB011203F0AA
:10183C000F03216813448B6038BD00F095FD00EB5D
:10184C00800000EB800063689B00B0FBF3F00C4D54
:10185C00A5FB00325109642202FB11021301323341
:10186C00A5FB03235B0903F0F00202EB011203F06A
:10187C000F03216813448B60DEE700BF0038014082
:10188C001F85EB512DE9F04105460F46164698464B
:10189C00069C2B681B6837EA03030CBF012300234B
:1018AC00B3421DD1B4F1FF3FF3D02CB100F022FABA
:1018BC00A0EB0800A042ECD92A68D36823F4D073BB
:1018CC00D3602A68536923F001035361202385F800
:1018DC00393085F83A30002385F83830032000E0A1
:1018EC000020BDE8F08158B310B5044690F83930AB
:1018FC000BB3242384F839302268D36823F40053C3
:10190C00D3602046FFF758FF2268136923F49043F5
:10191C0013612268536923F02A0353612268D36848
:10192C0043F40053D3600020E063202384F8393063
:10193C0084F83A3010BD80F83830FFF73BFBD8E71D
:10194C00012070472DE9F04182B01E4690F83930E5
:10195C00DBB2202B55D104460D469046002955D0BC
:10196C00002A55D090F83830012B53D0012380F841
:10197C0038300023C363212380F8393000F0BAF9E2
:10198C000746A4F82480A4F8268010E000963B4675
:10199C00002280212046FFF775FF00283CD12B88C0
:1019AC002268C3F3080353602369C3B90235E38C7F
:1019BC009BB2B3B1E38C013B9BB2E384A368B3F558
:1019CC00805FE3D000963B46002280212046FFF743
:1019DC0059FF18BB2A7823685A600135E7E70135AF
:1019EC00E5E700963B46002240212046FFF74AFFE0
:1019FC000346A8B9202284F83920002284F8382024
:101A0C0000E00223184602B0BDE8F0810123F9E79B
:101A1C000123F7E70223F5E70323F3E70323F1E7B9
:101A2C000323EFE790F83A30DBB2202B20D109B337
:101A3C0012B390F83830012B20D081628285C28598
:101A4C000023C363222280F83A2080F838300168E2
:101A5C00CA6842F48072CA6001684A6942F00102A5
:101A6C004A610168CA6842F02002CA601846704791
:101A7C0002207047012070470120704702207047F8
:101A8C00704708B50168CB6823F04003CB60202376
:101A9C0080F83930FFF7F4FF002008BD08B590F846
:101AAC003A30DBB2222B45D18368B3F5805F0ED080
:101ABC00036903BB03685A68836A591C81621A70F4
:101ACC00C38D013B9BB2C385F3B1002033E0826A26
:101ADC00036943B903685B68C3F308031380836A23
:101AEC0002338362ECE703685B68DBB21380836AC2
:101AFC0001338362E4E703685B68826A511C81628C
:101B0C0003F07F031370DBE70268D36823F0200334
:101B1C00D3600268D36823F48073D360026853697E
:101B2C0023F001035361202380F83A30FEF702FFC3
:101B3C00002000E0022008BD7047000010B50446EC
:101B4C0002681368D168526913F00F0005D113F0C5
:101B5C00200F02D011F0200F53D1002867D012F0C3
:101B6C00010202D111F4907F61D013F0010F06D065
:101B7C0011F4807F03D0E06B40F00100E06313F0C0
:101B8C00040F04D01AB1E06B40F00200E06313F0D4
:101B9C00020F04D01AB1E06B40F00400E06313F0C4
:101BAC00080F04D01AB1E26B42F00802E263E26B58
:101BBC00002A48D013F0200F02D011F0200F24D1AE
:101BCC0023685B6903F04003E26B12F0080F00D14D
:101BDC003BB32046FFF7ADFD23685A6912F0400F66
:101BEC001BD05A6922F040025A61636B8BB11A4ABE
:101BFC005A63606B00F0D0FC28B3606B436B984762
:101C0C0021E02046FFF74AFF1DE02046FFF746FF84
:101C1C00D6E72046FFF790FF15E02046FFF78CFF34
:101C2C0011E02046FFF788FF0023E3630BE013F07D
:101C3C00800F02D011F0800F06D113F0400F02D0AC
:101C4C0011F0400F04D110BD2046FFF780FDFAE7DC
:101C5C002046FFF716FFF6E7691C000808B5406A36
:101C6C000023C385C384FFF767FF08BD10B5044686
:101C7C000E4B18784FF47A73B3FBF0F30C4A1068E0
:101C8C00B0FBF3F000F028FD68B90F2C01D901204E
:101C9C000AE0002221464FF0FF3000F0DBFC054B40
:101CAC001C60002000E0012010BD00BF13000020CC
:101CBC00180000201400002008B5074A136843F0F0
:101CCC0010031360032000F0B3FC0020FFF7CEFFDD
:101CDC00FFF72EF9002008BD00200240034A1168CE
:101CEC00034B1B780B441360704700BF400400206B
:101CFC0013000020014B1868704700BF40040020FF
:101D0C0038B50446FFF7F6FF0546B4F1FF3F02D0A5
:101D1C00044B1B781C44FFF7EDFF401BA042FAD389
:101D2C0038BD00BF1300002082B0084B1B68084A66
:101D3C00A2FB03235B0A00FB03F0019000BF019B95
:101D4C005A1E0192002BF9D102B0704718000020E6
:101D5C00D34D6210002800F0F58170B582B00446B6
:101D6C00036813F0010F2CD0AB4B5B6803F00C0332
:101D7C00042B1DD0A84B5B6803F00C03082B12D06E
:101D8C006368B3F5803F41D0002B55D103F18043FC
:101D9C0003F504331A6822F480321A601A6822F4AC
:101DAC0080221A6037E09C4B5B6813F4803FE7D0CD
:101DBC00994B1B6813F4003F03D06368002B00F0B1
:101DCC00C381236813F0020F76D0934B5B6813F03A
:101DDC000C0F5FD0904B5B6803F00C03082B54D0B6
:101DEC002369002B00F08A808C4B01221A60FFF7CC
:101DFC0081FF0546884B1B6813F0020F75D1FFF766
:101E0C0079FF401B0228F5D90320A0E1824A136810
:101E1C0043F480331360636843B3FFF76BFF0546ED
:101E2C007D4B1B6813F4003FCBD1FFF763FF401BC6
:101E3C006428F5D903208AE1B3F5A02F09D0764B9D
:101E4C001A6822F480321A601A6822F480221A600E
:101E5C00E1E703F18043A3F53C331A6842F4802296
:101E6C001A601A6842F480321A60D4E7FFF742FF16
:101E7C000546694B1B6813F4003FA2D0FFF73AFFED
:101E8C00401B6428F5D9032061E1634B5B6813F4B4
:101E9C00803FA5D1604B1B6813F0020F04D023695F
:101EAC00012B01D0012052E15B4A136823F0F803A7
:101EBC00616943EAC1031360236813F0080F32D041
:101ECC00A369002B5BD0564B01221A60FFF712FF5F
:101EDC000546514B5B6A13F0020F21D1FFF70AFF45
:101EEC00401B0228F5D9032031E14B4A136823F03B
:101EFC00F803616943EAC1031360DDE7474B002235
:101F0C001A60FFF7F7FE0546434B1B6813F0020FF0
:101F1C00D2D0FFF7EFFE401B0228F5D9032016E1C3
:101F2C000120FFF701FF236813F0040F00F09880E5
:101F3C00394BDB6913F0805F33D1374BDA6942F0F0
:101F4C008052DA61DB6903F080530193019B012518
:101F5C00344B1B6813F4807F25D0E368012B36D0FB
:101F6C00002B4CD103F1804303F504331A6A22F0A1
:101F7C0001021A621A6A22F004021A622CE0284B3F
:101F8C0000221A60FFF7B6FE0546234B5B6A13F07E
:101F9C00020FC8D0FFF7AEFE401B0228F5D9032074
:101FAC00D5E00025D4E71F4A136843F4807313600F
:101FBC00FFF7A0FE06461B4B1B6813F4807FCCD1A9
:101FCC00FFF798FE801B6428F5D90320BFE0124A66
:101FDC00136A43F001031362E3687BB3FFF78AFED5
:101FEC0006460D4B1B6A13F0020F38D1FFF782FE29
:101FFC00801B41F288339842F3D90320A7E0052BCC
:10200C0012D0054B1A6A22F001021A621A6A22F0E7
:10201C0004021A62E0E700BF0010024000004242D6
:10202C0080044242007000404C4B1A6A42F0040299
:10203C001A621A6A42F001021A62CDE7FFF75AFEE1
:10204C000646464B1B6A13F0020F08D0FFF752FEF0
:10205C00801B41F288339842F3D9032077E0E5B92D
:10206C00E369002B72D03D4A526802F00C02082A38
:10207C0056D0022B17D03A4B00221A60FFF73AFECB
:10208C000446364B1B6813F0007F47D0FFF732FE37
:10209C00001B0228F5D9032059E0304AD36923F0FC
:1020AC008053D361DCE72E4B00221A60FFF722FE2F
:1020BC0005462A4B1B6813F0007F06D0FFF71AFE6B
:1020CC00401B0228F5D9032041E0236AB3F5803F79
:1020DC001AD022494B6823F47413226A606A0243B3
:1020EC0013434B601E4B01221A60FFF703FE04469C
:1020FC001A4B1B6813F0007F0ED1FFF7FBFD001B82
:10210C000228F5D9032022E0144A536823F4003343
:10211C00A1680B435360DCE7002018E0002016E0B8
:10212C00012B16D00D4B5B6803F48031226A91426F
:10213C0001D001200BE003F47013626A93420AD0C1
:10214C00012004E001207047012000E0002002B0D3
:10215C0070BD0120FBE70020F9E700BF0010024032
:10216C006000424210B487B0164C94E80F000DF199
:10217C00180C0CE90F00238AADF80430124B5B6885
:10218C0003F00C02082A1AD1C3F38342624412F8FA
:10219C00102C13F4803F05D10C4800FB02F007B063
:1021AC0010BC7047084B5B68C3F34043634413F89F
:1021BC00143C074800FB02F0B0FBF3F0EFE70448D7
:1021CC00EDE700BFE81301080010024000093D00D4
:1021DC0000127A00002800F0A38070B50446524B20
:1021EC001B6803F007038B420CD24F4A136823F091
:1021FC0007030B431360136803F007038B4201D0F2
:10220C00012070BD236813F0020F17D013F0040FD8
:10221C0004D0464A536843F4E0635360236813F0D8
:10222C00080F04D0414A536843F4605353603F4A4B
:10223C00536823F0F003A068034353600D462368F2
:10224C0013F0010F31D06368012B20D0022B25D065
:10225C00364A126812F0020F64D034494A6822F0F0
:10226C00030213434B60FFF745FD06462F4B5B689B
:10227C0003F00C036268B3EB820F16D0FFF73AFD44
:10228C00801B41F288339842F0D90320B9E7274AE2
:10229C00126812F4003FE0D10120B2E7234A126821
:1022AC0012F0007FD9D10120ABE71F4B1B6803F064
:1022BC000703AB420CD91C4A136823F007032B43CA
:1022CC001360136803F00703AB4201D0012098E7B9
:1022DC00236813F0040F06D0144A536823F4E06308
:1022EC00E1680B435360236813F0080F07D00F4AC3
:1022FC00536823F46053216943EAC1035360FFF729
:10230C0031FF0A4B5B68C3F30313094AD35CD84013
:10231C00084B1860084B1868FFF7A8FC002070E702
:10232C000120704701206CE70020024000100240A1
:10233C00701601081800002014000020014B1868CA
:10234C00704700BF1800002008B5FFF7F7FF044BDB
:10235C005B68C3F30223034AD35CD84008BD00BFBB
:10236C00001002408016010808B5FFF7E7FF044B88
:10237C005B68C3F3C223034AD35CD84008BD00BFDB
:10238C000010024080160108F0B482B000263246DC
:10239C00A2E0002D5AD0012D00D1CE68FF2B69D8B8
:1023AC008446FF2B69D89500DCF800400F27AF401E
:1023BC0024EA070406FA05F52C43CCF800404C68D7
:1023CC0014F0805F00F087805F4CA56945F0010533
:1023DC00A561A46904F001040194019C9508AF1C4B
:1023EC005A4C54F8274002F00307BF004FF00F0C73
:1023FC000CFA07FC24EA0C0C554CA04243D004F513
:10240C008064A04200F0818004F58064A0427ED0FC
:10241C0004F58064A04234D0042435E04D4FBD4215
:10242C0014D00BD94C4FBD4210D007F58037BD42AC
:10243C000CD0A7F58017BD42B0D107E0A7F58017E7
:10244C00BD4203D007F58037BD42A7D18D687DB161
:10245C00012D08D044610826A0E7CE6808369DE718
:10246C00CE680C369AE70461082697E7002695E7B4
:10247C00042693E700F1040C93E7A2F10805AD00E4
:10248C0092E7032400E00024BC4044EA0C0402352B
:10249C002E4F47F825404C6814F4803F39D02F4D0F
:1024AC002C681C432C604C6814F4003F37D02B4D27
:1024BC006C681C436C604C6814F4801F35D0274D3D
:1024CC00AC681C43AC604C6814F4001F33D0234D33
:1024DC00EC682343EB6001320B6833FA02F430D022
:1024EC000124944023409C42F5D14D68122DB7D065
:1024FC0094D8022DB1D07FF64CAF032DB6D0112D50
:10250C007FF44CAFCE68043648E70124BCE70224C4
:10251C00BAE7124D2C6824EA03042C60C3E70F4D74
:10252C006C6824EA03046C60C5E70C4DAC6824EAC3
:10253C000304AC60C7E7094DEC6824EA0303EB60C5
:10254C00C9E702B0F0BC7047001002400000014027
:10255C00000801400000211000003110000401406F
:10256C008368194201D1002070470120704712B9CD
:10257C0009040161704701617047000008B5054B03
:10258C005B69034200D108BD024B5861FEF71AFA91
:10259C00F9E700BF0004014008B590F82130022B88
:1025AC0003D004238363012008BD0268136823F061
:1025BC000E0313600268136823F0010313600368B1
:1025CC00194A934214D0143293421FD014329342BE
:1025DC001ED0143293421ED0143293421ED01432A9
:1025EC00934202D04FF0807203E04FF4801200E06F
:1025FC0001220E4B5A60012380F82130002380F811
:10260C002030436B6BB198470020CDE71022F0E7E8
:10261C004FF48072EDE74FF48052EAE74FF48032CA
:10262C00E7E70020C0E700BF0800024000000240BE
:10263C00074AD36823F4E0631B041B0C000200F46C
:10264C00E060184340F0BF6040F40030D060704749
:10265C0000ED00E030B4174BDB68C3F30223C3F189
:10266C000704042C28BF04241D1D062D18D9033B78
:10267C004FF0FF3505FA04F421EA0401994005FAFC
:10268C0003F322EA0303194300280BDB0901C9B247
:10269C0000F1604000F5614080F8001330BC7047D9
:1026AC000023E5E700F00F000901C9B2024B1954F1
:1026BC00F4E700BF00ED00E014ED00E0002807DBBC
:1026CC0000F01F02400901239340024A42F82030D7
:1026DC00704700BF00E100E00138B0F1807F0AD202
:1026EC00064B5860064AF02182F8231000209860AF
:1026FC0007221A6070470120704700BF10E000E00D
:10270C0000ED00E00F4B1A6842F001021A605968A4
:10271C000D4A0A405A601A6822F0847222F4803200
:10272C001A601A6822F480221A605A6822F4FE0297
:10273C005A604FF41F029A60044B4FF000629A608B
:10274C00704700BF001002400000FFF800ED00E0F1
:10275C0008B5034B1B7803B108BDFFF7D1FAFBE7B3
:10276C004404002008B5FFF7CBFA08BD08B5034BAD
:10277C001B780146184607F08CFF08BD100000209E
:10278C0008B5044B1B780A460146184607F036FF7D
:10279C0008BD00BF1000002008B5034B1B78014694
:1027AC00184607F076FF08BD1100002008B5044B51
:1027BC001B780A460146184607F020FF08BD00BFEB
:1027CC001100002008B508F04CFB08BD08B508F056
:1027DC0021FB08BD10B51C461346224607F02BFF03
:1027EC0010BD70B588B004460D461646197868467B
:1027FC0004F0B9FF33466A462946204607F01BFF12
:10280C0008B070BD38B50546002404E00520FFF77C
:10281C0077FA0134A4B2AC42F8D338BD08B50146FE
:10282C00024B187808F0DDF808BD00BF88040020C2
:10283C0008B50A460146024B187808F087F808BD1F
:10284C008804002008B5FFF75BFA08BD08B50146FF
:10285C004A2008F0C2F908BD08B50A4601464A20CC
:10286C0008F0EFF908BD08B5082809D8DFE800F032
:10287C00050505050D0D0D0D09005220FFF780FF14
:10288C0008BD5720FFF77CFFFAE75D20FFF778FFC4
:10289C00F6E7F8B505460C4617465320FFF766FFDA
:1028AC0000F03F065E20FFF761FF00F03F0104F0EF
:1028BC003F04082D0ED8DFE805F0050E19242F373C
:1028CC00424D580031465320FFF75AFF2146532002
:1028DC00FFF756FFF8BD46F040015320FFF750FFBD
:1028EC0044F040015320FFF74BFFF3E746F0800123
:1028FC005320FFF745FF44F080015320FFF740FFC2
:10290C00E8E746F0C0015320FFF73AFF44F0C0015E
:10291C005320FFF735FFDDE75E20FFF731FF21463F
:10292C005E20FFF72DFFD5E741F040015E20FFF759
:10293C0027FF44F040015E20FFF722FFCAE741F079
:10294C0080015E20FFF71CFF44F080015E20FFF742
:10295C0017FFBFE741F0C0015E20FFF711FF44F005
:10296C00C0015E20FFF70CFFB4E721465820FFF7AB
:10297C0007FF07F01F015920FFF702FFAAE738B540
:10298C00CDB2090A090101F07001D4B2C2F30222DE
:10299C00082812D8DFE800F0050505051F1F1F1FCA
:1029AC00120011435420FFF7EBFE29465520FFF788
:1029BC00E7FE21465620FFF7E3FE38BD11435A20AF
:1029CC00FFF7DEFE29465B20FFF7DAFE21465C208E
:1029DC00FFF7D6FEF1E711435F20FFF7D1FE294642
:1029EC006020FFF7CDFE21466120FFF7C9FEE4E72A
:1029FC0070B506460C4614F8015B1021FD20FFF75C
:102A0C00BFFE3146FE20FFF7BBFE044B1878234671
:102A1C002A46FF21FFF7DEFE70BD00BF100000202C
:102A2C0070B582B0064602AC04F8012D0D78702109
:102A3C00FD20FFF7A5FE3146FE20FFF7A1FE044B5B
:102A4C00187823462A46FF21FFF7CBFE02B070BD53
:102A5C001000002038B504460D465320FFF786FEC3
:102A6C0000F03F01A40164B22143C9B25320FFF727
:102A7C0087FE5E20FFF77AFE00F03F0044EA00017B
:102A8C00C9B25E20FFF77CFE5120FFF76FFE15F0F8
:102A9C00080F01D100F0F70020F0070149B205F052
:102AAC000F052943C9B25120FFF76AFE38BD10B596
:102ABC0004465120FFF75AFE2CB900F0F7015120C3
:102ACC00FFF75EFE10BD40F00801C9B2F7E710B584
:102ADC0004466920FFF74AFE00F00F0141EA041199
:102AEC00C9B26920FFF74CFE00215820FFF748FEC1
:102AFC0010BD0000142860D8DFE800F00B0F13178E
:102B0C001B1F23272B2F33373B3F43474B4F535729
:102B1C005B002C4B2C4A1A6070472A4B2B4A1A60CC
:102B2C007047284B2A4A1A607047264B294A1A606C
:102B3C007047244B284A1A607047224B274A1A6068
:102B4C007047204B264A1A6070471E4B254A1A6064
:102B5C0070471C4B244A1A6070471A4B234A1A6060
:102B6C007047184B1A4A1A607047164B204A1A6065
:102B7C007047144B1F4A1A607047124B1E4A1A605A
:102B8C007047104B1D4A1A6070470E4B1C4A1A6056
:102B9C0070470C4B1B4A1A6070470A4B1A4A1A6052
:102BAC007047084B194A1A607047064B184A1A604E
:102BBC007047044B174A1A607047024B154A1A604B
:102BCC00704700BF48040020DC770108F477010847
:102BDC00E877010800780108B877010864770108E4
:102BEC00C4770108D07701080C7801083477010804
:102BFC004C7701087077010858770108887701082D
:102C0C00407701087C770108A077010894770108C8
:102C1C00AC770108387801082DE9F047054688465D
:102C2C001746B64A1278C2F3400602F0010453BBB1
:102C3C00B34B1B78012B21D04FF025094FF0F40A30
:102C4C00002D40F0BB81002E40F07E81002C40F026
:102C5C0094810820FFF73BFFA84B1B78032B00F057
:102C6C006F82002E00F07F82A64B1B78002B40F069
:102C7C00758204212846FFF7EDFE68E24FF03D090E
:102C8C004FF0B40ADCE71A46012B1ED0022B2AD0D7
:102C9C00032B36D0102B42D0202B7DD0402B00F0B4
:102CAC00B880502B00F0D280303B0F2B00F21E81ED
:102CBC00002840F0ED80924B1B78012B00F0E38054
:102CCC004FF025094FF0F40ABAE78D4B1B78012B16
:102CDC0004D04FF025094FF0F40AB1E74FF03D094D
:102CEC004FF0B40AACE7864B1B78012B04D04FF0A5
:102CFC0025094FF0F40AA3E74FF03D094FF0B40A51
:102D0C009EE77F4B1B78012B04D04FF025094FF029
:102D1C00F40A95E74FF03D094FF0B40A90E768B913
:102D2C00774B1B78012B04D04FF025094FF0F40A98
:102D3C0086E74FF03D094FF0B40A81E701280AD02D
:102D4C00022816D06E4B1B78012B20D040F2911923
:102D5C0040F2763A74E76A4B1B78012B04D04FF0A3
:102D6C00250940F2763A6BE74FF03D0940F2744A80
:102D7C0066E7634B1B78012B04D040F291194FF09E
:102D8C00F40A5DE740F25B294FF0B40A58E740F2D1
:102D9C005B2940F2744A53E768B9594B1B78012BF5
:102DAC0004D04FF025094FF0F40A49E74FF03D09E4
:102DBC004FF0B40A44E701280AD0022816D0504B31
:102DCC001B78012B20D04FF0250940F2B64A37E78B
:102DDC004B4B1B78012B04D04FF0250940F2362ABF
:102DEC002EE74FF03D094FF4267A29E7444B1B7828
:102DFC00012B04D040F2911940F2362A20E740F220
:102E0C005B294FF4267A1BE74FF03D094FF4CB6A50
:102E1C0016E768B93A4B1B78012B04D04FF0250903
:102E2C004FF0F40A0CE74FF03D094FF0B40A07E7F6
:102E3C00334B1B78012B04D04FF0250940F2763A26
:102E4C00FEE64FF03D0940F2744AF9E668B92C4BA6
:102E5C001B78012B04D04FF025094FF0F40AEFE654
:102E6C004FF03D094FF0B40AEAE6254B1B78012BD5
:102E7C0004D040F291194FF0F40AE1E640F25B29DC
:102E8C004FF0B40ADCE64FF03D094FF0B40AD7E638
:102E9C0001280AD0022816D0194B1B78012B20D000
:102EAC004FF4027940F24A4ACAE6154B1B78012BC3
:102EBC0004D04FF0250940F24A4AC1E64FF03D09D3
:102ECC0040F2B45ABCE60E4B1B78012B04D04FF4E5
:102EDC008C7940F24A4AB3E64FF4D37940F2B45AB3
:102EEC00AEE640F20F3940F2B45AA9E6602A0BD094
:102EFC004FF040094FF0E00AA2E600BFEF000020BF
:102F0C00600600204C04002068B9A44B1B78012BF0
:102F1C0004D04FF025094FF0F40A91E64FF03D092B
:102F2C004FF0B40A8CE601287FF48AAE9B4B1B78D9
:102F3C00012B04D040F2052940F24A4A80E640F2C7
:102F4C000D3940F2B45A7BE6012298F800100020AB
:102F5C00FFF79FFC00210846FFF785FC4146002047
:102F6C00FFF746FD072241460020FFF759FD4A4670
:102F7C0051460020FFF703FD68E601223978042052
:102F8C00FFF787FC40210420FFF76DFC39464020F9
:102F9C00FFF72EFD072239464020FFF741FD804BFD
:102FAC001A7802EB8202930009EB030292B21432FC
:102FBC0092B251460420FFF7E2FC4AE6012D2AD0DA
:102FCC00022D66D0032D7FF444AE002E40F09F807E
:102FDC00002C3FF43EAE012239780720FFF759FC54
:102FEC0070210720FFF73FFC39467020FFF700FDEA
:102FFC00072239467020FFF713FD694B1B7803EB52
:10300C0083039A004A4492B2143292B2514607207A
:10301C00FFF7B5FC1DE61EBB002C3FF41AAE0122D7
:10302C0039780520FFF735FC50210520FFF71BFCF4
:10303C0039465020FFF7DCFC072239465020FFF7B9
:10304C00EFFC574B1A7802EB8202930009EB030258
:10305C0092B2143292B251460520FFF790FCF8E57B
:10306C00012298F800101046FFF713FC10210120E4
:10307C00FFF7F9FB41461020FFF7BAFC0722414647
:10308C001020FFF7CDFC4A4651460120FFF777FC94
:10309C00C2E71EBB002C3FF4DCAD012239780620C0
:1030AC00FFF7F7FB60210620FFF7DDFB39466020B8
:1030BC00FFF79EFC072239466020FFF7B1FC384B26
:1030CC001A7802EB8202930009EB030292B21432DB
:1030DC0092B251460620FFF752FCBAE5012298F84D
:1030EC0000100220FFF7D5FB20210120FFF7BBFBCE
:1030FC0041462020FFF77CFC072241462020FFF7A9
:10310C008FFC4A4651460220FFF739FCC2E70122E8
:10311C0098F800100320FFF7BCFB30210320FFF7C9
:10312C00A2FB41463020FFF763FC072241463020CA
:10313C00FFF776FC4A4651460320FFF720FC47E791
:10314C00184B1B782BB905212846FFF783FCBDE8EB
:10315C00F08707212846FFF77DFCF8E70221284677
:10316C00FFF778FCF3E764B10E4B1B7823B9012110
:10317C002846FFF76FFCEAE702212846FFF76AFCB6
:10318C00E5E7084B1B7823B102212846FFF762FCC8
:10319C00DDE700212846FFF75DFCD8E7600600203C
:1031AC004D0400204C04002070B586B005460E4638
:1031BC0014462A4B1A5C012C0BD0022C2DD0032C5C
:1031CC002FD0002A3CD0012A3CD0022A2DD0244BEF
:1031DC0002E001282BD0234B23490978914233D0AC
:1031EC0093E803000490ADF81410090C8DF8161038
:1031FC003046FFF77FFC1D4B1A6801AB1068516815
:10320C0003C31189927A19809A70234601AA04A9E2
:10321C002846FFF701FD06B070BD02280AD0114BFD
:10322C00DAE7032809D00F4BD6E7114BD4E700227D
:10323C000C4BD1E700220E4BCEE70022084BCBE71C
:10324C000C4BC9E7074BC7E793E803000490ADF8B4
:10325C0014106C238DF81630CAE700BF50060020FE
:10326C003078010820780108D9010020480400209A
:10327C00287801081878010830B587B00D46144637
:10328C00024638B1012827D0022801D0184B02E0A1
:10329C00184B00E0184B1949097891421ED093E85D
:1032AC0003000490ADF81410090C8DF81610284684
:1032BC00FFF720FC124B1A6801AB1068516803C36E
:1032CC001189927A19809A70234601AA04A90020C8
:1032DC00FFF7A2FC07B030BD0A4BDCE793E8030014
:1032EC000490ADF814106C238DF81630DFE700BF96
:1032FC00307801082878010818780108D9010020D5
:10330C00480400202078010870B5F0B10446532021
:10331C00FFF72CFA00F03F065E20FFF727FA00F0CB
:10332C003F05012C1CD0022C25D0032C2ED0512073
:10333C00FFF71CFA00F008011C4B1B788BB341F013
:10334C0002015120FFF71CFA09E001220021084676
:10335C00FFF79FFA012200210420FFF79AFA70BDB3
:10336C0046F040015320FFF70BFA45F040015E2078
:10337C00FFF706FADBE746F080015320FFF700FA6F
:10338C0045F080015E20FFF7FBF9D0E746F0C00165
:10339C005320FFF7F5F945F0C0015E20FFF7F0F977
:1033AC00C5E75120FFF7ECF9D9E700BF4C0400202A
:1033BC0008B50320FFF7A8FF08BD10B5022404E0F0
:1033CC002046FFF7A1FF0134E4B2032CF8D910BD5D
:1033DC0010B5012404E02046FFF796FF0134E4B257
:1033EC00032CF8D910BD10B5002404E02046FFF7DB
:1033FC008BFF0134E4B2032CF8D910BD10B5C0B06A
:10340C0014468DF800008DF8011019460DF10200DC
:10341C0004F09EF9044B1878A21C6B46D2B2FD2125
:10342C00FFF7D8F940B010BD100000203F2805D898
:10343C0070B54500EDB20E46002413E07047A200B3
:10344C00A318590089B2224493009BB2C1F3032004
:10345C003344142201F0FE0140F02000FFF7CEFFB0
:10346C000134A4B2ABB2A342E9D870BD38B505465D
:10347C000C46A1B101291BD140B900211020FFF746
:10348C007FF90A219C20FFF77BF911E00121102024
:10349C00FFF776F90A219C20FFF772F908E098B142
:1034AC0081211020FFF76CF900219C20FFF768F9AF
:1034BC00224620210948FFF75AF823462A46084994
:1034CC00012003F0BDFD38BD80211020FFF758F915
:1034DC0000219C20FFF754F9EAE700BF00080140E7
:1034EC004478010808B501212620FFF7A1F908BD91
:1034FC0010B50446F520FFF791F9074B195D014013
:10350C00F520FFF795F93520FFF788F900F0DF017A
:10351C003520FFF78DF910BD307B010810B504463E
:10352C00F520FFF77BF9084B195D0143C9B2F52073
:10353C00FFF77EF93520FFF771F940F02001C9B291
:10354C003520FFF775F910BD387B010808B5C0218F
:10355C000720FFF76DF91420FFF760F900F09F01C9
:10356C001420FFF765F900211320FFF761F90421FE
:10357C002620FFF75DF9B2210620FFF759F908BDA7
:10358C0008B5242806D0252807D0262808D0FFF710
:10359C00A9FF08BDFFF7A6FFFBE7FFF7D7FFF8E78A
:1035AC00FFF7D4FFF5E710B5044603E06178FFF7A9
:1035BC003FF902342078FF28F8D13220FFF722F9A6
:1035CC0010BD38B504460D4604E015F8011BFFF795
:1035DC002FF901342078FF28F7D13220FFF712F9A8
:1035EC0038BD08B501464020FFF722F908BD0000A0
:1035FC0070B50646964B1B5C262B00F2F380DFE879
:10360C0013F0700082002700680094009D00F10008
:10361C00F100AF00A600F100F10079008B00F10081
:10362C00F100F100F100F100F100F100F100F10006
:10363C00F100F100F100F100F100F100F100F100F6
:10364C00F100B800C000C800D000D800E000E800CD
:10365C000124804B1C70804804F08EF825467F486E
:10366C0004F0FEF87E4804EB440399000144FFF794
:10367C00A8FF7C4B1B78262B00F0B780252B00F085
:10368C00BC80242B00F0C180764B1B782F2B00F0D4
:10369C00C580744B1B78272B00F0CB80012D00F0DC
:1036AC00D3803046FFF73AFF00211320FFF7C0F814
:1036BC001420FFF7B3F800F09F011420FFF7B8F8BF
:1036CC000220FFF7ABF800F07F010220FFF7B0F803
:1036DC0070BD01255F4B1D70634804F04DF802244A
:1036EC00BDE75C4B00221A70604804F045F80125D8
:1036FC000324B4E7574B00221A705D4804F03CF8E1
:10370C0002250B24ABE7534B00221A70594804F0E6
:10371C0033F801250424A2E74E4B00221A705648B8
:10372C0004F02AF802250C2499E74A4B00221A705F
:10373C00524804F021F80125052490E7454B00225E
:10374C001A704F4804F018F80125062487E7414BFE
:10375C0003221A704B4804F00FF8042508247EE766
:10376C003C4B02221A70484804F006F80325072443
:10377C0075E70125374B1D70444803F0FDFF092404
:10378C006DE70125334B1D70414803F0F5FF0A240A
:10379C0065E701252F4B1D703E4803F0EDFF0D240E
:1037AC005DE701252B4B1D703B4803F0E5FF0E2414
:1037BC0055E70125274B1D70384803F0DDFF0F241A
:1037CC004DE70125234B1D70354803F0D5FF102420
:1037DC0045E7204B00221A70324803F0CDFF01253B
:1037EC0011243CE701252C4639E72F4805EBC5038E
:1037FC0059000144FFF7E5FE46E72C48C5EBC5032D
:10380C0059000144FFF7DDFE3EE7294805EB450171
:10381C0005EB81010144FFF7D4FE35E7254804F0A0
:10382C001FF8254805EB850399000144FFF7C9FEF5
:10383C002FE7224804F014F8214805EB8503990082
:10384C000144FFF7BEFE29E73046FFF751FE2BE798
:10385C007C04002032040020407B0108CC7B010852
:10386C00007C010891040020487B0108507B010872
:10387C00587B0108647B01086C7B0108787B01088C
:10388C00807B0108887B01088C7B0108947B0108F4
:10389C009C7B0108A47B0108AC7B0108B47B01086C
:1038AC00BC7B0108C47B0108C4800108707F01083F
:1038BC00EC7F0108D47B0108D07E0108E87B01086D
:1038CC00B47D010810B5274B1B5C023B0B2B46D873
:1038DC00DFE803F00A0845454545454545450C06D6
:1038EC00022404E0042402E0032400E00124FFF796
:1038FC007FFE1D4B1B78262B13D0A3F12402D2B2D2
:10390C00012A16D92F2B1AD0272B20D01420FEF7E2
:10391C0085FF40F04001C9B21420FEF789FF204614
:10392C0010BD124804EB840359000144FFF749FE13
:10393C00ECE70F4800EBC401FFF743FEE6E70D4848
:10394C0004EB440399000144FFF73BFEDEE70A4811
:10395C0004EB440399000144FFF733FED6E700243F
:10396C00DDE700BF7C040020910400204C8001089E
:10397C00487F0108307E0108147D010810B5264BE4
:10398C001B5C023B0B2B45D8DFE803F00A084444D0
:10399C004444444444440C06022404E0042402E05D
:1039AC00032400E00124FFF723FE1C4B1B78262B7D
:1039BC000ED0A3F12402D2B2012A12D92F2B19D086
:1039CC00272B1FD040211320FEF732FF204610BDBD
:1039DC00134804EB440104EB81010144FFF7F1FDB2
:1039EC00F0E70F4804EB440104EB81010144FFF7BD
:1039FC00E8FDE7E70B4804EB840399000144FFF76B
:103A0C00E0FDDFE7084804EB840399000144FFF76D
:103A1C00D8FDD7E70024D9E77C04002091040020CE
:103A2C00808001086C7E0108507D010838B5054680
:103A3C0002212F20FEF7FCFE0420FEF7EFFE0446C9
:103A4C000420FEF7EBFE04440420FEF7E7FE0444DA
:103A5C000420FEF7E3FE0444640804F4FC742A46D4
:103A6C0021460B4803F088FE04F0F8010820FEF70D
:103A7C00DFFE0620FEF7D2FE00F0F900E10901F0AE
:103A8C000201014341F004010620FEF7D1FE38BDCE
:103A9C00E07A010808B500212F20FEF7C9FE0420AA
:103AAC00FEF7BCFE08BDF8B5064606212F20FEF732
:103ABC00BFFE0420FEF7B2FEB04243D204461E27DE
:103ACC0017E045F080010720FEF7B2FED5B30820C1
:103ADC00FEF798FE06212F20FEF7AAFE0420FEF723
:103AEC009DFE0446731C984214DCA31B0133022B6D
:103AFC0028D93FB3013FFFB20720FEF78FFE00F03D
:103B0C003F05B442DDD0002DDBD0013DEDB20134D8
:103B1C00E4B2F6E70720FEF781FE00F03F00841CBC
:103B2C003F2C00D93F2444F080010720FEF780FE93
:103B3C003F2C07D00820FEF765FE0420FEF76EFE32
:103B4C000446D2E7F8BD0000F0B583B000240CB1F8
:103B5C0003B0F0BD2046FFF744FD0120FEF75EFEEA
:103B6C0010F0800F2AD12546904B1B5D083BDBB231
:103B7C00012B4DD98E4B60221A708D4B1B788343D1
:103B8C004AD08C4B5B5D002B69D0022B72D08A4AD9
:103B9C00525DFF2A02D0013287494A55032B74D05B
:103BAC002546844B1B5D012B00F08680814B5B5DB1
:103BBC00022B00F01D810134E4B2C8E77D4B1B5D84
:103BCC003BB97D4B1B5DFF2BF5D001337A490B556F
:103BDC00F1E70023774A1355774A13550725734BA2
:103BEC001D552146754B1878FFF7CAFC21467448C1
:103BFC0003F0C2FD01200BF037F8724B1D70724BB5
:103C0C001B78012BCCD101210846FFF72FFCC7E70D
:103C1C00674B60221A70B0E7664B5B5D022B0BD0D2
:103C2C0093B9644B01225A55634B00225A552946CD
:103C3C00664803F0A1FDB3E75F4B5B5DFF2BAFD094
:103C4C0001335D4A5355ABE75A4B02225A555A4B36
:103C5C0000225A5529465E4803F08EFDA0E7554BCD
:103C6C0001225A55544B00225A552946594803F003
:103C7C0083FD95E74F4B03225A554F4B00225A5563
:103C8C002946554803F078FD8AE74B4B5B5D022BC8
:103C9C0086D9484B01225A55474B00225A5521468A
:103CAC00464B1878FFF76CFC29464C4803F064FD32
:103CBC0020460AF0D9FF73E70320FEF7AFFD00F0B2
:103CCC000802474B1A6000F00702384B1E5D062AAB
:103CDC0011D0042A1AD0052A51D0022A20D04ABB6E
:103CEC00404B1B68002B4BD0334B5B5D13F0020F2A
:103CFC0046D0262244E03C4B1B68002BE9D02E4BCF
:103D0C001B5D13F0010F34D0092239E0354B1B68D1
:103D1C008BB3294B5B5D13F0020F2ED10C222FE0DD
:103D2C00304B1B6863B3244B5B5D13F0020F27D041
:103D3C00232225E0032A23D92A4B1B680BB93246D0
:103D4C001EE009212F20FEF773FD0420FEF766FD0F
:103D5C00A0F14903DBB20B2B21D9A0F15603DBB246
:103D6C000B2B1ED9A0F17103DBB20E2B1BD93246E3
:103D7C0006E0082204E00C2202E0242200E00D22DE
:103D8C000A4B5B5D93423FF411AF084B5A552946E1
:103D9C00164803F0F1FC2046FFF72AFC06E7202228
:103DAC00EEE72222ECE72522EAE700BF7C040020A4
:103DBC00790400206C0400208C0400209104002065
:103DCC00FC7801081C0000201E0100201479010859
:103DDC0028790108407901085479010870790108A3
:103DEC008004002074040020840400208C790108D5
:103DFC00B74B5B5D002B4BD1B64B00225A55B64BE3
:103E0C001C70B64B5B5D0C3BDBB2012B21D9A4F1D2
:103E1C000A00B34B595DC0B2FEF70AFDB14B1B78DB
:103E2C002F2B25D0B04B595DF720FEF701FDAF4B82
:103E3C00595DFA20FEF7FCFCAD4B1B78AD4A1178AE
:103E4C008B423FF4B8AEAA4B1970AB4803F094FC0C
:103E5C00B1E60320FEF7E2FC10F0080FD7D19F4A21
:103E6C00535D23F0080353552046FFF7C1FBCEE703
:103E7C009D4B595DF820FEF7DBFC9C4B5D5D2946A4
:103E8C00FA20FEF7D5FC2946FB20FEF7D1FCD3E740
:103E9C00012B24D0022B42D0032B65D0062B7DD9CD
:103EAC00132B40F28A80142B00F0AB80152B7FF47F
:103EBC0082AE884B5B5D002B40F05C81894B1B789C
:103ECC00243BDBB2012B3FF676AE844B5B5D13F0EB
:103EDC00200F3FF470AE1620FFF7E5FD6BE6814B2B
:103EEC001B78232B7FF667AE0120FEF797FC064666
:103EFC000146824803F040FC06F06406602E7FF415
:103F0C005AAE2046FFF73AFD00283FF454AE714BF1
:103F1C0002225A5529467A4803F02EFC4BE6714B87
:103F2C001B78232B7FF647AE0120FEF777FC064665
:103F3C000146724803F020FC06F01106102E3FF4E7
:103F4C003AAE644B5B5D022B7FF435AE2046FFF737
:103F5C00B9FC00283FF42FAE5E4B01225A5529467E
:103F6C00684803F009FC26E65E4B1B78232B7FF692
:103F7C0022AE0120FEF752FC064601465F4803F0D4
:103F8C00FBFB16F0010F3FF416AE544B585DFFF7D8
:103F9C002FFB29465C4803F0EFFB0CE65B4E06EB6F
:103FAC0085039A78DA705A789A7016F825205A7028
:103FBC00FFF770FD06F82500FDE5544F07EB85066D
:103FCC00B378F3707378B37017F825307370FFF70C
:103FDC0061FD07F82500F3781B1A0133022B3FF61D
:103FEC00EAADB3781B1A0133022B3FF6E4AD7378BC
:103FFC001B1A0133022B3FF6DEAD354B13225A55FB
:10400C00D9E5FFF747FD0646324B5B5D334F7A5DD2
:10401C0000922A4601463E4803F0AEFB7B5D9A1E99
:10402C00D2B2012A12D9012B37D91A1FD2B2012AC6
:10403C0037D9A3F10C02D2B2012A36D9082B38D0C9
:10404C00092B3AD1334B01225A5502E0314B06224F
:10405C005A55304B5A5D304B1A70304B1B78012B34
:10406C002FD02C4B5A5D2E4B5B5D9A4205D02D4BBD
:10407C001B7829462C4803F07FFB164B5B5D002B0D
:10408C0056D1184B1B78243BDBB2012B63D940F281
:10409C00C961264803F070FB8DE51E4B05225A556D
:1040AC00D7E71C4B05225A55D3E71A4B05225A5514
:1040BC00CFE7184B00225A55CBE7164B14225A5512
:1040CC00C7E740214FF47A7003F050F8C9E700BFFE
:1040DC008C04002054040020500400207C04002098
:1040EC00FC7A010891040020007B0108047B010884
:1040FC009004002032040020A8790108BC79010842
:10410C00CC790108E0790108F479010870040020E9
:10411C00087A0108200000201C0000201E0100204D
:10412C0058060020E8000020347A01088C7A010837
:10413C00B10861F07F01C9B20720FEF779FB114B82
:10414C005B5D012B03D0104803F08AFB33E50F486D
:10415C0003F086FB2FE50E4B5B5D13F0200F96D022
:10416C000321B6FBF1F161F07F01C9B20720FEF724
:10417C005FFB8CE72046FFF759FC0C20FFF793FC04
:10418C0019E500BF54040020807A0108747A0108F4
:10419C007C04002010B54420FEF740FB044640F0A0
:1041AC004001C9B24420FEF743FB04F0BF01442098
:1041BC00FEF73EFB10BD000010B5514B88221A7063
:1041CC00FF20FEF72BFB4F4C2070FD20FEF726FB4B
:1041DC0000F007024C4B1A7021784C4803F0CCFAD3
:1041EC0000234B4A13604B4A13604B4A13602378ED
:1041FC00023B252B6CD8DFE803F0136B136B6B6B56
:10420C006B6B6B6B6B6B6B6B6B6B6B6B6B6B6B6BF2
:10421C006B6B6B6B6B6B6B6B6B6B1330406B475BD4
:10422C003E4803F01DFB3E4CFFF7B4FF2046FFF762
:10423C00BAF9384B1B68002B51D13A4B03221A7038
:10424C005A709A70DA700020FFF7D2F9364B0122BF
:10425C001A700023002B46D010BD01232C4A13608A
:10426C002C4A1360284B1B78012B01D02F4CDBE719
:10427C00244B25221A702E4CD6E70123244A1360B6
:10428C00244A13602B4CCFE70123214A1360214AA7
:10429C0013601D4B1B78012B05D0F3B91E4B01226B
:1042AC001A60254CC0E7174B2F221A70234CBBE722
:1042BC000123174A1360174A1360134B1B78042B06
:1042CC0001D0174CB0E71E4803F0CAFA144CABE708
:1042DC001C4803F0C5FA124CA6E7174CA4E71A4881
:1042EC00FFF761F9A9E700221849CA541849CA54C2
:1042FC001849CA540B4A0721D1540133DBB2A9E740
:10430C00880400209104002089040020A07A010870
:10431C00840400205804002074040020BC7A010896
:10432C00FC7C01087C04002090040020E47C010843
:10433C00347F0108DC7F010830800108187E0108F9
:10434C00C47A0108D47A0108B87F01088C040020D3
:10435C006C0400205404002008B5FE4802F054FE02
:10436C0000210120FEF70CFA00210220FEF708FACA
:10437C0075210320FEF704FA18210420FEF700FA39
:10438C0080210520FEF7FCF920210620FEF7F8F924
:10439C0008210720FEF7F4F921210820FEF7F0F997
:1043AC000A210920FEF7ECF921210A20FEF7E8F991
:1043BC000A210B20FEF7E4F900210C20FEF7E0F9AE
:1043CC0020210D20FEF7DCF910210E20FEF7D8F984
:1043DC0000210F20FEF7D4F981211020FEF7D0F92F
:1043EC0082211120FEF7CCF952211220FEF7C8F9D8
:1043FC004B211320FEF7C4F9CF211420FEF7C0F98E
:10440C0078211520FEF7BCF9FE211620FEF7B8F92D
:10441C0000211720FEF7B4F9C0211820FEF7B0F9DF
:10442C0001211920FEF7ACF936211A20FEF7A8F964
:10443C0030211B20FEF7A4F900211C20FEF7A0F967
:10444C0000211D20FEF79CF920211E20FEF798F973
:10445C0062211F20FEF794F972212020FEF790F9BB
:10446C00EE212120FEF78CF975212220FEF788F928
:10447C00BC212320FEF784F900212420FEF780F9CB
:10448C0022212520FEF77CF9EE212620FEF778F973
:10449C00D0212720FEF774F9F0212820FEF770F9BF
:1044AC0000212920FEF76CF900212A20FEF768F97B
:1044BC0000212B20FEF764F900212C20FEF760F977
:1044CC0000212D20FEF75CF925212E20FEF758F94E
:1044DC0000212F20FEF754F9D0213020FEF750F99F
:1044EC0080213120FEF74CF980213320FEF748F96A
:1044FC00A0213420FEF744F918213520FEF740F9AD
:10450C0046213620FEF73CF964213720FEF738F9B6
:10451C0000213820FEF734F9FF213920FEF730F95D
:10452C0000213A20FEF72CF980213B20FEF728F9D8
:10453C0080213C20FEF724F980213D20FEF720F954
:10454C0080213E20FEF71CF980213F20FEF718F950
:10455C0080214020FEF714F960214120FEF710F96C
:10456C005F214220FEF70CF937214320FEF708F9B2
:10457C0014214420FEF704F905214520FEF700F92B
:10458C0000214620FEF7FCF800214720FEF7F8F842
:10459C0000214820FEF7F4F800214920FEF7F0F83E
:1045AC0020214B20FEF7ECF800214C20FEF7E8F818
:1045BC0000214D20FEF7E4F800214E20FEF7E0F834
:1045CC007F214F20FEF7DCF820215020FEF7D8F891
:1045DC0000215120FEF7D4F800215220FEF7D0F82C
:1045EC0006215320FEF7CCF800215420FEF7C8F822
:1045FC00B4215520FEF7C4F83D215620FEF7C0F833
:10460C0004215720FEF7BCF800215820FEF7B8F81B
:10461C0008215920FEF7B4F810215A20FEF7B0F803
:10462C0000215B20FEF7ACF868215C20FEF7A8F8AF
:10463C0040215D20FEF7A4F80A215E20FEF7A0F8C9
:10464C0000215F20FEF79CF8B4216020FEF798F85B
:10465C0051216120FEF794F833216220FEF790F887
:10466C0001216320FEF78CF8FF216420FEF788F807
:10467C0001216520FEF784F8FF216620FEF780F803
:10468C0089216720FEF77CF8AB216820FEF778F8CB
:10469C0088216920FEF774F86E216A20FEF770F805
:1046AC006E216B20FEF76CF86E216C20FEF768F81B
:1046BC0000216D20FEF764F800216E20FEF760F8F3
:1046CC0000216F20FEF75CF800217020FEF758F8EF
:1046DC0000217120FEF754F800217220FEF750F8EB
:1046EC0000217320FEF74CF800217420FEF748F8E7
:1046FC00FF217520FEF744F8FF217620FEF740F8E5
:10470C00FF217720FEF73CF8FF217820FEF738F8E0
:10471C00FF217920FEF734F8FF217A20FEF730F8DC
:10472C00FF217B20FEF72CF8FF217C20FEF728F8D8
:10473C00F0217D20FEF724F880217E20FEF720F862
:10474C0000217F20FEF71CF800218020FEF718F8CE
:10475C0002E000BF4881010834218120FEF710F8E7
:10476C0040218220FEF70CF805218320FEF708F883
:10477C0057218420FEF704F8FD218520FEF700F870
:10478C0004218620FDF7FCFF24218720FDF7F8FF8C
:10479C0094218820FDF7F4FF58218920FDF7F0FFC4
:1047AC0000218A20FDF7ECFF7E218B20FDF7E8FF2E
:1047BC0003218C20FDF7E4FF2C218D20FDF7E0FF79
:1047CC008C218E20FDF7DCFF00218F20FDF7D8FF18
:1047DC00CC219020FDF7D4FF41219120FDF7D0FF93
:1047EC00C4219220FDF7CCFF62219320FDF7C8FF76
:1047FC0078219420FDF7C4FF00219520FDF7C0FF20
:10480C00EC219620FDF7BCFF50219720FDF7B8FF57
:10481C001A219820FDF7B4FF90219920FDF7B0FFE5
:10482C0009219A20FDF7ACFF04219B20FDF7A8FF7E
:10483C0000219D20FDF7A4FF04219E20FDF7A0FF81
:10484C0065219F20FDF79CFF5521A020FDF798FFC7
:10485C00D821A120FDF794FF9821A220FDF790FF0D
:10486C008721A320FDF78CFF4421A420FDF788FFAE
:10487C005521A520FDF784FF1921A620FDF780FF07
:10488C007021A720FDF77CFF4021A820FDF778FFC1
:10489C001E21A920FDF774FF2E21AA20FDF770FF21
:1048AC000021AB20FDF76CFF8821AC20FDF768FFE1
:1048BC00EC21AD20FDF764FF6521AE20FDF760FF14
:1048CC009921AF20FDF75CFF0021B020FDF758FFC8
:1048DC000021B120FDF754FF0021B220FDF750FF5D
:1048EC000021B320FDF74CFF0021B420FDF748FF59
:1048FC000021B520FDF744FF0021B620FDF740FF55
:10490C008021B820FDF73CFF0021B920FDF738FFCE
:10491C000021BA20FDF734FF0021BB20FDF730FF4A
:10492C009021BC20FDF72CFF0121BD20FDF728FFB5
:10493C00A521BE20FDF724FF0021C020FDF720FF9C
:10494C002021C120FDF71CFF2021C220FDF718FFFC
:10495C002021C320FDF714FF2021C420FDF710FFF8
:10496C002021C520FDF70CFFFF21D020FDF708FF0B
:10497C003F21D120FDF704FFC221D220FDF700FF1B
:10498C003F21D320FDF7FCFE0021D420FDF7F8FEDB
:10499C000021D520FDF7F4FE0021D620FDF7F0FE16
:1049AC001021D720FDF7ECFE0021D820FDF7E8FE02
:1049BC007721DC20FDF7E4FE0121DD20FDF7E0FE90
:1049CC00A521DE20FDF7DCFEE521DF20FDF7D8FE7A
:1049DC000021E020FDF7D4FE0021E120FDF7D0FE00
:1049EC000021E220FDF7CCFE2521E320FDF7C8FED7
:1049FC00D221E420FDF7C4FE0021E520FDF7C0FE26
:104A0C000021E620FDF7BCFE0021E720FDF7B8FEF3
:104A1C000021E820FDF7B4FE0021E920FDF7B0FEEF
:104A2C000021EA20FDF7ACFE0021EB20FDF7A8FEEB
:104A3C008821EC20FDF7A4FE0021ED20FDF7A0FE5F
:104A4C000021EE20FDF79CFE0021EF20FDF798FEE3
:104A5C003521F020FDF794FE4321F120FDF790FE67
:104A6C001F21F220FDF78CFE1F21F320FDF788FE9D
:104A7C002221F420FDF784FE7321F520FDF780FE42
:104A8C005321F620FDF77CFE8021F720FDF778FE00
:104A9C000121F820FDF774FE0121F920FDF770FECD
:104AAC000021FA20FDF76CFE0021FB20FDF768FECB
:104ABC000021FC20FDF764FE7021FD20FDF760FE57
:104ACC004021FE20FDF75CFE0721FF20FDF758FE7C
:104ADC0008BD00BF08B5FE4802F096FA002101207F
:104AEC00FDF74EFE00210220FDF74AFE7521032042
:104AFC00FDF746FE18210420FDF742FE802105201B
:104B0C00FDF73EFE20210620FDF73AFE0C21072082
:104B1C00FDF736FE21210820FDF732FE0A2109207F
:104B2C00FDF72EFE21210A20FDF72AFE0A210B207B
:104B3C00FDF726FE00210C20FDF722FE20210D2082
:104B4C00FDF71EFE10210E20FDF71AFE00210F208E
:104B5C00FDF716FE81211020FDF712FE8221112097
:104B6C00FDF70EFE00211220FDF70AFE0021132096
:104B7C00FDF706FE00211420FDF702FE782115201A
:104B8C00FDF7FEFDFE211620FDF7FAFD0021172092
:104B9C00FDF7F6FDC0211820FDF7F2FD01211920CB
:104BAC00FDF7EEFD36211A20FDF7EAFD30211B2022
:104BBC00FDF7E6FD00211C20FDF7E2FD00211D2084
:104BCC00FDF7DEFD20211E20FDF7DAFD00211F2060
:104BDC00FDF7D6FD00212020FDF7D2FD002121207C
:104BEC00FDF7CEFDA7212220FDF7CAFD5021232081
:104BFC00FDF7C6FD80212420FDF7C2FD44212520B0
:104C0C00FDF7BEFD65212620FDF7BAFD38212720D2
:104C1C00FDF7B6FDF0212820FDF7B2FD002129207B
:104C2C00FDF7AEFD00212A20FDF7AAFD11212B2056
:104C3C00FDF7A6FD00212C20FDF7A2FD00212D2063
:104C4C00FDF79EFD47212E20FDF79AFD80212F2098
:104C5C00FDF796FD38213020FDF792FD80213120A3
:104C6C00FDF78EFD80213320FDF78AFDA021342035
:104C7C00FDF786FD18213520FDF782FD46213620F3
:104C8C00FDF77EFD64213720FDF77AFD00213820E9
:104C9C00FDF776FDFF213920FDF772FD1B213A202F
:104CAC00FDF76EFD80213B20FDF76AFD80213C2045
:104CBC00FDF766FD80213D20FDF762FD80213E2041
:104CCC00FDF75EFD80213F20FDF75AFD802140203D
:104CDC00FDF756FD60214120FDF752FD5F2142207A
:104CEC00FDF74EFD37214320FDF74AFD14214420EA
:104CFC00FDF746FD06214520FDF742FD002146202B
:104D0C00FDF73EFD00214720FDF73AFD002148202C
:104D1C00FDF736FD00214920FDF732FD20214B2007
:104D2C00FDF72EFD00214C20FDF72AFD00214D2022
:104D3C00FDF726FD00214E20FDF722FD7F214F209F
:104D4C00FDF71EFD20215020FDF71AFD20215120DA
:104D5C00FDF716FD00215220FDF712FD0421532012
:104D6C00FDF70EFD00215420FDF70AFDA021552072
:104D7C00FDF706FD40215620FDF702FD04215720CA
:104D8C00FDF7FEFC10215820FDF7FAFC08215920F4
:104D9C00FDF7F6FC10215A20FDF7F2FC00215B20F8
:104DAC00FDF7EEFC68215C20FDF7EAFC84215D2018
:104DBC00FDF7E6FC08215E20FDF7E2FC21215F20D7
:104DCC00FDF7DEFC20216020FDF7DAFCB02161202C
:104DDC00FDF7D6FC33216220FDF7D2FC01216320C4
:104DEC00FDF7CEFCFF216420FDF7CAFC01216520F4
:104DFC00FDF7C6FCFF216620FDF7C2FC8921672068
:104E0C00FDF7BEFCAB216820FDF7BAFC2821692018
:104E1C00FDF7B6FC6E216A20FDF7B2FC6E216B200B
:104E2C00FDF7AEFC6E216C20FDF7AAFC00216D2075
:104E3C00FDF7A6FC00216E20FDF7A2FC00216F20DF
:104E4C00FDF79EFC00217020FDF79AFC00217120DB
:104E5C00FDF796FC00217220FDF792FC00217320D7
:104E6C00FDF78EFC00217420FDF78AFCFF217520D4
:104E7C00FDF786FCFF217620FDF782FCFF217720D1
:104E8C00FDF77EFCFF217820FDF77AFCFF217920CD
:104E9C00FDF776FCFF217A20FDF772FCFF217B20C9
:104EAC00FDF76EFCFF217C20FDF76AFCF0217D20D4
:104EBC00FDF766FC80217E20FDF762FC00217F203F
:104ECC00FDF75EFC00218020FDF75AFC02E000BFDC
:104EDC002081010834218120FDF752FC40218220E1
:104EEC00FDF74EFC05218320FDF74AFC5721842059
:104EFC00FDF746FCFD218520FDF742FC04218620B0
:104F0C00FDF73EFC24218720FDF73AFC94218820F4
:104F1C00FDF736FC58218920FDF732FC00218A2050
:104F2C00FDF72EFC7E218B20FDF72AFC03218C2023
:104F3C00FDF726FC2C218D20FDF722FC8C218E20E8
:104F4C00FDF71EFC00218F20FDF71AFCCC219020D0
:104F5C00FDF716FC41219120FDF712FCC421922093
:104F6C00FDF70EFC84219320FDF70AFC9821942078
:104F7C00FDF706FC80219520FDF702FC65219620AB
:104F8C00FDF7FEFB70219720FDF7FAFB29219820F5
:104F9C00FDF7F6FB90219920FDF7F2FB00219A20FA
:104FAC00FDF7EEFB04219B20FDF7EAFB00219D2081
:104FBC00FDF7E6FB04219E20FDF7E2FB65219F2017
:104FCC00FDF7DEFB8021A020FDF7DAFBD821A12024
:104FDC00FDF7D6FB9821A220FDF7D2FB8721A32059
:104FEC00FDF7CEFB0021A420FDF7CAFB8021A520F4
:104FFC00FDF7C6FB0021A620FDF7C2FB7021A72000
:10500C00FDF7BEFB4021A820FDF7BAFB1E21A9200D
:10501C00FDF7B6FB2C21AA20FDF7B2FB0021AB203B
:10502C00FDF7AEFB9021AC20FDF7AAFB6521AD206E
:10503C00FDF7A6FB6521AE20FDF7A2FB9921AF2061
:10504C00FDF79EFB0021B020FDF79AFB0021B1205B
:10505C00FDF796FB0021B220FDF792FB0021B32057
:10506C00FDF78EFB0021B420FDF78AFB0021B52053
:10507C00FDF786FB0021B620FDF782FB0021B8204E
:10508C00FDF77EFB0021B920FDF77AFB0021BA2049
:10509C00FDF776FB0021BB20FDF772FB9021BC20B5
:1050AC00FDF76EFB0121BD20FDF76AFBA521BE209B
:1050BC00FDF766FB0021C020FDF762FB2021C1201B
:1050CC00FDF75EFB2021C220FDF75AFB2021C320F7
:1050DC00FDF756FB2021C420FDF752FB2021C520F3
:1050EC00FDF74EFBFF21D020FDF74AFB3F21D120DD
:1050FC00FDF746FBC221D220FDF742FB3F21D32016
:10510C00FDF73EFB0021D420FDF73AFB0021D52012
:10511C00FDF736FB0021D620FDF732FB0021D7200E
:10512C00FDF72EFB0021D820FDF72AFB7721DC2090
:10513C00FDF726FB0121DD20FDF722FBA521DE205A
:10514C00FDF71EFBE521DF20FDF71AFB0021E02017
:10515C00FDF716FB0021E120FDF712FB0021E220F8
:10516C00FDF70EFB4721E320FDF70AFB3C21E42071
:10517C00FDF706FB8021E520FDF702FB0021E62070
:10518C00FDF7FEFA0021E720FDF7FAFA0021E820EE
:10519C00FDF7F6FA0021E920FDF7F2FA0021EA20EA
:1051AC00FDF7EEFA0021EB20FDF7EAFA8821EC205E
:1051BC00FDF7E6FA0021ED20FDF7E2FA0021EE20E2
:1051CC00FDF7DEFA0021EF20FDF7DAFA3521F020A9
:1051DC00FDF7D6FA4321F120FDF7D2FA1F21F22078
:1051EC00FDF7CEFA1F21F320FDF7CAFA2221F42095
:1051FC00FDF7C6FA7321F520FDF7C2FA5321F6200C
:10520C00FDF7BEFA8021F720FDF7BAFA0121F8204C
:10521C00FDF7B6FA0121F920FDF7B2FA0021FA20C8
:10522C00FDF7AEFA0021FB20FDF7AAFA0021FC20C5
:10523C00FDF7A6FA0021FD20FDF7A2FA0021FE20C1
:10524C00FDF79EFA0021FF20FDF79AFA08BD00BF7A
:10525C0008B5FE4801F0D8FE00210120FDF790FAB8
:10526C0000210220FDF78CFA75210320FDF788FA46
:10527C0018210420FDF784FA80210520FDF780FA1F
:10528C0020210620FDF77CFA08210720FDF778FA8B
:10529C0021210820FDF774FA0A210920FDF770FA84
:1052AC0021210A20FDF76CFA0A210B20FDF768FA80
:1052BC0000210C20FDF764FA20210D20FDF760FA87
:1052CC0010210E20FDF75CFA00210F20FDF758FA93
:1052DC00A1211020FDF754FA82211120FDF750FA7C
:1052EC0021211220FDF74CFAD0211320FDF748FAAA
:1052FC0020211420FDF744FA78211520FDF740FAFF
:10530C00FE211620FDF73CFA00211720FDF738FA94
:10531C00C0211820FDF734FA01211920FDF730FACD
:10532C0030211A20FDF72CFA04211B20FDF728FA56
:10533C0000211C20FDF724FA00211D20FDF720FA86
:10534C0020211E20FDF71CFA31211F20FDF718FA31
:10535C0060212020FDF714FA39212120FDF710FAE5
:10536C0097212220FDF70CFA37212320FDF708FAAC
:10537C00BC212420FDF704FA10212520FDF700FAAA
:10538C0007212620FDF7FCF9F0212720FDF7F8F97D
:10539C00F0212820FDF7F4F900212920FDF7F0F980
:1053AC0000212A20FDF7ECF900212B20FDF7E8F96C
:1053BC00FF212C20FDF7E4F900212D20FDF7E0F969
:1053CC0007212E20FDF7DCF9BC212F20FDF7D8F9A1
:1053DC00F0213020FDF7D4F980213120FDF7D0F9F0
:1053EC0080213320FDF7CCF9A0213420FDF7C8F93A
:1053FC0018213520FDF7C4F946213620FDF7C0F9F8
:10540C0064213720FDF7BCF900213820FDF7B8F9ED
:10541C00FF213920FDF7B4F900213A20FDF7B0F94E
:10542C0080213B20FDF7ACF980213C20FDF7A8F949
:10543C0080213D20FDF7A4F980213E20FDF7A0F945
:10544C0080213F20FDF79CF980214020FDF798F941
:10545C0060214120FDF794F95F214220FDF790F97E
:10546C0037214320FDF78CF914214420FDF788F9EE
:10547C0005214520FDF784F900214620FDF780F930
:10548C0000214720FDF77CF900214820FDF778F931
:10549C0000214920FDF774F920214B20FDF770F90C
:1054AC0000214C20FDF76CF900214D20FDF768F927
:1054BC0000214E20FDF764F97F214F20FDF760F9A4
:1054CC0020215020FDF75CF900215120FDF758F9FF
:1054DC0000215220FDF754F904215320FDF750F917
:1054EC0000215420FDF74CF9E0215520FDF748F937
:1054FC0040215620FDF744F904215720FDF740F9CF
:10550C0000215820FDF73CF908215920FDF738F906
:10551C0010215A20FDF734F900215B20FDF730F9FA
:10552C0068215C20FDF72CF940215D20FDF728F95E
:10553C0008215E20FDF724F900215F20FDF720F9FA
:10554C00E0216020FDF71CF954216120FDF718F9CA
:10555C0033216220FDF714F901216320FDF710F9C6
:10556C00FF216420FDF70CF901216520FDF708F9F6
:10557C00FF216620FDF704F989216720FDF700F96A
:10558C00AB216820FDF7FCF888216920FDF7F8F8BD
:10559C006E216A20FDF7F4F86E216B20FDF7F0F810
:1055AC006E216C20FDF7ECF800216D20FDF7E8F87A
:1055BC0000216E20FDF7E4F800216F20FDF7E0F8E4
:1055CC0000217020FDF7DCF800217120FDF7D8F8E0
:1055DC0000217220FDF7D4F800217320FDF7D0F8DC
:1055EC0000217420FDF7CCF8FF217520FDF7C8F8D9
:1055FC00FF217620FDF7C4F8FF217720FDF7C0F8D6
:10560C00FF217820FDF7BCF8FF217920FDF7B8F8D1
:10561C00FF217A20FDF7B4F8FF217B20FDF7B0F8CD
:10562C00FF217C20FDF7ACF8F0217D20FDF7A8F8D8
:10563C0080217E20FDF7A4F800217F20FDF7A0F843
:10564C0000218020FDF79CF802E000BF6C8101086E
:10565C0034218120FDF794F840218220FDF790F849
:10566C0005218320FDF78CF857218420FDF788F85D
:10567C00FC218520FDF784F804218620FDF780F8B5
:10568C0024218720FDF77CF894218820FDF778F8F9
:10569C0058218920FDF774F800218A20FDF770F855
:1056AC007E218B20FDF76CF803218C20FDF768F828
:1056BC002C218D20FDF764F88C218E20FDF760F8ED
:1056CC0000218F20FDF75CF8CC219020FDF758F8D5
:1056DC0041219120FDF754F8C4219220FDF750F898
:1056EC0091219320FDF74CF8DA219420FDF748F82E
:1056FC00BC219520FDF744F8EB219620FDF740F8EE
:10570C0070219720FDF73CF810219820FDF738F810
:10571C0090219920FDF734F809219A20FDF730F8F3
:10572C0004219B20FDF72CF800219D20FDF728F883
:10573C0004219E20FDF724F865219F20FDF720F819
:10574C000221A020FDF71CF8D621A120FDF718F8A6
:10575C009821A220FDF714F88721A320FDF710F85B
:10576C00D421A420FDF70CF83721A520FDF708F86B
:10577C00ED21A620FDF704F85421A720FDF700F831
:10578C004021A820FCF7FCFF1E21A920FCF7F8FF04
:10579C002E21AA20FCF7F4FF0021AB20FCF7F0FF30
:1057AC008421AC20FCF7ECFFEB21AD20FCF7E8FFEB
:1057BC006521AE20FCF7E4FF9921AF20FCF7E0FF58
:1057CC000021B020FCF7DCFF0021B120FCF7D8FF52
:1057DC000021B220FCF7D4FF0021B320FCF7D0FF4E
:1057EC000021B420FCF7CCFF0021B520FCF7C8FF4A
:1057FC000021B620FCF7C4FF0021B820FCF7C0FF45
:10580C000021B920FCF7BCFF0121BA20FCF7B8FF3E
:10581C000021BB20FCF7B4FF9021BC20FCF7B0FFAB
:10582C000121BD20FCF7ACFF2C21BE20FCF7A8FF0A
:10583C000021C020FCF7A4FF2021C120FCF7A0FF11
:10584C002021C220FCF79CFF2021C320FCF798FFED
:10585C002021C420FCF794FF2021C520FCF790FFE9
:10586C00FF21D020FCF78CFF3F21D120FCF788FFD3
:10587C00C221D220FCF784FF3F21D320FCF780FF0C
:10588C000021D420FCF77CFF0021D520FCF778FF09
:10589C000021D620FCF774FF1021D720FCF770FFF5
:1058AC000021D820FCF76CFF7721DC20FCF768FF87
:1058BC000021DD20FCF764FFAF21DE20FCF760FF48
:1058CC00A121DF20FCF75CFF0021E020FCF758FF52
:1058DC000021E120FCF754FF0021E220FCF750FFEF
:1058EC001721E320FCF74CFFDB21E420FCF748FFF9
:1058FC00BC21E520FCF744FF0021E620FCF740FF2B
:10590C000021E720FCF73CFF0021E820FCF738FFE2
:10591C000021E920FCF734FF0021EA20FCF730FFDE
:10592C000021EB20FCF72CFF8821EC20FCF728FF52
:10593C000021ED20FCF724FF0021EE20FCF720FFD6
:10594C000021EF20FCF71CFF3121F020FCF718FFA1
:10595C004321F120FCF714FF1F21F220FCF710FF6C
:10596C001F21F320FCF70CFF2221F420FCF708FF89
:10597C007321F520FCF704FF5321F620FCF700FF00
:10598C008021F720FCF7FCFE0121F820FCF7F8FE43
:10599C000121F920FCF7F4FE0021FA20FCF7F0FEBF
:1059AC000021FB20FCF7ECFE0021FC20FCF7E8FEBC
:1059BC007021FD20FCF7E4FE4021FE20FCF7E0FE08
:1059CC000721FF20FCF7DCFE08BD00BF08B5FE4830
:1059DC0001F01AFB00210120FCF7D2FE002102206D
:1059EC00FCF7CEFE75210320FCF7CAFE182104201B
:1059FC00FCF7C6FE80210520FCF7C2FE2021062004
:105A0C00FCF7BEFE08210720FCF7BAFE2121082076
:105A1C00FCF7B6FE0A210920FCF7B2FE21210A2070
:105A2C00FCF7AEFE09210B20FCF7AAFE00210C208E
:105A3C00FCF7A6FE20210D20FCF7A2FE10210E2063
:105A4C00FCF79EFE00210F20FCF79AFEA1211020EE
:105A5C00FCF796FE82211120FCF792FE21211220E8
:105A6C00FCF78EFED0211320FCF78AFE2021142097
:105A7C00FCF786FE78211520FCF782FEF821162013
:105A8C00FCF77EFE01211720FCF77AFEC0211820BE
:105A9C00FCF776FE01211920FCF772FE30211A204A
:105AAC00FCF76EFE04211B20FCF76AFE00211C2073
:105ABC00FCF766FE00211D20FCF762FE20211E2053
:105ACC00FCF75EFE31211F20FCF75AFE60212020DE
