:020000040800F2
:1000000000500020598500088D1700088F17000840
:1000100091170008931700089517000800000000CA
:10002000000000000000000000000000971700081A
:1000300099170008000000009B1700089D17000892
:10004000A1850008A1850008A1850008A1850008F8
:10005000A1850008A1850008A1850008A1850008E8
:10006000A5170008A1850008A1850008A185000842
:10007000A1850008A1850008A1850008A1850008C8
:10008000A1850008A1850008A1850008A1850008B8
:10009000A1850008A1850008A1850008A1850008A8
:1000A000A1850008A1850008A1850008A185000898
:1000B000A1850008B1170008A1850008A1850008E6
:1000C000A1850008A1850008A1850008A185000878
:1000D000A1850008C1170008D1170008A1850008F4
:1000E000A1850008A1850008A18500080000000086
:1000F0000000000000000000000000000000000000
:0C01000000000000000000005FF808F1A3
:10010C0010B5054C237833B9044B13B10448AFF345
:10011C0000800123237010BDF400002000000000BB
:10012C006C22010808B5034B1BB103490348AFF31C
:10013C00008008BD00000000F80000206C220108BF
:10014C00002902D0B0FBF1F0704708B14FF0FF303E
:10015C0000F01EB80029F8D00246B0FBF1F000FB0D
:10016C0011217047002902D090FBF1F07047002854
:10017C00C8BF6FF00040B8BF4FF0004000F008B8A7
:10018C000029F4D0024690FBF1F000FB11217047DE
:10019C00704700BFF0B589B000250495059506950C
:1001AC0007952E4B9A6942F004029A619A6902F003
:1001BC0004020092009A9A6942F008029A619A69C4
:1001CC0002F008020192019A9A6942F010029A61B7
:1001DC009A6902F010020292029A9A6942F0200285
:1001EC009A619B6903F020030393039B1C4F01222C
:1001FC004FF48051384602F00EFE20230493012464
:10020C00059406940226079604A9384602F010FDC0
:10021C0010230493059506940DEB0301384602F068
:10022C0007FD4FF4E053049305940694079604A934
:10023C000C4802F0FDFC04960594069407960A4EB1
:10024C0004A9304602F0F4FC492304930595069466
:10025C0004A9304602F0ECFC09B0F0BD00100240DD
:10026C0000080140000C01400010014030B587B07F
:10027C0000240294039404940594009401940E4D6C
:10028C000E4B2B6023236B60AC600923EB602C615D
:10029C008023AB61284601F019FD4FF48053029383
:1002AC0002A9284601F0D7FD00940194694628461E
:1002BC0001F06CFE07B030BD0003002000040040CC
:1002CC0008B50848084B03604FF4E1334360002342
:1002DC008360C36003610C2242618361C36101F0DE
:1002EC0054FF08BD700300200038014008B50848D1
:1002FC00084B03604FF41643436000238360C360D4
:10030C0003610C2242618361C36101F03EFF08BDB1
:10031C00F40300200044004000B583B000238DF8A6
:10032C0007300DF106010DF1070011F083FF0E4BA4
:10033C001B78042B03D00D4A1278934208D00B4B38
:10034C001B789DF807100A4AD15403B05DF804FBE2
:10035C00084B1B789DF807008342F0D0054B1870B2
:10036C0009F05EFCEBE700BF380100205D070020C0
:10037C0030010020F901002010B50138012809D8FE
:10038C0014464FF47A7392B2074801F02DFF40B136
:10039C00002010BD08F000F9092303604FF0FF3076
:1003AC00F7E72046F5E700BF7003002038B55B4B3C
:1003BC001870042820D8DFE800F02044688C030073
:1003CC00574D01224021284602F025FD554C0122B3
:1003DC002021204602F01FFD01221021204602F0B0
:1003EC001AFD01220821204602F015FD01224FF4CE
:1003FC000041284602F00FFD38BD494D0122402135
:10040C00284602F008FD474C00222021204602F02D
:10041C0002FD01221021204602F0FDFC01220821E0
:10042C00204602F0F8FC01224FF40041284602F06D
:10043C00F2FC3D4C207809F0F3FB22783B4B1A7010
:10044C00DAE7374D01224021284602F0E4FC354C16
:10045C0001222021204602F0DEFC00221021204641
:10046C0002F0D9FC01220821204602F0D4FC012222
:10047C004FF40041284602F0CEFC2B4C607809F07A
:10048C00CFFB6278294B1A70B6E7254D002240212C
:10049C00284602F0C0FC234C01222021204602F009
:1004AC00BAFC01221021204602F0B5FC00220821E2
:1004BC00204602F0B0FC01224FF40041284602F025
:1004CC00AAFC194CA07809F0ABFBA278174B1A7058
:1004DC0092E7134D00224021284602F09CFC114C5F
:1004EC0001222021204602F096FC012210212046F8
:1004FC0002F091FC01220821204602F08CFC002223
:10050C004FF40041284602F086FC074CE07809F0D5
:10051C0087FBE278054B1A706EE700BF38010020AC
:10052C0000080140000C014030010020F9010020BE
:10053C0010B50446012809D001220821064802F012
:10054C006AFC2146054807F0C5F910BD00220821B8
:10055C00014802F060FCF4E700100140742301082C
:10056C0008B507F059FA08BD70B582B0184B0022D7
:10057C001A709C200AF05EFD04469D200AF05AFD7C
:10058C000546A1200AF056FD0646A2200AF052FDAF
:10059C00BC2C02D0002002B070BD072D01D0002071
:1005AC00F9E7102E01D00020F5E7B82801D0002083
:1005BC00F1E7084B1B7801930124009440F2994316
:1005CC00054A0649064808F025F82046E3E700BF2F
:1005DC005D070020600700203C24010898220108D8
:1005EC00A422010830B583B000241EE0774B1B78A1
:1005FC00142B03D0764B01221A5523E0744B0022A6
:10060C001A551FE00120FFF793FF724B1D78704BBA
:10061C005B5D012B55D06F4B1B786F4AD25C6F49D9
:10062C00C95C8A425AD10134E4B2012C00F2CC806C
:10063C00684B1C70012CD9D011F00EFE654B1B7849
:10064C00634AD054634B1B78654AD15C654AD25CD3
:10065C00914201D06249CA545D4AD25C6249C95C7C
:10066C008A42D2D06049CA54002ACED120460FF01B
:10067C0049FA631C00934FF499635C4A5C495D48EA
:10068C0007F0C8FF5C4BDB794BB101225B4B1A6066
:10069C0000235B490B605B490A705B4A13704D4B3E
:1006AC001B7814224C49CA544C49CA54574A1278E4
:1006BC00002AA7D1002BA5D10121002003F0BAFA02
:1006CC00A0E7012C05D0284611F0C2FC424B58552E
:1006DC00A1E73E4B1A78404B5A559CE73F49CA5408
:1006EC00FFF742FF00284DD13A4B1B783A4AD35CB6
:1006FC00142B98D02546404B1A78374B195D204661
:10070C000FF074F8414B1B78012B45D0404B33F85C
:10071C001530404A32F815203F4931F815103F4842
:10072C0030F81500009020460FF01CFE2A4B5B5D44
:10073C000193013500954FF49F632C4A2C4938489E
:10074C0007F068FF2C4BDB794BB101222B4B1A6065
:10075C0000232B490B602B490A702B4A13702B4B2F
:10076C001B7813B91B4B1B78FBB1284B1B78012B47
:10077C0020D0184B1B78002B7FF455AF0020FFF7CF
:10078C00D7FE50E7631C009340F2EC43174A18491C
:10079C00244807F03FFF46E70E4B1B78012BB5D1E1
:1007AC000121192002F040FCB0E70021084603F0BB
:1007BC0041FADAE7074B1B78012BDAD140214FF4D1
:1007CC007A7007F039F9D4E703B030BD200000206F
:1007DC002C0100205D070020600700200C00002089
:1007EC007C07002034080020280100205024010838
:1007FC0098220108C42201083804002014010020AA
:10080C002001002008000020110100201E01002002
:10081C00C8000020D0000020C0000020D80000201C
:10082C00A4220108EC22010838B507F033FE044677
:10083C0001461A4807F04EF807F02CFE41F20D0362
:10084C0098420BD107F026FE41F20D0398421BD1C2
:10085C009C4213D1642002F029FC38BD104D19467E
:10086C00284607F037F841F20D0007F039FE07F083
:10087C0011FE0146284607F02DF8E3E707F054FE79
:10088C00084807F027F8E5E7074807F023F807487A
:10089C0007F020F8064BFF221A70DEE7402501080E
:1008AC005425010864250108A0250108BC25010870
:1008BC00B103002010B588B060230193029000238F
:1008CC0003930593054C082201A9204601F04AFA2E
:1008DC000821204601F03CFB08B010BDB4030020F9
:1008EC0038B50546002406E0295D044B185D02F07E
:1008FC009BFB0134E4B2572CF6D938BDC078010803
:10090C0008B5034806F0E6FF0248FFF7E9FF08BD0B
:10091C00A82301081879010808B5054806F0DAFF84
:10092C000448FFF7DDFF1021D72002F07DFB08BD46
:10093C00D02301087079010808B5034806F0CAFFF6
:10094C000248FFF7CDFF08BDF4230108C879010860
:10095C0008B5034806F0BEFF0248FFF7C1FF08BD0B
:10096C0018240108207A010808B5FE4806F0B2FFE9
:10097C000021012002F058FB0021022002F054FB60
:10098C007521032002F050FB1821042002F04CFBCF
:10099C008021052002F048FB2021062002F044FBB8
:1009AC000821072002F040FB4021082002F03CFB0C
:1009BC000A21092002F038FB41210A2002F034FB05
:1009CC0007210B2002F030FB00210C2002F02CFB45
:1009DC0020210D2002F028FB10210E2002F024FB18
:1009EC0000210F2002F020FB8021102002F01CFBC4
:1009FC008221112002F018FB2121122002F014FB9D
:100A0C00D021132002F010FBE021142002F00CFB8B
:100A1C007821152002F008FBFE21162002F004FBC1
:100A2C000021172002F000FBC821182002F0FCFA6C
:100A3C000021192002F0F8FA23211A2002F0F4FA0E
:100A4C0000211B2002F0F0FA00211C2002F0ECFA2D
:100A5C0000211D2002F0E8FA20211E2002F0E4FA09
:100A6C0032211F2002F0E0FA5A21202002F0DCFA99
:100A7C000D21212002F0D8FA3221222002F0D4FAE2
:100A8C005A21232002F0D0FAD021242002F0CCFAF3
:100A9C002121252002F0C8FA0D21262002F0C4FAEB
:100AAC00E021272002F0C0FAF021282002F0BCFA45
:100ABC000021292002F0B8FA00212A2002F0B4FA11
:100ACC0001212B2002F0B0FAFF212C2002F0ACFA0D
:100ADC0000212D2002F0A8FA12212E2002F0A4FAF7
:100AEC00D0212F2002F0A0FAE021302002F09CFA55
:100AFC008021312002F098FA8021322002F094FA01
:100B0C008021332002F090FAA021342002F08CFADC
:100B1C001821352002F088FA4621362002F084FA9A
:100B2C006421372002F080FA0021382002F07CFA90
:100B3C00FF21392002F078FA03213A2002F074FAEE
:100B4C0080213B2002F070FA80213C2002F06CFAEC
:100B5C0080213D2002F068FA80213E2002F064FAE8
:100B6C0080213F2002F060FA6021412002F05CFA03
:100B7C005F21422002F058FA3721432002F054FA48
:100B8C001421442002F050FA0421452002F04CFAC2
:100B9C000021462002F048FA0021472002F044FAD6
:100BAC000021482002F040FA0021492002F03CFAD2
:100BBC0020214B2002F038FA00214C2002F034FAAC
:100BCC0000214D2002F030FA00214E2002F02CFAC8
:100BDC007F214F2002F028FA2021502002F024FA25
:100BEC000021512002F020FA0021522002F01CFAC0
:100BFC000421532002F018FA0021542002F014FAB8
:100C0C00E021552002F010FA4021562002F00CFA97
:100C1C000421572002F008FA0021582002F004FAAF
:100C2C000821592002F000FA10215A2002F0FCF998
:100C3C0000215B2002F0F8F968215C2002F0F4F945
:100C4C0040215D2002F0F0F908215E2002F0ECF961
:100C5C0000215F2002F0E8F9E021602002F0E4F9C5
:100C6C005421612002F0E0F93321622002F0DCF91A
:100C7C000121632002F0D8F9FF21642002F0D4F99D
:100C8C000121652002F0D0F9FF21662002F0CCF999
:100C9C008921672002F0C8F9AB21682002F0C4F961
:100CAC008821692002F0C0F96E216A2002F0BCF99B
:100CBC006E216B2002F0B8F96E216C2002F0B4F9B1
:100CCC0000216D2002F0B0F900216E2002F0ACF989
:100CDC0000216F2002F0A8F90021702002F0A4F985
:100CEC000021712002F0A0F90021722002F09CF981
:100CFC000021732002F098F90021742002F094F97D
:100D0C00FF21752002F090F9FF21762002F08CF97A
:100D1C00FF21772002F088F9FF21782002F084F976
:100D2C00FF21792002F080F9FF217A2002F07CF972
:100D3C00FF217B2002F078F9FF217C2002F074F96E
:100D4C00F0217D2002F070F980217E2002F06CF9F8
:100D5C0000217F2002F068F90021802002F064F964
:100D6C0002E000BF8C2301083421812002F05CF9E1
:100D7C004021822002F058F90521832002F054F919
:100D8C005921842002F050F9FD21852002F04CF904
:100D9C000421862002F048F92421872002F044F92E
:100DAC009421882002F040F95821892002F03CF966
:100DBC0000218A2002F038F97E218B2002F034F9D0
:100DCC0003218C2002F030F92C218D2002F02CF91B
:100DDC008C218E2002F028F900218F2002F024F9BA
:100DEC00CC21902002F020F94121912002F01CF935
:100DFC00C421922002F018F93121932002F014F949
:100E0C008721942002F010F9D021952002F00CF9E2
:100E1C00F321962002F008F92021972002F004F922
:100E2C001121982002F000F99021992002F0FCF891
:100E3C00FF219A2002F0F8F804219B2002F0F4F82C
:100E4C000A219C2002F0F0F800219D2002F0ECF821
:100E5C0004219E2002F0E8F865219F2002F0E4F8BE
:100E6C002F21A02002F0E0F8D921A12002F0DCF81B
:100E7C009821A22002F0D8F88721A32002F0D4F800
:100E8C00E121A42002F0D0F83821A52002F0CCF802
:100E9C00C221A62002F0C8F87021A72002F0C4F8E5
:100EAC000021A82002F0C0F81E21A92002F0BCF8F5
:100EBC002E21AA2002F0B8F80021AB2002F0B4F8E1
:100ECC008421AC2002F0B0F8F321AD2002F0ACF894
:100EDC006521AE2002F0A8F89921AF2002F0A4F809
:100EEC000021B02002F0A0F80021B12002F09CF803
:100EFC000021B22002F098F80021B32002F094F8FF
:100F0C000021B42002F090F80021B52002F08CF8FA
:100F1C000021B62002F088F88021B82002F084F875
:100F2C000021B92002F080F80121BA2002F07CF8EF
:100F3C000021BB2002F078F89021BC2002F074F85C
:100F4C000121BD2002F070F82C21BE2002F06CF8BB
:100F5C000021C02002F068F82021C12002F064F8C2
:100F6C002021C22002F060F82021C32002F05CF89E
:100F7C002021C42002F058F82021C52002F054F89A
:100F8C00FF21D02002F050F83F21D12002F04CF884
:100F9C00C221D22002F048F83F21D32002F044F8BD
:100FAC000021D42002F040F80021D52002F03CF8BA
:100FBC000021D62002F038F81021D72002F034F8A6
:100FCC000021D82002F030F87721DC2002F02CF838
:100FDC000021DD2002F028F8AF21DE2002F024F8F9
:100FEC00EF21DF2002F020F80021E02002F01CF8B5
:100FFC000021E12002F018F80021E22002F014F8A0
:10100C001221E32002F010F8E221E42002F00CF8A7
:10101C00D021E52002F008F80021E62002F004F8C7
:10102C000021E72002F000F80F21E82001F0FCFF7E
:10103C000021E92001F0F8FF0021EA2001F0F4FF83
:10104C000021EB2001F0F0FF8821EC2001F0ECFFF7
:10105C000021ED2001F0E8FF0021EE2001F0E4FF7B
:10106C000021EF2001F0E0FF3021F02001F0DCFF47
:10107C004321F12001F0D8FF1F21F22001F0D4FF11
:10108C001F21F32001F0D0FF2221F42001F0CCFF2E
:10109C007321F52001F0C8FF5321F62001F0C4FFA5
:1010AC008021F72001F0C0FF0121F82001F0BCFFE6
:1010BC000121F92001F0B8FF0021FA2001F0B4FF62
:1010CC000021FB2001F0B0FF0021FC2001F0ACFF5F
:1010DC007021FD2001F0A8FF4021FE2001F0A4FFAB
:1010EC000721FF2001F0A0FF08BD00BF70B590B034
:1010FC002022002107A807F084FA0024019402940E
:10110C000394049405940225069501260A9610234F
:10111C000B930D954FF4E0130F9306A801F06CFAA6
:10112C000F2301930295039404940594314601A86E
:10113C0001F0A4FC10B070BD0268184B9A4200D0AC
:10114C007047174A13780133DBB2137015490A68DC
:10115C0001320A6014490A6801320A60632B09D90A
:10116C00124A1368013313600D4B00221A70104B96
:10117C0001221A600F4B1A6801321A601A680E4B62
:10118C009A42DDD90B4B00221A600C4B1B78012BB9
:10119C00D6D10B4A137801331370D1E70004004009
:1011AC005B0100205C010020600100205401002044
:1011BC00500100203C010020A08601000800002006
:1011CC001101002010B504460268184B9A4204D055
:1011DC002268174B9A4214D010BD16490A78531C3A
:1011EC00DBB20B7014490878144988541D2B02D9B2
:1011FC00104B00221A7001220F49114801F064F8BB
:10120C00E6E710490A78531CDBB20B700E490878DC
:10121C000E498854C72B02D90A4B00221A7001229E
:10122C0009490B4801F050F8D6E700BF00380140DF
:10123C0000440040460100201C0100204005002015
:10124C0070030020440100201801002080050020BC
:10125C00F40300207047000038B5012834D0002179
:10126C00322001F0E1FE0021192001F0DDFE002406
:10127C00404B1C70404807F041FA40480470012371
:10128C0043700EF0E9FC2146192001F0CDFEFFF76A
:10129C006BF940B93A4B1B78012B10D0012100207F
:1012AC0002F0C8FC2FE041F2A413364A3649374805
:1012BC0007F0B0F90121204602F0BCFC23E000212C
:1012CC00084602F0B7FC1EE00021322001F0ACFE13
:1012DC00284C012525702E4807F010FA2748057078
:1012EC00022343700EF0B8FC0421192001F09CFE7F
:1012FC002378AB420ED0224B5B78012B35D00121E9
:10130C00084602F097FC234B00221A70224B012254
:10131C001A7038BD214B1B78072B10D0204807F0D2
:10132C0079F9204B1B78052B13D0062B14D0B3B1B5
:10133C00012B17D00121102001F076FEDBE7FFF71F
:10134C00DFFA194807F066F92946284602F072FCC4
:10135C00D1E7FFF7E1FACEE7FFF7D2FACBE7FFF7D9
:10136C00EBFAC8E7FFF7F4FAC5E70021012002F019
:10137C0061FCC8E71E01002014230108380400207A
:10138C002C0100207C240108982201082823010844
:10139C00502301081101002008000020C404002083
:1013AC006C2301081C0000206423010800B583B0E5
:1013BC0067E0134600221A7008F058FB70E05E4A92
:1013CC0013780133DBB213705C4A1278934240F20B
:1013DC0085800021584B1970594B19705B78032B81
:1013EC0014D8013356494B70554C637801920093D5
:1013FC004FF40563534A5449544807F00BF92046FF
:10140C000EF02AFC524B00221A7067E04C4B012163
:10141C005970E9E74A4B5B784D4A12780192009378
:10142C0040F65803474A48494A4807F0F3F859E050
:10143C00474B1B78092B59D90023454A1370464A50
:10144C00137002F0B4FB51E08021322001F0ECFD6E
:10145C0051E0FFF701FF01E005F0FEF904F080FA1E
:10146C000028F9D13D4B1B68002BF7D001E006F0AA
:10147C00A7FC04F083FA0028F9D106F07FFC03F0F6
:10148C0077F9364B1B68012BE8D1FFF7ABF8FEF769
:10149C0043FF334A13780133DBB213700A2B88D81D
:1014AC000A2001F0A9FD2F4A138801339BB2138047
:1014BC00642B06D9134600221A80254A137801336F
:1014CC001370234B1B78284A1268934213D0264A78
:1014DC001360264B1B78012B3FF471AF234B1B7809
:1014EC00012B97D01C4B1B78012BA1D0322001F083
:1014FC0091FD0028A8D003F0D3FD10211C4801F069
:10150C0083FC1C4B18701C4B1B789842A6D03220C5
:10151C0001F072FD1021164801F076FC154B187085
:10152C00154B1B78984299D0134B1870012890D00A
:10153C000020FFF791FE91E73701002012000020F8
:10154C00380400207024010898220108CC250108D9
:10155C0011010020F02501080800002024000020C3
:10156C00240100203401002004000020360100205A
:10157C0000080140100100201E0100202DE9F0435D
:10158C0083B000F0EBFFFFF7B1FDFEF7E9FFFEF7CC
:10159C0001FEFEF76BFEFEF793FEFEF7A7FE09F0C9
:1015AC00C9FC09F073FF0AF019F90AF003FC0121D8
:1015BC00002002F03FFB0120FEF7BAFF322001F0C1
:1015CC001BFD01225749584800F07EFE0122574965
:1015DC00574800F079FE574D00224FF480512846B1
:1015EC0001F019FC544C00220221204601F013FC9E
:1015FC00642001F001FD01224FF48051284601F0D6
:10160C000AFC01220221204601F005FC002420E006
:10161C004A4B1C704A4E4B4D009440F23E7332467E
:10162C002946494806F0F6FF002010F00EFE8021F6
:10163C00892009F03BFD022009F0FCFC019000948C
:10164C0040F2447332462946404806F0E3FF013429
:10165C00E4B2012CDCD93E4C0025257065710126C5
:10166C00A67166700223A3700327E770042323710D
:10167C0038490F2002F0BEFAFFF7D6F802F06AFEE6
:10168C00284601F0C7FCDFF8B890DFF8B88000906E
:10169C0040F272734A4641462F4806F0BBFF40F2B7
:1016AC0073734A4641462D4806F0B4FFE771A671A4
:1016BC0025726572284601F04EFE20460EF0CCFADB
:1016CC00E3793BB1264B1E6026490D6026490E700E
:1016DC00264A157026485D2300F8013B20226D2117
:1016EC0006F08FFF012221230AE002F17F0020493E
:1016FC00C854581C6D240C540132D2B20233DBB2E4
:10170C00402BF2D91F226D211A4806F07AFF0020D7
:10171C00FEF74CFE184800F0CCF9184806F07AFF9A
:10172C00FFF744FE1C01002070030020180100206C
:10173C00F4030020000C0140001001405D07002064
:10174C0068240108982201088C240108B42401089B
:10175C0038040020789C0108E424010808250108BD
:10176C00140100202001002008000020110100209D
:10177C00FC0100203B020020000300203025010862
:10178C007047FEE7FEE7FEE7FEE7704770477047DD
:10179C0008B500F0F5FE08BD08B5042001F042FBC9
:1017AC0008BD000008B5024800F098F908BD00BF5C
:1017BC000003002008B5024800F012FE08BD00BF6F
:1017CC007003002008B5024800F00AFE08BD00BFF7
:1017DC00F403002082B00E4B9A6942F001029A6128
:1017EC009A6902F001020092009ADA6942F0805282
:1017FC00DA61DB6903F080530193019B054A53685E
:10180C0023F0E06343F00073536002B0704700BFF5
:10181C00001002400000014002680E4B9A4200D0BA
:10182C00704700B583B003F50333DA6942F0020266
:10183C00DA61DB6903F002030193019B002211467C
:10184C001D2001F05BFB1D2001F08CFB03B05DF84B
:10185C0004FB00BF0004004070B588B004460023B0
:10186C0004930593069307930268364B9A4205D06E
:10187C002268354B9A4234D008B070BD03F55843FA
:10188C009A6942F480429A619A6902F48042009209
:10189C00009A9A6942F004029A619B6903F004036E
:1018AC000193019B4FF400730493022305930323CC
:1018BC000793264E04A9304601F0BAF94FF4806321
:1018CC00049300250595069504A9304601F0B0F95E
:1018DC002A462946252001F011FB252001F042FB68
:1018EC00C6E703F5E633DA6942F40032DA61DA6905
:1018FC0002F400320292029A9A6942F004029A614E
:10190C009B6903F004030393039B042304930223B6
:10191C000593032307930D4D04A9284601F088F97C
:10192C000823049300240594069404A9284601F086
:10193C007FF922462146262001F0E0FA262001F00C
:10194C0011FB99E7003801400044004000080140B9
:10195C0070B4036A23F001030362036A426884696A
:10196C0024F073040D6845EA040623F002048B6826
:10197C0023430D4DA84209D00B4DA8420DD0426017
:10198C0086614A684263036270BC704723F00803A7
:10199C00CC68234323F00403EEE722F440724C6935
:1019AC0014438A692243EAE7002C014030B4036AED
:1019BC0023F480730362036A4268C46924F07304DD
:1019CC000D682C4323F400738D6843EA05230F4DF7
:1019DC00A84209D00D4DA8420ED04260C4614A689D
:1019EC00C263036230BC704723F40063CD6843EAE2
:1019FC00052323F48063EDE722F440524D6942EA5B
:101A0C0005128D6942EA0512E7E700BF002C014080
:101A1C0030B4036A23F480530362036A4468C269D6
:101A2C0022F4E6420D6842EA052223F400538D6845
:101A3C0043EA0533074DA84206D04460C2614A68A8
:101A4C000264036230BC704724F480444D6944EA5C
:101A5C008514F2E7002C014010B4036A046A24F0E8
:101A6C0001040462846924F0F00444EA021223F0B5
:101A7C000A030B438261036210BC704710B4036A03
:101A8C0023F0100303628469036A24F4704444EA6B
:101A9C00023223F0A00343EA01138261036210BCFB
:101AAC007047836823F07003194341F0070181608C
:101ABC0070470268D36843F00103D36002689368EF
:101ACC0003F00703062B03D0136843F001031360E4
:101ADC0000207047704770477047704710B5044638
:101AEC0003681A6912F0020F11D0DA6812F0020FB3
:101AFC000DD06FF002021A610123037703689B6912
:101B0C0013F0030F70D0FFF7E6FF00232377236851
:101B1C001A6912F0040F12D0DA6812F0040F0ED00A
:101B2C006FF004021A610223237723689B6913F474
:101B3C00407F5FD02046FFF7CEFF0023237723683A
:101B4C001A6912F0080F12D0DA6812F0080F0ED0D2
:101B5C006FF008021A61042323772368DB6913F002
:101B6C00030F4ED02046FFF7B6FF002323772368E0
:101B7C001A6912F0100F12D0DA6812F0100F0ED092
:101B8C006FF010021A61082323772368DB6913F4C2
:101B9C00407F3DD02046FFF79EFF0023237723682C
:101BAC001A6912F0010F03D0DA6812F0010F36D166
:101BBC0023681A6912F0800F03D0DA6812F0800FD4
:101BCC0034D123681A6912F0400F03D0DA6812F08E
:101BDC00400F32D123681A6912F0200F03D0DA6853
:101BEC0012F0200F30D110BDFFF774FF2046FFF725
:101BFC0073FF8AE72046FFF76DFF2046FFF76CFF67
:101C0C009BE72046FFF766FF2046FFF765FFACE732
:101C1C002046FFF75FFF2046FFF75EFFBDE76FF042
:101C2C0001021A612046FFF787FAC1E76FF08002C4
:101C3C001A61204600F0CEF9C3E76FF040021A613A
:101C4C002046FFF74AFFC5E76FF020021A612046D5
:101C5C0000F0BFF9C7E7000003681B4A90420AD0A6
:101C6C00B0F1804F07D0A2F59432904203D002F528
:101C7C008062904203D123F070034A681343124AE6
:101C8C0090420AD0B0F1804F07D0A2F59432904226
:101C9C0003D002F58062904203D123F44073CA68EA
:101CAC00134323F080034A69134303608B68C362B8
:101CBC000B688362044B984202D001234361704746
:101CCC000B690363F9E700BF002C0140A8B110B504
:101CDC00044690F83D305BB1022384F83D30211D61
:101CEC002068FFF7B9FF012384F83D30002010BDB8
:101CFC0080F83C30FFF790FDEEE7012070470000C4
:101D0C0030B4036A23F010030362036A44688269E7
:101D1C0022F4E6420D6842EA052223F020038D6886
:101D2C0043EA05130E4DA84209D00D4DA8420ED022
:101D3C00446082614A688263036230BC704723F05E
:101D4C008003CD6843EA051323F04003EDE724F448
:101D5C0040644D6944EA85048D6944EA8504E7E7EB
:101D6C00002C014038B590F83C30012B66D00D4664
:101D7C000446012380F83C30022380F83D300C2AC5
:101D8C001AD8DFE802F00719191920191919341992
:101D9C00191947000068FFF7DBFD2268936943F0CF
:101DAC00080393612268936923F00403936122680A
:101DBC00936929690B439361012384F83D3000201A
:101DCC0084F83C0038BD0068FFF79AFF22689369DD
:101DDC0043F4006393612268936923F480639361F5
:101DEC0022689369296943EA01239361E4E7006857
:101DFC00FFF7DCFD2268D36943F00803D361226846
:101E0C00D36923F00403D3612268D36929690B4396
:101E1C00D361D1E70068FFF7FBFD2268D36943F477
:101E2C000063D3612268D36923F48063D361226891
:101E3C00D369296943EA0123D361BDE70220C1E7D5
:101E4C0010B4846824F47F4442EA03230B432343F5
:101E5C00836010BC704790F83C30012B66D010B5F5
:101E6C000446012380F83C30022380F83D300268A0
:101E7C00936823F47F4323F0770393600B68402B24
:101E8C004AD013D9602B3DD01ED9702B28D0B3F576
:101E9C00005F30D1CB684A6889680068FFF7D0FFD3
:101EAC002268936843F48043936024E0102B06D09F
:101EBC0004D9202B03D0302B01D01CE0DBB9194600
:101ECC002068FFF7EEFD16E0502B14D1CA68496864
:101EDC000068FFF7C1FD50212068FFF7E2FD0AE022
:101EEC00CB684A6889680068FFF7AAFF2268936884
:101EFC0043F077039360012384F83D30002084F88D
:101F0C003C0010BDCA6849680068FFF7B7FD602146
:101F1C002068FFF7C6FDEEE7CA6849680068FFF75E
:101F2C009BFD40212068FFF7BCFDE4E702207047D1
:101F3C0010B401F01F01012303FA01F4036A23EA30
:101F4C0004030362036A8A401343036210BC7047A4
:101F5C0010B5044601220068FFF7EAFF23680A4A1D
:101F6C0093420BD02268936803F00703062B03D02F
:101F7C00136843F001031360002010BD5A6C42F447
:101F8C0000425A64EEE700BF002C014090F83C3050
:101F9C00012B1CD070B4012680F83C60022380F821
:101FAC003D3002685568936825F070050C682C4329
:101FBC0023F080054B682B4354600268936080F8D3
:101FCC003D60002380F83C30184670BC70470220FE
:101FDC007047704770470268D36823F49073D360DE
:101FEC000268536923F001035361202380F83A30CF
:101FFC00704790F83930DBB2212B2AD18368B3F5C6
:10200C00805F16D0036A5A1C02621A7803685A6001
:10201C00C38C013B9BB2C384EBB90268D36823F039
:10202C008003D3600268D36843F04003D360002080
:10203C007047036A1B880268C3F308035360036983
:10204C001BB9036A02330362E2E7036A01330362DA
:10205C00DEE70220704700207047000038B50446C8
:10206C000268136923F44053C1680B4313618368FE
:10207C000269134342691A430168CB6823F4B053D5
:10208C0023F00C031343CB600268536923F44073B1
:10209C0081690B4353610268214B9A421FD000F0B7
:1020AC00A7FD00EB800000EB800063689B00B0FB99
:1020BC00F3F01C4DA5FB00325109642202FB110206
:1020CC0013013233A5FB03235B0903F0F00202EB8F
:1020DC00011203F00F03216813448B6038BD00F02C
:1020EC0097FD00EB800000EB800063689B00B0FB69
:1020FC00F3F00C4DA5FB00325109642202FB1102D6
:10210C0013013233A5FB03235B0903F0F00202EB4E
:10211C00011203F00F03216813448B60DEE700BF4C
:10212C00003801401F85EB512DE9F04105460F4663
:10213C0016469846069C2B681B6837EA03030CBFAF
:10214C0001230023B3421DD1B4F1FF3FF3D02CB1D6
:10215C0000F022FAA0EB0800A042ECD92A68D36860
:10216C0023F4D073D3602A68536923F001035361BD
:10217C00202385F8393085F83A30002385F838303B
:10218C00032000E00020BDE8F08158B310B50446F0
:10219C0090F839300BB3242384F839302268D36893
:1021AC0023F40053D3602046FFF758FF22681369CD
:1021BC0023F4904313612268536923F02A0353617B
:1021CC002268D36843F40053D3600020E0632023DB
:1021DC0084F8393084F83A3010BD80F83830FFF785
:1021EC003BFBD8E7012070472DE9F04182B01E4639
:1021FC0090F83930DBB2202B55D104460D46904671
:10220C00002955D0002A55D090F83830012B53D0E6
:10221C00012380F838300023C363212380F8393040
:10222C0000F0BAF90746A4F82480A4F8268010E040
:10223C0000963B46002280212046FFF775FF0028C0
:10224C003CD12B882268C3F3080353602369C3B9BC
:10225C000235E38C9BB2B3B1E38C013B9BB2E384BC
:10226C00A368B3F5805FE3D000963B460022802143
:10227C002046FFF759FF18BB2A7823685A600135AE
:10228C00E7E70135E5E700963B4600224021204672
:10229C00FFF74AFF0346A8B9202284F83920002210
:1022AC0084F8382000E00223184602B0BDE8F08123
:1022BC000123F9E70123F7E70223F5E70323F3E70B
:1022CC000323F1E70323EFE790F83A30DBB2202B3E
:1022DC0020D109B312B390F83830012B20D0816291
:1022EC008285C2850023C363222280F83A2080F8BD
:1022FC0038300168CA6842F48072CA6001684A6961
:10230C0042F001024A610168CA6842F02002CA60C8
:10231C001846704702207047012070470120704713
:10232C0002207047704708B50168CB6823F0400362
:10233C00CB60202380F83930FFF7F4FF002008BD74
:10234C0008B590F83A30DBB2222B45D18368B3F54F
:10235C00805F0ED0036903BB03685A68836A591CFB
:10236C0081621A70C38D013B9BB2C385F3B100200F
:10237C0033E0826A036943B903685B68C3F30803FB
:10238C001380836A02338362ECE703685B68DBB219
:10239C001380836A01338362E4E703685B68826AB3
:1023AC00511C816203F07F031370DBE70268D36872
:1023BC0023F02003D3600268D36823F48073D360C6
:1023CC000268536923F001035361202380F83A30EB
:1023DC00FEF7F8FE002000E0022008BD7047000068
:1023EC0010B5044602681368D168526913F00F00E7
:1023FC0005D113F0200F02D011F0200F53D100287B
:10240C0067D012F0010202D111F4907F61D013F069
:10241C00010F06D011F4807F03D0E06B40F0010077
:10242C00E06313F0040F04D01AB1E06B40F002002B
:10243C00E06313F0020F04D01AB1E06B40F004001B
:10244C00E06313F0080F04D01AB1E26B42F00802FB
:10245C00E263E26B002A48D013F0200F02D011F097
:10246C00200F24D123685B6903F04003E26B12F068
:10247C00080F00D13BB32046FFF7ADFD23685A6926
:10248C0012F0400F1BD05A6922F040025A61636B64
:10249C008BB11A4A5A63606B00F0D2FC28B3606BA4
:1024AC00436B984721E02046FFF74AFF1DE020468A
:1024BC00FFF746FFD6E72046FFF790FF15E02046D2
:1024CC00FFF78CFF11E02046FFF788FF0023E36342
:1024DC000BE013F0800F02D011F0800F06D113F037
:1024EC00400F02D011F0400F04D110BD2046FFF771
:1024FC0080FDFAE72046FFF716FFF6E70D250008EA
:10250C0008B5406A0023C385C384FFF767FF08BD85
:10251C0010B504460E4B18784FF47A73B3FBF0F3F6
:10252C000C4A1068B0FBF3F000F02AFD68B90F2CD0
:10253C0001D901200AE0002221464FF0FF3000F0C3
:10254C00DDFC054B1C60002000E0012010BD00BF2D
:10255C0013000020180000201400002008B5074AC2
:10256C00136843F010031360032000F0B5FC002047
:10257C00FFF7CEFFFFF72EF9002008BD0020024028
:10258C00034A1168034B1B780B441360704700BF60
:10259C005004002013000020014B1868704700BF46
:1025AC005004002038B50446FFF7F6FF0546B4F199
:1025BC00FF3F02D0044B1B781C44FFF7EDFF401B80
:1025CC00A042FAD338BD00BF1300002082B0084BE4
:1025DC001B68084AA2FB03235B0A00FB03F0019073
:1025EC0000BF019B5A1E0192002BF9D102B070471B
:1025FC0018000020D34D6210002800F0F78170B550
:10260C0082B00446036813F0010F2CD0AC4B5B680E
:10261C0003F00C03042B1DD0A94B5B6803F00C03D7
:10262C00082B12D06368B3F5803F41D0002B56D1F4
:10263C0003F1804303F504331A6822F480321A60E4
:10264C001A6822F480221A6037E09D4B5B6813F401
:10265C00803FE7D09A4B1B6813F4003F03D06368AC
:10266C00002B00F0C581236813F0020F78D0944B37
:10267C005B6813F00C0F61D0914B5B6803F00C039B
:10268C00082B56D02369002B00F08C808D4B012237
:10269C001A60FFF781FF0546894B1B6813F0020F88
:1026AC0077D1FFF779FF401B0228F5D90320A2E16F
:1026BC00834A136843F48033136063684BB3FFF7AA
:1026CC006BFF05467E4B1B6813F4003FCBD1FFF725
:1026DC0063FF401BB0F5803FF4D303208BE1B3F5CF
:1026EC00A02F09D0764B1A6822F480321A601A682F
:1026FC0022F480221A60E0E703F18043A3F53C3317
:10270C001A6842F480221A601A6842F480321A6005
:10271C00D3E7FFF741FF0546694B1B6813F4003FF5
:10272C00A1D0FFF739FF401BB0F5803FF4D3032055
:10273C0061E1634B5B6813F4803FA3D1604B1B6872
:10274C0013F0020F04D02369012B01D0012052E1B8
:10275C005B4A136823F0F803616943EAC103136011
:10276C00236813F0080F32D0A369002B5BD0564BB3
:10277C0001221A60FFF710FF0546514B5B6A13F0FC
:10278C00020F21D1FFF708FF401B0228F5D90320C7
:10279C0031E14B4A136823F0F803616943EAC10342
:1027AC001360DDE7474B00221A60FFF7F5FE054684
:1027BC00434B1B6813F0020FD2D0FFF7EDFE401B0A
:1027CC000228F5D9032016E10120FFF7FFFE23684C
:1027DC0013F0040F00F09880394BDB6913F0805F25
:1027EC0033D1374BDA6942F08052DA61DB6903F09E
:1027FC0080530193019B0125344B1B6813F4807F9C
:10280C0025D0E368012B36D0002B4CD103F180434B
:10281C0003F504331A6A22F001021A621A6A22F0D2
:10282C0004021A622CE0284B00221A60FFF7B4FE57
:10283C000546234B5B6A13F0020FC8D0FFF7ACFEC2
:10284C00401B0228F5D90320D5E00025D4E71F4A08
:10285C00136843F480731360FFF79EFE06461B4B10
:10286C001B6813F4807FCCD1FFF796FE801B642885
:10287C00F5D90320BFE0124A136A43F00103136237
:10288C00E3687BB3FFF788FE06460D4B1B6A13F01B
:10289C00020F38D1FFF780FE801B41F2883398423B
:1028AC00F3D90320A7E0052B12D0054B1A6A22F0AE
:1028BC0001021A621A6A22F004021A62E0E700BFEF
:1028CC00001002400000424280044242007000406E
:1028DC004C4B1A6A42F004021A621A6A42F0010264
:1028EC001A62CDE7FFF758FE0646464B1B6A13F0FB
:1028FC00020F08D0FFF750FE801B41F2883398423C
:10290C00F3D9032077E0E5B9E369002B72D03D4A97
:10291C00526802F00C02082A56D0022B17D03A4B00
:10292C0000221A60FFF738FE0446364B1B6813F082
:10293C00007F47D0FFF730FE001B0228F5D903209B
:10294C0059E0304AD36923F08053D361DCE72E4B36
:10295C0000221A60FFF720FE05462A4B1B6813F075
:10296C00007F06D0FFF718FE401B0228F5D9032084
:10297C0041E0236AB3F5803F1AD022494B6823F417
:10298C007413226A606A024313434B601E4B01228C
:10299C001A60FFF701FE04461A4B1B6813F0007F08
:1029AC000ED1FFF7F9FD001B0228F5D9032022E018
:1029BC00144A536823F40033A1680B435360DCE7DB
:1029CC00002018E0002016E0012B16D00D4B5B68A0
:1029DC0003F48031226A914201D001200BE003F410
:1029EC007013626A93420AD0012004E00120704700
:1029FC00012000E0002002B070BD0120FBE70020A8
:102A0C00F9E700BF001002406000424210B487B0EA
:102A1C00164C94E80F000DF1180C0CE90F00238AEA
:102A2C00ADF80430124B5B6803F00C02082A1AD183
:102A3C00C3F38342624412F8102C13F4803F05D187
:102A4C000C4800FB02F007B010BC7047084B5B68E9
:102A5C00C3F34043634413F8143C074800FB02F0F3
:102A6C00B0FBF3F0EFE70448EDE700BF8422010868
:102A7C000010024000093D0000127A00002800F00E
:102A8C00A38070B50446524B1B6803F007038B42BE
:102A9C000CD24F4A136823F007030B4313601368DF
:102AAC0003F007038B4201D0012070BD236813F0A3
:102ABC00020F17D013F0040F04D0464A536843F4A6
:102ACC00E0635360236813F0080F04D0414A536845
:102ADC0043F4605353603F4A536823F0F003A068FB
:102AEC00034353600D46236813F0010F31D0636824
:102AFC00012B20D0022B25D0364A126812F0020F7F
:102B0C0064D034494A6822F0030213434B60FFF748
:102B1C0043FD06462F4B5B6803F00C036268B3EB76
:102B2C00820F16D0FFF738FD801B41F28833984294
:102B3C00F0D90320B9E7274A126812F4003FE0D11C
:102B4C000120B2E7234A126812F0007FD9D101208C
:102B5C00ABE71F4B1B6803F00703AB420CD91C4AB5
:102B6C00136823F007032B431360136803F0070368
:102B7C00AB4201D0012098E7236813F0040F06D074
:102B8C00144A536823F4E063E1680B4353602368F1
:102B9C0013F0080F07D00F4A536823F460532169D0
:102BAC0043EAC1035360FFF731FF0A4B5B68C3F381
:102BBC000313094AD35CD840084B1860084B1868BB
:102BCC00FFF7A6FC002070E70120704701206CE79E
:102BDC0000200240001002401426010818000020BA
:102BEC0014000020014B1868704700BF180000202B
:102BFC0008B5FFF7F7FF044B5B68C3F30223034AE6
:102C0C00D35CD84008BD00BF001002402426010848
:102C1C0008B5FFF7E7FF044B5B68C3F3C223034A15
:102C2C00D35CD84008BD00BF001002402426010828
:102C3C00F0B482B000263246A2E0002D5AD0012D0D
:102C4C0000D1CE68FF2B69D88446FF2B69D895003C
:102C5C00DCF800400F27AF4024EA070406FA05F51C
:102C6C002C43CCF800404C6814F0805F00F0878057
:102C7C005F4CA56945F00105A561A46904F0010448
:102C8C000194019C9508AF1C5A4C54F8274002F053
:102C9C000307BF004FF00F0C0CFA07FC24EA0C0CD6
:102CAC00554CA04243D004F58064A04200F08180D2
:102CBC0004F58064A0427ED004F58064A04234D038
:102CCC00042435E04D4FBD4214D00BD94C4FBD42BE
:102CDC0010D007F58037BD420CD0A7F58017BD4248
:102CEC00B0D107E0A7F58017BD4203D007F58037B8
:102CFC00BD42A7D18D687DB1012D08D04461082655
:102D0C00A0E7CE6808369DE7CE680C369AE70461DA
:102D1C00082697E7002695E7042693E700F1040CB4
:102D2C0093E7A2F10805AD0092E7032400E000242C
:102D3C00BC4044EA0C0402352E4F47F825404C6841
:102D4C0014F4803F39D02F4D2C681C432C604C68F8
:102D5C0014F4003F37D02B4D6C681C436C604C68EE
:102D6C0014F4801F35D0274DAC681C43AC604C6804
:102D7C0014F4001F33D0234DEC682343EB60013275
:102D8C000B6833FA02F430D00124944023409C4267
:102D9C00F5D14D68122DB7D094D8022DB1D07FF655
:102DAC004CAF032DB6D0112D7FF44CAFCE6804364A
:102DBC0048E70124BCE70224BAE7124D2C6824EA48
:102DCC0003042C60C3E70F4D6C6824EA03046C60A9
:102DDC00C5E70C4DAC6824EA0304AC60C7E7094DA9
:102DEC00EC6824EA0303EB60C9E702B0F0BC70475F
:102DFC0000100240000001400008014000002110BA
:102E0C0000003110000401408368194201D10020F8
:102E1C0070470120704712B90904016170470161C4
:102E2C007047000008B5054B5B69034200D108BD33
:102E3C00024B5861FEF70EFAF9E700BF000401409F
:102E4C0008B590F82130022B03D0042383630120B2
:102E5C0008BD0268136823F00E0313600268136840
:102E6C0023F0010313600368194A934214D01432FF
:102E7C0093421FD0143293421ED0143293421ED070
:102E8C00143293421ED01432934202D04FF080720F
:102E9C0003E04FF4801200E001220E4B5A60012334
:102EAC0080F82130002380F82030436B6BB19847B9
:102EBC000020CDE71022F0E74FF48072EDE74FF4DD
:102ECC008052EAE74FF48032E7E70020C0E700BF0A
:102EDC000800024000000240074AD36823F4E06374
:102EEC001B041B0C000200F4E060184340F0BF60B0
:102EFC0040F40030D060704700ED00E030B4174B68
:102F0C00DB68C3F30223C3F10704042C28BF042499
:102F1C001D1D062D18D9033B4FF0FF3505FA04F49F
:102F2C0021EA0401994005FA03F322EA0303194349
:102F3C0000280BDB0901C9B200F1604000F56140CB
:102F4C0080F8001330BC70470023E5E700F00F0059
:102F5C000901C9B2024B1954F4E700BF00ED00E0BF
:102F6C0014ED00E0002807DB00F01F0240090123EC
:102F7C009340024A42F82030704700BF00E100E065
:102F8C000138B0F1807F0AD2064B5860064AF02116
:102F9C0082F823100020986007221A6070470120E5
:102FAC00704700BF10E000E000ED00E00F4B1A6826
:102FBC0042F001021A6059680D4A0A405A601A68B8
:102FCC0022F0847222F480321A601A6822F4802271
:102FDC001A605A6822F4FE025A604FF41F029A607B
:102FEC00044B4FF000629A60704700BF0010024023
:102FFC000000FFF800ED00E008B5034B1B7803B1AF
:10300C0008BDFFF7CFFAFBE75404002008B5FFF723
:10301C00C9FA08BD08B5034B1B780146184608F0E1
:10302C0086FA08BD1000002008B5044B1B780A4630
:10303C000146184608F030FA08BD00BF1000002009
:10304C0008B5034B1B780146184608F070FA08BD0A
:10305C001100002008B5044B1B780A46014618469F
:10306C0008F01AFA08BD00BF1100002008B508F0DE
:10307C0046FE08BD08B508F01BFE08BD10B51C4681
:10308C001346224608F025FA10BD70B588B00446E8
:10309C000D4616461978684605F0B3FA33466A466B
:1030AC002946204608F015FA08B070BD38B505461B
:1030BC00002404E00520FFF775FA0134A4B2AC42F9
:1030CC00F8D338BD08B50146024B187808F0D7FB89
:1030DC0008BD00BFD004002008B50A460146024BCB
:1030EC00187808F081FB08BDD004002008B5FFF764
:1030FC0059FA08BD08B501464A2008F0BCFC08BDC9
:10310C0008B50A4601464A2008F0E9FC08BD08B596
:10311C00082809D8DFE800F0050505050D0D0D0D93
:10312C0009005220FFF780FF08BD5720FFF77CFFF6
:10313C00FAE75D20FFF778FFF6E7F8B505460C4691
:10314C0017465320FFF766FF00F03F065E20FFF79F
:10315C0061FF00F03F0104F03F04082D0ED8DFE8BA
:10316C0005F0050E19242F37424D580031465320D7
:10317C00FFF75AFF21465320FFF756FFF8BD46F0E4
:10318C0040015320FFF750FF44F040015320FFF75C
:10319C004BFFF3E746F080015320FFF745FF44F067
:1031AC0080015320FFF740FFE8E746F0C0015320B1
:1031BC00FFF73AFF44F0C0015320FFF735FFDDE77E
:1031CC005E20FFF731FF21465E20FFF72DFFD5E78C
:1031DC0041F040015E20FFF727FF44F040015E20E4
:1031EC00FFF722FFCAE741F080015E20FFF71CFFCA
:1031FC0044F080015E20FFF717FFBFE741F0C001EC
:10320C005E20FFF711FF44F0C0015E20FFF70CFFBA
:10321C00B4E721465820FFF707FF07F01F0159209C
:10322C00FFF702FFAAE738B5CDB2090A090101F090
:10323C007001D4B2C2F30222082812D8DFE800F0E1
:10324C00050505051F1F1F1F120011435420FFF712
:10325C00EBFE29465520FFF7E7FE21465620FFF7E7
:10326C00E3FE38BD11435A20FFF7DEFE29465B20F2
:10327C00FFF7DAFE21465C20FFF7D6FEF1E711439B
:10328C005F20FFF7D1FE29466020FFF7CDFE2146D7
:10329C006120FFF7C9FEE4E770B506460C4614F84A
:1032AC00015B1021FD20FFF7BFFE3146FE20FFF72A
:1032BC00BBFE044B187823462A46FF21FFF7DEFE9F
:1032CC0070BD00BF1000002070B582B0064602AC85
:1032DC0004F8012D0D787021FD20FFF7A5FE314675
:1032EC00FE20FFF7A1FE044B187823462A46FF2147
:1032FC00FFF7CBFE02B070BD1000002038B50446BD
:10330C000D465320FFF786FE00F03F01A40164B286
:10331C002143C9B25320FFF787FE5E20FFF77AFEE8
:10332C0000F03F0044EA0001C9B25E20FFF77CFECA
:10333C005120FFF76FFE15F0080F01D100F0F700D8
:10334C0020F0070149B205F00F052943C9B25120FD
:10335C00FFF76AFE38BD10B504465120FFF75AFE40
:10336C002CB900F0F7015120FFF75EFE10BD40F0C4
:10337C000801C9B2F7E710B504466920FFF74AFE09
:10338C0000F00F0141EA0411C9B26920FFF74CFEAD
:10339C0000215820FFF748FE10BD0000142860D80B
:1033AC00DFE800F00B0F13171B1F23272B2F3337CE
:1033BC003B3F43474B4F53575B002C4B2C4A1A60F7
:1033CC0070472A4B2B4A1A607047284B2A4A1A60BE
:1033DC007047264B294A1A607047244B284A1A60BA
:1033EC007047224B274A1A607047204B264A1A60B6
:1033FC0070471E4B254A1A6070471C4B244A1A60B2
:10340C0070471A4B234A1A607047184B1A4A1A60B5
:10341C007047164B204A1A607047144B1F4A1A60AB
:10342C007047124B1E4A1A607047104B1D4A1A60A7
:10343C0070470E4B1C4A1A6070470C4B1B4A1A60A3
:10344C0070470A4B1A4A1A607047084B194A1A609F
:10345C007047064B184A1A607047044B174A1A609B
:10346C007047024B154A1A60704700BF5804002081
:10347C00E0880108F8880108EC8801080489010833
:10348C00BC88010868880108C8880108D48801082C
:10349C0010890108388801085088010874880108CF
:1034AC005C8801088C880108448801088088010820
:1034BC00A488010898880108B08801083C89010893
:1034CC002DE9F047054689469046AE4A1278C2F37C
:1034DC00400602F001044BBBAB4B1B78012B21D0F7
:1034EC0025274FF0F40A45B1012D00F06281022D21
:1034FC0000F09D81032D00F0D8810820FFF73BFFE1
:10350C00A04B1B78032B00F00E82002E00F01E82C5
:10351C009E4B1B78002B40F0148204212846FFF7A9
:10352C00EDFE07E23D274FF0B40ADCE71A46012B0B
:10353C001DD0022B27D0032B31D0102B3BD0202BAE
:10354C0072D0402B00F0A780502B00F0BD80303B98
:10355C000F2B00F20481002840F0D5808A4B1B7899
:10356C00012B00F0CC8025274FF0F40ABBE7864BEB
:10357C001B78012B03D025274FF0F40AB3E73D2726
:10358C004FF0B40AAFE7804B1B78012B03D02527F3
:10359C004FF0F40AA7E73D274FF0B40AA3E77A4BA4
:1035AC001B78012B03D025274FF0F40A9BE73D270E
:1035BC004FF0B40A97E758B9734B1B78012B03D023
:1035CC0025274FF0F40A8EE73D274FF0B40A8AE71F
:1035DC0001280AD0022814D06B4B1B78012B1ED06B
:1035EC0040F2911740F2763A7DE7674B1B78012B3E
:1035FC0003D0252740F2763A75E73D2740F2744A0E
:10360C0071E7614B1B78012B04D040F291174FF0FE
:10361C00F40A68E740F25B274FF0B40A63E740F224
:10362C005B2740F2744A5EE758B9574B1B78012B65
:10363C0003D025274FF0F40A55E73D274FF0B40A85
:10364C0051E7012809D0022813D04F4B1B78012BCE
:10365C001DD0252740F2B64A45E74B4B1B78012B72
:10366C0003D0252740F2362A3DE73D274FF4267A32
:10367C0039E7454B1B78012B04D040F2911740F2EF
:10368C00362A30E740F25B274FF4267A2BE73D27AA
:10369C004FF4CB6A27E758B93B4B1B78012B03D06F
:1036AC0025274FF0F40A1EE73D274FF0B40A1AE71E
:1036BC00354B1B78012B03D0252740F2763A12E7C5
:1036CC003D2740F2744A0EE758B92F4B1B78012B5B
:1036DC0003D025274FF0F40A05E73D274FF0B40A35
:1036EC0001E7294B1B78012B04D040F291174FF0C6
:1036FC00F40AF8E640F25B274FF0B40AF3E63D27F4
:10370C004FF0B40AEFE601280AD0022814D01E4B61
:10371C001B78012B1ED04FF4027740F24A4AE2E6A6
:10372C00194B1B78012B03D0252740F24A4ADAE6C5
:10373C003D2740F2B45AD6E6134B1B78012B04D02C
:10374C004FF48C7740F24A4ACDE64FF4D37740F2EF
:10375C00B45AC8E640F20F3740F2B45AC3E6602AB6
:10376C0003D040274FF0E00ABDE688B9064B1B7822
:10377C00012B03D025274FF0F40AB4E63D274FF078
:10378C00B40AB0E6EF000020680700205C040020BB
:10379C0001287FF4A8AE7B4B1B78012B04D040F2A0
:1037AC00052740F24A4A9EE640F20D3740F2B45AE1
:1037BC0099E61EBB002C3FF4A0AE012298F8001035
:1037CC000520FFF7BAFC50210520FFF7A0FC41466D
:1037DC005020FFF761FD072241465020FFF774FD92
:1037EC00694B1A7802EB82029300FA1892B21432E7
:1037FC0092B251460520FFF716FD7EE6012299F89C
:10380C0000101046FFF799FC10210120FFF77FFCF8
:10381C0049461020FFF740FD072249461020FFF7CC
:10382C0053FD3A4651460120FFF7FDFCC2E71EBB93
:10383C00002C3FF462AE012298F800100620FFF72E
:10384C007CFC60210620FFF762FC41466020FFF7FC
:10385C0023FD072241466020FFF736FD4A4B1A78BC
:10386C0002EB82029300FA1892B2143292B25146D1
:10387C000620FFF7D8FC40E6012299F80010022040
:10388C00FFF75BFC20210120FFF741FC494620207B
:10389C00FFF702FD072249462020FFF715FD3A46A7
:1038AC0051460220FFF7BFFCC2E71EBB002C3FF4C1
:1038BC0024AE012298F800100720FFF73EFC70217F
:1038CC000720FFF724FC41467020FFF7E5FC072298
:1038DC0041467020FFF7F8FC2B4B1B7803EB83035E
:1038EC009A003A4492B2143292B251460720FFF732
:1038FC009AFC02E6012299F800100320FFF71DFC48
:10390C0030210320FFF703FC49463020FFF7C4FCAD
:10391C00072249463020FFF7D7FC3A465146032090
:10392C00FFF781FCC2E7194B1B782BB90521284600
:10393C00FFF7E4FCBDE8F08707212846FFF7DEFC23
:10394C00F8E702212846FFF7D9FCF3E764B10F4BE7
:10395C001B7823B901212846FFF7D0FCEAE70221A6
:10396C002846FFF7CBFCE5E7084B1B7823B1022177
:10397C002846FFF7C3FCDDE700212846FFF7BEFC15
:10398C00D8E700BF680700205D0400205C0400201D
:10399C0070B586B005460E4614462A4B1A5C012CAF
:1039AC000BD0022C2DD0032C2FD0002A3CD0012A76
:1039BC003CD0022A2DD0244B02E001282BD0234BE3
:1039CC0023490978914233D093E803000490ADF871
:1039DC001410090C8DF816103046FFF7DFFC1D4B48
:1039EC001A6801AB1068516803C31189927A198067
:1039FC009A70234601AA04A92846FFF761FD06B078
:103A0C0070BD02280AD0114BDAE7032809D00F4BFE
:103A1C00D6E7114BD4E700220C4BD1E700220E4B1A
:103A2C00CEE70022084BCBE70C4BC9E7074BC7E7A7
:103A3C0093E803000490ADF814106C238DF8163045
:103A4C00CAE700BF580700203489010824890108FF
:103A5C00E9010020580400202C8901081C89010868
:103A6C0030B587B00D46144638B1012823D0022852
:103A7C0001D0124B02E0124B00E0124B93E8030012
:103A8C000490ADF814106C238DF816302846FFF70F
:103A9C0085FC0D4B1A6801AB1068516803C3118982
:103AAC00927A19809A70234601AA04A90020FFF784
:103ABC0007FD07B030BD054BE0E700BF34890108B6
:103ACC002C8901081C89010858040020248901084C
:103ADC0070B5F0B104465320FFF79CFA00F03F0696
:103AEC005E20FFF797FA00F03F05012C1CD0022C4A
:103AFC0025D0032C2ED05120FFF78CFA00F00801B2
:103B0C001C4B1B788BB341F002015120FFF78CFA50
:103B1C0009E0012200210846FFF70FFB01220021DA
:103B2C000420FFF70AFB70BD46F040015320FFF75D
:103B3C007BFA45F040015E20FFF776FADBE746F0B2
:103B4C0080015320FFF770FA45F080015E20FFF7EB
:103B5C006BFAD0E746F0C0015320FFF765FA45F049
:103B6C00C0015E20FFF760FAC5E75120FFF75CFA51
:103B7C00D9E700BF5C04002008B50320FFF7A8FFBD
:103B8C0008BD10B5022404E02046FFF7A1FF013464
:103B9C00E4B2032CF8D910BD10B5012404E0204682
:103BAC00FFF796FF0134E4B2032CF8D910BD10B521
:103BBC00002404E02046FFF78BFF0134E4B2032C11
:103BCC00F8D910BD10B5C0B014468DF800008DF8B2
:103BDC00011019460DF1020004F008FD044B187891
:103BEC00A21C6B46D2B2FD21FFF748FA40B010BDC3
:103BFC00100000203F2805D870B54500EDB20E46E8
:103C0C00002413E07047A200A318590089B2224483
:103C1C0093009BB2C1F303203344142201F0FE0144
:103C2C0040F02000FFF7CEFF0134A4B2ABB2A342A8
:103C3C00E9D870BD38B505460C46A1B1012920D193
:103C4C0040B900211020FFF7EFF90A219C20FFF763
:103C5C00EBF916E001211020FFF7E6F90A219C2070
:103C6C00FFF7E2F90DE0C0B11020FFF7D3F960F0D7
:103C7C007E01C9B21020FFF7D7F900219C20FFF775
:103C8C00D3F9224620210C48FFF7C5F823462A46D3
:103C9C000A49012003F03AFE38BD1020FFF7BAF9AB
:103CAC0060F07F01C9B21020FFF7BEF900219C2003
:103CBC00FFF7BAF9E5E700BF0008014048890108A1
:103CCC0008B501212620FFF707FA08BD10B50446F8
:103CDC00F520FFF7F7F9074B195D0140F520FFF7C9
:103CEC00FBF93520FFF7EEF900F0DF013520FFF787
:103CFC00F3F910BD808D010810B50446F520FFF7CF
:103D0C00E1F9084B195D0143C9B2F520FFF7E4F95D
:103D1C003520FFF7D7F940F02001C9B23520FFF765
:103D2C00DBF910BD888D010808B5C0210720FFF70D
:103D3C00D3F91420FFF7C6F900F09F011420FFF708
:103D4C00CBF900211320FFF7C7F904212620FFF738
:103D5C00C3F9B2210620FFF7BFF908BD08B5242826
:103D6C0006D0252807D0262808D0FFF7A9FF08BDC4
:103D7C00FFF7A6FFFBE7FFF7D7FFF8E7FFF7D4FF46
:103D8C00F5E710B5044603E06178FFF7A5F90234B6
:103D9C002078FF28F8D13220FFF788F910BD38B50C
:103DAC0004460D4604E015F8011BFFF795F90134A4
:103DBC002078FF28F7D13220FFF778F938BD08B505
:103DCC0001464020FFF788F908BD000070B5064693
:103DDC009C4B1B5C262B00F2F980DFE813F076007D
:103DEC00880027006E009A00A300F700F700B500CA
:103DFC00AC00F700F7007F009100F700F700F70028
:103E0C00F700F700F700F700F700F700F700F700EE
:103E1C00F700F700F700F700F700F700F700BE0017
:103E2C00C600CE00D600DE00E600EE000124864B74
:103E3C001C70864804F0EEFB2546854804F05EFCB9
:103E4C00844804EB440104EB81010144FFF7A7FF14
:103E5C007C4B9B5D022B00F0BC807F4B1B78262B90
:103E6C0000F0BC80252B00F0C180242B00F0C68014
:103E7C00794B1B782F2B00F0CA80774B1B78272BA4
:103E8C0000F0D080012D00F0D9803046FFF734FFD0
:103E9C0000211320FFF720F91420FFF713F900F08D
:103EAC009F011420FFF718F90220FFF70BF900F01F
:103EBC007F010220FFF710F970BD0125624B1D70C8
:103ECC00664804F0A7FB0224B7E75F4B00221A7088
:103EDC00634804F09FFB01250324AEE75A4B0022F4
:103EEC001A70604804F096FB02250B24A5E7564B8C
:103EFC0000221A705C4804F08DFB012504249CE719
:103F0C00514B00221A70594804F084FB02250C24F2
:103F1C0093E74D4B00221A70554804F07BFB0125AA
:103F2C0005248AE7484B00221A70524804F072FBB1
:103F3C000125062481E7444B03221A704E4804F0F5
:103F4C0069FB0425082478E73F4B02221A704B4882
:103F5C0004F060FB032507246FE701253A4B1D7025
:103F6C00474804F057FB092467E70125364B1D70C1
:103F7C00444804F04FFB0A245FE70125324B1D70C7
:103F8C00414804F047FB0D2457E701252E4B1D70CB
:103F9C003E4804F03FFB0E244FE701252A4B1D70D1
:103FAC003B4804F037FB0F2447E70125264B1D70D7
:103FBC00384804F02FFB10243FE7234B00221A70E3
:103FCC00354804F027FB0125112436E701252C4642
:103FDC0033E7CE211620FFF77FF83EE72F4805EB9D
:103FEC00C50359000144FFF7DAFE41E72C48C5EB45
:103FFC00C50359000144FFF7D2FE39E7294805EB08
:10400C00450105EB81010144FFF7C9FE30E7264865
:10401C0004F074FB254805EB850399000144FFF778
:10402C00BEFE2AE7224804F069FB224805EB450155
:10403C00C5EBC1010144FFF7B2FE23E73046FFF7A1
:10404C0045FE25E7C404002074040020908D01086F
:10405C001C8E0108508E010803050020988D010864
:10406C00A08D0108A88D0108B48D0108BC8D010834
:10407C00C88D0108D08D0108D88D0108DC8D010890
:10408C00E48D0108EC8D0108F48D0108FC8D01080C
:10409C00048E01080C8E0108148E0108809401080E
:1040AC002C930108A8930108248E01088C92010816
:1040BC00388E01081491010810B5254B1B5C0D2B93
:1040CC0043D8DFE803F00D070B094242424242425B
:1040DC0042420D07022404E0042402E0032400E021
:1040EC000124FFF773FE1B4B1B78262B11D0A3F179
:1040FC002402D2B2012A14D92F2B18D0272B1ED070
:10410C001420FEF7DFFF0A211420FEF7E5FF2046FE
:10411C0010BD114804EB840359000144FFF73FFE26
:10412C00EEE70E4800EBC401FFF739FEE8E70C4858
:10413C0004EB440399000144FFF731FEE0E7094822
:10414C0000EB0411FFF72BFEDAE70024DFE700BFDA
:10415C00C4040020030500200894010804930108FE
:10416C00EC9101086090010810B5264B1B5C0D2BDF
:10417C0046D8DFE803F00D070B0945454545454595
:10418C0045450D07022404E0042402E0032400E06A
:10419C000124FFF71BFE1C4B1B78262B0ED0A3F122
:1041AC002402D2B2012A12D92F2B19D0272B1FD0BF
:1041BC0040211320FEF790FF204610BD134804EB5E
:1041CC00440104EB81010144FFF7E9FDF0E70F48DE
:1041DC0004EB440104EB81010144FFF7E0FDE7E748
:1041EC000B4804EB840399000144FFF7D8FDDFE78B
:1041FC00084804EB840399000144FFF7D0FDD7E78E
:10420C000024D9E7C4040020030500203C940108D5
:10421C0028920108B090010838B5054602212F20DC
:10422C00FEF75AFF0420FEF74DFF04460420FEF76C
:10423C0049FF04440420FEF745FF04440420FEF724
:10424C0041FF0444640804F4FC742A4621460B48DC
:10425C0004F0E0F904F0F8010820FEF73DFF062019
:10426C00FEF730FF00F0F900E10901F00201014313
:10427C0041F004010620FEF72FFF38BD588D0108D0
:10428C0008B500212F20FEF727FF0420FEF71AFFA8
:10429C0008BDF8B5064606212F20FEF71DFF0420A9
:1042AC00FEF710FFB04243D204461E2717E045F03C
:1042BC0080010720FEF710FFD5B30820FEF7F6FEAD
:1042CC0006212F20FEF708FF0420FEF7FBFE044614
:1042DC00731C984214DCA31B0133022B28D93FB367
:1042EC00013FFFB20720FEF7EDFE00F03F05B442A0
:1042FC00DDD0002DDBD0013DEDB20134E4B2F6E7A8
:10430C000720FEF7DFFE00F03F00841C3F2C00D995
:10431C003F2444F080010720FEF7DEFE3F2C07D03F
:10432C000820FEF7C3FE0420FEF7CCFE0446D2E7BD
:10433C00F8BD10B54420FEF7C5FE044640F0400120
:10434C00C9B24420FEF7C8FE04F0BF014420FEF7BA
:10435C00C3FE10BD38B5644B88221A700024032CA0
:10436C000DD8FE20FEF7AEFE282808D05E4A137842
:10437C000133DBB2013313700134E4B2EFE7FF20F9
:10438C00FEF7A0FE594C2070FD20FEF79BFE00F0BE
:10439C000702574B1A702178564804F03BF900235A
:1043AC00554A1360554A1360554A13602378023BF3
:1043BC00252B70D8DFE803F0136F136F6F6F6F6FDF
:1043CC006F6F6F6F6F6F6F6F6F6F6F6F6F6F6F6FF1
:1043DC006F6F6F6F6F6F6F6F1334446F4B5F494824
:1043EC0004F08CF9484CFFF7A4FF2046FFF7C9FCFA
:1043FC00424B1B68002B55D1444B03221A705A7048
:10440C009A70DA7004214020FEF766FE0020FFF758
:10441C00DDFC3F4B01221A700024002C46D038BD25
:10442C000123354A1360354A1360314B1B78012B3D
:10443C0001D0384CD7E72D4B25221A70364CD2E7D9
:10444C0001232D4A13602D4A1360344CCBE7012312
:10445C00294A1360294A1360254B1B78012B05D080
:10446C00F3B9274B01221A602D4CBCE71F4B2F22AE
:10447C001A702C4CB7E701231F4A13601F4A1360B4
:10448C001B4B1B78042B01D01F4CACE7264804F0C7
:10449C0035F91D4CA7E7254804F030F91A4CA2E772
:1044AC001F4CA0E72248FFF76CFCA5E70023214A2C
:1044BC001355214A1355214A13550725134B1D55E6
:1044CC0001200BF01FFB1E4B1D701E4B14221A708B
:1044DC001D4B1B78012B02D00134E4B29DE7012166
:1044EC000846FFF7A7FBF7E7D004002003050020E0
:1044FC00F4040020188D0108CC040020780400205E
:10450C00A0040020348D010848900108C404002048
:10451C0002050020488F0108F092010898930108C9
:10452C00EC930108D49101083C8D01084C8D0108D5
:10453C0074930108F80400209804002070040020F3
:10454C001C000020200000201E01002030B4044676
:10455C0000200125072102460BE044FA01F32B4011
:10456C005BB20343D8B26D00EDB20239C9B201326D
:10457C00D2B2032AF1D98025072100220AE004FADD
:10458C0001F32B405BB20343D8B26D080239C9B2B8
:10459C000132D2B2032AF2D930BC70476D4B1A7873
:1045AC006D4B1A706D4B1A786D4B1A706D4B1B78E6
:1045BC00172B30D0062B37D0072B3CD0092B41D0F2
:1045CC00082B46D00A2B4BD00C2B50D00B2B55D094
:1045DC000D2B5AD00F2B5FD00E2B64D0112B69D022
:1045EC00102B6ED0132B73D0122B78D0142B7DD0B4
:1045FC00212B00F08580222B00F08980232B00F0EA
:10460C008D80242B00F09180252B00F09580262B9B
:10461C0000F0998070470023534A1370534A0721C6
:10462C0011704D4A137070474F4B00221A704F4B4C
:10463C0008221A7070474C4B00221A704B4B1022F8
:10464C001A707047484B00221A70484B04221A709B
:10465C007047454B00221A70444B02221A70704767
:10466C00414B00221A70414B0C221A7070473E4B82
:10467C0000221A703D4B0A221A7070473A4B0022E6
:10468C001A703A4B14221A707047374B00221A706A
:10469C00364B12221A707047334B02221A70334B6E
:1046AC0000221A707047304B04221A702F4B0022D4
:1046BC001A7070472C4B01221A702C4B00221A7066
:1046CC007047294B00221A70284B80221A707047B1
:1046DC00254B00221A70254B20221A707047224B52
:1046EC0000221A70214B40221A70704700231E4A78
:1046FC0013701E4A1370184A1370194A13707047BE
:10470C00194B00221A70194B03221A707047164B62
:10471C0000221A70154B07221A707047124B002298
:10472C001A70124B07221A7070470F4B00221A7026
:10473C000E4B07221A7070470B4B02221A700B4B50
:10474C0000221A707047084B00221A70074B072280
:10475C001A705FE701050020FD040020730400209F
:10476C00C2040020D8040020FC04002071040020A6
:10477C00B54B1B78162B40F2D5832DE9F04182B056
:10478C00B24B1E78022E02D002B0BDE8F08104209C
:10479C00FFF715FB0120FEF789FCB620FEF792FC13
:1047AC000746B520FEF78EFCB420FEF78BFC17F005
:1047BC00F00F1AD017F0800F5FD117F0400F04D014
:1047CC00A14B9B78162B00F2BB8017F0200F04D066
:1047DC009D4B5B78162B00F2128117F0100F04D052
:1047EC00994B1B78162B00F28D81994B1B68012B72
:1047FC00CAD1984B1C78984B1D5D002D40F01B8244
:10480C00964B1B5D083BDBB2012B00F24D82944BA7
:10481C001F78944B93F80080934B1B780F2B00F070
:10482C00D1810E2B00F0CD81102B00F01582112BB5
:10483C0000F01482122B00F01482132B00F014825F
:10484C00062B00F01482072B00F01482092B00F0C9
:10485C001482082B00F014820A2B00F015820C2B0A
:10486C0000F015820B2B00F015820D2B00F0158239
:10487C00172B00F015822E46A4E1734BDB78162B18
:10488C009BD90320FFF79BFA00258A2408E02046D9
:10489C00FEF718FC754B58550135EDB20134E4B2F6
:1048AC00A12CF4D90021A720FEF716FC8321A72008
:1048BC00FEF712FC002305E05A1C6C49885C6C491D
:1048CC00C854D3B2042BF7D9052306E09A1C6749C8
:1048DC00895C674AD1540133DBB2092BF6D96548A0
:1048EC0003F098FE002406E0614B195D624803F06A
:1048FC0091FE0134E4B2052CF6D95D4C617A5E4828
:10490C0003F088FEE378612B7FF457AF637A9E2B1C
:10491C007FF453AF594B197841F00801197058487E
:10492C0003F078FE2379382B7FF447AF6379022BA1
:10493C007FF443AF514A137823F0080313703CE71C
:10494C000220FFF73CFA00258A2408E02046FEF7F7
:10495C00B9FB464B58550135EDB20134E4B2A12CEC
:10496C00F4D90021A720FEF7B7FB8321A720FEF77F
:10497C00B3FB002305E05A1C3C49885C4149C854F0
:10498C00D3B2042BF7D9052306E09A1C3749895C6E
:10499C003C4AD1540133DBB2092BF6D93A4803F027
:1049AC0039FE002406E0374B195D334803F032FE24
:1049BC000134E4B2052CF6D9324C617A2E4803F05E
:1049CC0029FEE378612B7FF400AF637A9E2B7FF492
:1049DC00FCAE2A4B197841F004011970284803F0F9
:1049EC0019FE2379382B7FF4F0AE6379022B7FF418
:1049FC00ECAE224A137823F004031370E5E6012091
:104A0C00FFF7DDF900258A2408E02046FEF75AFB63
:104A1C00164B58550135EDB20134E4B2A12CF4D942
:104A2C000021A720FEF758FB8321A720FEF754FB9B
:104A3C00002305E05A1C0D49885C1449C854D3B2B4
:104A4C00042BF7D905232AE0F80400209804002051
:104A5C00D40400204101002070040020C404002074
:104A6C000105002073040020D8040020A8040020B5
:104A7C00600400205C8C0108648C01084201002059
:104A8C006C8C0108E8040020808C01087C04002058
:104A9C009A1CB749895CB74AD1540133DBB2092B54
:104AAC00F6D9B54803F0B6FD002406E0B14B195D0C
:104ABC00B24803F0AFFD0134E4B2052CF6D9AD4C8D
:104ACC00617AAE4803F0A6FDE378612B7FF485AEE6
:104ADC00637A9E2B7FF481AEA94B197841F00201C9
:104AEC001970A84803F096FD2379382B7FF475AE26
:104AFC006379022B7FF471AEA14A137823F0020381
:104B0C0013706AE60020FFF75AF900258A2408E0A2
:104B1C002046FEF7D7FA964B58550135EDB20134C5
:104B2C00E4B2A12CF4D90021A720FEF7D5FA8321F9
:104B3C00A720FEF7D1FA002305E05A1C8C49885CAB
:104B4C009149C854D3B2042BF7D9052306E09A1C1B
:104B5C008749895C8C4AD1540133DBB2092BF6D9D5
:104B6C008A4803F057FD002406E0874B195D834803
:104B7C0003F050FD0134E4B2052CF6D9824C617A75
:104B8C007E4803F047FDE378612B7FF42EAE637A09
:104B9C009E2B7FF42AAE7A4B197841F001011970E3
:104BAC00784803F037FD2379382B7FF41EAE6379F8
:104BBC00022B7FF41AAE724A137823F001031370A0
:104BCC0013E604263046FFF7C1FC06462846FFF7DD
:104BDC00BDFC05463846FFF7B9FC07464046FFF7D3
:104BEC00B5FC80462046FFF7EAF831465A20FEF71E
:104BFC0073FA29465920FEF76FFA39466020FEF702
:104C0C006BFA41465F20FEF767FA61216F20FEF7D1
:104C1C0063FA0A20FEF74AFA60216F20FEF75CFA6D
:104C2C00CDF800803B462A463146594803F0F2FC49
:104C3C00584B00221A60584B1878584B1B5C022BAF
:104C4C005BD0554B1B78554AD35C012B00F0098186
:104C5C00504B00221A6097E50126B3E72E468025BB
:104C6C00B0E72E464025ADE72E462025AAE72E4676
:104C7C000825A7E72E461025A4E72E460425A1E714
:104C8C0033462E461D469DE72E460C259AE72E46AA
:104C9C000A2597E72E46142594E72E46122591E710
:104CAC002F462E4607258DE72046FFF788F83C4C0B
:104CBC0021785920FEF710FA3A4D29785A20FEF740
:104CCC000BFA394E31785D20FEF706FA374B19781E
:104CDC006020FEF701FA41216F20FEF7FDF90A2052
:104CEC00FEF7E4F940216F20FEF7F6F933782A78C5
:104CFC0021782F4803F08EFC9AE7FFF760F8A52186
:104D0C006E20FEF7E9F902216E20FEF7E5F9244B3F
:104D1C001B78063B092B00F29380DFE803F04D5E15
:104D2C00806F91919191910550216E20FEF7D4F9ED
:104D3C0000216E20FEF7D0F900216E20FEF7CCF991
:104D4C0000216E20FEF7C8F949216F20FEF7C4F947
:104D5C000520FEF7ABF948216F20FEF7BDF90D4B8E
:104D6C0000221A600E4B1978124803F053FC68E7C6
:104D7C00A80400207C040020888C0108648C0108A5
:104D8C00420100206C8C0108DC040020908C01088E
:104D9C00988C0108D40400204101002070040020EC
:104DAC00D8040020730400200105002072040020A8
:104DBC00B08C0108C48C010808216E20FEF78CF918
:104DCC0000216E20FEF788F9FF216E20FEF784F992
:104DDC0000216E20FEF780F9B6E704216E20FEF765
:104DEC007BF900216E20FEF777F9FF216E20FEF78C
:104DFC0073F900216E20FEF76FF9A5E702216E20F2
:104E0C00FEF76AF9FF216E20FEF766F900216E208D
:104E1C00FEF762F900216E20FEF75EF994E701219E
:104E2C006E20FEF759F9FF216E20FEF755F900218F
:104E3C006E20FEF751F900216E20FEF74DF983E745
:104E4C0000216E20FEF748F900216E20FEF744F990
:104E5C0000216E20FEF740F900216E20FEF73CF990
:104E6C0072E7FFF79BFB304B1878FEF7A8FF002189
:104E7C005A20FEF731F900216020FEF72DF90021B0
:104E8C006620FEF729F900216C20FEF725F9452153
:104E9C006F20FEF721F944216F20FEF71DF9232026
:104EAC00FDF780FB214D2878FFF750FB01465A2077
:104EBC00FEF712F91E4E3078FFF748FB01466020D2
:104ECC00FEF70AF91B4F3878FFF740FB01466620C6
:104EDC00FEF702F9184C2078FFF738FB01466C20DE
:104EEC00FEF7FAF845216F20FEF7F6F844216F2003
:104EFC00FEF7F2F82320FDF755FB104B00221A6049
:104F0C000F4B1B780F4A12780F4909780F4802F0A3
:104F1C00E1FC3B7832782978207800900C4802F03C
:104F2C00D9FC95E6704700BF41010020FC0400202D
:104F3C0071040020FD040020C2040020D4040020D1
:104F4C000105002073040020D8040020D08C010837
:104F5C00E88C0108074B0F221A700023064A1370C5
:104F6C00064A1370064BC5221A70064B01221A60B2
:104F7C00704700BFD80400207304002001050020F6
:104F8C0072040020D404002008B5444803F042FB0E
:104F9C0004214020FEF7A0F88321A720FEF79CF8FF
:104FAC008021BE20FEF798F842216F20FEF794F87E
:104FBC0040217020FEF790F820217120FEF78CF82C
:104FCC0000217220FEF788F80021C020FEF784F83B
:104FDC000021C120FEF780F80B21C220FEF77CF8DF
:104FEC000C21C320FEF778F80D21C420FEF774F8CD
:104FFC000E21C520FEF770F81921C620FEF76CF8BB
:10500C007821C720FEF768F82121C820FEF764F844
:10501C000721CB20FEF760F80821CC20FEF75CF8C6
:10502C000921CD20FEF758F80A21CE20FEF754F8BE
:10503C000421CF20FEF750F80021D020FEF74CF8C9
:10504C000021D120FEF748F86021D220FEF744F869
:10505C001021D320FEF740F80621D420FEF73CF8AF
:10506C00BE21D520FEF738F83921D620FEF734F8CA
:10507C002721D720FEF730F80E21C220FEF72CF89E
:10508C000F21C320FEF728F81021C420FEF724F8C6
:10509C001121C520FEF720F808BD00BF008D0108C6
:1050AC00F0B583B000240CB103B0F0BD2046FEF780
:1050BC0086FE0120FEF706F8064610F0800F34D16C
:1050CC002546A44B1B5D083BDBB2012B5CD9A24BE4
:1050DC0060221A70A04B1B78B34359D09F4B5B5D79
:1050EC00002B78D0022B00F081809D4A525DFF2A64
:1050FC0002D001329A494A55032B23D1984B5B5D60
:10510C00022B1FD9954B01225A55954B00225A550B
:10511C002146944B1878FEF721FE2946924803F05D
:10512C0079FA20460AF0EEFC0CE08C4B1B5DB3B117
:10513C008E4B1B78012B1AD0FFF70CF98B4B1B787D
:10514C00012B1DD02546854B1B5D012B59D0834B64
:10515C005B5D022B00F0CC800134E4B2A3E7804B02
:10516C001B5DFF2BF8D001337D490B55F4E7012172
:10517C000846FEF75FFD00213220FDF755FFDBE707
:10518C000120FCF769F8DDE7734B60221A70A1E788
:10519C00724B5B5D022B0BD093B9704B01225A55AD
:1051AC006F4B00225A552946714803F033FAC9E770
:1051BC006B4B5B5DFF2BC5D00133694A5355C1E77F
:1051CC00664B02225A55664B00225A5529466948AD
:1051DC0003F020FAB6E7614B01225A55604B0022CE
:1051EC005A552946644803F015FAABE75B4B03228A
:1051FC005A555B4B00225A552946604803F00AFA6F
:10520C00A0E70320FDF75EFF00F008025C4B1A607C
:10521C0000F007024F4B1F5D062A11D0042A18D04C
:10522C00052A4FD0022A1ED03ABB564B1B68002BC6
:10523C0049D04B4B5B5D13F0020F44D0262242E069
:10524C00514B1B68002BE9D016F0040F34D0092207
:10525C0039E04C4B1B688BB3414B5B5D13F0020F79
:10526C002ED10C222FE0474B1B6863B33C4B5B5D8C
:10527C0013F0020F27D0232225E0032A23D9414B18
:10528C001B680BB93A461EE009212F20FDF724FFBD
:10529C000420FDF717FFA0F14903DBB20B2B21D93A
:1052AC00A0F15603DBB20B2B1ED9A0F17103DBB2BC
:1052BC000E2B1BD93A4606E0082204E00C2202E031
:1052CC00242200E00D22234B5B5D93423FF43FAF61
:1052DC00204B5A5529462D4803F09CF92046FEF7E1
:1052EC0075FD34E72022EEE72222ECE72522EAE7DF
:1052FC001B4B5B5D002B7AD1254B00225A55254B5D
:10530C001C70144B5B5D0C3BDBB2012B50D9A4F130
:10531C000A00214B595DC0B2FDF7DEFE114B1B7824
:10532C002F2B54D01D4B595DF720FDF7D5FE1C4B90
:10533C00595DFA20FDF7D0FE1A4B1B781A4A1178EA
:10534C008B423FF409AF174B1970184803F062F900
:10535C0002E700BFC4040020C3040020980400200E
:10536C00F8040020030500205C8A01081E010020BF
:10537C00008A0108148A01082C8A0108408A010855
:10538C00C8040020A0040020CC040020788A010866
:10539C00700400206C040020748D0108788D0108C5
:1053AC007C8D01080205002074040020948A0108F9
:1053BC000320FDF787FE10F0080FA8D1BA4A535D01
:1053CC0023F0080353552046FEF700FD9FE7B74B2B
:1053DC00595DF820FDF780FEB54B5D5D2946FA203E
:1053EC00FDF77AFE2946FB20FDF776FEA4E7012B9C
:1053FC007ED0022B00F0B880032B00F0F380062B3C
:10540C0040F24281132B40F27181142B00F09281F7
:10541C00152B00F02482162B7FF49EAEA54B5B5D02
:10542C009BBBA14B5B5D083BDBB2012B40F2328294
:10543C00A148FEF7A6FC9C4B5B5D023BDBB2012B4B
:10544C0040F22A8221464020FDF746FE8021BE20F4
:10545C00FDF742FEB620FDF735FEB520FDF732FE16
:10546C00B420FDF72FFE0021A720FDF735FE01200B
:10547C00FDF71CFE8321A720FDF72EFE8A4B5B5DFA
:10548C00023BDBB2012B40F20C828A4B5B5D012BA1
:10549C0000F00E82874B5B5D022B7FF45DAE87487C
:1054AC00FEF76FFC21464020FDF716FE8021BE2042
:1054BC00FDF712FEB620FDF705FEB520FDF702FE46
:1054CC00B420FDF7FFFDA420FDF7FCFDA220FDF7A5
:1054DC00F9FDA320FDF7F6FD0021A720FDF7FCFD4B
:1054EC000120FDF7E3FD8321A720FDF7F5FD33E651
:1054FC00734B1B78232B7FF62FAE0120FDF7E2FDBB
:10550C00064601466F4803F085F8674B595DA1F1DB
:10551C000803DBB2012B23D906F06406602E7FF45E
:10552C001BAE0B1FDBB2012B7FF616AE0C293FF422
:10553C0013AE0D293FF410AE00293FF40DAE012936
:10554C003FF40AAE2046FEF70FFE00283FF404AEEF
:10555C00584B02225A5529465B4803F05BF8FBE591
:10556C005A4803F057F8F7E5554B1B78232B7FF679
:10557C00F3AD0120FDF7A6FD06460146514803F0A8
:10558C0049F8494B595DA1F10803DBB2012B25D930
:10559C0006F01103102B03D0464B5B5D022B0FD092
:1055AC0016F0040F7FF4D8AD0B1FDBB2012B07D91B
:1055BC000C2905D00D2903D011B101297FF4CCADF4
:1055CC002046FEF779FD00283FF4C6AD394B012289
:1055DC005A5529463E4803F01DF8BDE53B4803F0FB
:1055EC0019F8B9E5364B1B78232B7FF6B5AD0120A6
:1055FC00FDF768FD06460146324803F00BF82A4BCE
:10560C00595D8B1EDBB2012B24D9012B29D90B1F21
:10561C00DBB2012B06D90C2904D00D2902D009B11B
:10562C00012906D116F0040F03D1224B5B5D012B2F
:10563C0022D0A1F10803DBB2012B21D916F0010F06
:10564C003FF48AAD2046FEF7C1FB2946214802F003
:10565C00E1FF81E516F0040FD7D11F4802F0DAFF05
:10566C007AE516F0040FD2D0124B5B5D002BCED135
:10567C001A4802F0CFFF6FE5194802F0CBFF6BE53B
:10568C00184802F0C7FF67E5174E06EB85039A78BA
:10569C00DA705A789A7016F825205A70FEF7F0FDD9
:1056AC0006F8250058E500BFC4040020788D0108D9
:1056BC007C8D010870040020889101080490010879
:1056CC0003050020AC8A0108CC8A0108BC8A0108B9
:1056DC00E08A0108648B0108F48A0108108B010828
:1056EC002C8B0108508B01089C040020864F07EB83
:1056FC008506B378F3707378B37017F82530737030
:10570C00FEF7BEFD07F82500F3781B1A0133022BB8
:10571C003FF622ADB3781B1A0133022B3FF61CADBA
:10572C0073781B1A0133022B3FF616AD774B1322FD
:10573C005A5511E5FEF7A4FD0646754B5B5D754F9A
:10574C007A5D00922A460146734802F063FF7B5D46
:10575C009A1ED2B2012A12D9012B3CD91A1FD2B2ED
:10576C00012A3CD9A3F10C02D2B2012A3BD9082B55
:10577C003DD0092B3FD1694B01225A5502E0674BB2
:10578C0006225A55654B5A5D654B1A70654B1B7852
:10579C00012B34D0614B5A5D634B5B5D9A4205D053
:1057AC00624B1B782946624802F034FF584B5B5D14
:1057BC005BBB604B1B78243BDBB2012B38D9554BC0
:1057CC005B5D082B43D0092B45D040F627115A4876
:1057DC0002F020FFC0E4514B05225A55D2E74F4B43
:1057EC0005225A55CEE74D4B05225A55CAE74B4B6D
:1057FC0000225A55C6E7494B14225A55C2E740219C
:10580C004FF47A7002F018F9C4E7B10861F07F0127
:10581C00C9B20720FDF760FC3D4B5B5D012B03D04B
:10582C00464802F06BFF97E4454802F067FF93E4AB
:10583C00384B5B5D13F0200FC1D00321B6FBF1F1A7
:10584C0061F07F01C9B20720FDF746FCB7E73D4880
:10585C0002F054FF80E43C4802F050FF7CE42C4BF7
:10586C005B5D83B9334B1B78243BDBB2012B3FF6DA
:10587C0073AC284B5B5D13F0200F3FF46DAC16201E
:10588C00FEF707FD68E42046FEF7C6FC0C20FEF789
:10589C0000FD61E42D48CCE51921C620FDF71CFC68
:1058AC00D0E52B4B1C7029462A4802F0B3FEECE5E0
:1058BC00FFF76AFB2848FEF764FA21464020FDF703
:1058CC000BFC04214020FDF707FC8021BE20FDF7D6
:1058DC0003FCB620FDF7F6FBB520FDF7F3FBB42077
:1058EC00FDF7F0FB2421A720FDF7F6FB0120FDF7C7
:1058FC00DDFBA7210846FDF7EFFB154B1978174880
:10590C0002F088FEC6E500BF9C040020F8040020CD
:10591C0070040020C4040020788B010820000020B3
:10592C001C0000201E01002060070020E800002061
:10593C00A48B010803050020248C0108F08B0108BE
:10594C00E48B0108FC8B0108108C0108C08F010846
:10595C0041010020388C0108608F0108448C01083B
:10596C00044B1A78044B1B789A4201D001207047E3
:10597C00002070474601002047010020044B1A7894
:10598C00044B1B789A4201D00120704700207047CD
:10599C004401002045010020064A13780649C85CE2
:1059AC000133DBB213701D2B02D9134600221A707F
:1059BC00704700BF4701002040050020064A1378BD
:1059CC000649C85C0133DBB21370C72B02D91346EE
:1059DC0000221A70704700BF45010020800500208E
:1059EC0000B583B002A901F8010D4FF6FF73012237
:1059FC000248FCF7F9FB03B05DF804FB70030020D0
:105A0C0000B583B002A901F8010D4FF6FF73012216
:105A1C000248FCF7E9FB03B05DF804FBF40300203B
:105A2C0000B583B0194B1A786AB9194B1A78D2B9E8
:105A3C00184B1A7812BB184B1A78184B197818484F
:105A4C0001F048FF0CE0124B1B78144909781248FE
:105A5C00007801900F4800780090124801F03AFF4E
:105A6C0003B05DF804FB0B4B1B780C4909780A4812
:105A7C00007800900C4801F02DFFF1E7064B1B78E5
:105A8C0006490978094801F025FFE9E74C01002097
:105A9C0058010020590100205A0100202800002044
:105AAC00389A0108E4990108049A0108209A01081F
:105ABC0008B5FFF795FF08BD0246A0F13003D8B238
:105ACC00092812D9A2F16103DBB2052B08D9A2F186
