:020000040800F2
:1000000000500020318600088D1700088F17000867
:1000100091170008931700089517000800000000CA
:10002000000000000000000000000000971700081A
:1000300099170008000000009B1700089D17000892
:100040007986000879860008798600087986000894
:100050007986000879860008798600087986000884
:10006000A5170008798600087986000879860008B7
:100070007986000879860008798600087986000864
:100080007986000879860008798600087986000854
:100090007986000879860008798600087986000844
:1000A0007986000879860008798600087986000834
:1000B00079860008B117000879860008798600085B
:1000C0007986000879860008798600087986000814
:1000D00079860008C1170008D11700087986000842
:1000E00079860008798600087986000800000000FB
:1000F0000000000000000000000000000000000000
:0C01000000000000000000005FF808F1A3
:10010C0010B5054C237833B9044B13B10448AFF345
:10011C0000800123237010BDF800002000000000B7
:10012C004423010808B5034B1BB103490348AFF343
:10013C00008008BD00000000FC00002044230108E2
:10014C00002902D0B0FBF1F0704708B14FF0FF303E
:10015C0000F01EB80029F8D00246B0FBF1F000FB0D
:10016C0011217047002902D090FBF1F07047002854
:10017C00C8BF6FF00040B8BF4FF0004000F008B8A7
:10018C000029F4D0024690FBF1F000FB11217047DE
:10019C00704700BFF0B589B000250495059506950C
:1001AC0007952E4B9A6942F004029A619A6902F003
:1001BC0004020092009A9A6942F008029A619A69C4
:1001CC0002F008020192019A9A6942F010029A61B7
:1001DC009A6902F010020292029A9A6942F0200285
:1001EC009A619B6903F020030393039B1C4F01222C
:1001FC004FF48051384602F037FE2023049301243B
:10020C00059406940226079604A9384602F02EFDA2
:10021C0010230493059506940DEB0301384602F068
:10022C0025FD4FF4E053049305940694079604A916
:10023C000C4802F01BFD04960594069407960A4E92
:10024C0004A9304602F012FD492304930595069447
:10025C0004A9304602F00AFD09B0F0BD00100240BE
:10026C0000080140000C01400010014030B587B07F
:10027C0000240294039404940594009401940E4D6C
:10028C000E4B2B6023236B60AC600923EB602C615D
:10029C008023AB61284601F017FD4FF48053029385
:1002AC0002A9284601F0D6FD00940194694628461F
:1002BC0001F06EFE07B030BD0403002000040040C6
:1002CC0008B50848084B03604FF4E1334360002342
:1002DC008360C36003610C2242618361C36101F0DE
:1002EC005BFF08BD740300200038014008B50848C6
:1002FC00084B03604FF41643436000238360C360D4
:10030C0003610C2242618361C36101F045FF08BDAA
:10031C00F80300200044004000B583B000238DF8A2
:10032C0007300DF106010DF1070011F0EFFF0E4B38
:10033C001B78042B03D00D4A1278934208D00B4B38
:10034C001B789DF807100A4AD15403B05DF804FBE2
:10035C00084B1B789DF807008342F0D0054B1870B2
:10036C0009F0CAFCEBE700BF3C010020610700204C
:10037C0034010020FD01002010B50138012809D8F6
:10038C0014464FF47A7392B2074801F037FF40B12C
:10039C00002010BD08F06CF9092303604FF0FF300A
:1003AC00F7E72046F5E700BF7403002038B55B4B38
:1003BC001870042820D8DFE800F02044688C030073
:1003CC00574D01224021284602F04EFD554C01228A
:1003DC002021204602F048FD01221021204602F087
:1003EC0043FD01220821204602F03EFD01224FF47C
:1003FC000041284602F038FD38BD494D012240210C
:10040C00284602F031FD474C00222021204602F004
:10041C002BFD01221021204602F026FD012208218D
:10042C00204602F021FD01224FF40041284602F043
:10043C001BFD3D4C207809F05FFC22783B4B1A7079
:10044C00DAE7374D01224021284602F00DFD354CEC
:10045C0001222021204602F007FD00221021204617
:10046C0002F002FD01220821204602F0FDFC0122CF
:10047C004FF40041284602F0F7FC2B4C607809F051
:10048C003BFC6278294B1A70B6E7254D00224021BF
:10049C00284602F0E9FC234C01222021204602F0E0
:1004AC00E3FC01221021204602F0DEFC0022082190
:1004BC00204602F0D9FC01224FF40041284602F0FC
:1004CC00D3FC194CA07809F017FCA278174B1A70C2
:1004DC0092E7134D00224021284602F0C5FC114C36
:1004EC0001222021204602F0BFFC012210212046CF
:1004FC0002F0BAFC01220821204602F0B5FC0022D1
:10050C004FF40041284602F0AFFC074CE07809F0AC
:10051C00F3FBE278054B1A706EE700BF3C0100203C
:10052C0000080140000C014034010020FD010020B6
:10053C0010B50446012809D001220821064802F012
:10054C0093FC2146054807F031FA10BD0022082122
:10055C00014802F089FCF4E7001001404C2401082A
:10056C0008B507F0C5FA08BD70B582B0184B00226B
:10057C001A709C200AF0CAFD04469D200AF0C6FDA4
:10058C000546A1200AF0C2FD0646A2200AF0BEFDD7
:10059C00BC2C02D0002002B070BD072D01D0002071
:1005AC00F9E7102E01D00020F5E7B82801D0002083
:1005BC00F1E7084B1B7801930124009440F2994316
:1005CC00054A0649064808F091F82046E3E700BFC3
:1005DC00610700206407002014250108702301081E
:1005EC007C23010830B583B000241EE0774B1B78C8
:1005FC00142B03D0764B01221A5523E0744B0022A6
:10060C001A551FE00120FFF793FF724B1D78704BBA
:10061C005B5D012B55D06F4B1B786F4AD25C6F49D9
:10062C00C95C8A425AD10134E4B2012C00F2CC806C
:10063C00684B1C70012CD9D011F07AFE654B1B78DD
:10064C00634AD054634B1B78654AD15C654AD25CD3
:10065C00914201D06249CA545D4AD25C6249C95C7C
:10066C008A42D2D06049CA54002ACED120460FF01B
:10067C00B5FA631C00934FF499635C4A5C495D487E
:10068C0008F034F85C4BDB794BB101225B4B1A6000
:10069C0000235B490B605B490A705B4A13704D4B3E
:1006AC001B7814224C49CA544C49CA54574A1278E4
:1006BC00002AA7D1002BA5D10121002003F03CFB7F
:1006CC00A0E7012C05D0284611F02EFD424B5855C1
:1006DC00A1E73E4B1A78404B5A559CE73F49CA5408
:1006EC00FFF742FF00284DD13A4B1B783A4AD35CB6
:1006FC00142B98D02546404B1A78374B195D204661
:10070C000FF0E0F8414B1B78012B45D0404B33F8F0
:10071C001530404A32F815203F4931F815103F4842
:10072C0030F81500009020460FF088FE2A4B5B5DD8
:10073C000193013500954FF49F632C4A2C4938489E
:10074C0007F0D4FF2C4BDB794BB101222B4B1A60F9
:10075C0000232B490B602B490A702B4A13702B4B2F
:10076C001B7813B91B4B1B78FBB1284B1B78012B47
:10077C0020D0184B1B78002B7FF455AF0020FFF7CF
:10078C00D7FE50E7631C009340F2EC43174A18491C
:10079C00244807F0ABFF46E70E4B1B78012BB5D175
:1007AC000121192002F064FCB0E70021084603F097
:1007BC00C3FADAE7074B1B78012BDAD140214FF44F
:1007CC007A7007F0A5F9D4E703B030BD24000020FF
:1007DC003001002061070020640700200C0000207D
:1007EC0080070020380800202C0100202825010853
:1007FC00702301089C2301083C04002018010020F0
:10080C0024010020080000201501002022010020F6
:10081C00CC000020D4000020C4000020DC0000200C
:10082C007C230108C423010838B507F09FFE044659
:10083C0001461A4807F0BAF807F098FE41F208038F
:10084C0098420BD107F092FE41F2080398421BD15B
:10085C009C4213D1642002F04FFC38BD104D194658
:10086C00284607F0A3F841F2080007F0A5FE07F0B0
:10087C007DFE0146284607F099F8E3E707F0C0FE35
:10088C00084807F093F8E5E7074807F08FF80748A2
:10089C0007F08CF8064BFF221A70DEE718260108C9
:1008AC002C2601083C26010878260108942601080C
:1008BC00B503002010B588B060230193029000238B
:1008CC0003930593054C082201A9204601F048FA30
:1008DC000821204601F040FB08B010BDB8030020F1
:1008EC0038B50546002406E0295D044B185D02F07E
:1008FC00BFFB0134E4B2572CF6D938BD5887010838
:10090C0008B5034807F052F80248FFF7E9FF08BDA5
:10091C0080240108107E010808B5054807F046F848
:10092C000448FFF7DDFF1021D72002F0A1FB08BD22
:10093C00A8240108F084010808B5034807F036F82C
:10094C000248FFF7CDFF08BDCC240108E88301085D
:10095C0008B5034807F02AF80248FFF7C1FF08BDA5
:10096C00F02401083883010808B5FE4807F01EF88A
:10097C000021012002F07CFB0021022002F078FB18
:10098C007521032002F074FB1821042002F070FB87
:10099C008021052002F06CFB2021062002F068FB70
:1009AC000821072002F064FB4021082002F060FBC4
:1009BC000A21092002F05CFB41210A2002F058FBBD
:1009CC0007210B2002F054FB00210C2002F050FBFD
:1009DC0020210D2002F04CFB10210E2002F048FBD0
:1009EC0000210F2002F044FB8021102002F040FB7C
:1009FC008221112002F03CFB2121122002F038FB55
:100A0C00D021132002F034FBE021142002F030FB43
:100A1C007821152002F02CFBFE21162002F028FB79
:100A2C000021172002F024FBC821182002F020FB23
:100A3C000021192002F01CFB23211A2002F018FBC4
:100A4C0000211B2002F014FB00211C2002F010FBE3
:100A5C0000211D2002F00CFB20211E2002F008FBBF
:100A6C0032211F2002F004FB5A21202002F000FB4F
:100A7C000D21212002F0FCFA3221222002F0F8FA9A
:100A8C005A21232002F0F4FAD021242002F0F0FAAB
:100A9C002121252002F0ECFA0D21262002F0E8FAA3
:100AAC00E021272002F0E4FAF021282002F0E0FAFD
:100ABC000021292002F0DCFA00212A2002F0D8FAC9
:100ACC0001212B2002F0D4FAFF212C2002F0D0FAC5
:100ADC0000212D2002F0CCFA12212E2002F0C8FAAF
:100AEC00D0212F2002F0C4FAE021302002F0C0FA0D
:100AFC008021312002F0BCFA8021322002F0B8FAB9
:100B0C008021332002F0B4FAA021342002F0B0FA94
:100B1C001821352002F0ACFA4621362002F0A8FA52
:100B2C006421372002F0A4FA0021382002F0A0FA48
:100B3C00FF21392002F09CFA03213A2002F098FAA6
:100B4C0080213B2002F094FA80213C2002F090FAA4
:100B5C0080213D2002F08CFA80213E2002F088FAA0
:100B6C0080213F2002F084FA6021412002F080FABB
:100B7C005F21422002F07CFA3721432002F078FA00
:100B8C001421442002F074FA0421452002F070FA7A
:100B9C000021462002F06CFA0021472002F068FA8E
:100BAC000021482002F064FA0021492002F060FA8A
:100BBC0020214B2002F05CFA00214C2002F058FA64
:100BCC0000214D2002F054FA00214E2002F050FA80
:100BDC007F214F2002F04CFA2021502002F048FADD
:100BEC000021512002F044FA0021522002F040FA78
:100BFC000421532002F03CFA0021542002F038FA70
:100C0C00E021552002F034FA4021562002F030FA4F
:100C1C000421572002F02CFA0021582002F028FA67
:100C2C000821592002F024FA10215A2002F020FA4F
:100C3C0000215B2002F01CFA68215C2002F018FAFB
:100C4C0040215D2002F014FA08215E2002F010FA17
:100C5C0000215F2002F00CFAE021602002F008FA7B
:100C6C005421612002F004FA3321622002F000FAD0
:100C7C000121632002F0FCF9FF21642002F0F8F955
:100C8C000121652002F0F4F9FF21662002F0F0F951
:100C9C008921672002F0ECF9AB21682002F0E8F919
:100CAC008821692002F0E4F96E216A2002F0E0F953
:100CBC006E216B2002F0DCF96E216C2002F0D8F969
:100CCC0000216D2002F0D4F900216E2002F0D0F941
:100CDC0000216F2002F0CCF90021702002F0C8F93D
:100CEC000021712002F0C4F90021722002F0C0F939
:100CFC000021732002F0BCF90021742002F0B8F935
:100D0C00FF21752002F0B4F9FF21762002F0B0F932
:100D1C00FF21772002F0ACF9FF21782002F0A8F92E
:100D2C00FF21792002F0A4F9FF217A2002F0A0F92A
:100D3C00FF217B2002F09CF9FF217C2002F098F926
:100D4C00F0217D2002F094F980217E2002F090F9B0
:100D5C0000217F2002F08CF90021802002F088F91C
:100D6C0002E000BF642401083421812002F080F9E4
:100D7C004021822002F07CF90521832002F078F9D1
:100D8C005921842002F074F9FD21852002F070F9BC
:100D9C000421862002F06CF92421872002F068F9E6
:100DAC009421882002F064F95821892002F060F91E
:100DBC0000218A2002F05CF97E218B2002F058F988
:100DCC0003218C2002F054F92C218D2002F050F9D3
:100DDC008C218E2002F04CF900218F2002F048F972
:100DEC00CC21902002F044F94121912002F040F9ED
:100DFC00C421922002F03CF93121932002F038F901
:100E0C008721942002F034F9D021952002F030F99A
:100E1C00F321962002F02CF92021972002F028F9DA
:100E2C001121982002F024F99021992002F020F948
:100E3C00FF219A2002F01CF904219B2002F018F9E2
:100E4C000A219C2002F014F900219D2002F010F9D7
:100E5C0004219E2002F00CF965219F2002F008F974
:100E6C002F21A02002F004F9D921A12002F000F9D1
:100E7C009821A22002F0FCF88721A32002F0F8F8B8
:100E8C00E121A42002F0F4F83821A52002F0F0F8BA
:100E9C00C221A62002F0ECF87021A72002F0E8F89D
:100EAC000021A82002F0E4F81E21A92002F0E0F8AD
:100EBC002E21AA2002F0DCF80021AB2002F0D8F899
:100ECC008421AC2002F0D4F8F321AD2002F0D0F84C
:100EDC006521AE2002F0CCF89921AF2002F0C8F8C1
:100EEC000021B02002F0C4F80021B12002F0C0F8BB
:100EFC000021B22002F0BCF80021B32002F0B8F8B7
:100F0C000021B42002F0B4F80021B52002F0B0F8B2
:100F1C000021B62002F0ACF88021B82002F0A8F82D
:100F2C000021B92002F0A4F80121BA2002F0A0F8A7
:100F3C000021BB2002F09CF89021BC2002F098F814
:100F4C000121BD2002F094F82C21BE2002F090F873
:100F5C000021C02002F08CF82021C12002F088F87A
:100F6C002021C22002F084F82021C32002F080F856
:100F7C002021C42002F07CF82021C52002F078F852
:100F8C00FF21D02002F074F83F21D12002F070F83C
:100F9C00C221D22002F06CF83F21D32002F068F875
:100FAC000021D42002F064F80021D52002F060F872
:100FBC000021D62002F05CF81021D72002F058F85E
:100FCC000021D82002F054F87721DC2002F050F8F0
:100FDC000021DD2002F04CF8AF21DE2002F048F8B1
:100FEC00EF21DF2002F044F80021E02002F040F86D
:100FFC000021E12002F03CF80021E22002F038F858
:10100C001221E32002F034F8E221E42002F030F85F
:10101C00D021E52002F02CF80021E62002F028F87F
:10102C000021E72002F024F80F21E82002F020F83C
:10103C000021E92002F01CF80021EA2002F018F847
:10104C000021EB2002F014F88821EC2002F010F8BB
:10105C000021ED2002F00CF80021EE2002F008F83F
:10106C000021EF2002F004F83021F02002F000F80B
:10107C004321F12001F0FCFF1F21F22001F0F8FFC9
:10108C001F21F32001F0F4FF2221F42001F0F0FFE6
:10109C007321F52001F0ECFF5321F62001F0E8FF5D
:1010AC008021F72001F0E4FF0121F82001F0E0FF9E
:1010BC000121F92001F0DCFF0021FA2001F0D8FF1A
:1010CC000021FB2001F0D4FF0021FC2001F0D0FF17
:1010DC007021FD2001F0CCFF4021FE2001F0C8FF63
:1010EC000721FF2001F0C4FF08BD00BF70B590B010
:1010FC002022002107A807F0F0FA002401940294A2
:10110C000394049405940225069501260A9610234F
:10111C000B930D954FF4E0130F9306A801F076FA9C
:10112C000F2301930295039404940594314601A86E
:10113C0001F0BEFC10B070BD0268184B9A4200D092
:10114C007047174A13780133DBB2137015490A68DC
:10115C0001320A6014490A6801320A60632B09D90A
:10116C00124A1368013313600D4B00221A70104B96
:10117C0001221A600F4B1A6801321A601A680E4B62
:10118C009A42DDD90B4B00221A600C4B1B78012BB9
:10119C00D6D10B4A137801331370D1E70004004009
:1011AC005F01002060010020640100205801002034
:1011BC005401002040010020A086010008000020FE
:1011CC001501002010B504460268184B9A4204D051
:1011DC002268174B9A4214D010BD16490A78531C3A
:1011EC00DBB20B7014490878144988541D2B02D9B2
:1011FC00104B00221A7001220F49114801F06EF8B1
:10120C00E6E710490A78531CDBB20B700E490878DC
:10121C000E498854C72B02D90A4B00221A7001229E
:10122C0009490B4801F05AF8D6E700BF00380140D5
:10123C00004400404A010020200100204405002009
:10124C0074030020480100201C01002084050020AC
:10125C00F80300207047000038B5012834D0002175
:10126C00322001F005FF0021192001F001FF0024BC
:10127C00404B1C70404807F0ADFA40480470012305
:10128C0043700EF055FD2146192001F0F1FEFFF7D9
:10129C006BF940B93A4B1B78012B10D0012100207F
:1012AC0002F04AFD2FE041F2A413364A3649374882
:1012BC0007F01CFA0121204602F03EFD23E000213C
:1012CC00084602F039FD1EE00021322001F0D0FE6C
:1012DC00284C012525702E4807F07CFA274805700C
:1012EC00022343700EF024FD0421192001F0C0FEEE
:1012FC002378AB420ED0224B5B78012B35D00121E9
:10130C00084602F019FD234B00221A70224B0122D1
:10131C001A7038BD214B1B78072B10D0204807F0D2
:10132C00E5F9204B1B78052B13D0062B14D0B3B149
:10133C00012B17D00121102001F09AFEDBE7FFF7FB
:10134C00DFFA194807F0D2F92946284602F0F4FCD6
:10135C00D1E7FFF7E1FACEE7FFF7D2FACBE7FFF7D9
:10136C00EBFAC8E7FFF7F4FAC5E70021012002F019
:10137C00E3FCC8E722010020EC2301083C04002018
:10138C0030010020542501087023010800240108B5
:10139C00282401081501002008000020C8040020A2
:1013AC0044240108200000203C24010800B583B02F
:1013BC0067E0134600221A7008F0C4FB70E05E4A26
:1013CC0013780133DBB213705C4A1278934240F20B
:1013DC0085800021584B1970594B19705B78032B81
:1013EC0014D8013356494B70554C637801920093D5
:1013FC004FF40563534A5449544807F077F9204693
:10140C000EF096FC524B00221A7067E04C4B0121F7
:10141C005970E9E74A4B5B784D4A12780192009378
:10142C0040F65803474A48494A4807F05FF959E0E3
:10143C00474B1B78092B59D90023454A1370464A50
:10144C00137002F036FC51E08021322001F010FEC6
:10145C0051E0FFF701FF01E005F084FA04F006FB10
:10146C000028F9D13D4B1B68002BF7D001E006F0AA
:10147C0013FD04F009FB0028F9D106F0EBFC03F096
:10148C00FDF9364B1B68012BE8D1FFF7ABF8FEF7E3
:10149C0043FF334A13780133DBB213700A2B88D81D
:1014AC000A2001F0CDFD2F4A138801339BB2138023
:1014BC00642B06D9134600221A80254A137801336F
:1014CC001370234B1B78284A1268934213D0264A78
:1014DC001360264B1B78012B3FF471AF234B1B7809
:1014EC00012B97D01C4B1B78012BA1D0322001F083
:1014FC00B5FD0028A8D003F059FE10211C4801F0BE
:10150C00ABFC1C4B18701C4B1B789842A6D032209D
:10151C0001F096FD1021164801F09EFC154B187039
:10152C00154B1B78984299D0134B1870012890D00A
:10153C000020FFF791FE91E73B01002012000020F4
:10154C003C0400204825010870230108A42601084A
:10155C0015010020C82601080800002028000020E2
:10156C002801002038010020040000203A0100204E
:10157C000008014014010020220100202DE9F04355
:10158C0083B000F0F5FFFFF7B1FDFEF7E9FFFEF7C2
:10159C0001FEFEF76BFEFEF793FEFEF7A7FE09F0C9
:1015AC0035FD09F0DFFF0AF085F90AF06FFC012127
:1015BC00002002F0C1FB0120FEF7BAFF322001F03F
:1015CC003FFD01225749584800F088FE0122574937
:1015DC00574800F083FE574D00224FF480512846A7
:1015EC0001F042FC544C00220221204601F03CFC4C
:1015FC00642001F025FD01224FF48051284601F0B2
:10160C0033FC01220221204601F02EFC002420E0B4
:10161C004A4B1C704A4E4B4D009440F23E7332467E
:10162C002946494807F062F8002010F07AFE802124
:10163C00892009F0A7FD022009F068FD01900094B3
:10164C0040F2447332462946404807F04FF80134C3
:10165C00E4B2012CDCD93E4C0025257065710126C5
:10166C00A67166700223A3700327E770042323710D
:10167C0038490F2002F040FBFFF7D6F802F0F0FEDD
:10168C00284601F0EBFCDFF8B890DFF8B88000904A
:10169C0040F272734A4641462F4807F027F840F251
:1016AC0073734A4641462D4807F020F8E771A6713E
:1016BC0025726572284601F071FE20460EF038FB4B
:1016CC00E3793BB1264B1E6026490D6026490E700E
:1016DC00264A157026485D2300F8013B20226D2117
:1016EC0006F0FBFF012221230AE002F17F002049D2
:1016FC00C854581C6D240C540132D2B20233DBB2E4
:10170C00402BF2D91F226D211A4806F0E6FF00206B
:10171C00FEF74CFE184800F0CBF9184806F0E6FF2F
:10172C00FFF744FE20010020740300201C01002060
:10173C00F8030020000C014000100140610700205C
:10174C004025010870230108642501088C25010837
:10175C003C040020349D0108BC250108E02501084B
:10176C001801002024010020080000201501002091
:10177C00000200203F02002004030020082601087C
:10178C007047FEE7FEE7FEE7FEE7704770477047DD
:10179C0008B500F0FFFE08BD08B5042001F06AFB97
:1017AC0008BD000008B5024800F09CF908BD00BF58
:1017BC000403002008B5024800F01EFE08BD00BF5F
:1017CC007403002008B5024800F016FE08BD00BFE7
:1017DC00F803002082B00E4B9A6942F001029A6124
:1017EC009A6902F001020092009ADA6942F0805282
:1017FC00DA61DB6903F080530193019B054A53685E
:10180C0023F0E06343F00073536002B0704700BFF5
:10181C00001002400000014002680E4B9A4200D0BA
:10182C00704700B583B003F50333DA6942F0020266
:10183C00DA61DB6903F002030193019B002211467C
:10184C001D2001F081FB1D2001F0B0FB03B05DF801
:10185C0004FB00BF0004004070B588B004460023B0
:10186C0004930593069307930268364B9A4205D06E
:10187C002268354B9A4234D008B070BD03F55843FA
:10188C009A6942F480429A619A6902F48042009209
:10189C00009A9A6942F004029A619B6903F004036E
:1018AC000193019B4FF400730493022305930323CC
:1018BC000793264E04A9304601F0D8F94FF4806303
:1018CC00049300250595069504A9304601F0CEF940
:1018DC002A462946252001F037FB252001F066FB1E
:1018EC00C6E703F5E633DA6942F40032DA61DA6905
:1018FC0002F400320292029A9A6942F004029A614E
:10190C009B6903F004030393039B042304930223B6
:10191C000593032307930D4D04A9284601F0A6F95E
:10192C000823049300240594069404A9284601F086
:10193C009DF922462146262001F006FB262001F0C7
:10194C0035FB99E700380140004400400008014095
:10195C0030B4036A23F001030362036A44688269AA
:10196C0022F073020D682A4323F002038D682B4387
:10197C000C4DA84205D123F00803CD682B4323F06E
:10198C000403084DA84205D124F440744D692C433E
:10199C008D692C43446082614A684263036230BCA7
:1019AC00704700BF002C014030B4036A23F48073ED
:1019BC000362036A4468C26922F073020D682A4309
:1019CC0023F400738D6843EA05230E4DA84206D11B
:1019DC0023F40063CD6843EA052323F48063094DA7
:1019EC00A84207D124F440544D6944EA05148D698A
:1019FC0044EA05144460C2614A68C263036230BCA5
:101A0C00704700BF002C014030B4036A23F48053AC
:101A1C000362036A4468C26922F4E6420D6842EA32
:101A2C00052223F400538D6843EA0533074DA84281
:101A3C0004D124F480444D6944EA85144460C261A5
:101A4C004A680264036230BC704700BF002C01403E
:101A5C0010B4036A046A24F001040462846924F05B
:101A6C00F00444EA021223F00A0319438261016272
:101A7C005DF8044B704700BF10B4036A23F01003E9
:101A8C0003628469036A24F4704444EA023223F04A
:101A9C00A00343EA0111826101625DF8044B7047B7
:101AAC00836823F07003194341F00701816070478C
:101ABC000268D36843F00103D3600268936803F0B3
:101ACC000703062B03D0136843F0010313600020B7
:101ADC00704700BF704700BF704700BF704700BF22
:101AEC00704700BF10B5044603681A6912F0020F64
:101AFC0017D0DA6812F0020F13D06FF002021A61DD
:101B0C000123037703689B6913F0030F02D0FFF7DF
:101B1C00E3FF04E0FFF7DEFF2046FFF7DFFF0023C3
:101B2C00237723681A6912F0040F19D0DA6812F0BF
:101B3C00040F15D06FF004021A6102232377236877
:101B4C009B6913F4407F03D02046FFF7C5FF05E0E7
:101B5C002046FFF7BFFF2046FFF7C0FF0023237787
:101B6C0023681A6912F0080F19D0DA6812F0080FFE
:101B7C0015D06FF008021A61042323772368DB6900
:101B8C0013F0030F03D02046FFF7A6FF05E0204615
:101B9C00FFF7A0FF2046FFF7A1FF00232377236860
:101BAC001A6912F0100F19D0DA6812F0100F15D054
:101BBC006FF010021A61082323772368DB6913F492
:101BCC00407F03D02046FFF787FF05E02046FFF754
:101BDC0081FF2046FFF782FF0023237723681A69D1
:101BEC0012F0010F09D0DA6812F0010F05D06FF076
:101BFC0001021A612046FFF79FFA23681A6912F056
:101C0C00800F09D0DA6812F0800F05D06FF08002D7
:101C1C001A61204600F0E2F923681A6912F0400FAD
:101C2C0009D0DA6812F0400F05D06FF040021A614B
:101C3C002046FFF755FF23681A6912F0200F09D0D0
:101C4C00DA6812F0200F05D06FF020021A612046DE
:101C5C0000F0C2F910BD00BF03681A4A90420AD0C6
:101C6C00B0F1804F07D0A2F59432904203D002F528
:101C7C008062904203D123F070034A681343114AE7
:101C8C0090420AD0B0F1804F07D0A2F59432904226
:101C9C0003D002F58062904203D123F44073CA68EA
:101CAC00134323F080034A69134303608B68C362B8
:101CBC000B688362034B984201D10B6903630123C8
:101CCC0043617047002C0140C0B110B5044690F838
:101CDC003D3013F0FF0F04D1002380F83C30FFF7A8
:101CEC009BFD022384F83D30214651F8040BFFF78D
:101CFC00B3FF012384F83D30002010BD0120704754
:101D0C0030B4036A23F010030362036A44688269E7
:101D1C0022F4E6420D6842EA052223F020038D6886
:101D2C0043EA05130D4DA84206D123F08003CD687C
:101D3C0043EA051323F04003084DA84207D124F4CD
:101D4C0040644D6944EA85048D6944EA8504446025
:101D5C0082614A688263036230BC7047002C014088
:101D6C0038B590F83C30012B66D00D460446012363
:101D7C0080F83C30022380F83D300C2A55D8DFE83F
:101D8C0002F0075454541A5454542E5454544100D1
:101D9C000068FFF7DDFD2268936943F00803936147
:101DAC002268936923F004039361226891692B697B
:101DBC000B43936139E00068FFF7A2FF2268936937
:101DCC0043F4006393612268936923F48063936105
:101DDC0022689369296943EA0123936125E000682D
:101DEC00FFF7E2FD2268D36943F00803D361226850
:101DFC00D36923F00403D3612268D1692B690B43A7
:101E0C00D36112E00068FFF7FFFD2268D36943F449
:101E1C000063D3612268D36923F48063D3612268A1
:101E2C00D369296943EA0123D361012384F83D3046
:101E3C00002084F83C0038BD022038BD10B4846802
:101E4C0024F47F4442EA032319430C4384605DF875
:101E5C00044B704790F83C30012B6AD010B50B4600
:101E6C000446012280F83C20022280F83D200168C3
:101E7C008A6822F47F4222F077028A60196840292E
:101E8C0043D00AD810294AD002D8002947D049E0BB
:101E9C00202944D0302942D044E060292BD002D8EC
:101EAC0050291ED03EE0702903D0B1F5005F0CD054
:101EBC0038E0006899685A68DB68FFF7BFFF226852
:101ECC00936843F0770393602CE0006899685A6834
:101EDC00DB68FFF7B3FF2268936843F48043936099
:101EEC0020E000685968DA68FFF7B2FD20685021DD
:101EFC00FFF7D6FD16E000685968DA68FFF7BCFDFD
:101F0C0020686021FFF7CCFD0CE000685968DA68A6
:101F1C00FFF79EFD20684021FFF7C2FD02E020681C
:101F2C00FFF7BEFD012384F83D30002084F83C000F
:101F3C0010BD0220704700BF10B401F01F01012337
:101F4C008B40046A24EA03030362036A8A401A433F
:101F5C0002625DF8044B704710B50446006801221C
:101F6C00FFF7EAFF2368094A934203D15A6C42F403
:101F7C0000425A642268936803F00703062B03D0CF
:101F8C00136843F001031360002010BD002C0140C6
:101F9C0090F83C30012B1BD070B4012580F83C50DC
:101FAC00022380F83D3004686268A36822F0700256
:101FBC000E68324323F0800349680B436260026869
:101FCC00936080F83D50002380F83C30184601E0C7
:101FDC000220704770BC7047704700BF704700BF4D
:101FEC000268D36823F49073D3600268536923F0BA
:101FFC0001035361202380F83A30704790F8393050
:10200C00DBB2212B2AD18368B3F5805F0FD1036A31
:10201C0002681B88C3F30803536003691BB9036A86
:10202C000233036209E0036A0133036205E00268CC
:10203C00036A591C01621B785360C38C013B9BB231
:10204C00C3846BB90268D36823F08003D360026841
:10205C00D36843F04003D3600020704702207047E0
:10206C000020704710B5044601680B6923F44052F8
:10207C00C36813430B61826803691A4343691343B2
:10208C000168CA6822F4B05222F00C021343CB60F0
:10209C0001684B6923F44072836913434B610268F6
:1020AC00214B9A421FD100F0D1FD216800EB80003A
:1020BC0000EB800063689B00B0FBF3F01B4BA3FBB1
:1020CC0000246409642202FB140212013232A3FBC5
:1020DC0002235B0903F0F00202EB041403F00F037C
:1020EC0023448B6010BD00F0A1FD216800EB800043
:1020FC0000EB800063689B00B0FBF3F00B4BA3FB81
:10210C0000246409642202FB140212013232A3FB84
:10211C0002235B0903F0F00202EB041403F00F033B
:10212C0023448B6010BD00BF003801401F85EB516C
:10213C002DE9F04106460C4617469846069D1EE0D2
:10214C00B5F1FF3F1BD02DB100F030FAC8EB000009
:10215C00A84214D93268D36823F4D073D3603268A0
:10216C00536923F001035361202386F8393086F834
:10217C003A30002386F838300320BDE8F08133680C
:10218C001B682340A34214BF00230123BB42D7D0BA
:10219C000020BDE8F08100BF68B310B5044690F88C
:1021AC00393013F0FF0F04D1002380F83830FFF7DB
:1021BC0053FB242384F839302268D36823F400536A
:1021CC00D3602046FFF74EFF2268136923F4904337
:1021DC0013612268536923F02A0353612268D36880
:1021EC0043F40053D3600020E063202384F839309B
:1021FC0084F83A3010BD0120704700BF2DE9F04142
:10220C0082B004461E4690F83930DBB2202B54D1F4
:10221C000D469046002952D0002A52D090F8383002
:10222C00012B50D0012380F838300023C3632123C5
:10223C0080F8393000F0BAF90746A4F82480A4F8E5
:10224C00268026E0E38C013B9BB2E384A368B3F5C4
:10225C00805F12D100962046802100223B46FFF77A
:10226C0067FF90BB22682B88C3F308035360236974
:10227C000BB902350DE001350BE0009620468021AC
:10228C0000223B46FFF754FF08BB23682A785A60AC
:10229C000135E38C9BB2002BD4D100962046402113
:1022AC0000223B46FFF744FF034690B9202284F8F6
:1022BC003920002284F838200CE002230AE00123A4
:1022CC0008E0012306E0022304E0032302E00323D9
:1022DC0000E00323184602B0BDE8F08190F83A30D4
:1022EC00DBB2202B20D109B312B390F83830012B7C
:1022FC0020D081628285C2850023C363222280F8AC
:10230C003A2080F838300168CA6842F48072CA609A
:10231C0001684A6942F001024A610168CA6842F0E8
:10232C002002CA601846704702207047012070478F
:10233C000120704702207047704700BF08B5016844
:10234C00CB6823F04003CB60202380F83930FFF7B3
:10235C00F3FF002008BD00BF08B590F83A30DBB29F
:10236C00222B43D18368B3F5805F13D1826A036952
:10237C0043B903685B68C3F308031380836A0233B1
:10238C00836218E003685B68DBB21380836A0133F5
:10239C00836210E0036933B9836A5A1C8262026853
:1023AC0052681A7007E0826A531C836203685B6888
:1023BC0003F07F031370C38D013B9BB2C385BBB984
:1023CC000268D36823F02003D3600268D36823F437
:1023DC008073D3600268536923F001035361202397
:1023EC0080F83A30FEF7EEFE002008BD022008BD52
:1023FC00002008BD704700BF10B504460268136882
:10240C00D168526913F00F0009D113F0200F06D0D8
:10241C0011F0200F03D02046FFF79EFF10BD0028BF
:10242C0062D012F0010202D111F4907F5CD013F053
:10243C00010F06D011F4807F03D0E06B40F0010057
:10244C00E06313F0040F04D01AB1E06B40F002000B
:10245C00E06313F0020F04D01AB1E06B40F00400FB
:10246C00E06313F0080F04D01AB1E26B42F00802DB
:10247C00E263E26B002A4AD013F0200F05D011F072
:10248C00200F02D02046FFF767FF23685B6903F03B
:10249C004003E26B12F0080F00D1FBB12046FFF7AE
:1024AC009FFD23685A6912F0400F13D05A6922F02D
:1024BC0040025A61636B4BB1154A5A63606B00F072
:1024CC00E5FC20B3606B436B984710BD2046FFF7CB
:1024DC0091FF10BD2046FFF78DFF10BD2046FFF782
:1024EC0089FF0023E36310BD13F0800F06D011F0B9
:1024FC00800F03D02046FFF781FD10BD13F0400F75
:10250C0005D011F0400F02D02046FFF717FF10BD89
:10251C002125000808B5406A0023C385C384FFF752
:10252C0069FF08BD10B504460E4B18784FF47A734A
:10253C00B3FBF0F30C4A1068B0FBF3F000F044FD71
:10254C0058B90F2C0BD84FF0FF302146002200F069
:10255C00FBFC064B1C60002010BD012010BD0120AF
:10256C0010BD00BF180000201C000020140000202B
:10257C0008B5074A136843F010031360032000F0FA
:10258C00D1FC0020FFF7CEFFFFF724F9002008BD97
:10259C0000200240034A1368034909780B44136076
:1025AC00704700BF5404002018000020014B18682D
:1025BC00704700BF5404002038B50446FFF7F6FFFF
:1025CC000546B4F1FF3F02D0044B1B781C44FFF7C7
:1025DC00EDFF401B8442FAD838BD00BF1800002024
:1025EC0082B0084B1B68084AA2FB03235B0A00FB62
:1025FC0003F0019000BF019B5A1E0192002BF9D1F0
:10260C0002B070471C000020D34D6210002800F06F
:10261C00EC8170B582B00446036813F0010F6BD0E7
:10262C00A84B5B6803F00C03042B0AD0A54B5B682A
:10263C0003F00C03082B0DD1A24B5B6813F4803F05
:10264C0008D0A04B1B6813F4003F55D06368002BD7
:10265C0052D1CCE16368B3F5803F05D1994A136838
:10266C0043F48033136026E063B903F1804303F530
:10267C0004331A6822F480321A601A6822F4802219
:10268C001A6018E0B3F5A02F0CD103F18043A3F529
:10269C003C331A6842F480221A601A6842F4803281
:1026AC001A6008E0874B1A6822F480321A601A68A4
:1026BC0022F480221A6063687BB1FFF777FF05462E
:1026CC0005E0FFF773FF401B642800F292817D4BFD
:1026DC001B6813F4003FF4D00EE0FFF767FF0546CC
:1026EC0005E0FFF763FF401B642800F28481754B03
:1026FC001B6813F4003FF4D1236813F0020F50D081
:10270C00704B5B6813F00C0F0AD06E4B5B6803F0D8
:10271C000C03082B16D16B4B5B6813F4803F11D163
:10272C00684B1B6813F0020F03D02369012B40F098
:10273C006481644A136823F0F803616943EAC103B6
:10274C0013602EE02369D3B101225F4B1A60FFF7AF
:10275C002DFF054605E0FFF729FF401B022800F27C
:10276C004E81584B1B6813F0020FF4D0554A136876
:10277C0023F0F803616943EAC103136011E00022FE
:10278C00514B1A60FFF712FF054605E0FFF70EFFED
:10279C00401B022800F235814A4B1B6813F0020FD4
:1027AC00F4D1236813F0080F29D0A369ABB101222F
:1027BC00464B1A60FFF7FAFE054605E0FFF7F6FEFA
:1027CC00401B022800F21F813E4B5B6A13F0020F84
:1027DC00F4D00120FFF704FF11E000223B4B1A60FC
:1027EC00FFF7E4FE054605E0FFF7E0FE401B02287C
:1027FC0000F20B81334B5B6A13F0020FF4D12368A8
:10280C0013F0040F00F08B802E4BDB6913F0805F0C
:10281C000BD12C4BDA6942F08052DA61DB6903F0A0
:10282C0080530193019B012500E00025284B1B6878
:10283C0013F4807F13D1264A136843F4807313601A
:10284C00FFF7B4FE064605E0FFF7B0FE801B6428D8
:10285C0000F2DD801E4B1B6813F4807FF4D0E3681C
:10286C00012B05D1174A136A43F00103136222E0CE
:10287C0063B903F1804303F504331A6A22F00102B1
:10288C001A621A6A22F004021A6214E0052B09D1AA
:10289C000C4B1A6A42F004021A621A6A42F00102E4
:1028AC001A6208E0074B1A6A22F001021A621A6ACD
:1028BC0022F004021A62E368D3B1FFF777FE0646F2
:1028CC0010E000BF0010024000004242800442426F
:1028DC0000700040FFF76AFE801B41F2883398427B
:1028EC0000F29780544B1B6A13F0020FF2D010E0E9
:1028FC00FFF75CFE064607E0FFF758FE801B41F22F
:10290C008833984200F287804B4B1B6A13F0020FFE
:10291C00F2D125B1484AD36923F08053D361E369DE
:10292C00002B7AD0444A526802F00C02082A4CD090
:10293C00022B37D10022414B1A60FFF737FE0546B8
:10294C0004E0FFF733FE401B022868D83A4B1B68A3
:10295C0013F0007FF5D1236AB3F5803F06D13649D9
:10296C004B6823F40032A36813434B60324843682E
:10297C0023F47411236A626A13430B4343600122EC
:10298C002E4B1A60FFF712FE044604E0FFF70EFE12
:10299C00001B022845D8284B1B6813F0007FF5D08C
:1029AC00002047E00022254B1A60FFF7FFFD04468C
:1029BC0004E0FFF7FBFD001B022834D81E4B1B68FC
:1029CC0013F0007FF5D1002034E0012B2DD01A4BF1
:1029DC005B6803F48031226A914228D103F47013AE
:1029EC00626A934225D0012024E001207047012027
:1029FC0020E003201EE003201CE001201AE003204D
:102A0C0018E0032016E0032014E0032012E003205A
:102A1C0010E003200EE003200CE000200AE003206D
:102A2C0008E0032006E0032004E0012002E001207E
:102A3C0000E0002002B070BD001002406000424275
:102A4C0030B486B0164D02AC28686968AA68EB6889
:102A5C000FC42B8AADF80430124B5B6803F00C02E8
:102A6C00082A19D1C3F3834206A90A4412F8100CA0
:102A7C0013F4803F0CD00B4B5B68C3F340430B4407
:102A8C0013F8142C084B03FB00F0B0FBF2F004E03D
:102A9C00064B03FB00F000E0034806B030BC704767
:102AAC005C2301080010024000127A0000093D006E
:102ABC00002800F09D8070B50446544B1B6803F051
:102ACC0007038B420BD2514A136823F007030B43C5
:102ADC001360136803F007038B4240F08B8023686C
:102AEC0013F0020F17D013F0040F04D0484A5368A8
:102AFC0043F4E0635360236813F0080F04D0444A96
:102B0C00536843F4605353604148436823F0F00228
:102B1C00A368134343600D46236813F0010F2ED0B6
:102B2C006268012A05D13A4B1B6813F4003F0DD1A2
:102B3C0062E0022A05D1364B1B6813F0007F05D1E9
:102B4C005CE0334B1B6813F0020F59D030494B68D3
:102B5C0023F0030313434B60FFF728FD064606E002
:102B6C00FFF724FD801B41F2883398424AD8284B4A
:102B7C005B6803F00C036268B3EB820FF0D1234B5C
:102B8C001B6803F00703AB420AD9204A136823F0F1
:102B9C0007032B431360136803F00703AB4233D1D5
:102BAC00236813F0040F06D019494B6823F4E06234
:102BBC00E36813434B60236813F0080F07D0144AE3
:102BCC00536823F46053216943EAC1035360FFF750
:102BDC0037FF0F4B5B68C3F303130E4AD35CD8402B
:102BEC000D4B18600D4B1868FFF79CFC002070BD56
:102BFC0001207047012070BD012070BD012070BD07
:102C0C00012070BD032070BD012070BD002002406A
:102C1C0000100240EC2601081C00002014000020CB
:102C2C00014B1868704700BF1C00002008B5FFF767
:102C3C00F7FF044B5B68C3F30223034AD35CD84011
:102C4C0008BD00BF00100240FC26010808B5FFF7C4
:102C5C00E7FF044B5B68C3F3C223034AD35CD84041
:102C6C0008BD00BF00100240FC260108F0B583B07F
:102C7C004FF0000E7446DBE00122A2401340934259
:102C8C0040F0D5804D68122D30D00BD8022D29D0B4
:102C9C0003D87DB3012D1ED03DE0032D36D0112D70
:102CAC001CD038E0664EB54224D008D8A6F5801664
:102CBC00B5421FD006F58036B5422CD11AE0614ED4
:102CCC00B54217D006F58036B54213D0A6F580165E
:102CDC00B54220D10EE0D1F80CE01CE0CA6802F13C
:102CEC00040E18E0CA6802F1080E14E0CA6802F17A
:102CFC000C0E10E08D6865B1012D03D102614FF00F
:102D0C00080E08E042614FF0080E04E04FF0000E90
:102D1C0001E04FF0040EFF2B01D8844601E000F1D6
:102D2C00040CFF2B01D8A70002E0A4F10807BF0098
:102D3C00DCF800600F22BA4026EA02050EFA07F210
:102D4C002A43CCF800204A6812F0805F6FD03E4ACC
:102D5C00956945F001059561926902F001020192B5
:102D6C00019AA708BD1C394A52F8256004F0030CDF
:102D7C004FEA8C0C0F2202FA0CF226EA0205344AB6
:102D8C00904213D002F5806290420DD002F5806221
:102D9C00904207D002F58062904201D1032206E0F6
:102DAC00042204E0022202E0012200E0002202FAE6
:102DBC000CF22A430237254D45F827204A6812F4B5
:102DCC00803F05D005F580652A681A432A6004E027
:102DDC00204D2A6822EA03022A604A6812F4003F56
:102DEC0004D01C4D6A681A436A6004E0194D6A6885
:102DFC0022EA03026A604A6812F4801F04D0154D5F
:102E0C00AA681A43AA6004E0124DAA6822EA0302D7
:102E1C00AA604A6812F4001F04D00E4DEA681343EE
:102E2C00EB6004E00B4DEA6822EA0303EB6001342B
:102E3C000B6833FA04F27FF41FAF03B0F0BD00BF90
:102E4C000000211000003110001002400000014071
:102E5C00000801400004014083680B4201D00120AE
:102E6C0070470020704700BF0AB101617047090428
:102E7C000161704708B5044B5B69034203D0024BF8
:102E8C005861FEF7E7F908BD0004014008B590F859
:102E9C002130022B03D004238363012008BD026878
:102EAC00136823F00E0313600268136823F0010308
:102EBC0013600368194A93421FD0143293421AD0FC
:102ECC001432934214D0143293420ED014329342E3
:102EDC0008D01432934202D14FF480120EE04FF01E
:102EEC0080720BE04FF4803208E04FF4805205E022
:102EFC004FF4807202E0102200E00122084B5A606D
:102F0C00012380F82130002380F82030436B13B16B
:102F1C009847002008BD002008BD00BF08000240F3
:102F2C000000024000F00700064AD36823F4E06377
:102F3C001B041B0C43EA002040F0BF6040F400303F
:102F4C00D060704700ED00E030B4164BDC68C4F381
:102F5C000224C4F10705042D28BF0425231D062BCC
:102F6C0001D9033C00E00024012303FA05F5013DDF
:102F7C002940A140A340013B1A400A43002808DB2A
:102F8C001201D2B200F1604000F5614080F80023DC
:102F9C0005E000F00F001201D2B2034B1A5430BC02
:102FAC00704700BF00ED00E014ED00E0002807DBE7
:102FBC00410900F01F0001238340024A42F82130EE
:102FCC00704700BF00E100E00138B0F1807F0AD209
:102FDC00064B5860F021064A82F8231000209860B6
:102FEC0007221A6070470120704700BF10E000E014
:102FFC0000ED00E00F4B1A6842F001021A605968AC
:10300C000D4A0A405A601A6822F0847222F4803207
:10301C001A601A6822F480221A605A6822F4FE029E
:10302C005A604FF41F029A604FF00062034B9A6093
:10303C00704700BF001002400000FFF800ED00E0F8
:10304C0008B5034B1B780BB9FFF7B6FA08BD00BFE8
:10305C005804002008B5FFF7AFFA08BD08B50146C3
:10306C00024B187808F0CFFA08BD00BF1000002002
:10307C0008B503460A4603490878194608F078FA59
:10308C0008BD00BF1000002008B50146024B18789F
:10309C0008F0B9FA08BD00BF1100002008B50346BE
:1030AC000A4603490878194608F062FA08BD00BFC1
:1030BC001100002008B508F08EFE08BD08B508F018
:1030CC0063FE08BD10B514461A46234608F06DFA87
:1030DC0010BD00BF70B588B006460D461446684654
:1030EC00197805F0FAFA304629466A46234608F064
:1030FC005CFA08B070BD00BF38B50546002404E08A
:10310C000520FFF759FA0134A4B2AC42F8D338BD0C
:10311C0008B50146024B187808F01DFC08BD00BF2D
:10312C00D404002008B503460A460349087819461A
:10313C0008F0C6FB08BD00BFD404002008B5FFF79B
:10314C003BFA08BD08B501464A2008F000FD08BD51
:10315C0008B503460A464A20194608F02CFD08BD5E
:10316C0008B5082811D8DFE800F0050505050D0D98
:10317C000D0D09005220FFF77BFF08BD5720FFF70C
:10318C0077FF08BD5D20FFF773FF08BDF8B5054656
:10319C000C4617465320FFF761FF00F03F065E20F8
:1031AC00FFF75CFF00F03F0104F03F04082D62D8EC
:1031BC00DFE805F0050E19242F37424D5800532037
:1031CC003146FFF755FF53202146FFF751FFF8BD5D
:1031DC00532046F04001FFF74BFF532044F04001D1
:1031EC00FFF746FFF8BD532046F08001FFF740FF84
:1031FC00532044F08001FFF73BFFF8BD532046F00D
:10320C00C001FFF735FF532044F0C001FFF730FF3A
:10321C00F8BD5E20FFF72CFF5E202146FFF728FF4C
:10322C00F8BD5E2041F04001FFF722FF5E2044F024
:10323C004001FFF71DFFF8BD5E2041F08001FFF754
:10324C0017FF5E2044F08001FFF712FFF8BD5E20EF
:10325C0041F0C001FFF70CFF5E2044F0C001FFF706
:10326C0007FFF8BD58202146FFF702FF592007F051
:10327C001F01FFF7FDFEF8BD38B5CDB2C1F3022139
:10328C000901D4B2C2F3022208282CD8DFE800F0DE
:10329C00050505051F1F1F1F120054201143FFF7C2
:1032AC00E7FE55202946FFF7E3FE56202146FFF79F
:1032BC00DFFE38BD5A201143FFF7DAFE5B202946AA
:1032CC00FFF7D6FE5C202146FFF7D2FE38BD5F200B
:1032DC001143FFF7CDFE60202946FFF7C9FE6120A0
:1032EC002146FFF7C5FE38BD70B506460C4614F8EE
:1032FC00015BFD201021FFF7BBFEFE203146FFF7DE
:10330C00B7FE044B1878FF212A462346FFF7DAFE56
:10331C0070BD00BF1000002070B582B0064602AC34
:10332C0004F8012D0D78FD207021FFF7A1FEFE2081
:10333C003146FFF79DFE044B1878FF212A462346A1
:10334C00FFF7C8FE02B070BD1000002038B504466F
:10335C000D465320FFF782FEA401E4B200F03F01BA
:10336C0053202143FFF784FE5E20FFF777FE00F029
:10337C003F015E202143FFF77BFE5120FFF76EFEDD
:10338C0015F0080F01D100F0F70005F00F0500F063
:10339C00F80151202943FFF76BFE38BD10B50446E8
:1033AC005120FFF75BFE1CB140F00801C9B201E0EF
:1033BC0000F0F7015120FFF75BFE10BD10B504467D
:1033CC006920FFF74BFE00F00F0040EA0411692062
:1033DC00C9B2FFF74DFE58200021FFF749FE10BD82
:1033EC00142860D8DFE800F00B0F13171B1F2327DE
:1033FC002B2F33373B3F43474B4F53575B002C4BE3
:10340C002C4A1A6070472A4B2B4A1A607047284B7B
:10341C002A4A1A607047264B294A1A607047244B77
:10342C00284A1A607047224B274A1A607047204B73
:10343C00264A1A6070471E4B254A1A6070471C4B6F
:10344C00244A1A6070471A4B234A1A607047184B6B
:10345C001A4A1A607047164B204A1A607047144B70
:10346C001F4A1A607047124B1E4A1A607047104B65
:10347C001D4A1A6070470E4B1C4A1A6070470C4B61
:10348C001B4A1A6070470A4B1A4A1A607047084B5D
:10349C00194A1A607047064B184A1A607047044B59
:1034AC00174A1A607047024B154A1A60704700BFE2
:1034BC005C040020B8890108D0890108C48901087E
:1034CC00DC8901089489010840890108A089010858
:1034DC00AC890108E88901081089010828890108CC
:1034EC004C89010834890108648901081C89010888
:1034FC00588901087C8901087089010888890108AC
:10350C00148A01082DE9F047054688461746B64A45
:10351C001278C2F3400602F0010453BBB34B1B7884
:10352C00012B21D04FF025094FF0F40A002D40F06B
:10353C00BB81002E40F07E81002C40F0948108204D
:10354C00FFF73CFFA84B1B78032B00F06F82002E7B
:10355C0000F07F82A64B1B78002B40F07582042173
:10356C002846FFF7F3FE68E24FF03D094FF0B40A2E
:10357C00DCE71A46012B1ED0022B2AD0032B36D0A7
:10358C00102B42D0202B7DD0402B00F0B880502B3C
:10359C0000F0D280303B0F2B00F21E81002840F04F
:1035AC00ED80924B1B78012B00F0E3804FF0250946
:1035BC004FF0F40ABAE78D4B1B78012B04D04FF077
:1035CC0025094FF0F40AB1E74FF03D094FF0B40A6A
:1035DC00ACE7864B1B78012B04D04FF025094FF03C
:1035EC00F40AA3E74FF03D094FF0B40A9EE77F4B76
:1035FC001B78012B04D04FF025094FF0F40A95E706
:10360C004FF03D094FF0B40A90E768B9774B1B783F
:10361C00012B04D04FF025094FF0F40A86E74FF048
:10362C003D094FF0B40A81E701280AD0022816D0D0
:10363C006E4B1B78012B20D040F2911940F2763A58
:10364C0074E76A4B1B78012B04D04FF0250940F22C
:10365C00763A6BE74FF03D0940F2744A66E7634BEC
:10366C001B78012B04D040F291194FF0F40A5DE75E
:10367C0040F25B294FF0B40A58E740F25B2940F264
:10368C00744A53E768B9594B1B78012B04D04FF09F
:10369C0025094FF0F40A49E74FF03D094FF0B40A01
:1036AC0044E701280AD0022816D0504B1B78012B76
:1036BC0020D04FF0250940F2B64A37E74B4B1B7828
:1036CC00012B04D04FF0250940F2362A2EE74FF09B
:1036DC003D094FF4267A29E7444B1B78012B04D083
:1036EC0040F2911940F2362A20E740F25B294FF460
:1036FC00267A1BE74FF03D094FF4CB6A16E768B901
:10370C003A4B1B78012B04D04FF025094FF0F40AEB
:10371C000CE74FF03D094FF0B40A07E7334B1B7829
:10372C00012B04D04FF0250940F2763AFEE64FF01B
:10373C003D0940F2744AF9E668B92C4B1B78012B11
:10374C0004D04FF025094FF0F40AEFE64FF03D0995
:10375C004FF0B40AEAE6254B1B78012B04D040F25B
:10376C0091194FF0F40AE1E640F25B294FF0B40AEC
:10377C00DCE64FF03D094FF0B40AD7E601280AD039
:10378C00022816D0194B1B78012B20D04FF402794C
:10379C0040F24A4ACAE6154B1B78012B04D04FF075
:1037AC00250940F24A4AC1E64FF03D0940F2B45AAD
:1037BC00BCE60E4B1B78012B04D04FF48C7940F2F5
:1037CC004A4AB3E64FF4D37940F2B45AAEE640F22B
:1037DC000F3940F2B45AA9E6602A0BD04FF04009D9
:1037EC004FF0E00AA2E600BFF30000206C070020B7
:1037FC006004002068B9A44B1B78012B04D04FF057
:10380C0025094FF0F40A91E64FF03D094FF0B40A48
:10381C008CE601287FF48AAE9B4B1B78012B04D0DD
:10382C0040F2052940F24A4A80E640F20D3940F256
:10383C00B45A7BE6012298F800100020FFF7A6FC92
:10384C0000210846FFF78CFC41460020FFF74CFD99
:10385C00072241460020FFF75FFD4A4651460020F3
:10386C00FFF70AFD68E6012239780420FFF78EFC89
:10387C0040210420FFF774FC39464020FFF734FD4B
:10388C00072239464020FFF747FD804B1A7802EBA0
:10389C008202930009EB030292B2143292B25146A7
:1038AC000420FFF7E9FC4AE6012D2AD0022D66D050
:1038BC00032D7FF444AE002E40F09F80002C3FF48B
:1038CC003EAE012239780720FFF760FC70210720FB
:1038DC00FFF746FC39467020FFF706FD07223946F4
:1038EC007020FFF719FD694B1B7803EB83039A00DB
:1038FC004A4492B2143292B251460720FFF7BCFCF4
:10390C001DE61EBB002C3FF41AAE012239780520AF
:10391C00FFF73CFC50210520FFF722FC39465020D4
:10392C00FFF7E2FC072239465020FFF7F5FC574B16
:10393C001A7802EB8202930009EB030292B2143262
:10394C0092B251460520FFF797FCF8E5012298F852
:10395C0000101046FFF71AFC10210120FFF700FCA5
:10396C0041461020FFF7C0FC072241461020FFF70C
:10397C00D3FC4A4651460120FFF77EFCC2E71EBB32
:10398C00002C3FF4DCAD012239780620FFF7FEFB5A
:10399C0060210620FFF7E4FB39466020FFF7A4FC0A
:1039AC00072239466020FFF7B7FC384B1A7802EB38
:1039BC008202930009EB030292B2143292B2514686
:1039CC000620FFF759FCBAE5012298F800100220F6
:1039DC00FFF7DCFB20210120FFF7C2FB4146202032
:1039EC00FFF782FC072241462020FFF795FC4A4650
:1039FC0051460220FFF740FCC2E7012298F8001064
:103A0C000320FFF7C3FB30210320FFF7A9FB41463E
:103A1C003020FFF769FC072241463020FFF77CFC81
:103A2C004A4651460320FFF727FC47E7184B1B7803
:103A3C002BB905212846FFF789FCBDE8F087072143
:103A4C002846FFF783FCF8E702212846FFF77EFCA7
:103A5C00F3E764B10E4B1B7823B901212846FFF71D
:103A6C0075FCEAE702212846FFF770FCE5E7084BF6
:103A7C001B7823B102212846FFF768FCDDE7002103
:103A8C002846FFF763FCD8E76C0700206104002090
:103A9C006004002070B586B005460E4614462A4BCD
:103AAC001A5C012C0BD0022C2DD0032C2FD0002A09
:103ABC003CD0012A3CD0022A2DD0244B02E0012814
:103ACC002BD0234B23490978914233D093E8030040
:103ADC000490ADF81410090C8DF816103046FFF751
:103AEC007FFC1D4B1A6801AB1068516803C3118928
:103AFC00927A19809A70234601AA04A92846FFF7E6
:103B0C0001FD06B070BD02280AD0114BDAE703287C
:103B1C0009D00F4BD6E7114BD4E700220C4BD1E761
:103B2C0000220E4BCEE70022084BCBE70C4BC9E72B
:103B3C00074BC7E793E803000490ADF814106C230F
:103B4C008DF81630CAE700BF5C0700200C8A01080C
:103B5C00FC890108ED0100205C040020048A0108A6
:103B6C00F489010830B587B00D46144638B10128E8
:103B7C0023D0022801D0124B02E0124B00E0124B72
:103B8C0093E803000490ADF814106C238DF81630F4
:103B9C002846FFF725FC0D4B1A6801AB10685168DD
:103BAC0003C31189927A19809A70234601AA04A939
:103BBC000020FFF7A7FC07B030BD054BE0E700BFC6
:103BCC000C8A0108048A0108F48901085C040020AD
:103BDC00FC89010870B5F0B104465320FFF73EFA9A
:103BEC0000F03F065E20FFF739FA00F03F05012C8C
:103BFC001CD0022C25D0032C2ED05120FFF72EFAEE
:103C0C0000F008011C4B1B788BB341F002015120D2
:103C1C00FFF72EFA09E0012200210846FFF7B6FA59
:103C2C00012200210420FFF7B1FA70BD46F04001DB
:103C3C005320FFF71DFA45F040015E20FFF718FAFC
:103C4C00DBE746F080015320FFF712FA45F08001C4
:103C5C005E20FFF70DFAD0E746F0C0015320FFF7C6
:103C6C0007FA45F0C0015E20FFF702FAC5E75120C4
:103C7C00FFF7FEF9D9E700BF6004002008B5032068
:103C8C00FFF7A8FF08BD10B5022404E02046FFF79B
:103C9C00A1FF0134E4B2032CF8D910BD10B50124F6
:103CAC0004E02046FFF796FF0134E4B2032CF8D968
:103CBC0010BD10B5002404E02046FFF78BFF013443
:103CCC00E4B2032CF8D910BD10B5C0B014468DF871
:103CDC0000008DF8011019460DF1020004F0F2FC01
:103CEC00044B1878A21C6B46D2B2FD21FFF7EAF9FF
:103CFC0040B010BD100000203F2805D870B545001D
:103D0C00EDB20E46002413E07047A200A318590030
:103D1C0089B2224493009BB2C1F303203344142292
:103D2C0001F0FE0140F02000FFF7CEFF0134A4B2F9
:103D3C00ABB2A342E9D870BD38B505460C46A1B16B
:103D4C00012920D140B900211020FFF791F90A2157
:103D5C009C20FFF78DF916E001211020FFF788F960
:103D6C000A219C20FFF784F90DE0C0B11020FFF769
:103D7C0075F960F07E01C9B21020FFF779F90021C6
:103D8C009C20FFF775F9224620210C48FFF76CF8B0
:103D9C0023462A460A49012003F024FE38BD102090
:103DAC00FFF75CF960F07F01C9B21020FFF760F9F2
:103DBC0000219C20FFF75CF9E5E700BF00080140FB
:103DCC00208A010808B501212620FFF7ABF908BDB0
:103DDC0010B50446F520FFF79BF9074B195D014020
:103DEC00F520FFF79FF93520FFF792F900F0DF017E
:103DFC003520FFF797F910BD588E010810B5044611
:103E0C00F520FFF785F9084B195D0143C9B2F52080
:103E1C00FFF788F93520FFF77BF940F02001C9B294
:103E2C003520FFF77FF910BD608E010808B5C02161
:103E3C000720FFF777F91420FFF76AF900F09F01CC
:103E4C001420FFF76FF900211320FFF76BF9042101
:103E5C002620FFF767F9B2210620FFF763F908BDAA
:103E6C0008B5242806D0252807D0262808D0FFF727
:103E7C00A9FF08BDFFF7A6FFFBE7FFF7D7FFF8E7A1
:103E8C00FFF7D4FFF5E710B5044603E06178FFF7C0
:103E9C0049F902342078FF28F8D13220FFF72CF9A9
:103EAC0010BD38B504460D4604E015F8011BFFF7AC
:103EBC0039F901342078FF28F7D13220FFF71CF9AB
:103ECC0038BD08B501464020FFF72CF908BD0000AD
:103EDC0070B506469C4B1B5C262B00F2F980DFE884
:103EEC0013F07600880027006E009A00A300F700FC
:103EFC00F700B500AC00F700F7007F009100F70069
:103F0C00F700F700F700F700F700F700F700F700ED
:103F1C00F700F700F700F700F700F700F700F700DD
:103F2C00F700BE00C600CE00D600DE00E600EE00B4
:103F3C000124864B1C70864804F0D8FB2546854826
:103F4C0004F048FC844804EB440104EB8101014477
:103F5C00FFF7A7FF7C4B9B5D022B00F0BC807F4BD7
:103F6C001B78262B00F0BC80252B00F0C180242B65
:103F7C0000F0C680794B1B782F2B00F0CA80774B52
:103F8C001B78272B00F0D080012D00F0D880304614
:103F9C00FFF734FF00211320FFF7C4F81420FFF7BC
:103FAC00B7F800F09F011420FFF7BCF80220FFF7D0
:103FBC00AFF800F07F010220FFF7B4F870BD0125C7
:103FCC00624B1D70664804F091FB0224B7E75F4B0F
:103FDC0000221A70634804F089FB01250324AEE724
:103FEC005A4B00221A70604804F080FB02250B2407
:103FFC00A5E7564B00221A705C4804F077FB0125AC
:10400C0004249CE7514B00221A70594804F06EFBB3
:10401C0002250C2493E74D4B00221A70554804F0EE
:10402C0065FB012505248AE7484B00221A7052488B
:10403C0004F05CFB0125062481E7444B03221A7033
:10404C004E4804F053FB0425082478E73F4B02222A
:10405C001A704B4804F04AFB032507246FE701252F
:10406C003A4B1D70474804F041FB092467E70125D2
:10407C00364B1D70444804F039FB0A245FE70125D8
:10408C00324B1D70414804F031FB0D2457E70125DC
:10409C002E4B1D703E4804F029FB0E244FE70125E2
:1040AC002A4B1D703B4804F021FB0F2447E70125E8
:1040BC00264B1D70384804F019FB10243FE7234BA6
:1040CC0000221A70354804F011FB0125112436E743
:1040DC0001252C4633E7CE211620FFF723F83EE7C7
:1040EC002F4805EBC50359000144FFF7DAFE41E701
:1040FC002C48C5EBC50359000144FFF7D2FE39E744
:10410C00294805EB450105EB81010144FFF7C9FE88
:10411C0030E7264804F05EFB254805EB8503990043
:10412C000144FFF7BEFE2AE7224804F053FB224865
:10413C0005EB850399000144FFF7B3FE24E73046F5
:10414C00FFF746FE26E700BFC804002078040020D5
:10415C00688E0108F48E0108288F010807050020DD
:10416C00708E0108788E0108808E01088C8E0108F3
:10417C00948E0108A08E0108A88E0108B08E01084B
:10418C00B48E0108BC8E0108C48E0108CC8E0108C7
:10419C00D48E0108DC8E0108E48E0108EC8E010837
:1041AC0038950108E493010860940108FC8E01081D
:1041BC0044930108108F0108DC91010810B5274BBE
:1041CC001B5C0D2B47D8DFE803F00D070B094646A7
:1041DC004646464646460D07022404E0042402E007
:1041EC00032400E00124FFF773FE1D4B1B78262BE4
:1041FC0013D0A3F12402D2B2012A16D92F2B1AD034
:10420C00272B20D01420FEF783FF40F04A01C9B2BF
:10421C001420FEF787FF204610BD124804EB8403E0
:10422C0059000144FFF73DFEECE70F4800EBC401D9
:10423C00FFF737FEE6E70D4804EB44039900014411
:10424C00FFF72FFEDEE70A4804EB44039900014414
:10425C00FFF727FED6E70024DDE700BFC8040020E7
:10426C0007050020C0940108BC930108A492010822
:10427C003C91010810B5264B1B5C0D2B46D8DFE892
:10428C0003F00D070B0945454545454545450D07CB
:10429C00022404E0042402E0032400E00124FFF7DC
:1042AC0017FE1C4B1B78262B0ED0A3F12402D2B286
:1042BC00012A12D92F2B19D0272B1FD040211320C4
:1042CC00FEF730FF204610BD134804EB440104EB0D
:1042DC0081010144FFF7E5FDF0E70F4804EB4401D1
:1042EC0004EB81010144FFF7DCFDE7E70B4804EB2D
:1042FC00840399000144FFF7D4FDDFE7084804EB81
:10430C00840399000144FFF7CCFDD7E70024D9E7DB
:10431C00C804002007050020F4940108E09201086D
:10432C007891010838B5054602212F20FEF7FAFED8
:10433C000420FEF7EDFE04460420FEF7E9FE0444DB
:10434C000420FEF7E5FE04440420FEF7E1FE0444DD
:10435C00640804F4FC742A4621460B4804F0C6F9A0
:10436C0004F0F8010820FEF7DDFE0620FEF7D0FE73
:10437C0000F0F900E10901F00201014341F00401F0
:10438C000620FEF7CFFE38BD308E010808B500219F
:10439C002F20FEF7C7FE0420FEF7BAFE08BDF8B5C5
:1043AC00064606212F20FEF7BDFE0420FEF7B0FEC8
:1043BC00B04243D204461E2717E045F08001072087
:1043CC00FEF7B0FED5B30820FEF796FE06212F208F
:1043DC00FEF7A8FE0420FEF79BFE0446731C9842D1
:1043EC0014DCA31B0133022B28D93FB3013FFFB2CE
:1043FC000720FEF78DFE00F03F05B442DDD0002D06
:10440C00DBD0013DEDB20134E4B2F6E70720FEF754
:10441C007FFE00F03F00841C3F2C00D93F2444F069
:10442C0080010720FEF77EFE3F2C07D00820FEF708
:10443C0063FE0420FEF76CFE0446D2E7F8BD10B50F
:10444C004420FEF765FE044640F04001C9B244200A
:10445C00FEF768FE04F0BF014420FEF763FE10BDBA
:10446C0038B5644B88221A700024032C0DD8FE201A
:10447C00FEF74EFE282808D05E4A13780133DBB2D3
:10448C00013313700134E4B2EFE7FF20FEF740FE76
:10449C00594C2070FD20FEF73BFE00F00702574BF5
:1044AC001A702178564804F021F90023554A1360FC
:1044BC00554A1360554A13602378023B252B70D85C
:1044CC00DFE803F0136F136F6F6F6F6F6F6F6F6FAA
:1044DC006F6F6F6F6F6F6F6F6F6F6F6F6F6F6F6FE0
:1044EC006F6F6F6F1334446F4B5F494804F072F970
:1044FC00484CFFF7A4FF2046FFF7C5FC424B1B6856
:10450C00002B55D1444B03221A705A709A70DA70F2
:10451C0004214020FEF706FE0020FFF7D9FC3F4B9C
:10452C0001221A700024002C46D038BD0123354AD4
:10453C001360354A1360314B1B78012B01D0384C7A
:10454C00D7E72D4B25221A70364CD2E701232D4A82
:10455C0013602D4A1360344CCBE70123294A1360B6
:10456C00294A1360254B1B78012B05D0F3B9274B37
:10457C0001221A602D4CBCE71F4B2F221A702C4CB9
:10458C00B7E701231F4A13601F4A13601B4B1B78AC
:10459C00042B01D01F4CACE7264804F01BF91D4C32
:1045AC00A7E7254804F016F91A4CA2E71F4CA0E720
:1045BC002248FFF768FCA5E70023214A1355214A3E
:1045CC001355214A13550725134B1D5501200BF08C
:1045DC0005FB1E4B1D701E4B14221A701D4B1B78B5
:1045EC00012B02D00134E4B29DE701210846FFF70C
:1045FC00A3FBF7E7D404002007050020F8040020F3
:10460C00F08D0108D00400207C040020A4040020BC
:10461C000C8E010820910108C8040020060500201A
:10462C0020900108A893010850940108A494010853
:10463C008C920108148E0108248E01082C94010818
:10464C00FC0400209C0400207404002020000020A6
:10465C00240000202201002030B404460020012553
:10466C00072102460BE044FA01F32B405BB20343F3
:10467C00D8B26D00EDB20239C9B20132D2B2032AFE
:10468C00F1D98025072100220AE004FA01F32B401E
:10469C005BB20343D8B26D080239C9B20132D2B24F
:1046AC00032AF2D930BC70476D4B1A786D4B1A70D7
:1046BC006D4B1A786D4B1A706D4B1B78172B30D0D5
:1046CC00062B37D0072B3CD0092B41D0082B46D0DA
:1046DC000A2B4BD00C2B50D00B2B55D00D2B5AD06A
:1046EC000F2B5FD00E2B64D0112B69D0102B6ED0FA
:1046FC00132B73D0122B78D0142B7DD0212B00F0E0
:10470C008580222B00F08980232B00F08D80242BB8
:10471C0000F09180252B00F09580262B00F09980DD
:10472C0070470023534A1370534A072111704D4AA6
:10473C00137070474F4B00221A704F4B08221A709F
:10474C0070474C4B00221A704B4B10221A7070475A
:10475C00484B00221A70484B04221A707047454B84
:10476C0000221A70444B02221A707047414B0022EF
:10477C001A70414B0C221A7070473E4B00221A7073
:10478C003D4B0A221A7070473A4B00221A703A4B72
:10479C0014221A707047374B00221A70364B1222B3
:1047AC001A707047334B02221A70334B00221A7066
:1047BC007047304B04221A702F4B00221A7070472E
:1047CC002C4B01221A702C4B00221A707047294B6B
:1047DC0000221A70284B80221A707047254B002239
:1047EC001A70254B20221A707047224B00221A7027
:1047FC00214B40221A70704700231E4A13701E4A28
:10480C001370184A1370194A13707047194B002211
:10481C001A70194B03221A707047164B00221A702B
:10482C00154B07221A707047124B00221A70124B4C
:10483C0007221A7070470F4B00221A700E4B07227A
:10484C001A7070470B4B02221A700B4B00221A7015
:10485C007047084B00221A70074B07221A705FE74B
:10486C00050500200105002077040020C604002067
:10487C00DC0400200005002075040020B54B1B78DB
:10488C00162B40F2D5832DE9F04182B0B24B1E7845
:10489C00022E02D002B0BDE8F0810420FFF711FB1C
:1048AC000120FEF729FCB620FEF732FC0746B520A6
:1048BC00FEF72EFCB420FEF72BFC17F0F00F1AD0ED
:1048CC0017F0800F5FD117F0400F04D0A14B9B78ED
:1048DC00162B00F2BB8017F0200F04D09D4B5B7899
:1048EC00162B00F2128117F0100F04D0994B1B7885
:1048FC00162B00F28D81994B1B68012BCAD1984B5A
:10490C001C78984B1D5D002D40F01B82964B1B5D57
:10491C00083BDBB2012B00F24D82944B1F78944B79
:10492C0093F80080934B1B780F2B00F0D1810E2B4A
:10493C0000F0CD81102B00F01582112B00F01482A9
:10494C00122B00F01482132B00F01482062B00F0B3
:10495C001482072B00F01482092B00F01482082B10
:10496C0000F014820A2B00F015820C2B00F015823B
:10497C000B2B00F015820D2B00F01582172B00F07D
:10498C0015822E46A4E1734BDB78162B9BD90320A2
:10499C00FFF797FA00258A2408E02046FEF7B8FBBB
:1049AC00754B58550135EDB20134E4B2A12CF4D954
:1049BC000021A720FEF7B6FB8321A720FEF7B2FB50
:1049CC00002305E05A1C6C49885C6C49C854D3B26E
:1049DC00042BF7D9052306E09A1C6749895C674AC2
:1049EC00D1540133DBB2092BF6D9654803F07EFEB6
:1049FC00002406E0614B195D624803F077FE013438
:104A0C00E4B2052CF6D95D4C617A5E4803F06EFE7B
:104A1C00E378612B7FF457AF637A9E2B7FF453AF0F
:104A2C00594B197841F008011970584803F05EFE93
:104A3C002379382B7FF447AF6379022B7FF443AF94
:104A4C00514A137823F0080313703CE70220FFF758
:104A5C0038FA00258A2408E02046FEF759FB464B1D
:104A6C0058550135EDB20134E4B2A12CF4D9002132
:104A7C00A720FEF757FB8321A720FEF753FB00234B
:104A8C0005E05A1C3C49885C4149C854D3B2042BFC
:104A9C00F7D9052306E09A1C3749895C3C4AD15466
:104AAC000133DBB2092BF6D93A4803F01FFE002480
:104ABC0006E0374B195D334803F018FE0134E4B2BD
:104ACC00052CF6D9324C617A2E4803F00FFEE378B0
:104ADC00612B7FF400AF637A9E2B7FF4FCAE2A4BE4
:104AEC00197841F004011970284803F0FFFD23796F
:104AFC00382B7FF4F0AE6379022B7FF4ECAE224AB4
:104B0C00137823F004031370E5E60120FFF7D9F9BD
:104B1C0000258A2408E02046FEF7FAFA164B585571
:104B2C000135EDB20134E4B2A12CF4D90021A72057
:104B3C00FEF7F8FA8321A720FEF7F4FA002305E02C
:104B4C005A1C0D49885C1449C854D3B2042BF7D9AC
:104B5C0005232AE0FC0400209C040020D80400203B
:104B6C004501002074040020C80400200505002025
:104B7C0077040020DC040020AC0400206404002036
:104B8C00348D01083C8D010846010020448D01083C
:104B9C00EC040020588D0108800400209A1CB749B1
:104BAC00895CB74AD1540133DBB2092BF6D9B5482D
:104BBC0003F09CFD002406E0B14B195DB24803F0F4
:104BCC0095FD0134E4B2052CF6D9AD4C617AAE48B2
:104BDC0003F08CFDE378612B7FF485AE637A9E2B1A
:104BEC007FF481AEA94B197841F002011970A848E5
:104BFC0003F07CFD2379382B7FF475AE6379022B9F
:104C0C007FF471AEA14A137823F0020313706AE6A5
:104C1C000020FFF756F900258A2408E02046FEF70D
:104C2C0077FA964B58550135EDB20134E4B2A12C0C
:104C3C00F4D90021A720FEF775FA8321A720FEF7EF
:104C4C0071FA002305E05A1C8C49885C9149C854C0
:104C5C00D3B2042BF7D9052306E09A1C8749895C4B
:104C6C008C4AD1540133DBB2092BF6D98A4803F0B4
:104C7C003DFD002406E0874B195D834803F036FDAB
:104C8C000134E4B2052CF6D9824C617A7E4803F0EB
:104C9C002DFDE378612B7FF42EAE637A9E2B7FF48F
:104CAC002AAE7A4B197841F001011970784803F05B
:104CBC001DFD2379382B7FF41EAE6379022B7FF414
:104CCC001AAE724A137823F00103137013E604260C
:104CDC003046FFF7C1FC06462846FFF7BDFC0546EB
:104CEC003846FFF7B9FC07464046FFF7B5FC80464F
:104CFC002046FFF7E6F831465A20FEF713FA29460C
:104D0C005920FEF70FFA39466020FEF70BFA4146A0
:104D1C005F20FEF707FA61216F20FEF703FA0A20E5
:104D2C00FEF7EAF960216F20FEF7FCF9CDF8008060
:104D3C003B462A463146594803F0D8FC584B0022D2
:104D4C001A60584B1878584B1B5C022B5BD0554B98
:104D5C001B78554AD35C012B00F00981504B002283
:104D6C001A6097E50126B3E72E468025B0E72E465C
:104D7C004025ADE72E462025AAE72E460825A7E7B5
:104D8C002E461025A4E72E460425A1E733462E46D1
:104D9C001D469DE72E460C259AE72E460A2597E7D9
:104DAC002E46142594E72E46122591E72F462E46C3
:104DBC0007258DE72046FFF784F83C4C21785920D5
:104DCC00FEF7B0F93A4D29785A20FEF7ABF9394E77
:104DDC0031785D20FEF7A6F9374B19786020FEF785
:104DEC00A1F941216F20FEF79DF90A20FEF784F905
:104DFC0040216F20FEF796F933782A7821782F48D6
:104E0C0003F074FC9AE7FFF75CF8A5216E20FEF71F
:104E1C0089F902216E20FEF785F9244B1B78063B9D
:104E2C00092B00F29380DFE803F04D5E806F9191C7
:104E3C009191910550216E20FEF774F900216E209E
:104E4C00FEF770F900216E20FEF76CF900216E2040
:104E5C00FEF768F949216F20FEF764F90520FEF78B
:104E6C004BF948216F20FEF75DF90D4B00221A60BB
:104E7C000E4B1978124803F039FC68E7AC0400209B
:104E8C0080040020608D01083C8D01084601002043
:104E9C00448D0108E0040020688D0108708D010824
:104EAC00D80400204501002074040020DC040020FC
:104EBC00770400200505002076040020888D010869
:104ECC009C8D010808216E20FEF72CF900216E2024
:104EDC00FEF728F9FF216E20FEF724F900216E2041
:104EEC00FEF720F9B6E704216E20FEF71BF900212E
:104EFC006E20FEF717F9FF216E20FEF713F9002143
:104F0C006E20FEF70FF9A5E702216E20FEF70AF9D5
:104F1C00FF216E20FEF706F900216E20FEF702F944
:104F2C0000216E20FEF7FEF894E701216E20FEF7BB
:104F3C00F9F8FF216E20FEF7F5F800216E20FEF740
:104F4C00F1F800216E20FEF7EDF883E700216E20CA
:104F5C00FEF7E8F800216E20FEF7E4F800216E2041
:104F6C00FEF7E0F800216E20FEF7DCF872E7FFF7A1
:104F7C009BFB304B1878FEF7A4FF00215A20FEF75C
:104F8C00D1F800216020FEF7CDF800216620FEF755
:104F9C00C9F800216C20FEF7C5F845216F20FEF7FB
:104FAC00C1F844216F20FEF7BDF82320FDF704FB68
:104FBC00214D2878FFF750FB01465A20FEF7B2F836
:104FCC001E4E3078FFF748FB01466020FEF7AAF82A
:104FDC001B4F3878FFF740FB01466620FEF7A2F81E
:104FEC00184C2078FFF738FB01466C20FEF79AF836
:104FFC0045216F20FEF796F844216F20FEF792F8BA
:10500C002320FDF7D9FA104B00221A600F4B1B78A6
:10501C000F4A12780F4909780F4802F0C7FC3B7809
:10502C0032782978207800900C4802F0BFFC95E685
:10503C00704700BF450100200005002075040020CA
:10504C0001050020C6040020D8040020050500201E
:10505C0077040020DC040020A88D0108C08D010815
:10506C00074B0F221A700023064A1370064A13705E
:10507C00064BC5221A70064B01221A60704700BFFE
:10508C00DC040020770400200505002076040020B5
:10509C00D804002008B5444803F028FB0421402024
:1050AC00FEF740F88321A720FEF73CF88021BE20B4
:1050BC00FEF738F842216F20FEF734F840217020BB
:1050CC00FEF730F820217120FEF72CF80021722019
:1050DC00FEF728F80021C020FEF724F80021C1209B
:1050EC00FEF720F80B21C220FEF71CF80C21C32080
:1050FC00FEF718F80D21C420FEF714F80E21C52078
:10510C00FEF710F81921C620FEF70CF87821C720FD
:10511C00FEF708F82121C820FEF704F80721CB2060
:10512C00FEF700F80821CC20FDF7FCFF0921CD206B
:10513C00FDF7F8FF0A21CE20FDF7F4FF0421CF2064
:10514C00FDF7F0FF0021D020FDF7ECFF0021D1206E
:10515C00FDF7E8FF6021D220FDF7E4FF1021D320FA
:10516C00FDF7E0FF0621D420FDF7DCFFBE21D520A2
:10517C00FDF7D8FF3921D620FDF7D4FF2721D72002
:10518C00FDF7D0FF0E21C220FDF7CCFF0F21C3206D
:10519C00FDF7C8FF1021C420FDF7C4FF1121C52065
:1051AC00FDF7C0FF08BD00BFD88D0108F0B583B076
:1051BC0000240CB103B0F0BD2046FEF782FE0120A6
:1051CC00FDF7A6FF064610F0800F34D12546A44B00
:1051DC001B5D083BDBB2012B5CD9A24B60221A7021
:1051EC00A04B1B78B34359D09F4B5B5D002B78D001
:1051FC00022B00F081809D4A525DFF2A02D00132C1
:10520C009A494A55032B23D1984B5B5D022B1FD92E
:10521C00954B01225A55954B00225A552146944BD9
:10522C001878FEF71DFE2946924803F05FFA2046D7
:10523C000AF0D4FC0CE08C4B1B5DB3B18E4B1B788D
:10524C00012B1AD0FFF70CF98B4B1B78012B1DD0BF
:10525C002546854B1B5D012B59D0834B5B5D022B87
:10526C0000F0CC800134E4B2A3E7804B1B5DFF2B34
:10527C00F8D001337D490B55F4E701210846FEF7C0
:10528C005BFD00213220FDF7F3FEDBE70120FBF78D
:10529C00E3FFDDE7734B60221A70A1E7724B5B5D95
:1052AC00022B0BD093B9704B01225A556F4B002235
:1052BC005A552946714803F019FAC9E76B4B5B5DE7
:1052CC00FF2BC5D00133694A5355C1E7664B022207
:1052DC005A55664B00225A552946694803F006FA7E
:1052EC00B6E7614B01225A55604B00225A552946AC
:1052FC00644803F0FBF9ABE75B4B03225A555B4B5D
:10530C0000225A552946604803F0F0F9A0E7032023
:10531C00FDF7FEFE00F008025C4B1A6000F007027D
:10532C004F4B1F5D062A11D0042A18D0052A4FD0E6
:10533C00022A1ED03ABB564B1B68002B49D04B4B54
:10534C005B5D13F0020F44D0262242E0514B1B68E8
:10535C00002BE9D016F0040F34D0092239E04C4B65
:10536C001B688BB3414B5B5D13F0020F2ED10C22EB
:10537C002FE0474B1B6863B33C4B5B5D13F0020F94
:10538C0027D0232225E0032A23D9414B1B680BB9D4
:10539C003A461EE009212F20FDF7C4FE0420FDF73C
:1053AC00B7FEA0F14903DBB20B2B21D9A0F15603B8
:1053BC00DBB20B2B1ED9A0F17103DBB20E2B1BD968
:1053CC003A4606E0082204E00C2202E0242200E027
:1053DC000D22234B5B5D93423FF43FAF204B5A555C
:1053EC0029462D4803F082F92046FEF771FD34E77B
:1053FC002022EEE72222ECE72522EAE71B4B5B5D3D
:10540C00002B7AD1254B00225A55254B1C70144B7E
:10541C005B5D0C3BDBB2012B50D9A4F10A00214B94
:10542C00595DC0B2FDF77EFE114B1B782F2B54D06B
:10543C001D4B595DF720FDF775FE1C4B595DFA208D
:10544C00FDF770FE1A4B1B781A4A11788B423FF409
:10545C0009AF174B1970184803F048F902E700BF61
:10546C00C8040020C70400209C040020FC04002079
:10547C0007050020348B010822010020D88A01087E
:10548C00EC8A0108048B0108188B0108CC0400205D
:10549C00A4040020D0040020508B010874040020C8
:1054AC00700400204C8E0108508E0108548E0108A7
:1054BC0006050020780400206C8B01080320FDF702
:1054CC0027FE10F0080FA8D1BA4A535D23F0080349
:1054DC0053552046FEF7FCFC9FE7B74B595DF8206F
:1054EC00FDF720FEB54B5D5D2946FA20FDF71AFE4F
:1054FC002946FB20FDF716FEA4E7012B7ED0022BDC
:10550C0000F0B880032B00F0F380062B40F24281B0
:10551C00132B40F27181142B00F09281152B00F0AB
:10552C002482162B7FF49EAEA54B5B5D9BBBA14BDF
:10553C005B5D083BDBB2012B40F23282A148FEF7E7
:10554C00A2FC9C4B5B5D023BDBB2012B40F22A823E
:10555C0021464020FDF7E6FD8021BE20FDF7E2FD4F
:10556C00B620FDF7D5FDB520FDF7D2FDB420FDF733
:10557C00CFFD0021A720FDF7D5FD0120FDF7BCFDD7
:10558C008321A720FDF7CEFD8A4B5B5D023BDBB28E
:10559C00012B40F20C828A4B5B5D012B00F00E82DA
:1055AC00874B5B5D022B7FF45DAE8748FEF76BFC8F
:1055BC0021464020FDF7B6FD8021BE20FDF7B2FD4F
:1055CC00B620FDF7A5FDB520FDF7A2FDB420FDF733
:1055DC009FFDA420FDF79CFDA220FDF799FDA320C3
:1055EC00FDF796FD0021A720FDF79CFD0120FDF79E
:1055FC0083FD8321A720FDF795FD33E6734B1B78C4
:10560C00232B7FF62FAE0120FDF782FD06460146C7
:10561C006F4803F06BF8674B595DA1F10803DBB2DF
:10562C00012B23D906F06406602E7FF41BAE0B1FF2
:10563C00DBB2012B7FF616AE0C293FF413AE0D290D
:10564C003FF410AE00293FF40DAE01293FF40AAE31
:10565C002046FEF70FFE00283FF404AE584B022202
:10566C005A5529465B4803F041F8FBE55A4803F0CC
:10567C003DF8F7E5554B1B78232B7FF6F3AD012056
:10568C00FDF746FD06460146514803F02FF8494BFD
:10569C00595DA1F10803DBB2012B25D906F01103EA
:1056AC00102B03D0464B5B5D022B0FD016F0040F72
:1056BC007FF4D8AD0B1FDBB2012B07D90C2905D019
:1056CC000D2903D011B101297FF4CCAD2046FEF792
:1056DC0075FD00283FF4C6AD394B01225A552946B9
:1056EC003E4803F003F8BDE53B4802F0FFFFB9E587
:1056FC00364B1B78232B7FF6B5AD0120FDF708FD4B
:10570C0006460146324802F0F1FF2A4B595D8B1ECA
:10571C00DBB2012B24D9012B29D90B1FDBB2012BB6
:10572C0006D90C2904D00D2902D009B1012906D1C2
:10573C0016F0040F03D1224B5B5D012B22D0A1F19B
:10574C000803DBB2012B21D916F0010F3FF48AAD0F
:10575C002046FEF7BDFB2946214802F0C7FF81E534
:10576C0016F0040FD7D11F4802F0C0FF7AE516F0EF
:10577C00040FD2D0124B5B5D002BCED11A4802F035
:10578C00B5FF6FE5194802F0B1FF6BE5184802F060
:10579C00ADFF67E5174E06EB85039A78DA705A78F9
:1057AC009A7016F825205A70FEF7F0FD06F82500C1
:1057BC0058E500BFC8040020508E0108548E010823
:1057CC007404002040920108DC90010807050020B9
:1057DC00848B0108A48B0108948B0108B88B0108F9
:1057EC003C8C0108CC8B0108E88B0108048C010867
:1057FC00288C0108A0040020864F07EB8506B3789F
:10580C00F3707378B37017F825307370FEF7BEFD24
:10581C0007F82500F3781B1A0133022B3FF622AD53
:10582C00B3781B1A0133022B3FF61CAD73781B1A8D
:10583C000133022B3FF616AD774B13225A5511E567
:10584C00FEF7A4FD0646754B5B5D754F7A5D0092C5
:10585C002A460146734802F049FF7B5D9A1ED2B27C
:10586C00012A12D9012B3CD91A1FD2B2012A3CD9D8
:10587C00A3F10C02D2B2012A3BD9082B3DD0092B43
:10588C003FD1694B01225A5502E0674B06225A550B
:10589C00654B5A5D654B1A70654B1B78012B34D0E8
:1058AC00614B5A5D634B5B5D9A4205D0624B1B7832
:1058BC002946624802F01AFF584B5B5D5BBB604B9C
:1058CC001B78243BDBB2012B38D9554B5B5D082B85
:1058DC0043D0092B45D04FF412615A4802F006FF11
:1058EC00C0E4514B05225A55D2E74F4B05225A556D
:1058FC00CEE74D4B05225A55CAE74B4B00225A5561
:10590C00C6E7494B14225A55C2E740214FF47A702E
:10591C0002F0FEF8C4E7B10861F07F01C9B20720BC
:10592C00FDF700FC3D4B5B5D012B03D0464802F0BC
:10593C0051FF97E4454802F04DFF93E4384B5B5D13
:10594C0013F0200FC1D00321B6FBF1F161F07F0100
:10595C00C9B20720FDF7E6FBB7E73D4802F03AFF76
:10596C0080E43C4802F036FF7CE42C4B5B5D83B951
:10597C00334B1B78243BDBB2012B3FF673AC284B2B
:10598C005B5D13F0200F3FF46DAC1620FEF707FDA6
:10599C0068E42046FEF7C6FC0C20FEF700FD61E42F
:1059AC002D48CCE51921C620FDF7BCFBD0E52B4BCF
:1059BC001C7029462A4802F099FEECE5FFF76AFBB9
:1059CC002848FEF760FA21464020FDF7ABFB042186
:1059DC004020FDF7A7FB8021BE20FDF7A3FBB620DE
:1059EC00FDF796FBB520FDF793FBB420FDF790FB7C
:1059FC002421A720FDF796FB0120FDF77DFBA721B5
:105A0C000846FDF78FFB154B1978174802F06EFE10
:105A1C00C6E500BFA0040020FC0400207404002094
:105A2C00C8040020508C0108240000202000002015
:105A3C002201002064070020EC0000207C8C01086F
:105A4C0007050020FC8C0108C88C0108BC8C0108DF
:105A5C00D48C0108E88C01089890010845010020BD
:105A6C00108D0108389001081C8D0108044B1A7820
:105A7C00044B1B789A4201D00120704700207047DC
:105A8C004A0100204B010020044B1A78044B1B7870
:105A9C009A4201D001207047002070474801002035
:105AAC0049010020064A13780649C85C0133DBB271
:105ABC0013701D2B02D9134600221A70704700BFB9
:105ACC004B01002044050020064A13780649C85CA7
