:020000040800F2
:1000000000500020998500089517000897170008F0
:10001000991700089B1700089D17000800000000B2
:100020000000000000000000000000009F17000812
:10003000A117000800000000A3170008A51700087A
:10004000E1850008E1850008E1850008E1850008F8
:10005000E1850008E1850008E1850008E1850008E8
:10006000AD170008E1850008E1850008E18500087A
:10007000E1850008E1850008E1850008E1850008C8
:10008000E1850008E1850008E1850008E1850008B8
:10009000E1850008E1850008E1850008E1850008A8
:1000A000E1850008E1850008E1850008E185000898
:1000B000E1850008B9170008E1850008E18500081E
:1000C000E1850008E1850008E1850008E185000878
:1000D000E1850008C9170008D9170008E185000864
:1000E000E1850008E1850008E185000800000000C6
:1000F0000000000000000000000000000000000000
:0C01000000000000000000005FF808F1A3
:10010C0010B5054C237833B9044B13B10448AFF345
:10011C0000800123237010BDF400002000000000BB
:10012C00AC22010808B5034B1BB103490348AFF3DC
:10013C00008008BD00000000F8000020AC2201087F
:10014C00002902D0B0FBF1F0704708B14FF0FF303E
:10015C0000F01EB80029F8D00246B0FBF1F000FB0D
:10016C0011217047002902D090FBF1F07047002854
:10017C00C8BF6FF00040B8BF4FF0004000F008B8A7
:10018C000029F4D0024690FBF1F000FB11217047DE
:10019C00704700BFF0B589B000250495059506950C
:1001AC0007952E4B9A6942F004029A619A6902F003
:1001BC0004020092009A9A6942F008029A619A69C4
:1001CC0002F008020192019A9A6942F010029A61B7
:1001DC009A6902F010020292029A9A6942F0200285
:1001EC009A619B6903F020030393039B1C4F01222C
:1001FC004FF48051384602F010FE20230493012462
:10020C00059406940226079604A9384602F012FDBE
:10021C0010230493059506940DEB0301384602F068
:10022C0009FD4FF4E053049305940694079604A932
:10023C000C4802F0FFFC04960594069407960A4EAF
:10024C0004A9304602F0F6FC492304930595069464
:10025C0004A9304602F0EEFC09B0F0BD00100240DB
:10026C0000080140000C01400010014030B587B07F
:10027C0000240294039404940594009401940E4D6C
:10028C000E4B2B6023236B60AC600923EB602C615D
:10029C008023AB61284601F01DFD4FF4805302937F
:1002AC0002A9284601F0DBFD00940194694628461A
:1002BC0001F070FE07B030BD0003002000040040C8
:1002CC0008B50848084B03604FF4E1334360002342
:1002DC008360C36003610C2242618361C36101F0DE
:1002EC0058FF08BD700300200038014008B50848CD
:1002FC00084B03604FF41643436000238360C360D4
:10030C0003610C2242618361C36101F042FF08BDAD
:10031C00F40300200044004000B583B000238DF8A6
:10032C0007300DF106010DF1070011F0A3FF0E4B84
:10033C001B78042B03D00D4A1278934208D00B4B38
:10034C001B789DF807100A4AD15403B05DF804FBE2
:10035C00084B1B789DF807008342F0D0054B1870B2
:10036C0009F07EFCEBE700BF380100205D070020A0
:10037C0030010020F901002010B50138012809D8FE
:10038C0014464FF47A7392B2074801F031FF40B132
:10039C00002010BD08F020F9092303604FF0FF3056
:1003AC00F7E72046F5E700BF7003002038B55B4B3C
:1003BC001870042820D8DFE800F02044688C030073
:1003CC00574D01224021284602F027FD554C0122B1
:1003DC002021204602F021FD01221021204602F0AE
:1003EC001CFD01220821204602F017FD01224FF4CA
:1003FC000041284602F011FD38BD494D0122402133
:10040C00284602F00AFD474C00222021204602F02B
:10041C0004FD01221021204602F0FFFC01220821DC
:10042C00204602F0FAFC01224FF40041284602F06B
:10043C00F4FC3D4C207809F013FC22783B4B1A70ED
:10044C00DAE7374D01224021284602F0E6FC354C14
:10045C0001222021204602F0E0FC0022102120463F
:10046C0002F0DBFC01220821204602F0D6FC01221E
:10047C004FF40041284602F0D0FC2B4C607809F078
:10048C00EFFB6278294B1A70B6E7254D002240210C
:10049C00284602F0C2FC234C01222021204602F007
:1004AC00BCFC01221021204602F0B7FC00220821DE
:1004BC00204602F0B2FC01224FF40041284602F023
:1004CC00ACFC194CA07809F0CBFBA278174B1A7036
:1004DC0092E7134D00224021284602F09EFC114C5D
:1004EC0001222021204602F098FC012210212046F6
:1004FC0002F093FC01220821204602F08EFC00221F
:10050C004FF40041284602F088FC074CE07809F0D3
:10051C00A7FBE278054B1A706EE700BF380100208C
:10052C0000080140000C014030010020F9010020BE
:10053C0010B50446012809D001220821064802F012
:10054C006CFC2146054807F0E5F910BD0022082196
:10055C00014802F062FCF4E700100140B4230108EA
:10056C0008B507F079FA08BD70B582B0184B0022B7
:10057C001A709C200AF07EFD04469D200AF07AFD3C
:10058C000546A1200AF076FD0646A2200AF072FD6F
:10059C00BC2C02D0002002B070BD072D01D0002071
:1005AC00F9E7102E01D00020F5E7B82801D0002083
:1005BC00F1E7084B1B7801930124009440F2994316
:1005CC00054A0649064808F045F82046E3E700BF0F
:1005DC005D070020600700207C240108D822010858
:1005EC00E422010830B583B000241DE0794B1B7860
:1005FC00142B03D0784B01221A5522E0764B0022A3
:10060C001A551EE0002C5BD0744B1D78724B5B5D51
:10061C00012B59D0714B1B78714AD25C7149C95C62
:10062C008A425ED10134E4B2012C00F2D0806B4BD3
:10063C001C70012CDAD011F02FFE684B1B78664A27
:10064C00D054664B1B78684AD15C684AD25C9142A4
:10065C0001D06549CA54604AD25C6549C95C8A427A
:10066C00D2D06349CA54002ACED120460FF06AFA80
:10067C00631C00934FF499635E4A5F495F4807F02F
:10068C00E9FF5F4BDB794BB101225E4B1A60002313
:10069C005D490B605D490A705D4A13704F4B1B78C6
:1006AC0014224F49CA544F49CA545A4A1278002A44
:1006BC00A8D1002BA6D10121002003F0BDFAA1E79F
:1006CC000120FFF735FF9FE7012C05D0284611F0DC
:1006DC00DFFC434B58559DE73E4B1A78404B5A551F
:1006EC0098E74049CA54FFF73FFF00284DD13B4BD8
:1006FC001B783B4AD35C142B94D02546404B1A787C
:10070C00374B195D20460FF091F8424B1B78012BAB
:10071C0045D0414B33F81530404A32F8152040494A
:10072C0031F815103F4830F81500009020460FF0B6
:10073C0039FE2B4B5B5D01930135009540F2F9437B
:10074C002C4A2D49384807F085FF2D4BDB794BB1EE
:10075C0001222C4B1A6000232B490B602B490A7089
:10076C002B4A13702B4B1B7813B91C4B1B78FBB10A
:10077C00284B1B78012B20D0184B1B78002B7FF4B7
:10078C0051AF0020FFF7D4FE4CE7631C009340F2FE
:10079C00ED43184A1849254807F05CFF42E70F4B18
:1007AC001B78012BB5D10121192002F03FFCB0E7D9
:1007BC000021084603F040FADAE7084B1B78012BBE
:1007CC00DAD140214FF47A7007F056F9D4E703B030
:1007DC0030BD00BF200000202C0100205D07002050
:1007EC00600700200C0000207C070020340800204B
:1007FC002801002090240108D822010804230108B4
:10080C0038040020140100202001002008000020E2
:10081C00110100201E010020C8000020D000002083
:10082C00C0000020D8000020E42201082C2301087D
:10083C0038B507F04FFE044601461A4807F06AF82F
:10084C0007F048FE41F2120398420BD107F042FE2A
:10085C0041F2120398421BD19C4213D1642002F046
:10086C0027FC38BD104D1946284607F053F841F2C5
:10087C00120007F055FE07F02DFE0146284607F042
:10088C0049F8E3E707F070FE084807F043F8E5E79E
:10089C00074807F03FF8074807F03CF8064BFF22E3
:1008AC001A70DEE78025010894250108A4250108AB
:1008BC00E0250108FC250108B103002010B588B023
:1008CC00602301930290002303930593054C0822A7
:1008DC0001A9204601F04AFA0821204601F03CFB10
:1008EC0008B010BDB403002038B50546002406E05E
:1008FC00295D044B185D02F099FB0134E4B2572CCE
:10090C00F6D938BD0079010808B5034807F002F89C
:10091C000248FFF7E9FF08BDE823010858790108F0
:10092C0008B5054806F0F6FF0448FFF7DDFF102177
:10093C00D72002F07BFB08BD10240108B079010818
:10094C0008B5034806F0E6FF0248FFF7CDFF08BDE7
:10095C0034240108087A010808B5034806F0DAFFC8
:10096C000248FFF7C1FF08BD58240108607A01084E
:10097C0008B5FE4806F0CEFF0021012002F056FB20
:10098C000021022002F052FB7521032002F04EFBE5
:10099C001821042002F04AFB8021052002F046FBBE
:1009AC002021062002F042FB0821072002F03EFB2A
:1009BC004021082002F03AFB0A21092002F036FB04
:1009CC0041210A2002F032FB07210B2002F02EFB02
:1009DC0000210C2002F02AFB20210D2002F026FB26
:1009EC0010210E2002F022FB00210F2002F01EFB32
:1009FC008021102002F01AFB8221112002F016FB3C
:100A0C002121122002F012FBD021132002F00EFB48
:100A1C00E021142002F00AFB7821152002F006FBDD
:100A2C00FE21162002F002FB0021172002F0FEFA34
:100A3C00C821182002F0FAFA0021192002F0F6FA67
:100A4C0023211A2002F0F2FA00211B2002F0EEFA08
:100A5C0000211C2002F0EAFA00211D2002F0E6FA27
:100A6C0020211E2002F0E2FA32211F2002F0DEFAD1
:100A7C005A21202002F0DAFA0D21212002F0D6FAB8
:100A8C003221222002F0D2FA5A21232002F0CEFA8F
:100A9C00D021242002F0CAFA2121252002F0C6FA26
:100AAC000D21262002F0C2FAE021272002F0BEFA26
:100ABC00F021282002F0BAFA0021292002F0B6FA1F
:100ACC0000212A2002F0B2FA01212B2002F0AEFA0A
:100ADC00FF212C2002F0AAFA00212D2002F0A6FA08
:100AEC0012212E2002F0A2FAD0212F2002F09EFA21
:100AFC00E021302002F09AFA8021312002F096FA9F
:100B0C008021322002F092FA8021332002F08EFAFA
:100B1C00A021342002F08AFA1821352002F086FA3E
:100B2C004621362002F082FA6421372002F07EFA48
:100B3C000021382002F07AFAFF21392002F076FAEF
:100B4C0003213A2002F072FA80213B2002F06EFA67
:100B5C0080213C2002F06AFA80213D2002F066FAE6
:100B6C0080213E2002F062FA80213F2002F05EFAE2
:100B7C006021412002F05AFA5F21422002F056FA1D
:100B8C003721432002F052FA1421442002F04EFA8D
:100B9C000421452002F04AFA0021462002F046FAD0
:100BAC000021472002F042FA0021482002F03EFAD0
:100BBC000021492002F03AFA20214B2002F036FAAB
:100BCC0000214C2002F032FA00214D2002F02EFAC6
:100BDC0000214E2002F02AFA7F214F2002F026FA43
:100BEC002021502002F022FA0021512002F01EFA9E
:100BFC000021522002F01AFA0421532002F016FAB6
:100C0C000021542002F012FAE021552002F00EFAD5
:100C1C004021562002F00AFA0421572002F006FA6D
:100C2C000021582002F002FA0821592002F0FEF9A6
:100C3C0010215A2002F0FAF900215B2002F0F6F99B
:100C4C0068215C2002F0F2F940215D2002F0EEF9FF
:100C5C0008215E2002F0EAF900215F2002F0E6F99B
:100C6C00E021602002F0E2F95421612002F0DEF96B
:100C7C003321622002F0DAF90121632002F0D6F967
:100C8C00FF21642002F0D2F90121652002F0CEF997
:100C9C00FF21662002F0CAF98921672002F0C6F90B
:100CAC00AB21682002F0C2F98821692002F0BEF95C
:100CBC006E216A2002F0BAF96E216B2002F0B6F9AF
:100CCC006E216C2002F0B2F900216D2002F0AEF919
:100CDC0000216E2002F0AAF900216F2002F0A6F983
:100CEC000021702002F0A2F90021712002F09EF97F
:100CFC000021722002F09AF90021732002F096F97B
:100D0C000021742002F092F9FF21752002F08EF977
:100D1C00FF21762002F08AF9FF21772002F086F974
:100D2C00FF21782002F082F9FF21792002F07EF970
:100D3C00FF217A2002F07AF9FF217B2002F076F96C
:100D4C00FF217C2002F072F9F0217D2002F06EF977
:100D5C0080217E2002F06AF900217F2002F066F9E2
:100D6C000021802002F062F902E000BFCC230108D0
:100D7C003421812002F05AF94021822002F056F9E8
:100D8C000521832002F052F95921842002F04EF9FA
:100D9C00FD21852002F04AF90421862002F046F953
:100DAC002421872002F042F99421882002F03EF998
:100DBC005821892002F03AF900218A2002F036F9F4
:100DCC007E218B2002F032F903218C2002F02EF9C7
:100DDC002C218D2002F02AF98C218E2002F026F98C
:100DEC0000218F2002F022F9CC21902002F01EF974
:100DFC004121912002F01AF9C421922002F016F937
:100E0C003121932002F012F98721942002F00EF97F
:100E1C00D021952002F00AF9F321962002F006F970
:100E2C002021972002F002F91121982002F0FEF8FF
:100E3C009021992002F0FAF8FF219A2002F0F6F89E
:100E4C0004219B2002F0F2F80A219C2002F0EEF81B
:100E5C0000219D2002F0EAF804219E2002F0E6F821
:100E6C0065219F2002F0E2F82F21A02002F0DEF88D
:100E7C00D921A12002F0DAF89821A22002F0D6F8AC
:100E8C008721A32002F0D2F8E121A42002F0CEF8B1
:100E9C003821A52002F0CAF8C221A62002F0C6F81B
:100EAC007021A72002F0C2F80021A82002F0BEF8A1
:100EBC001E21A92002F0BAF82E21AA2002F0B6F8C1
:100ECC000021AB2002F0B2F88421AC2002F0AEF885
:100EDC00F321AD2002F0AAF86521AE2002F0A6F8AD
:100EEC009921AF2002F0A2F80021B02002F09EF868
:100EFC000021B12002F09AF80021B22002F096F8FD
:100F0C000021B32002F092F80021B42002F08EF8F8
:100F1C000021B52002F08AF80021B62002F086F8F4
:100F2C008021B82002F082F80021B92002F07EF86E
:100F3C000121BA2002F07AF80021BB2002F076F8E9
:100F4C009021BC2002F072F80121BD2002F06EF855
:100F5C002C21BE2002F06AF80021C02002F066F8B5
:100F6C002021C12002F062F82021C22002F05EF89C
:100F7C002021C32002F05AF82021C42002F056F898
:100F8C002021C52002F052F8FF21D02002F04EF8AB
:100F9C003F21D12002F04AF8C221D22002F046F8BB
:100FAC003F21D32002F042F80021D42002F03EF879
:100FBC000021D52002F03AF80021D62002F036F8B4
:100FCC001021D72002F032F80021D82002F02EF8A0
:100FDC007721DC2002F02AF80021DD2002F026F82F
:100FEC00AF21DE2002F022F8EF21DF2002F01EF804
:100FFC000021E02002F01AF80021E12002F016F89E
:10100C000021E22002F012F81221E32002F00EF887
:10101C00E221E42002F00AF8D021E52002F006F8E3
:10102C000021E62002F002F80021E72001F0FEFF8B
:10103C000F21E82001F0FAFF0021E92001F0F6FF72
:10104C000021EA2001F0F2FF0021EB2001F0EEFF7D
:10105C008821EC2001F0EAFF0021ED2001F0E6FFF1
:10106C000021EE2001F0E2FF0021EF2001F0DEFF75
:10107C003021F02001F0DAFF4321F12001F0D6FFFE
:10108C001F21F22001F0D2FF1F21F32001F0CEFF2F
:10109C002221F42001F0CAFF7321F52001F0C6FFD4
:1010AC005321F62001F0C2FF8021F72001F0BEFF92
:1010BC000121F82001F0BAFF0121F92001F0B6FF5F
:1010CC000021FA2001F0B2FF0021FB2001F0AEFF5D
:1010DC000021FC2001F0AAFF7021FD2001F0A6FFE9
:1010EC004021FE2001F0A2FF0721FF2001F09EFF0E
:1010FC0008BD00BF70B590B02022002107A807F0F2
:10110C00A0FA0024019402940394049405940225FB
:10111C00069501260A9610230B930D954FF4E013B8
:10112C000F9306A801F06CFA0F2301930295039418
:10113C0004940594314601A801F0A2FC10B070BDD6
:10114C000268184B9A4200D07047174A1378013343
:10115C00DBB2137015490A6801320A6014490A6837
:10116C0001320A60632B09D9124A136801331360E8
:10117C000D4B00221A70104B01221A600F4B1A688B
:10118C0001321A601A680E4B9A42DDD90B4B0022C1
:10119C001A600C4B1B78012BD6D10B4A13780133F8
:1011AC001370D1E7000400405B0100205C010020BB
:1011BC006001002054010020500100203C0100205F
:1011CC00A0860100080000201101002010B5044683
:1011DC000268184B9A4204D02268174B9A4214D0DA
:1011EC0010BD16490A78531CDBB20B7014490878F1
:1011FC00144988541D2B02D9104B00221A7001225D
:10120C000F49114801F064F8E6E710490A78531CBD
:10121C00DBB20B700E4908780E498854C72B02D9E3
:10122C000A4B00221A70012209490B4801F050F8B0
:10123C00D6E700BF003801400044004046010020C2
:10124C001C010020400500207003002044010020F8
:10125C001801002080050020F403002070470000D6
:10126C0038B5012834D00021322001F0DFFE0021F6
:10127C00192001F0DBFE0024404B1C70404807F0A5
:10128C005DFA40480470012343700EF005FD2146C1
:10129C00192001F0CBFEFFF767F940B93A4B1B78E8
:1012AC00012B10D00121002002F0C6FC2FE041F2EE
:1012BC00A513364A3649374807F0CCF901212046A8
:1012CC0002F0BAFC23E00021084602F0B5FC1EE057
:1012DC000021322001F0AAFE284C012525702E4851
:1012EC0007F02CFA27480570022343700EF0D4FC4B
:1012FC000421192001F09AFE2378AB420ED0224B28
:10130C005B78012B35D00121084602F095FC234B6C
:10131C0000221A70224B01221A7038BD214B1B7807
:10132C00072B10D0204807F095F9204B1B78052B84
:10133C0013D0062B14D0B3B1012B17D001211020E0
:10134C0001F074FEDBE7FFF7DFFA194807F082F9CA
:10135C002946284602F070FCD1E7FFF7E1FACEE708
:10136C00FFF7D2FACBE7FFF7EBFAC8E7FFF7F4FA8F
:10137C00C5E70021012002F05FFCC8E71E01002038
:10138C0054230108380400202C010020BC2401083F
:10139C00D8220108682301089023010811010020BC
:1013AC0008000020C4040020AC2301081C0000200D
:1013BC00A423010800B583B067E0134600221A701D
:1013CC0008F074FB70E05E4A13780133DBB21370E3
:1013DC005C4A1278934240F285800021584B197078
:1013EC00594B19705B78032B14D8013356494B7049
:1013FC00554C63780192009340F65103534A54497B
:10140C00544807F027F920460EF046FC524B0022B8
:10141C001A7067E04C4B01215970E9E74A4B5B7835
:10142C004D4A12780192009340F65903474A4849B5
:10143C004A4807F00FF959E0474B1B78092B59D94B
:10144C000023454A1370464A137002F0B2FB51E078
:10145C008021322001F0EAFD51E0FFF701FF01E0AD
:10146C0005F002FA04F07AFA0028F9D13D4B1B681A
:10147C00002BF7D001E006F0C3FC04F07DFA002845
:10148C00F9D106F09BFC03F071F9364B1B68012B6C
:10149C00E8D1FFF7A7F8FEF73FFF334A1378013383
:1014AC00DBB213700A2B88D80A2001F0A7FD2F4A53
:1014BC00138801339BB21380642B06D91346002288
:1014CC001A80254A137801331370234B1B78284A52
:1014DC001268934213D0264A1360264B1B78012BBB
:1014EC003FF471AF234B1B78012B97D01C4B1B780F
:1014FC00012BA1D0322001F08FFD0028A8D003F0E1
:10150C00CDFD10211C4801F081FC1C4B18701C4BAC
:10151C001B789842A6D0322001F070FD102116489D
:10152C0001F074FC154B1870154B1B78984299D030
:10153C00134B1870012890D00020FFF791FE91E713
:10154C00370100201200002038040020B0240108CC
:10155C00D82201080C2601081101002030260108B0
:10156C000800002024000020240100203401002069
:10157C00040000203601002000080140100100206A
:10158C001E0100202DE9F04383B000F0EBFFFFF7C4
:10159C00B1FDFEF7E5FFFEF7FDFDFEF767FEFEF77A
:1015AC008FFEFEF7A3FE09F0E5FC09F08FFF0AF0B1
:1015BC0035F90AF01FFC0121002002F03DFB01204F
:1015CC00FEF7B6FF322001F019FD012257495848A9
:1015DC0000F07EFE01225749574800F079FE574D26
:1015EC0000224FF48051284601F017FC544C002285
:1015FC000221204601F011FC642001F0FFFC0122C5
:10160C004FF48051284601F008FC012202212046AB
:10161C0001F003FC002420E04A4B1C704A4E4B4D59
:10162C00009440F23F7332462946494807F012F8BD
:10163C00002010F02AFE8021892009F057FD02209D
:10164C0009F018FD0190009440F24573324629468A
:10165C00404806F0FFFF0134E4B2012CDCD93E4CCB
:10166C000025257065710126A67166700223A37092
:10167C000327E7700423237138490F2002F0BCFACA
:10168C00FFF7D6F802F064FE284601F0C5FCDFF83F
:10169C00B890DFF8B880009040F273734A46414628
:1016AC002F4806F0D7FF40F274734A4641462D4846
:1016BC0006F0D0FFE771A67125726572284601F01D
:1016CC004CFE20460EF0E8FAE3793BB1264B1E6047
:1016DC0026490D6026490E70264A157026485D2352
:1016EC0000F8013B20226D2106F0ABFF01222123E3
:1016FC000AE002F17F002049C854581C6D240C5498
:10170C000132D2B20233DBB2402BF2D91F226D214F
:10171C001A4806F096FF0020FEF748FE184800F025
:10172C00CCF9184806F096FFFFF744FE1C01002088
:10173C007003002018010020F4030020000C01406D
:10174C00001001405D070020A8240108D8220108E0
:10175C00CC240108F424010838040020D89C01088A
:10176C00242501084825010814010020200100202F
:10177C000800002011010020FC0100203B02002089
:10178C0000030020702501087047FEE7FEE7FEE726
:10179C00FEE770477047704708B500F0F5FE08BDCE
:1017AC0008B5042001F040FB08BD000008B5024854
:1017BC0000F098F908BD00BF0003002008B50248EE
:1017CC0000F012FE08BD00BF7003002008B50248EF
:1017DC0000F00AFE08BD00BFF403002082B00E4BDF
:1017EC009A6942F001029A619A6902F00102009230
:1017FC00009ADA6942F08052DA61DB6903F08053B7
:10180C000193019B054A536823F0E06343F0007396
:10181C00536002B0704700BF00100240000001404E
:10182C0002680E4B9A4200D0704700B583B003F5A6
:10183C000333DA6942F00202DA61DB6903F0020376
:10184C000193019B002211461D2001F059FB1D2024
:10185C0001F08AFB03B05DF804FB00BF00040040FC
:10186C0070B588B004460023049305930693079340
:10187C000268364B9A4205D02268354B9A4234D0D6
:10188C0008B070BD03F558439A6942F480429A61DE
:10189C009A6902F480420092009A9A6942F004021A
:1018AC009A619B6903F004030193019B4FF400734D
:1018BC0004930223059303230793264E04A9304671
:1018CC0001F0B8F94FF48063049300250595069553
:1018DC0004A9304601F0AEF92A462946252001F02C
:1018EC000FFB252001F040FBC6E703F5E633DA6970
:1018FC0042F40032DA61DA6902F400320292029A9E
:10190C009A6942F004029A619B6903F00403039301
:10191C00039B0423049302230593032307930D4D88
:10192C0004A9284601F086F90823049300240594A1
:10193C00069404A9284601F07DF92246214626206A
:10194C0001F0DEFA262001F00FFB99E70038014088
:10195C00004400400008014070B4036A23F0010306
:10196C000362036A4268846924F073040D6845EAD3
:10197C00040623F002048B6823430D4DA84209D0C2
:10198C000B4DA8420DD0426086614A6842630362E7
:10199C0070BC704723F00803CC68234323F0040386
:1019AC00EEE722F440724C6914438A692243EAE759
:1019BC00002C014030B4036A23F480730362036A81
:1019CC004268C46924F073040D682C4323F400733B
:1019DC008D6843EA05230F4DA84209D00D4DA8424E
:1019EC000ED04260C4614A68C263036230BC704767
:1019FC0023F40063CD6843EA052323F48063EDE709
:101A0C0022F440524D6942EA05128D6942EA0512F0
:101A1C00E7E700BF002C014030B4036A23F4805385
:101A2C000362036A4468C26922F4E6420D6842EA22
:101A3C00052223F400538D6843EA0533074DA84271
:101A4C0006D04460C2614A680264036230BC7047CD
:101A5C0024F480444D6944EA8514F2E7002C0140DB
:101A6C0010B4036A046A24F001040462846924F04B
:101A7C00F00444EA021223F00A030B43826103626E
:101A8C0010BC704710B4036A23F01003036284691E
:101A9C00036A24F4704444EA023223F0A00343EABC
:101AAC0001138261036210BC7047836823F07003DA
:101ABC00194341F00701816070470268D36843F015
:101ACC000103D3600268936803F00703062B03D06D
:101ADC00136843F001031360002070477047704790
:101AEC007047704710B5044603681A6912F0020F6C
:101AFC0011D0DA6812F0020F0DD06FF002021A61E9
:101B0C000123037703689B6913F0030F70D0FFF771
:101B1C00E6FF0023237723681A6912F0040F12D012
:101B2C00DA6812F0040F0ED06FF004021A6102236F
:101B3C00237723689B6913F4407F5FD02046FFF71F
:101B4C00CEFF0023237723681A6912F0080F12D0F6
:101B5C00DA6812F0080F0ED06FF008021A61042335
:101B6C0023772368DB6913F0030F4ED02046FFF771
:101B7C00B6FF0023237723681A6912F0100F12D0D6
:101B8C00DA6812F0100F0ED06FF010021A610823F1
:101B9C0023772368DB6913F4407F3DD02046FFF7A1
:101BAC009EFF0023237723681A6912F0010F03D0DC
:101BBC00DA6812F0010F36D123681A6912F0800F1F
:101BCC0003D0DA6812F0800F34D123681A6912F04E
:101BDC00400F03D0DA6812F0400F32D123681A6933
:101BEC0012F0200F03D0DA6812F0200F30D110BDA4
:101BFC00FFF774FF2046FFF773FF8AE72046FFF7D5
:101C0C006DFF2046FFF76CFF9BE72046FFF766FF52
:101C1C002046FFF765FFACE72046FFF75FFF204645
:101C2C00FFF75EFFBDE76FF001021A612046FFF778
:101C3C0087FAC1E76FF080021A61204600F0CEF9F6
:101C4C00C3E76FF040021A612046FFF74AFFC5E771
:101C5C006FF020021A61204600F0BFF9C7E70000C0
:101C6C0003681B4A90420AD0B0F1804F07D0A2F50E
:101C7C009432904203D002F58062904203D123F05B
:101C8C0070034A681343124A90420AD0B0F1804F55
:101C9C0007D0A2F59432904203D002F580629042B4
:101CAC0003D123F44073CA68134323F080034A69B9
:101CBC00134303608B68C3620B688362044B9842C6
:101CCC0002D00123436170470B690363F9E700BF3E
:101CDC00002C0140A8B110B5044690F83D305BB122
:101CEC00022384F83D30211D2068FFF7B9FF012342
:101CFC0084F83D30002010BD80F83C30FFF790FD9B
:101D0C00EEE701207047000030B4036A23F01003A3
:101D1C000362036A4468826922F4E6420D6842EA6F
:101D2C00052223F020038D6843EA05130E4DA842CB
:101D3C0009D00D4DA8420ED0446082614A6882637E
:101D4C00036230BC704723F08003CD6843EA05136F
:101D5C0023F04003EDE724F440644D6944EA850424
:101D6C008D6944EA8504E7E7002C014038B590F80A
:101D7C003C30012B66D00D460446012380F83C30E4
:101D8C00022380F83D300C2A1AD8DFE802F007193C
:101D9C001919201919193419191947000068FFF776
:101DAC00DBFD2268936943F0080393612268936911
:101DBC0023F0040393612268936929690B439361AF
:101DCC00012384F83D30002084F83C0038BD0068C5
:101DDC00FFF79AFF2268936943F4006393612268CA
:101DEC00936923F48063936122689369296943EAB8
:101DFC0001239361E4E70068FFF7DCFD2268D369F7
:101E0C0043F00803D3612268D36923F00403D36140
:101E1C002268D36929690B43D361D1E70068FFF7C6
:101E2C00FBFD2268D36943F40063D3612268D36954
:101E3C0023F48063D3612268D369296943EA0123BF
:101E4C00D361BDE70220C1E710B4846824F47F4459
:101E5C0042EA03230B432343836010BC704790F882
:101E6C003C30012B66D010B50446012380F83C3081
:101E7C00022380F83D300268936823F47F4323F0FB
:101E8C00770393600B68402B4AD013D9602B3DD05D
:101E9C001ED9702B28D0B3F5005F30D1CB684A68BF
:101EAC0089680068FFF7D0FF2268936843F4804389
:101EBC00936024E0102B06D004D9202B03D0302BB8
:101ECC0001D01CE0DBB919462068FFF7EEFD16E0E7
:101EDC00502B14D1CA6849680068FFF7C1FD502126
:101EEC002068FFF7E2FD0AE0CB684A688968006861
:101EFC00FFF7AAFF2268936843F0770393600123EE
:101F0C0084F83D30002084F83C0010BDCA68496854
:101F1C000068FFF7B7FD60212068FFF7C6FDEEE70C
:101F2C00CA6849680068FFF79BFD40212068FFF7ED
:101F3C00BCFDE4E70220704710B401F01F0101233F
:101F4C0003FA01F4036A23EA04030362036A8A4076
:101F5C001343036210BC704710B50446012200689D
:101F6C00FFF7EAFF23680A4A93420BD02268936872
:101F7C0003F00703062B03D0136843F0010313602F
:101F8C00002010BD5A6C42F400425A64EEE700BFC8
:101F9C00002C014090F83C30012B1CD070B4012671
:101FAC0080F83C60022380F83D30026855689368E5
:101FBC0025F070050C682C4323F080054B682B43EF
:101FCC0054600268936080F83D60002380F83C30D8
:101FDC00184670BC70470220704770477047026803
:101FEC00D36823F49073D3600268536923F0010320
:101FFC005361202380F83A30704790F83930DBB2C7
:10200C00212B2AD18368B3F5805F16D0036A5A1C42
:10201C0002621A7803685A60C38C013B9BB2C3847A
:10202C00EBB90268D36823F08003D3600268D368ED
:10203C0043F04003D36000207047036A1B8802689A
:10204C00C3F30803536003691BB9036A02330362C9
:10205C00E2E7036A01330362DEE7022070470020E7
:10206C007047000038B504460268136923F44053E6
:10207C00C1680B43136183680269134342691A43B5
:10208C000168CB6823F4B05323F00C031343CB60EB
:10209C000268536923F4407381690B4353610268EE
:1020AC00214B9A421FD000F0A5FD00EB800000EB05
:1020BC00800063689B00B0FBF3F01C4DA5FB003265
:1020CC005109642202FB110213013233A5FB0323D5
:1020DC005B0903F0F00202EB011203F00F0321681D
:1020EC0013448B6038BD00F095FD00EB800000EBD5
:1020FC00800063689B00B0FBF3F00C4DA5FB003235
:10210C005109642202FB110213013233A5FB032394
:10211C005B0903F0F00202EB011203F00F032168DC
:10212C0013448B60DEE700BF003801401F85EB5184
:10213C002DE9F04105460F4616469846069C2B683D
:10214C001B6837EA03030CBF01230023B3421DD1E4
:10215C00B4F1FF3FF3D02CB100F022FAA0EB080051
:10216C00A042ECD92A68D36823F4D073D3602A68D0
:10217C00536923F001035361202385F8393085F826
:10218C003A30002385F83830032000E00020BDE809
:10219C00F08158B310B5044690F839300BB32423B2
:1021AC0084F839302268D36823F40053D360204676
:1021BC00FFF758FF2268136923F4904313612268D8
:1021CC00536923F02A0353612268D36843F4005304
:1021DC00D3600020E063202384F8393084F83A304F
:1021EC0010BD80F83830FFF73BFBD8E70120704773
:1021FC002DE9F04182B01E4690F83930DBB2202B2D
:10220C0055D104460D469046002955D0002A55D08C
:10221C0090F83830012B53D0012380F8383000234C
:10222C00C363212380F8393000F0BAF90746A4F8CB
:10223C002480A4F8268010E000963B4600228021E2
:10224C002046FFF775FF00283CD12B882268C3F38A
:10225C00080353602369C3B90235E38C9BB2B3B155
:10226C00E38C013B9BB2E384A368B3F5805FE3D0BE
:10227C0000963B46002280212046FFF759FF18BBF1
:10228C002A7823685A600135E7E70135E5E70096BF
:10229C003B46002240212046FFF74AFF0346A8B9DF
:1022AC00202284F83920002284F8382000E0022310
:1022BC00184602B0BDE8F0810123F9E70123F7E7E6
:1022CC000223F5E70323F3E70323F1E70323EFE707
:1022DC0090F83A30DBB2202B20D109B312B390F82E
:1022EC003830012B20D081628285C2850023C363E4
:1022FC00222280F83A2080F838300168CA6842F40B
:10230C008072CA6001684A6942F001024A61016840
:10231C00CA6842F02002CA60184670470220704713
:10232C00012070470120704702207047704708B5A4
:10233C000168CB6823F04003CB60202380F8393050
:10234C00FFF7F4FF002008BD08B590F83A30DBB277
:10235C00222B45D18368B3F5805F0ED0036903BB94
:10236C0003685A68836A591C81621A70C38D013BD9
:10237C009BB2C385F3B1002033E0826A036943B991
:10238C0003685B68C3F308031380836A02338362B8
:10239C00ECE703685B68DBB21380836A013383620A
:1023AC00E4E703685B68826A511C816203F07F0377
:1023BC001370DBE70268D36823F02003D360026854
:1023CC00D36823F48073D3600268536923F001034C
:1023DC005361202380F83A30FEF7F8FE002000E02D
:1023EC00022008BD7047000010B50446026813684F
:1023FC00D168526913F00F0005D113F0200F02D0F1
:10240C0011F0200F53D1002867D012F0010202D135
:10241C0011F4907F61D013F0010F06D011F4807F7E
:10242C0003D0E06B40F00100E06313F0040F04D024
:10243C001AB1E06B40F00200E06313F0020F04D01D
:10244C001AB1E06B40F00400E06313F0080F04D005
:10245C001AB1E26B42F00802E263E26B002A48D048
:10246C0013F0200F02D011F0200F24D123685B69E8
:10247C0003F04003E26B12F0080F00D13BB320468F
:10248C00FFF7ADFD23685A6912F0400F1BD05A6953
:10249C0022F040025A61636B8BB11A4A5A63606B2B
:1024AC0000F0D0FC28B3606B436B984721E02046CA
:1024BC00FFF74AFF1DE02046FFF746FFD6E7204610
:1024CC00FFF790FF15E02046FFF78CFF11E0204648
:1024DC00FFF788FF0023E3630BE013F0800F02D0BB
:1024EC0011F0800F06D113F0400F02D011F0400F05
:1024FC0004D110BD2046FFF780FDFAE72046FFF718
:10250C0016FFF6E71525000808B5406A0023C385B9
:10251C00C384FFF767FF08BD10B504460E4B18784F
:10252C004FF47A73B3FBF0F30C4A1068B0FBF3F082
:10253C0000F028FD68B90F2C01D901200AE0002217
:10254C0021464FF0FF3000F0DBFC054B1C600020F7
:10255C0000E0012010BD00BF130000201800002077
:10256C001400002008B5074A136843F010031360E9
:10257C00032000F0B3FC0020FFF7CEFFFFF72EF98D
:10258C00002008BD00200240034A1168034B1B7851
:10259C000B441360704700BF500400201300002050
:1025AC00014B1868704700BF5004002038B5044632
:1025BC00FFF7F6FF0546B4F1FF3F02D0044B1B7842
:1025CC001C44FFF7EDFF401BA042FAD338BD00BFFF
:1025DC001300002082B0084B1B68084AA2FB03239F
:1025EC005B0A00FB03F0019000BF019B5A1E019295
:1025FC00002BF9D102B0704718000020D34D6210A7
:10260C00002800F0F58170B582B00446036813F021
:10261C00010F2CD0AB4B5B6803F00C03042B1DD0CB
:10262C00A84B5B6803F00C03082B12D06368B3F55E
:10263C00803F41D0002B55D103F1804303F5043387
:10264C001A6822F480321A601A6822F480221A6006
:10265C0037E09C4B5B6813F4803FE7D0994B1B68C9
:10266C0013F4003F03D06368002B00F0C381236890
:10267C0013F0020F76D0934B5B6813F00C0F5FD006
:10268C00904B5B6803F00C03082B54D02369002B90
:10269C0000F08A808C4B01221A60FFF781FF0546FF
:1026AC00884B1B6813F0020F75D1FFF779FF401BA5
:1026BC000228F5D90320A0E1824A136843F4803341
:1026CC001360636843B3FFF76BFF05467D4B1B68D4
:1026DC0013F4003FCBD1FFF763FF401B6428F5D9FF
:1026EC0003208AE1B3F5A02F09D0764B1A6822F4A7
:1026FC0080321A601A6822F480221A60E1E703F132
:10270C008043A3F53C331A6842F480221A601A689D
:10271C0042F480321A60D4E7FFF742FF0546694B5A
:10272C001B6813F4003FA2D0FFF73AFF401B64284C
:10273C00F5D9032061E1634B5B6813F4803FA5D1AD
:10274C00604B1B6813F0020F04D02369012B01D0DE
:10275C00012052E15B4A136823F0F803616943EAF4
:10276C00C1031360236813F0080F32D0A369002B48
:10277C005BD0564B01221A60FFF712FF0546514BF6
:10278C005B6A13F0020F21D1FFF70AFF401B0228EE
:10279C00F5D9032031E14B4A136823F0F803616942
:1027AC0043EAC1031360DDE7474B00221A60FFF7D1
:1027BC00F7FE0546434B1B6813F0020FD2D0FFF710
:1027CC00EFFE401B0228F5D9032016E10120FFF78C
:1027DC0001FF236813F0040F00F09880394BDB697C
:1027EC0013F0805F33D1374BDA6942F08052DA61F3
:1027FC00DB6903F080530193019B0125344B1B686B
:10280C0013F4807F25D0E368012B36D0002B4CD1FC
:10281C0003F1804303F504331A6A22F001021A62B1
:10282C001A6A22F004021A622CE0284B00221A6069
:10283C00FFF7B6FE0546234B5B6A13F0020FC8D0B8
:10284C00FFF7AEFE401B0228F5D90320D5E000258A
:10285C00D4E71F4A136843F480731360FFF7A0FE9C
:10286C0006461B4B1B6813F4807FCCD1FFF798FEF8
:10287C00801B6428F5D90320BFE0124A136A43F089
:10288C0001031362E3687BB3FFF78AFE06460D4B28
:10289C001B6A13F0020F38D1FFF782FE801B41F246
:1028AC0088339842F3D90320A7E0052B12D0054BAF
:1028BC001A6A22F001021A621A6A22F004021A62DF
:1028CC00E0E700BF00100240000042428004424298
:1028DC00007000404C4B1A6A42F004021A621A6AE9
:1028EC0042F001021A62CDE7FFF75AFE0646464B4C
:1028FC001B6A13F0020F08D0FFF752FE801B41F247
:10290C0088339842F3D9032077E0E5B9E369002BCB
:10291C0072D03D4A526802F00C02082A56D0022BA3
:10292C0017D03A4B00221A60FFF73AFE0446364B9A
:10293C001B6813F0007F47D0FFF732FE001B022804
:10294C00F5D9032059E0304AD36923F08053D36181
:10295C00DCE72E4B00221A60FFF722FE05462A4BBD
:10296C001B6813F0007F06D0FFF71AFE401B0228ED
:10297C00F5D9032041E0236AB3F5803F1AD02249F0
:10298C004B6823F47413226A606A024313434B604E
:10299C001E4B01221A60FFF703FE04461A4B1B68FC
:1029AC0013F0007F0ED1FFF7FBFD001B0228F5D9B9
:1029BC00032022E0144A536823F40033A1680B432C
:1029CC005360DCE7002018E0002016E0012B16D045
:1029DC000D4B5B6803F48031226A914201D00120D7
:1029EC000BE003F47013626A93420AD0012004E0F6
:1029FC0001207047012000E0002002B070BD0120D2
:102A0C00FBE70020F9E700BF0010024060004242E3
:102A1C0010B487B0164C94E80F000DF1180C0CE9AB
:102A2C000F00238AADF80430124B5B6803F00C02E4
:102A3C00082A1AD1C3F38342624412F8102C13F4FF
:102A4C00803F05D10C4800FB02F007B010BC70476A
:102A5C00084B5B68C3F34043634413F8143C0748CA
:102A6C0000FB02F0B0FBF3F0EFE70448EDE700BF2A
:102A7C00C42201080010024000093D0000127A0037
:102A8C00002800F0A38070B50446524B1B6803F07D
:102A9C0007038B420CD24F4A136823F007030B43F6
:102AAC001360136803F007038B4201D0012070BD43
:102ABC00236813F0020F17D013F0040F04D0464A0A
:102ACC00536843F4E0635360236813F0080F04D099
:102ADC00414A536843F4605353603F4A536823F0B0
:102AEC00F003A068034353600D46236813F0010FF5
:102AFC0031D06368012B20D0022B25D0364A1268C6
:102B0C0012F0020F64D034494A6822F003021343D6
:102B1C004B60FFF745FD06462F4B5B6803F00C033B
:102B2C006268B3EB820F16D0FFF73AFD801B41F2BF
:102B3C0088339842F0D90320B9E7274A126812F477
:102B4C00003FE0D10120B2E7234A126812F0007F67
:102B5C00D9D10120ABE71F4B1B6803F00703AB4235
:102B6C000CD91C4A136823F007032B43136013681A
:102B7C0003F00703AB4201D0012098E7236813F060
:102B8C00040F06D0144A536823F4E063E1680B4346
:102B9C005360236813F0080F07D00F4A536823F4CF
:102BAC006053216943EAC1035360FFF731FF0A4BBD
:102BBC005B68C3F30313094AD35CD840084B186015
:102BCC00084B1868FFF7A8FC002070E7012070473D
:102BDC0001206CE70020024000100240542601083E
:102BEC001800002014000020014B1868704700BF2B
:102BFC001800002008B5FFF7F7FF044B5B68C3F320
:102C0C000223034AD35CD84008BD00BF0010024029
:102C1C006426010808B5FFF7E7FF044B5B68C3F3B4
:102C2C00C223034AD35CD84008BD00BF0010024049
:102C3C0064260108F0B482B000263246A2E0002DD2
:102C4C005AD0012D00D1CE68FF2B69D88446FF2BBA
:102C5C0069D89500DCF800400F27AF4024EA070440
:102C6C0006FA05F52C43CCF800404C6814F0805F54
:102C7C0000F087805F4CA56945F00105A561A4694A
:102C8C0004F001040194019C9508AF1C5A4C54F8B3
:102C9C00274002F00307BF004FF00F0C0CFA07FCA3
:102CAC0024EA0C0C554CA04243D004F58064A0429D
:102CBC0000F0818004F58064A0427ED004F580642D
:102CCC00A04234D0042435E04D4FBD4214D00BD972
:102CDC004C4FBD4210D007F58037BD420CD0A7F544
:102CEC008017BD42B0D107E0A7F58017BD4203D0D5
:102CFC0007F58037BD42A7D18D687DB1012D08D075
:102D0C0044610826A0E7CE6808369DE7CE680C36ED
:102D1C009AE70461082697E7002695E7042693E7CF
:102D2C0000F1040C93E7A2F10805AD0092E703242F
:102D3C0000E00024BC4044EA0C0402352E4F47F856
:102D4C0025404C6814F4803F39D02F4D2C681C431F
:102D5C002C604C6814F4003F37D02B4D6C681C432E
:102D6C006C604C6814F4801F35D0274DAC681C4344
:102D7C00AC604C6814F4001F33D0234DEC68234333
:102D8C00EB6001320B6833FA02F430D0012494402A
:102D9C0023409C42F5D14D68122DB7D094D8022D0A
:102DAC00B1D07FF64CAF032DB6D0112D7FF44CAFC4
:102DBC00CE68043648E70124BCE70224BAE7124D7A
:102DCC002C6824EA03042C60C3E70F4D6C6824EADA
:102DDC0003046C60C5E70C4DAC6824EA0304AC60DA
:102DEC00C7E7094DEC6824EA0303EB60C9E702B0BE
:102DFC00F0BC704700100240000001400008014088
:102E0C0000002110000031100004014083681942B9
:102E1C0001D1002070470120704712B909040161EB
:102E2C00704701617047000008B5054B5B690342B0
:102E3C0000D108BD024B5861FEF710FAF9E700BF4C
:102E4C000004014008B590F82130022B03D0042374
:102E5C008363012008BD0268136823F00E0313601E
:102E6C000268136823F0010313600368194A934244
:102E7C0014D0143293421FD0143293421ED0143209
:102E8C0093421ED0143293421ED01432934202D07D
:102E9C004FF0807203E04FF4801200E001220E4BE1
:102EAC005A60012380F82130002380F82030436BD6
:102EBC006BB198470020CDE71022F0E74FF48072F9
:102ECC00EDE74FF48052EAE74FF48032E7E7002059
:102EDC00C0E700BF0800024000000240074AD36868
:102EEC0023F4E0631B041B0C000200F4E0601843A5
:102EFC0040F0BF6040F40030D060704700ED00E05F
:102F0C0030B4174BDB68C3F30223C3F10704042C62
:102F1C0028BF04241D1D062D18D9033B4FF0FF3587
:102F2C0005FA04F421EA0401994005FA03F322EAB4
:102F3C000303194300280BDB0901C9B200F16040FF
:102F4C0000F5614080F8001330BC70470023E5E7C2
:102F5C0000F00F000901C9B2024B1954F4E700BF8D
:102F6C0000ED00E014ED00E0002807DB00F01F028C
:102F7C00400901239340024A42F82030704700BFB9
:102F8C0000E100E00138B0F1807F0AD2064B5860B6
:102F9C00064AF02182F823100020986007221A605C
:102FAC0070470120704700BF10E000E000ED00E02A
:102FBC000F4B1A6842F001021A6059680D4A0A4018
:102FCC005A601A6822F0847222F480321A601A68ED
:102FDC0022F480221A605A6822F4FE025A604FF4DE
:102FEC001F029A60044B4FF000629A60704700BF5A
:102FFC00001002400000FFF800ED00E008B5034BA4
:10300C001B7803B108BDFFF7D1FAFBE7540400208D
:10301C0008B5FFF7CBFA08BD08B5034B1B78014682
:10302C00184608F0A4FA08BD1000002008B5044B9F
:10303C001B780A460146184608F04EFA08BD00BF38
:10304C001000002008B5034B1B780146184608F009
:10305C008EFA08BD1100002008B5044B1B780A46F7
:10306C000146184608F038FA08BD00BF11000020D0
:10307C0008B508F064FE08BD08B508F039FE08BDB7
:10308C0010B51C461346224608F043FA10BD70B525
:10309C0088B004460D4616461978684605F0D1FAF4
:1030AC0033466A462946204608F033FA08B070BD0C
:1030BC0038B50546002404E00520FFF777FA013403
:1030CC00A4B2AC42F8D338BD08B50146024B18780F
:1030DC0008F0F5FB08BD00BFD004002008B50A4677
:1030EC000146024B187808F09FFB08BDD004002065
:1030FC0008B5FFF75BFA08BD08B501464A2008F091
:10310C00DAFC08BD08B50A4601464A2008F007FD5E
:10311C0008BD08B5082809D8DFE800F00505050545
:10312C000D0D0D0D09005220FFF780FF08BD572033
:10313C00FFF77CFFFAE75D20FFF778FFF6E7F8B5BD
:10314C0005460C4617465320FFF766FF00F03F0676
:10315C005E20FFF761FF00F03F0104F03F04082DF3
:10316C000ED8DFE805F0050E19242F37424D580014
:10317C0031465320FFF75AFF21465320FFF756FFE5
:10318C00F8BD46F040015320FFF750FF44F04001DA
:10319C005320FFF74BFFF3E746F080015320FFF776
:1031AC0045FF44F080015320FFF740FFE8E746F06D
:1031BC00C0015320FFF73AFF44F0C0015320FFF742
:1031CC0035FFDDE75E20FFF731FF21465E20FFF77C
:1031DC002DFFD5E741F040015E20FFF727FF44F0BB
:1031EC0040015E20FFF722FFCAE741F080015E201C
:1031FC00FFF71CFF44F080015E20FFF717FFBFE7CD
:10320C0041F0C0015E20FFF711FF44F0C0015E20C9
:10321C00FFF70CFFB4E721465820FFF707FF07F034
:10322C001F015920FFF702FFAAE738B5CDB2090AF2
:10323C00090101F07001D4B2C2F30222082812D89D
:10324C00DFE800F0050505051F1F1F1F12001143C5
:10325C005420FFF7EBFE29465520FFF7E7FE2146E9
:10326C005620FFF7E3FE38BD11435A20FFF7DEFE70
:10327C0029465B20FFF7DAFE21465C20FFF7D6FEDD
:10328C00F1E711435F20FFF7D1FE29466020FFF7DD
:10329C00CDFE21466120FFF7C9FEE4E770B5064676
:1032AC000C4614F8015B1021FD20FFF7BFFE3146E0
:1032BC00FE20FFF7BBFE044B187823462A46FF215D
:1032CC00FFF7DEFE70BD00BF1000002070B582B0AD
:1032DC00064602AC04F8012D0D787021FD20FFF795
:1032EC00A5FE3146FE20FFF7A1FE044B18782346BD
:1032FC002A46FF21FFF7CBFE02B070BD1000002064
:10330C0038B504460D465320FFF786FE00F03F010A
:10331C00A40164B22143C9B25320FFF787FE5E209B
:10332C00FFF77AFE00F03F0044EA0001C9B25E20CC
:10333C00FFF77CFE5120FFF76FFE15F0080F01D14F
:10334C0000F0F70020F0070149B205F00F05294302
:10335C00C9B25120FFF76AFE38BD10B504465120A2
:10336C00FFF75AFE2CB900F0F7015120FFF75EFE73
:10337C0010BD40F00801C9B2F7E710B5044669204A
:10338C00FFF74AFE00F00F0141EA0411C9B26920AF
:10339C00FFF74CFE00215820FFF748FE10BD00003F
:1033AC00142860D8DFE800F00B0F13171B1F23271E
:1033BC002B2F33373B3F43474B4F53575B002C4B23
:1033CC002C4A1A6070472A4B2B4A1A607047284BBC
:1033DC002A4A1A607047264B294A1A607047244BB8
:1033EC00284A1A607047224B274A1A607047204BB4
:1033FC00264A1A6070471E4B254A1A6070471C4BB0
:10340C00244A1A6070471A4B234A1A607047184BAB
:10341C001A4A1A607047164B204A1A607047144BB0
:10342C001F4A1A607047124B1E4A1A607047104BA5
:10343C001D4A1A6070470E4B1C4A1A6070470C4BA1
:10344C001B4A1A6070470A4B1A4A1A607047084B9D
:10345C00194A1A607047064B184A1A607047044B99
:10346C00174A1A607047024B154A1A60704700BF22
:10347C005804002020890108388901082C8901088A
:10348C0044890108FC880108A888010808890108FA
:10349C00148901085089010878880108908801086E
:1034AC00B48801089C880108CC880108848801082C
:1034BC00C0880108E4880108D8880108F088010850
:1034CC007C8901082DE9F047054689469046AE4AAD
:1034DC001278C2F3400602F001044BBBAB4B1B78D5
:1034EC00012B21D025274FF0F40A45B1012D00F016
:1034FC006281022D00F09D81032D00F0D8810820FF
:10350C00FFF73BFFA04B1B78032B00F00E82002E25
:10351C0000F01E829E4B1B78002B40F0148204217D
:10352C002846FFF7EDFE07E23D274FF0B40ADCE733
:10353C001A46012B1DD0022B27D0032B31D0102B78
:10354C003BD0202B72D0402B00F0A780502B00F0EA
:10355C00BD80303B0F2B00F20481002840F0D58059
:10356C008A4B1B78012B00F0CC8025274FF0F40AF6
:10357C00BBE7864B1B78012B03D025274FF0F40AB1
:10358C00B3E73D274FF0B40AAFE7804B1B78012B14
:10359C0003D025274FF0F40AA7E73D274FF0B40AD4
:1035AC00A3E77A4B1B78012B03D025274FF0F40AA5
:1035BC009BE73D274FF0B40A97E758B9734B1B783C
:1035CC00012B03D025274FF0F40A8EE73D274FF04F
:1035DC00B40A8AE701280AD0022814D06B4B1B7856
:1035EC00012B1ED040F2911740F2763A7DE7674BE3
:1035FC001B78012B03D0252740F2763A75E73D273F
:10360C0040F2744A71E7614B1B78012B04D040F2F5
:10361C0091174FF0F40A68E740F25B274FF0B40AB9
:10362C0063E740F25B2740F2744A5EE758B9574BA8
:10363C001B78012B03D025274FF0F40A55E73D27C3
:10364C004FF0B40A51E7012809D0022813D04F4B90
:10365C001B78012B1DD0252740F2B64A45E74B4B72
:10366C001B78012B03D0252740F2362A3DE73D2756
:10367C004FF4267A39E7454B1B78012B04D040F2E6
:10368C00911740F2362A30E740F25B274FF4267A46
:10369C002BE73D274FF4CB6A27E758B93B4B1B78F8
:1036AC00012B03D025274FF0F40A1EE73D274FF0DE
:1036BC00B40A1AE7354B1B78012B03D0252740F2AF
:1036CC00763A12E73D2740F2744A0EE758B92F4B71
:1036DC001B78012B03D025274FF0F40A05E73D2773
:1036EC004FF0B40A01E7294B1B78012B04D040F2B0
:1036FC0091174FF0F40AF8E640F25B274FF0B40A4A
:10370C00F3E63D274FF0B40AEFE601280AD0022871
:10371C0014D01E4B1B78012B1ED04FF4027740F2B5
:10372C004A4AE2E6194B1B78012B03D0252740F2BD
:10373C004A4ADAE63D2740F2B45AD6E6134B1B78D8
:10374C00012B04D04FF48C7740F24A4ACDE64FF46B
:10375C00D37740F2B45AC8E640F20F3740F2B45A6D
:10376C00C3E6602A03D040274FF0E00ABDE688B9D3
:10377C00064B1B78012B03D025274FF0F40AB4E637
:10378C003D274FF0B40AB0E6EF0000206807002098
:10379C005C04002001287FF4A8AE7B4B1B78012B26
:1037AC0004D040F2052740F24A4A9EE640F20D371B
:1037BC0040F2B45A99E61EBB002C3FF4A0AE012295
:1037CC0098F800100520FFF7BAFC50210520FFF7F0
:1037DC00A0FC41465020FFF761FD072241465020D6
:1037EC00FFF774FD694B1A7802EB82029300FA180A
:1037FC0092B2143292B251460520FFF716FD7EE6C6
:10380C00012299F800101046FFF799FC10210120B5
:10381C00FFF77FFC49461020FFF740FD0722494681
:10382C001020FFF753FD3A4651460120FFF7FDFCEF
:10383C00C2E71EBB002C3FF462AE012298F80010C8
:10384C000620FFF77CFC60210620FFF762FC414656
:10385C006020FFF723FD072241466020FFF736FD6D
:10386C004A4B1A7802EB82029300FA1892B2143285
:10387C0092B251460620FFF7D8FC40E6012299F897
:10388C0000100220FFF75BFC20210120FFF741FC18
:10389C0049462020FFF702FD072249462020FFF76A
:1038AC0015FD3A4651460220FFF7BFFCC2E71EBB8E
:1038BC00002C3FF424AE012298F800100720FFF7EB
:1038CC003EFC70210720FFF724FC41467020FFF7D7
:1038DC00E5FC072241467020FFF7F8FC2B4B1B78C8
:1038EC0003EB83039A003A4492B2143292B25146DB
:1038FC000720FFF79AFC02E6012299F8001003203A
:10390C00FFF71DFC30210320FFF703FC4946302054
:10391C00FFF7C4FC072249463020FFF7D7FC3A4694
:10392C0051460320FFF781FCC2E7194B1B782BB9DA
:10393C0005212846FFF7E4FCBDE8F087072128465F
:10394C00FFF7DEFCF8E702212846FFF7D9FCF3E786
:10395C0064B10F4B1B7823B901212846FFF7D0FC2B
:10396C00EAE702212846FFF7CBFCE5E7084B1B787A
:10397C0023B102212846FFF7C3FCDDE700212846CE
:10398C00FFF7BEFCD8E700BF680700205D040020ED
:10399C005C04002070B586B005460E4614462A4BD2
:1039AC001A5C012C0BD0022C2DD0032C2FD0002A0A
:1039BC003CD0012A3CD0022A2DD0244B02E0012815
:1039CC002BD0234B23490978914233D093E8030041
:1039DC000490ADF81410090C8DF816103046FFF752
:1039EC00DFFC1D4B1A6801AB1068516803C31189C9
:1039FC00927A19809A70234601AA04A92846FFF7E7
:103A0C0061FD06B070BD02280AD0114BDAE703281D
:103A1C0009D00F4BD6E7114BD4E700220C4BD1E762
:103A2C0000220E4BCEE70022084BCBE70C4BC9E72C
:103A3C00074BC7E793E803000490ADF814106C2310
:103A4C008DF81630CAE700BF5807002074890108AA
:103A5C0064890108E9010020580400206C890108E0
:103A6C005C89010830B587B00D46144638B1012881
:103A7C0023D0022801D0124B02E0124B00E0124B73
:103A8C0093E803000490ADF814106C238DF81630F5
:103A9C002846FFF785FC0D4B1A6801AB106851687E
:103AAC0003C31189927A19809A70234601AA04A93A
:103ABC000020FFF707FD07B030BD054BE0E700BF66
:103ACC00748901086C8901085C890108580400207C
:103ADC006489010870B5F0B104465320FFF79CFAD5
:103AEC0000F03F065E20FFF797FA00F03F05012C2F
:103AFC001CD0022C25D0032C2ED05120FFF78CFA91
:103B0C0000F008011C4B1B788BB341F002015120D3
:103B1C00FFF78CFA09E0012200210846FFF70FFBA2
:103B2C00012200210420FFF70AFB70BD46F0400182
:103B3C005320FFF77BFA45F040015E20FFF776FA41
:103B4C00DBE746F080015320FFF770FA45F0800167
:103B5C005E20FFF76BFAD0E746F0C0015320FFF769
:103B6C0065FA45F0C0015E20FFF760FAC5E7512009
:103B7C00FFF75CFAD9E700BF5C04002008B503200E
:103B8C00FFF7A8FF08BD10B5022404E02046FFF79C
:103B9C00A1FF0134E4B2032CF8D910BD10B50124F7
:103BAC0004E02046FFF796FF0134E4B2032CF8D969
:103BBC0010BD10B5002404E02046FFF78BFF013444
:103BCC00E4B2032CF8D910BD10B5C0B014468DF872
:103BDC0000008DF8011019460DF1020004F026FDCD
:103BEC00044B1878A21C6B46D2B2FD21FFF748FAA1
:103BFC0040B010BD100000203F2805D870B545001E
:103C0C00EDB20E46002413E07047A200A318590031
:103C1C0089B2224493009BB2C1F303203344142293
:103C2C0001F0FE0140F02000FFF7CEFF0134A4B2FA
:103C3C00ABB2A342E9D870BD38B505460C46A1B16C
:103C4C00012920D140B900211020FFF7EFF90A21FA
:103C5C009C20FFF7EBF916E001211020FFF7E6F9A5
:103C6C000A219C20FFF7E2F90DE0C0B11020FFF70C
:103C7C00D3F960F07E01C9B21020FFF7D7F900210B
:103C8C009C20FFF7D3F9224620210C48FFF7C5F8FA
:103C9C0023462A460A49012003F058FE38BD10205D
:103CAC00FFF7BAF960F07F01C9B21020FFF7BEF937
:103CBC0000219C20FFF7BAF9E5E700BF000801409E
:103CCC008889010808B501212620FFF707FA08BDED
:103CDC0010B50446F520FFF7F7F9074B195D0140C5
:103CEC00F520FFF7FBF93520FFF7EEF900F0DF01C7
:103CFC003520FFF7F3F910BDC08D010810B504464F
:103D0C00F520FFF7E1F9084B195D0143C9B2F52025
:103D1C00FFF7E4F93520FFF7D7F940F02001C9B2DD
:103D2C003520FFF7DBF910BDC88D010808B5C0219F
:103D3C000720FFF7D3F91420FFF7C6F900F09F0115
:103D4C001420FFF7CBF900211320FFF7C7F904214A
:103D5C002620FFF7C3F9B2210620FFF7BFF908BDF3
:103D6C0008B5242806D0252807D0262808D0FFF728
:103D7C00A9FF08BDFFF7A6FFFBE7FFF7D7FFF8E7A2
:103D8C00FFF7D4FFF5E710B5044603E06178FFF7C1
:103D9C00A5F902342078FF28F8D13220FFF788F9F2
:103DAC0010BD38B504460D4604E015F8011BFFF7AD
:103DBC0095F901342078FF28F7D13220FFF778F9F4
:103DCC0038BD08B501464020FFF788F908BD000052
:103DDC0070B506469C4B1B5C262B00F2F980DFE885
:103DEC0013F07600880027006E009A00A300F700FD
:103DFC00F700B500AC00F700F7007F009100F7006A
:103E0C00F700F700F700F700F700F700F700F700EE
:103E1C00F700F700F700F700F700F700F700F700DE
:103E2C00F700BE00C600CE00D600DE00E600EE00B5
:103E3C000124864B1C70864804F00CFC25468548F2
:103E4C0004F07CFC844804EB440104EB8101014444
:103E5C00FFF7A7FF7C4B9B5D022B00F0BC807F4BD8
:103E6C001B78262B00F0BC80252B00F0C180242B66
:103E7C0000F0C680794B1B782F2B00F0CA80774B53
:103E8C001B78272B00F0D080012D00F0D980304614
:103E9C00FFF734FF00211320FFF720F91420FFF760
:103EAC0013F900F09F011420FFF718F90220FFF717
:103EBC000BF900F07F010220FFF710F970BD01250E
:103ECC00624B1D70664804F0C5FB0224B7E75F4BDC
:103EDC0000221A70634804F0BDFB01250324AEE7F1
:103EEC005A4B00221A70604804F0B4FB02250B24D4
:103EFC00A5E7564B00221A705C4804F0ABFB012579
:103F0C0004249CE7514B00221A70594804F0A2FB80
:103F1C0002250C2493E74D4B00221A70554804F0EF
:103F2C0099FB012505248AE7484B00221A70524858
:103F3C0004F090FB0125062481E7444B03221A7000
:103F4C004E4804F087FB0425082478E73F4B0222F7
:103F5C001A704B4804F07EFB032507246FE70125FC
:103F6C003A4B1D70474804F075FB092467E701259F
:103F7C00364B1D70444804F06DFB0A245FE70125A5
:103F8C00324B1D70414804F065FB0D2457E70125A9
:103F9C002E4B1D703E4804F05DFB0E244FE70125AF
:103FAC002A4B1D703B4804F055FB0F2447E70125B5
:103FBC00264B1D70384804F04DFB10243FE7234B73
:103FCC0000221A70354804F045FB0125112436E710
:103FDC0001252C4633E7CE211620FFF77FF83EE76C
:103FEC002F4805EBC50359000144FFF7DAFE41E702
:103FFC002C48C5EBC50359000144FFF7D2FE39E745
:10400C00294805EB450105EB81010144FFF7C9FE89
:10401C0030E7264804F092FB254805EB8503990010
:10402C000144FFF7BEFE2AE7224804F087FB224832
:10403C0005EB4501C5EBC1010144FFF7B2FE23E7D7
:10404C003046FFF745FE25E7C40400207404002029
:10405C00D08D01085C8E0108908E010803050020AC
:10406C00D88D0108E08D0108E88D0108F48D010858
:10407C00FC8D0108088E0108108E0108188E0108AD
:10408C001C8E0108248E01082C8E0108348E010828
:10409C003C8E0108448E01084C8E0108548E010898
:1040AC00C09401086C930108E8930108648E010820
:1040BC00CC920108788E01085491010810B5234B5D
:1040CC001B5C0D2B3FD8DFE803F00D070B093E3EC0
:1040DC003E3E3E3E3E3E0D07022404E0042402E038
:1040EC00032400E00124FFF773FE194B1B78262BE9
:1040FC000DD0A3F12402D2B2012A10D92F2B14D047
:10410C00272B1AD01420FEF7DFFF204610BD1148D4
:10411C0004EB840359000144FFF743FEF2E70E4819
:10412C0000EBC401FFF73DFEECE70C4804EB440345
:10413C0099000144FFF735FEE4E7094800EB041150
:10414C00FFF72FFEDEE70024DFE700BFC4040020EA
:10415C000305002048940108449301082C9201089F
:10416C00A090010810B5264B1B5C0D2B46D8DFE840
:10417C0003F00D070B0945454545454545450D07DC
:10418C00022404E0042402E0032400E00124FFF7ED
:10419C001FFE1C4B1B78262B0ED0A3F12402D2B28F
:1041AC00012A12D92F2B19D0272B1FD040211320D5
:1041BC00FEF794FF204610BD134804EB440104EBBA
:1041CC0081010144FFF7EDFDF0E70F4804EB4401DA
:1041DC0004EB81010144FFF7E4FDE7E70B4804EB36
:1041EC00840399000144FFF7DCFDDFE7084804EB8A
:1041FC00840399000144FFF7D4FDD7E70024D9E7E5
:10420C00C4040020030500207C9401086892010876
:10421C00F090010838B5054602212F20FEF75EFF0D
:10422C000420FEF751FF04460420FEF74DFF044422
:10423C000420FEF749FF04440420FEF745FF044424
:10424C00640804F4FC742A4621460B4804F002FA74
:10425C0004F0F8010820FEF741FF0620FEF734FFBA
:10426C0000F0F900E10901F00201014341F0040101
:10427C000620FEF733FF38BD988D010808B50021E4
:10428C002F20FEF72BFF0420FEF71EFF08BDF8B50C
:10429C00064606212F20FEF721FF0420FEF714FF0F
:1042AC00B04243D204461E2717E045F08001072098
:1042BC00FEF714FFD5B30820FEF7FAFE06212F20D7
:1042CC00FEF70CFF0420FEF7FFFE0446731C984219
:1042DC0014DCA31B0133022B28D93FB3013FFFB2DF
:1042EC000720FEF7F1FE00F03F05B442DDD0002DB3
:1042FC00DBD0013DEDB20134E4B2F6E70720FEF766
:10430C00E3FE00F03F00841C3F2C00D93F2444F016
:10431C0080010720FEF7E2FE3F2C07D00820FEF7B5
:10432C00C7FE0420FEF7D0FE0446D2E7F8BD10B558
:10433C004420FEF7C9FE044640F04001C9B24420B7
:10434C00FEF7CCFE04F0BF014420FEF7C7FE10BD03
:10435C0038B5644B88221A700024032C0DD8FE202B
:10436C00FEF7B2FE282808D05E4A13780133DBB280
:10437C00013313700134E4B2EFE7FF20FEF7A4FE23
:10438C00594C2070FD20FEF79FFE00F00702574BA2
:10439C001A702178564804F05DF90023554A1360D1
:1043AC00554A1360554A13602378023B252B70D86D
:1043BC00DFE803F0136F136F6F6F6F6F6F6F6F6FBB
:1043CC006F6F6F6F6F6F6F6F6F6F6F6F6F6F6F6FF1
:1043DC006F6F6F6F1334446F4B5F494804F0AEF945
:1043EC00484CFFF7A4FF2046FFF7CDFC424B1B685F
:1043FC00002B55D1444B03221A705A709A70DA7004
:10440C0004214020FEF76AFE0020FFF7E1FC3F4B41
:10441C0001221A700024002C46D038BD0123354AE5
:10442C001360354A1360314B1B78012B01D0384C8B
:10443C00D7E72D4B25221A70364CD2E701232D4A93
:10444C0013602D4A1360344CCBE70123294A1360C7
:10445C00294A1360254B1B78012B05D0F3B9274B48
:10446C0001221A602D4CBCE71F4B2F221A702C4CCA
:10447C00B7E701231F4A13601F4A13601B4B1B78BD
:10448C00042B01D01F4CACE7264804F057F91D4C07
:10449C00A7E7254804F052F91A4CA2E71F4CA0E7F5
:1044AC002248FFF770FCA5E70023214A1355214A47
:1044BC001355214A13550725134B1D5501200BF09D
:1044CC0041FB1E4B1D701E4B14221A701D4B1B788A
:1044DC00012B02D00134E4B29DE701210846FFF71D
:1044EC00ABFBF7E7D004002003050020F404002008
:1044FC00588D0108CC04002078040020A004002072
:10450C00748D010888900108C40400200205002065
:10451C00888F010830930108D89301082C94010866
:10452C00149201087C8D01088C8D0108B49301084C
:10453C00F804002098040020700400201C000020C7
:10454C00200000201E01002030B40446002001256C
:10455C00072102460BE044FA01F32B405BB2034304
:10456C00D8B26D00EDB20239C9B20132D2B2032A0F
:10457C00F1D98025072100220AE004FA01F32B402F
:10458C005BB20343D8B26D080239C9B20132D2B260
:10459C00032AF2D930BC70476D4B1A786D4B1A70E8
:1045AC006D4B1A786D4B1A706D4B1B78172B30D0E6
:1045BC00062B37D0072B3CD0092B41D0082B46D0EB
:1045CC000A2B4BD00C2B50D00B2B55D00D2B5AD07B
:1045DC000F2B5FD00E2B64D0112B69D0102B6ED00B
:1045EC00132B73D0122B78D0142B7DD0212B00F0F1
:1045FC008580222B00F08980232B00F08D80242BCA
:10460C0000F09180252B00F09580262B00F09980EE
:10461C0070470023534A1370534A072111704D4AB7
:10462C00137070474F4B00221A704F4B08221A70B0
:10463C0070474C4B00221A704B4B10221A7070476B
:10464C00484B00221A70484B04221A707047454B95
:10465C0000221A70444B02221A707047414B002200
:10466C001A70414B0C221A7070473E4B00221A7084
:10467C003D4B0A221A7070473A4B00221A703A4B83
:10468C0014221A707047374B00221A70364B1222C4
:10469C001A707047334B02221A70334B00221A7077
:1046AC007047304B04221A702F4B00221A7070473F
:1046BC002C4B01221A702C4B00221A707047294B7C
:1046CC0000221A70284B80221A707047254B00224A
:1046DC001A70254B20221A707047224B00221A7038
:1046EC00214B40221A70704700231E4A13701E4A39
:1046FC001370184A1370194A13707047194B002223
:10470C001A70194B03221A707047164B00221A703C
:10471C00154B07221A707047124B00221A70124B5D
:10472C0007221A7070470F4B00221A700E4B07228B
:10473C001A7070470B4B02221A700B4B00221A7026
:10474C007047084B00221A70074B07221A705FE75C
:10475C0001050020FD04002073040020C204002089
:10476C00D8040020FC04002071040020B54B1B78F9
:10477C00162B40F2D5832DE9F04182B0B24B1E7856
:10478C00022E02D002B0BDE8F0810420FFF719FB25
:10479C000120FEF78DFCB620FEF796FC0746B520EF
:1047AC00FEF792FCB420FEF78FFC17F0F00F1AD036
:1047BC0017F0800F5FD117F0400F04D0A14B9B78FE
:1047CC00162B00F2BB8017F0200F04D09D4B5B78AA
:1047DC00162B00F2128117F0100F04D0994B1B7896
:1047EC00162B00F28D81994B1B68012BCAD1984B6B
:1047FC001C78984B1D5D002D40F01B82964B1B5D69
:10480C00083BDBB2012B00F24D82944B1F78944B8A
:10481C0093F80080934B1B780F2B00F0D1810E2B5B
:10482C0000F0CD81102B00F01582112B00F01482BA
:10483C00122B00F01482132B00F01482062B00F0C4
:10484C001482072B00F01482092B00F01482082B21
:10485C0000F014820A2B00F015820C2B00F015824C
:10486C000B2B00F015820D2B00F01582172B00F08E
:10487C0015822E46A4E1734BDB78162B9BD90320B3
:10488C00FFF79FFA00258A2408E02046FEF71CFC5F
:10489C00754B58550135EDB20134E4B2A12CF4D965
:1048AC000021A720FEF71AFC8321A720FEF716FC97
:1048BC00002305E05A1C6C49885C6C49C854D3B27F
:1048CC00042BF7D9052306E09A1C6749895C674AD3
:1048DC00D1540133DBB2092BF6D9654803F0BAFE8B
:1048EC00002406E0614B195D624803F0B3FE01340D
:1048FC00E4B2052CF6D95D4C617A5E4803F0AAFE51
:10490C00E378612B7FF457AF637A9E2B7FF453AF20
:10491C00594B197841F008011970584803F09AFE68
:10492C002379382B7FF447AF6379022B7FF443AFA5
:10493C00514A137823F0080313703CE70220FFF769
:10494C0040FA00258A2408E02046FEF7BDFB464BC2
:10495C0058550135EDB20134E4B2A12CF4D9002143
:10496C00A720FEF7BBFB8321A720FEF7B7FB002394
:10497C0005E05A1C3C49885C4149C854D3B2042B0D
:10498C00F7D9052306E09A1C3749895C3C4AD15477
:10499C000133DBB2092BF6D93A4803F05BFE002455
:1049AC0006E0374B195D334803F054FE0134E4B292
:1049BC00052CF6D9324C617A2E4803F04BFEE37885
:1049CC00612B7FF400AF637A9E2B7FF4FCAE2A4BF5
:1049DC00197841F004011970284803F03BFE237943
:1049EC00382B7FF4F0AE6379022B7FF4ECAE224AC5
:1049FC00137823F004031370E5E60120FFF7E1F9C7
:104A0C0000258A2408E02046FEF75EFB164B58551D
:104A1C000135EDB20134E4B2A12CF4D90021A72068
:104A2C00FEF75CFB8321A720FEF758FB002305E073
:104A3C005A1C0D49885C1449C854D3B2042BF7D9BD
:104A4C0005232AE0F804002098040020D404002058
:104A5C004101002070040020C40400200105002046
:104A6C0073040020D8040020A80400206004002057
:104A7C009C8C0108A48C010842010020AC8C01081C
:104A8C00E8040020C08C01087C0400209A1CB74963
:104A9C00895CB74AD1540133DBB2092BF6D9B5483E
:104AAC0003F0D8FD002406E0B14B195DB24803F0C9
:104ABC00D1FD0134E4B2052CF6D9AD4C617AAE4887
:104ACC0003F0C8FDE378612B7FF485AE637A9E2BEF
:104ADC007FF481AEA94B197841F002011970A848F6
:104AEC0003F0B8FD2379382B7FF475AE6379022B74
:104AFC007FF471AEA14A137823F0020313706AE6B7
:104B0C000020FFF75EF900258A2408E02046FEF716
:104B1C00DBFA964B58550135EDB20134E4B2A12CB9
:104B2C00F4D90021A720FEF7D9FA8321A720FEF79C
:104B3C00D5FA002305E05A1C8C49885C9149C8546D
:104B4C00D3B2042BF7D9052306E09A1C8749895C5C
:104B5C008C4AD1540133DBB2092BF6D98A4803F0C5
:104B6C0079FD002406E0874B195D834803F072FD44
:104B7C000134E4B2052CF6D9824C617A7E4803F0FC
:104B8C0069FDE378612B7FF42EAE637A9E2B7FF464
:104B9C002AAE7A4B197841F001011970784803F06C
:104BAC0059FD2379382B7FF41EAE6379022B7FF4E9
:104BBC001AAE724A137823F00103137013E604261D
:104BCC003046FFF7C1FC06462846FFF7BDFC0546FC
:104BDC003846FFF7B9FC07464046FFF7B5FC804660
:104BEC002046FFF7EEF831465A20FEF777FA2946B1
:104BFC005920FEF773FA39466020FEF76FFA4146EA
:104C0C005F20FEF76BFA61216F20FEF767FA0A202E
:104C1C00FEF74EFA60216F20FEF760FACDF80080A7
:104C2C003B462A463146594803F014FD584B0022A6
:104C3C001A60584B1878584B1B5C022B5BD0554BA9
:104C4C001B78554AD35C012B00F00981504B002294
:104C5C001A6097E50126B3E72E468025B0E72E466D
:104C6C004025ADE72E462025AAE72E460825A7E7C6
:104C7C002E461025A4E72E460425A1E733462E46E2
:104C8C001D469DE72E460C259AE72E460A2597E7EA
:104C9C002E46142594E72E46122591E72F462E46D4
:104CAC0007258DE72046FFF78CF83C4C21785920DE
:104CBC00FEF714FA3A4D29785A20FEF70FFA394EBE
:104CCC0031785D20FEF70AFA374B19786020FEF731
:104CDC0005FA41216F20FEF701FA0A20FEF7E8F9E8
:104CEC0040216F20FEF7FAF933782A7821782F4883
:104CFC0003F0B0FC9AE7FFF764F8A5216E20FEF7ED
:104D0C00EDF902216E20FEF7E9F9244B1B78063BE6
:104D1C00092B00F29380DFE803F04D5E806F9191D8
:104D2C009191910550216E20FEF7D8F900216E204B
:104D3C00FEF7D4F900216E20FEF7D0F900216E2089
:104D4C00FEF7CCF949216F20FEF7C8F90520FEF7D4
:104D5C00AFF948216F20FEF7C1F90D4B00221A6004
:104D6C000E4B1978124803F075FC68E7A804002074
:104D7C007C040020C88C0108A48C0108420100208E
:104D8C00AC8C0108DC040020D08C0108D88C010804
:104D9C00D40400204101002070040020D80400201D
:104DAC00730400200105002072040020F08C01081F
:104DBC00048D010808216E20FEF790F900216E2069
:104DCC00FEF78CF9FF216E20FEF788F900216E208A
:104DDC00FEF784F9B6E704216E20FEF77FF9002177
:104DEC006E20FEF77BF9FF216E20FEF777F900218C
:104DFC006E20FEF773F9A5E702216E20FEF76EF91F
:104E0C00FF216E20FEF76AF900216E20FEF766F98D
:104E1C0000216E20FEF762F994E701216E20FEF767
:104E2C005DF9FF216E20FEF759F900216E20FEF787
:104E3C0055F900216E20FEF751F983E700216E2011
:104E4C00FEF74CF900216E20FEF748F900216E2088
:104E5C00FEF744F900216E20FEF740F972E7FFF7E8
:104E6C009BFB304B1878FEF7ACFF00215A20FEF765
:104E7C0035F900216020FEF731F900216620FEF79C
:104E8C002DF900216C20FEF729F945216F20FEF742
:104E9C0025F944216F20FEF721F92320FDF786FB2D
:104EAC00214D2878FFF750FB01465A20FEF716F9E2
:104EBC001E4E3078FFF748FB01466020FEF70EF9D6
:104ECC001B4F3878FFF740FB01466620FEF706F9CA
:104EDC00184C2078FFF738FB01466C20FEF7FEF8E3
:104EEC0045216F20FEF7FAF844216F20FEF7F6F803
:104EFC002320FDF75BFB104B00221A600F4B1B7835
:104F0C000F4A12780F4909780F4802F003FD3B78DD
:104F1C0032782978207800900C4802F0FBFC95E65A
:104F2C00704700BF41010020FC04002071040020E8
:104F3C00FD040020C2040020D40400200105002040
:104F4C0073040020D8040020108D0108288D01085E
:104F5C00074B0F221A700023064A1370064A13706F
:104F6C00064BC5221A70064B01221A60704700BF0F
:104F7C00D8040020730400200105002072040020D6
:104F8C00D404002008B5444803F064FB04214020FD
:104F9C00FEF7A4F88321A720FEF7A0F88021BE20FD
:104FAC00FEF79CF842216F20FEF798F84021702004
:104FBC00FEF794F820217120FEF790F80021722062
:104FCC00FEF78CF80021C020FEF788F80021C120E4
:104FDC00FEF784F80B21C220FEF780F80C21C320C9
:104FEC00FEF77CF80D21C420FEF778F80E21C520C1
:104FFC00FEF774F81921C620FEF770F87821C72047
:10500C00FEF76CF82121C820FEF768F80721CB20A9
:10501C00FEF764F80821CC20FEF760F80921CD20BA
:10502C00FEF75CF80A21CE20FEF758F80421CF20B9
:10503C00FEF754F80021D020FEF750F80021D120C3
:10504C00FEF74CF86021D220FEF748F81021D3204F
:10505C00FEF744F80621D420FEF740F8BE21D520F7
:10506C00FEF73CF83921D620FEF738F82721D72057
:10507C00FEF734F80E21C220FEF730F80F21C320C2
:10508C00FEF72CF81021C420FEF728F81121C520BA
:10509C00FEF724F808BD00BF408D0108F0B583B0C1
:1050AC0000240CB103B0F0BD2046FEF78AFE0120AF
:1050BC00FEF70AF8064610F0800F34D12546A44BB3
:1050CC001B5D083BDBB2012B5CD9A24B60221A7032
:1050DC00A04B1B78B34359D09F4B5B5D002B78D012
:1050EC00022B00F081809D4A525DFF2A02D00132D2
:1050FC009A494A55032B23D1984B5B5D022B1FD940
:10510C00954B01225A55954B00225A552146944BEA
:10511C001878FEF725FE2946924803F09BFA2046A4
:10512C000AF010FD0CE08C4B1B5DB3B18E4B1B7861
:10513C00012B1AD0FFF70CF98B4B1B78012B1DD0D0
:10514C002546854B1B5D012B59D0834B5B5D022B98
:10515C0000F0CC800134E4B2A3E7804B1B5DFF2B45
:10516C00F8D001337D490B55F4E701210846FEF7D1
:10517C0063FD00213220FDF759FFDBE70120FCF72E
:10518C006FF8DDE7734B60221A70A1E7724B5B5D21
:10519C00022B0BD093B9704B01225A556F4B002246
:1051AC005A552946714803F055FAC9E76B4B5B5DBC
:1051BC00FF2BC5D00133694A5355C1E7664B022218
:1051CC005A55664B00225A552946694803F042FA53
:1051DC00B6E7614B01225A55604B00225A552946BD
:1051EC00644803F037FAABE75B4B03225A555B4B31
:1051FC0000225A552946604803F02CFAA0E70320F8
:10520C00FDF762FF00F008025C4B1A6000F0070229
:10521C004F4B1F5D062A11D0042A18D0052A4FD0F7
:10522C00022A1ED03ABB564B1B68002B49D04B4B65
:10523C005B5D13F0020F44D0262242E0514B1B68F9
:10524C00002BE9D016F0040F34D0092239E04C4B76
:10525C001B688BB3414B5B5D13F0020F2ED10C22FC
:10526C002FE0474B1B6863B33C4B5B5D13F0020FA5
:10527C0027D0232225E0032A23D9414B1B680BB9E5
:10528C003A461EE009212F20FDF728FF0420FDF7E8
:10529C001BFFA0F14903DBB20B2B21D9A0F1560364
:1052AC00DBB20B2B1ED9A0F17103DBB20E2B1BD979
:1052BC003A4606E0082204E00C2202E0242200E038
:1052CC000D22234B5B5D93423FF43FAF204B5A556D
:1052DC0029462D4803F0BEF92046FEF779FD34E748
:1052EC002022EEE72222ECE72522EAE71B4B5B5D4E
:1052FC00002B7AD1254B00225A55254B1C70144B90
:10530C005B5D0C3BDBB2012B50D9A4F10A00214BA5
:10531C00595DC0B2FDF7E2FE114B1B782F2B54D018
:10532C001D4B595DF720FDF7D9FE1C4B595DFA203A
:10533C00FDF7D4FE1A4B1B781A4A11788B423FF4B6
:10534C0009AF174B1970184803F084F902E700BF36
:10535C00C4040020C304002098040020F80400209A
:10536C00030500209C8A01081E010020408A0108C8
:10537C00548A01086C8A0108808A0108C80400203C
:10538C00A0040020CC040020B88A0108700400207E
:10539C006C040020B48D0108B88D0108BC8D010887
:1053AC000205002074040020D48A01080320FDF7B4
:1053BC008BFE10F0080FA8D1BA4A535D23F00803F6
:1053CC0053552046FEF704FD9FE7B74B595DF82077
:1053DC00FDF784FEB54B5D5D2946FA20FDF77EFE98
:1053EC002946FB20FDF77AFEA4E7012B7ED0022B89
:1053FC0000F0B880032B00F0F380062B40F24281C2
:10540C00132B40F27181142B00F09281152B00F0BC
:10541C002482162B7FF49EAEA54B5B5D9BBBA14BF0
:10542C005B5D083BDBB2012B40F23282A148FEF7F8
:10543C00AAFC9C4B5B5D023BDBB2012B40F22A8247
:10544C0021464020FDF74AFE8021BE20FDF746FE96
:10545C00B620FDF739FEB520FDF736FEB420FDF77A
:10546C0033FE0021A720FDF739FE0120FDF720FEB9
:10547C008321A720FDF732FE8A4B5B5D023BDBB23A
:10548C00012B40F20C828A4B5B5D012B00F00E82EB
:10549C00874B5B5D022B7FF45DAE8748FEF773FC98
:1054AC0021464020FDF71AFE8021BE20FDF716FE96
:1054BC00B620FDF709FEB520FDF706FEB420FDF77A
:1054CC0003FEA420FDF700FEA220FDF7FDFDA320A6
:1054DC00FDF7FAFD0021A720FDF700FE0120FDF7E6
:1054EC00E7FD8321A720FDF7F9FD33E6734B1B780D
:1054FC00232B7FF62FAE0120FDF7E6FD0646014675
:10550C006F4803F0A7F8674B595DA1F10803DBB2B4
:10551C00012B23D906F06406602E7FF41BAE0B1F03
:10552C00DBB2012B7FF616AE0C293FF413AE0D291E
:10553C003FF410AE00293FF40DAE01293FF40AAE42
:10554C002046FEF70FFE00283FF404AE584B022213
:10555C005A5529465B4803F07DF8FBE55A4803F0A1
:10556C0079F8F7E5554B1B78232B7FF6F3AD01202B
:10557C00FDF7AAFD06460146514803F06BF8494B6E
:10558C00595DA1F10803DBB2012B25D906F01103FB
:10559C00102B03D0464B5B5D022B0FD016F0040F83
:1055AC007FF4D8AD0B1FDBB2012B07D90C2905D02A
:1055BC000D2903D011B101297FF4CCAD2046FEF7A3
:1055CC007DFD00283FF4C6AD394B01225A552946C2
:1055DC003E4803F03FF8BDE53B4803F03BF8B9E526
:1055EC00364B1B78232B7FF6B5AD0120FDF76CFDF8
:1055FC0006460146324803F02DF82A4B595D8B1EA6
:10560C00DBB2012B24D9012B29D90B1FDBB2012BC7
:10561C0006D90C2904D00D2902D009B1012906D1D3
:10562C0016F0040F03D1224B5B5D012B22D0A1F1AC
:10563C000803DBB2012B21D916F0010F3FF48AAD20
:10564C002046FEF7C5FB2946214803F003F881E507
:10565C0016F0040FD7D11F4802F0FCFF7AE516F0C4
:10566C00040FD2D0124B5B5D002BCED11A4802F046
:10567C00F1FF6FE5194802F0EDFF6BE5184802F0F9
:10568C00E9FF67E5174E06EB85039A78DA705A78CE
:10569C009A7016F825205A70FEF7F0FD06F82500D2
:1056AC0058E500BFC4040020B88D0108BC8D01086A
:1056BC0070040020C89101084490010803050020E3
:1056CC00EC8A01080C8B0108FC8A0108208B01086C
:1056DC00A48B0108348B0108508B01086C8B0108DA
:1056EC00908B01089C040020864F07EB8506B3784D
:1056FC00F3707378B37017F825307370FEF7BEFD36
:10570C0007F82500F3781B1A0133022B3FF622AD64
:10571C00B3781B1A0133022B3FF61CAD73781B1A9E
:10572C000133022B3FF616AD774B13225A5511E578
:10573C00FEF7A4FD0646754B5B5D754F7A5D0092D6
:10574C002A460146734802F085FF7B5D9A1ED2B251
:10575C00012A12D9012B3CD91A1FD2B2012A3CD9E9
:10576C00A3F10C02D2B2012A3BD9082B3DD0092B54
:10577C003FD1694B01225A5502E0674B06225A551C
:10578C00654B5A5D654B1A70654B1B78012B34D0F9
:10579C00614B5A5D634B5B5D9A4205D0624B1B7843
:1057AC002946624802F056FF584B5B5D5BBB604B71
:1057BC001B78243BDBB2012B38D9554B5B5D082B96
:1057CC0043D0092B45D040F62B115A4802F042FF2A
:1057DC00C0E4514B05225A55D2E74F4B05225A557E
:1057EC00CEE74D4B05225A55CAE74B4B00225A5572
:1057FC00C6E7494B14225A55C2E740214FF47A7040
:10580C0002F03AF9C4E7B10861F07F01C9B2072090
:10581C00FDF764FC3D4B5B5D012B03D0464802F069
:10582C008DFF97E4454802F089FF93E4384B5B5DAC
:10583C0013F0200FC1D00321B6FBF1F161F07F0111
:10584C00C9B20720FDF74AFCB7E73D4802F076FFE6
:10585C0080E43C4802F072FF7CE42C4B5B5D83B926
:10586C00334B1B78243BDBB2012B3FF673AC284B3C
:10587C005B5D13F0200F3FF46DAC1620FEF707FDB7
:10588C0068E42046FEF7C6FC0C20FEF700FD61E440
:10589C002D48CCE51921C620FDF720FCD0E52B4B7B
:1058AC001C7029462A4802F0D5FEECE5FFF76AFB8E
:1058BC002848FEF768FA21464020FDF70FFC04212A
:1058CC004020FDF70BFC8021BE20FDF707FCB62025
:1058DC00FDF7FAFBB520FDF7F7FBB420FDF7F4FB61
:1058EC002421A720FDF7FAFB0120FDF7E1FBA721FE
:1058FC000846FDF7F3FB154B1978174802F0AAFE82
:10590C00C6E500BF9C040020F804002070040020B1
:10591C00C4040020B88B0108200000201C000020CB
:10592C001E01002060070020E8000020E48B010825
:10593C0003050020648C0108308C0108248C0108BC
:10594C003C8C0108508C010800900108410100209A
:10595C00788C0108A08F0108848C0108044B1A78FC
:10596C00044B1B789A4201D00120704700207047ED
:10597C004601002047010020044B1A78044B1B7889
:10598C009A4201D00120704700207047440100204A
:10599C0045010020064A13780649C85C0133DBB286
:1059AC0013701D2B02D9134600221A70704700BFCA
:1059BC004701002040050020064A13780649C85CC0
:1059CC000133DBB21370C72B02D9134600221A70B5
:1059DC00704700BF450100208005002000B583B052
:1059EC0002A901F8010D4FF6FF7301220248FCF7E2
:1059FC00FFFB03B05DF804FB7003002000B583B01F
:105A0C0002A901F8010D4FF6FF7301220248FCF7C1
:105A1C00EFFB03B05DF804FBF40300201E4B1B7876
:105A2C009BB900B583B01D4B1A7892B91C4B1A78F0
:105A3C00FAB91C4B1A78002A26D11B4B1A781B4B2F
:105A4C0019781B4801F066FF10E0134B00221A7006
:105A5C007047134B1B78154909781348007801904F
:105A6C00104800780090134801F054FF03B05DF823
:105A7C0004FB0C4B1B780D4909780B4800780090FF
:105A8C000D4801F047FFF1E7074B1B7807490978F0
:105A9C000A4801F03FFFE9E7490100204D010020D1
:105AAC0058010020590100205A0100202800002034
:105ABC00989A0108449A0108649A0108809A01088E
:105ACC0008B5FFF78BFF08BD0246A0F13003D8B232
