:020000040800F2
:1000000000500020C9850008CD170008D11700084E
:10001000D5170008D9170008DD17000800000000F8
:10002000000000000000000000000000E1170008D0
:10003000E517000800000000E9170008ED170008A8
:100040001186000811860008118600081186000834
:100050001186000811860008118600081186000824
:10006000F51700081186000811860008118600089F
:100070001186000811860008118600081186000804
:1000800011860008118600081186000811860008F4
:1000900011860008118600081186000811860008E4
:1000A00011860008118600081186000811860008D4
:1000B0001186000801180008118600081186000842
:1000C00011860008118600081186000811860008B4
:1000D0001186000811180008211800081186000870
:1000E0001186000811860008118600080000000033
:1000F0000000000000000000000000000000000000
:0C01000000000000000000005FF808F1A3
:10010C00044B05481B1A062B02D9044B03B11847A4
:10011C00704700BFF7000020F40000200000000032
:10012C0005490648091A891001EBD171491002D012
:10013C00034B03B118477047F4000020F400002073
:10014C000000000010B5064C237843B9FFF7D8FF28
:10015C00044B13B10448AFF300800123237010BD8E
:10016C00F400002000000000C422010808B5084B70
:10017C001BB108480849AFF300800848036813B95D
:10018C00BDE80840CCE7064B002BF9D09847F7E7C1
:10019C0000000000C4220108F8000020F400002038
:1001AC0000000000002902D0B0FBF1F0704708B14C
:1001BC004FF0FF3000F01EB80029F8D00246B0FB1B
:1001CC00F1F000FB11217047002902D090FBF1F0F7
:1001DC0070470028C8BF6FF00040B8BF4FF0004018
:1001EC0000F008B80029F4D0024690FBF1F000FBB7
:1001FC0011217047704700BFF0B589B000250495F8
:10020C000595069507952E4B9A6942F004029A6162
:10021C009A6902F004020092009A9A6942F008026C
:10022C009A619A6902F008020192019A9A6942F065
:10023C0010029A619A6902F010020292029A9A696B
:10024C0042F020029A619B6903F020030393039B05
:10025C001C4F38464FF48051012202F02BFE202314
:10026C00049301240594069402260796384604A9A3
:10027C0002F022FD102304930595069438460DEBED
:10028C00030102F019FD4FF4E05304930594069416
:10029C0007960D4804A902F00FFD049605940694E8
:1002AC0007960A4E304604A902F006FD4923049332
:1002BC0005950694304604A902F0FEFC09B0F0BD89
:1002CC000010024000080140000C014000100140E9
:1002DC0030B587B0002402940394049405940094E0
:1002EC0001940F4D0F4B2B6023236B60AC600923E3
:1002FC00EB602C618023AB61284601F00BFD06A955
:10030C004FF4805341F8103D284601F0C9FD00948C
:10031C0001942846694601F061FE07B030BD00BF6C
:10032C000C0300200004004008B50848084B03608B
:10033C004FF4E133436000238360C36003610C22FC
:10034C0042618361C36101F04DFF08BD7C03002055
:10035C000038014008B50848084B03604FF41643B9
:10036C00436000238360C36003610C22426183619C
:10037C00C36101F037FF08BD0004002000440040B9
:10038C0000B583B002A8002300F8013D0DF1060171
:10039C0011F07CFF0D4B1B78042B0DD00C4A1278FE
:1003AC00934209D10B4B1B789DF80700834203D075
:1003BC00084B187009F060FC054B1B789DF8071072
:1003CC00054AD15403B05DF804FB00BF380100208E
:1003DC0069070020050200202C01002010B501380F
:1003EC00012806D908F010F9092303604FF0FF30FB
:1003FC0010BD1446054892B24FF47A7301F024FFF5
:10040C0008B1002010BD204610BD00BF7C030020A9
:10041C0038B55B4B1870042800F2B180DFE800F0AF
:10042C002044688C0300574D28464021012202F0DD
:10043C0041FD554C20462021012202F03BFD204677
:10044C001021012202F036FD20460821012202F083
:10045C0031FD28464FF40041012202F02BFD38BD3E
:10046C00484D28464021012202F024FD464C2046EE
:10047C002021002202F01EFD20461021012202F054
:10048C0019FD20460821012202F014FD28464FF4E4
:10049C000041012202F00EFD3C4C207809F0ECFBEF
:1004AC0022783B4B1A7038BD364D2846402101222C
:1004BC0002F000FD344C20462021012202F0FAFC0F
:1004CC0020461021002202F0F5FC204608210122D2
:1004DC0002F0F0FC28464FF40041012202F0EAFC45
:1004EC002A4C607809F0C8FB6278294B1A7038BD29
:1004FC00244D28464021002202F0DCFC224C2046F0
:10050C002021012202F0D6FC20461021012202F00B
:10051C00D1FC20460821002202F0CCFC28464FF4E6
:10052C000041012202F0C6FC184CA07809F0A4FB93
:10053C00A278174B1A7038BD124D28464021002264
:10054C0002F0B8FC104C20462021012202F0B2FC33
:10055C0020461021012202F0ADFC20460821012288
:10056C0002F0A8FC28464FF40041002202F0A2FC45
:10057C00064CE07809F080FBE278054B1A7038BD28
:10058C003801002000080140000C01402C01002023
:10059C000502002010B50446012805D107480821A2
:1005AC00002202F087FC04E004480821012202F03A
:1005BC0081FC0348214607F0C7F910BD001001402B
:1005CC00F022010808B507F061FA08BD70B582B0D9
:1005DC000022184B1A709C200AF058FD04469D20EE
:1005EC000AF054FD0546A1200AF050FD0646A22053
:1005FC000AF04CFDBC2C13D1072D13D1102E13D1A6
:10060C00B82813D10C4B1B780124009401930B4890
:10061C000B490C4A40F2994308F036F8204606E0A4
:10062C00002004E0002002E0002000E0002002B0E6
:10063C0070BD00BF690700206C070020A8240108CA
:10064C00C82401084828010830B583B00024DBE039
:10065C00704B1C70012C0BD16F4B1B78142B03D1DE
:10066C0000226E4B1A5507E001226C4B1A5503E021
:10067C0011F01EFE694B1855664B1B78684AD15C0D
:10068C00684AD25C914201D06549CA54634AD25C33
:10069C006549C95C8A422DD06349CA5452BB204675
:1006AC000FF05CFA631C009360486149614A4FF497
:1006BC00996307F0E9FF604BDB794BB101225F4B8B
:1006CC001A6000235E490B605E490A705E4A137023
:1006DC00504B1B7814225D49CA545D49CA545D4A7B
:1006EC00127822B91BB90020012103F043FB012031
:1006FC00FFF750FF474B1D78484B5B5D012B0BD12F
:10070C00012C04D1444B1A78504B5A5504E028461E
:10071C0011F0CAFC4D4B58553E4B1B784B4AD25CE2
:10072C004B49C95C8A426DD04949CA54FFF74EFF08
:10073C0048B1631C009348483D493E4A40F2EC43A3
:10074C0007F0A2FF5EE0334B1B78404AD35C142BBE
:10075C0058D025462046115D374B1A780FF072F8A9
:10076C003C4B1B78012B07D12A4B1B78012B03D157
:10077C001920012102F0A2FC384B33F81510384B2C
:10078C0033F81520374B33F81530374830F815004F
:10079C00009020460FF012FE2C4B5B5D013500954E
:1007AC00019332482249234A4FF49F6307F06CFFB0
:1007BC00214BDB794BB10122204B1A6000232049DD
:1007CC000B6020490A70204A1370224B1B7833B9F6
:1007DC00104B1B781BB90020014603F0CBFA1D4BC4
:1007EC001B78012B08D10B4B1B78012B04D14FF438
:1007FC007A70402107F05AF9064B1B7813B9002088
:10080C00FFF7C8FE0134E4B2012C7FF621AF03B030
:10081C0030BD00BF69070020200000201801002017
:10082C0088070020400800203C010020D424010847
:10083C00C82401080C2801084404002034010020BD
:10084C0010010020020000203A0100206C0700205B
:10085C000400002014010020FC240108C00000202A
:10086C00D0000020C8000020D8000020A8240108D7
:10087C0038B507F047FE04461A48214607F064F8DD
:10088C0007F040FE41F2070398420ED0164D284661
:10089C00194607F059F841F2070007F059FE07F026
:1008AC0031FE0146284607F04FF807F02BFE41F2C7
:1008BC000703984207D19C420FD007F06DFE0B48FE
:1008CC0007F042F809E00A4807F03EF8094807F03B
:1008DC003BF8FF22084B1A7038BD642002F032FC42
:1008EC0038BD00BF2425010838250108482501081A
:1008FC0084250108A0250108BD03002010B588B08F
:10090C00602301930290002303930593054C20462A
:10091C0001A9082201F04AFA2046082101F042FB05
:10092C0008B010BDC003002038B50546002406E011
:10093C00044B185D295D02F0C1FB0134E4B2572C65
:10094C00F6D938BDC888010808B5034806F0FCFF85
:10095C000248FFF7E9FF08BDD0250108807F010898
:10096C0008B5054806F0F0FF0448FFF7DDFFD72077
:10097C00102102F0A3FB08BDF825010860860108D0
:10098C0008B5034806F0E0FF0248FFF7CDFF08BDAD
:10099C001C2601085885010808B5034806F0D4FF49
:1009AC000248FFF7C1FF08BD40260108A8840108D2
:1009BC0008B5FE4806F0C8FF0120002102F07EFBBE
:1009CC000220002102F07AFB0320752102F076FB55
:1009DC000420182102F072FB0520802102F06EFB2E
:1009EC000620202102F06AFB0720082102F066FB9A
:1009FC000820402102F062FB09200A2102F05EFB74
:100A0C000A20412102F05AFB0B20072102F056FB71
:100A1C000C20002102F052FB0D20202102F04EFB95
:100A2C000E20102102F04AFB0F20002102F046FBA1
:100A3C001020802102F042FB1120822102F03EFBAB
:100A4C001220212102F03AFB1320D02102F036FBB8
:100A5C001420E02102F032FB1520782102F02EFB4D
:100A6C001620FE2102F02AFB1720002102F026FBA3
:100A7C001820C82102F022FB1920002102F01EFBD5
:100A8C001A20232102F01AFB1B20002102F016FB76
:100A9C001C20002102F012FB1D20002102F00EFB95
:100AAC001E20202102F00AFB1F20322102F006FB3F
:100ABC0020205A2102F002FB21200D2102F0FEFA27
:100ACC002220322102F0FAFA23205A2102F0F6FAFF
:100ADC002420D02102F0F2FA2520212102F0EEFA96
:100AEC0026200D2102F0EAFA2720E02102F0E6FA96
:100AFC002820F02102F0E2FA2920002102F0DEFA8F
:100B0C002A20002102F0DAFA2B20012102F0D6FA79
:100B1C002C20FF2102F0D2FA2D20002102F0CEFA77
:100B2C002E20122102F0CAFA2F20D02102F0C6FA90
:100B3C003020E02102F0C2FA3120802102F0BEFA0E
:100B4C003220802102F0BAFA3320802102F0B6FA6A
:100B5C003420A02102F0B2FA3520182102F0AEFAAE
:100B6C003620462102F0AAFA3720642102F0A6FAB8
:100B7C003820002102F0A2FA3920FF2102F09EFA5F
:100B8C003A20032102F09AFA3B20802102F096FAD7
:100B9C003C20802102F092FA3D20802102F08EFA56
:100BAC003E20802102F08AFA3F20802102F086FA52
:100BBC004120602102F082FA42205F2102F07EFA8D
:100BCC004320372102F07AFA4420142102F076FAFD
:100BDC004520042102F072FA4620002102F06EFA40
:100BEC004720002102F06AFA4820002102F066FA40
:100BFC004920002102F062FA4B20202102F05EFA1B
:100C0C004C20002102F05AFA4D20002102F056FA35
:100C1C004E20002102F052FA4F207F2102F04EFAB2
:100C2C005020202102F04AFA5120002102F046FA0D
:100C3C005220002102F042FA5320042102F03EFA25
:100C4C005420002102F03AFA5520E02102F036FA45
:100C5C005620402102F032FA5720042102F02EFADD
:100C6C005820002102F02AFA5920082102F026FA15
:100C7C005A20102102F022FA5B20002102F01EFA09
:100C8C005C20682102F01AFA5D20402102F016FA6D
:100C9C005E20082102F012FA5F20002102F00EFA09
:100CAC006020E02102F00AFA6120542102F006FAD9
:100CBC006220332102F002FA6320012102F0FEF9D6
:100CCC006420FF2102F0FAF96520012102F0F6F907
:100CDC006620FF2102F0F2F96720892102F0EEF97B
:100CEC006820AB2102F0EAF96920882102F0E6F9CC
:100CFC006A206E2102F0E2F96B206E2102F0DEF91F
:100D0C006C206E2102F0DAF96D20002102F0D6F988
:100D1C006E20002102F0D2F96F20002102F0CEF9F2
:100D2C007020002102F0CAF97120002102F0C6F9EE
:100D3C007220002102F0C2F97320002102F0BEF9EA
:100D4C007420002102F0BAF97520FF2102F0B6F9E7
:100D5C007620FF2102F0B2F97720FF2102F0AEF9E4
:100D6C007820FF2102F0AAF97920FF2102F0A6F9E0
:100D7C007A20FF2102F0A2F97B20FF2102F09EF9DC
:100D8C007C20FF2102F09AF97D20F02102F096F9E7
:100D9C007E20802102F092F97F20002102F08EF952
:100DAC008020002102F08AF902E000BF64260108CD
:100DBC008120342102F082F98220402102F07EF958
:100DCC008320052102F07AF98420592102F076F96A
:100DDC008520FD2102F072F98620042102F06EF9C3
:100DEC008720242102F06AF98820942102F066F908
:100DFC008920582102F062F98A20002102F05EF964
:100E0C008B207E2102F05AF98C20032102F056F936
:100E1C008D202C2102F052F98E208C2102F04EF9FB
:100E2C008F20002102F04AF99020CC2102F046F9E3
:100E3C009120412102F042F99220C42102F03EF9A6
:100E4C009320312102F03AF99420872102F036F9EF
:100E5C009520D02102F032F99620F32102F02EF9E0
:100E6C009720202102F02AF99820112102F026F96E
:100E7C009920902102F022F99A20FF2102F01EF90C
:100E8C009B20042102F01AF99C200A2102F016F989
:100E9C009D20002102F012F99E20042102F00EF98F
:100EAC009F20652102F00AF9A0202F2102F006F9FB
:100EBC00A120D92102F002F9A220982102F0FEF81B
:100ECC00A320872102F0FAF8A420E12102F0F6F821
:100EDC00A520382102F0F2F8A620C22102F0EEF88B
:100EEC00A720702102F0EAF8A820002102F0E6F811
:100EFC00A9201E2102F0E2F8AA202E2102F0DEF831
:100F0C00AB20002102F0DAF8AC20842102F0D6F8F4
:100F1C00AD20F32102F0D2F8AE20652102F0CEF81C
:100F2C00AF20992102F0CAF8B020002102F0C6F8D7
:100F3C00B120002102F0C2F8B220002102F0BEF86C
:100F4C00B320002102F0BAF8B420002102F0B6F868
:100F5C00B520002102F0B2F8B620002102F0AEF864
:100F6C00B820802102F0AAF8B920002102F0A6F8DE
:100F7C00BA20012102F0A2F8BB20002102F09EF859
:100F8C00BC20902102F09AF8BD20012102F096F8C5
:100F9C00BE202C2102F092F8C020002102F08EF825
:100FAC00C120202102F08AF8C220202102F086F80C
:100FBC00C320202102F082F8C420202102F07EF808
:100FCC00C520202102F07AF8D020FF2102F076F81B
:100FDC00D1203F2102F072F8D220C22102F06EF82B
:100FEC00D3203F2102F06AF8D420002102F066F8E9
:100FFC00D520002102F062F8D620002102F05EF824
:10100C00D720102102F05AF8D820002102F056F80F
:10101C00DC20772102F052F8DD20002102F04EF89E
:10102C00DE20AF2102F04AF8DF20EF2102F046F873
:10103C00E020002102F042F8E120002102F03EF80D
:10104C00E220002102F03AF8E320122102F036F8F7
:10105C00E420E22102F032F8E520D02102F02EF853
:10106C00E620002102F02AF8E720002102F026F801
:10107C00E8200F2102F022F8E920002102F01EF8EE
:10108C00EA20002102F01AF8EB20002102F016F8F9
:10109C00EC20882102F012F8ED20002102F00EF86D
:1010AC00EE20002102F00AF8EF20002102F006F8F1
:1010BC00F020302102F002F8F120432101F0FEFF74
:1010CC00F2201F2101F0FAFFF3201F2101F0F6FF9F
:1010DC00F420222101F0F2FFF520732101F0EEFF44
:1010EC00F620532101F0EAFFF720802101F0E6FF02
:1010FC00F820012101F0E2FFF920012101F0DEFFCF
:10110C00FA20002101F0DAFFFB20002101F0D6FFCC
:10111C00FC20002101F0D2FFFD20702101F0CEFF58
:10112C00FE20402101F0CAFFFF20072101F0C6FF7D
:10113C0008BD00BF70B590B00024079408940994C2
:10114C000C940E9401940294039404940594022537
:10115C00069501260A9610230B930D954FF4E01378
:10116C000F9306A801F078FA0F23019302950394CC
:10117C000494059401A8314601F0C0FC10B070BD78
:10118C000268184B9A422BD1174A13780133DBB201
:10119C00137016490A6801320A6015490A6801324F
:1011AC000A60632B09D9134A1368013313600022B8
:1011BC000D4B1A700122104B1A60104B1A68013239
:1011CC001A601A680E4B9A420AD900220B4B1A600D
:1011DC000C4B1B78012B03D10B4A13780133137082
:1011EC00704700BF0004004058010020540100204B
:1011FC005C01002068010020640100202401002013
:10120C00A0860100020000203A01002010B504461F
:10121C000268174B9A4212D116490A78531CDBB25A
:10122C000B7015490878154988541D2B02D90022DA
:10123C00104B1A7012481049012201F075F82268FF
:10124C00104B9A4212D110490A78531CDBB20B7026
:10125C000E4908780E498854C72B02D900220A4B34
:10126C001A700C480949012201F05EF810BD00BF4C
:10127C000038014051010020300100204C050020B5
:10128C007C03002000440040500100202801002075
:10129C008C05002000040020704700BF38B50128E1
:1012AC0034D03220002101F009FF1920002101F077
:1012BC0005FF0024404B1C70404807F075FA40486D
:1012CC000470012343700EF0F3FC1920214601F049
:1012DC00F5FEFFF77BF958B13A483B493B4A41F2DE
:1012EC00A41307F0D1F92046012102F043FD5BE085
:1012FC00374B1B78012B04D10020014602F03AFD3C
:10130C0052E00020012102F035FD4DE03220002199
:10131C0001F0D4FE284C012525702E4807F044FA24
:10132C0027480570022343700EF0C2FC19200421DB
:10133C0001F0C4FE2378AB4229D1274B1B78072B35
:10134C0009D1FFF701FB254807F09EF928462946ED
:10135C0002F010FD1BE0224807F096F9214B1B7898
:10136C00052B02D1FFF7FCFA11E0062B02D1FFF797
:10137C00EBFA0CE013B9FFF703FB08E0012B02D1E9
:10138C00FFF70AFB03E01020012101F097FE104B40
:10139C005B78012B04D10120002102F0EBFC03E06F
:1013AC000120014602F0E6FC00220F4B1A700122CC
:1013BC000E4B1A7038BD00BF14010020B026010876
:1013CC0044040020C4260108C8240108242801086C
:1013DC0018010020EC260108D00400200027010889
:1013EC00082701081C0000203A0100200200002000
:1013FC0000B583B05E4B1B68012B40F0A480FFF757
:10140C0023F9FEF7BDFF5B4A13780133DBB213708F
:10141C000A2B04D90022574B1A7008F053FB0A20F0
:10142C0001F034FE544A138801339BB21380642BB1
:10143C0006D90022504B1A80504A1378013313708E
:10144C004E4B1B784E4A1268934256D04C4A13604E
:10145C004C4B1B78012B28D14B4A13780133DBB250
:10146C0013704A4A127893421FD90021464B1970C7
:10147C00474B19705B78032B03D8013344494B70ED
:10148C0002E00121424B5970414C63780093019268
:10149C0040484149414A4FF4056307F0F5F82046AE
:1014AC000EF006FC0022354B1A70364B1B78012BC4
:1014BC000CD1374B5B780093304B1B780193384839
:1014CC003549364A40F6580307F0DEF8354B1B78A1
:1014DC00012B0AD1294B1B78092B06D90023274A4B
:1014EC001370304A137002F001FC322001F0DCFD65
:1014FC0018B93220802101F0E1FD03F02FFE2A48BB
:10150C00102101F0CFFC294B1870294B1B78984205
:10151C0019D0322001F0BAFD2348102101F0C2FC91
:10152C00224B1870224B1B7898420CD0204B187011
:10153C00012802D1FFF7B2FE05E00020FFF7AEFE56
:10154C0001E005F0E7F904F05BFA0028F9D1084B4B
:10155C001B68002BF7D001E006F06AFC04F05EFA81
:10156C000028F9D106F044FC03F08EF942E700BFE5
:10157C002400002042010020400100203A010020FC
:10158C000C000020390100201C0100200800002064
:10159C004404002010270108C8240108342801083D
:1015AC00342701080200002000080140320100200D
:1015BC00140100202DE9F04383B00024684B1C601B
:1015CC0000F0FCFFFFF7B6FDFEF7FCFFFEF714FE84
:1015DC00FEF77EFEFEF7A8FEFEF7BCFE09F0D6FC79
:1015EC0009F080FF0AF026F90AF010FC20460121D0
:1015FC0002F0C0FB0120FEF7CDFF322001F046FDCA
:10160C0058485949012200F08FFE58485849012288
:10161C0000F08AFE574E30464FF48051224601F0BE
:10162C0049FC554D28460221224601F043FC64201A
:10163C0001F02CFD30464FF48051012201F03AFCB0
:10164C0028460221012201F035FC20E04B4B1C7096
:10165C004B4E4C4D00944C4831462A4640F23E735A
:10166C0007F012F8002010F01CFE8920802109F0F0
:10167C0049FD022009F00AFD0094019043483146CF
:10168C002A4640F2447306F0FFFF0134E4B2012C09
:10169C00DCD93F4C0025257065710126A67166705A
:1016AC000223A3700327E770042323710F20394909
:1016BC0002F040FBFFF7DCF802F0E6FE284601F0F2
:1016CC00F3FCDFF8BC90DFF8BC8000903248494650
:1016DC00424640F2727306F0D7FF30484946424604
:1016EC0040F2737306F0D0FFE771A6712572657234
:1016FC00284601F079FE20460EF0DAFAE3793BB188
:10170C00274B1E6027490D6027490E70274A15701C
:10171C0027485D2300F8013B6D21202206F0ABFF2A
:10172C00012221230AE0224902F17F00C854581CEF
:10173C006D240C540132D2B20233DBB2402BF2D9FD
:10174C001C486D211F2206F096FF0020FEF760FE5C
:10175C00194800F0D3F9194806F096FFFFF748FE38
:10176C00200100207C030020300100200004002018
:10177C0028010020000C01400010014069070020E6
:10178C00C8240108402801085827010880270108AF
:10179C0044040020EC9E0108B0270108D42701085E
:1017AC003401002010010020020000203A0100202A
:1017BC0008020020470200200C030020FC2701082F
:1017CC00704700BFFEE700BFFEE700BFFEE700BFAB
:1017DC00FEE700BF704700BF704700BF704700BFF7
:1017EC0008B500F0FDFE08BD08B5042001F068FB4B
:1017FC0008BD00BF08B5024800F09AF908BD00BF4B
:10180C000C03002008B5024800F01CFE08BD00BF08
:10181C007C03002008B5024800F014FE08BD00BF90
:10182C000004002082B00E4B9A6942F001029A61CA
:10183C009A6902F001020092009ADA6942F0805231
:10184C00DA61DB6903F080530193019B054A53680D
:10185C0023F0E06343F00073536002B0704700BFA5
:10186C00001002400000014002680E4B9A4217D152
:10187C0000B583B003F50333DA6942F00202DA6192
:10188C00DB6903F002030193019B1D2000210A4632
:10189C0001F080FB1D2001F0AFFB03B05DF804FBF1
:1018AC00704700BF0004004070B588B004460023A8
:1018BC0004930593069307930268354B9A4231D1F2
:1018CC0003F558439A6942F480429A619A6902F48A
:1018DC0080420092009A9A6942F004029A619B69D4
:1018EC0003F004030193019B4FF400730493022350
:1018FC00059303230793274E304604A901F0DCF926
:10190C004FF480630493002505950695304604A991
:10191C0001F0D2F9252029462A4601F03BFB25206F
:10192C0001F06AFB22681C4B9A422FD103F5E63377
:10193C00DA6942F40032DA61DA6902F400320292B6
:10194C00029A9A6942F004029A619B6903F00403BB
:10195C000393039B0423049302230593032307930C
:10196C000C4D284604A901F0A7F908230493002480
:10197C0005940694284604A901F09EF926202146D8
:10198C00224601F007FB262001F036FB08B070BDA3
:10199C0000380140000801400044004030B4036AA4
:1019AC0023F001030362036A4468826922F0730224
:1019BC000D682A4323F002038D682B430C4DA8427B
:1019CC0005D123F00803CD682B4323F00403084D05
:1019DC00A84205D124F440744D692C438D692C43E5
:1019EC00446082614A684263036230BC704700BF46
:1019FC00002C014030B4036A23F480730362036A41
:101A0C004468C26922F073020D682A4323F4007300
:101A1C008D6843EA05230E4DA84206D123F40063DA
:101A2C00CD6843EA052323F48063094DA84207D10E
:101A3C0024F440544D6944EA05148D6944EA0514B4
:101A4C004460C2614A68C263036230BC704700BF25
:101A5C00002C014030B4036A23F480530362036A00
:101A6C004468C26922F4E6420D6842EA052223F476
:101A7C0000538D6843EA0533074DA84204D124F482
:101A8C0080444D6944EA85144460C2614A6802642A
:101A9C00036230BC704700BF002C014010B4036AD5
:101AAC00046A24F001040462846924F0F00444EA1A
:101ABC00021223F00A031943826101625DF8044BA0
:101ACC00704700BF10B4036A23F0100303628469EB
:101ADC00036A24F4704444EA023223F0A00343EA7C
:101AEC000111826101625DF8044B7047836823F039
:101AFC007003194341F00701816070470268D36895
:101B0C0043F00103D3600268936803F00703062BCC
:101B1C0003D0136843F0010313600020704700BF2B
:101B2C00704700BF704700BF704700BF704700BFD1
:101B3C0010B5044603681A6912F0020F17D0DA6860
:101B4C0012F0020F13D06FF002021A610123037717
:101B5C0003689B6913F0030F02D0FFF7E3FF04E067
:101B6C00FFF7DEFF2046FFF7DFFF00232377236814
:101B7C001A6912F0040F19D0DA6812F0040F15D09C
:101B8C006FF004021A610223237723689B6913F414
:101B9C00407F03D02046FFF7C5FF05E02046FFF746
:101BAC00BFFF2046FFF7C0FF0023237723681A6985
:101BBC0012F0080F19D0DA6812F0080F15D06FF078
:101BCC0008021A61042323772368DB6913F0030FDF
:101BDC0003D02046FFF7A6FF05E02046FFF7A0FF45
:101BEC002046FFF7A1FF0023237723681A6912F020
:101BFC00100F19D0DA6812F0100F15D06FF0100218
:101C0C001A61082323772368DB6913F4407F03D020
:101C1C002046FFF787FF05E02046FFF781FF2046AF
:101C2C00FFF782FF0023237723681A6912F0010F54
:101C3C0009D0DA6812F0010F05D06FF001021A61B9
:101C4C002046FFF79DFA23681A6912F0800F09D01D
:101C5C00DA6812F0800F05D06FF080021A6120460E
:101C6C0000F0E2F923681A6912F0400F09D0DA6823
:101C7C0012F0400F05D06FF040021A612046FFF7BA
:101C8C0055FF23681A6912F0200F09D0DA6812F098
:101C9C00200F05D06FF020021A61204600F0C2F927
:101CAC0010BD00BF03681A4A90420AD0B0F1804FB1
:101CBC0007D0A2F59432904203D002F58062904294
:101CCC0003D123F070034A681343114A90420AD09F
:101CDC00B0F1804F07D0A2F59432904203D002F5B8
:101CEC008062904203D123F44073CA68134323F0FB
:101CFC0080034A69134303608B68C3620B68836279
:101D0C00034B984201D10B69036301234361704774
:101D1C00002C0140C0B110B5044690F83D3013F0D2
:101D2C00FF0F04D1002380F83C30FFF79DFD022308
:101D3C0084F83D30214651F8040BFFF7B3FF012323
:101D4C0084F83D30002010BD0120704730B4036A88
:101D5C0023F010030362036A4468826922F4E642AA
:101D6C000D6842EA052223F020038D6843EA05132F
:101D7C000D4DA84206D123F08003CD6843EA05132C
:101D8C0023F04003084DA84207D124F440644D6968
:101D9C0044EA85048D6944EA8504446082614A689A
:101DAC008263036230BC7047002C014038B590F858
:101DBC003C30012B66D00D460446012380F83C30A4
:101DCC00022380F83D300C2A55D8DFE802F0075486
:101DDC0054541A5454542E54545441000068FFF770
:101DEC00DDFD2268936943F00803936122689369CF
:101DFC0023F004039361226891692B690B4393616F
:101E0C0039E00068FFF7A2FF2268936943F400638E
:101E1C0093612268936923F48063936122689369C8
:101E2C00296943EA0123936125E00068FFF7E2FD8D
:101E3C002268D36943F00803D3612268D36923F085
:101E4C000403D3612268D1692B690B43D36112E07F
:101E5C000068FFF7FFFD2268D36943F40063D36188
:101E6C002268D36923F48063D3612268D36929691A
:101E7C0043EA0123D361012384F83D30002084F828
:101E8C003C0038BD022038BD10B4846824F47F4473
:101E9C0042EA032319430C4384605DF8044B7047FA
:101EAC0090F83C30012B6AD010B50B460446012249
:101EBC0080F83C20022280F83D2001688A6822F4D8
:101ECC007F4222F077028A601968402943D00AD8F1
:101EDC0010294AD002D8002947D049E0202944D003
:101EEC00302942D044E060292BD002D850291ED092
:101EFC003EE0702903D0B1F5005F0CD038E00068EB
:101F0C0099685A68DB68FFF7BFFF2268936843F053
:101F1C00770393602CE0006899685A68DB68FFF7D8
:101F2C00B3FF2268936843F48043936020E0006819
:101F3C005968DA68FFF7B2FD20685021FFF7D6FD2B
:101F4C0016E000685968DA68FFF7BCFD206860216C
:101F5C00FFF7CCFD0CE000685968DA68FFF79EFDCE
:101F6C0020684021FFF7C2FD02E02068FFF7BEFDAC
:101F7C00012384F83D30002084F83C0010BD022081
:101F8C00704700BF10B401F01F0101238B40046A9D
:101F9C0024EA03030362036A8A401A4302625DF86F
:101FAC00044B704710B5044600680122FFF7EAFFA6
:101FBC002368094A934203D15A6C42F400425A6492
:101FCC002268936803F00703062B03D0136843F0D1
:101FDC0001031360002010BD002C014090F83C3030
:101FEC00012B1BD070B4012580F83C50022380F8E3
:101FFC003D3004686268A36822F070020E683243B8
:10200C0023F0800349680B4362600268936080F898
:10201C003D50002380F83C30184601E00220704708
:10202C0070BC7047704700BF704700BF0268D36830
:10203C0023F49073D3600268536923F00103536156
:10204C00202380F83A30704790F83930DBB2212BDE
:10205C002AD18368B3F5805F0FD1036A02681B88AD
:10206C00C3F30803536003691BB9036A02330362A9
:10207C0009E0036A0133036205E00268036A591C34
:10208C0001621B785360C38C013B9BB2C3846BB958
:10209C000268D36823F08003D3600268D36843F0EE
:1020AC004003D36000207047022070470020704727
:1020BC0010B5044601680B6923F44052C3681343FE
:1020CC000B61826803691A43436913430168CA6848
:1020DC0022F4B05222F00C021343CB6001684B691E
:1020EC0023F44072836913434B610268214B9A427B
:1020FC001FD100F0D1FD216800EB800000EB8000C7
:10210C0063689B00B0FBF3F01B4BA3FB002464093A
:10211C00642202FB140212013232A3FB02235B097C
:10212C0003F0F00202EB041403F00F0323448B6062
:10213C0010BD00F0A1FD216800EB800000EB8000D9
:10214C0063689B00B0FBF3F00B4BA3FB002464090A
:10215C00642202FB140212013232A3FB02235B093C
:10216C0003F0F00202EB041403F00F0323448B6022
:10217C0010BD00BF003801401F85EB512DE9F04127
:10218C0006460C4617469846069D1EE0B5F1FF3FE5
:10219C001BD02DB100F030FAC8EB0000A84214D9C6
:1021AC003268D36823F4D073D3603268536923F058
:1021BC0001035361202386F8393086F83A30002326
:1021CC0086F838300320BDE8F08133681B68234063
:1021DC00A34214BF00230123BB42D7D00020BDE88B
:1021EC00F08100BF68B310B5044690F8393013F095
:1021FC00FF0F04D1002380F83830FFF755FB242360
:10220C0084F839302268D36823F40053D360204615
:10221C00FFF74EFF2268136923F490431361226881
:10222C00536923F02A0353612268D36843F40053A3
:10223C00D3600020E063202384F8393084F83A30EE
:10224C0010BD0120704700BF2DE9F04182B004465B
:10225C001E4690F83930DBB2202B54D10D469046F7
:10226C00002952D0002A52D090F83830012B50D08F
:10227C00012380F838300023C363212380F83930E0
:10228C0000F0BAF90746A4F82480A4F8268026E0CA
:10229C00E38C013B9BB2E384A368B3F5805F12D15E
:1022AC0000962046802100223B46FFF767FF90BB3B
:1022BC0022682B88C3F30803536023690BB90235DA
:1022CC000DE001350BE000962046802100223B46B4
:1022DC00FFF754FF08BB23682A785A600135E38C5A
:1022EC009BB2002BD4D100962046402100223B46C5
:1022FC00FFF744FF034690B9202284F839200022CE
:10230C0084F838200CE002230AE0012308E00123C2
:10231C0006E0022304E0032302E0032300E003238E
:10232C00184602B0BDE8F08190F83A30DBB2202BB1
:10233C0020D109B312B390F83830012B20D0816230
:10234C008285C2850023C363222280F83A2080F85C
:10235C0038300168CA6842F48072CA6001684A6900
:10236C0042F001024A610168CA6842F02002CA6068
:10237C0018467047022070470120704701207047B3
:10238C0002207047704700BF08B50168CB6823F086
:10239C004003CB60202380F83930FFF7F3FF002097
:1023AC0008BD00BF08B590F83A30DBB2222B43D100
:1023BC008368B3F5805F13D1826A036943B90368FC
:1023CC005B68C3F308031380836A0233836218E0EB
:1023DC0003685B68DBB21380836A0133836210E0AD
:1023EC00036933B9836A5A1C8262026852681A7094
:1023FC0007E0826A531C836203685B6803F07F0307
:10240C001370C38D013B9BB2C385BBB90268D36803
:10241C0023F02003D3600268D36823F48073D36065
:10242C000268536923F001035361202380F83A308A
:10243C00FEF7ECFE002008BD022008BD002008BD00
:10244C00704700BF10B5044602681368D168526922
:10245C0013F00F0009D113F0200F06D011F0200F4C
:10246C0003D02046FFF79EFF10BD002862D012F06B
:10247C00010202D111F4907F5CD013F0010F06D051
:10248C0011F4807F03D0E06B40F00100E06313F0A7
:10249C00040F04D01AB1E06B40F00200E06313F0BB
:1024AC00020F04D01AB1E06B40F00400E06313F0AB
:1024BC00080F04D01AB1E26B42F00802E263E26B3F
:1024CC00002A4AD013F0200F05D011F0200F02D0B3
:1024DC002046FFF767FF23685B6903F04003E26B5C
:1024EC0012F0080F00D1FBB12046FFF79FFD2368C7
:1024FC005A6912F0400F13D05A6922F040025A6107
:10250C00636B4BB1154A5A63606B00F0E5FC20B36A
:10251C00606B436B984710BD2046FFF791FF10BDD1
:10252C002046FFF78DFF10BD2046FFF789FF0023E3
:10253C00E36310BD13F0800F06D011F0800F03D0B1
:10254C002046FFF781FD10BD13F0400F05D011F0B0
:10255C00400F02D02046FFF717FF10BD6D25000875
:10256C0008B5406A0023C385C384FFF769FF08BD23
:10257C0010B504460E4B18784FF47A73B3FBF0F396
:10258C000C4A1068B0FBF3F000F044FD58B90F2C66
:10259C000BD84FF0FF302146002200F0FBFC064B1D
:1025AC001C60002010BD012010BD012010BD00BF1B
:1025BC0014000020180000201000002008B5074A65
:1025CC00136843F010031360032000F0D1FC0020CB
:1025DC00FFF7CEFFFFF726F9002008BD00200240D0
:1025EC00034A1368034909780B441360704700BF12
:1025FC005C04002014000020014B1868704700BFD9
:10260C005C04002038B50446FFF7F6FF0546B4F12C
:10261C00FF3F02D0044B1B781C44FFF7EDFF401B1F
:10262C008442FAD838BD00BF1400002082B0084B99
:10263C001B68084AA2FB03235B0A00FB03F0019012
:10264C0000BF019B5A1E0192002BF9D102B07047BA
:10265C0018000020D34D6210002800F0EC8170B5FA
:10266C0082B00446036813F0010F6BD0A84B5B6873
:10267C0003F00C03042B0AD0A54B5B6803F00C038E
:10268C00082B0DD1A24B5B6813F4803F08D0A04BF4
:10269C001B6813F4003F55D06368002B52D1CCE17A
:1026AC006368B3F5803F05D1994A136843F48033CE
:1026BC00136026E063B903F1804303F504331A6811
:1026CC0022F480321A601A6822F480221A6018E010
:1026DC00B3F5A02F0CD103F18043A3F53C331A685A
:1026EC0042F480221A601A6842F480321A6008E0C0
:1026FC00874B1A6822F480321A601A6822F48022FE
:10270C001A6063687BB1FFF777FF054605E0FFF7BA
:10271C0073FF401B642800F292817D4B1B6813F4FD
:10272C00003FF4D00EE0FFF767FF054605E0FFF72A
:10273C0063FF401B642800F28481754B1B6813F403
:10274C00003FF4D1236813F0020F50D0704B5B683C
:10275C0013F00C0F0AD06E4B5B6803F00C03082BC4
:10276C0016D16B4B5B6813F4803F11D1684B1B681F
:10277C0013F0020F03D02369012B40F06481644AEB
:10278C00136823F0F803616943EAC10313602EE078
:10279C002369D3B101225F4B1A60FFF72DFF054669
:1027AC0005E0FFF729FF401B022800F24E81584B31
:1027BC001B6813F0020FF4D0554A136823F0F8038A
:1027CC00616943EAC103136011E00022514B1A60A6
:1027DC00FFF712FF054605E0FFF70EFF401B02282E
:1027EC0000F235814A4B1B6813F0020FF4D12368B9
:1027FC0013F0080F29D0A369ABB10122464B1A6024
:10280C00FFF7FAFE054605E0FFF7F6FE401B02282F
:10281C0000F21F813E4B5B6A13F0020FF4D00120D3
:10282C00FFF704FF11E000223B4B1A60FFF7E4FEB8
:10283C00054605E0FFF7E0FE401B022800F20B8185
:10284C00334B5B6A13F0020FF4D1236813F0040FBF
:10285C0000F08B802E4BDB6913F0805F0BD12C4B7F
:10286C00DA6942F08052DA61DB6903F0805301933C
:10287C00019B012500E00025284B1B6813F4807F89
:10288C0013D1264A136843F480731360FFF7B4FE28
:10289C00064605E0FFF7B0FE801B642800F2DD80E1
:1028AC001E4B1B6813F4807FF4D0E368012B05D119
:1028BC00174A136A43F00103136222E063B903F170
:1028CC00804303F504331A6A22F001021A621A6A71
:1028DC0022F004021A6214E0052B09D10C4B1A6A7F
:1028EC0042F004021A621A6A42F001021A6208E00B
:1028FC00074B1A6A22F001021A621A6A22F00402C9
:10290C001A62E368D3B1FFF777FE064610E000BF0A
:10291C00001002400000424280044242007000401D
:10292C00FFF76AFE801B41F28833984200F29780D1
:10293C00544B1B6A13F0020FF2D010E0FFF75CFE51
:10294C00064607E0FFF758FE801B41F28833984299
:10295C0000F287804B4B1B6A13F0020FF2D125B1AA
:10296C00484AD36923F08053D361E369002B7AD0B2
:10297C00444A526802F00C02082A4CD0022B37D180
:10298C000022414B1A60FFF737FE054604E0FFF7C3
:10299C0033FE401B022868D83A4B1B6813F0007FAB
:1029AC00F5D1236AB3F5803F06D136494B6823F441
:1029BC000032A36813434B603248436823F474110C
:1029CC00236A626A13430B43436001222E4B1A6045
:1029DC00FFF712FE044604E0FFF70EFE001B022870
:1029EC0045D8284B1B6813F0007FF5D0002047E03A
:1029FC000022254B1A60FFF7FFFD044604E0FFF7A9
:102A0C00FBFD001B022834D81E4B1B6813F0007F03
:102A1C00F5D1002034E0012B2DD01A4B5B6803F468
:102A2C008031226A914228D103F47013626A934276
:102A3C0025D0012024E001207047012020E0032054
:102A4C001EE003201CE001201AE0032018E0032004
:102A5C0016E0032014E0032012E0032010E0032012
:102A6C000EE003200CE000200AE0032008E0032025
:102A7C0006E0032004E0012002E0012000E0002039
:102A8C0002B070BD001002406000424230B486B00B
:102A9C00164D02AC28686968AA68EB680FC42B8ACB
:102AAC00ADF80430124B5B6803F00C02082A19D104
:102ABC00C3F3834206A90A4412F8100C13F4803FA6
:102ACC000CD00B4B5B68C3F340430B4413F8142C32
:102ADC00084B03FB00F0B0FBF2F004E0064B03FBE9
:102AEC0000F000E0034806B030BC7047DC2201085F
:102AFC000010024000127A0000093D00002800F08E
:102B0C009D8070B50446544B1B6803F007038B4241
:102B1C000BD2514A136823F007030B43136013685D
:102B2C0003F007038B4240F08B80236813F0020FF5
:102B3C0017D013F0040F04D0484A536843F4E063F1
:102B4C005360236813F0080F04D0444A536843F4CD
:102B5C00605353604148436823F0F002A368134369
:102B6C0043600D46236813F0010F2ED06268012AD2
:102B7C0005D13A4B1B6813F4003F0DD162E0022AD9
:102B8C0005D1364B1B6813F0007F05D15CE0334B4D
:102B9C001B6813F0020F59D030494B6823F0030324
:102BAC0013434B60FFF728FD064606E0FFF724FDB4
:102BBC00801B41F2883398424AD8284B5B6803F05B
:102BCC000C036268B3EB820FF0D1234B1B6803F04C
:102BDC000703AB420AD9204A136823F007032B439F
:102BEC001360136803F00703AB4233D1236813F06F
:102BFC00040F06D019494B6823F4E062E3681343D1
:102C0C004B60236813F0080F07D0144A536823F461
:102C1C006053216943EAC1035360FFF737FF0F4B41
:102C2C005B68C3F303130E4AD35CD8400D4B18609A
:102C3C000D4B1868FFF79CFC002070BD01207047FD
:102C4C00012070BD012070BD012070BD012070BD40
:102C5C00032070BD012070BD002002400010024016
:102C6C005C2801081800002010000020014B186897
:102C7C00704700BF1800002008B5FFF7F7FF044BA2
:102C8C005B68C3F30223034AD35CD84008BD00BF82
:102C9C00001002406C28010808B5FFF7E7FF044B51
:102CAC005B68C3F3C223034AD35CD84008BD00BFA2
:102CBC00001002406C280108F0B583B04FF0000EF4
:102CCC007446DBE00122A2401340934240F0D580D1
:102CDC004D68122D30D00BD8022D29D003D87DB3DE
:102CEC00012D1ED03DE0032D36D0112D1CD038E027
:102CFC00664EB54224D008D8A6F58016B5421FD032
:102D0C0006F58036B5422CD11AE0614EB54217D08B
:102D1C0006F58036B54213D0A6F58016B54220D103
:102D2C000EE0D1F80CE01CE0CA6802F1040E18E0C9
:102D3C00CA6802F1080E14E0CA6802F10C0E10E029
:102D4C008D6865B1012D03D102614FF0080E08E0CA
:102D5C0042614FF0080E04E04FF0000E01E04FF01E
:102D6C00040EFF2B01D8844601E000F1040CFF2B6C
:102D7C0001D8A70002E0A4F10807BF00DCF800604E
:102D8C000F22BA4026EA02050EFA07F22A43CCF8C3
:102D9C0000204A6812F0805F6FD03E4A956945F07A
:102DAC0001059561926902F001020192019AA7084E
:102DBC00BD1C394A52F8256004F0030C4FEA8C0C08
:102DCC000F2202FA0CF226EA0205344A904213D082
:102DDC0002F5806290420DD002F58062904207D0DD
:102DEC0002F58062904201D1032206E0042204E045
:102DFC00022202E0012200E0002202FA0CF22A4335
:102E0C000237254D45F827204A6812F4803F05D03B
:102E1C0005F580652A681A432A6004E0204D2A686B
:102E2C0022EA03022A604A6812F4003F04D01C4DC7
:102E3C006A681A436A6004E0194D6A6822EA030260
:102E4C006A604A6812F4801F04D0154DAA681A43B0
:102E5C00AA6004E0124DAA6822EA0302AA604A683A
:102E6C0012F4001F04D00E4DEA681343EB6004E02B
:102E7C000B4DEA6822EA0303EB6001340B6833FA6A
:102E8C0004F27FF41FAF03B0F0BD00BF00002110AF
:102E9C000000311000100240000001400008014009
:102EAC000004014083680B4201D0012070470020D0
:102EBC00704700BF0AB10161704709040161704796
:102ECC0008B5044B5B69034203D0024B5861FEF713
:102EDC00E3F908BD0004014008B590F82130022B3D
:102EEC0003D004238363012008BD0268136823F018
:102EFC000E0313600268136823F001031360036868
:102F0C00194A93421FD0143293421AD0143293426E
:102F1C0014D0143293420ED01432934208D014328F
:102F2C00934202D14FF480120EE04FF080720BE00E
:102F3C004FF4803208E04FF4805205E04FF4807279
:102F4C0002E0102200E00122084B5A60012380F8B5
:102F5C002130002380F82030436B13B198470020B8
:102F6C0008BD002008BD00BF080002400000024060
:102F7C0000F00700064AD36823F4E0631B041B0C23
:102F8C0043EA002040F0BF6040F40030D06070474E
:102F9C0000ED00E030B4164BDC68C4F30224C4F13D
:102FAC000705042D28BF0425231D062B01D9033C3E
:102FBC0000E00024012303FA05F5013D2940A1405E
:102FCC00A340013B1A400A43002808DB1201D2B28D
:102FDC0000F1604000F5614080F8002305E000F04E
:102FEC000F001201D2B2034B1A5430BC704700BF11
:102FFC0000ED00E014ED00E0002807DB410900F0D3
:10300C001F0001238340024A42F82130704700BF61
:10301C0000E100E00138B0F1807F0AD2064B586025
:10302C00F021064A82F823100020986007221A60CB
:10303C0070470120704700BF10E000E000ED00E099
:10304C000F4B1A6842F001021A6059680D4A0A4087
:10305C005A601A6822F0847222F480321A601A685C
:10306C0022F480221A605A6822F4FE025A604FF44D
:10307C001F029A604FF00062034B9A60704700BFCA
:10308C00001002400000FFF800ED00E008B5034B13
:10309C001B780BB9FFF7B6FA08BD00BF600400201F
:1030AC0008B5FFF7AFFA08BD08B50146024B187812
:1030BC0008F069FA08BD00BF0000002008B50346FF
:1030CC000A4603490878194608F012FA08BD00BFF1
:1030DC000000002008B50146024B187808F053FA9E
:1030EC0008BD00BF0100002008B503460A4603498D
:1030FC000878194608F0FCF908BD00BF0100002053
:10310C0008B508F028FE08BD08B508F0FDFD08BD9F
:10311C0010B514461A46234608F007FA10BD00BF36
:10312C0070B588B006460D4614466846197805F009
:10313C00A2FA304629466A46234608F0F6F908B04A
:10314C0070BD00BF38B50546002404E00520FFF72C
:10315C0059FA0134A4B2AC42F8D338BD08B50146D3
:10316C00024B187808F0B7FB08BD00BFDC04002048
:10317C0008B503460A4603490878194608F060FB6F
:10318C0008BD00BFDC04002008B5FFF73BFA08BD02
:10319C0008B501464A2008F09AFC08BD08B503465C
:1031AC000A464A20194608F0C6FC08BD08B508288E
:1031BC0011D8DFE800F0050505050D0D0D0D090012
:1031CC005220FFF77BFF08BD5720FFF777FF08BDA4
:1031DC005D20FFF773FF08BDF8B505460C46174692
:1031EC005320FFF761FF00F03F065E20FFF75CFF06
:1031FC0000F03F0104F03F04082D62D8DFE805F031
:10320C00050E19242F37424D580053203146FFF735
:10321C0055FF53202146FFF751FFF8BD532046F0D0
:10322C004001FFF74BFF532044F04001FFF746FFEE
:10323C00F8BD532046F08001FFF740FF532044F0C7
:10324C008001FFF73BFFF8BD532046F0C001FFF7AC
:10325C0035FF532044F0C001FFF730FFF8BD5E206E
:10326C00FFF72CFF5E202146FFF728FFF8BD5E20FC
:10327C0041F04001FFF722FF5E2044F04001FFF7D0
:10328C001DFFF8BD5E2041F08001FFF717FF5E20A7
:10329C0044F08001FFF712FFF8BD5E2041F0C00141
:1032AC00FFF70CFF5E2044F0C001FFF707FFF8BDED
:1032BC0058202146FFF702FF592007F01F01FFF7A6
:1032CC00FDFEF8BD38B5CDB2C1F302210901D4B26F
:1032DC00C2F3022208282CD8DFE800F0050505050A
:1032EC001F1F1F1F120054201143FFF7E7FE55202C
:1032FC002946FFF7E3FE56202146FFF7DFFE38BDD7
:10330C005A201143FFF7DAFE5B202946FFF7D6FE61
:10331C005C202146FFF7D2FE38BD5F201143FFF73A
:10332C00CDFE60202946FFF7C9FE61202146FFF73C
:10333C00C5FE38BD70B506460C4614F8015BFD2081
:10334C001021FFF7BBFEFE203146FFF7B7FE044B02
:10335C001878FF212A462346FFF7DAFE70BD00BF1E
:10336C000000002070B582B0064602AC04F8012DB6
:10337C000D78FD207021FFF7A1FEFE203146FFF7EE
:10338C009DFE044B1878FF212A462346FFF7C8FE02
:10339C0002B070BD0000002038B504460D46532025
:1033AC00FFF782FEA401E4B200F03F015320214359
:1033BC00FFF784FE5E20FFF777FE00F03F015E20F2
:1033CC002143FFF77BFE5120FFF76EFE15F0080F2F
:1033DC0001D100F0F70005F00F0500F0F8015120C5
:1033EC002943FFF76BFE38BD10B504465120FFF79B
:1033FC005BFE1CB140F00801C9B201E000F0F7011E
:10340C005120FFF75BFE10BD10B504466920FFF795
:10341C004BFE00F00F0040EA04116920C9B2FFF71F
:10342C004DFE58200021FFF749FE10BD142860D82E
:10343C00DFE800F00B0F13171B1F23272B2F33373D
:10344C003B3F43474B4F53575B002C4A2C4B1A6066
:10345C0070472C4A2A4B1A6070472B4A284B1A602B
:10346C0070472A4A264B1A607047294A244B1A6027
:10347C007047284A224B1A607047274A204B1A6023
:10348C007047264A1E4B1A607047254A1C4B1A601F
:10349C007047244A1A4B1A6070471B4A184B1A6023
:1034AC007047214A164B1A607047204A144B1A6019
:1034BC0070471F4A124B1A6070471E4A104B1A6015
:1034CC0070471D4A0E4B1A6070471C4A0C4B1A6011
:1034DC0070471B4A0A4B1A6070471A4A084B1A600D
:1034EC007047194A064B1A607047184A044B1A6009
:1034FC007047164A024B1A60704700BFFC8B0108DC
:10350C00640400208C8A01086C8B0108A48B0108D0
:10351C00808A0108808B01083C8B0108988B01087C
:10352C008C8B01083C8C0108D08A0108308C010876
:10353C00DC8A0108E88A0108108B0108F08B01086D
:10354C00FC8A0108BC8B0108B08B0108508B010868
:10355C002DE9F047054688461746BA4A1278C2F359
:10356C00400602F001044BB9B74B1B78012B40F01D
:10357C00FB804FF03D0A4FF0B4096BE11A46012B6A
:10358C0009D1B14B1B78012B40F0F3804FF03D0A71
:10359C004FF0B4095EE1022B09D1AB4B1B78012B28
:1035AC0040F0EC804FF03D0A4FF0B40952E1032B90
:1035BC0009D1A54B1B78012B40F0E5804FF03D0A5B
:1035CC004FF0B40946E1102B2CD148B99E4B1B7817
:1035DC00012B40F0DD804FF03D0A4FF0B40939E18A
:1035EC00012809D1984B1B78012B40F0D6804FF065
:1035FC003D0A40F274492DE1022809D1924B1B7807
:10360C00012B40F0CF8040F25B2A4FF0B40921E14E
:10361C008D4B1B78012B40F0CA8040F25B2A40F2A4
:10362C00744917E1202B2CD148B9874B1B78012BFF
:10363C0040F0C2804FF03D0A4FF0B4090AE1012876
:10364C0009D1814B1B78012B40F0BB804FF03D0A18
:10365C004FF42679FEE0022809D17B4B1B78012B15
:10366C0040F0B48040F25B2A4FF42679F2E0764BBE
:10367C001B78012B40F0AF804FF03D0A4FF4CB6923
:10368C00E8E0402B14D148B96F4B1B78012B40F06C
:10369C00A7804FF03D0A4FF0B409DBE06A4B1B7872
:1036AC00012B40F0A2804FF03D0A40F27449D1E06A
:1036BC00502B14D148B9644B1B78012B40F09A80E5
:1036CC004FF03D0A4FF0B409C4E05F4B1B78012B5F
:1036DC0040F0958040F25B2A4FF0B409BAE0303BE1
:1036EC000F2B2AD848B9584B1B78012B40F08C80F3
:1036FC004FF03D0A4FF0B409ACE0012809D1524B10
:10370C001B78012B40F085804FF03D0A40F2B459F4
:10371C00A0E0022808D14C4B1B78012B7ED14FF432
:10372C00D37A40F2B45995E0474B1B78012B7AD1F0
:10373C0040F20F3A40F2B4598CE0602A78D140B98B
:10374C00414B1B78012B78D14FF03D0A4FF0B40957
:10375C0080E001287ED13C4B1B78012B76D140F2C6
:10376C000D3A40F2B45975E04FF0250A4FF0F409C8
:10377C0070E04FF0250A4FF0F4096BE04FF0250A8A
:10378C004FF0F40966E04FF0250A4FF0F40961E0C0
:10379C004FF0250A4FF0F4095CE04FF0250A40F297
:1037AC00763957E040F2911A4FF0F40952E040F2AA
:1037BC00911A40F276394DE04FF0250A4FF0F4099A
:1037CC0048E04FF0250A40F2362943E040F2911AC6
:1037DC0040F236293EE04FF0250A40F2B64939E076
:1037EC004FF0250A4FF0F40934E04FF0250A40F26F
:1037FC0076392FE04FF0250A4FF0F4092AE040F219
:10380C00911A4FF0F40925E04FF0250A4FF0F40916
:10381C0020E04FF0250A40F24A491BE04FF48C7A25
:10382C0040F24A4916E04FF4027A40F24A4911E05C
:10383C004FF0400A4FF0E0090CE04FF0250A4FF032
:10384C00F40907E0EF0000207407002040F2052A7D
:10385C0040F24A49D5BBBEB1002098F800100122B5
:10386C00FFF7BAFC00200146FFF7A0FC0020414600
:10387C00FFF760FD002041460722FFF773FD002093
:10388C0049465246FFF71EFD002C00F0D58004205F
:10389C0039780122FFF7A0FC04204021FFF786FCB9
:1038AC0040203946FFF746FD402039460722FFF7F6
:1038BC0059FD844B1B7803EB83039A00524414325A
:1038CC000420494692B2FFF7FDFCB5E0012D3BD137
:1038DC00BEB1012098F800100246FFF77DFC0120D4
:1038EC001021FFF763FC10204146FFF723FD102049
:1038FC0041460722FFF736FD012049465246FFF7A5
:10390C00E1FC002C00F09880052039780122FFF7AB
:10391C0063FC05205021FFF749FC50203946FFF786
:10392C0009FD502039460722FFF71CFD654B1A781C
:10393C0002EB820293009A440AF1140205204946D4
:10394C0092B2FFF7BFFC77E0022D3AD1BEB1022054
:10395C0098F800100122FFF73FFC01202021FFF70F
:10396C0025FC20204146FFF7E5FC2020414607229C
:10397C00FFF7F8FC022049465246FFF7A3FC002C47
:10398C005AD0062039780122FFF726FC0620602148
:10399C00FFF70CFC60203946FFF7CCFC6020394661
:1039AC000722FFF7DFFC474B1A7802EB82029300E9
:1039BC00534403F114020620494692B2FFF782FCED
:1039CC003AE0032D38D1BEB1032098F80010012243
:1039DC00FFF702FC03203021FFF7E8FB30204146C3
:1039EC00FFF7A8FC302041460722FFF7BBFC032061
:1039FC0049465246FFF766FCF4B10720397801229C
:103A0C00FFF7EAFB07207021FFF7D0FB7020394647
:103A1C00FFF790FC702039460722FFF7A3FC294BD7
:103A2C001A7802EB82029300534403F1140207202C
:103A3C00494692B2FFF746FC0820FFF7E5FC224B03
:103A4C001B78032B0ED1214B1B782BB92846052153
:103A5C00FFF7A2FCBDE8F08728460721FFF79CFC86
:103A6C00BDE8F08776B1194B1B782BB92846042199
:103A7C00FFF792FCBDE8F08728460221FFF78CFC8B
:103A8C00BDE8F08774B1114B1B782BB92846012186
:103A9C00FFF782FCBDE8F08728460221FFF77CFC8B
:103AAC00BDE8F087094B1B782BB928460021FFF79E
:103ABC0073FCBDE8F08728460221FFF76DFCBDE8DA
:103ACC00F08700BF69040020EF000020680400208C
:103ADC0070B586B005460E461446294B1A5C012C6F
:103AEC0003D1012814D0274B20E0022C03D102284B
:103AFC0011D0244B1AE0032C03D103280ED0214BF8
:103B0C0014E072B1012A0ED0022A0ED11E4B0DE028
:103B1C0000221C4B0AE000221B4B07E000221B4B2F
:103B2C0004E01B4B02E0174B00E0184B19490978D5
:103B3C00914208D193E803000490ADF814106C2363
:103B4C008DF8163007E093E803000490ADF81410DC
:103B5C00090C8DF816103046FFF768FC0E4B1A68EE
:103B6C0001AB1068516803C31189927A19809A705D
:103B7C00284604A901AA2346FFF7EAFC06B070BD4B
:103B8C0064070020C88B0108488B0108648B01086E
:103B9C00F48A0108F50100206404002030B587B0D8
:103BAC000D46144628B1012805D0022805D1124B28
:103BBC0004E0124B02E0124B00E0124B93E80300BE
:103BCC000490ADF814106C238DF816302846FFF7CE
:103BDC002DFC0D4B1A6801AB1068516803C3118999
:103BEC00927A19809A70002004A901AA2346FFF743
:103BFC00AFFC07B030BD00BF488B0108F48A010848
:103C0C00C88B0108648B01086404002070B548B9A6
:103C1C0001460122FFF7E0FA042000210122FFF700
:103C2C00DBFA70BD04465320FFF73EFA00F03F0666
:103C3C005E20FFF739FA00F03F05012C0AD1532022
:103C4C0046F04001FFF73AFA5E2045F04001FFF7DD
:103C5C0035FA18E0022C0AD1532046F08001FFF708
:103C6C002DFA5E2045F08001FFF728FA0BE0032CBB
:103C7C0009D1532046F0C001FFF720FA5E2045F031
:103C8C00C001FFF71BFA5120FFF70EFA00F00800F5
:103C9C00C1B2064B1B781BB95120FFF70FFA70BD50
:103CAC00512041F00201FFF709FA70BD68040020B1
:103CBC0008B50320FFF7AAFF08BD00BF10B502240A
:103CCC0004E02046FFF7A2FF0134E4B2032CF8D93C
:103CDC0010BD00BF10B5012404E02046FFF796FF8D
:103CEC000134E4B2032CF8D910BD00BF10B5002488
:103CFC0004E02046FFF78AFF0134E4B2032CF8D924
:103D0C0010BD00BF10B5C0B014468DF800008DF882
:103D1C0001100DF10200194604F0A2FC044B1878B6
:103D2C00A21CFD21D2B26B46FFF7F2F940B010BDD8
:103D3C000000002070B54500EDB23F2814D970BDCD
:103D4C00A200A318590089B2224493009BB2C1F37C
:103D5C00032040F0200001F0FE0114223344FFF751
:103D6C00D1FF0134A4B201E00E460024ABB2A34251
:103D7C00E6D870BD38B505460C46A1B101292ED147
:103D8C0040B910200021FFF799F99C200A21FFF778
:103D9C0095F924E010200121FFF790F99C200A21CD
:103DAC00FFF78CF91BE068B91020FFF77DF960F084
:103DBC007F011020C9B2FFF781F99C200021FFF789
:103DCC007DF90CE01020FFF76FF960F07E011020F8
:103DDC00C9B2FFF773F99C200021FFF76FF9064871
:103DEC0020212246FFF766F8012004492A46234683
:103DFC0003F0C6FD38BD00BF00080140108C01085F
:103E0C0008B526200121FFF7B3F908BD10B504460B
:103E1C00F520FFF7A3F9074B195D0140F520FFF7DB
:103E2C00A7F93520FFF79AF900F0DF013520FFF7ED
:103E3C009FF910BD3890010810B50446F520FFF726
:103E4C008DF9084B195D0143F520C9B2FFF790F9C4
:103E5C003520FFF783F940F020013520C9B2FFF778
:103E6C0087F910BD308D010808B50720C021FFF778
:103E7C007FF91420FFF772F900F09F011420FFF76F
:103E8C0077F913200021FFF773F926200421FFF79F
:103E9C006FF90620B221FFF76BF908BD08B524288D
:103EAC0002D1FFF7ADFF08BD252802D1FFF7DCFFDB
:103EBC0008BD262802D1FFF7D7FF08BDFFF7A0FFEA
:103ECC0008BD00BF10B5044603E06178FFF750F958
:103EDC0002342078FF28F8D13220FFF733F910BDD7
:103EEC0038B504460D4604E015F8011BFFF740F900
:103EFC0001342078FF28F7D13220FFF723F938BDA1
:103F0C0008B501464020FFF733F908BD70B50646E9
:103F1C00904B1B5C262B00F2A780DFE803F02436C5
:103F2C00141C4851A5A5635AA5A52D3FA5A5A5A56B
:103F3C00A5A5A5A5A5A5A5A5A5A5A5A5A5A56C748F
:103F4C007C848C949C000124834B1C70834804F06B
:103F5C009BFB25468AE001257F4B1D70804804F0B1
:103F6C0093FB022482E000227B4B1A707D4804F004
:103F7C008BFB0125032479E00022774B1A707A48D9
:103F8C0004F082FB02250B2470E00022724B1A70A5
:103F9C00764804F079FB0125042467E000226E4B7F
:103FAC001A70734804F070FB02250C245EE00022AA
:103FBC00694B1A706F4804F067FB0125052455E026
:103FCC000022654B1A706C4804F05EFB0125062438
:103FDC004CE00322604B1A70684804F055FB042532
:103FEC00082443E002225C4B1A70654804F04CFB39
:103FFC00032507243AE00125574B1D70614804F056
:10400C0043FB092432E00125534B1D705E4804F03C
:10401C003BFB0A242AE001254F4B1D705B4804F042
:10402C0033FB0D2422E001254B4B1D70584804F046
:10403C002BFB0E241AE00125474B1D70554804F04C
:10404C0023FB0F2412E00125434B1D70524804F052
:10405C001BFB10240AE000223F4B1A704F4804F05F
:10406C0013FB0125112401E001252C464C4804F0DA
:10407C009BFB4C4904EB440304EB830408462144AA
:10408C00FFF72EFF334B9B5D022B03D11620CE2165
:10409C00FFF76EF8444B1B78262B08D1434905EBF0
:1040AC00C5035B0008461944FFF71AFF15E0252BE2
:1040BC0008D13F49C5EBC5035B0008461944FFF71F
:1040CC000FFF0AE0242B08D13A4905EB450305EB19
:1040DC00830308461944FFF703FF334B1B782F2B40
:1040EC000AD1354804F060FB344905EB85039B008D
:1040FC0008461944FFF7F4FE2B4B1B78272B0AD1EB
:10410C002F4804F051FB2F4905EB85039B00084613
:10411C001944FFF7E5FE012D03D13046FFF776FE7B
:10412C0002E03046FFF788FE13200021FFF720F84D
:10413C001420FFF713F800F09F011420FFF718F874
:10414C000220FFF70BF800F07F010220FFF710F8B8
:10415C0070BD00BFD004002080040020CC92010868
:10416C00D4920108DC920108E4920108F092010853
:10417C00F8920108049301080C93010814930108A8
:10418C001893010820930108289301083093010823
:10419C003893010840930108489301085093010893
:1041AC0058930108C08D01080F050020788F010875
:1041BC00B09101087C8D010860930108048F0108FF
:1041CC00749301088C8C010810B5294B1B5C0D2BCA
:1041DC0008D8DFE803F00B0D0F09070707070707DF
:1041EC0007070B0D002406E0042404E0012402E080
:1041FC00022400E00324002C38D0FFF787FE1D4B6F
:10420C001B78262B08D11C4904EB84035B00084661
:10421C001944FFF765FE20E0A3F12402D2B2012A73
:10422C0006D81649084601EBC401FFF759FE14E005
:10423C002F2B08D1124904EB44039B000846194468
:10424C00FFF74EFE09E0272B07D10E4904EB440380
:10425C009B0008461944FFF743FE1420FEF77EFF2F
:10426C0040F04A011420C9B2FEF782FF204610BD6F
:10427C00D00400200F050020D08E0108F08C01081E
:10428C00EC9001083C92010810B5284B1B5C0D2BDF
:10429C0008D8DFE803F00B0D0F090707070707071E
:1042AC0007070B0D002406E0042404E0012402E0BF
:1042BC00022400E00324BCB3FFF728FE1C4B1B7840
:1042CC00262B09D11B4904EB440304EB830308465A
:1042DC001944FFF705FE23E0A3F12402D2B2012A10
:1042EC0009D8144904EB440304EB8303084619442E
:1042FC00FFF7F6FD14E02F2B08D10F4904EB8403D4
:10430C009B0008461944FFF7EBFD09E0272B07D16A
:10431C000A4904EB84039B0008461944FFF7E0FDAF
:10432C0013204021FEF724FF204610BDD0040020AE
:10433C000F050020488C0108D48F01082891010832
:10434C0070B506462F200221FEF712FF0420FEF75F
:10435C0005FF04460420FEF701FF04440420FEF789
:10436C00FDFE04440420FEF7F9FE204400F47C74A6
:10437C0065080D482946324604F086F9082005F0F8
:10438C00F801FEF7F5FE0620FEF7E8FE00F0F90056
:10439C00240A04F0020440EA0401062041F004015E
:1043AC00FEF7E6FE70BD00BFC493010808B52F20D0
:1043BC000021FEF7DDFE0420FEF7D0FE08BD00BF95
:1043CC00F8B506462F200621FEF7D2FE0420FEF794
:1043DC00C5FE0446B04240D3F8BD013FFFB20720F2
:1043EC00FEF7BCFE00F03F0504E02DB1013DEDB23F
:1043FC000134E4B2A642F8D1072045F08001FEF763
:10440C00B7FE6DB30820FEF79DFE2F200621FEF7A8
:10441C00AFFE0420FEF7A2FE0446731C984217DD83
:10442C000720FEF79BFE00F03F00841C3F2C00D9B8
:10443C003F2464F07F010720C9B2FEF799FE3F2CA0
:10444C000ED00820FEF77EFE0420FEF787FE044601
:10445C00A31B0133022B01D8F8BD1E27002FBCD1A2
:10446C00F8BD00BF10B54420FEF778FE044640F0BE
:10447C0040014420C9B2FEF77BFE442004F0BF018A
:10448C00FEF776FE10BD00BF38B58822614B1A705E
:10449C0000240AE0FE20FEF761FE282807D05D4AC2
:1044AC001378023313700134E4B2032CF2D9FF20D9
:1044BC00FEF754FE584C2070FD20FEF74FFE00F026
:1044CC000702564B1A705648217804F0DDF8002389
:1044DC00544A1360544A1360544A13602378023BC5
:1044EC00252B50D8DFE803F0134F134F4F4F4F4F8E
:1044FC004F4F4F4F4F4F4F4F4F4F4F4F4F4F4F4FC0
:10450C004F4F4F4F4F4F4F4F1318264F2D41484889
:10451C0004F04AF9474C40E00123424A1360424AF6
:10452C0013603E4B1B78012B32D125223A4B1A706B
:10453C00414C32E001233B4A13603B4A13603F4C31
:10454C002BE00123374A1360374A1360334B1B7837
:10455C00012B04D12F22304B1A70394C1DE0CBB9F2
:10456C000122324B1A60374C17E001232D4A13609D
:10457C002D4A1360294B1B78042B0DD1324804F0C3
:10458C0013F92C4C09E0314804F00EF9294C04E0E5
:10459C002F4C02E02B4C00E0264CFFF763FF20462B
:1045AC00FFF790FC204B1B6813B12A48FFF78AFCDD
:1045BC00294B03221A705A709A70DA704020042129
:1045CC00FEF7D6FD0020FFF7A1FC0122234B1A7049
:1045DC0000241BE00023224A1355224A1355224A79
:1045EC00135507251C4B1D5501200BF0B7FA1F4B1B
:1045FC001D7014221E4B1A701E4B1B78012B03D1FD
:10460C0001200146FFF7B6FB0134E4B2002CE1D0E7
:10461C0038BD00BFDC0400200F0500200005002081
:10462C00F4930108D804002084040020AC0400207A
:10463C00109401088C91010894920108688F01086C
:10464C00B88E010878920108189401082894010882
:10465C00188D0108A8920108D00400200E05002036
:10466C0004050020A40400207C0400201C00002071
:10467C00200000201401002030B404460020012149
:10468C000722034609E044FA02F50D40284349008D
:10469C00C9B2023AD2B20133DBB2032BF3D9802573
:1046AC000722002308E004FA02F1294008436D08B0
:1046BC00023AD2B20133DBB2032BF4D930BC7047CF
:1046CC006A4B1A786A4B1A706A4B1A786A4B1A70D2
:1046DC006A4B1B78172B08D10023694A13700721EA
:1046EC00684A1170624A13707047062B06D100227B
:1046FC00634B1A700822634B1A707047072B06D154
:10470C0000225F4B1A7010225E4B1A707047092BF7
:10471C0006D100225A4B1A7004225A4B1A70704759
:10472C00082B06D10022564B1A700222554B1A70D8
:10473C0070470A2B06D10022514B1A700C22514B98
:10474C001A7070470C2B06D100224D4B1A700A229E
:10475C004C4B1A7070470B2B06D10022484B1A7029
:10476C001422484B1A7070470D2B06D10022444B73
:10477C001A701222434B1A7070470F2B06D102226B
:10478C003F4B1A7000223F4B1A7070470E2B06D10C
:10479C0004223B4B1A7000223A4B1A707047112BB3
:1047AC0006D10122364B1A700022364B1A70704714
:1047BC00102B06D10022324B1A708022314B1A700A
:1047CC007047132B06D100222D4B1A7020222D4B33
:1047DC001A707047122B06D10022294B1A704022F6
:1047EC00284B1A707047142B09D10023244A1370DC
:1047FC00244A13701E4A13701F4A13707047212BE2
:10480C0006D100221E4B1A7003221E4B1A707047E1
:10481C00222B06D100221A4B1A700722194B1A7040
:10482C007047232B06D10022154B1A700722154B0B
:10483C001A707047242B06D10022114B1A700722D4
:10484C00104B1A707047252B06D102220C4B1A7094
:10485C0000220C4B1A707047262B05D10022084BF6
:10486C001A700722074B1A70704700BF0D05002005
:10487C00090500207F040020CE040020E404002061
:10488C00080500207D040020B24B1B78162B40F24B
:10489C00A483B14B1B78022B40F09F832DE9F0438E
:1048AC0083B00420FFF72CFB0120FEF74BFCB62055
:1048BC00FEF754FC0646B520FEF750FCB420FEF77C
:1048CC004DFC16F0F00F00F09C8116F0800F5DD0BF
:1048DC00A04BDB78162B59D90320FFF711FB0025D1
:1048EC008A2408E02046FEF739FC9C4B58550135CC
:1048FC00EDB20134E4B2A12CF4D9A7200021FEF7CB
:10490C0037FCA7208321FEF733FC002305E05A1C5B
:10491C009249885C9249C854D3B2042BF7D9052329
:10492C0006E09A1C8D49895C8D4AD1540133DBB267
:10493C00092BF6D98B4803F0A7FE002406E08A4821
:10494C00874B195D03F0A0FE0134E4B2052CF6D9B7
:10495C00834C8548617A03F097FEE378612B15D17F
:10496C00637A9E2B12D1814B197841F00801197092
:10497C007F4803F089FE2379382B07D16379022B0A
:10498C0004D17A4A137823F00803137016F0400F01
:10499C005DD0704B9B78162B59D90220FFF7B0FADB
:1049AC0000258A2408E02046FEF7D8FB6B4B5855AF
:1049BC000135EDB20134E4B2A12CF4D9A7200021C9
:1049CC00FEF7D6FBA7208321FEF7D2FB002305E0E0
:1049DC005A1C6249885C6749C854D3B2042BF7D976
:1049EC00052306E09A1C5D49895C624AD154013367
:1049FC00DBB2092BF6D9604803F046FE002406E032
:104A0C0059485C4B195D03F03FFE0134E4B2052CB0
:104A1C00F6D9584C5448617A03F036FEE378612B92
:104A2C0015D1637A9E2B12D1504B197841F00401A9
:104A3C0019704F4803F028FE2379382B07D163797E
:104A4C00022B04D1494A137823F00403137016F097
:104A5C00200F5DD03F4B5B78162B59D90120FFF707
:104A6C004FFA00258A2408E02046FEF777FB3B4BE3
:104A7C0058550135EDB20134E4B2A12CF4D9A7207C
:104A8C000021FEF775FBA7208321FEF771FB0023A5
:104A9C0005E05A1C3149885C3849C854D3B2042B00
:104AAC00F7D9052306E09A1C2C49895C334AD1546A
:104ABC000133DBB2092BF6D9314803F0E5FD0024B4
:104ACC0006E029482D4B195D03F0DEFD0134E4B2FC
:104ADC00052CF6D9294C2448617A03F0D5FDE378EE
:104AEC00612B15D1637A9E2B12D1204B197841F092
:104AFC00020119701E4803F0C7FD2379382B07D12A
:104B0C006379022B04D1194A137823F00203137032
:104B1C0016F0100F75D00F4B1B78162B71D9002087
:104B2C00FFF7EEF900258A2408E02046FEF716FB75
:104B3C000A4B58550135EDB20134E4B2A12CF4D92D
:104B4C00A7200021FEF714FBA7208321FEF710FB02
:104B5C0000231DE004050020A4040020B404002060
:104B6C006C040020349401083C9401084501002099
:104B7C0044940108F404002058940108880400208F
:104B8C00609401085A1CBD49885CBD49C854D3B215
:104B9C00042BF7D9052306E09A1CB849895CB84A5E
:104BAC00D1540133DBB2092BF6D9B64803F06CFDB6
:104BBC00002406E0B448B24B195D03F065FD0134E6
:104BCC00E4B2052CF6D9AE4CAF48617A03F05CFD2B
:104BDC00E378612B15D1637A9E2B12D1AB4B1978EC
:104BEC0041F001011970AA4803F04EFD2379382BCE
:104BFC0007D16379022B04D1A44A137823F0010363
:104C0C001370A44B1B68012B40F0E481A24B1C7861
:104C1C00A24B1B5D002B40F0BF80A14B1B5D083BE2
:104C2C00DBB2012B00F28D809E4B93F800909E4BD3
:104C3C0093F800809D4B1B780F2B1ED00E2B1FD092
:104C4C00102B20D0112B21D0122B22D0132B23D0A0
:104C5C00062B24D0072B25D0092B26D0082B27D0A8
:104C6C000A2B28D00C2B29D00B2B2AD00D2B2BD078
:104C7C00172B2CD0002528462DE0002502202AE0F9
:104C8C000025042027E00025012024E080250020B9
:104C9C0021E0402500201EE0202500201BE00825F7
:104CAC00002018E01025002015E00425002012E05B
:104CBC00022500200FE00C2500200CE00A25002026
:104CCC0009E01425002006E01225002003E04FF037
:104CDC00000907254846FFF7CFFC07462846FFF793
:104CEC00CBFC06464846FFF7C7FC05464046FFF797
:104CFC00C3FC80462046FFF703F95A203946FEF7DD
:104D0C0037FA59203146FEF733FA60202946FEF770
:104D1C002FFA5F204146FEF72BFA6F206121FEF738
:104D2C0027FA0A20FEF70EFA6F206021FEF720FA10
:104D3C00CDF800805E48394632462B4603F0A4FC81
:104D4C0027E02046FFF7DCF8584E59203178FEF763
:104D5C000FFA554D5A202978FEF70AFA514C5D206E
:104D6C002178FEF705FA6020524B1978FEF700FA0D
:104D7C006F204121FEF7FCF90A20FEF7E3F96F20C2
:104D8C004021FEF7F5F94C4831782A78237803F066
:104D9C007BFC00223F4B1A603F4B18783F4B1B5C4F
:104DAC00022B40F0AE80FFF7ABF86E20A521FEF78A
:104DBC00DFF96E200221FEF7DBF93C4B1B78063B3A
:104DCC00092B7BD8DFE803F0162749387A7A7A7AF0
:104DDC007A056E205021FEF7CBF96E200021FEF7EC
:104DEC00C7F96E200021FEF7C3F96E200021FEF7F3
:104DFC00BFF973E06E200821FEF7BAF96E2000218E
:104E0C00FEF7B6F96E20FF21FEF7B2F96E200021F5
:104E1C00FEF7AEF962E06E200421FEF7A9F96E20D0
:104E2C000021FEF7A5F96E20FF21FEF7A1F96E20F7
:104E3C000021FEF79DF951E06E200221FEF798F952
:104E4C006E20FF21FEF794F96E200021FEF790F9F9
:104E5C006E200021FEF78CF940E06E200121FEF758
:104E6C0087F96E20FF21FEF783F96E200021FEF7F3
:104E7C007FF96E200021FEF77BF92FE0B4040020AF
:104E8C00E8040020689401083C94010845010020C6
:104E9C0044940108E0040020440100207C0400201C
:104EAC00D00400200D0500207F040020E404002025
:104EBC00709401087E040020889401086E20002163
:104ECC00FEF756F96E200021FEF752F96E200021F4
:104EDC00FEF74EF96E200021FEF74AF96F204921AA
:104EEC00FEF746F90520FEF72DF96F204821FEF755
:104EFC003FF90022394B1A6039483A4B197803F0C4
:104F0C00C3FB394B1B78394AD35C012B5FD1FFF7BC
:104F1C00D7FB354B1878FEF7F3FF5A200021FEF72C
:104F2C0027F960200021FEF723F966200021FEF707
:104F3C001FF96C200021FEF71BF96F204521FEF7AD
:104F4C0017F96F204421FEF713F92320FDF75AFBC4
:104F5C00274F3878FFF790FB01465A20FEF708F9E7
:104F6C00244E3078FFF788FB01466020FEF700F9ED
:104F7C00214D2878FFF780FB01466620FEF7F8F8F4
:104F8C001E4C2078FFF778FB01466C20FEF7F0F8FA
:104F9C006F204521FEF7ECF86F204421FEF7E8F86E
:104FAC002320FDF72FFB00220C4B1A6014480D4BED
:104FBC001978144B1A78144B1B7802F0C5FC39780D
:104FCC0032782B7820780090104802F0BDFC00223B
:104FDC00024B1A6003B0BDE8F0837047E004002078
:104FEC009C940108E4040020440100207C0400206F
:104FFC00080500207D04002009050020CE040020B7
:10500C00A89401087F0400200D050020C09401081D
:10501C000F22074B1A700023064A1370064A1370AE
:10502C00C522064B1A700122054B1A60704700BF4F
:10503C00E40400207F0400200D0500207E040020E5
:10504C00E004002008B5444803F01EFB4020042176
:10505C00FEF78EF8A7208321FEF78AF8BE20802168
:10506C00FEF786F86F204221FEF782F8702040216F
:10507C00FEF77EF871202021FEF77AF872200021CD
:10508C00FEF776F8C0200021FEF772F8C12000214F
:10509C00FEF76EF8C2200B21FEF76AF8C3200C2134
:1050AC00FEF766F8C4200D21FEF762F8C5200E212C
:1050BC00FEF75EF8C6201921FEF75AF8C7207821B2
:1050CC00FEF756F8C8202121FEF752F8CB20072115
:1050DC00FEF74EF8CC200821FEF74AF8CD20092126
:1050EC00FEF746F8CE200A21FEF742F8CF20042125
:1050FC00FEF73EF8D0200021FEF73AF8D12000212F
:10510C00FEF736F8D2206021FEF732F8D3201021BA
:10511C00FEF72EF8D4200621FEF72AF8D520BE2162
:10512C00FEF726F8D6203921FEF722F8D7202721C2
:10513C00FEF71EF8C2200E21FEF71AF8C3200F212D
:10514C00FEF716F8C4201021FEF712F8C520112125
:10515C00FEF70EF808BD00BFD8940108F0B583B077
:10516C00002400F01DBC2046FEF7CAFE0120FDF70E
:10517C00F5FF064610F0800F22D0A54B1B5D4BB9F6
:10518C00A44B1B5DFF2B00F009840133A1490B5587
:10519C0000F004BCA04B1B78012B07D10120014669
:1051AC00FEF7E8FD32200021FDF788FFFFF76CF9D0
:1051BC00994B1B78012B72D10120FCF76FF86EE034
:1051CC002546964B1B5D083BDBB2012B03D86022B6
:1051DC00934B1A7002E06022914B1A7006F0600338
:1051EC00602B22D18A4B5B5D022B07D1894B5B5D17
:1051FC00FF2B54D00133874A535550E053B9012249
:10520C00834B5A550022834B5A558648294603F046
:10521C003BFA44E002227E4B5A5500227D4B5A55F4
:10522C008148294603F030FA39E0794B5B5D53B97C
:10523C000122774B5A550022764B5A557B4829460A
:10524C0003F022FA2BE0022B0AD10322704B5A55A1
:10525C000022704B5A557648294603F015FA1EE089
:10526C006C4A525DFF2A02D001326A494A55032B1F
:10527C0015D1684B5B5D022B11D90122644B5A5539
:10528C000022644B5A556B4B18782146FEF706FEEC
:10529C006948294603F0F8F920460AF05FFC2546D8
:1052AC005B4B1B5D012B76D10320FDF757FF00F004
:1052BC000802624B1A6000F00702584B1F5D062A69
:1052CC0007D15F4B1B6823B116F0040F43D00922A2
:1052DC0054E0042A0AD15B4B1B68002B3DD04D4B8C
:1052EC005B5D13F0020F3AD10C2247E0052A38D04F
:1052FC00022A09D1534B1B68002B3FD0454B5B5DF9
:10530C0013F0020F2FD139E042B94E4B1B68ABB3EF
:10531C00404B5B5D13F0020F27D12FE0032A2DD9F0
:10532C00484B1B681BB32F200921FDF721FF0420DC
:10533C00FDF714FFA0F14903DBB20B2B19D9A0F137
:10534C005603DBB20B2B16D9A0F17103DBB20E2B7B
:10535C0013D93A4612E0082210E00C220EE0242267
:10536C000CE00D220AE0232208E0262206E03A4651
:10537C0004E0202202E0222200E02522274B5B5D84
:10538C00934208D0254B5A552F48294603F07CF9F7
:10539C002046FEF7BBFD1E4B5B5D022B40F0FE82F0
:1053AC001C4A525D002A72D1284B5A55284B1C704E
:1053BC001A4B5B5D0C3BDBB2012B0DD80320FDF7C8
:1053CC00CDFE10F0080F07D1144A535D23F00803EB
:1053DC0053552046FEF79AFDA4F10A00C0B21D4BAE
:1053EC00595DFDF7C5FE134B1B782F2B38D1F820D8
:1053FC00194B595DFDF7BCFE184B5D5DFA20294633
:10540C00FDF7B6FEFB202946FDF7B2FE32E000BFE9
:10541C00A40400200405002014010020D004002066
:10542C00CF040020F0940108049501081C95010894
:10543C00309501080F0500204C950108D40400207C
:10544C00D8040020AC040020689501087C040020DE
:10545C0078040020A4910108A8910108AC910108DE
:10546C00F720AD4B595DFDF783FEFA20AB4B595D30
:10547C00FDF77EFEAA4B1B78AA4A11788B4200F0EE
:10548C008D82A74B1970A84803F0FEF886E2012A1A
:10549C003BD1A64B1B78232B40F280820120FDF7D9
:1054AC005DFE0646A248314603F0EEF8A14B595D6D
:1054BC00A1F10803DBB2012B03D89F4803F0E4F8F9
:1054CC006CE206F06406602E40F068820B1FDBB2C3
:1054DC00012B40F263820C2900F060820D2900F050
:1054EC005D82002900F05A82012900F05782204683
:1054FC00FEF7CAFE002800F0518202228F4B5A554B
:10550C008F48294603F0C0F848E2022A3DD1874B68
:10551C001B78232B40F242820120FDF71FFE06462A
:10552C008348314603F0B0F8824B595DA1F1080372
:10553C00DBB2012B03D8804803F0A6F82EE206F06C
:10554C001103102B03D07D4B5B5D022B0FD016F09B
:10555C00040F40F023820B1FDBB2012B07D90C295F
:10556C0005D00D2903D011B1012940F01782204636
:10557C00FEF72AFE002800F0118201226F4B5A55CB
:10558C007048294603F080F808E2032A50D1674B93
:10559C001B78232B40F202820120FDF7DFFD06462B
:1055AC006348314603F070F8624B595D8B1EDBB2D9
:1055BC00012B06D816F0040F03D1634803F064F8EE
:1055CC00ECE1012B09D816F0040F06D05B4B5B5DA8
:1055DC001BB95E4803F058F8E0E10B1FDBB2012B5E
:1055EC0006D90C2904D00D2902D009B101290AD100
:1055FC0016F0040F07D1514B5B5D012B03D15448BE
:10560C0003F042F8CAE1A1F10803DBB2012B03D885
:10561C00504803F039F8C1E116F0010F00F0BE81DB
:10562C002046FEF773FC4C48294603F02DF8B5E1F3
:10563C00062A0ED8494E06EB85039A78DA705A780A
:10564C009A7016F825205A70FEF7B0FE06F8250061
:10565C00A4E1132A23D8414F07EB8506B378F370E6
:10566C007378B37017F825307370FEF79FFE07F848
:10567C002500F3781B1A0133022B00F28F81B378CB
:10568C001B1A0133022B00F2898173781B1A013328
:10569C00022B00F283811322314B5A557EE1142ADE
:1056AC0040F0BE80FEF782FE0646244B5B5D214F28
:1056BC007A5D00922B4831462A4602F0E5FF7B5D6D
:1056CC009A1ED2B2012A03D80622274B5A5550E013
:1056DC00012B03D80522244B5A554AE01A1FD2B28B
:1056EC00012A03D80522204B5A5542E0A3F10C02A3
:1056FC00D2B2012A03D805221B4B5A5539E0082B8C
:10570C0003D10022184B5A5533E0092B2ED101221C
:10571C00154B5A552DE000BFA8910108AC9101081A
:10572C000E05002080040020849501080F05002040
:10573C009C950108D0040020AC9501087C04002045
:10574C00BC950108D0950108E49501080096010864
:10575C001C9601084096010854960108A8040020E4
:10576C0004050020689601082000002014228F4BAD
:10577C005A558E4B5A5D8E4B1A708E4B1B78012BE3
:10578C0004D14FF47A70402102F090F9874B5A5DA6
:10579C00894B5B5D9A4205D088482946884B1B781B
:1057AC0002F072FF874B5B5D93B1C6F38601072055
:1057BC0041F08001FDF7DCFC824B5B5D012B03D1DA
:1057CC00814802F0F1FFE9E0804802F0EDFFE5E0EE
:1057DC007F4B1B78243BDBB2012B0DD87D4B5B5DE3
:1057EC0013F0200F08D00321B6FBF1F161F07F011B
:1057FC000720C9B2FDF7BCFC764B5B5D082B03D1CF
:10580C00754802F0D1FFC9E0092B03D1734802F0AF
:10581C00CBFFC3E0724840F61E1102F035FFBDE02D
:10582C00152A1AD1674B5B5D33B12046FEF788FD14
:10583C000C20FEF7C5FDB1E0654B1B78243BDBB2B9
:10584C00012B00F2AB80634B5B5D13F0200F00F07B
:10585C00A5801620FEF7B4FDA0E0162A40F09E802D
:10586C00022B40F09B80574B5B5D002B3CD1594B7E
:10587C005B5D083BDBB2012B01D85A4800E05A486B
:10588C00FEF720FB534B5B5D023BDBB2012B03D8D5
:10589C00C6201921FDF76CFC40202146FDF768FC61
:1058AC00BE208021FDF764FCB620FDF757FCB52027
:1058BC00FDF754FCB420FDF751FCA7200021FDF7A7
:1058CC0057FC0120FDF73EFCA7208321FDF750FC7F
:1058DC00404B5B5D023BDBB2012B05D8434B1C708C
:1058EC004348294602F0D0FE364B5B5D012B29D193
:1058FC00FFF7A8FB3F48FEF7E5FA40202146FDF7ED
:10590C0037FC40200421FDF733FCBE208021FDF73D
:10591C002FFCB620FDF722FCB520FDF71FFCB420B0
:10592C00FDF71CFCA7202421FDF722FC0120FDF72C
:10593C0009FCA7200146FDF71BFC2F482B4B1978BF
:10594C0002F0A2FE1F4B5B5D022B27D12B48FEF70A
:10595C00B9FA40202146FDF70BFCBE208021FDF753
:10596C0007FCB620FDF7FAFBB520FDF7F7FBB420DA
:10597C00FDF7F4FBA420FDF7F1FBA220FDF7EEFBF5
:10598C00A320FDF7EBFBA7200021FDF7F1FB012085
:10599C00FDF7D8FBA7208321FDF7EAFB0134E4B225
:1059AC00002C3FF4E0AB03B0F0BD00BF20000020A2
:1059BC001C000020140100206C07002094960108A4
:1059CC00E80000207C040020D4960108E096010831
:1059DC000F050020D0040020EC9601080097010868
:1059EC0014970108388D0108A0900108440100208B
:1059FC00289701084090010834970108F891010894
:105A0C00044B1A78044B1B789A4201D10020704742
:105A1C00012070475101002048010020044B1A78E6
:105A2C00044B1B789A4201D100207047012070472B
:105A3C005001002049010020064A13780649C85C31
:105A4C000133DBB213701D2B02D90022014B1A70EB
:105A5C00704700BF480100204C050020064A13780F
:105A6C000649C85C0133DBB21370C72B02D9002284
:105A7C00014B1A70704700BF490100208C050020B3
:105A8C0000B583B002A901F8010D044801224FF6BC
:105A9C00FF73FCF7D9FB03B05DF804FB7C0300201B
:105AAC0000B583B002A901F8010D044801224FF69C
:105ABC00FF73FCF7C9FB03B05DF804FB0004002086
:105ACC0000B583B0194B1A786AB1194B1978194B78
