:020000040800F2
:100000000050002095790008BD160008BF160008B2
:10001000C1160008C3160008C5160008000000003D
:10002000000000000000000000000000C7160008EB
:10003000C916000800000000CB160008CD16000805
:10004000DD790008DD790008DD790008DD79000838
:10005000DD790008DD790008DD790008DD79000828
:10006000D5160008DD790008DD790008DD79000883
:10007000DD790008DD790008DD790008DD79000808
:10008000DD790008DD790008DD790008DD790008F8
:10009000DD790008DD790008DD790008DD790008E8
:1000A000DD790008DD790008DD790008DD790008D8
:1000B000DD790008E1160008DD790008DD79000827
:1000C000DD790008DD790008DD790008DD790008B8
:1000D000DD790008F116000801170008DD79000835
:1000E000DD790008DD790008DD79000800000000F6
:1000F0000000000000000000000000000000000000
:0C01000000000000000000005FF808F1A3
:10010C0010B5054C237833B9044B13B10448AFF345
:10011C0000800123237010BDF400002000000000BB
:10012C00A816010808B5034B1BB103490348AFF3EC
:10013C00008008BD00000000F8000020A81601088F
:10014C00002902D0B0FBF1F0704708B14FF0FF303E
:10015C0000F01EB80029F8D00246B0FBF1F000FB0D
:10016C0011217047002902D090FBF1F07047002854
:10017C00C8BF6FF00040B8BF4FF0004000F008B8A7
:10018C000029F4D0024690FBF1F000FB11217047DE
:10019C00704700BFF0B589B000250495059506950C
:1001AC0007952E4B9A6942F004029A619A6902F003
:1001BC0004020092009A9A6942F008029A619A69C4
:1001CC0002F008020192019A9A6942F010029A61B7
:1001DC009A6902F010020292029A9A6942F0200285
:1001EC009A619B6903F020030393039B1C4F01222C
:1001FC004FF48051384602F0A4FD202304930124CF
:10020C00059406940226079604A9384602F0A6FC2B
:10021C0010230493059506940DEB0301384602F068
:10022C009DFC4FF4E053049305940694079604A99F
:10023C000C4802F093FC04960594069407960A4E1B
:10024C0004A9304602F08AFC4923049305950694D0
:10025C0004A9304602F082FC09B0F0BD0010024047
:10026C0000080140000C01400010014030B587B07F
:10027C0000240294039404940594009401940E4D6C
:10028C000E4B2B6023236B60AC600923EB602C615D
:10029C008023AB61284601F0B1FC4FF480530293EC
:1002AC0002A9284601F06FFD009401946946284686
:1002BC0001F004FE07B030BD0C0300200004004028
:1002CC0008B50848084B03604FF4E1334360002342
:1002DC008360C36003610C2242618361C36101F0DE
:1002EC00ECFE08BD7C0300200038014008B508482E
:1002FC00084B03604FF41643436000238360C360D4
:10030C0003610C2242618361C36101F0D6FE08BD1A
:10031C00000400200044004000B583B000238DF899
:10032C0007300DF106010DF1070011F0A1F90E4B8C
:10033C001B78042B03D00D4A1278934208D00B4B38
:10034C001B789DF807100A4AD15403B05DF804FBE2
:10035C00084B1B789DF807008342F0D0054B1870B2
:10036C0008F07CFEEBE700BF38010020C10600203E
:10037C00300100200502002010B50138012809D8F1
:10038C0014464FF47A7392B2074801F0C5FE40B19F
:10039C00002010BD07F01EFB092303604FF0FF3057
:1003AC00F7E72046F5E700BF7C03002038B5674B24
:1003BC001870042825D8DFE800F0254E77A003003C
:1003CC00634C01222021204602F0BBFC012240217B
:1003DC00204602F0B6FC5F4D01222021284602F097
:1003EC00B0FC01221021284602F0ABFC01220821AE
:1003FC00284602F0A6FC01224FF40041204602F0F0
:10040C00A0FC38BD524C00222021204602F099FC61
:10041C0001224021204602F094FC4E4D0022202166
:10042C00284602F08EFC01221021284602F089FC9D
:10043C0001220821284602F084FC01224FF40041DD
:10044C00204602F07EFC444C207808F007FE22780F
:10045C00424B1A70D5E73E4C00222021204602F078
:10046C0070FC01224021204602F06BFC394D012228
:10047C002021284602F065FC00221021284602F0BB
:10048C0060FC01220821284602F05BFC01224FF49B
:10049C000041204602F055FC2F4C607808F0DEFD40
:1004AC0062782E4B1A70ACE7294C01222021204691
:1004BC0002F047FC00224021204602F042FC254D70
:1004CC0001222021284602F03CFC01221021284662
:1004DC0002F037FC00220821284602F032FC0122EF
:1004EC004FF40041204602F02CFC1B4CA07808F085
:1004FC00B5FDA278194B1A7083E7154C0122202107
:10050C00204602F01EFC00224021204602F019FC7D
:10051C00104D01222021284602F013FC012210214B
:10052C00284602F00EFC01220821284602F009FCA4
:10053C0000224FF40041204602F003FC064CE07808
:10054C0008F08CFDE278054B1A705AE73801002050
:10055C0000080140000C0140300100200502002081
:10056C0010B50446012809D001220821064802F0E2
:10057C00E8FB2146054806F07BFD10BD0022082152
:10058C00014802F0DEFBF4E700100140601701089F
:10059C0070B582B000244FE0664B1B78142B03D04F
:1005AC00654B01221A5553E0634B00221A554FE05C
:1005BC0020460EF0C5FC631C009340F2AA435F4A30
:1005CC005F49604807F044FA5F4BDB794BB101227D
:1005DC005E4B1A6000235E490B605E490A705E4AEE
:1005EC0013705E4B1B7814225D49CA545D49CA5482
:1005FC005D4A127802B91BB10120FFF7B1FF3BE055
:10060C000121002003F00CFBF6E7012C05D0284655
:10061C0010F03CFF524B585534E0464B1A78504B77
:10062C005A552FE0504B1B78012B72D04B4B1B783B
:10063C00002B78D00134E4B2012C78D8474B1C70D5
:10064C00012CA9D011F026F8444B1B783A4AD0540F
:10065C00424B1B78454AD15C454AD25C914201D051
:10066C004249CA54344AD25C4249C95C8A4203D0DA
:10067C004049CA54002A9BD0384B1D782E4B5B5DE9
:10068C00012BC2D0354B1B78354AD25C3549C95C3D
:10069C008A42CFD03349CA54142ACBD02A4D304E7B
:1006AC002A78315D20460EF0BFFA334B33F8143004
:1006BC00324A32F81420324931F81410314830F8EB
:1006CC001400009020460FF06BF8335D0193631C0F
:1006DC00009340F2D143194A19492B4807F0B8F955
:1006EC00EB794BB10122194B1A60002318490B60AE
:1006FC0018490A70184A13701B4B1B78002B91D1A8
:10070C00164B1B78002B8DD10021084603F088FA7C
:10071C0088E7124B1B78012B88D140214FF47A705B
:10072C0006F058FD82E70020FFF71AFF82E702B0BF
:10073C0070BD00BF200000202C01002028180108EB
:10074C00D4160108E016010844040020140100200E
:10075C00200100200800002010010020C10600200C
:10076C00C40600200C0000201E010020E006002022
:10077C009807002028010020C8000020D00000208D
:10078C00C0000020D80000200817010808B506F0AA
:10079C0011FD3F2142F2107006F01CFD08BD000057
:1007AC0038B507F095F804460146184806F060FC89
:1007BC0007F08EF8072809D107F08AF807281AD114
:1007CC00072C12D1642002F007FC38BD104D072114
:1007DC00284606F04DFC072007F0A0F807F078F843
:1007EC000146284606F044FCE6E707F0BBF809484A
:1007FC0006F03EFCE6E7084806F03AFC074806F02F
:10080C0037FC074BFF221A70DFE700BF08190108FD
:10081C001C1901082C190108681901088419010810
:10082C00BD03002010B588B0602301930290002313
:10083C0003930593054C082201A9204601F02AFADE
:10084C000821204601F01CFB08B010BDC00300209D
:10085C0038B50546002406E0295D044B185D02F00E
:10086C0079FB0134E4B2572CF6D938BD886C0108F9
:10087C0008B5034806F0FCFB0248FFF7E9FF08BD8A
:10088C0094170108E06C010808B5054806F0F0FB68
:10089C000448FFF7DDFF1021D72002F05BFB08BDF9
:1008AC00BC170108386D010808B5034806F0E0FBD9
:1008BC000248FFF7CDFF08BDE0170108906D010855
:1008CC0008B5034806F0D4FB0248FFF7C1FF08BD8A
:1008DC0004180108E86D010808B5FE4806F0C8FBCD
:1008EC000021012002F036FB0021022002F032FB35
:1008FC007521032002F02EFB1821042002F02AFBA4
:10090C008021052002F026FB2021062002F022FB8C
:10091C000821072002F01EFB4021082002F01AFBE0
:10092C000A21092002F016FB41210A2002F012FBD9
:10093C0007210B2002F00EFB00210C2002F00AFB19
:10094C0020210D2002F006FB10210E2002F002FBEC
:10095C0000210F2002F0FEFA8021102002F0FAFA9A
:10096C008221112002F0F6FA2121122002F0F2FA73
:10097C00D021132002F0EEFAE021142002F0EAFA62
:10098C007821152002F0E6FAFE21162002F0E2FA98
:10099C000021172002F0DEFAC821182002F0DAFA42
:1009AC000021192002F0D6FA23211A2002F0D2FAE3
:1009BC0000211B2002F0CEFA00211C2002F0CAFA02
:1009CC0000211D2002F0C6FA20211E2002F0C2FADE
:1009DC0032211F2002F0BEFA5A21202002F0BAFA6E
:1009EC000D21212002F0B6FA3221222002F0B2FAB7
:1009FC005A21232002F0AEFAD021242002F0AAFAC8
:100A0C002121252002F0A6FA0D21262002F0A2FABF
:100A1C00E021272002F09EFAF021282002F09AFA19
:100A2C000021292002F096FA00212A2002F092FAE5
:100A3C0001212B2002F08EFAFF212C2002F08AFAE1
:100A4C0000212D2002F086FA12212E2002F082FACB
:100A5C00D0212F2002F07EFAE021302002F07AFA29
:100A6C008021312002F076FA8021322002F072FAD5
:100A7C008021332002F06EFAA021342002F06AFAB1
:100A8C001821352002F066FA4621362002F062FA6F
:100A9C006421372002F05EFA0021382002F05AFA65
:100AAC00FF21392002F056FA03213A2002F052FAC3
:100ABC0080213B2002F04EFA80213C2002F04AFAC1
:100ACC0080213D2002F046FA80213E2002F042FABD
:100ADC0080213F2002F03EFA6021412002F03AFAD8
:100AEC005F21422002F036FA3721432002F032FA1D
:100AFC001421442002F02EFA0421452002F02AFA97
:100B0C000021462002F026FA0021472002F022FAAA
:100B1C000021482002F01EFA0021492002F01AFAA6
:100B2C0020214B2002F016FA00214C2002F012FA80
:100B3C0000214D2002F00EFA00214E2002F00AFA9C
:100B4C007F214F2002F006FA2021502002F002FAF9
:100B5C000021512002F0FEF90021522002F0FAF996
:100B6C000421532002F0F6F90021542002F0F2F98E
:100B7C00E021552002F0EEF94021562002F0EAF96E
:100B8C000421572002F0E6F90021582002F0E2F986
:100B9C000821592002F0DEF910215A2002F0DAF96E
:100BAC0000215B2002F0D6F968215C2002F0D2F91A
:100BBC0040215D2002F0CEF908215E2002F0CAF936
:100BCC0000215F2002F0C6F9E021602002F0C2F99A
:100BDC005421612002F0BEF93321622002F0BAF9EF
:100BEC000121632002F0B6F9FF21642002F0B2F972
:100BFC000121652002F0AEF9FF21662002F0AAF96E
:100C0C008921672002F0A6F9AB21682002F0A2F935
:100C1C008821692002F09EF96E216A2002F09AF96F
:100C2C006E216B2002F096F96E216C2002F092F985
:100C3C0000216D2002F08EF900216E2002F08AF95D
:100C4C0000216F2002F086F90021702002F082F959
:100C5C000021712002F07EF90021722002F07AF955
:100C6C000021732002F076F90021742002F072F951
:100C7C00FF21752002F06EF9FF21762002F06AF94F
:100C8C00FF21772002F066F9FF21782002F062F94B
:100C9C00FF21792002F05EF9FF217A2002F05AF947
:100CAC00FF217B2002F056F9FF217C2002F052F943
:100CBC00F0217D2002F04EF980217E2002F04AF9CD
:100CCC0000217F2002F046F90021802002F042F939
:100CDC0002E000BF781701083421812002F03AF9B4
:100CEC004021822002F036F90521832002F032F9EE
:100CFC005921842002F02EF9FD21852002F02AF9D9
:100D0C000421862002F026F92421872002F022F902
:100D1C009421882002F01EF95821892002F01AF93A
:100D2C0000218A2002F016F97E218B2002F012F9A4
:100D3C0003218C2002F00EF92C218D2002F00AF9EF
:100D4C008C218E2002F006F900218F2002F002F98E
:100D5C00CC21902002F0FEF84121912002F0FAF80B
:100D6C00C421922002F0F6F83121932002F0F2F81F
:100D7C008721942002F0EEF8D021952002F0EAF8B9
:100D8C00F321962002F0E6F82021972002F0E2F8F9
:100D9C001121982002F0DEF89021992002F0DAF867
:100DAC00FF219A2002F0D6F804219B2002F0D2F801
:100DBC000A219C2002F0CEF800219D2002F0CAF8F6
:100DCC0004219E2002F0C6F865219F2002F0C2F893
:100DDC002F21A02002F0BEF8D921A12002F0BAF8F0
:100DEC009821A22002F0B6F88721A32002F0B2F8D5
:100DFC00E121A42002F0AEF83821A52002F0AAF8D7
:100E0C00C221A62002F0A6F87021A72002F0A2F8B9
:100E1C000021A82002F09EF81E21A92002F09AF8C9
:100E2C002E21AA2002F096F80021AB2002F092F8B5
:100E3C008421AC2002F08EF8F321AD2002F08AF868
:100E4C006521AE2002F086F89921AF2002F082F8DD
:100E5C000021B02002F07EF80021B12002F07AF8D7
:100E6C000021B22002F076F80021B32002F072F8D3
:100E7C000021B42002F06EF80021B52002F06AF8CF
:100E8C000021B62002F066F88021B82002F062F84A
:100E9C000021B92002F05EF80121BA2002F05AF8C4
:100EAC000021BB2002F056F89021BC2002F052F831
:100EBC000121BD2002F04EF82C21BE2002F04AF890
:100ECC000021C02002F046F82021C12002F042F897
:100EDC002021C22002F03EF82021C32002F03AF873
:100EEC002021C42002F036F82021C52002F032F86F
:100EFC00FF21D02002F02EF83F21D12002F02AF859
:100F0C00C221D22002F026F83F21D32002F022F891
:100F1C000021D42002F01EF80021D52002F01AF88E
:100F2C000021D62002F016F81021D72002F012F87A
:100F3C000021D82002F00EF87721DC2002F00AF80C
:100F4C000021DD2002F006F8AF21DE2002F002F8CD
:100F5C00EF21DF2001F0FEFF0021E02001F0FAFF7D
:100F6C000021E12001F0F6FF0021E22001F0F2FF68
:100F7C001221E32001F0EEFFE221E42001F0EAFF70
:100F8C00D021E52001F0E6FF0021E62001F0E2FF90
:100F9C000021E72001F0DEFF0F21E82001F0DAFF4D
:100FAC000021E92001F0D6FF0021EA2001F0D2FF58
:100FBC000021EB2001F0CEFF8821EC2001F0CAFFCC
:100FCC000021ED2001F0C6FF0021EE2001F0C2FF50
:100FDC000021EF2001F0BEFF3021F02001F0BAFF1C
:100FEC004321F12001F0B6FF1F21F22001F0B2FFE6
:100FFC001F21F32001F0AEFF2221F42001F0AAFF03
:10100C007321F52001F0A6FF5321F62001F0A2FF79
:10101C008021F72001F09EFF0121F82001F09AFFBA
:10102C000121F92001F096FF0021FA2001F092FF36
:10103C000021FB2001F08EFF0021FC2001F08AFF33
:10104C007021FD2001F086FF4021FE2001F082FF7F
:10105C000721FF2001F07EFF08BD00BF70B590B0E6
:10106C002022002107A806F0EAFC00240194029437
:10107C000394049405940225069501260A961023E0
:10108C000B930D954FF4E0130F9306A801F04CFA57
:10109C000F2301930295039404940594314601A8FF
:1010AC0001F082FC10B070BD0268184B9A4200D05F
:1010BC007047174A13780133DBB2137015490A686D
:1010CC0001320A6014490A6801320A60632B09D99B
:1010DC00124A1368013313600D4B00221A70104B27
:1010EC0001221A600F4B1A6801321A601A680E4BF3
:1010FC009A42DDD90B4B00221A600C4B1B78012B4A
:10110C00D6D10B4A137801331370D1E70004004099
:10111C006B0100206C010020700100206401002094
:10112C00600100203C010020A08601000800002086
:10113C001001002010B504460268184B9A4204D0E6
:10114C002268174B9A4214D010BD16490A78531CCA
:10115C00DBB20B7014490878144988541D2B02D942
:10116C00104B00221A7001220F49114801F044F86B
:10117C00E6E710490A78531CDBB20B700E4908786D
:10118C000E4988541D2B02D90A4B00221A700122D9
:10119C0009490B4801F030F8D6E700BF0038014090
:1011AC0000440040590100201C0100204C05002087
:1011BC007C03002057010020180100208C05002022
:1011CC00000400207047000038B5012821D0002110
:1011DC00322001F0BFFE0024394B1C70394806F058
:1011EC00ABFC39480470012343700DF053FF2146CA
:1011FC00192001F0AFFE354B1B78012B04D00121D7
:10120C00002002F00DFD23E02146204602F008FDEF
:10121C001EE00021322001F09DFE294D01242C708E
:10122C002B4806F089FC28480470022343700DF00B
:10123C0031FF2146192001F08DFE2B78A3420ED0F0
:10124C00224B5B78012B35D00121084602F0E8FCDB
:10125C00204B00221A70204B01221A7038BD1F4BF4
:10126C001B78072B10D01E4806F0F2FB1D4B1B7889
:10127C00052B13D0062B14D0B3B1012B17D00121A1
:10128C00102001F067FEDBE7FFF7F2FA164806F0D4
:10129C00DFFB2146204602F0C3FCD1E7FFF7F4FA4E
:1012AC00CEE7FFF7E5FACBE7FFF7FEFAC8E7FFF763
:1012BC0007FBC5E70021012002F0B2FCC8E700BF24
:1012CC001E01002028170108440400202C010020D6
:1012DC003C1701081001002008000020D004002059
:1012EC00581701081C0000205017010800B583B0E6
:1012FC0061E0134600221A7007F0D6FD6AE05B4AE3
:10130C0013780133DBB21370594A127893427FD9A8
:10131C000021564B1970574B19705B78032B14D85E
:10132C00013354494B70534C63780192009340F64F
:10133C002703514A5149524806F08AFB20460DF0CA
:10134C00A9FE504B00221A7062E04A4B01215970E1
:10135C00E9E7484B5B784B4A12780192009340F6D0
:10136C002F03454A4549484806F072FB54E0454B6B
:10137C001B78092B54D90023424A1370434A13702B
:10138C0002F00BFC4CE08021322001F0E3FD4CE03C
:10139C00FFF71AFF01E005F0AFF904F099FA002805
:1013AC00F9D13B4B1B68002BF7D006F0D7F806F0B1
:1013BC00B3F803F07DF9364B1B68012BEDD1FFF729
:1013CC00E7F8FEF7A9FF334A13780133DBB2137049
:1013DC000A2B8ED80A2001F0A5FD2F4A1388013361
:1013EC009BB21380642B06D9134600221A80254A1F
:1013FC00137801331370234B1B78284A12689342DD
:10140C0013D0264A1360264B1B78012B3FF477AF81
:10141C00234B1B78012B9CD01C4B1B78012BA6D08B
:10142C00322001F08DFD0028ADD003F0D9FD102144
:10143C001C4801F07FFC1C4B1B789842ADD032202D
:10144C0001F070FD1021174801F074FC164B1B784D
:10145C009842A2D01021134801F06CFC124B18706A
:10146C00012895D00020FFF7AFFE96E7370100204A
:10147C00120000204404002048180108D41601086A
:10148C009419010810010020B81901080800002067
:10149C00240000202401002034010020040000203E
:1014AC0036010020000801401E0100202DE9F04308
:1014BC0083B000F0EBFFFFF7D1FDFFF767F9FEF704
:1014CC0069FEFEF7D3FEFEF7FBFEFEF70FFF08F0FA
:1014DC004FFF09F0F9F909F09FFB09F089FE012192
:1014EC00002002F09DFB0120FFF73AF8322001F0BA
:1014FC0019FD01225749584800F07EFE0122574938
:10150C00574800F079FE574D00224FF48051284681
:10151C0001F017FC544C00220221204601F011FC72
:10152C00642001F0FFFC01224FF48051284601F0A9
:10153C0008FC01220221204601F003FC002420E0DB
:10154C004A4B1C704A4E4B4D009440F21573324678
:10155C002946494806F07CFA002010F094F88021C6
:10156C00892008F0C1FF022008F082FF019000944E
:10157C0040F21B7332462946404806F069FA0134A2
:10158C00E4B2012CDCD93E4C002525706571012696
:10159C00A67166700223A3700327E77004232371DE
:1015AC0038490F2002F01CFBFFF7FAF802F0C8FED6
:1015BC00284601F0C5FCDFF8B890DFF8B880009041
:1015CC0040F249734A4641462F4806F041FA40F230
:1015DC004A734A4641462D4806F03AFAE771A6711D
:1015EC0025726572284601F04CFE20460DF052FD26
:1015FC00E3793BB1264B1E6026490D6026490E70DF
:10160C00264A157026485D2300F8013B20226D21E7
:10161C0006F015FA012221230AE002F17F0020498D
:10162C00C854581C6D240C540132D2B20233DBB2B4
:10163C00402BF2D91F226D211A4806F000FA002027
:10164C00FEF7B4FE184800F0CCF9184806F000FA82
:10165C00FFF74CFE1C0100207C0300201801002029
:10166C0000040020000C014000100140C1060020C5
:10167C0040180108D4160108541801087C180108F8
:10168C004404002054910108AC180108D01801083A
:10169C00140100202001002008000020100100206F
:1016AC0008020020470200200C030020F818010853
:1016BC007047FEE7FEE7FEE7FEE7704770477047AE
:1016CC0008B500F0F5FE08BD08B5042001F040FB9C
:1016DC0008BD000008B5024800F098F908BD00BF2D
:1016EC000C03002008B5024800F012FE08BD00BF34
:1016FC007C03002008B5024800F00AFE08BD00BFBC
:10170C000004002082B00E4B9A6942F001029A61EB
:10171C009A6902F001020092009ADA6942F0805252
:10172C00DA61DB6903F080530193019B054A53682E
:10173C0023F0E06343F00073536002B0704700BFC6
:10174C00001002400000014002680E4B9A4200D08B
:10175C00704700B583B003F50333DA6942F0020237
:10176C00DA61DB6903F002030193019B002211464D
:10177C001D2001F059FB1D2001F08AFB03B05DF820
:10178C0004FB00BF0004004070B588B00446002381
:10179C0004930593069307930268364B9A4205D03F
:1017AC002268354B9A4234D008B070BD03F55843CB
:1017BC009A6942F480429A619A6902F480420092DA
:1017CC00009A9A6942F004029A619B6903F004033F
:1017DC000193019B4FF4007304930223059303239D
:1017EC000793264E04A9304601F0B8F94FF48063F4
:1017FC00049300250595069504A9304601F0AEF931
:10180C002A462946252001F00FFB252001F040FB3C
:10181C00C6E703F5E633DA6942F40032DA61DA69D5
:10182C0002F400320292029A9A6942F004029A611E
:10183C009B6903F004030393039B04230493022387
:10184C000593032307930D4D04A9284601F086F94F
:10185C000823049300240594069404A9284601F057
:10186C007DF922462146262001F0DEFA262001F0E1
:10187C000FFB99E70038014000440040000801408C
:10188C0070B4036A23F001030362036A426884693B
:10189C0024F073040D6845EA040623F002048B68F7
:1018AC0023430D4DA84209D00B4DA8420DD04260E8
:1018BC0086614A684263036270BC704723F0080378
:1018CC00CC68234323F00403EEE722F440724C6906
:1018DC0014438A692243EAE7002C014030B4036ABE
:1018EC0023F480730362036A4268C46924F07304AE
:1018FC000D682C4323F400738D6843EA05230F4DC8
:10190C00A84209D00D4DA8420ED04260C4614A686D
:10191C00C263036230BC704723F40063CD6843EAB2
:10192C00052323F48063EDE722F440524D6942EA2B
:10193C0005128D6942EA0512E7E700BF002C014051
:10194C0030B4036A23F480530362036A4468C269A7
:10195C0022F4E6420D6842EA052223F400538D6816
:10196C0043EA0533074DA84206D04460C2614A6879
:10197C000264036230BC704724F480444D6944EA2D
:10198C008514F2E7002C014010B4036A046A24F0B9
:10199C0001040462846924F0F00444EA021223F086
:1019AC000A030B438261036210BC704710B4036AD4
:1019BC0023F0100303628469036A24F4704444EA3C
:1019CC00023223F0A00343EA01138261036210BCCC
:1019DC007047836823F07003194341F0070181605D
:1019EC0070470268D36843F00103D36002689368C0
:1019FC0003F00703062B03D0136843F001031360B5
:101A0C0000207047704770477047704710B5044608
:101A1C0003681A6912F0020F11D0DA6812F0020F83
:101A2C000DD06FF002021A610123037703689B69E2
:101A3C0013F0030F70D0FFF7E6FF00232377236822
:101A4C001A6912F0040F12D0DA6812F0040F0ED0DB
:101A5C006FF004021A610223237723689B6913F445
:101A6C00407F5FD02046FFF7CEFF0023237723680B
:101A7C001A6912F0080F12D0DA6812F0080F0ED0A3
:101A8C006FF008021A61042323772368DB6913F0D3
:101A9C00030F4ED02046FFF7B6FF002323772368B1
:101AAC001A6912F0100F12D0DA6812F0100F0ED063
:101ABC006FF010021A61082323772368DB6913F493
:101ACC00407F3DD02046FFF79EFF002323772368FD
:101ADC001A6912F0010F03D0DA6812F0010F36D137
:101AEC0023681A6912F0800F03D0DA6812F0800FA5
:101AFC0034D123681A6912F0400F03D0DA6812F05F
:101B0C00400F32D123681A6912F0200F03D0DA6823
:101B1C0012F0200F30D110BDFFF774FF2046FFF7F5
:101B2C0073FF8AE72046FFF76DFF2046FFF76CFF37
:101B3C009BE72046FFF766FF2046FFF765FFACE703
:101B4C002046FFF75FFF2046FFF75EFFBDE76FF013
:101B5C0001021A612046FFF7A7FAC1E76FF0800275
:101B6C001A61204600F0CEF9C3E76FF040021A610B
:101B7C002046FFF74AFFC5E76FF020021A612046A6
:101B8C0000F0BFF9C7E7000003681B4A90420AD077
:101B9C00B0F1804F07D0A2F59432904203D002F5F9
:101BAC008062904203D123F070034A681343124AB7
:101BBC0090420AD0B0F1804F07D0A2F594329042F7
:101BCC0003D002F58062904203D123F44073CA68BB
:101BDC00134323F080034A69134303608B68C36289
:101BEC000B688362044B984202D001234361704717
:101BFC000B690363F9E700BF002C0140A8B110B5D5
:101C0C00044690F83D305BB1022384F83D30211D31
:101C1C002068FFF7B9FF012384F83D30002010BD88
:101C2C0080F83C30FFF790FDEEE701207047000094
:101C3C0030B4036A23F010030362036A44688269B8
:101C4C0022F4E6420D6842EA052223F020038D6857
:101C5C0043EA05130E4DA84209D00D4DA8420ED0F3
:101C6C00446082614A688263036230BC704723F02F
:101C7C008003CD6843EA051323F04003EDE724F419
:101C8C0040644D6944EA85048D6944EA8504E7E7BC
:101C9C00002C014038B590F83C30012B66D00D4635
:101CAC000446012380F83C30022380F83D300C2A96
:101CBC001AD8DFE802F00719191920191919341963
:101CCC00191947000068FFF7DBFD2268936943F0A0
:101CDC00080393612268936923F0040393612268DB
:101CEC00936929690B439361012384F83D300020EB
:101CFC0084F83C0038BD0068FFF79AFF22689369AE
:101D0C0043F4006393612268936923F480639361C5
:101D1C0022689369296943EA01239361E4E7006827
:101D2C00FFF7DCFD2268D36943F00803D361226816
:101D3C00D36923F00403D3612268D36929690B4367
:101D4C00D361D1E70068FFF7FBFD2268D36943F448
:101D5C000063D3612268D36923F48063D361226862
:101D6C00D369296943EA0123D361BDE70220C1E7A6
:101D7C0010B4846824F47F4442EA03230B432343C6
:101D8C00836010BC704790F83C30012B66D010B5C6
:101D9C000446012380F83C30022380F83D30026871
:101DAC00936823F47F4323F0770393600B68402BF5
:101DBC004AD013D9602B3DD01ED9702B28D0B3F547
:101DCC00005F30D1CB684A6889680068FFF7D0FFA4
:101DDC002268936843F48043936024E0102B06D070
:101DEC0004D9202B03D0302B01D01CE0DBB91946D1
:101DFC002068FFF7EEFD16E0502B14D1CA68496835
:101E0C000068FFF7C1FD50212068FFF7E2FD0AE0F2
:101E1C00CB684A6889680068FFF7AAFF2268936854
:101E2C0043F077039360012384F83D30002084F85D
:101E3C003C0010BDCA6849680068FFF7B7FD602117
:101E4C002068FFF7C6FDEEE7CA6849680068FFF72F
:101E5C009BFD40212068FFF7BCFDE4E702207047A2
:101E6C0010B401F01F01012303FA01F4036A23EA01
:101E7C0004030362036A8A401343036210BC704775
:101E8C0010B5044601220068FFF7EAFF23680A4AEE
:101E9C0093420BD02268936803F00703062B03D000
:101EAC00136843F001031360002010BD5A6C42F418
:101EBC0000425A64EEE700BF002C014090F83C3021
:101ECC00012B1CD070B4012680F83C60022380F8F2
:101EDC003D3002685568936825F070050C682C43FA
:101EEC0023F080054B682B4354600268936080F8A4
:101EFC003D60002380F83C30184670BC70470220CF
:101F0C007047704770470268D36823F49073D360AE
:101F1C000268536923F001035361202380F83A309F
:101F2C00704790F83930DBB2212B2AD18368B3F596
:101F3C00805F16D0036A5A1C02621A7803685A60D2
:101F4C00C38C013B9BB2C384EBB90268D36823F00A
:101F5C008003D3600268D36843F04003D360002051
:101F6C007047036A1B880268C3F308035360036954
:101F7C001BB9036A02330362E2E7036A01330362AB
:101F8C00DEE70220704700207047000038B5044699
:101F9C000268136923F44053C1680B4313618368CF
:101FAC000269134342691A430168CB6823F4B053A6
:101FBC0023F00C031343CB600268536923F4407382
:101FCC0081690B4353610268214B9A421FD000F088
:101FDC00A5FD00EB800000EB800063689B00B0FB6C
:101FEC00F3F01C4DA5FB00325109642202FB1102D7
:101FFC0013013233A5FB03235B0903F0F00202EB60
:10200C00011203F00F03216813448B6038BD00F0FC
:10201C0095FD00EB800000EB800063689B00B0FB3B
:10202C00F3F00C4DA5FB00325109642202FB1102A6
:10203C0013013233A5FB03235B0903F0F00202EB1F
:10204C00011203F00F03216813448B60DEE700BF1D
:10205C00003801401F85EB512DE9F04105460F4634
:10206C0016469846069C2B681B6837EA03030CBF80
:10207C0001230023B3421DD1B4F1FF3FF3D02CB1A7
:10208C0000F022FAA0EB0800A042ECD92A68D36831
:10209C0023F4D073D3602A68536923F0010353618E
:1020AC00202385F8393085F83A30002385F838300C
:1020BC00032000E00020BDE8F08158B310B50446C1
:1020CC0090F839300BB3242384F839302268D36864
:1020DC0023F40053D3602046FFF758FF226813699E
:1020EC0023F4904313612268536923F02A0353614C
:1020FC002268D36843F40053D3600020E0632023AC
:10210C0084F8393084F83A3010BD80F83830FFF755
:10211C003BFBD8E7012070472DE9F04182B01E4609
:10212C0090F83930DBB2202B55D104460D46904641
:10213C00002955D0002A55D090F83830012B53D0B7
:10214C00012380F838300023C363212380F8393011
:10215C0000F0BAF90746A4F82480A4F8268010E011
:10216C0000963B46002280212046FFF775FF002891
:10217C003CD12B882268C3F3080353602369C3B98D
:10218C000235E38C9BB2B3B1E38C013B9BB2E3848D
:10219C00A368B3F5805FE3D000963B460022802114
:1021AC002046FFF759FF18BB2A7823685A6001357F
:1021BC00E7E70135E5E700963B4600224021204643
:1021CC00FFF74AFF0346A8B9202284F839200022E1
:1021DC0084F8382000E00223184602B0BDE8F081F4
:1021EC000123F9E70123F7E70223F5E70323F3E7DC
:1021FC000323F1E70323EFE790F83A30DBB2202B0F
:10220C0020D109B312B390F83830012B20D0816261
:10221C008285C2850023C363222280F83A2080F88D
:10222C0038300168CA6842F48072CA6001684A6931
:10223C0042F001024A610168CA6842F02002CA6099
:10224C0018467047022070470120704701207047E4
:10225C0002207047704708B50168CB6823F0400333
:10226C00CB60202380F83930FFF7F4FF002008BD45
:10227C0008B590F83A30DBB2222B45D18368B3F520
:10228C00805F0ED0036903BB03685A68836A591CCC
:10229C0081621A70C38D013B9BB2C385F3B10020E0
:1022AC0033E0826A036943B903685B68C3F30803CC
:1022BC001380836A02338362ECE703685B68DBB2EA
:1022CC001380836A01338362E4E703685B68826A84
:1022DC00511C816203F07F031370DBE70268D36843
:1022EC0023F02003D3600268D36823F48073D36097
:1022FC000268536923F001035361202380F83A30BC
:10230C00FEF718FF002000E0022008BD7047000017
:10231C0010B5044602681368D168526913F00F00B7
:10232C0005D113F0200F02D011F0200F53D100284B
:10233C0067D012F0010202D111F4907F61D013F03A
:10234C00010F06D011F4807F03D0E06B40F0010048
:10235C00E06313F0040F04D01AB1E06B40F00200FC
:10236C00E06313F0020F04D01AB1E06B40F00400EC
:10237C00E06313F0080F04D01AB1E26B42F00802CC
:10238C00E263E26B002A48D013F0200F02D011F068
:10239C00200F24D123685B6903F04003E26B12F039
:1023AC00080F00D13BB32046FFF7ADFD23685A69F7
:1023BC0012F0400F1BD05A6922F040025A61636B35
:1023CC008BB11A4A5A63606B00F0D0FC28B3606B77
:1023DC00436B984721E02046FFF74AFF1DE020465B
:1023EC00FFF746FFD6E72046FFF790FF15E02046A3
:1023FC00FFF78CFF11E02046FFF788FF0023E36313
:10240C000BE013F0800F02D011F0800F06D113F007
:10241C00400F02D011F0400F04D110BD2046FFF741
:10242C0080FDFAE72046FFF716FFF6E73D2400088B
:10243C0008B5406A0023C385C384FFF767FF08BD56
:10244C0010B504460E4B18784FF47A73B3FBF0F3C7
:10245C000C4A1068B0FBF3F000F028FD68B90F2CA3
:10246C0001D901200AE0002221464FF0FF3000F094
:10247C00DBFC054B1C60002000E0012010BD00BF00
:10248C0013000020180000201400002008B5074A93
:10249C00136843F010031360032000F0B3FC00201A
:1024AC00FFF7CEFFFFF72EF9002008BD00200240F9
:1024BC00034A1168034B1B780B441360704700BF31
:1024CC005C04002013000020014B1868704700BF0B
:1024DC005C04002038B50446FFF7F6FF0546B4F15E
:1024EC00FF3F02D0044B1B781C44FFF7EDFF401B51
:1024FC00A042FAD338BD00BF1300002082B0084BB5
:10250C001B68084AA2FB03235B0A00FB03F0019043
:10251C0000BF019B5A1E0192002BF9D102B07047EB
:10252C0018000020D34D6210002800F0F58170B522
:10253C0082B00446036813F0010F2CD0AB4B5B68E0
:10254C0003F00C03042B1DD0A84B5B6803F00C03A9
:10255C00082B12D06368B3F5803F41D0002B55D1C6
:10256C0003F1804303F504331A6822F480321A60B5
:10257C001A6822F480221A6037E09C4B5B6813F4D3
:10258C00803FE7D0994B1B6813F4003F03D063687E
:10259C00002B00F0C381236813F0020F76D0934B0D
:1025AC005B6813F00C0F5FD0904B5B6803F00C036F
:1025BC00082B54D02369002B00F08A808C4B01220D
:1025CC001A60FFF781FF0546884B1B6813F0020F5A
:1025DC0075D1FFF779FF401B0228F5D90320A0E144
:1025EC00824A136843F480331360636843B3FFF784
:1025FC006BFF05467D4B1B6813F4003FCBD1FFF7F7
:10260C0063FF401B6428F5D903208AE1B3F5A02FA2
:10261C0009D0764B1A6822F480321A601A6822F4B8
:10262C0080221A60E1E703F18043A3F53C331A687A
:10263C0042F480221A601A6842F480321A60D4E79D
:10264C00FFF742FF0546694B1B6813F4003FA2D00D
:10265C00FFF73AFF401B6428F5D9032061E1634B77
:10266C005B6813F4803FA5D1604B1B6813F0020F1D
:10267C0004D02369012B01D0012052E15B4A13687D
:10268C0023F0F803616943EAC1031360236813F074
:10269C00080F32D0A369002B5BD0564B01221A6075
:1026AC00FFF712FF0546514B5B6A13F0020F21D165
:1026BC00FFF70AFF401B0228F5D9032031E14B4AF2
:1026CC00136823F0F803616943EAC1031360DDE783
:1026DC00474B00221A60FFF7F7FE0546434B1B6879
:1026EC0013F0020FD2D0FFF7EFFE401B0228F5D9F2
:1026FC00032016E10120FFF701FF236813F0040FFC
:10270C0000F09880394BDB6913F0805F33D1374B85
:10271C00DA6942F08052DA61DB6903F0805301938D
:10272C00019B0125344B1B6813F4807F25D0E36893
:10273C00012B36D0002B4CD103F1804303F504332D
:10274C001A6A22F001021A621A6A22F004021A6250
:10275C002CE0284B00221A60FFF7B6FE0546234BEF
:10276C005B6A13F0020FC8D0FFF7AEFE401B0228C5
:10277C00F5D90320D5E00025D4E71F4A136843F4AC
:10278C0080731360FFF7A0FE06461B4B1B6813F407
:10279C00807FCCD1FFF798FE801B6428F5D90320ED
:1027AC00BFE0124A136A43F001031362E3687BB380
:1027BC00FFF78AFE06460D4B1B6A13F0020F38D149
:1027CC00FFF782FE801B41F288339842F3D9032035
:1027DC00A7E0052B12D0054B1A6A22F001021A62EF
:1027EC001A6A22F004021A62E0E700BF00100240ED
:1027FC000000424280044242007000404C4B1A6A76
:10280C0042F004021A621A6A42F001021A62CDE71F
:10281C00FFF75AFE0646464B1B6A13F0020F08D010
:10282C00FFF752FE801B41F288339842F3D9032004
:10283C0077E0E5B9E369002B72D03D4A526802F0AB
:10284C000C02082A56D0022B17D03A4B00221A60E1
:10285C00FFF73AFE0446364B1B6813F0007F47D057
:10286C00FFF732FE001B0228F5D9032059E0304A4D
:10287C00D36923F08053D361DCE72E4B00221A601E
:10288C00FFF722FE05462A4B1B6813F0007F06D08B
:10289C00FFF71AFE401B0228F5D9032041E0236AFA
:1028AC00B3F5803F1AD022494B6823F47413226A83
:1028BC00606A024313434B601E4B01221A60FFF700
:1028CC0003FE04461A4B1B6813F0007F0ED1FFF772
:1028DC00FBFD001B0228F5D9032022E0144A5368A3
:1028EC0023F40033A1680B435360DCE7002018E0AD
:1028FC00002016E0012B16D00D4B5B6803F48031E1
:10290C00226A914201D001200BE003F47013626A39
:10291C0093420AD0012004E001207047012000E01E
:10292C00002002B070BD0120FBE70020F9E700BFDA
:10293C00001002406000424210B487B0164C94E87C
:10294C000F000DF1180C0CE90F00238AADF80430C0
:10295C00124B5B6803F00C02082A1AD1C3F38342B2
:10296C00624412F8102C13F4803F05D10C4800FB84
:10297C0002F007B010BC7047084B5B68C3F34043D0
:10298C00634413F8143C074800FB02F0B0FBF3F06F
:10299C00EFE70448EDE700BFC01601080010024045
:1029AC0000093D0000127A00002800F0A38070B5E9
:1029BC000446524B1B6803F007038B420CD24F4A60
:1029CC00136823F007030B431360136803F007032A
:1029DC008B4201D0012070BD236813F0020F17D079
:1029EC0013F0040F04D0464A536843F4E063536079
:1029FC00236813F0080F04D0414A536843F4605322
:102A0C0053603F4A536823F0F003A06803435360BC
:102A1C000D46236813F0010F31D06368012B20D0D1
:102A2C00022B25D0364A126812F0020F64D03449BA
:102A3C004A6822F0030213434B60FFF745FD06463C
:102A4C002F4B5B6803F00C036268B3EB820F16D05C
:102A5C00FFF73AFD801B41F288339842F0D90320EE
:102A6C00B9E7274A126812F4003FE0D10120B2E71F
:102A7C00234A126812F0007FD9D10120ABE71F4B1B
:102A8C001B6803F00703AB420CD91C4A136823F0F4
:102A9C0007032B431360136803F00703AB4201D009
:102AAC00012098E7236813F0040F06D0144A5368EA
:102ABC0023F4E063E1680B435360236813F0080FC1
:102ACC0007D00F4A536823F46053216943EAC103CA
:102ADC005360FFF731FF0A4B5B68C3F30313094ADA
:102AEC00D35CD840084B1860084B1868FFF7A8FC5B
:102AFC00002070E70120704701206CE700200240A5
:102B0C0000100240DC1901081800002014000020FD
:102B1C00014B1868704700BF1800002008B5FFF77C
:102B2C00F7FF044B5B68C3F30223034AD35CD84022
:102B3C0008BD00BF00100240EC19010808B5FFF7F2
:102B4C00E7FF044B5B68C3F3C223034AD35CD84052
:102B5C0008BD00BF00100240EC190108F0B482B0AF
:102B6C0000263246A2E0002D5AD0012D00D1CE68AD
:102B7C00FF2B69D88446FF2B69D89500DCF8004000
:102B8C000F27AF4024EA070406FA05F52C43CCF8CE
:102B9C0000404C6814F0805F00F087805F4CA569A2
:102BAC0045F00105A561A46904F001040194019CA0
:102BBC009508AF1C5A4C54F8274002F00307BF008D
:102BCC004FF00F0C0CFA07FC24EA0C0C554CA042ED
:102BDC0043D004F58064A04200F0818004F5806449
:102BEC00A0427ED004F58064A04234D0042435E0A9
:102BFC004D4FBD4214D00BD94C4FBD4210D007F5F0
:102C0C008037BD420CD0A7F58017BD42B0D107E08C
:102C1C00A7F58017BD4203D007F58037BD42A7D179
:102C2C008D687DB1012D08D044610826A0E7CE68DF
:102C3C0008369DE7CE680C369AE70461082697E7BC
:102C4C00002695E7042693E700F1040C93E7A2F124
:102C5C000805AD0092E7032400E00024BC4044EAE0
:102C6C000C0402352E4F47F825404C6814F4803F75
:102C7C0039D02F4D2C681C432C604C6814F4003F49
:102C8C0037D02B4D6C681C436C604C6814F4801F5F
:102C9C0035D0274DAC681C43AC604C6814F4001F55
:102CAC0033D0234DEC682343EB6001320B6833FACD
:102CBC0002F430D00124944023409C42F5D14D685D
:102CCC00122DB7D094D8022DB1D07FF64CAF032D76
:102CDC00B6D0112D7FF44CAFCE68043648E70124F2
:102CEC00BCE70224BAE7124D2C6824EA03042C60DA
:102CFC00C3E70F4D6C6824EA03046C60C5E70C4D08
:102D0C00AC6824EA0304AC60C7E7094DEC6824EA1C
:102D1C000303EB60C9E702B0F0BC7047001002403F
:102D2C00000001400008014000002110000031109B
:102D3C00000401408368194201D100207047012032
:102D4C00704712B9090401617047016170470000B6
:102D5C0008B5054B5B69034200D108BD024B5861B5
:102D6C00FEF730FAF9E700BF0004014008B590F80F
:102D7C002130022B03D004238363012008BD026899
:102D8C00136823F00E0313600268136823F0010329
:102D9C0013600368194A934214D0143293421FD023
:102DAC00143293421ED0143293421ED014329342EA
:102DBC001ED01432934202D04FF0807203E04FF4D5
:102DCC00801200E001220E4B5A60012380F8213062
:102DDC00002380F82030436B6BB198470020CDE77F
:102DEC001022F0E74FF48072EDE74FF48052EAE7DF
:102DFC004FF48032E7E70020C0E700BF0800024034
:102E0C0000000240074AD36823F4E0631B041B0C48
:102E1C00000200F4E060184340F0BF6040F4003062
:102E2C00D060704700ED00E030B4174BDB68C3F3A3
:102E3C000223C3F10704042C28BF04241D1D062DF6
:102E4C0018D9033B4FF0FF3505FA04F421EA0401CD
:102E5C00994005FA03F322EA0303194300280BDB1C
:102E6C000901C9B200F1604000F5614080F800131F
:102E7C0030BC70470023E5E700F00F000901C9B230
:102E8C00024B1954F4E700BF00ED00E014ED00E034
:102E9C00002807DB00F01F02400901239340024A7F
:102EAC0042F82030704700BF00E100E00138B0F17B
:102EBC00807F0AD2064B5860064AF02182F8231014
:102ECC000020986007221A6070470120704700BFED
:102EDC0010E000E000ED00E00F4B1A6842F0010238
:102EEC001A6059680D4A0A405A601A6822F08472B6
:102EFC0022F480321A601A6822F480221A605A680E
:102F0C0022F4FE025A604FF41F029A60044B4FF0F9
:102F1C0000629A60704700BF001002400000FFF88A
:102F2C0000ED00E008B5034B1B7803B108BDFFF7BB
:102F3C00D1FAFBE76004002008B5FFF7CBFA08BD17
:102F4C0008B5034B1B780146184607F00EFD08BD6B
:102F5C001000002008B5044B1B780A4601461846A1
:102F6C0007F0B8FC08BD00BF1000002008B5034BEB
:102F7C001B780146184607F0F8FC08BD110000202C
:102F8C0008B5044B1B780A460146184607F0A2FC0C
:102F9C0008BD00BF1100002008B508F0CEF808BD30
:102FAC0008B508F0A3F808BD10B51C461346224618
:102FBC0007F0ADFC10BD70B588B004460D46164642
:102FCC001978684604F03BFD33466A46294620468C
:102FDC0007F09DFC08B070BD38B50546002404E030
:102FEC000520FFF777FA0134A4B2AC42F8D338BD10
:102FFC0008B50146024B187807F05FFE08BD00BF0C
:10300C00DC04002008B50A460146024B187807F08C
:10301C0009FE08BDDC04002008B5FFF75BFA08BD0B
:10302C0008B501464A2007F044FF08BD08B50A461A
:10303C0001464A2007F071FF08BD08B5082809D8D9
:10304C00DFE800F0050505050D0D0D0D09005220FA
:10305C00FFF780FF08BD5720FFF77CFFFAE75D20E4
:10306C00FFF778FFF6E7F8B505460C4617465320F0
:10307C00FFF766FF00F03F065E20FFF761FF00F0F0
:10308C003F0104F03F04082D0ED8DFE805F0050ED3
:10309C0019242F37424D580031465320FFF75AFF61
:1030AC0021465320FFF756FFF8BD46F04001532050
:1030BC00FFF750FF44F040015320FFF74BFFF3E7BD
:1030CC0046F080015320FFF745FF44F08001532068
:1030DC00FFF740FFE8E746F0C0015320FFF73AFF47
:1030EC0044F0C0015320FFF735FFDDE75E20FFF70A
:1030FC0031FF21465E20FFF72DFFD5E741F040015F
:10310C005E20FFF727FF44F040015E20FFF722FF0F
:10311C00CAE741F080015E20FFF71CFF44F08001FC
:10312C005E20FFF717FFBFE741F0C0015E20FFF7FD
:10313C0011FF44F0C0015E20FFF70CFFB4E72146FD
:10314C005820FFF707FF07F01F015920FFF702FF78
:10315C00AAE738B5CDB2090A090101F07001D4B261
:10316C00C2F30222082812D8DFE800F00505050595
:10317C001F1F1F1F120011435420FFF7EBFE29469F
:10318C005520FFF7E7FE21465620FFF7E3FE38BD3A
:10319C0011435A20FFF7DEFE29465B20FFF7DAFECB
:1031AC0021465C20FFF7D6FEF1E711435F20FFF7C5
:1031BC00D1FE29466020FFF7CDFE21466120FFF7A6
:1031CC00C9FEE4E770B506460C4614F8015B102105
:1031DC00FD20FFF7BFFE3146FE20FFF7BBFE044B80
:1031EC00187823462A46FF21FFF7DEFE70BD00BF8C
:1031FC001000002070B582B0064602AC04F8012D18
:10320C000D787021FD20FFF7A5FE3146FE20FFF75B
:10321C00A1FE044B187823462A46FF21FFF7CBFE6C
:10322C0002B070BD1000002038B504460D46532086
:10323C00FFF786FE00F03F01A40164B22143C9B23E
:10324C005320FFF787FE5E20FFF77AFE00F03F0069
:10325C0044EA0001C9B25E20FFF77CFE5120FFF763
:10326C006FFE15F0080F01D100F0F70020F00701F8
:10327C0049B205F00F052943C9B25120FFF76AFE88
:10328C0038BD10B504465120FFF75AFE2CB900F09A
:10329C00F7015120FFF75EFE10BD40F00801C9B2E6
:1032AC00F7E710B504466920FFF74AFE00F00F015E
:1032BC0041EA0411C9B26920FFF74CFE00215820E5
:1032CC00FFF748FE10BD0000142860D8DFE800F0BE
:1032DC000B0F13171B1F23272B2F33373B3F434752
:1032EC004B4F53575B002C4B2C4A1A6070472A4BA0
:1032FC002B4A1A607047284B2A4A1A607047264B93
:10330C00294A1A607047244B284A1A607047224B8E
:10331C00274A1A607047204B264A1A6070471E4B8A
:10332C00254A1A6070471C4B244A1A6070471A4B86
:10333C00234A1A607047184B1A4A1A607047164B8A
:10334C00204A1A607047144B1F4A1A607047124B80
:10335C001E4A1A607047104B1D4A1A6070470E4B7C
:10336C001C4A1A6070470C4B1B4A1A6070470A4B78
:10337C001A4A1A607047084B194A1A607047064B74
:10338C00184A1A607047044B174A1A607047024B70
:10339C00154A1A60704700BF64040020A87C01081D
:1033AC00C07C0108B47C0108CC7C0108847C010839
:1033BC00307C0108907C01089C7C0108D87C0108B9
:1033CC00007C0108187C01083C7C0108247C010865
:1033DC00547C01080C7C0108487C01086C7C0108B9
:1033EC00607C0108787C0108047D01082DE9F04718
:1033FC00054688461746B64A1278C2F3400602F0D4
:10340C00010453BBB34B1B78012B21D04FF0250982
:10341C004FF0F40A002D40F0BB81002E40F07E816D
:10342C00002C40F094810820FFF73BFFA84B1B7841
:10343C00032B00F06F82002E00F07F82A64B1B78CE
:10344C00002B40F0758204212846FFF7EDFE68E260
:10345C004FF03D094FF0B40ADCE71A46012B1ED0A1
:10346C00022B2AD0032B36D0102B42D0202B7DD010
:10347C00402B00F0B880502B00F0D280303B0F2B4B
:10348C0000F21E81002840F0ED80924B1B78012B3E
:10349C0000F0E3804FF025094FF0F40ABAE78D4BAA
:1034AC001B78012B04D04FF025094FF0F40AB1E73B
:1034BC004FF03D094FF0B40AACE7864B1B78012B5B
:1034CC0004D04FF025094FF0F40AA3E74FF03D0963
:1034DC004FF0B40A9EE77F4B1B78012B04D04FF0C2
:1034EC0025094FF0F40A95E74FF03D094FF0B40A67
:1034FC0090E768B9774B1B78012B04D04FF0250966
:10350C004FF0F40A86E74FF03D094FF0B40A81E71B
:10351C0001280AD0022816D06E4B1B78012B20D024
:10352C0040F2911940F2763A74E76A4B1B78012B02
:10353C0004D04FF0250940F2763A6BE74FF03D0985
:10354C0040F2744A66E7634B1B78012B04D040F2BF
:10355C0091194FF0F40A5DE740F25B294FF0B40A81
:10356C0058E740F25B2940F2744A53E768B9594B6B
:10357C001B78012B04D04FF025094FF0F40A49E7D2
:10358C004FF03D094FF0B40A44E701280AD0022855
:10359C0016D0504B1B78012B20D04FF0250940F250
:1035AC00B64A37E74B4B1B78012B04D04FF025095B
:1035BC0040F2362A2EE74FF03D094FF4267A29E7E0
:1035CC00444B1B78012B04D040F2911940F2362A5F
:1035DC0020E740F25B294FF4267A1BE74FF03D09B8
:1035EC004FF4CB6A16E768B93A4B1B78012B04D021
:1035FC004FF025094FF0F40A0CE74FF03D094FF05E
:10360C00B40A07E7334B1B78012B04D04FF0250984
:10361C0040F2763AFEE64FF03D0940F2744AF9E684
:10362C0068B92C4B1B78012B04D04FF025094FF0B7
:10363C00F40AEFE64FF03D094FF0B40AEAE6254BE9
:10364C001B78012B04D040F291194FF0F40AE1E6FB
:10365C0040F25B294FF0B40ADCE64FF03D094FF025
:10366C00B40AD7E601280AD0022816D0194B1B78C9
:10367C00012B20D04FF4027940F24A4ACAE6154B8E
:10368C001B78012B04D04FF0250940F24A4AC1E6C1
:10369C004FF03D0940F2B45ABCE60E4B1B78012B9F
:1036AC0004D04FF48C7940F24A4AB3E64FF4D37904
:1036BC0040F2B45AAEE640F20F3940F2B45AA9E6E1
:1036CC00602A0BD04FF040094FF0E00AA2E600BF91
:1036DC00EF000020CC0600206804002068B9A44B41
:1036EC001B78012B04D04FF025094FF0F40A91E61A
:1036FC004FF03D094FF0B40A8CE601287FF48AAEF6
:10370C009B4B1B78012B04D040F2052940F24A4A0E
:10371C0080E640F20D3940F2B45A7BE6012298F86B
:10372C0000100020FFF79FFC00210846FFF785FCE6
:10373C0041460020FFF746FD072241460020FFF7D7
:10374C0059FD4A4651460020FFF703FD68E6012269
:10375C0039780420FFF787FC40210420FFF76DFC2B
:10376C0039464020FFF72EFD072239464020FFF74F
:10377C0041FD804B1A7802EB8202930009EB0302A5
:10378C0092B2143292B251460420FFF7E2FC4AE6A0
:10379C00012D2AD0022D66D0032D7FF444AE002ECD
:1037AC0040F09F80002C3FF43EAE01223978072078
:1037BC00FFF759FC70210720FFF73FFC39467020BA
:1037CC00FFF700FD072239467020FFF713FD694B08
:1037DC001B7803EB83039A004A4492B2143292B2E0
:1037EC0051460720FFF7B5FC1DE61EBB002C3FF42D
:1037FC001AAE012239780520FFF735FC502105203F
:10380C00FFF71BFC39465020FFF7DCFC072239463A
:10381C005020FFF7EFFC574B1A7802EB8202930013
:10382C0009EB030292B2143292B251460520FFF713
:10383C0090FCF8E5012298F800101046FFF713FCF5
:10384C0010210120FFF7F9FB41461020FFF7BAFCCD
:10385C00072241461020FFF7CDFC4A465146012075
:10386C00FFF777FCC2E71EBB002C3FF4DCAD012256
:10387C0039780620FFF7F7FB60210620FFF7DDFB08
:10388C0039466020FFF79EFC072239466020FFF77F
:10389C00B1FC384B1A7802EB8202930009EB03025D
:1038AC0092B2143292B251460620FFF752FCBAE59E
:1038BC00012298F800100220FFF7D5FB20210120EF
:1038CC00FFF7BBFB41462020FFF77CFC072241465B
:1038DC002020FFF78FFC4A4651460220FFF739FCA7
:1038EC00C2E7012298F800100320FFF7BCFB30213F
:1038FC000320FFF7A2FB41463020FFF763FC0722B1
:10390C0041463020FFF776FC4A4651460320FFF72C
:10391C0020FC47E7184B1B782BB905212846FFF7ED
:10392C0083FCBDE8F08707212846FFF77DFCF8E70C
:10393C0002212846FFF778FCF3E764B10E4B1B78A5
:10394C0023B901212846FFF76FFCEAE7022128463C
:10395C00FFF76AFCE5E7084B1B7823B102212846E8
:10396C00FFF762FCDDE700212846FFF75DFCD8E796
:10397C00CC060020690400206804002070B586B0D5
:10398C0005460E4614462A4B1A5C012C0BD0022C11
:10399C002DD0032C2FD0002A3CD0012A3CD0022A57
:1039AC002DD0244B02E001282BD0234B234909783E
:1039BC00914233D093E803000490ADF81410090C35
:1039CC008DF816103046FFF77FFC1D4B1A6801ABC3
:1039DC001068516803C31189927A19809A70234632
:1039EC0001AA04A92846FFF701FD06B070BD022804
:1039FC000AD0114BDAE7032809D00F4BD6E7114B4D
:103A0C00D4E700220C4BD1E700220E4BCEE700226C
:103A1C00084BCBE70C4BC9E7074BC7E793E8030010
:103A2C000490ADF814106C238DF81630CAE700BF63
:103A3C00BC060020FC7C0108EC7C0108F501002090
:103A4C0064040020F47C0108E47C010830B587B0E4
:103A5C000D46144638B1012823D0022801D0124B50
:103A6C0002E0124B00E0124B93E803000490ADF817
:103A7C0014106C238DF816302846FFF725FC0D4BDF
:103A8C001A6801AB1068516803C31189927A1980C6
:103A9C009A70234601AA04A90020FFF7A7FC07B0DF
:103AAC0030BD054BE0E700BFFC7C0108F47C01084D
:103ABC00E47C010864040020EC7C010870B5F0B1D2
:103ACC0004465320FFF73CFA00F03F065E20FFF758
:103ADC0037FA00F03F05012C1CD0022C25D0032C0A
:103AEC002ED05120FFF72CFA00F008011C4B1B784C
:103AFC008BB341F002015120FFF72CFA09E00122AF
:103B0C0000210846FFF7AFFA012200210420FFF73D
:103B1C00AAFA70BD46F040015320FFF71BFA45F09E
:103B2C0040015E20FFF716FADBE746F080015320D8
:103B3C00FFF710FA45F080015E20FFF70BFAD0E793
:103B4C0046F0C0015320FFF705FA45F0C0015E2096
:103B5C00FFF700FAC5E75120FFF7FCF9D9E700BFE2
:103B6C006804002008B50320FFF7A8FF08BD10B5B6
:103B7C00022404E02046FFF7A1FF0134E4B2032C39
:103B8C00F8D910BD10B5012404E02046FFF796FFCC
:103B9C000134E4B2032CF8D910BD10B5002404E0B4
:103BAC002046FFF78BFF0134E4B2032CF8D910BD8B
:103BBC0010B5C0B014468DF800008DF801101946F0
:103BCC000DF1020003F030FF044B1878A21C6B4679
:103BDC00D2B2FD21FFF7E8F940B010BD1000002073
:103BEC003F2805D870B54500EDB20E46002413E011
:103BFC007047A200A318590089B2224493009BB2CB
:103C0C00C1F303203344142201F0FE0140F02000E4
:103C1C00FFF7CEFF0134A4B2ABB2A342E9D870BD1A
:103C2C0038B505460C46E1B1012928D160B9102000
:103C3C00FFF786F900F07F011020FFF78BF90A21BE
:103C4C009C20FFF787F91AE01020FFF779F900F0B4
:103C5C00FE011020FFF77EF90A219C20FFF77AF96C
:103C6C000DE0C0B11020FFF76BF960F07E01C9B216
:103C7C001020FFF76FF900219C20FFF76BF922460B
:103C8C0020210C48FFF75DF823462A460A490120FB
:103C9C0003F00AFA38BD1020FFF752F960F07F01EB
:103CAC00C9B21020FFF756F900219C20FFF752F9FA
:103CBC00E5E700BF00080140107D010808B50121AF
:103CCC002620FFF79FF908BD10B50446F520FFF735
:103CDC008FF9074B195D0140F520FFF793F935205B
:103CEC00FFF786F900F0DF013520FFF78BF910BDE7
:103CFC005481010810B50446F520FFF779F9084BFB
:103D0C00195D0143C9B2F520FFF77CF93520FFF7A7
:103D1C006FF940F02001C9B23520FFF773F910BDDF
:103D2C005C81010808B5C0210720FFF76BF914204E
:103D3C00FFF75EF900F09F011420FFF763F90021F3
:103D4C001320FFF75FF904212620FFF75BF9B2215E
:103D5C000620FFF757F908BD08B5242806D02528FA
:103D6C0007D0262808D0FFF7A9FF08BDFFF7A6FF4C
:103D7C00FBE7FFF7D7FFF8E7FFF7D4FFF5E710B540
:103D8C00044603E06178FFF73DF902342078FF2800
:103D9C00F8D13220FFF720F910BD38B504460D4696
:103DAC0004E015F8011BFFF72DF901342078FF28EA
:103DBC00F7D13220FFF710F938BD08B50146402085
:103DCC00FFF720F908BD000070B50646964B1B5C4A
:103DDC00262B00F2F380DFE813F07000820027003E
:103DEC00680094009D00F100F100AF00A600F10006
:103DFC00F10079008B00F100F100F100F100F1000D
:103E0C00F100F100F100F100F100F100F100F1001E
:103E1C00F100F100F100F100F100B800C000C800A1
:103E2C00D000D800E000E8000124804B1C708048D2
:103E3C0003F00EFE25467F4803F07EFE7E4804EB21
:103E4C00440399000144FFF7A8FF7C4B1B78262BF9
:103E5C0000F0B780252B00F0BC80242B00F0C18033
:103E6C00764B1B782F2B00F0C580744B1B78272BBF
:103E7C0000F0CB80012D00F0D3803046FFF73AFFE5
:103E8C0000211320FFF7BEF81420FFF7B1F800F063
:103E9C009F011420FFF7B6F80220FFF7A9F800F0F5
:103EAC007F010220FFF7AEF870BD01255F4B1D703E
:103EBC00634803F0CDFD0224BDE75C4B00221A7071
:103ECC00604803F0C5FD01250324B4E7574B0022DD
:103EDC001A705D4803F0BCFD02250B24ABE7534B75
:103EEC0000221A70594803F0B3FD01250424A2E7FF
:103EFC004E4B00221A70564803F0AAFD02250C24E2
:103F0C0099E74A4B00221A70524803F0A1FD012593
:103F1C00052490E7454B00221A704F4803F098FD9A
:103F2C000125062487E7414B03221A704B4803F006
:103F3C008FFD042508247EE73C4B02221A7048486A
:103F4C0003F086FD0325072475E70125374B1D700B
:103F5C00444803F07DFD09246DE70125334B1D70AA
:103F6C00414803F075FD0A2465E701252F4B1D70B0
:103F7C003E4803F06DFD0D245DE701252B4B1D70B4
:103F8C003B4803F065FD0E2455E70125274B1D70BA
:103F9C00384803F05DFD0F244DE70125234B1D70C0
:103FAC00354803F055FD102445E7204B00221A70CC
:103FBC00324803F04DFD012511243CE701252C4628
:103FCC0039E72F4805EBC50359000144FFF7E5FE1F
:103FDC0046E72C48C5EBC50359000144FFF7DDFE4D
:103FEC003EE7294805EB450105EB81010144FFF74C
:103FFC00D4FE35E7254803F09FFD254805EB8503E6
:10400C0099000144FFF7C9FE2FE7224803F094FD05
:10401C00214805EB850399000144FFF7BEFE29E713
:10402C003046FFF751FE2BE7D0040020800400201F
:10403C0064810108F0810108248201080F05002029
:10404C006C810108748101087C8101088881010858
:10405C00908101089C810108A4810108AC810108B0
:10406C00B0810108B8810108C0810108C88101082C
:10407C00D0810108D8810108E0810108E88101089C
:10408C001C880108C886010844870108F8810108CA
:10409C00288601080C820108C084010810B5274B42
:1040AC001B5C0D2B47D8DFE803F00D070B094646C8
:1040BC004646464646460D07022404E0042402E028
:1040CC00032400E00124FFF77FFE1D4B1B78262BF9
:1040DC0013D0A3F12402D2B2012A16D92F2B1AD055
:1040EC00272B20D01420FEF783FF40F04001C9B2EB
:1040FC001420FEF787FF204610BD124804EB840302
:10410C0059000144FFF749FEECE70F4800EBC401EE
:10411C00FFF743FEE6E70D4804EB44039900014426
:10412C00FFF73BFEDEE70A4804EB44039900014429
:10413C00FFF733FED6E70024DDE700BFD0040020F4
:10414C000F050020A4870108A086010888850108B6
:10415C002084010810B5264B1B5C0D2B46D8DFE8DC
:10416C0003F00D070B0945454545454545450D07EC
:10417C00022404E0042402E0032400E00124FFF7FD
:10418C0023FE1C4B1B78262B0ED0A3F12402D2B29B
:10419C00012A12D92F2B19D0272B1FD040211320E5
:1041AC00FEF730FF204610BD134804EB440104EB2E
:1041BC0081010144FFF7F1FDF0E70F4804EB4401E6
:1041CC0004EB81010144FFF7E8FDE7E70B4804EB42
:1041DC00840399000144FFF7E0FDDFE7084804EB96
:1041EC00840399000144FFF7D8FDD7E70024D9E7F1
:1041FC00D00400200F050020D8870108C4850108D1
:10420C005C84010838B5054602212F20FEF7FAFE22
:10421C000420FEF7EDFE04460420FEF7E9FE0444FC
:10422C000420FEF7E5FE04440420FEF7E1FE0444FE
:10423C00640804F4FC742A4621460B4803F008FC7D
:10424C0004F0F8010820FEF7DDFE0620FEF7D0FE94
:10425C0000F0F900E10901F00201014341F0040111
:10426C000620FEF7CFFE38BD2C81010808B50021D1
:10427C002F20FEF7C7FE0420FEF7BAFE08BDF8B5E6
:10428C00064606212F20FEF7BDFE0420FEF7B0FEE9
:10429C00B04243D204461E2717E045F080010720A8
:1042AC00FEF7B0FED5B30820FEF796FE06212F20B0
:1042BC00FEF7A8FE0420FEF79BFE0446731C9842F2
:1042CC0014DCA31B0133022B28D93FB3013FFFB2EF
:1042DC000720FEF78DFE00F03F05B442DDD0002D27
:1042EC00DBD0013DEDB20134E4B2F6E70720FEF776
:1042FC007FFE00F03F00841C3F2C00D93F2444F08B
:10430C0080010720FEF77EFE3F2C07D00820FEF729
:10431C0063FE0420FEF76CFE0446D2E7F8BD10B530
:10432C004420FEF765FE044640F04001C9B244202B
:10433C00FEF768FE04F0BF014420FEF763FE10BDDB
:10434C0010B55A4B88221A700024032C0DD8FE206D
:10435C00FEF74EFE282808D0544A13780133DBB2FE
:10436C00013313700134E4B2EFE7FF20FEF740FE97
:10437C004F4C2070FD20FEF73BFE00F007024D4B2A
:10438C001A7021784C4803F063FB00234B4A1360EE
:10439C004B4A13604B4A13602378023B252B6CD895
:1043AC00DFE803F0136B136B6B6B6B6B6B6B6B6BF3
:1043BC006B6B6B6B6B6B6B6B6B6B6B6B6B6B6B6B41
:1043CC006B6B6B6B1330406B475B3F4803F0B4FB7C
:1043DC003E4CFFF7A4FF2046FFF7D1FC384B1B687F
:1043EC00002B51D13A4B03221A705A709A70DA7022
:1043FC000020FFF7E9FC374B01221A700023002B39
:10440C0046D010BD01232D4A13602D4A1360294B51
:10441C001B78012B01D0304CDBE7254B25221A7081
:10442C002E4CD6E70123254A1360254A13602C4CE9
:10443C00CFE70123214A1360214A13601D4B1B78DF
:10444C00012B05D0F3B91F4B01221A60254CC0E794
:10445C00174B2F221A70244CBBE70123174A136009
:10446C00174A1360134B1B78042B01D0174CB0E781
:10447C001E4803F061FB154CABE71D4803F05CFBD9
:10448C00124CA6E7174CA4E71A48FFF778FCA9E7EB
:10449C0000221949CA541949CA541949CA540C4A18
:1044AC000721D1540133DBB2A9E700BFDC040020A3
:1044BC000F05002000050020EC800108D804002026
:1044CC0084040020AC040020088101080884010841
:1044DC00D00400200E050020088301088C860108FA
:1044EC00348701088887010870850108108101084C
:1044FC00208101081087010804050020A404002075
:10450C007C04002030B4044600200125072102461B
:10451C000BE044FA01F32B405BB20343D8B26D00BD
:10452C00EDB20239C9B20132D2B2032AF1D98025D7
:10453C00072100220AE004FA01F32B405BB203438B
:10454C00D8B26D080239C9B20132D2B2032AF2D9FB
:10455C0030BC70474F4B1A784F4B1A704F4B1A7830
:10456C004F4B1A704F4B1B78172B1ED0062B25D098
:10457C00072B2AD0092B2FD0082B34D00A2B39D05B
:10458C000C2B3ED00B2B43D00D2B48D00F2B4DD0EA
:10459C000E2B52D0112B57D0102B5CD0132B61D07B
:1045AC00122B66D0142B6BD0704700233E4A13702D
:1045BC003E4A07211170384A137070473A4B00225B
:1045CC001A703A4B08221A707047374B00221A7037
:1045DC00364B10221A707047334B00221A70334B33
:1045EC0004221A707047304B00221A702F4B022293
:1045FC001A7070472C4B00221A702C4B0C221A701C
:10460C007047294B00221A70284B0A221A707047E7
:10461C00254B00221A70254B14221A707047224B1E
:10462C0000221A70214B12221A7070471E4B022264
:10463C001A701E4B00221A7070471B4B04221A7002
:10464C001A4B00221A707047174B00221A70174B26
:10465C0020221A707047144B00221A70134B402200
:10466C001A707047104B00221A70104B80221A706F
:10467C0070470D4B01221A700C4B00221A707047B8
:10468C000023094A1370094A1370034A1370044A31
:10469C00137089E70D050020090500207F04002018
:1046AC00CE040020E4040020080500207D04002036
:1046BC00B54B1B78162B40F2D5832DE9F04182B017
:1046CC00B24B1E78022E02D002B0BDE8F08104205D
:1046DC00FFF773FB0120FEF77FFCB620FEF788FC8A
:1046EC000746B520FEF784FCB420FEF781FC17F0DA
:1046FC00F00F1AD017F0800F5FD117F0400F04D0D5
:10470C00A14B9B78162B00F2BB8017F0200F04D026
:10471C009D4B5B78162B00F2128117F0100F04D012
:10472C00994B1B78162B00F28D81994B1B68012B32
:10473C00CAD1984B1C78984B1D5D002D40F01B8204
:10474C00964B1B5D083BDBB2012B00F24D82944B68
:10475C001F78944B93F80080934B1B780F2B00F031
:10476C00D1810E2B00F0CD81102B00F01582112B76
:10477C0000F01482122B00F01482132B00F0148220
:10478C00062B00F01482072B00F01482092B00F08A
:10479C001482082B00F014820A2B00F015820C2BCB
:1047AC0000F015820B2B00F015820D2B00F01582FA
:1047BC00172B00F015822E46A4E1734BDB78162BD9
:1047CC009BD90320FFF7F9FA00258A2408E020463C
:1047DC00FEF70EFC754B58550135EDB20134E4B2C1
:1047EC00A12CF4D90021A720FEF70CFC8321A720D3
:1047FC00FEF708FC002305E05A1C6C49885C6C49E8
:10480C00C854D3B2042BF7D9052306E09A1C674988
:10481C00895C674AD1540133DBB2092BF6D9654860
:10482C0003F016F9002406E0614B195D624803F0B1
:10483C000FF90134E4B2052CF6D95D4C617A5E486F
:10484C0003F006F9E378612B7FF457AF637A9E2B64
:10485C007FF453AF594B197841F00801197058483F
:10486C0003F0F6F82379382B7FF447AF6379022BEA
:10487C007FF443AF514A137823F0080313703CE7DD
:10488C000220FFF79AFA00258A2408E02046FEF75A
:10489C00AFFB464B58550135EDB20134E4B2A12CB7
:1048AC00F4D90021A720FEF7ADFB8321A720FEF74A
:1048BC00A9FB002305E05A1C3C49885C4149C854BB
:1048CC00D3B2042BF7D9052306E09A1C3749895C2F
:1048DC003C4AD1540133DBB2092BF6D93A4803F0E8
:1048EC00B7F8002406E0374B195D334803F0B0F8F5
:1048FC000134E4B2052CF6D9324C617A2E4803F01F
:10490C00A7F8E378612B7FF400AF637A9E2B7FF4DA
:10491C00FCAE2A4B197841F004011970284803F0B9
:10492C0097F82379382B7FF4F0AE6379022B7FF460
:10493C00ECAE224A137823F004031370E5E6012051
:10494C00FFF73BFA00258A2408E02046FEF750FBCF
:10495C00164B58550135EDB20134E4B2A12CF4D903
:10496C000021A720FEF74EFB8321A720FEF74AFB70
:10497C00002305E05A1C0D49885C1449C854D3B275
:10498C00042BF7D905232AE004050020A4040020F9
:10499C00E0040020540100207C040020D0040020FE
:1049AC000D0500207F040020E4040020B404002046
:1049BC006C0400203C800108448001085501002053
:1049CC004C800108F4040020608001088804002059
:1049DC009A1CB749895CB74AD1540133DBB2092B15
:1049EC00F6D9B54803F034F8002406E0B14B195D54
:1049FC00B24803F02DF80134E4B2052CF6D9AD4CD5
:104A0C00617AAE4803F024F8E378612B7FF485AE2D
:104A1C00637A9E2B7FF481AEA94B197841F0020189
:104A2C001970A84803F014F82379382B7FF475AE6D
:104A3C006379022B7FF471AEA14A137823F0020341
:104A4C0013706AE60020FFF7B8F900258A2408E005
:104A5C002046FEF7CDFA964B58550135EDB2013490
:104A6C00E4B2A12CF4D90021A720FEF7CBFA8321C4
:104A7C00A720FEF7C7FA002305E05A1C8C49885C76
:104A8C009149C854D3B2042BF7D9052306E09A1CDC
:104A9C008749895C8C4AD1540133DBB2092BF6D996
:104AAC008A4802F0D5FF002406E0874B195D834845
:104ABC0002F0CEFF0134E4B2052CF6D9824C617AB7
:104ACC007E4802F0C5FFE378612B7FF42EAE637A4B
:104ADC009E2B7FF42AAE7A4B197841F001011970A4
:104AEC00784802F0B5FF2379382B7FF41EAE63793A
:104AFC00022B7FF41AAE724A137823F00103137061
:104B0C0013E604263046FFF7FDFC06462846FFF761
:104B1C00F9FC05463846FFF7F5FC07464046FFF71B
:104B2C00F1FC80462046FFF748F931465A20FEF743
:104B3C0069FA29465920FEF765FA39466020FEF7D6
:104B4C0061FA41465F20FEF75DFA61216F20FEF7A6
:104B5C0059FA0A20FEF740FA60216F20FEF752FA4C
:104B6C00CDF800803B462A463146594802F070FF8A
:104B7C00584B00221A60584B1878584B1B5C022B70
:104B8C005BD0554B1B78554AD35C012B00F0098147
:104B9C00504B00221A6097E50126B3E72E4680257C
:104BAC00B0E72E464025ADE72E462025AAE72E4637
:104BBC000825A7E72E461025A4E72E460425A1E7D5
:104BCC0033462E461D469DE72E460C259AE72E466B
:104BDC000A2597E72E46142594E72E46122591E7D1
:104BEC002F462E4607258DE72046FFF7E6F83C4C6E
:104BFC0021785920FEF706FA3A4D29785A20FEF70B
:104C0C0001FA394E31785D20FEF7FCF9374B1978F3
:104C1C006020FEF7F7F941216F20FEF7F3F90A2027
:104C2C00FEF7DAF940216F20FEF7ECF933782A7899
:104C3C0021782F4802F00CFF9AE7FFF7BEF8A52168
:104C4C006E20FEF7DFF902216E20FEF7DBF9244B14
:104C5C001B78063B092B00F29380DFE803F04D5ED6
:104C6C00806F91919191910550216E20FEF7CAF9B8
:104C7C0000216E20FEF7C6F900216E20FEF7C2F966
:104C8C0000216E20FEF7BEF949216F20FEF7BAF91C
:104C9C000520FEF7A1F948216F20FEF7B3F90D4B63
:104CAC0000221A600E4B1978124802F0D1FE68E708
:104CBC00B4040020880400206880010844800108A6
:104CCC00550100204C800108E80400207080010888
:104CDC0078800108E0040020540100207C040020AE
:104CEC00E40400207F0400200D0500207E04002039
:104CFC0090800108A480010808216E20FEF782F93B
:104D0C0000216E20FEF77EF9FF216E20FEF77AF966
:104D1C0000216E20FEF776F9B6E704216E20FEF72F
:104D2C0071F900216E20FEF76DF9FF216E20FEF760
:104D3C0069F900216E20FEF765F9A5E702216E20C6
:104D4C00FEF760F9FF216E20FEF75CF900216E2062
:104D5C00FEF758F900216E20FEF754F994E7012173
:104D6C006E20FEF74FF9FF216E20FEF74BF9002164
:104D7C006E20FEF747F900216E20FEF743F983E71A
:104D8C0000216E20FEF73EF900216E20FEF73AF965
:104D9C0000216E20FEF736F900216E20FEF732F965
:104DAC0072E7FFF7D7FB304B1878FFF706F80021B6
:104DBC005A20FEF727F900216020FEF723F9002185
:104DCC006620FEF71FF900216C20FEF71BF9452128
:104DDC006F20FEF717F90520FEF7FEF844216F202F
:104DEC00FEF710F9214D2878FFF78CFB01465A206D
:104DFC00FEF708F91E4E3078FFF784FB0146602061
:104E0C00FEF700F91B4F3878FFF77CFB0146662054
:104E1C00FEF7F8F8184C2078FFF774FB01466C206D
:104E2C00FEF7F0F845216F20FEF7ECF80520FEF7B1
:104E3C00D3F844216F20FEF7E5F8104B00221A60DE
:104E4C000F4B1B780F4A12780F4909780F4802F064
:104E5C00FFFD3B7832782978207800900C4802F0DE
:104E6C00F7FD95E6704700BF5401002008050020AF
:104E7C007D04002009050020CE040020E004002061
:104E8C000D0500207F040020E4040020B080010800
:104E9C00C4800108074B0F221A700023064A1370B6
:104EAC00064A1370064BC5221A70064B01221A6073
:104EBC00704700BFE40400207F0400200D05002093
:104ECC007E040020E004002008B5444802F0C0FD38
:104EDC0004214020FEF796F88321A720FEF792F8D4
:104EEC008021BE20FEF78EF842216F20FEF78AF853
:104EFC0040217020FEF786F820217120FEF782F801
:104F0C0000217220FEF77EF80021C020FEF77AF80F
:104F1C000021C120FEF776F80B21C220FEF772F8B3
:104F2C000C21C320FEF76EF80D21C420FEF76AF8A1
:104F3C000E21C520FEF766F81921C620FEF762F88F
:104F4C007821C720FEF75EF82121C820FEF75AF819
:104F5C000721CB20FEF756F80821CC20FEF752F89B
:104F6C000921CD20FEF74EF80A21CE20FEF74AF893
:104F7C000421CF20FEF746F80021D020FEF742F89E
:104F8C000021D120FEF73EF86021D220FEF73AF83E
:104F9C001021D320FEF736F80621D420FEF732F884
:104FAC00BE21D520FEF72EF83921D620FEF72AF89F
:104FBC002721D720FEF726F80E21C220FEF722F873
:104FCC000F21C320FEF71EF81021C420FEF71AF89B
:104FDC001121C520FEF716F808BD00BFD4800108CA
:104FEC00F0B583B000240CB103B0F0BD2046FEF741
:104FFC00E4FE0120FDF7FCFF064610F0800F35D1D2
:10500C002546984B1B5D083BDBB2012B6BD9964BAD
:10501C0060221A70944B1B78B34368D0934B5B5D42
:10502C00002B00F08780022B00F08F80904A525D9D
:10503C00FF2A02D001328E494A55032B41D18C4BA9
:10504C005B5D022B3DD9894B01225A55884B0022BE
:10505C005A552146874B1878FEF77EFE294686481E
:10506C0002F0F6FC204609F06BFF2AE07F4B1B5D3B
:10507C003BB97F4B1B5DFF2B2DD001337C490B556E
:10508C0029E00023794A1355794A13550725754BA6
:10509C001D552146774B1878FEF75EFE2146774862
:1050AC0002F0D6FC012009F04BFF754B1D70754BBF
:1050BC001B78012B12D0744B00221A70734B0122F7
:1050CC001A702546694B1B5D012B53D0674B5B5DFA
:1050DC00022B00F0EF800134E4B284E70121084692
:1050EC00FEF79EFDE7E7604B60221A7092E75F4B7C
:1050FC005B5D022B0BD093B95C4B01225A555C4B78
:10510C0000225A552946624802F0A2FCD9E7584BB6
:10511C005B5DFF2BD5D00133554A5355D1E7534B2B
:10512C0002225A55524B00225A552946594802F030
:10513C008FFCC6E74D4B01225A554D4B00225A5558
:10514C002946554802F084FCBBE7544B53F82530F4
:10515C00632B04D80133514A42F82530B1E7434B55
:10516C0003225A55424B00225A5529464C4802F00C
:10517C006FFCA6E70320FDF73BFF00F00802494B4C
:10518C001A6000F00702374B1F5D062A11D0042A63
:10519C0018D0052A4FD0022A1ED03ABB424B1B68AE
:1051AC00002B49D0324B5B5D13F0020F44D026220A
:1051BC0042E03E4B1B68002BE9D016F0040F34D0B4
:1051CC00092239E0384B1B688BB3294B5B5D13F01C
:1051DC00020F2ED10C222FE0334B1B6863B3244BF0
:1051EC005B5D13F0020F27D0232225E0032A23D97D
:1051FC002D4B1B680BB93A461EE009212F20FDF7F9
:10520C0001FF0420FDF7F4FEA0F14903DBB20B2BE8
:10521C0021D9A0F15603DBB20B2B1ED9A0F17103DF
:10522C00DBB20E2B1BD93A4606E0082204E00C2216
:10523C0002E0242200E00D220A4B5B5D93423FF416
:10524C0045AF084B5A552946194802F001FC204637
:10525C00FEF7BAFD3AE72022EEE72222ECE7252200
:10526C00EAE700BFD0040020CF040020A4040020F3
:10527C00040500200F0500203C7E0108C87D0108B4
:10528C001C0000201E01002010010020080000203E
:10529C00E07D0108F47D01080C7E0108440100202A
:1052AC00207E0108D4040020AC040020D804002087
:1052BC00587E0108C14B5B5D002B4BD1C04B0022CB
:1052CC005A55C04B1C70C04B5B5D0C3BDBB2012BC9
:1052DC0021D9A4F10A00BD4B595DC0B2FDF792FE75
:1052EC00BB4B1B782F2B25D0BA4B595DF720FDF704
:1052FC0089FEB94B595DFA20FDF784FEB74B1B783C
:10530C00B74A11788B423FF4E6AEB44B1970B548EE
:10531C0002F09EFBDFE60320FDF76AFE10F0080F9B
:10532C00D7D1A94A535D23F0080353552046FEF705
:10533C004BFDCEE7A74B595DF820FDF763FEA64B5E
:10534C005D5D2946FA20FDF75DFE2946FB20FDF741
:10535C0059FED3E7012B7ED0022B00F0B880032B33
:10536C0000F0F380062B40F26781132B40F273811F
:10537C00142B00F09481152B00F02682162B7FF451
:10538C00AAAE8F4B5B5D9BBB8F4B5B5D083BDBB26F
:10539C00012B40F234829448FEF7F1FC8A4B5B5DA2
:1053AC00023BDBB2012B40F22C8221464020FDF760
:1053BC0029FE8021BE20FDF725FEB620FDF718FE44
:1053CC00B520FDF715FEB420FDF712FE0021A72035
:1053DC00FDF718FE0120FDF7FFFD8321A720FDF747
:1053EC0011FE794B5B5D023BDBB2012B40F20E826E
:1053FC00734B5B5D012B00F01082714B5B5D022BDC
:10540C007FF469AE7948FEF7BAFC21464020FDF7DF
:10541C00F9FD8021BE20FDF7F5FDB620FDF7E8FD76
:10542C00B520FDF7E5FDB420FDF7E2FDA420FDF766
:10543C00DFFDA220FDF7DCFDA320FDF7D9FD002147
:10544C00A720FDF7DFFD0120FDF7C6FD8321A72076
:10545C00FDF7D8FD3FE65E4B1B78232B7FF63BAE6A
:10546C000120FDF7C5FD06460146614802F0F0FA41
:10547C00554B595DA1F10803DBB2012B23D906F082
:10548C006406602E7FF427AE0B1FDBB2012B7FF678
:10549C0022AE0C293FF41FAE0D293FF41CAE00299F
:1054AC003FF419AE01293FF416AE2046FEF752FE2A
:1054BC0000283FF410AE424B02225A5529464D4863
:1054CC0002F0C6FA07E64C4802F0C2FA03E6404B7B
:1054DC001B78232B7FF6FFAD0120FDF789FD0646D7
:1054EC000146434802F0B4FA374B595DA1F1080369
:1054FC00DBB2012B25D906F01103102B03D0304B56
:10550C005B5D022B0FD016F0040F7FF4E4AD0B1F84
:10551C00DBB2012B07D90C2905D00D2903D011B111
:10552C0001297FF4D8AD2046FEF7B8FD00283FF4E2
:10553C00D2AD234B01225A552946304802F088FA45
:10554C00C9E52D4802F084FAC5E5214B1B78232BC5
:10555C007FF6C1AD0120FDF74BFD06460146244800
:10556C0002F076FA184B595D8B1EDBB2012B49D930
:10557C00012B4ED90B1FDBB2012B06D90C2904D001
:10558C000D2902D009B1012906D116F0040F03D15F
:10559C000B4B5B5D012B47D0A1F10803DBB2012B58
:1055AC0046D916F0010F3FF496AD2046FEF70CFCE1
:1055BC002946134802F04CFA8DE500BF0405002083
:1055CC007C04002078040020D004002048810108CD
:1055DC000F0500204C810108508101080E050020A8
:1055EC0080040020747E010824850108C48301080E
:1055FC008C7E0108AC7E01089C7E0108C07E0108EF
:10560C00447F010816F0040FB2D1974802F020FA3B
:10561C0061E516F0040FADD0944B5B5D002BA9D166
:10562C00934802F015FA56E5924802F011FA52E549
:10563C00914802F00DFA4EE5904E06EB85039A78F0
:10564C00DA705A789A7016F825205A70FEF70EFE0A
:10565C0006F825003FE5894F07EB8506B378F37014
:10566C007378B37017F825307370FEF7FFFD07F8E9
:10567C002500F3781B1A0133022B3FF62CADB378BF
:10568C001B1A0133022B3FF626AD73781B1A01331C
:10569C00022B3FF620AD7A4B13225A551BE5FEF731
:1056AC00E5FD0646714B5B5D764F7A5D00922A46AE
:1056BC000146754802F0CCF97B5D9A1ED2B2012AE4
:1056CC0012D9012B3CD91A1FD2B2012A3CD9A3F111
:1056DC000C02D2B2012A3BD9082B3DD0092B3FD169
:1056EC006A4B01225A5502E0684B06225A55674B09
:1056FC005A5D674B1A70674B1B78012B34D0634B88
:10570C005A5D654B5B5D9A4205D0644B1B7829460C
:10571C00634802F09DF9554B5B5D5BBB614B1B789D
:10572C00243BDBB2012B38D9564B5B5D082B43D0A5
:10573C00092B45D040F604115B4802F089F9CAE404
:10574C00524B05225A55D2E7504B05225A55CEE7FB
:10575C004E4B05225A55CAE74C4B00225A55C6E708
:10576C004A4B14225A55C2E740214FF47A7001F08B
:10577C0031FDC4E7B10861F07F01C9B20720FDF724
:10578C0041FC3A4B5B5D012B03D0484802F0D4F945
:10579C00A1E4474802F0D0F99DE43A4B5B5D13F06D
:1057AC00200FC1D00321B6FBF1F161F07F01C9B22A
:1057BC000720FDF727FCB7E73E4802F0BDF98AE465
:1057CC003D4802F0B9F986E4284B5B5D83B9354B53
:1057DC001B78243BDBB2012B3FF67DAC294B5B5D88
:1057EC0013F0200F3FF477AC1620FEF748FD72E45F
:1057FC002046FEF707FD0C20FEF741FD6BE42F4819
:10580C00CAE51921C620FDF7FDFBCEE52C4B1C701B
:10581C0029462C4802F01CF9EAE5FFF755FB2A480B
:10582C00FEF7ADFA21464020FDF7ECFB8021BE20AF
:10583C00FDF7E8FBB620FDF7DBFBB520FDF7D8FB49
:10584C00B420FDF7D5FB2421A720FDF7DBFB0120BD
:10585C00FDF7C2FBA7210846FDF7D4FB184B1978BE
:10586C001A4802F0F5F8C8E5D47E01087C04002043
:10587C00F07E01080C7F0108307F0108A80400208D
:10588C0004050020D0040020587F010820000020CF
:10589C001C0000201E010020C4060020E80000208F
:1058AC00847F01080F05002004800108D07F0108C7
:1058BC00C47F0108DC7F0108F07F010880830108A8
:1058CC00540100201880010820830108248001085D
:1058DC00044B1A78044B1B789A4201D00120704774
:1058EC0000207047590100205A010020044B1A78FF
:1058FC00044B1B789A4201D001207047002070475E
:10590C005701002058010020064A13780649C85C4C
:10591C000133DBB213701D2B02D9134600221A700F
:10592C00704700BF5A0100204C050020064A13782E
:10593C000649C85C0133DBB213701D2B02D9134628
:10594C0000221A70704700BF580100208C050020FF
:10595C0000B583B002A901F8010D4FF6FF730122C7
:10596C000248FCF7D9FB03B05DF804FB7C03002074
:10597C0000B583B002A901F8010D4FF6FF730122A7
:10598C000248FCF7C9FB03B05DF804FB00040020DF
:10599C0000B583B0194B1A786AB9194B1A78D2B979
:1059AC00184B1A7812BB184B1A78184B19781848E0
:1059BC0001F05EFB0CE0124B1B781449097812487D
:1059CC00007801900F4800780090124801F050FBCD
:1059DC0003B05DF804FB0B4B1B780C4909780A48A3
:1059EC00007800900C4801F043FBF1E7064B1B7864
:1059FC0006490978094801F03BFBE9E75F01002003
:105A0C0068010020690100206A01002028000020A4
:105A1C00148F0108C08E0108E08E0108FC8E01086D
:105A2C0008B5FFF795FF08BD0246A0F13003D8B2C8
:105A3C00092812D9A2F16103DBB2052B08D9A2F116
:105A4C004103DBB2052B07D8A2F13700C0B2704777
:105A5C00A2F15700C0B270470020704738B5054618
:105A6C00002404E02401FFF7DFFF0444013528780B
:105A7C0008B12028F6D1E0B238BDA0F16103DBB249
:105A8C00192B01D82038C0B27047F8B505460E4620
:105A9C00287858B10135FFF7F0FF0446771C3078B1
:105AAC00FFF7EBFF201A01D13E46F1E7F8BD08B530
:105ABC00FFF76EFF08BD000038B5214C204601F001
:105ACC00D7FA204801F0D4FA204601F0D1FA1E484A
