:020000040800F2
:1000000000500020E5840008C1160008C31600084F
:10001000C5160008C7160008C91600080000000031
:10002000000000000000000000000000CB160008E7
:10003000CD16000800000000CF160008D1160008F9
:100040002D8500082D8500082D8500082D850008C8
:100050002D8500082D8500082D8500082D850008B8
:10006000D91600082D8500082D8500082D8500086B
:100070002D8500082D8500082D8500082D85000898
:100080002D8500082D8500082D8500082D85000888
:100090002D8500082D8500082D8500082D85000878
:1000A0002D8500082D8500082D8500082D85000868
:1000B0002D850008E51600082D8500082D8500080F
:1000C0002D8500082D8500082D8500082D85000848
:1000D0002D850008F5160008051700082D85000875
:1000E0002D8500082D8500082D85000800000000E2
:1000F0000000000000000000000000000000000000
:0C01000000000000000000005FF808F1A3
:10010C0010B5054C237833B9044B13B10448AFF345
:10011C0000800123237010BDF400002000000000BB
:10012C00F821010808B5034B1BB103490348AFF391
:10013C00008008BD00000000F8000020F821010834
:10014C00002902D0B0FBF1F0704708B14FF0FF303E
:10015C0000F01EB80029F8D00246B0FBF1F000FB0D
:10016C0011217047002902D090FBF1F07047002854
:10017C00C8BF6FF00040B8BF4FF0004000F008B8A7
:10018C000029F4D0024690FBF1F000FB11217047DE
:10019C00704700BFF0B589B000250495059506950C
:1001AC0007952E4B9A6942F004029A619A6902F003
:1001BC0004020092009A9A6942F008029A619A69C4
:1001CC0002F008020192019A9A6942F010029A61B7
:1001DC009A6902F010020292029A9A6942F0200285
:1001EC009A619B6903F020030393039B1C4F01222C
:1001FC004FF48051384602F0A6FD202304930124CD
:10020C00059406940226079604A9384602F0A8FC29
:10021C0010230493059506940DEB0301384602F068
:10022C009FFC4FF4E053049305940694079604A99D
:10023C000C4802F095FC04960594069407960A4E19
:10024C0004A9304602F08CFC4923049305950694CE
:10025C0004A9304602F084FC09B0F0BD0010024045
:10026C0000080140000C01400010014030B587B07F
:10027C0000240294039404940594009401940E4D6C
:10028C000E4B2B6023236B60AC600923EB602C615D
:10029C008023AB61284601F0B3FC4FF480530293EA
:1002AC0002A9284601F071FD009401946946284684
:1002BC0001F006FE07B030BD000300200004004032
:1002CC0008B50848084B03604FF4E1334360002342
:1002DC008360C36003610C2242618361C36101F0DE
:1002EC00EEFE08BD700300200038014008B5084838
:1002FC00084B03604FF41643436000238360C360D4
:10030C0003610C2242618361C36101F0D8FE08BD18
:10031C00F40300200044004000B583B000238DF8A6
:10032C0007300DF106010DF1070011F049FF0E4BDE
:10033C001B78042B03D00D4A1278934208D00B4B38
:10034C001B789DF807100A4AD15403B05DF804FBE2
:10035C00084B1B789DF807008342F0D0054B1870B2
:10036C0009F024FCEBE700BF380100205D070020FA
:10037C0030010020F901002010B50138012809D8FE
:10038C0014464FF47A7392B2074801F0C7FE40B19D
:10039C00002010BD08F0C6F8092303604FF0FF30B1
:1003AC00F7E72046F5E700BF7003002038B55B4B3C
:1003BC001870042820D8DFE800F02044688C030073
:1003CC00574D01224021284602F0BDFC554C01221C
:1003DC002021204602F0B7FC01221021204602F019
:1003EC00B2FC01220821204602F0ADFC01224FF4A0
:1003FC000041284602F0A7FC38BD494D012240219E
:10040C00284602F0A0FC474C00222021204602F096
:10041C009AFC01221021204602F095FC01220821B1
:10042C00204602F090FC01224FF40041284602F0D5
:10043C008AFC3D4C207809F0B9FB22783B4B1A70B2
:10044C00DAE7374D01224021284602F07CFC354C7E
:10045C0001222021204602F076FC002210212046A9
:10046C0002F071FC01220821204602F06CFC0122F2
:10047C004FF40041284602F066FC2B4C607809F0E2
:10048C0095FB6278294B1A70B6E7254D0022402166
:10049C00284602F058FC234C01222021204602F071
:1004AC0052FC01221021204602F04DFC00220821B2
:1004BC00204602F048FC01224FF40041284602F08D
:1004CC0042FC194CA07809F071FBA278174B1A70FA
:1004DC0092E7134D00224021284602F034FC114CC7
:1004EC0001222021204602F02EFC01221021204660
:1004FC0002F029FC01220821204602F024FC0022F3
:10050C004FF40041284602F01EFC074CE07809F03D
:10051C004DFBE278054B1A706EE700BF38010020E6
:10052C0000080140000C014030010020F9010020BE
:10053C0010B50446012809D001220821064802F012
:10054C0002FC2146054807F08BF910BD002208215A
:10055C00014802F0F8FBF4E700100140B02201085A
:10056C0030B583B0002458E06E4B1B78142B03D0AD
:10057C006D4B01221A555CE06B4B00221A5558E06A
:10058C0020460FF085FA631C00934FF49663674A7C
:10059C006749684808F004F8674BDB794BB10122D6
:1005AC00664B1A60002366490B6066490A70664AFE
:1005BC001370664B1B7814226549CA546549CA549A
:1005CC00654A127802B91BB10120FFF7B1FF44E074
:1005DC000121002003F026FBF6E7012C05D028466C
:1005EC0011F0FCFC5A4B58553DE04E4B1A78584BC9
:1005FC005A5538E0554B1B78012B4CD10121192051
:10060C0002F0AAFC47E0544B1B78012B79D04F4BDE
:10061C001B78002B7FD00134E4B2012C7FD84B4BDC
:10062C001C70012CA0D011F0DDFD484B1B783E4A0C
:10063C00D054464B1B78494AD15C494AD25C914212
:10064C0001D04649CA54384AD25C4649C95C8A42F0
:10065C0003D04449CA54002A92D03C4B1D78324BEB
:10066C005B5D012BB9D0394B1B78394AD25C3949C7
:10067C00C95C8A42CFD03749CA54142ACBD02546FC
:10068C002D4B1A78324B195D20460FF075F8324B12
:10069C001B78012BAED0344B33F81530334A32F87B
:1006AC001520334931F81510324830F815000090F8
:1006BC0020460FF01DFE264B5B5D01930135009526
:1006CC0040F2DD43194A1A492B4807F069FF1A4BCF
:1006DC00DB794BB10122194B1A60002318490B60CE
:1006EC0018490A70184A13701B4B1B78002B8AD1BF
:1006FC00164B1B78002B86D10021084603F092FA8A
:10070C0081E7124B1B78012B81D140214FF47A7079
:10071C0007F058F97BE70020FFF70AFF7BE703B0EF
:10072C0030BD00BF200000202C01002078230108E0
:10073C002422010830220108380400201401002072
:10074C002001002008000020110100205D0700207E
:10075C00600700200C0000201E0100207C070020F8
:10076C003408002028010020C8000020D000002000
:10077C00C0000020D80000205822010808B507F05E
:10078C0011F908BD38B507F04BFE044601461A486E
:10079C0007F066F807F044FE41F2030398420BD1D0
:1007AC0007F03EFE41F2030398421BD19C4213D149
:1007BC00642002F013FC38BD104D1946284607F092
:1007CC004FF841F2030007F051FE07F029FE0146F5
:1007DC00284607F045F8E3E707F06CFE084807F0F9
:1007EC003FF8E5E7074807F03BF8074807F038F80B
:1007FC00064BFF221A70DEE7582401086C2401080E
:10080C007C240108B8240108D4240108B103002079
:10081C0010B588B0602301930290002303930593D5
:10082C00054C082201A9204601F036FA0821204681
:10083C0001F028FB08B010BDB403002038B5054604
:10084C00002406E0295D044B185D02F085FB0134A1
:10085C00E4B2572CF6D938BDD877010808B503484F
:10086C0006F0FEFF0248FFF7E9FF08BDE42201088D
:10087C003078010808B5054806F0F2FF0448FFF788
:10088C00DDFF1021D72002F067FB08BD0C23010807
:10089C008878010808B5034806F0E2FF0248FFF724
:1008AC00CDFF08BD30230108E078010808B50348E6
:1008BC0006F0D6FF0248FFF7C1FF08BD542301081C
:1008CC003879010808B5FE4806F0CAFF002101205E
:1008DC0002F042FB0021022002F03EFB75210320B6
:1008EC0002F03AFB1821042002F036FB802105208F
:1008FC0002F032FB2021062002F02EFB08210720FB
:10090C0002F02AFB4021082002F026FB0A210920D4
:10091C0002F022FB41210A2002F01EFB07210B20D2
:10092C0002F01AFB00210C2002F016FB20210D20F6
:10093C0002F012FB10210E2002F00EFB00210F2002
:10094C0002F00AFB8021102002F006FB822111200C
:10095C0002F002FB2121122002F0FEFAD02113201A
:10096C0002F0FAFAE021142002F0F6FA78211520B0
:10097C0002F0F2FAFE21162002F0EEFA0021172006
:10098C0002F0EAFAC821182002F0E6FA0021192038
:10099C0002F0E2FA23211A2002F0DEFA00211B20D9
:1009AC0002F0DAFA00211C2002F0D6FA00211D20F8
:1009BC0002F0D2FA20211E2002F0CEFA32211F20A2
:1009CC0002F0CAFA5A21202002F0C6FA0D21212089
:1009DC0002F0C2FA3221222002F0BEFA5A21232060
:1009EC0002F0BAFAD021242002F0B6FA21212520F7
:1009FC0002F0B2FA0D21262002F0AEFAE0212720F7
:100A0C0002F0AAFAF021282002F0A6FA00212920EF
:100A1C0002F0A2FA00212A2002F09EFA01212B20DA
:100A2C0002F09AFAFF212C2002F096FA00212D20D8
:100A3C0002F092FA12212E2002F08EFAD0212F20F1
:100A4C0002F08AFAE021302002F086FA802131206F
:100A5C0002F082FA8021322002F07EFA80213320CB
:100A6C0002F07AFAA021342002F076FA182135200F
:100A7C0002F072FA4621362002F06EFA6421372019
:100A8C0002F06AFA0021382002F066FAFF213920C0
:100A9C0002F062FA03213A2002F05EFA80213B2038
:100AAC0002F05AFA80213C2002F056FA80213D20B7
:100ABC0002F052FA80213E2002F04EFA80213F20B3
:100ACC0002F04AFA6021412002F046FA5F214220EE
:100ADC0002F042FA3721432002F03EFA142144205E
:100AEC0002F03AFA0421452002F036FA00214620A1
:100AFC0002F032FA0021472002F02EFA00214820A1
:100B0C0002F02AFA0021492002F026FA20214B207B
:100B1C0002F022FA00214C2002F01EFA00214D2096
:100B2C0002F01AFA00214E2002F016FA7F214F2013
:100B3C0002F012FA2021502002F00EFA002151206E
:100B4C0002F00AFA0021522002F006FA0421532086
:100B5C0002F002FA0021542002F0FEF9E0215520A7
:100B6C0002F0FAF94021562002F0F6F90421572040
:100B7C0002F0F2F90021582002F0EEF90821592078
:100B8C0002F0EAF910215A2002F0E6F900215B206C
:100B9C0002F0E2F968215C2002F0DEF940215D20D0
:100BAC0002F0DAF908215E2002F0D6F900215F206C
:100BBC0002F0D2F9E021602002F0CEF9542161203C
:100BCC0002F0CAF93321622002F0C6F90121632038
:100BDC0002F0C2F9FF21642002F0BEF90121652068
:100BEC0002F0BAF9FF21662002F0B6F989216720DC
:100BFC0002F0B2F9AB21682002F0AEF9882169202D
:100C0C0002F0AAF96E216A2002F0A6F96E216B207F
:100C1C0002F0A2F96E216C2002F09EF900216D20E9
:100C2C0002F09AF900216E2002F096F900216F2053
:100C3C0002F092F90021702002F08EF9002171204F
:100C4C0002F08AF90021722002F086F9002173204B
:100C5C0002F082F90021742002F07EF9FF21752048
:100C6C0002F07AF9FF21762002F076F9FF21772045
:100C7C0002F072F9FF21782002F06EF9FF21792041
:100C8C0002F06AF9FF217A2002F066F9FF217B203D
:100C9C0002F062F9FF217C2002F05EF9F0217D2048
:100CAC0002F05AF980217E2002F056F900217F20B3
:100CBC0002F052F90021802002F04EF902E000BF50
:100CCC00C82201083421812002F046F940218220FB
:100CDC0002F042F90521832002F03EF959218420CB
:100CEC0002F03AF9FD21852002F036F90421862024
:100CFC0002F032F92421872002F02EF99421882069
:100D0C0002F02AF95821892002F026F900218A20C4
:100D1C0002F022F97E218B2002F01EF903218C2097
:100D2C0002F01AF92C218D2002F016F98C218E205C
:100D3C0002F012F900218F2002F00EF9CC21902044
:100D4C0002F00AF94121912002F006F9C421922007
:100D5C0002F002F93121932002F0FEF88721942051
:100D6C0002F0FAF8D021952002F0F6F8F321962043
:100D7C0002F0F2F82021972002F0EEF811219820D1
:100D8C0002F0EAF89021992002F0E6F8FF219A206F
:100D9C0002F0E2F804219B2002F0DEF80A219C20EC
:100DAC0002F0DAF800219D2002F0D6F804219E20F2
:100DBC0002F0D2F865219F2002F0CEF82F21A0205E
:100DCC0002F0CAF8D921A12002F0C6F89821A2207D
:100DDC0002F0C2F88721A32002F0BEF8E121A42082
:100DEC0002F0BAF83821A52002F0B6F8C221A620EC
:100DFC0002F0B2F87021A72002F0AEF80021A82072
:100E0C0002F0AAF81E21A92002F0A6F82E21AA2091
:100E1C0002F0A2F80021AB2002F09EF88421AC2055
:100E2C0002F09AF8F321AD2002F096F86521AE207D
:100E3C0002F092F89921AF2002F08EF80021B02038
:100E4C0002F08AF80021B12002F086F80021B220CD
:100E5C0002F082F80021B32002F07EF80021B420C9
:100E6C0002F07AF80021B52002F076F80021B620C5
:100E7C0002F072F88021B82002F06EF80021B9203F
:100E8C0002F06AF80121BA2002F066F80021BB20BA
:100E9C0002F062F89021BC2002F05EF80121BD2026
:100EAC0002F05AF82C21BE2002F056F80021C02086
:100EBC0002F052F82021C12002F04EF82021C2206D
:100ECC0002F04AF82021C32002F046F82021C42069
:100EDC0002F042F82021C52002F03EF8FF21D0207C
:100EEC0002F03AF83F21D12002F036F8C221D2208C
:100EFC0002F032F83F21D32002F02EF80021D4204A
:100F0C0002F02AF80021D52002F026F80021D62084
:100F1C0002F022F81021D72002F01EF80021D82070
:100F2C0002F01AF87721DC2002F016F80021DD20FF
:100F3C0002F012F8AF21DE2002F00EF8EF21DF20D4
:100F4C0002F00AF80021E02002F006F80021E1206E
:100F5C0002F002F80021E22001F0FEFF1221E32052
:100F6C0001F0FAFFE221E42001F0F6FFD021E520A8
:100F7C0001F0F2FF0021E62001F0EEFF0021E72056
:100F8C0001F0EAFF0F21E82001F0E6FF0021E92043
:100F9C0001F0E2FF0021EA2001F0DEFF0021EB204E
:100FAC0001F0DAFF8821EC2001F0D6FF0021ED20C2
:100FBC0001F0D2FF0021EE2001F0CEFF0021EF2046
:100FCC0001F0CAFF3021F02001F0C6FF4321F120CF
:100FDC0001F0C2FF1F21F22001F0BEFF1F21F32000
:100FEC0001F0BAFF2221F42001F0B6FF7321F520A5
:100FFC0001F0B2FF5321F62001F0AEFF8021F72063
:10100C0001F0AAFF0121F82001F0A6FF0121F9202F
:10101C0001F0A2FF0021FA2001F09EFF0021FB202D
:10102C0001F09AFF0021FC2001F096FF7021FD20B9
:10103C0001F092FF4021FE2001F08EFF0721FF20DE
:10104C0001F08AFF08BD00BF70B590B020220021CE
:10105C0007A807F09CFA00240194029403940494CA
:10106C0005940225069501260A9610230B930D95DF
:10107C004FF4E0130F9306A801F058FA0F230193D5
:10108C000295039404940594314601A801F08EFC5A
:10109C0010B070BD0268184B9A4200D07047174AC6
:1010AC0013780133DBB2137015490A6801320A60F8
:1010BC0014490A6801320A60632B09D9124A136871
:1010CC00013313600D4B00221A70104B01221A6071
:1010DC000F4B1A6801321A601A680E4B9A42DDD90E
:1010EC000B4B00221A600C4B1B78012BD6D10B4AF0
:1010FC00137801331370D1E7000400405B0100202A
:10110C005C010020600100205401002050010020EF
:10111C003C010020A08601000800002011010020E5
:10112C0010B504460268184B9A4204D02268174B3B
:10113C009A4214D010BD16490A78531CDBB20B70BE
:10114C0014490878144988541D2B02D9104B0022DD
:10115C001A7001220F49114801F050F8E6E71049C6
:10116C000A78531CDBB20B700E4908780E49885470
:10117C00C72B02D90A4B00221A70012209490B48CD
:10118C0001F03CF8D6E700BF0038014000440040B5
:10119C00460100201C0100204005002070030020A7
:1011AC00440100201801002080050020F4030020D9
:1011BC007047000038B5012825D00021322001F0FD
:1011CC00CBFE0021192001F0C7FE0024394B1C7006
:1011DC00394807F059FA39480470012343700EF06E
:1011EC0001FD2146192001F0B7FE354B1B78012B70
:1011FC0004D00121002002F015FD23E021462046F9
:10120C0002F010FD1EE00021322001F0A5FE294C59
:10121C00012525702B4807F037FA28480570022362
:10122C0043700EF0DFFC0421192001F095FE2378A9
:10123C00AB420ED0224B5B78012B35D001210846F6
:10124C0002F0F0FC204B00221A70204B01221A7085
:10125C0038BD1F4B1B78072B10D01E4807F0A0F988
:10126C001D4B1B78052B13D0062B14D0B3B1012BBF
:10127C0017D00121102001F06FFEDBE7FFF7EEFA2B
:10128C00164807F08DF92946284602F0CBFCD1E729
:10129C00FFF7F0FACEE7FFF7E1FACBE7FFF7FAFA40
:1012AC00C8E7FFF703FBC5E70021012002F0BAFCF9
:1012BC00C8E700BF1E010020782201083804002076
:1012CC002C0100208C2201081101002008000020B4
:1012DC00C4040020A82201081C000020A022010840
:1012EC0000B583B067E0134600221A7008F084FB47
:1012FC0070E05E4A13780133DBB213705C4A1278EB
:10130C00934240F285800021584B1970594B19704B
:10131C005B78032B14D8013356494B70554C6378CA
:10132C000192009340F63503534A5449544807F050
:10133C0037F920460EF056FC524B00221A7067E02B
:10134C004C4B01215970E9E74A4B5B784D4A1278B6
:10135C000192009340F63D03474A48494A4807F03A
:10136C001FF959E0474B1B78092B59D90023454AE3
:10137C001370464A137002F012FC51E080213220A7
:10138C0001F0EAFD51E0FFF715FF01E005F042FA2C
:10139C0004F0C4FA0028F9D13D4B1B68002BF7D0A0
:1013AC0001E006F0D3FC04F0C7FA0028F9D106F0EE
:1013BC00ABFC03F0D7F9364B1B68012BE8D1FFF7D8
:1013CC00CFF8FEF7A9FF334A13780133DBB2137061
:1013DC000A2B88D80A2001F0A7FD2F4A1388013365
:1013EC009BB21380642B06D9134600221A80254A1F
:1013FC00137801331370234B1B78284A12689342DD
:10140C0013D0264A1360264B1B78012B3FF471AF87
:10141C00234B1B78012B97D01C4B1B78012BA1D095
:10142C00322001F08FFD0028A8D003F017FE102108
:10143C001C4801F081FC1C4B18701C4B1B7898420B
:10144C00A6D0322001F070FD1021164801F074FC7A
:10145C00154B1870154B1B78984299D0134B18707C
:10146C00012890D00020FFF7A5FE91E7370100205E
:10147C0012000020380400209823010824220108BF
:10148C00E4240108110100200825010808000020AF
:10149C00240000202401002034010020040000203E
:1014AC003601002000080140100100201E01002020
:1014BC002DE9F04383B000F0EBFFFFF7C5FDFFF71C
:1014CC005DF9FEF767FEFEF7D1FEFEF7F9FEFEF7BB
:1014DC000DFF09F0F5FC09F09FFF0AF045F90AF041
:1014EC002FFC0121002002F09DFB0120FFF720F8CA
:1014FC00322001F019FD01225749584800F07EFEB8
:10150C0001225749574800F079FE574D00224FF4FD
:10151C008051284601F017FC544C00220221204631
:10152C0001F011FC642001F0FFFC01224FF480510A
:10153C00284601F008FC01220221204601F003FCA0
:10154C00002420E04A4B1C704A4E4B4D009440F254
:10155C00237332462946494807F022F8002010F040
:10156C003AFE8021892009F067FD022009F028FD50
:10157C000190009440F2297332462946404807F006
:10158C000FF80134E4B2012CDCD93E4C0025257057
:10159C0065710126A67166700223A3700327E7709C
:1015AC000423237138490F2002F01CFBFFF7EAF8E3
:1015BC0002F0CAFE284601F0C5FCDFF8B890DFF84F
:1015CC00B880009040F257734A4641462F4806F0C7
:1015DC00E7FF4FF4EB634A4641462D4806F0E0FF27
:1015EC00E771A67125726572284601F04CFE204603
:1015FC000EF0F8FAE3793BB1264B1E6026490D60DC
:10160C0026490E70264A157026485D2300F8013BCA
:10161C0020226D2106F0BBFF012221230AE002F1FA
:10162C007F002049C854581C6D240C540132D2B28E
:10163C000233DBB2402BF2D91F226D211A4806F07F
:10164C00A6FF0020FEF7B2FE184800F0CCF91848AF
:10165C0006F0A6FFFFF744FE1C01002070030020DB
:10166C0018010020F4030020000C01400010014080
:10167C005D0700209023010824220108A4230108FF
:10168C00CC23010838040020309B0108FC230108FE
:10169C002024010814010020200100200800002053
:1016AC0011010020FC0100203B020020000300205F
:1016BC00482401087047FEE7FEE7FEE7FEE77047A7
:1016CC007047704708B500F0F5FE08BD08B504205A
:1016DC0001F040FB08BD000008B5024800F098F985
:1016EC0008BD00BF0003002008B5024800F012FE40
:1016FC0008BD00BF7003002008B5024800F00AFEC8
:10170C0008BD00BFF403002082B00E4B9A6942F072
:10171C0001029A619A6902F001020092009ADA6958
:10172C0042F08052DA61DB6903F080530193019B34
:10173C00054A536823F0E06343F00073536002B032
:10174C00704700BF001002400000014002680E4BC1
:10175C009A4200D0704700B583B003F50333DA69C1
:10176C0042F00202DA61DB6903F002030193019B90
:10177C00002211461D2001F059FB1D2001F08AFBAF
:10178C0003B05DF804FB00BF0004004070B588B0E6
:10179C000446002304930593069307930268364B83
:1017AC009A4205D02268354B9A4234D008B070BDAD
:1017BC0003F558439A6942F480429A619A6902F49B
:1017CC0080420092009A9A6942F004029A619B69E5
:1017DC0003F004030193019B4FF400730493022361
:1017EC00059303230793264E04A9304601F0B8F95C
:1017FC004FF48063049300250595069504A93046A3
:10180C0001F0AEF92A462946252001F00FFB2520D0
:10181C0001F040FBC6E703F5E633DA6942F4003227
:10182C00DA61DA6902F400320292029A9A6942F0A1
:10183C0004029A619B6903F004030393039B042342
:10184C00049302230593032307930D4D04A9284603
:10185C0001F086F90823049300240594069404A946
:10186C00284601F07DF922462146262001F0DEFAB9
:10187C00262001F00FFB99E700380140004400409E
:10188C000008014070B4036A23F001030362036A89
:10189C004268846924F073040D6845EA040623F059
:1018AC0002048B6823430D4DA84209D00B4DA8426E
:1018BC000DD0426086614A684263036270BC704717
:1018CC0023F00803CC68234323F00403EEE722F44F
:1018DC0040724C6914438A692243EAE7002C0140A8
:1018EC0030B4036A23F480730362036A4268C469E8
:1018FC0024F073040D682C4323F400738D6843EAC1
:10190C0005230F4DA84209D00D4DA8420ED04260C0
:10191C00C4614A68C263036230BC704723F400633D
:10192C00CD6843EA052323F48063EDE722F44052AB
:10193C004D6942EA05128D6942EA0512E7E700BFDC
:10194C00002C014030B4036A23F480530362036A11
:10195C004468C26922F4E6420D6842EA052223F487
:10196C0000538D6843EA0533074DA84206D0446006
:10197C00C2614A680264036230BC704724F480443C
:10198C004D6944EA8514F2E7002C014010B4036A57
:10199C00046A24F001040462846924F0F00444EA2B
:1019AC00021223F00A030B438261036210BC7047DE
:1019BC0010B4036A23F0100303628469036A24F4ED
:1019CC00704444EA023223F0A00343EA011382611B
:1019DC00036210BC7047836823F07003194341F015
:1019EC000701816070470268D36843F00103D3603C
:1019FC000268936803F00703062B03D0136843F0C7
:101A0C0001031360002070477047704770477047A0
:101A1C0010B5044603681A6912F0020F11D0DA6887
:101A2C0012F0020F0DD06FF002021A61012303773E
:101A3C0003689B6913F0030F70D0FFF7E6FF0023D8
:101A4C00237723681A6912F0040F12D0DA6812F0A7
:101A5C00040F0ED06FF004021A610223237723685F
:101A6C009B6913F4407F5FD02046FFF7CEFF002325
:101A7C00237723681A6912F0080F12D0DA6812F073
:101A8C00080F0ED06FF008021A6104232377236825
:101A9C00DB6913F0030F4ED02046FFF7B6FF00238F
:101AAC00237723681A6912F0100F12D0DA6812F03B
:101ABC00100F0ED06FF010021A61082323772368E1
:101ACC00DB6913F4407F3DD02046FFF79EFF0023D7
:101ADC00237723681A6912F0010F03D0DA6812F029
:101AEC00010F36D123681A6912F0800F03D0DA681F
:101AFC0012F0800F34D123681A6912F0400F03D012
:101B0C00DA6812F0400F32D123681A6912F0200FF4
:101B1C0003D0DA6812F0200F30D110BDFFF774FF3C
:101B2C002046FFF773FF8AE72046FFF76DFF20463C
:101B3C00FFF76CFF9BE72046FFF766FF2046FFF799
:101B4C0065FFACE72046FFF75FFF2046FFF75EFF1F
:101B5C00BDE76FF001021A612046FFF79BFAC1E75F
:101B6C006FF080021A61204600F0CEF9C3E76FF0E7
:101B7C0040021A612046FFF74AFFC5E76FF02002CA
:101B8C001A61204600F0BFF9C7E7000003681B4A42
:101B9C0090420AD0B0F1804F07D0A2F59432904217
:101BAC0003D002F58062904203D123F070034A689F
:101BBC001343124A90420AD0B0F1804F07D0A2F5DD
:101BCC009432904203D002F58062904203D123F408
:101BDC004073CA68134323F080034A6913430360BC
:101BEC008B68C3620B688362044B984202D001235A
:101BFC00436170470B690363F9E700BF002C014098
:101C0C00A8B110B5044690F83D305BB1022384F8BE
:101C1C003D30211D2068FFF7B9FF012384F83D30CA
:101C2C00002010BD80F83C30FFF790FDEEE701205E
:101C3C007047000030B4036A23F010030362036A98
:101C4C004468826922F4E6420D6842EA052223F0D8
:101C5C0020038D6843EA05130E4DA84209D00D4DA3
:101C6C00A8420ED0446082614A688263036230BC31
:101C7C00704723F08003CD6843EA051323F040033B
:101C8C00EDE724F440644D6944EA85048D6944EA27
:101C9C008504E7E7002C014038B590F83C30012B67
:101CAC0066D00D460446012380F83C30022380F8B0
:101CBC003D300C2A1AD8DFE802F00719191920193F
:101CCC0019193419191947000068FFF7DBFD226850
:101CDC00936943F0080393612268936923F004032A
:101CEC0093612268936929690B439361012384F8FA
:101CFC003D30002084F83C0038BD0068FFF79AFFA7
:101D0C002268936943F4006393612268936923F416
:101D1C008063936122689369296943EA0123936183
:101D2C00E4E70068FFF7DCFD2268D36943F00803A1
:101D3C00D3612268D36923F00403D3612268D36989
:101D4C0029690B43D361D1E70068FFF7FBFD2268DB
:101D5C00D36943F40063D3612268D36923F48063AD
:101D6C00D3612268D369296943EA0123D361BDE7B2
:101D7C000220C1E710B4846824F47F4442EA0323B0
:101D8C000B432343836010BC704790F83C30012B0D
:101D9C0066D010B50446012380F83C30022380F84D
:101DAC003D300268936823F47F4323F077039360FC
:101DBC000B68402B4AD013D9602B3DD01ED9702B09
:101DCC0028D0B3F5005F30D1CB684A6889680068C9
:101DDC00FFF7D0FF2268936843F48043936024E0BC
:101DEC00102B06D004D9202B03D0302B01D01CE0B3
:101DFC00DBB919462068FFF7EEFD16E0502B14D125
:101E0C00CA6849680068FFF7C1FD50212068FFF7D8
:101E1C00E2FD0AE0CB684A6889680068FFF7AAFF10
:101E2C002268936843F077039360012384F83D3074
:101E3C00002084F83C0010BDCA6849680068FFF7B0
:101E4C00B7FD60212068FFF7C6FDEEE7CA68496858
:101E5C000068FFF79BFD40212068FFF7BCFDE4E71D
:101E6C000220704710B401F01F01012303FA01F4A2
:101E7C00036A23EA04030362036A8A40134303627E
:101E8C0010BC704710B5044601220068FFF7EAFF4A
:101E9C0023680A4A93420BD02268936803F0070325
:101EAC00062B03D0136843F001031360002010BD10
:101EBC005A6C42F400425A64EEE700BF002C014019
:101ECC0090F83C30012B1CD070B4012680F83C609B
:101EDC00022380F83D3002685568936825F0700540
:101EEC000C682C4323F080054B682B43546002682C
:101EFC00936080F83D60002380F83C30184670BC3D
:101F0C00704702207047704770470268D36823F40B
:101F1C009073D3600268536923F00103536120234B
:101F2C0080F83A30704790F83930DBB2212B2AD147
:101F3C008368B3F5805F16D0036A5A1C02621A7864
:101F4C0003685A60C38C013B9BB2C384EBB9026833
:101F5C00D36823F08003D3600268D36843F0400356
:101F6C00D36000207047036A1B880268C3F3080320
:101F7C00536003691BB9036A02330362E2E7036A25
:101F8C0001330362DEE70220704700207047000037
:101F9C0038B504460268136923F44053C1680B43F7
:101FAC00136183680269134342691A430168CB6861
:101FBC0023F4B05323F00C031343CB600268536932
:101FCC0023F4407381690B4353610268214B9A429D
:101FDC001FD000F0A5FD00EB800000EB80006368D3
:101FEC009B00B0FBF3F01C4DA5FB003251096422A1
:101FFC0002FB110213013233A5FB03235B0903F02F
:10200C00F00202EB011203F00F03216813448B6002
:10201C0038BD00F095FD00EB800000EB800063689C
:10202C009B00B0FBF3F00C4DA5FB00325109642270
:10203C0002FB110213013233A5FB03235B0903F0EE
:10204C00F00202EB011203F00F03216813448B60C2
:10205C00DEE700BF003801401F85EB512DE9F04150
:10206C0005460F4616469846069C2B681B6837EAB1
:10207C0003030CBF01230023B3421DD1B4F1FF3F76
:10208C00F3D02CB100F022FAA0EB0800A042ECD95E
:10209C002A68D36823F4D073D3602A68536923F079
:1020AC0001035361202385F8393085F83A30002339
:1020BC0085F83830032000E00020BDE8F08158B3EB
:1020CC0010B5044690F839300BB3242384F839301A
:1020DC002268D36823F40053D3602046FFF758FFDF
:1020EC002268136923F4904313612268536923F027
:1020FC002A0353612268D36843F40053D360002051
:10210C00E063202384F8393084F83A3010BD80F82D
:10211C003830FFF73BFBD8E7012070472DE9F04141
:10212C0082B01E4690F83930DBB2202B55D10446D4
:10213C000D469046002955D0002A55D090F83830DD
:10214C00012B53D0012380F838300023C3632123A3
:10215C0080F8393000F0BAF90746A4F82480A4F8C6
:10216C00268010E000963B46002280212046FFF797
:10217C0075FF00283CD12B882268C3F308035360F9
:10218C002369C3B90235E38C9BB2B3B1E38C013B39
:10219C009BB2E384A368B3F5805FE3D000963B4623
:1021AC00002280212046FFF759FF18BB2A782368AC
:1021BC005A600135E7E70135E5E700963B4600221A
:1021CC0040212046FFF74AFF0346A8B9202284F895
:1021DC003920002284F8382000E00223184602B08F
:1021EC00BDE8F0810123F9E70123F7E70223F5E7C6
:1021FC000323F3E70323F1E70323EFE790F83A30E7
:10220C00DBB2202B20D109B312B390F83830012B5C
:10221C0020D081628285C2850023C363222280F88C
:10222C003A2080F838300168CA6842F48072CA607B
:10223C0001684A6942F001024A610168CA6842F0C9
:10224C002002CA6018467047022070470120704770
:10225C000120704702207047704708B50168CB68B1
:10226C0023F04003CB60202380F83930FFF7F4FFD4
:10227C00002008BD08B590F83A30DBB2222B45D1CE
:10228C008368B3F5805F0ED0036903BB03685A689B
:10229C00836A591C81621A70C38D013B9BB2C38542
:1022AC00F3B1002033E0826A036943B903685B68C9
:1022BC00C3F308031380836A02338362ECE7036879
:1022CC005B68DBB21380836A01338362E4E70368E3
:1022DC005B68826A511C816203F07F031370DBE739
:1022EC000268D36823F02003D3600268D36823F418
:1022FC008073D3600268536923F001035361202378
:10230C0080F83A30FEF70CFF002000E0022008BDF8
:10231C007047000010B5044602681368D168526912
:10232C0013F00F0005D113F0200F02D011F0200F85
:10233C0053D1002867D012F0010202D111F4907F22
:10234C0061D013F0010F06D011F4807F03D0E06B45
:10235C0040F00100E06313F0040F04D01AB1E06BFD
:10236C0040F00200E06313F0020F04D01AB1E06BEE
:10237C0040F00400E06313F0080F04D01AB1E26BD4
:10238C0042F00802E263E26B002A48D013F0200FFF
:10239C0002D011F0200F24D123685B6903F04003B5
:1023AC00E26B12F0080F00D13BB32046FFF7ADFDF6
:1023BC0023685A6912F0400F1BD05A6922F0400270
:1023CC005A61636B8BB11A4A5A63606B00F0D0FC94
:1023DC0028B3606B436B984721E02046FFF74AFF18
:1023EC001DE02046FFF746FFD6E72046FFF790FF9B
:1023FC0015E02046FFF78CFF11E02046FFF788FF21
:10240C000023E3630BE013F0800F02D011F0800F78
:10241C0006D113F0400F02D011F0400F04D110BDC3
:10242C002046FFF780FDFAE72046FFF716FFF6E798
:10243C004124000808B5406A0023C385C384FFF714
:10244C0067FF08BD10B504460E4B18784FF47A732D
:10245C00B3FBF0F30C4A1068B0FBF3F000F028FD6E
:10246C0068B90F2C01D901200AE0002221464FF057
:10247C00FF3000F0DBFC054B1C60002000E001206D
:10248C0010BD00BF13000020180000201400002015
:10249C0008B5074A136843F010031360032000F0DB
:1024AC00B3FC0020FFF7CEFFFFF72EF9002008BD8C
:1024BC0000200240034A1168034B1B780B44136045
:1024CC00704700BF5004002013000020014B186817
:1024DC00704700BF5004002038B50446FFF7F6FFE4
:1024EC000546B4F1FF3F02D0044B1B781C44FFF7A8
:1024FC00EDFF401BA042FAD338BD00BF13000020F3
:10250C0082B0084B1B68084AA2FB03235B0A00FB42
:10251C0003F0019000BF019B5A1E0192002BF9D1D0
:10252C0002B0704718000020D34D6210002800F054
:10253C00F58170B582B00446036813F0010F2CD0FE
:10254C00AB4B5B6803F00C03042B1DD0A84B5B68F2
:10255C0003F00C03082B12D06368B3F5803F41D015
:10256C00002B55D103F1804303F504331A6822F490
:10257C0080321A601A6822F480221A6037E09C4B71
:10258C005B6813F4803FE7D0994B1B6813F4003F52
:10259C0003D06368002B00F0C381236813F0020F93
:1025AC0076D0934B5B6813F00C0F5FD0904B5B684D
:1025BC0003F00C03082B54D02369002B00F08A8005
:1025CC008C4B01221A60FFF781FF0546884B1B6874
:1025DC0013F0020F75D1FFF779FF401B0228F5D9D4
:1025EC000320A0E1824A136843F4803313606368CC
:1025FC0043B3FFF76BFF05467D4B1B6813F4003F9D
:10260C00CBD1FFF763FF401B6428F5D903208AE187
:10261C00B3F5A02F09D0764B1A6822F480321A60D9
:10262C001A6822F480221A60E1E703F18043A3F5D3
:10263C003C331A6842F480221A601A6842F48032E1
:10264C001A60D4E7FFF742FF0546694B1B6813F489
:10265C00003FA2D0FFF73AFF401B6428F5D90320B6
:10266C0061E1634B5B6813F4803FA5D1604B1B6841
:10267C0013F0020F04D02369012B01D0012052E189
:10268C005B4A136823F0F803616943EAC1031360E2
:10269C00236813F0080F32D0A369002B5BD0564B84
:1026AC0001221A60FFF712FF0546514B5B6A13F0CB
:1026BC00020F21D1FFF70AFF401B0228F5D9032096
:1026CC0031E14B4A136823F0F803616943EAC10313
:1026DC001360DDE7474B00221A60FFF7F7FE054653
:1026EC00434B1B6813F0020FD2D0FFF7EFFE401BD9
:1026FC000228F5D9032016E10120FFF701FF23681A
:10270C0013F0040F00F09880394BDB6913F0805FF5
:10271C0033D1374BDA6942F08052DA61DB6903F06E
:10272C0080530193019B0125344B1B6813F4807F6C
:10273C0025D0E368012B36D0002B4CD103F180431C
:10274C0003F504331A6A22F001021A621A6A22F0A3
:10275C0004021A622CE0284B00221A60FFF7B6FE26
:10276C000546234B5B6A13F0020FC8D0FFF7AEFE91
:10277C00401B0228F5D90320D5E00025D4E71F4AD9
:10278C00136843F480731360FFF7A0FE06461B4BDF
:10279C001B6813F4807FCCD1FFF798FE801B642854
:1027AC00F5D90320BFE0124A136A43F00103136208
:1027BC00E3687BB3FFF78AFE06460D4B1B6A13F0EA
:1027CC00020F38D1FFF782FE801B41F2883398420A
:1027DC00F3D90320A7E0052B12D0054B1A6A22F07F
:1027EC0001021A621A6A22F004021A62E0E700BFC0
:1027FC00001002400000424280044242007000403F
:10280C004C4B1A6A42F004021A621A6A42F0010234
:10281C001A62CDE7FFF75AFE0646464B1B6A13F0C9
:10282C00020F08D0FFF752FE801B41F2883398420A
:10283C00F3D9032077E0E5B9E369002B72D03D4A68
:10284C00526802F00C02082A56D0022B17D03A4BD1
:10285C0000221A60FFF73AFE0446364B1B6813F051
:10286C00007F47D0FFF732FE001B0228F5D903206A
:10287C0059E0304AD36923F08053D361DCE72E4B07
:10288C0000221A60FFF722FE05462A4B1B6813F044
:10289C00007F06D0FFF71AFE401B0228F5D9032053
:1028AC0041E0236AB3F5803F1AD022494B6823F4E8
:1028BC007413226A606A024313434B601E4B01225D
:1028CC001A60FFF703FE04461A4B1B6813F0007FD7
:1028DC000ED1FFF7FBFD001B0228F5D9032022E0E7
:1028EC00144A536823F40033A1680B435360DCE7AC
:1028FC00002018E0002016E0012B16D00D4B5B6871
:10290C0003F48031226A914201D001200BE003F4E0
:10291C007013626A93420AD0012004E001207047D0
:10292C00012000E0002002B070BD0120FBE7002078
:10293C00F9E700BF001002406000424210B487B0BB
:10294C00164C94E80F000DF1180C0CE90F00238ABB
:10295C00ADF80430124B5B6803F00C02082A1AD154
:10296C00C3F38342624412F8102C13F4803F05D158
:10297C000C4800FB02F007B010BC7047084B5B68BA
:10298C00C3F34043634413F8143C074800FB02F0C4
:10299C00B0FBF3F0EFE70448EDE700BF10220108AD
:1029AC000010024000093D0000127A00002800F0DF
:1029BC00A38070B50446524B1B6803F007038B428F
:1029CC000CD24F4A136823F007030B4313601368B0
:1029DC0003F007038B4201D0012070BD236813F074
:1029EC00020F17D013F0040F04D0464A536843F477
:1029FC00E0635360236813F0080F04D0414A536816
:102A0C0043F4605353603F4A536823F0F003A068CB
:102A1C00034353600D46236813F0010F31D06368F4
:102A2C00012B20D0022B25D0364A126812F0020F4F
:102A3C0064D034494A6822F0030213434B60FFF719
:102A4C0045FD06462F4B5B6803F00C036268B3EB45
:102A5C00820F16D0FFF73AFD801B41F28833984263
:102A6C00F0D90320B9E7274A126812F4003FE0D1ED
:102A7C000120B2E7234A126812F0007FD9D101205D
:102A8C00ABE71F4B1B6803F00703AB420CD91C4A86
:102A9C00136823F007032B431360136803F0070339
:102AAC00AB4201D0012098E7236813F0040F06D045
:102ABC00144A536823F4E063E1680B4353602368C2
:102ACC0013F0080F07D00F4A536823F460532169A1
:102ADC0043EAC1035360FFF731FF0A4B5B68C3F352
:102AEC000313094AD35CD840084B1860084B18688C
:102AFC00FFF7A8FC002070E70120704701206CE76D
:102B0C0000200240001002402C2501081800002073
:102B1C0014000020014B1868704700BF18000020FB
:102B2C0008B5FFF7F7FF044B5B68C3F30223034AB6
:102B3C00D35CD84008BD00BF001002403C25010802
:102B4C0008B5FFF7E7FF044B5B68C3F3C223034AE6
:102B5C00D35CD84008BD00BF001002403C250108E2
:102B6C00F0B482B000263246A2E0002D5AD0012DDE
:102B7C0000D1CE68FF2B69D88446FF2B69D895000D
:102B8C00DCF800400F27AF4024EA070406FA05F5ED
:102B9C002C43CCF800404C6814F0805F00F0878028
:102BAC005F4CA56945F00105A561A46904F0010419
:102BBC000194019C9508AF1C5A4C54F8274002F024
:102BCC000307BF004FF00F0C0CFA07FC24EA0C0CA7
:102BDC00554CA04243D004F58064A04200F08180A3
:102BEC0004F58064A0427ED004F58064A04234D009
:102BFC00042435E04D4FBD4214D00BD94C4FBD428F
:102C0C0010D007F58037BD420CD0A7F58017BD4218
:102C1C00B0D107E0A7F58017BD4203D007F5803788
:102C2C00BD42A7D18D687DB1012D08D04461082625
:102C3C00A0E7CE6808369DE7CE680C369AE70461AB
:102C4C00082697E7002695E7042693E700F1040C85
:102C5C0093E7A2F10805AD0092E7032400E00024FD
:102C6C00BC4044EA0C0402352E4F47F825404C6812
:102C7C0014F4803F39D02F4D2C681C432C604C68C9
:102C8C0014F4003F37D02B4D6C681C436C604C68BF
:102C9C0014F4801F35D0274DAC681C43AC604C68D5
:102CAC0014F4001F33D0234DEC682343EB60013246
:102CBC000B6833FA02F430D00124944023409C4238
:102CCC00F5D14D68122DB7D094D8022DB1D07FF626
:102CDC004CAF032DB6D0112D7FF44CAFCE6804361B
:102CEC0048E70124BCE70224BAE7124D2C6824EA19
:102CFC0003042C60C3E70F4D6C6824EA03046C607A
:102D0C00C5E70C4DAC6824EA0304AC60C7E7094D79
:102D1C00EC6824EA0303EB60C9E702B0F0BC70472F
:102D2C00001002400000014000080140000021108A
:102D3C0000003110000401408368194201D10020C9
:102D4C0070470120704712B9090401617047016195
:102D5C007047000008B5054B5B69034200D108BD04
:102D6C00024B5861FEF724FAF9E700BF000401405A
:102D7C0008B590F82130022B03D004238363012083
:102D8C0008BD0268136823F00E0313600268136811
:102D9C0023F0010313600368194A934214D01432D0
:102DAC0093421FD0143293421ED0143293421ED041
:102DBC00143293421ED01432934202D04FF08072E0
:102DCC0003E04FF4801200E001220E4B5A60012305
:102DDC0080F82130002380F82030436B6BB198478A
:102DEC000020CDE71022F0E74FF48072EDE74FF4AE
:102DFC008052EAE74FF48032E7E70020C0E700BFDB
:102E0C000800024000000240074AD36823F4E06344
:102E1C001B041B0C000200F4E060184340F0BF6080
:102E2C0040F40030D060704700ED00E030B4174B38
:102E3C00DB68C3F30223C3F10704042C28BF04246A
:102E4C001D1D062D18D9033B4FF0FF3505FA04F470
:102E5C0021EA0401994005FA03F322EA030319431A
:102E6C0000280BDB0901C9B200F1604000F561409C
:102E7C0080F8001330BC70470023E5E700F00F002A
:102E8C000901C9B2024B1954F4E700BF00ED00E090
:102E9C0014ED00E0002807DB00F01F0240090123BD
:102EAC009340024A42F82030704700BF00E100E036
:102EBC000138B0F1807F0AD2064B5860064AF021E7
:102ECC0082F823100020986007221A6070470120B6
:102EDC00704700BF10E000E000ED00E00F4B1A68F7
:102EEC0042F001021A6059680D4A0A405A601A6889
:102EFC0022F0847222F480321A601A6822F4802242
:102F0C001A605A6822F4FE025A604FF41F029A604B
:102F1C00044B4FF000629A60704700BF00100240F3
:102F2C000000FFF800ED00E008B5034B1B7803B17F
:102F3C0008BDFFF7D1FAFBE75404002008B5FFF7F2
:102F4C00CBFA08BD08B5034B1B780146184608F0B0
:102F5C00B4FA08BD1000002008B5044B1B780A46D3
:102F6C000146184608F05EFA08BD00BF10000020AC
:102F7C0008B5034B1B780146184608F09EFA08BDAD
:102F8C001100002008B5044B1B780A460146184670
:102F9C0008F048FA08BD00BF1100002008B508F081
:102FAC0074FE08BD08B508F049FE08BD10B51C46F6
:102FBC001346224608F053FA10BD70B588B004468B
:102FCC000D4616461978684605F0E1FA33466A460E
:102FDC002946204608F043FA08B070BD38B50546BE
:102FEC00002404E00520FFF777FA0134A4B2AC42C8
:102FFC00F8D338BD08B50146024B187808F005FC2B
:10300C0008BD00BFD004002008B50A460146024B9B
:10301C00187808F0AFFB08BDD004002008B5FFF706
:10302C005BFA08BD08B501464A2008F0EAFC08BD69
:10303C0008B50A4601464A2008F017FD08BD08B538
:10304C00082809D8DFE800F0050505050D0D0D0D64
:10305C0009005220FFF780FF08BD5720FFF77CFFC7
:10306C00FAE75D20FFF778FFF6E7F8B505460C4662
:10307C0017465320FFF766FF00F03F065E20FFF770
:10308C0061FF00F03F0104F03F04082D0ED8DFE88B
:10309C0005F0050E19242F37424D580031465320A8
:1030AC00FFF75AFF21465320FFF756FFF8BD46F0B5
:1030BC0040015320FFF750FF44F040015320FFF72D
:1030CC004BFFF3E746F080015320FFF745FF44F038
:1030DC0080015320FFF740FFE8E746F0C001532082
:1030EC00FFF73AFF44F0C0015320FFF735FFDDE74F
:1030FC005E20FFF731FF21465E20FFF72DFFD5E75D
:10310C0041F040015E20FFF727FF44F040015E20B4
:10311C00FFF722FFCAE741F080015E20FFF71CFF9A
:10312C0044F080015E20FFF717FFBFE741F0C001BC
:10313C005E20FFF711FF44F0C0015E20FFF70CFF8B
:10314C00B4E721465820FFF707FF07F01F0159206D
:10315C00FFF702FFAAE738B5CDB2090A090101F061
:10316C007001D4B2C2F30222082812D8DFE800F0B2
:10317C00050505051F1F1F1F120011435420FFF7E3
:10318C00EBFE29465520FFF7E7FE21465620FFF7B8
:10319C00E3FE38BD11435A20FFF7DEFE29465B20C3
:1031AC00FFF7DAFE21465C20FFF7D6FEF1E711436C
:1031BC005F20FFF7D1FE29466020FFF7CDFE2146A8
:1031CC006120FFF7C9FEE4E770B506460C4614F81B
:1031DC00015B1021FD20FFF7BFFE3146FE20FFF7FB
:1031EC00BBFE044B187823462A46FF21FFF7DEFE70
:1031FC0070BD00BF1000002070B582B0064602AC56
:10320C0004F8012D0D787021FD20FFF7A5FE314645
:10321C00FE20FFF7A1FE044B187823462A46FF2117
:10322C00FFF7CBFE02B070BD1000002038B504468D
:10323C000D465320FFF786FE00F03F01A40164B257
:10324C002143C9B25320FFF787FE5E20FFF77AFEB9
:10325C0000F03F0044EA0001C9B25E20FFF77CFE9B
:10326C005120FFF76FFE15F0080F01D100F0F700A9
:10327C0020F0070149B205F00F052943C9B25120CE
:10328C00FFF76AFE38BD10B504465120FFF75AFE11
:10329C002CB900F0F7015120FFF75EFE10BD40F095
:1032AC000801C9B2F7E710B504466920FFF74AFEDA
:1032BC0000F00F0141EA0411C9B26920FFF74CFE7E
:1032CC0000215820FFF748FE10BD0000142860D8DC
:1032DC00DFE800F00B0F13171B1F23272B2F33379F
:1032EC003B3F43474B4F53575B002C4B2C4A1A60C8
:1032FC0070472A4B2B4A1A607047284B2A4A1A608F
:10330C007047264B294A1A607047244B284A1A608A
:10331C007047224B274A1A607047204B264A1A6086
:10332C0070471E4B254A1A6070471C4B244A1A6082
:10333C0070471A4B234A1A607047184B1A4A1A6086
:10334C007047164B204A1A607047144B1F4A1A607C
:10335C007047124B1E4A1A607047104B1D4A1A6078
:10336C0070470E4B1C4A1A6070470C4B1B4A1A6074
:10337C0070470A4B1A4A1A607047084B194A1A6070
:10338C007047064B184A1A607047044B174A1A606C
:10339C007047024B154A1A60704700BF5804002052
:1033AC00F887010810880108048801081C880108A6
:1033BC00D487010880870108E0870108EC870108A1
:1033CC002888010850870108688701088C87010844
:1033DC0074870108A48701085C8701089887010895
:1033EC00BC870108B0870108C88701085488010808
:1033FC002DE9F047054688461746B64A1278C2F3BF
:10340C00400602F0010453BBB34B1B78012B21D0B7
:10341C004FF025094FF0F40A002D40F0BB81002E2F
:10342C0040F07E81002C40F094810820FFF73BFF98
:10343C00A84B1B78032B00F06F82002E00F07F82CC
:10344C00A64B1B78002B40F0758204212846FFF711
:10345C00EDFE68E24FF03D094FF0B40ADCE71A4686
:10346C00012B1ED0022B2AD0032B36D0102B42D08E
:10347C00202B7DD0402B00F0B880502B00F0D28058
:10348C00303B0F2B00F21E81002840F0ED80924B58
:10349C001B78012B00F0E3804FF025094FF0F40A64
:1034AC00BAE78D4B1B78012B04D04FF025094FF058
:1034BC00F40AB1E74FF03D094FF0B40AACE7864B84
:1034CC001B78012B04D04FF025094FF0F40AA3E729
:1034DC004FF03D094FF0B40A9EE77F4B1B78012B50
:1034EC0004D04FF025094FF0F40A95E74FF03D0951
:1034FC004FF0B40A90E768B9774B1B78012B04D0D6
:10350C004FF025094FF0F40A86E74FF03D094FF0D4
:10351C00B40A81E701280AD0022816D06E4B1B781A
:10352C00012B20D040F2911940F2763A74E76A4BA5
:10353C001B78012B04D04FF0250940F2763A6BE74B
:10354C004FF03D0940F2744A66E7634B1B78012B40
:10355C0004D040F291194FF0F40A5DE740F25B2978
:10356C004FF0B40A58E740F25B2940F2744A53E733
:10357C0068B9594B1B78012B04D04FF025094FF03B
:10358C00F40A49E74FF03D094FF0B40A44E701282B
:10359C000AD0022816D0504B1B78012B20D04FF0AC
:1035AC00250940F2B64A37E74B4B1B78012B04D068
:1035BC004FF0250940F2362A2EE74FF03D094FF423
:1035CC00267A29E7444B1B78012B04D040F2911941
:1035DC0040F2362A20E740F25B294FF4267A1BE7AB
:1035EC004FF03D094FF4CB6A16E768B93A4B1B789C
:1035FC00012B04D04FF025094FF0F40A0CE74FF0E3
:10360C003D094FF0B40A07E7334B1B78012B04D06C
:10361C004FF0250940F2763AFEE64FF03D0940F2B4
:10362C00744AF9E668B92C4B1B78012B04D04FF087
:10363C0025094FF0F40AEFE64FF03D094FF0B40ABC
:10364C00EAE6254B1B78012B04D040F291194FF080
:10365C00F40AE1E640F25B294FF0B40ADCE64FF0E5
:10366C003D094FF0B40AD7E601280AD0022816D03B
:10367C00194B1B78012B20D04FF4027940F24A4AA7
:10368C00CAE6154B1B78012B04D04FF0250940F2EC
:10369C004A4AC1E64FF03D0940F2B45ABCE60E4B23
:1036AC001B78012B04D04FF48C7940F24A4AB3E6D4
:1036BC004FF4D37940F2B45AAEE640F20F3940F2EF
:1036CC00B45AA9E6602A0BD04FF040094FF0E00A3B
:1036DC00A2E600BFEF000020680700205C04002079
:1036EC0068B9A44B1B78012B04D04FF025094FF07F
:1036FC00F40A91E64FF03D094FF0B40A8CE601282C
:10370C007FF48AAE9B4B1B78012B04D040F2052929
:10371C0040F24A4A80E640F20D3940F2B45A7BE658
:10372C00012298F800100020FFF79FFC00210846AA
:10373C00FFF785FC41460020FFF746FD0722414676
:10374C000020FFF759FD4A4651460020FFF703FDC4
:10375C0068E6012239780420FFF787FC4021042019
:10376C00FFF76DFC39464020FFF72EFD0722394646
:10377C004020FFF741FD804B1A7802EB8202930048
:10378C0009EB030292B2143292B251460420FFF7B5
:10379C00E2FC4AE6012D2AD0022D66D0032D7FF4DF
:1037AC0044AE002E40F09F80002C3FF43EAE012230
:1037BC0039780720FFF759FC70210720FFF73FFCF1
:1037CC0039467020FFF700FD072239467020FFF7BD
:1037DC0013FD694B1B7803EB83039A004A4492B2A6
:1037EC00143292B251460720FFF7B5FC1DE61EBB02
:1037FC00002C3FF41AAE012239780520FFF735FC76
:10380C0050210520FFF71BFC39465020FFF7DCFC4C
:10381C00072239465020FFF7EFFC574B1A7802EB82
:10382C008202930009EB030292B2143292B2514617
:10383C000520FFF790FCF8E5012298F800101046DF
:10384C00FFF713FC10210120FFF7F9FB4146102074
:10385C00FFF7BAFC072241461020FFF7CDFC4A4681
:10386C0051460120FFF777FCC2E71EBB002C3FF44A
:10387C00DCAD012239780620FFF7F7FB602106202A
:10388C00FFF7DDFB39466020FFF79EFC0722394627
:10389C006020FFF7B1FC384B1A7802EB82029300E0
:1038AC0009EB030292B2143292B251460620FFF792
:1038BC0052FCBAE5012298F800100220FFF7D5FB64
:1038CC0020210120FFF7BBFB41462020FFF77CFCA9
:1038DC00072241462020FFF78FFC4A465146022022
:1038EC00FFF739FCC2E7012298F800100320FFF71C
:1038FC00BCFB30210320FFF7A2FB41463020FFF731
:10390C0063FC072241463020FFF776FC4A465146BD
:10391C000320FFF720FC47E7184B1B782BB9052138
:10392C002846FFF783FCBDE8F08707212846FFF700
:10393C007DFCF8E702212846FFF778FCF3E764B139
:10394C000E4B1B7823B901212846FFF76FFCEAE7E1
:10395C0002212846FFF76AFCE5E7084B1B7823B1E8
:10396C0002212846FFF762FCDDE700212846FFF71D
:10397C005DFCD8E7680700205D0400205C04002093
:10398C0070B586B005460E4614462A4B1A5C012CBF
:10399C000BD0022C2DD0032C2FD0002A3CD0012A86
:1039AC003CD0022A2DD0244B02E001282BD0234BF3
:1039BC0023490978914233D093E803000490ADF881
:1039CC001410090C8DF816103046FFF77FFC1D4BB8
:1039DC001A6801AB1068516803C31189927A198077
:1039EC009A70234601AA04A92846FFF701FD06B0E8
:1039FC0070BD02280AD0114BDAE7032809D00F4B0F
:103A0C00D6E7114BD4E700220C4BD1E700220E4B2A
:103A1C00CEE70022084BCBE70C4BC9E7074BC7E7B7
:103A2C0093E803000490ADF814106C238DF8163055
:103A3C00CAE700BF580700204C8801083C880108E1
:103A4C00E90100205804002044880108348801084A
:103A5C0030B587B00D46144638B1012823D0022862
:103A6C0001D0124B02E0124B00E0124B93E8030022
:103A7C000490ADF814106C238DF816302846FFF71F
:103A8C0025FC0D4B1A6801AB1068516803C31189F2
:103A9C00927A19809A70234601AA04A90020FFF794
:103AAC00A7FC07B030BD054BE0E700BF4C88010810
:103ABC004488010834880108580400203C88010817
:103ACC0070B5F0B104465320FFF73CFA00F03F0606
:103ADC005E20FFF737FA00F03F05012C1CD0022CBA
:103AEC0025D0032C2ED05120FFF72CFA00F0080122
:103AFC001C4B1B788BB341F002015120FFF72CFAC1
:103B0C0009E0012200210846FFF7AFFA012200214B
:103B1C000420FFF7AAFA70BD46F040015320FFF7CE
:103B2C001BFA45F040015E20FFF716FADBE746F082
:103B3C0080015320FFF710FA45F080015E20FFF75B
:103B4C000BFAD0E746F0C0015320FFF705FA45F019
:103B5C00C0015E20FFF700FAC5E75120FFF7FCF922
:103B6C00D9E700BF5C04002008B50320FFF7A8FFCD
:103B7C0008BD10B5022404E02046FFF7A1FF013474
:103B8C00E4B2032CF8D910BD10B5012404E0204692
:103B9C00FFF796FF0134E4B2032CF8D910BD10B531
:103BAC00002404E02046FFF78BFF0134E4B2032C21
:103BBC00F8D910BD10B5C0B014468DF800008DF8C2
:103BCC00011019460DF1020004F0D6FC044B1878D4
:103BDC00A21C6B46D2B2FD21FFF7E8F940B010BD34
:103BEC00100000203F2805D870B54500EDB20E46F8
:103BFC00002413E07047A200A318590089B2224494
:103C0C0093009BB2C1F303203344142201F0FE0154
:103C1C0040F02000FFF7CEFF0134A4B2ABB2A342B8
:103C2C00E9D870BD38B505460C46A1B1012920D1A3
:103C3C0040B900211020FFF78FF90A219C20FFF7D3
:103C4C008BF916E001211020FFF786F90A219C2040
:103C5C00FFF782F90DE0C0B11020FFF773F960F0A7
:103C6C007E01C9B21020FFF777F900219C20FFF7E5
:103C7C0073F9224620210C48FFF765F823462A46A3
:103C8C000A49012003F008FE38BD1020FFF75AF94D
:103C9C0060F07F01C9B21020FFF75EF900219C2073
:103CAC00FFF75AF9E5E700BF0008014060880108FA
:103CBC0008B501212620FFF7A7F908BD10B5044669
:103CCC00F520FFF797F9074B195D0140F520FFF739
:103CDC009BF93520FFF78EF900F0DF013520FFF757
:103CEC0093F910BD988C010810B50446F520FFF728
:103CFC0081F9084B195D0143C9B2F520FFF784F92E
:103D0C003520FFF777F940F02001C9B23520FFF7D5
:103D1C007BF910BDA08C010808B5C0210720FFF766
:103D2C0073F91420FFF766F900F09F011420FFF7D8
:103D3C006BF900211320FFF767F904212620FFF708
:103D4C0063F9B2210620FFF75FF908BD08B52428F6
:103D5C0006D0252807D0262808D0FFF7A9FF08BDD4
:103D6C00FFF7A6FFFBE7FFF7D7FFF8E7FFF7D4FF56
:103D7C00F5E710B5044603E06178FFF745F9023426
:103D8C002078FF28F8D13220FFF728F910BD38B57C
:103D9C0004460D4604E015F8011BFFF735F9013414
:103DAC002078FF28F7D13220FFF718F938BD08B575
:103DBC0001464020FFF728F908BD000070B5064603
:103DCC009B4B1B5C262B00F2F880DFE813F0750090
:103DDC00870027006D009900A200F600F600B400E1
:103DEC00AB00F600F6007E009000F600F600F60040
:103DFC00F600F600F600F600F600F600F600F60007
:103E0C00F600F600F600F600F600F600F600BD002F
:103E1C00C500CD00D500DD00E500ED000124854B8B
:103E2C001C70854804F0BCFB2546844804F02CFC2F
:103E3C00834804EB440399000144FFF7A8FF7C4B33
:103E4C009B5D022B00F0BC807E4B1B78262B00F078
:103E5C00BC80252B00F0C180242B00F0C680794B50
:103E6C001B782F2B00F0CA80764B1B78272B00F089
:103E7C00D080012D00F0D8803046FFF735FF0021AF
:103E8C001320FFF7C1F81420FFF7B4F800F09F01DE
:103E9C001420FFF7B9F80220FFF7ACF800F07F010F
:103EAC000220FFF7B1F870BD0125624B1D7066480A
:103EBC0004F076FB0224B8E75E4B00221A706348CC
:103ECC0004F06EFB01250324AFE75A4B00221A7055
:103EDC005F4804F065FB02250B24A6E7554B002236
:103EEC001A705C4804F05CFB012504249DE7514BDF
:103EFC0000221A70584804F053FB02250C2494E756
:103F0C004C4B00221A70554804F04AFB012505243D
:103F1C008BE7484B00221A70514804F041FB0125F5
:103F2C00062482E7434B03221A704E4804F038FBF8
:103F3C000425082479E73F4B02221A704A4804F002
:103F4C002FFB0325072470E701253A4B1D704748CA
:103F5C0004F026FB092468E70125364B1D70444804
:103F6C0004F01EFB0A2460E70125324B1D7041480A
:103F7C0004F016FB0D2458E701252E4B1D703E480E
:103F8C0004F00EFB0E2450E701252A4B1D703B4814
:103F9C0004F006FB0F2448E70125264B1D7038481A
:103FAC0004F0FEFA102440E7224B00221A70354828
:103FBC0004F0F6FA0125112437E701252C4634E7E5
:103FCC00CE211620FFF720F83EE72F4805EBC5035E
:103FDC0059000144FFF7DBFE41E72C48C5EBC50354
:103FEC0059000144FFF7D3FE39E7294805EB450199
:103FFC0005EB81010144FFF7CAFE30E7254804F0C8
:10400C0043FB254805EB850399000144FFF7BFFEF0
:10401C002AE7224804F038FB214805EB8503990078
:10402C000144FFF7B4FE24E73046FFF747FE26E7CE
:10403C00C404002074040020A88C0108348D0108ED
:10404C00688D010803050020B08C0108B88C0108AC
:10405C00C08C0108CC8C0108D48C0108E08C0108C0
:10406C00E88C0108F08C0108F48C0108FC8C010828
:10407C00048D01080C8D0108148D01081C8D01089C
:10408C00248D01082C8D0108609301080C92010805
:10409C00889201083C8D01086C910108508D010833
:1040AC000490010810B5274B1B5C0D2B47D8DFE89B
:1040BC0003F00D070B0946464646464646460D0795
:1040CC00022404E0042402E0032400E00124FFF7AE
:1040DC0075FE1D4B1B78262B13D0A3F12402D2B2F4
:1040EC00012A16D92F2B1AD0272B20D01420FEF7FB
:1040FC0081FF40F04A01C9B21420FEF785FF20462B
:10410C0010BD124804EB840359000144FFF73FFE35
:10411C00ECE70F4800EBC401FFF739FEE6E70D486A
:10412C0004EB440399000144FFF731FEDEE70A4833
:10413C0004EB440399000144FFF729FED6E7002461
:10414C00DDE700BFC404002003050020E89201084D
:10415C00E4910108CC900108648F010810B5264B3E
:10416C001B5C0D2B46D8DFE803F00D070B0945450A
:10417C004545454545450D07022404E0042402E06D
:10418C00032400E00124FFF719FE1C4B1B78262B9F
:10419C000ED0A3F12402D2B2012A12D92F2B19D09E
:1041AC00272B1FD040211320FEF72EFF204610BDD9
:1041BC00134804EB440104EB81010144FFF7E7FDD4
:1041CC00F0E70F4804EB440104EB81010144FFF7D5
:1041DC00DEFDE7E70B4804EB840399000144FFF78D
:1041EC00D6FDDFE7084804EB840399000144FFF790
:1041FC00CEFDD7E70024D9E7C40400200305002036
:10420C001C93010808910108A08F010838B50546D8
:10421C0002212F20FEF7F8FE0420FEF7EBFE0446E9
:10422C000420FEF7E7FE04440420FEF7E3FE0444FA
:10423C000420FEF7DFFE0444640804F4FC742A46F0
:10424C0021460B4804F0ACF904F0F8010820FEF705
:10425C00DBFE0620FEF7CEFE00F0F900E10901F0CE
:10426C000201014341F004010620FEF7CDFE38BDEA
:10427C00708C010808B500212F20FEF7C5FE042024
:10428C00FEF7B8FE08BDF8B5064606212F20FEF74E
:10429C00BBFE0420FEF7AEFEB04243D204461E27FE
:1042AC0017E045F080010720FEF7AEFED5B30820DD
:1042BC00FEF794FE06212F20FEF7A6FE0420FEF743
:1042CC0099FE0446731C984214DCA31B0133022B89
:1042DC0028D93FB3013FFFB20720FEF78BFE00F059
:1042EC003F05B442DDD0002DDBD0013DEDB20134F1
:1042FC00E4B2F6E70720FEF77DFE00F03F00841CD9
:10430C003F2C00D93F2444F080010720FEF77CFEAF
:10431C003F2C07D00820FEF761FE0420FEF76AFE52
:10432C000446D2E7F8BD10B54420FEF763FE044600
:10433C0040F04001C9B24420FEF766FE04F0BF0114
:10434C004420FEF761FE10BD38B5644B88221A700C
:10435C000024032C0DD8FE20FEF74CFE282808D094
:10436C005E4A13780133DBB2013313700134E4B2CB
:10437C00EFE7FF20FEF73EFE594C2070FD20FEF7C4
:10438C0039FE00F00702574B1A702178564804F09A
:10439C0007F90023554A1360554A1360554A1360B8
:1043AC002378023B252B70D8DFE803F0136F136FD3
:1043BC006F6F6F6F6F6F6F6F6F6F6F6F6F6F6F6F01
:1043CC006F6F6F6F6F6F6F6F6F6F6F6F1334446FB3
:1043DC004B5F494804F058F9484CFFF7A4FF2046BE
:1043EC00FFF7C7FC424B1B68002B55D1444B0322F3
:1043FC001A705A709A70DA7004214020FEF704FE8D
:10440C000020FFF7DBFC3F4B01221A700024002C2C
:10441C0046D038BD0123354A1360354A1360314B01
:10442C001B78012B01D0384CD7E72D4B25221A7065
:10443C00364CD2E701232D4A13602D4A1360344CBD
:10444C00CBE70123294A1360294A1360254B1B78BB
:10445C00012B05D0F3B9274B01221A602D4CBCE778
:10446C001F4B2F221A702C4CB7E701231F4A1360E5
:10447C001F4A13601B4B1B78042B01D01F4CACE75D
:10448C00264804F001F91D4CA7E7254804F0FCF878
:10449C001A4CA2E71F4CA0E72248FFF76AFCA5E7DD
:1044AC000023214A1355214A1355214A1355072538
:1044BC00134B1D5501200BF0EBFA1E4B1D701E4BC0
:1044CC0014221A701D4B1B78012B02D00134E4B25C
:1044DC009DE701210846FFF7A5FBF7E7D004002074
:1044EC0003050020F4040020308C0108CC040020CB
:1044FC0078040020A00400204C8C01084C8F01088B
:10450C00C4040020020500204C8E0108D091010843
:10451C0078920108CC920108B4900108548C0108DF
:10452C00648C010854920108F804002098040020BF
:10453C00700400201C000020200000201E01002020
:10454C0030B4044600200125072102460BE044FA52
:10455C0001F32B405BB20343D8B26D00EDB20239CC
:10456C00C9B20132D2B2032AF1D980250721002227
:10457C000AE004FA01F32B405BB20343D8B26D0896
:10458C000239C9B20132D2B2032AF2D930BC704717
:10459C006D4B1A786D4B1A706D4B1A786D4B1A70F7
:1045AC006D4B1B78172B30D0062B37D0072B3CD0FC
:1045BC00092B41D0082B46D00A2B4BD00C2B50D0BA
:1045CC000B2B55D00D2B5AD00F2B5FD00E2B64D04C
:1045DC00112B69D0102B6ED0132B73D0122B78D0DB
:1045EC00142B7DD0212B00F08580222B00F08980AC
:1045FC00232B00F08D80242B00F09180252B00F0D4
:10460C009580262B00F0998070470023534A137035
:10461C00534A072111704D4A137070474F4B0022BB
:10462C001A704F4B08221A7070474C4B00221A70AC
:10463C004B4B10221A707047484B00221A70484B93
:10464C0004221A707047454B00221A70444B022208
:10465C001A707047414B00221A70414B0C221A7091
:10466C0070473E4B00221A703D4B0A221A7070475D
:10467C003A4B00221A703A4B14221A707047374B7F
:10468C0000221A70364B12221A707047334B0222DA
:10469C001A70334B00221A707047304B04221A7078
:1046AC002F4B00221A7070472C4B01221A702C4B86
:1046BC0000221A707047294B00221A70284B802256
:1046CC001A707047254B00221A70254B20221A7045
:1046DC007047224B00221A70214B40221A707047EF
:1046EC0000231E4A13701E4A1370184A1370194A7D
:1046FC0013707047194B00221A70194B03221A7051
:10470C007047164B00221A70154B07221A7070470F
:10471C00124B00221A70124B07221A7070470F4B63
:10472C0000221A700E4B07221A7070470B4B022294
:10473C001A700B4B00221A707047084B00221A702B
:10474C00074B07221A705FE701050020FD040020CB
:10475C0073040020C2040020D8040020FC040020B4
:10476C0071040020B54B1B78162B40F2BA832DE94F
:10477C00F04182B0B24B1E78022E02D002B0BDE8DE
:10478C00F0810420FFF713FB0120FEF727FCB62075
:10479C00FEF730FC0746B520FEF72CFCB420FEF7E4
:1047AC0029FC17F0F00F1AD017F0800F5FD117F01B
:1047BC00400F04D0A14B9B78162B00F2BB8017F056
:1047CC00200F04D09D4B5B78162B00F2128117F052
:1047DC00100F04D0994B1B78162B00F28D81994B3E
:1047EC001B68012BCAD1984B1C78984B1D5D002D72
:1047FC0040F01B82964B1B5D083BDBB2012B00F299
:10480C004D82944B1F78944B93F80080934B1B78FC
:10481C000F2B00F0D1810E2B00F0CD81102B00F06E
:10482C001582112B00F01482122B00F01482132B22
:10483C0000F01482062B00F01482072B00F0148277
:10484C00092B00F01482082B00F014820A2B00F0C4
:10485C0015820C2B00F015820B2B00F015820D2B02
:10486C0000F01582172B00F015822E46A4E1734B35
:10487C00DB78162B9BD90320FFF799FA00258A24A5
:10488C0008E02046FEF7B6FB754B58550135EDB2E6
:10489C000134E4B2A12CF4D90021A720FEF7B4FB1B
:1048AC008321A720FEF7B0FB002305E05A1C6C49BE
:1048BC00885C6C49C854D3B2042BF7D9052306E0A5
:1048CC009A1C6749895C674AD1540133DBB2092BC6
:1048DC00F6D9654803F064FE002406E0614B195DCF
:1048EC00624803F05DFE0134E4B2052CF6D95D4C50
:1048FC00617A5E4803F054FEE378612B7FF457AF86
:10490C00637A9E2B7FF453AF594B197841F0080111
:10491C001970584803F044FE2379382B7FF447AFC5
:10492C006379022B7FF443AF514A137823F00803C9
:10493C0013703CE70220FFF73AFA00258A2408E0BE
:10494C002046FEF757FB464B58550135EDB2013466
:10495C00E4B2A12CF4D90021A720FEF755FB83214A
:10496C00A720FEF751FB002305E05A1C3C49885C4C
:10497C004149C854D3B2042BF7D9052306E09A1C3D
:10498C003749895C3C4AD1540133DBB2092BF6D947
:10499C003A4803F005FE002406E0374B195D334816
:1049AC0003F0FEFD0134E4B2052CF6D9324C617AE9
:1049BC002E4803F0F5FDE378612B7FF400AF637AAA
:1049CC009E2B7FF4FCAE2A4B197841F00401197030
:1049DC00284803F0E5FD2379382B7FF4F0AE63799A
:1049EC00022B7FF4ECAE224A137823F004031370ED
:1049FC00E5E60120FFF7DBF900258A2408E02046D4
:104A0C00FEF7F8FA164B58550135EDB20134E4B205
:104A1C00A12CF4D90021A720FEF7F6FA8321A720B8
:104A2C00FEF7F2FA002305E05A1C0D49885C144984
:104A3C00C854D3B2042BF7D905232AE0F80400207C
:104A4C0098040020D40400204101002070040020B0
:104A5C00C40400200105002073040020D8040020A9
:104A6C00A804002060040020748B01087C8B0108D2
:104A7C0042010020848B0108E8040020988B010877
:104A8C007C0400209A1CB749895CB74AD154013385
:104A9C00DBB2092BF6D9B54803F082FD002406E001
:104AAC00B14B195DB24803F07BFD0134E4B2052C27
:104ABC00F6D9AD4C617AAE4803F072FDE378612B08
:104ACC007FF485AE637A9E2B7FF481AEA94B197867
:104ADC0041F002011970A84803F062FD2379382BCC
:104AEC007FF475AE6379022B7FF471AEA14A137813
:104AFC0023F0020313706AE60020FFF758F9002533
:104B0C008A2408E02046FEF775FA964B5855013575
:104B1C00EDB20134E4B2A12CF4D90021A720FEF7A8
:104B2C0073FA8321A720FEF76FFA002305E05A1CC5
:104B3C008C49885C9149C854D3B2042BF7D905230E
:104B4C0006E09A1C8749895C8C4AD1540133DBB24C
:104B5C00092BF6D98A4803F023FD002406E0874B85
:104B6C00195D834803F01CFD0134E4B2052CF6D921
:104B7C00824C617A7E4803F013FDE378612B7FF45D
:104B8C002EAE637A9E2B7FF42AAE7A4B197841F0C5
:104B9C0001011970784803F003FD2379382B7FF459
:104BAC001EAE6379022B7FF41AAE724A137823F08F
:104BBC000103137013E604263046FFF7C1FC0646CA
:104BCC002846FFF7BDFC05463846FFF7B9FC0746FB
:104BDC004046FFF7B5FC80462046FFF7E8F8314623
:104BEC005A20FEF711FA29465920FEF70DFA3946DC
:104BFC006020FEF709FA41465F20FEF705FA6121B5
:104C0C006F20FEF701FA0A20FEF7E8F960216F2009
:104C1C00FEF7FAF9CDF800803B462A463146594852
:104C2C0003F0BEFC584B00221A60584B1878584BB6
:104C3C001B5C022B5BD0554B1B78554AD35C012B6C
:104C4C0000F00981504B00221A6097E50126B3E76A
:104C5C002E468025B0E72E464025ADE72E46202572
:104C6C00AAE72E460825A7E72E461025A4E72E46D0
:104C7C000425A1E733462E461D469DE72E460C25FE
:104C8C009AE72E460A2597E72E46142594E72E46DA
:104C9C00122591E72F462E4607258DE72046FFF774
:104CAC0086F83C4C21785920FEF7AEF93A4D29781C
:104CBC005A20FEF7A9F9394E31785D20FEF7A4F998
:104CCC00374B19786020FEF79FF941216F20FEF7D2
:104CDC009BF90A20FEF782F940216F20FEF794F928
:104CEC0033782A7821782F4803F05AFC9AE7FFF79B
:104CFC005EF8A5216E20FEF787F902216E20FEF7E3
:104D0C0083F9244B1B78063B092B00F29380DFE8D8
:104D1C0003F04D5E806F91919191910550216E2021
:104D2C00FEF772F900216E20FEF76EF900216E205D
:104D3C00FEF76AF900216E20FEF766F949216F2013
:104D4C00FEF762F90520FEF749F948216F20FEF7BE
:104D5C005BF90D4B00221A600E4B1978124803F0C8
:104D6C001FFC68E7A80400207C040020A08B01082D
:104D7C007C8B010842010020848B0108DC0400209C
:104D8C00A88B0108B08B0108D4040020410100203D
:104D9C0070040020D80400207304002001050020BA
:104DAC0072040020C88B0108DC8B010808216E20DE
:104DBC00FEF72AF900216E20FEF726F9FF216E205E
:104DCC00FEF722F900216E20FEF71EF9B6E704214A
:104DDC006E20FEF719F900216E20FEF715F9FF2160
:104DEC006E20FEF711F900216E20FEF70DF9A5E7F4
:104DFC0002216E20FEF708F9FF216E20FEF704F960
:104E0C0000216E20FEF700F900216E20FEF7FCF861
:104E1C0094E701216E20FEF7F7F8FF216E20FEF7D4
:104E2C00F3F800216E20FEF7EFF800216E20FEF75C
:104E3C00EBF883E700216E20FEF7E6F800216E20E8
:104E4C00FEF7E2F800216E20FEF7DEF800216E205E
:104E5C00FEF7DAF872E7FFF79BFB224B1878FEF7A8
:104E6C00A6FF214D2878FFF76BFB01465A20FEF771
:104E7C00CBF81E4E3078FFF763FB01466020FEF73F
:104E8C00C3F81B4F3878FFF75BFB01466620FEF733
:104E9C00BBF8184C2078FFF753FB01466C20FEF74B
:104EAC00B3F845216F20FEF7AFF80520FEF796F812
:104EBC0044216F20FEF7A8F80F4B00221A600F4B0D
:104ECC001B780F4A12780F4909780F4802F0C8FC7A
:104EDC003B7832782978207800900C4802F0C0FC9E
:104EEC00B0E6704741010020FC0400207104002052
:104EFC00FD040020C2040020D40400200105002081
:104F0C0073040020D8040020E88B0108008C0108F1
:104F1C00074B0F221A700023064A1370064A1370AF
:104F2C00064BC5221A70064B01221A60704700BF4F
:104F3C00D804002073040020010500207204002016
:104F4C00D404002008B5444803F02AFB0421402077
:104F5C00FEF75AF88321A720FEF756F88021BE20D1
:104F6C00FEF752F842216F20FEF74EF840217020D8
:104F7C00FEF74AF820217120FEF746F80021722036
:104F8C00FEF742F80021C020FEF73EF80021C120B8
:104F9C00FEF73AF80B21C220FEF736F80C21C3209D
:104FAC00FEF732F80D21C420FEF72EF80E21C52095
:104FBC00FEF72AF81921C620FEF726F87821C7201B
:104FCC00FEF722F82121C820FEF71EF80721CB207E
:104FDC00FEF71AF80821CC20FEF716F80921CD208F
:104FEC00FEF712F80A21CE20FEF70EF80421CF208E
:104FFC00FEF70AF80021D020FEF706F80021D12098
:10500C00FEF702F86021D220FDF7FEFF1021D3201D
:10501C00FDF7FAFF0621D420FDF7F6FFBE21D520BF
:10502C00FDF7F2FF3921D620FDF7EEFF2721D7201F
:10503C00FDF7EAFF0E21C220FDF7E6FF0F21C3208A
:10504C00FDF7E2FF1021C420FDF7DEFF1121C52082
:10505C00FDF7DAFF08BD00BF188C0108F0B583B06E
:10506C0000240CB103B0F0BD2046FEF7A0FE0120D9
:10507C00FDF7C0FF064610F0800F34D12546A44B37
:10508C001B5D083BDBB2012B5CD9A24B60221A7072
:10509C00A04B1B78B34359D09F4B5B5D002B78D052
:1050AC00022B00F081809D4A525DFF2A02D0013212
:1050BC009A494A55032B23D1984B5B5D022B1FD980
:1050CC00954B01225A55954B00225A552146944B2B
:1050DC001878FEF73BFE2946924803F061FA204609
:1050EC000AF0D6FC0CE08C4B1B5DB3B18E4B1B78DD
:1050FC00012B1AD0FFF728F98B4B1B78012B1DD0F5
:10510C002546854B1B5D012B59D0834B5B5D022BD8
:10511C0000F0CC800134E4B2A3E7804B1B5DFF2B85
:10512C00F8D001337D490B55F4E701210846FEF711
:10513C0079FD00213220FDF70FFFDBE70120FCF7A2
:10514C0039F8DDE7734B60221A70A1E7724B5B5D97
:10515C00022B0BD093B9704B01225A556F4B002286
:10516C005A552946714803F01BFAC9E76B4B5B5D36
:10517C00FF2BC5D00133694A5355C1E7664B022258
:10518C005A55664B00225A552946694803F008FACD
:10519C00B6E7614B01225A55604B00225A552946FD
:1051AC00644803F0FDF9ABE75B4B03225A555B4BAC
:1051BC0000225A552946604803F0F2F9A0E7032073
:1051CC00FDF718FF00F008025C4B1A6000F00702B4
:1051DC004F4B1F5D062A11D0042A18D0052A4FD038
:1051EC00022A1ED03ABB564B1B68002B49D04B4BA6
:1051FC005B5D13F0020F44D0262242E0514B1B683A
:10520C00002BE9D016F0040F34D0092239E04C4BB6
:10521C001B688BB3414B5B5D13F0020F2ED10C223C
:10522C002FE0474B1B6863B33C4B5B5D13F0020FE5
:10523C0027D0232225E0032A23D9414B1B680BB925
:10524C003A461EE009212F20FDF7DEFE0420FDF773
:10525C00D1FEA0F14903DBB20B2B21D9A0F15603EF
:10526C00DBB20B2B1ED9A0F17103DBB20E2B1BD9B9
:10527C003A4606E0082204E00C2202E0242200E078
:10528C000D22234B5B5D93423FF43FAF204B5A55AD
:10529C0029462D4803F084F92046FEF78FFD34E7AC
:1052AC002022EEE72222ECE72522EAE71B4B5B5D8E
:1052BC00002B7AD1254B00225A55254B1C70144BD0
:1052CC005B5D0C3BDBB2012B50D9A4F10A00214BE6
:1052DC00595DC0B2FDF798FE114B1B782F2B54D0A3
:1052EC001D4B595DF720FDF78FFE1C4B595DFA20C5
:1052FC00FDF78AFE1A4B1B781A4A11788B423FF441
:10530C0009AF174B1970184803F04AF902E700BFB0
:10531C00C4040020C304002098040020F8040020DA
:10532C0003050020748901081E010020188901085A
:10533C002C8901084489010858890108C8040020F7
:10534C00A0040020CC0400209089010870040020E7
:10535C006C0400208C8C0108908C0108948C010842
:10536C000205002074040020AC8901080320FDF71D
:10537C0041FE10F0080FA8D1BA4A535D23F0080380
:10538C0053552046FEF71AFD9FE7B74B595DF820A1
:10539C00FDF73AFEB54B5D5D2946FA20FDF734FE6C
:1053AC002946FB20FDF730FEA4E7012B7ED0022B13
:1053BC0000F0B880032B00F0F380062B40F2428102
:1053CC00132B40F27181142B00F09281152B00F0FD
:1053DC002482162B7FF49EAEA54B5B5D9BBBA14B31
:1053EC005B5D083BDBB2012B40F23282A148FEF739
:1053FC00C0FC9C4B5B5D023BDBB2012B40F22A8272
:10540C0021464020FDF700FE8021BE20FDF7FCFD6B
:10541C00B620FDF7EFFDB520FDF7ECFDB420FDF750
:10542C00E9FD0021A720FDF7EFFD0120FDF7D6FDDA
:10543C008321A720FDF7E8FD8A4B5B5D023BDBB2C5
:10544C00012B40F20C828A4B5B5D012B00F00E822B
:10545C00874B5B5D022B7FF45DAE8748FEF789FCC2
:10546C0021464020FDF7D0FD8021BE20FDF7CCFD6C
:10547C00B620FDF7BFFDB520FDF7BCFDB420FDF750
:10548C00B9FDA420FDF7B6FDA220FDF7B3FDA320C6
:10549C00FDF7B0FD0021A720FDF7B6FD0120FDF7BB
:1054AC009DFD8321A720FDF7AFFD33E6734B1B78E1
:1054BC00232B7FF62FAE0120FDF79CFD06460146FF
:1054CC006F4803F06DF8674B595DA1F10803DBB22F
:1054DC00012B23D906F06406602E7FF41BAE0B1F44
:1054EC00DBB2012B7FF616AE0C293FF413AE0D295F
:1054FC003FF410AE00293FF40DAE01293FF40AAE83
:10550C002046FEF72BFE00283FF404AE584B022237
:10551C005A5529465B4803F043F8FBE55A4803F01B
:10552C003FF8F7E5554B1B78232B7FF6F3AD0120A5
:10553C00FDF760FD06460146514803F031F8494B32
:10554C00595DA1F10803DBB2012B25D906F011033B
:10555C00102B03D0464B5B5D022B0FD016F0040FC3
:10556C007FF4D8AD0B1FDBB2012B07D90C2905D06A
:10557C000D2903D011B101297FF4CCAD2046FEF7E3
:10558C0091FD00283FF4C6AD394B01225A552946EE
:10559C003E4803F005F8BDE53B4803F001F8B9E5DA
:1055AC00364B1B78232B7FF6B5AD0120FDF722FD82
:1055BC0006460146324802F0F3FF2A4B595D8B1E1A
:1055CC00DBB2012B24D9012B29D90B1FDBB2012B08
:1055DC0006D90C2904D00D2902D009B1012906D114
:1055EC0016F0040F03D1224B5B5D012B22D0A1F1ED
:1055FC000803DBB2012B21D916F0010F3FF48AAD61
:10560C002046FEF7DBFB2946214802F0C9FF81E565
:10561C0016F0040FD7D11F4802F0C2FF7AE516F03E
:10562C00040FD2D0124B5B5D002BCED11A4802F086
:10563C00B7FF6FE5194802F0B3FF6BE5184802F0AD
:10564C00AFFF67E5174E06EB85039A78DA705A7848
:10565C009A7016F825205A70FEF70CFE06F82500F5
:10566C0058E500BFC4040020908C0108948C0108FC
:10567C007004002068900108088F010803050020C1
:10568C00C4890108E4890108D4890108F889010852
:10569C007C8A01080C8A0108288A0108448A0108BE
:1056AC00688A01089C040020864F07EB8506B378B6
:1056BC00F3707378B37017F825307370FEF7DAFD5A
:1056CC0007F82500F3781B1A0133022B3FF622ADA5
:1056DC00B3781B1A0133022B3FF61CAD73781B1ADF
:1056EC000133022B3FF616AD774B13225A5511E5B9
:1056FC00FEF7C0FD0646754B5B5D754F7A5D0092FB
:10570C002A460146734802F04BFF7B5D9A1ED2B2CB
:10571C00012A12D9012B3CD91A1FD2B2012A3CD929
:10572C00A3F10C02D2B2012A3BD9082B3DD0092B94
:10573C003FD1694B01225A5502E0674B06225A555C
:10574C00654B5A5D654B1A70654B1B78012B34D039
:10575C00614B5A5D634B5B5D9A4205D0624B1B7883
:10576C002946624802F01CFF584B5B5D5BBB604BEB
:10577C001B78243BDBB2012B38D9554B5B5D082BD6
:10578C0043D0092B45D040F61D115A4802F008FFB2
:10579C00C0E4514B05225A55D2E74F4B05225A55BE
:1057AC00CEE74D4B05225A55CAE74B4B00225A55B2
:1057BC00C6E7494B14225A55C2E740214FF47A7080
:1057CC0002F000F9C4E7B10861F07F01C9B207200B
:1057DC00FDF71AFC3D4B5B5D012B03D0464802F0F4
:1057EC0053FF97E4454802F04FFF93E4384B5B5D61
:1057FC0013F0200FC1D00321B6FBF1F161F07F0152
:10580C00C9B20720FDF700FCB7E73D4802F03CFFAA
:10581C0080E43C4802F038FF7CE42C4B5B5D83B9A0
:10582C00334B1B78243BDBB2012B3FF673AC284B7C
:10583C005B5D13F0200F3FF46DAC1620FEF723FDDB
:10584C0068E42046FEF7E2FC0C20FEF71CFD61E448
:10585C002D48CCE51921C620FDF7D6FBD0E52B4B06
:10586C001C7029462A4802F09BFEECE5FFF76AFB08
:10587C002848FEF77EFA21464020FDF7C5FB04219F
:10588C004020FDF7C1FB8021BE20FDF7BDFBB620FB
:10589C00FDF7B0FBB520FDF7ADFBB420FDF7AAFB7F
:1058AC002421A720FDF7B0FB0120FDF797FBA721D2
:1058BC000846FDF7A9FB154B1978174802F070FE46
:1058CC00C6E500BF9C040020F804002070040020F2
:1058DC00C4040020908A0108200000201C00002035
:1058EC001E01002060070020E8000020BC8A01088F
:1058FC00030500203C8B0108088B0108FC8A010879
:10590C00148B0108288B0108C48E0108410100206A
:10591C00508B0108648E01085C8B0108044B1A78CB
:10592C00044B1B789A4201D001207047002070472D
:10593C004601002047010020044B1A78044B1B78C9
:10594C009A4201D00120704700207047440100208A
:10595C0045010020064A13780649C85C0133DBB2C6
:10596C0013701D2B02D9134600221A70704700BF0A
:10597C004701002040050020064A13780649C85C00
:10598C000133DBB21370C72B02D9134600221A70F5
:10599C00704700BF450100208005002000B583B092
:1059AC0002A901F8010D4FF6FF7301220248FCF722
:1059BC00B5FB03B05DF804FB7003002000B583B0A9
:1059CC0002A901F8010D4FF6FF7301220248FCF702
:1059DC00A5FB03B05DF804FBF403002000B583B015
:1059EC00194B1A786AB9194B1A78D2B9184B1A781C
:1059FC0012BB184B1A78184B1978184801F030FF65
:105A0C000CE0124B1B78144909781248007801906D
:105A1C000F4800780090124801F022FF03B05DF8A7
:105A2C0004FB0B4B1B780C4909780A480078009052
:105A3C000C4801F015FFF1E7064B1B780649097875
:105A4C00094801F00DFFE9E74C0100205801002046
:105A5C00590100205A01002028000020F09801086C
:105A6C009C980108BC980108D898010808B5FFF764
:105A7C0095FF08BD0246A0F13003D8B2092812D90F
:105A8C00A2F16103DBB2052B08D9A2F14103DBB211
:105A9C00052B07D8A2F13700C0B27047A2F157000E
:105AAC00C0B270470020704738B50546002404E0AA
:105ABC002401FFF7DFFF04440135287808B12028C2
:105ACC00F6D1E0B238BDA0F16103DBB2192B01D8DD
