:020000040800F2
:100000000050002069820008B9160008BB160008DD
:10001000BD160008BF160008C11600080000000049
:10002000000000000000000000000000C3160008EF
:10003000C516000800000000C7160008C916000811
:10004000B1820008B1820008B1820008B1820008C4
:10005000B1820008B1820008B1820008B1820008B4
:10006000D1160008B1820008B1820008B1820008F0
:10007000B1820008B1820008B1820008B182000894
:10008000B1820008B1820008B1820008B182000884
:10009000B1820008B1820008B1820008B182000874
:1000A000B1820008B1820008B1820008B182000864
:1000B000B1820008DD160008B1820008B182000894
:1000C000B1820008B1820008B1820008B182000844
:1000D000B1820008ED160008FD160008B182000884
:1000E000B1820008B1820008B1820008000000005F
:1000F0000000000000000000000000000000000000
:0C01000000000000000000005FF808F1A3
:10010C0010B5054C237833B9044B13B10448AFF345
:10011C0000800123237010BDF400002000000000BB
:10012C007C1F010808B5034B1BB103490348AFF30F
:10013C00008008BD00000000F80000207C1F0108B2
:10014C00002902D0B0FBF1F0704708B14FF0FF303E
:10015C0000F01EB80029F8D00246B0FBF1F000FB0D
:10016C0011217047002902D090FBF1F07047002854
:10017C00C8BF6FF00040B8BF4FF0004000F008B8A7
:10018C000029F4D0024690FBF1F000FB11217047DE
:10019C00704700BFF0B589B000250495059506950C
:1001AC0007952E4B9A6942F004029A619A6902F003
:1001BC0004020092009A9A6942F008029A619A69C4
:1001CC0002F008020192019A9A6942F010029A61B7
:1001DC009A6902F010020292029A9A6942F0200285
:1001EC009A619B6903F020030393039B1C4F01222C
:1001FC004FF48051384602F0A2FD202304930124D1
:10020C00059406940226079604A9384602F0A4FC2D
:10021C0010230493059506940DEB0301384602F068
:10022C009BFC4FF4E053049305940694079604A9A1
:10023C000C4802F091FC04960594069407960A4E1D
:10024C0004A9304602F088FC4923049305950694D2
:10025C0004A9304602F080FC09B0F0BD0010024049
:10026C0000080140000C01400010014030B587B07F
:10027C0000240294039404940594009401940E4D6C
:10028C000E4B2B6023236B60AC600923EB602C615D
:10029C008023AB61284601F0AFFC4FF480530293EE
:1002AC0002A9284601F06DFD009401946946284688
:1002BC0001F002FE07B030BD0C030020000400402A
:1002CC0008B50848084B03604FF4E1334360002342
:1002DC008360C36003610C2242618361C36101F0DE
:1002EC00EAFE08BD7C0300200038014008B5084830
:1002FC00084B03604FF41643436000238360C360D4
:10030C0003610C2242618361C36101F0D4FE08BD1C
:10031C00000400200044004000B583B000238DF899
:10032C0007300DF106010DF1070011F00BFE0E4B1D
:10033C001B78042B03D00D4A1278934208D00B4B38
:10034C001B789DF807100A4AD15403B05DF804FBE2
:10035C00084B1B789DF807008342F0D0054B1870B2
:10036C0009F0E6FAEBE700BF38010020D1060020C7
:10037C00300100200502002010B50138012809D8F1
:10038C0014464FF47A7392B2074801F0C3FE40B1A1
:10039C00002010BD07F088FF092303604FF0FF30E9
:1003AC00F7E72046F5E700BF7C03002038B55B4B30
:1003BC001870042820D8DFE800F02044688C030073
:1003CC00574D01224021284602F0B9FC554C012220
:1003DC002021204602F0B3FC01221021204602F01D
:1003EC00AEFC01220821204602F0A9FC01224FF4A8
:1003FC000041284602F0A3FC38BD494D01224021A2
:10040C00284602F09CFC474C00222021204602F09A
:10041C0096FC01221021204602F091FC01220821B9
:10042C00204602F08CFC01224FF40041284602F0D9
:10043C0086FC3D4C207809F07BFA22783B4B1A70F5
:10044C00DAE7374D01224021284602F078FC354C82
:10045C0001222021204602F072FC002210212046AD
:10046C0002F06DFC01220821204602F068FC0122FA
:10047C004FF40041284602F062FC2B4C607809F0E6
:10048C0057FA6278294B1A70B6E7254D00224021A5
:10049C00284602F054FC234C01222021204602F075
:1004AC004EFC01221021204602F049FC00220821BA
:1004BC00204602F044FC01224FF40041284602F091
:1004CC003EFC194CA07809F033FAA278174B1A703D
:1004DC0092E7134D00224021284602F030FC114CCB
:1004EC0001222021204602F02AFC01221021204664
:1004FC0002F025FC01220821204602F020FC0022FB
:10050C004FF40041284602F01AFC074CE07809F041
:10051C000FFAE278054B1A706EE700BF3801002025
:10052C0000080140000C01403001002005020020B1
:10053C0010B50446012809D001220821064802F012
:10054C00FEFB2146054807F0DFF810BD002208210C
:10055C00014802F0F4FBF4E70010014034200108DC
:10056C0030B583B0002458E06E4B1B78142B03D0AD
:10057C006D4B01221A555CE06B4B00221A5558E06A
:10058C0020460FF047F9631C009340F2AC43674AD6
:10059C006749684807F0C6FE674BDB794BB101220F
:1005AC00664B1A60002366490B6066490A70664AFE
:1005BC001370664B1B7814226549CA546549CA549A
:1005CC00654A127802B91BB10120FFF7B1FF44E074
:1005DC000121002003F022FBF6E7012C05D0284670
:1005EC0011F0BEFB5A4B58553DE04E4B1A78584B08
:1005FC005A5538E0554B1B78012B4CD10121192051
:10060C0002F0A6FC47E0544B1B78012B79D04F4BE2
:10061C001B78002B7FD00134E4B2012C7FD84B4BDC
:10062C001C70012CA0D011F09FFC484B1B783E4A4B
:10063C00D054464B1B78494AD15C494AD25C914212
:10064C0001D04649CA54384AD25C4649C95C8A42F0
:10065C0003D04449CA54002A92D03C4B1D78324BEB
:10066C005B5D012BB9D0394B1B78394AD25C3949C7
:10067C00C95C8A42CFD03749CA54142ACBD02546FC
:10068C002D4B1A78324B195D20460EF037FF324B4A
:10069C001B78012BAED0344B33F81530334A32F87B
:1006AC001520334931F81510324830F815000090F8
:1006BC0020460FF0DFFC264B5B5D01930135009566
:1006CC0040F2D943194A1A492B4807F02BFE1A4B12
:1006DC00DB794BB10122194B1A60002318490B60CE
:1006EC0018490A70184A13701B4B1B78002B8AD1BF
:1006FC00164B1B78002B86D10021084603F08EFA8E
:10070C0081E7124B1B78012B81D140214FF47A7079
:10071C0007F0ACF87BE70020FFF70AFF7BE703B09C
:10072C0030BD00BF200000202C010020FC2001085F
:10073C00A81F0108B41F0108440400201401002064
:10074C00200100200800002011010020D10600200B
:10075C00D40600200C0000201E010020F006002012
:10076C00A807002028010020C8000020D00000208D
:10077C00C0000020D8000020DC1F010808B507F0DD
:10078C0065F83F2142F2107007F070F808BD0000C8
:10079C0038B507F007FD04460146184806F0B4FFCB
:1007AC0007F000FD102809D107F0FCFC10281AD125
:1007BC00102C12D1642002F00DFC38BD104D10210C
:1007CC00284606F0A1FF102007F012FD07F0EAFC06
:1007DC000146284606F098FFE6E707F02DFD09488C
:1007EC0006F092FFE6E7084806F08EFF074806F091
:1007FC008BFF074BFF221A70DFE700BFDC210108DB
:10080C00F0210108002201083C22010858220108AD
:10081C00BD03002010B588B0602301930290002323
:10082C0003930593054C082201A9204601F030FAE8
:10083C000821204601F022FB08B010BDC0030020A7
:10084C0038B50546002406E0295D044B185D02F01E
:10085C007FFB0134E4B2572CF6D938BD5C75010826
:10086C0008B5034806F050FF0248FFF7E9FF08BD42
:10087C0068200108B475010808B5054806F044FF66
:10088C000448FFF7DDFF1021D72002F061FB08BD03
:10089C00902001080C76010808B5034806F034FFD7
:1008AC000248FFF7CDFF08BDB420010864760108AB
:1008BC0008B5034806F028FF0248FFF7C1FF08BD42
:1008CC00D8200108BC76010808B5FE4806F01CFFCC
:1008DC000021012002F03CFB0021022002F038FB39
:1008EC007521032002F034FB1821042002F030FBA8
:1008FC008021052002F02CFB2021062002F028FB91
:10090C000821072002F024FB4021082002F020FBE4
:10091C000A21092002F01CFB41210A2002F018FBDD
:10092C0007210B2002F014FB00210C2002F010FB1D
:10093C0020210D2002F00CFB10210E2002F008FBF0
:10094C0000210F2002F004FB8021102002F000FB9C
:10095C008221112002F0FCFA2121122002F0F8FA77
:10096C00D021132002F0F4FAE021142002F0F0FA66
:10097C007821152002F0ECFAFE21162002F0E8FA9C
:10098C000021172002F0E4FAC821182002F0E0FA46
:10099C000021192002F0DCFA23211A2002F0D8FAE7
:1009AC0000211B2002F0D4FA00211C2002F0D0FA06
:1009BC0000211D2002F0CCFA20211E2002F0C8FAE2
:1009CC0032211F2002F0C4FA5A21202002F0C0FA72
:1009DC000D21212002F0BCFA3221222002F0B8FABB
:1009EC005A21232002F0B4FAD021242002F0B0FACC
:1009FC002121252002F0ACFA0D21262002F0A8FAC4
:100A0C00E021272002F0A4FAF021282002F0A0FA1D
:100A1C000021292002F09CFA00212A2002F098FAE9
:100A2C0001212B2002F094FAFF212C2002F090FAE5
:100A3C0000212D2002F08CFA12212E2002F088FACF
:100A4C00D0212F2002F084FAE021302002F080FA2D
:100A5C008021312002F07CFA8021322002F078FAD9
:100A6C008021332002F074FAA021342002F070FAB5
:100A7C001821352002F06CFA4621362002F068FA73
:100A8C006421372002F064FA0021382002F060FA69
:100A9C00FF21392002F05CFA03213A2002F058FAC7
:100AAC0080213B2002F054FA80213C2002F050FAC5
:100ABC0080213D2002F04CFA80213E2002F048FAC1
:100ACC0080213F2002F044FA6021412002F040FADC
:100ADC005F21422002F03CFA3721432002F038FA21
:100AEC001421442002F034FA0421452002F030FA9B
:100AFC000021462002F02CFA0021472002F028FAAF
:100B0C000021482002F024FA0021492002F020FAAA
:100B1C0020214B2002F01CFA00214C2002F018FA84
:100B2C0000214D2002F014FA00214E2002F010FAA0
:100B3C007F214F2002F00CFA2021502002F008FAFD
:100B4C000021512002F004FA0021522002F000FA98
:100B5C000421532002F0FCF90021542002F0F8F992
:100B6C00E021552002F0F4F94021562002F0F0F972
:100B7C000421572002F0ECF90021582002F0E8F98A
:100B8C000821592002F0E4F910215A2002F0E0F972
:100B9C0000215B2002F0DCF968215C2002F0D8F91E
:100BAC0040215D2002F0D4F908215E2002F0D0F93A
:100BBC0000215F2002F0CCF9E021602002F0C8F99E
:100BCC005421612002F0C4F93321622002F0C0F9F3
:100BDC000121632002F0BCF9FF21642002F0B8F976
:100BEC000121652002F0B4F9FF21662002F0B0F972
:100BFC008921672002F0ACF9AB21682002F0A8F93A
:100C0C008821692002F0A4F96E216A2002F0A0F973
:100C1C006E216B2002F09CF96E216C2002F098F989
:100C2C0000216D2002F094F900216E2002F090F961
:100C3C0000216F2002F08CF90021702002F088F95D
:100C4C000021712002F084F90021722002F080F959
:100C5C000021732002F07CF90021742002F078F955
:100C6C00FF21752002F074F9FF21762002F070F953
:100C7C00FF21772002F06CF9FF21782002F068F94F
:100C8C00FF21792002F064F9FF217A2002F060F94B
:100C9C00FF217B2002F05CF9FF217C2002F058F947
:100CAC00F0217D2002F054F980217E2002F050F9D1
:100CBC0000217F2002F04CF90021802002F048F93D
:100CCC0002E000BF4C2001083421812002F040F9E1
:100CDC004021822002F03CF90521832002F038F9F2
:100CEC005921842002F034F9FD21852002F030F9DD
:100CFC000421862002F02CF92421872002F028F907
:100D0C009421882002F024F95821892002F020F93E
:100D1C0000218A2002F01CF97E218B2002F018F9A8
:100D2C0003218C2002F014F92C218D2002F010F9F3
:100D3C008C218E2002F00CF900218F2002F008F992
:100D4C00CC21902002F004F94121912002F000F90D
:100D5C00C421922002F0FCF83121932002F0F8F823
:100D6C008721942002F0F4F8D021952002F0F0F8BD
:100D7C00F321962002F0ECF82021972002F0E8F8FD
:100D8C001121982002F0E4F89021992002F0E0F86B
:100D9C00FF219A2002F0DCF804219B2002F0D8F805
:100DAC000A219C2002F0D4F800219D2002F0D0F8FA
:100DBC0004219E2002F0CCF865219F2002F0C8F897
:100DCC002F21A02002F0C4F8D921A12002F0C0F8F4
:100DDC009821A22002F0BCF88721A32002F0B8F8D9
:100DEC00E121A42002F0B4F83821A52002F0B0F8DB
:100DFC00C221A62002F0ACF87021A72002F0A8F8BE
:100E0C000021A82002F0A4F81E21A92002F0A0F8CD
:100E1C002E21AA2002F09CF80021AB2002F098F8B9
:100E2C008421AC2002F094F8F321AD2002F090F86C
:100E3C006521AE2002F08CF89921AF2002F088F8E1
:100E4C000021B02002F084F80021B12002F080F8DB
:100E5C000021B22002F07CF80021B32002F078F8D7
:100E6C000021B42002F074F80021B52002F070F8D3
:100E7C000021B62002F06CF88021B82002F068F84E
:100E8C000021B92002F064F80121BA2002F060F8C8
:100E9C000021BB2002F05CF89021BC2002F058F835
:100EAC000121BD2002F054F82C21BE2002F050F894
:100EBC000021C02002F04CF82021C12002F048F89B
:100ECC002021C22002F044F82021C32002F040F877
:100EDC002021C42002F03CF82021C52002F038F873
:100EEC00FF21D02002F034F83F21D12002F030F85D
:100EFC00C221D22002F02CF83F21D32002F028F896
:100F0C000021D42002F024F80021D52002F020F892
:100F1C000021D62002F01CF81021D72002F018F87E
:100F2C000021D82002F014F87721DC2002F010F810
:100F3C000021DD2002F00CF8AF21DE2002F008F8D1
:100F4C00EF21DF2002F004F80021E02002F000F88D
:100F5C000021E12001F0FCFF0021E22001F0F8FF6C
:100F6C001221E32001F0F4FFE221E42001F0F0FF74
:100F7C00D021E52001F0ECFF0021E62001F0E8FF94
:100F8C000021E72001F0E4FF0F21E82001F0E0FF51
:100F9C000021E92001F0DCFF0021EA2001F0D8FF5C
:100FAC000021EB2001F0D4FF8821EC2001F0D0FFD0
:100FBC000021ED2001F0CCFF0021EE2001F0C8FF54
:100FCC000021EF2001F0C4FF3021F02001F0C0FF20
:100FDC004321F12001F0BCFF1F21F22001F0B8FFEA
:100FEC001F21F32001F0B4FF2221F42001F0B0FF07
:100FFC007321F52001F0ACFF5321F62001F0A8FF7E
:10100C008021F72001F0A4FF0121F82001F0A0FFBE
:10101C000121F92001F09CFF0021FA2001F098FF3A
:10102C000021FB2001F094FF0021FC2001F090FF37
:10103C007021FD2001F08CFF4021FE2001F088FF83
:10104C000721FF2001F084FF08BD00BF70B590B0F0
:10105C002022002107A807F05CF9002401940294D7
:10106C000394049405940225069501260A961023F0
:10107C000B930D954FF4E0130F9306A801F052FA61
:10108C000F2301930295039404940594314601A80F
:10109C0001F088FC10B070BD0268184B9A4200D069
:1010AC007047174A13780133DBB2137015490A687D
:1010BC0001320A6014490A6801320A60632B09D9AB
:1010CC00124A1368013313600D4B00221A70104B37
:1010DC0001221A600F4B1A6801321A601A680E4B03
:1010EC009A42DDD90B4B00221A600C4B1B78012B5A
:1010FC00D6D10B4A137801331370D1E700040040AA
:10110C006B0100206C0100207001002064010020A4
:10111C00600100203C010020A08601000800002096
:10112C001101002010B504460268184B9A4204D0F5
:10113C002268174B9A4214D010BD16490A78531CDA
:10114C00DBB20B7014490878144988541D2B02D952
:10115C00104B00221A7001220F49114801F04AF875
:10116C00E6E710490A78531CDBB20B700E4908787D
:10117C000E4988541D2B02D90A4B00221A700122E9
:10118C0009490B4801F036F8D6E700BF003801409A
:10119C0000440040590100201C0100205C05002087
:1011AC007C03002057010020180100209C05002022
:1011BC00000400207047000038B5012825D000211C
:1011CC00322001F0C5FE0021192001F0C1FE0024DF
:1011DC00394B1C70394807F019F939480470012350
:1011EC0043700EF0C1FB2146192001F0B1FE354BC6
:1011FC001B78012B04D00121002002F00FFD23E00D
:10120C002146204602F00AFD1EE00021322001F0AA
:10121C009FFE294C012525702B4807F0F7F828482C
:10122C000570022343700EF09FFB0421192001F07E
:10123C008FFE2378AB420ED0224B5B78012B35D03E
:10124C000121084602F0EAFC204B00221A70204BC8
:10125C0001221A7038BD1F4B1B78072B10D01E486B
:10126C0007F060F81D4B1B78052B13D0062B14D000
:10127C00B3B1012B17D00121102001F069FEDBE77F
:10128C00FFF7EEFA164807F04DF82946284602F00B
:10129C00C5FCD1E7FFF7F0FACEE7FFF7E1FACBE7B1
:1012AC00FFF7FAFAC8E7FFF703FBC5E700210120B7
:1012BC0002F0B4FCC8E700BF1E010020FC1F0108AF
:1012CC00440400202C0100201020010811010020F2
:1012DC0008000020DC0400202C2001081C00002049
:1012EC002420010800B583B061E0134600221A7077
:1012FC0008F044FA6AE05B4A13780133DBB21370EE
:10130C00594A127893427FD90021564B1970574B8A
:10131C0019705B78032B14D8013354494B70534C20
:10132C0063780192009340F63103514A5149524877
:10133C0006F0F8FF20460EF017FB504B00221A70F7
:10134C0062E04A4B01215970E9E7484B5B784B4A04
:10135C0012780192009340F63903454A45494848B2
:10136C0006F0E0FF54E0454B1B78092B54D90023C1
:10137C00424A1370434A137002F00DFC4CE080217A
:10138C00322001F0E5FD4CE0FFF716FF01E005F01F
:10139C001FFA04F009FB0028F9D13B4B1B68002B0A
:1013AC00F7D006F027FC06F003FC03F0DDF9364B12
:1013BC001B68012BEDD1FFF7D3F8FEF7ADFF334AD5
:1013CC0013780133DBB213700A2B8ED80A2001F08C
:1013DC00A7FD2F4A138801339BB21380642B06D9C7
:1013EC00134600221A80254A137801331370234BBD
:1013FC001B78284A1268934213D0264A1360264B56
:10140C001B78012B3FF477AF234B1B78012B9CD01F
:10141C001C4B1B78012BA6D0322001F08FFD00282D
:10142C00ADD003F039FE10211C4801F081FC1C4B9F
:10143C0018701C4B1B789842ABD0322001F070FD19
:10144C001021164801F074FC154B1870154B1B78C5
:10145C0098429ED0134B1870012895D00020FFF7AE
:10146C00ABFE96E737010020120000204404002058
:10147C001C210108A81F0108682201081101002085
:10148C008C220108080000202400002024010020E8
:10149C003401002004000020360100200008014027
:1014AC00100100201E0100202DE9F04383B000F054
:1014BC00EBFFFFF7CBFDFFF761F9FEF76BFEFEF7D5
:1014CC00D5FEFEF7FDFEFEF711FF09F0BBFB09F0A0
:1014DC0065FE0AF00BF80AF0F5FA0121002002F083
:1014EC009DFB0120FFF724F8322001F019FD0122A9
:1014FC005749584800F07EFE01225749574800F0E2
:10150C0079FE574D00224FF48051284601F017FC0C
:10151C00544C00220221204601F011FC642001F001
:10152C00FFFC01224FF48051284601F008FC0122F7
:10153C000221204601F003FC002420E04A4B1C70E1
:10154C004A4E4B4D009440F21F733246294649488F
:10155C0006F0E8FE002010F000FD8021892009F043
:10156C002DFC022009F0EEFB0190009440F2257353
:10157C0032462946404806F0D5FE0134E4B2012C2F
:10158C00DCD93E4C0025257065710126A67166706C
:10159C000223A3700327E7700423237138490F201B
:1015AC0002F01CFBFFF7F4F802F0CAFE284601F02B
:1015BC00C5FCDFF8B890DFF8B880009040F25373A8
:1015CC004A4641462F4806F0ADFE40F254734A4657
:1015DC0041462D4806F0A6FEE771A671257265728C
:1015EC00284601F04CFE20460EF0BEF9E3793BB1E3
:1015FC00264B1E6026490D6026490E70264A157032
:10160C0026485D2300F8013B20226D2106F081FE67
:10161C00012221230AE002F17F002049C854581C02
:10162C006D240C540132D2B20233DBB2402BF2D90E
:10163C001F226D211A4806F06CFE0020FEF7B6FE44
:10164C00184800F0CCF9184806F06CFEFFF74AFE7B
:10165C001C0100207C030020180100200004002045
:10166C00000C014000100140D1060020142101089B
:10167C00A81F01082821010850210108440400205A
:10168C00149A010880210108A421010814010020EA
:10169C002001002008000020110100200802002079
:1016AC00470200200C030020CC2101087047FEE704
:1016BC00FEE7FEE7FEE770477047704708B500F09D
:1016CC00F5FE08BD08B5042001F040FB08BD000084
:1016DC0008B5024800F098F908BD00BF0C030020C3
:1016EC0008B5024800F012FE08BD00BF7C030020C4
:1016FC0008B5024800F00AFE08BD00BF0004002037
:10170C0082B00E4B9A6942F001029A619A6902F01A
:10171C0001020092009ADA6942F08052DA61DB69C8
:10172C0003F080530193019B054A536823F0E06357
:10173C0043F00073536002B0704700BF00100240CA
:10174C000000014002680E4B9A4200D0704700B571
:10175C0083B003F50333DA6942F00202DA61DB6924
:10176C0003F002030193019B002211461D2001F09E
:10177C0059FB1D2001F08AFB03B05DF804FB00BF90
:10178C000004004070B588B0044600230493059310
:10179C00069307930268364B9A4205D02268354B64
:1017AC009A4234D008B070BD03F558439A6942F49C
:1017BC0080429A619A6902F480420092009A9A6976
:1017CC0042F004029A619B6903F004030193019BAC
:1017DC004FF4007304930223059303230793264EBF
:1017EC0004A9304601F0B8F94FF480630493002546
:1017FC000595069504A9304601F0AEF92A4629460E
:10180C00252001F00FFB252001F040FBC6E703F576
:10181C00E633DA6942F40032DA61DA6902F4003252
:10182C000292029A9A6942F004029A619B6903F04F
:10183C0004030393039B04230493022305930323C0
:10184C0007930D4D04A9284601F086F9082304934B
:10185C0000240594069404A9284601F07DF922463B
:10186C002146262001F0DEFA262001F00FFB99E735
:10187C0000380140004400400008014070B4036A85
:10188C0023F001030362036A4268846924F0730441
:10189C000D6845EA040623F002048B6823430D4DC2
:1018AC00A84209D00B4DA8420DD0426086614A680F
:1018BC004263036270BC704723F00803CC68234377
:1018CC0023F00403EEE722F440724C6914438A6956
:1018DC002243EAE7002C014030B4036A23F48073FE
:1018EC000362036A4268C46924F073040D682C43D4
:1018FC0023F400738D6843EA05230F4DA84209D0E9
:10190C000D4DA8420ED04260C4614A68C2630362A6
:10191C0030BC704723F40063CD6843EA052323F4FD
:10192C008063EDE722F440524D6942EA05128D695D
:10193C0042EA0512E7E700BF002C014030B4036A0D
:10194C0023F480530362036A4468C26922F4E642BA
:10195C000D6842EA052223F400538D6843EA0533EF
:10196C00074DA84206D04460C2614A680264036213
:10197C0030BC704724F480444D6944EA8514F2E786
:10198C00002C014010B4036A046A24F001040462C0
:10199C00846924F0F00444EA021223F00A030B4396
:1019AC008261036210BC704710B4036A23F0100309
:1019BC0003628469036A24F4704444EA023223F01B
:1019CC00A00343EA01138261036210BC7047836871
:1019DC0023F07003194341F00701816070470268DE
:1019EC00D36843F00103D3600268936803F00703E4
:1019FC00062B03D0136843F00103136000207047DB
:101A0C00704770477047704710B5044603681A69F1
:101A1C0012F0020F11D0DA6812F0020F0DD06FF035
:101A2C0002021A610123037703689B6913F0030F09
:101A3C0070D0FFF7E6FF0023237723681A6912F0B2
:101A4C00040F12D0DA6812F0040F0ED06FF00402FB
:101A5C001A610223237723689B6913F4407F5FD0BC
:101A6C002046FFF7CEFF0023237723681A6912F074
:101A7C00080F12D0DA6812F0080F0ED06FF00802BF
:101A8C001A61042323772368DB6913F0030F4ED00C
:101A9C002046FFF7B6FF0023237723681A6912F05C
:101AAC00100F12D0DA6812F0100F0ED06FF0100277
:101ABC001A61082323772368DB6913F4407F3DD038
:101ACC002046FFF79EFF0023237723681A6912F044
:101ADC00010F03D0DA6812F0010F36D123681A69AE
:101AEC0012F0800F03D0DA6812F0800F34D1236823
:101AFC001A6912F0400F03D0DA6812F0400F32D19D
:101B0C0023681A6912F0200F03D0DA6812F0200F44
:101B1C0030D110BDFFF774FF2046FFF773FF8AE743
:101B2C002046FFF76DFF2046FFF76CFF9BE7204632
:101B3C00FFF766FF2046FFF765FFACE72046FFF78F
:101B4C005FFF2046FFF75EFFBDE76FF001021A61F1
:101B5C002046FFF7A1FAC1E76FF080021A61204618
:101B6C0000F0CEF9C3E76FF040021A612046FFF790
:101B7C004AFFC5E76FF020021A61204600F0BFF95A
:101B8C00C7E7000003681B4A90420AD0B0F1804FAF
:101B9C0007D0A2F59432904203D002F580629042B5
:101BAC0003D123F070034A681343124A90420AD0BF
:101BBC00B0F1804F07D0A2F59432904203D002F5D9
:101BCC008062904203D123F44073CA68134323F01C
:101BDC0080034A69134303608B68C3620B6883629A
:101BEC00044B984202D00123436170470B69036395
:101BFC00F9E700BF002C0140A8B110B5044690F8DD
:101C0C003D305BB1022384F83D30211D2068FFF785
:101C1C00B9FF012384F83D30002010BD80F83C3022
:101C2C00FFF790FDEEE701207047000030B4036A27
:101C3C0023F010030362036A4468826922F4E642CB
:101C4C000D6842EA052223F020038D6843EA051350
:101C5C000E4DA84209D00D4DA8420ED044608261B1
:101C6C004A688263036230BC704723F08003CD68FE
:101C7C0043EA051323F04003EDE724F440644D6977
:101C8C0044EA85048D6944EA8504E7E7002C0140A9
:101C9C0038B590F83C30012B66D00D460446012334
:101CAC0080F83C30022380F83D300C2A1AD8DFE84B
:101CBC0002F00719191920191919341919194700A3
:101CCC000068FFF7DBFD2268936943F0080393611A
:101CDC002268936923F0040393612268936929694C
:101CEC000B439361012384F83D30002084F83C00C1
:101CFC0038BD0068FFF79AFF2268936943F40063CC
:101D0C0093612268936923F48063936122689369D9
:101D1C00296943EA01239361E4E70068FFF7DCFDDE
:101D2C002268D36943F00803D3612268D36923F096
:101D3C000403D3612268D36929690B43D361D1E7CA
:101D4C000068FFF7FBFD2268D36943F40063D3619D
:101D5C002268D36923F48063D3612268D36929692B
:101D6C0043EA0123D361BDE70220C1E710B48468C4
:101D7C0024F47F4442EA03230B432343836010BCC7
:101D8C00704790F83C30012B66D010B50446012307
:101D9C0080F83C30022380F83D300268936823F4CD
:101DAC007F4323F0770393600B68402B4AD013D901
:101DBC00602B3DD01ED9702B28D0B3F5005F30D1ED
:101DCC00CB684A6889680068FFF7D0FF226893687F
:101DDC0043F48043936024E0102B06D004D9202BCD
:101DEC0003D0302B01D01CE0DBB919462068FFF77B
:101DFC00EEFD16E0502B14D1CA6849680068FFF755
:101E0C00C1FD50212068FFF7E2FD0AE0CB684A686B
:101E1C0089680068FFF7AAFF2268936843F077038C
:101E2C009360012384F83D30002084F83C0010BD01
:101E3C00CA6849680068FFF7B7FD60212068FFF7A2
:101E4C00C6FDEEE7CA6849680068FFF79BFD4021B4
:101E5C002068FFF7BCFDE4E70220704710B401F0E6
:101E6C001F01012303FA01F4036A23EA040303624A
:101E7C00036A8A401343036210BC704710B50446D2
:101E8C0001220068FFF7EAFF23680A4A93420BD04D
:101E9C002268936803F00703062B03D0136843F002
:101EAC0001031360002010BD5A6C42F400425A64C6
:101EBC00EEE700BF002C014090F83C30012B1CD009
:101ECC0070B4012680F83C60022380F83D30026833
:101EDC005568936825F070050C682C4323F0800539
:101EEC004B682B4354600268936080F83D6000237C
:101EFC0080F83C30184670BC704702207047704721
:101F0C0070470268D36823F49073D36002685369F6
:101F1C0023F001035361202380F83A30704790F886
:101F2C003930DBB2212B2AD18368B3F5805F16D010
:101F3C00036A5A1C02621A7803685A60C38C013B0C
:101F4C009BB2C384EBB90268D36823F08003D360DF
:101F5C000268D36843F04003D36000207047036AE3
:101F6C001B880268C3F30803536003691BB9036A37
:101F7C0002330362E2E7036A01330362DEE7022005
:101F8C00704700207047000038B50446026813699A
:101F9C0023F44053C1680B431361836802691343F4
:101FAC0042691A430168CB6823F4B05323F00C0345
:101FBC001343CB600268536923F4407381690B436C
:101FCC0053610268214B9A421FD000F0A5FD00EB33
:101FDC00800000EB800063689B00B0FBF3F01C4DAD
:101FEC00A5FB00325109642202FB110213013233AA
:101FFC00A5FB03235B0903F0F00202EB011203F0D3
:10200C000F03216813448B6038BD00F095FD00EB85
:10201C00800000EB800063689B00B0FBF3F00C4D7C
:10202C00A5FB00325109642202FB11021301323369
:10203C00A5FB03235B0903F0F00202EB011203F092
:10204C000F03216813448B60DEE700BF00380140AA
:10205C001F85EB512DE9F04105460F461646984673
:10206C00069C2B681B6837EA03030CBF0123002373
:10207C00B3421DD1B4F1FF3FF3D02CB100F022FAE2
:10208C00A0EB0800A042ECD92A68D36823F4D073E3
:10209C00D3602A68536923F001035361202385F828
:1020AC00393085F83A30002385F83830032000E0C9
:1020BC000020BDE8F08158B310B5044690F83930D3
:1020CC000BB3242384F839302268D36823F40053EB
:1020DC00D3602046FFF758FF2268136923F490431E
:1020EC0013612268536923F02A0353612268D36871
:1020FC0043F40053D3600020E063202384F839308C
:10210C0084F83A3010BD80F83830FFF73BFBD8E745
:10211C00012070472DE9F04182B01E4690F839300D
:10212C00DBB2202B55D104460D469046002955D0E4
:10213C00002A55D090F83830012B53D0012380F869
:10214C0038300023C363212380F8393000F0BAF90A
:10215C000746A4F82480A4F8268010E000963B469D
:10216C00002280212046FFF775FF00283CD12B88E8
:10217C002268C3F3080353602369C3B90235E38CA7
:10218C009BB2B3B1E38C013B9BB2E384A368B3F580
:10219C00805FE3D000963B46002280212046FFF76B
:1021AC0059FF18BB2A7823685A600135E7E70135D7
:1021BC00E5E700963B46002240212046FFF74AFF08
:1021CC000346A8B9202284F83920002284F838204C
:1021DC0000E00223184602B0BDE8F0810123F9E7C4
:1021EC000123F7E70223F5E70323F3E70323F1E7E2
:1021FC000323EFE790F83A30DBB2202B20D109B360
:10220C0012B390F83830012B20D081628285C285C0
:10221C000023C363222280F83A2080F8383001680A
:10222C00CA6842F48072CA6001684A6942F00102CD
:10223C004A610168CA6842F02002CA6018467047B9
:10224C000220704701207047012070470220704720
:10225C00704708B50168CB6823F04003CB6020239E
:10226C0080F83930FFF7F4FF002008BD08B590F86E
:10227C003A30DBB2222B45D18368B3F5805F0ED0A8
:10228C00036903BB03685A68836A591C81621A701C
:10229C00C38D013B9BB2C385F3B1002033E0826A4E
:1022AC00036943B903685B68C3F308031380836A4B
:1022BC0002338362ECE703685B68DBB21380836AEA
:1022CC0001338362E4E703685B68826A511C8162B4
:1022DC0003F07F031370DBE70268D36823F020035D
:1022EC00D3600268D36823F48073D36002685369A7
:1022FC0023F001035361202380F83A30FEF712FFDC
:10230C00002000E0022008BD7047000010B5044614
:10231C0002681368D168526913F00F0005D113F0ED
:10232C00200F02D011F0200F53D1002867D012F0EB
:10233C00010202D111F4907F61D013F0010F06D08D
:10234C0011F4807F03D0E06B40F00100E06313F0E8
:10235C00040F04D01AB1E06B40F00200E06313F0FC
:10236C00020F04D01AB1E06B40F00400E06313F0EC
:10237C00080F04D01AB1E26B42F00802E263E26B80
:10238C00002A48D013F0200F02D011F0200F24D1D6
:10239C0023685B6903F04003E26B12F0080F00D175
:1023AC003BB32046FFF7ADFD23685A6912F0400F8E
:1023BC001BD05A6922F040025A61636B8BB11A4AE6
:1023CC005A63606B00F0D0FC28B3606B436B98478A
:1023DC0021E02046FFF74AFF1DE02046FFF746FFAD
:1023EC00D6E72046FFF790FF15E02046FFF78CFF5D
:1023FC0011E02046FFF788FF0023E3630BE013F0A6
:10240C00800F02D011F0800F06D113F0400F02D0D4
:10241C0011F0400F04D110BD2046FFF780FDFAE704
:10242C002046FFF716FFF6E73924000808B5406A86
:10243C000023C385C384FFF767FF08BD10B50446AE
:10244C000E4B18784FF47A73B3FBF0F30C4A106808
:10245C00B0FBF3F000F028FD68B90F2C01D9012076
:10246C000AE0002221464FF0FF3000F0DBFC054B68
:10247C001C60002000E0012010BD00BF13000020F4
:10248C00180000201400002008B5074A136843F018
:10249C0010031360032000F0B3FC0020FFF7CEFF05
:1024AC00FFF72EF9002008BD00200240034A1168F6
:1024BC00034B1B780B441360704700BF5C04002077
:1024CC0013000020014B1868704700BF5C0400200B
:1024DC0038B50446FFF7F6FF0546B4F1FF3F02D0CE
:1024EC00044B1B781C44FFF7EDFF401BA042FAD3B2
:1024FC0038BD00BF1300002082B0084B1B68084A8F
:10250C00A2FB03235B0A00FB03F0019000BF019BBD
:10251C005A1E0192002BF9D102B07047180000200E
:10252C00D34D6210002800F0F58170B582B00446DE
:10253C00036813F0010F2CD0AB4B5B6803F00C035A
:10254C00042B1DD0A84B5B6803F00C03082B12D096
:10255C006368B3F5803F41D0002B55D103F1804324
:10256C0003F504331A6822F480321A601A6822F4D4
:10257C0080221A6037E09C4B5B6813F4803FE7D0F5
:10258C00994B1B6813F4003F03D06368002B00F0D9
:10259C00C381236813F0020F76D0934B5B6813F062
:1025AC000C0F5FD0904B5B6803F00C03082B54D0DE
:1025BC002369002B00F08A808C4B01221A60FFF7F4
:1025CC0081FF0546884B1B6813F0020F75D1FFF78E
:1025DC0079FF401B0228F5D90320A0E1824A136839
:1025EC0043F480331360636843B3FFF76BFF054616
:1025FC007D4B1B6813F4003FCBD1FFF763FF401BEF
:10260C006428F5D903208AE1B3F5A02F09D0764BC5
:10261C001A6822F480321A601A6822F480221A6036
:10262C00E1E703F18043A3F53C331A6842F48022BE
:10263C001A601A6842F480321A60D4E7FFF742FF3E
:10264C000546694B1B6813F4003FA2D0FFF73AFF15
:10265C00401B6428F5D9032061E1634B5B6813F4DC
:10266C00803FA5D1604B1B6813F0020F04D0236987
:10267C00012B01D0012052E15B4A136823F0F803CF
:10268C00616943EAC1031360236813F0080F32D069
:10269C00A369002B5BD0564B01221A60FFF712FF87
:1026AC000546514B5B6A13F0020F21D1FFF70AFF6D
:1026BC00401B0228F5D9032031E14B4A136823F063
:1026CC00F803616943EAC1031360DDE7474B00225D
:1026DC001A60FFF7F7FE0546434B1B6813F0020F19
:1026EC00D2D0FFF7EFFE401B0228F5D9032016E1EC
:1026FC000120FFF701FF236813F0040F00F098800E
:10270C00394BDB6913F0805F33D1374BDA6942F018
:10271C008052DA61DB6903F080530193019B012540
:10272C00344B1B6813F4807F25D0E368012B36D023
:10273C00002B4CD103F1804303F504331A6A22F0C9
:10274C0001021A621A6A22F004021A622CE0284B67
:10275C0000221A60FFF7B6FE0546234B5B6A13F0A6
:10276C00020FC8D0FFF7AEFE401B0228F5D903209C
:10277C00D5E00025D4E71F4A136843F48073136037
:10278C00FFF7A0FE06461B4B1B6813F4807FCCD1D1
:10279C00FFF798FE801B6428F5D90320BFE0124A8E
:1027AC00136A43F001031362E3687BB3FFF78AFEFD
:1027BC0006460D4B1B6A13F0020F38D1FFF782FE51
:1027CC00801B41F288339842F3D90320A7E0052BF4
:1027DC0012D0054B1A6A22F001021A621A6A22F010
:1027EC0004021A62E0E700BF0010024000004242FF
:1027FC0080044242007000404C4B1A6A42F00402C2
:10280C001A621A6A42F001021A62CDE7FFF75AFE09
:10281C000646464B1B6A13F0020F08D0FFF752FE18
:10282C00801B41F288339842F3D9032077E0E5B955
:10283C00E369002B72D03D4A526802F00C02082A60
:10284C0056D0022B17D03A4B00221A60FFF73AFEF3
:10285C000446364B1B6813F0007F47D0FFF732FE5F
:10286C00001B0228F5D9032059E0304AD36923F024
:10287C008053D361DCE72E4B00221A60FFF722FE57
:10288C0005462A4B1B6813F0007F06D0FFF71AFE93
:10289C00401B0228F5D9032041E0236AB3F5803FA1
:1028AC001AD022494B6823F47413226A606A0243DB
:1028BC0013434B601E4B01221A60FFF703FE0446C4
:1028CC001A4B1B6813F0007F0ED1FFF7FBFD001BAA
:1028DC000228F5D9032022E0144A536823F400336C
:1028EC00A1680B435360DCE7002018E0002016E0E1
:1028FC00012B16D00D4B5B6803F48031226A914298
:10290C0001D001200BE003F47013626A93420AD0E9
:10291C00012004E001207047012000E0002002B0FB
:10292C0070BD0120FBE70020F9E700BF001002405A
:10293C006000424210B487B0164C94E80F000DF1C1
:10294C00180C0CE90F00238AADF80430124B5B68AD
:10295C0003F00C02082A1AD1C3F38342624412F822
:10296C00102C13F4803F05D10C4800FB02F007B08B
:10297C0010BC7047084B5B68C3F34043634413F8C7
:10298C00143C074800FB02F0B0FBF3F0EFE70448FF
:10299C00EDE700BF941F01080010024000093D0044
:1029AC0000127A00002800F0A38070B50446524B48
:1029BC001B6803F007038B420CD24F4A136823F0B9
:1029CC0007030B431360136803F007038B4201D01A
:1029DC00012070BD236813F0020F17D013F0040F01
:1029EC0004D0464A536843F4E0635360236813F001
:1029FC00080F04D0414A536843F4605353603F4A74
:102A0C00536823F0F003A068034353600D4623681A
:102A1C0013F0010F31D06368012B20D0022B25D08D
:102A2C00364A126812F0020F64D034494A6822F018
:102A3C00030213434B60FFF745FD06462F4B5B68C3
:102A4C0003F00C036268B3EB820F16D0FFF73AFD6C
:102A5C00801B41F288339842F0D90320B9E7274A0A
:102A6C00126812F4003FE0D10120B2E7234A126849
:102A7C0012F0007FD9D10120ABE71F4B1B6803F08C
:102A8C000703AB420CD91C4A136823F007032B43F2
:102A9C001360136803F00703AB4201D0012098E7E1
:102AAC00236813F0040F06D0144A536823F4E06330
:102ABC00E1680B435360236813F0080F07D00F4AEB
:102ACC00536823F46053216943EAC1035360FFF751
:102ADC0031FF0A4B5B68C3F30313094AD35CD8403C
:102AEC00084B1860084B1868FFF7A8FC002070E72B
:102AFC000120704701206CE70020024000100240CA
:102B0C00B02201081800002014000020014B1868A6
:102B1C00704700BF1800002008B5FFF7F7FF044B03
:102B2C005B68C3F30223034AD35CD84008BD00BFE3
:102B3C0000100240C022010808B5FFF7E7FF044B64
:102B4C005B68C3F3C223034AD35CD84008BD00BF03
:102B5C0000100240C0220108F0B482B000263246B8
:102B6C00A2E0002D5AD0012D00D1CE68FF2B69D8E0
:102B7C008446FF2B69D89500DCF800400F27AF4046
:102B8C0024EA070406FA05F52C43CCF800404C68FF
:102B9C0014F0805F00F087805F4CA56945F001055B
:102BAC00A561A46904F001040194019C9508AF1C73
:102BBC005A4C54F8274002F00307BF004FF00F0C9B
:102BCC000CFA07FC24EA0C0C554CA04243D004F53B
:102BDC008064A04200F0818004F58064A0427ED025
:102BEC0004F58064A04234D0042435E04D4FBD423E
:102BFC0014D00BD94C4FBD4210D007F58037BD42D5
:102C0C000CD0A7F58017BD42B0D107E0A7F580170F
:102C1C00BD4203D007F58037BD42A7D18D687DB189
:102C2C00012D08D044610826A0E7CE6808369DE740
:102C3C00CE680C369AE70461082697E7002695E7DC
:102C4C00042693E700F1040C93E7A2F10805AD000C
:102C5C0092E7032400E00024BC4044EA0C04023553
:102C6C002E4F47F825404C6814F4803F39D02F4D37
:102C7C002C681C432C604C6814F4003F37D02B4D4F
:102C8C006C681C436C604C6814F4801F35D0274D65
:102C9C00AC681C43AC604C6814F4001F33D0234D5B
:102CAC00EC682343EB6001320B6833FA02F430D04A
:102CBC000124944023409C42F5D14D68122DB7D08D
:102CCC0094D8022DB1D07FF64CAF032DB6D0112D78
:102CDC007FF44CAFCE68043648E70124BCE70224ED
:102CEC00BAE7124D2C6824EA03042C60C3E70F4D9D
:102CFC006C6824EA03046C60C5E70C4DAC6824EAEC
:102D0C000304AC60C7E7094DEC6824EA0303EB60ED
:102D1C00C9E702B0F0BC704700100240000001404F
:102D2C000008014000002110000031100004014097
:102D3C008368194201D1002070470120704712B9F5
:102D4C0009040161704701617047000008B5054B2B
:102D5C005B69034200D108BD024B5861FEF72AFAA9
:102D6C00F9E700BF0004014008B590F82130022BB0
:102D7C0003D004238363012008BD0268136823F089
:102D8C000E0313600268136823F0010313600368D9
:102D9C00194A934214D0143293421FD014329342E6
:102DAC001ED0143293421ED0143293421ED01432D1
:102DBC00934202D04FF0807203E04FF4801200E097
:102DCC0001220E4B5A60012380F82130002380F839
:102DDC002030436B6BB198470020CDE71022F0E711
:102DEC004FF48072EDE74FF48052EAE74FF48032F3
:102DFC00E7E70020C0E700BF0800024000000240E7
:102E0C00074AD36823F4E0631B041B0C000200F494
:102E1C00E060184340F0BF6040F40030D060704771
:102E2C0000ED00E030B4174BDB68C3F30223C3F1B1
:102E3C000704042C28BF04241D1D062D18D9033BA0
:102E4C004FF0FF3505FA04F421EA0401994005FA24
:102E5C0003F322EA0303194300280BDB0901C9B26F
:102E6C0000F1604000F5614080F8001330BC704701
:102E7C000023E5E700F00F000901C9B2024B195419
:102E8C00F4E700BF00ED00E014ED00E0002807DBE4
:102E9C0000F01F02400901239340024A42F82030FF
:102EAC00704700BF00E100E00138B0F1807F0AD22A
:102EBC00064B5860064AF02182F8231000209860D7
:102ECC0007221A6070470120704700BF10E000E035
:102EDC0000ED00E00F4B1A6842F001021A605968CD
:102EEC000D4A0A405A601A6822F0847222F4803229
:102EFC001A601A6822F480221A605A6822F4FE02C0
:102F0C005A604FF41F029A60044B4FF000629A60B3
:102F1C00704700BF001002400000FFF800ED00E019
:102F2C0008B5034B1B7803B108BDFFF7D1FAFBE7DB
:102F3C006004002008B5FFF7CBFA08BD08B5034BB9
:102F4C001B780146184608F07AF908BD10000020DD
:102F5C0008B5044B1B780A460146184608F024F9BC
:102F6C0008BD00BF1000002008B5034B1B780146BC
:102F7C00184608F064F908BD1100002008B5044B90
:102F8C001B780A460146184608F00EF908BD00BF2A
:102F9C001100002008B508F03AFD08BD08B508F08E
:102FAC000FFD08BD10B51C461346224608F019F952
:102FBC0010BD70B588B004460D46164619786846A3
:102FCC0005F0A7F933466A462946204608F009F968
:102FDC0008B070BD38B50546002404E00520FFF7A5
:102FEC0077FA0134A4B2AC42F8D338BD08B5014627
:102FFC00024B187808F0CBFA08BD00BFE80400209B
:10300C0008B50A460146024B187808F075FA08BD57
:10301C00E804002008B5FFF75BFA08BD08B50146C7
:10302C004A2008F0B0FB08BD08B50A4601464A2004
:10303C0008F0DDFB08BD08B5082809D8DFE800F06A
:10304C00050505050D0D0D0D09005220FFF780FF3C
:10305C0008BD5720FFF77CFFFAE75D20FFF778FFEC
:10306C00F6E7F8B505460C4617465320FFF766FF02
:10307C0000F03F065E20FFF761FF00F03F0104F017
:10308C003F04082D0ED8DFE805F0050E19242F3764
:10309C00424D580031465320FFF75AFF214653202A
:1030AC00FFF756FFF8BD46F040015320FFF750FFE5
:1030BC0044F040015320FFF74BFFF3E746F080014B
:1030CC005320FFF745FF44F080015320FFF740FFEA
:1030DC00E8E746F0C0015320FFF73AFF44F0C00187
:1030EC005320FFF735FFDDE75E20FFF731FF214668
:1030FC005E20FFF72DFFD5E741F040015E20FFF782
:10310C0027FF44F040015E20FFF722FFCAE741F0A1
:10311C0080015E20FFF71CFF44F080015E20FFF76A
:10312C0017FFBFE741F0C0015E20FFF711FF44F02D
:10313C00C0015E20FFF70CFFB4E721465820FFF7D3
:10314C0007FF07F01F015920FFF702FFAAE738B568
:10315C00CDB2090A090101F07001D4B2C2F3022206
:10316C00082812D8DFE800F0050505051F1F1F1FF2
:10317C00120011435420FFF7EBFE29465520FFF7B0
:10318C00E7FE21465620FFF7E3FE38BD11435A20D7
:10319C00FFF7DEFE29465B20FFF7DAFE21465C20B6
:1031AC00FFF7D6FEF1E711435F20FFF7D1FE29466A
:1031BC006020FFF7CDFE21466120FFF7C9FEE4E752
:1031CC0070B506460C4614F8015B1021FD20FFF784
:1031DC00BFFE3146FE20FFF7BBFE044B187823469A
:1031EC002A46FF21FFF7DEFE70BD00BF1000002055
:1031FC0070B582B0064602AC04F8012D0D78702132
:10320C00FD20FFF7A5FE3146FE20FFF7A1FE044B83
:10321C00187823462A46FF21FFF7CBFE02B070BD7B
:10322C001000002038B504460D465320FFF786FEEB
:10323C0000F03F01A40164B22143C9B25320FFF74F
:10324C0087FE5E20FFF77AFE00F03F0044EA0001A3
:10325C00C9B25E20FFF77CFE5120FFF76FFE15F020
:10326C00080F01D100F0F70020F0070149B205F07A
:10327C000F052943C9B25120FFF76AFE38BD10B5BE
:10328C0004465120FFF75AFE2CB900F0F7015120EB
:10329C00FFF75EFE10BD40F00801C9B2F7E710B5AC
:1032AC0004466920FFF74AFE00F00F0141EA0411C1
:1032BC00C9B26920FFF74CFE00215820FFF748FEE9
:1032CC0010BD0000142860D8DFE800F00B0F1317B6
:1032DC001B1F23272B2F33373B3F43474B4F535752
:1032EC005B002C4B2C4A1A6070472A4B2B4A1A60F5
:1032FC007047284B2A4A1A607047264B294A1A6095
:10330C007047244B284A1A607047224B274A1A6090
:10331C007047204B264A1A6070471E4B254A1A608C
:10332C0070471C4B244A1A6070471A4B234A1A6088
:10333C007047184B1A4A1A607047164B204A1A608D
:10334C007047144B1F4A1A607047124B1E4A1A6082
:10335C007047104B1D4A1A6070470E4B1C4A1A607E
:10336C0070470C4B1B4A1A6070470A4B1A4A1A607A
:10337C007047084B194A1A607047064B184A1A6076
:10338C007047044B174A1A607047024B154A1A6073
:10339C00704700BF640400207C85010894850108F7
:1033AC0088850108A0850108588501080485010855
:1033BC006485010870850108AC850108D484010876
:1033CC00EC84010810850108F8840108288501089F
:1033DC00E08401081C85010840850108348501083A
:1033EC004C850108D88501082DE9F047054688462B
:1033FC001746B64A1278C2F3400602F0010453BBDA
:10340C00B34B1B78012B21D04FF025094FF0F40A58
:10341C00002D40F0BB81002E40F07E81002C40F04E
:10342C0094810820FFF73BFFA84B1B78032B00F07F
:10343C006F82002E00F07F82A64B1B78002B40F091
:10344C00758204212846FFF7EDFE68E24FF03D0936
:10345C004FF0B40ADCE71A46012B1ED0022B2AD0FF
:10346C00032B36D0102B42D0202B7DD0402B00F0DC
:10347C00B880502B00F0D280303B0F2B00F21E8115
:10348C00002840F0ED80924B1B78012B00F0E3807C
:10349C004FF025094FF0F40ABAE78D4B1B78012B3E
:1034AC0004D04FF025094FF0F40AB1E74FF03D0975
:1034BC004FF0B40AACE7864B1B78012B04D04FF0CD
:1034CC0025094FF0F40AA3E74FF03D094FF0B40A79
:1034DC009EE77F4B1B78012B04D04FF025094FF052
:1034EC00F40A95E74FF03D094FF0B40A90E768B93C
:1034FC00774B1B78012B04D04FF025094FF0F40AC1
:10350C0086E74FF03D094FF0B40A81E701280AD055
:10351C00022816D06E4B1B78012B20D040F291194B
:10352C0040F2763A74E76A4B1B78012B04D04FF0CB
:10353C00250940F2763A6BE74FF03D0940F2744AA8
:10354C0066E7634B1B78012B04D040F291194FF0C6
:10355C00F40A5DE740F25B294FF0B40A58E740F2F9
:10356C005B2940F2744A53E768B9594B1B78012B1D
:10357C0004D04FF025094FF0F40A49E74FF03D090C
:10358C004FF0B40A44E701280AD0022816D0504B59
:10359C001B78012B20D04FF0250940F2B64A37E7B3
:1035AC004B4B1B78012B04D04FF0250940F2362AE7
:1035BC002EE74FF03D094FF4267A29E7444B1B7850
:1035CC00012B04D040F2911940F2362A20E740F248
:1035DC005B294FF4267A1BE74FF03D094FF4CB6A79
:1035EC0016E768B93A4B1B78012B04D04FF025092C
:1035FC004FF0F40A0CE74FF03D094FF0B40A07E71F
:10360C00334B1B78012B04D04FF0250940F2763A4E
:10361C00FEE64FF03D0940F2744AF9E668B92C4BCE
:10362C001B78012B04D04FF025094FF0F40AEFE67C
:10363C004FF03D094FF0B40AEAE6254B1B78012BFD
:10364C0004D040F291194FF0F40AE1E640F25B2904
:10365C004FF0B40ADCE64FF03D094FF0B40AD7E660
:10366C0001280AD0022816D0194B1B78012B20D028
:10367C004FF4027940F24A4ACAE6154B1B78012BEB
:10368C0004D04FF0250940F24A4AC1E64FF03D09FB
:10369C0040F2B45ABCE60E4B1B78012B04D04FF40D
:1036AC008C7940F24A4AB3E64FF4D37940F2B45ADB
:1036BC00AEE640F20F3940F2B45AA9E6602A0BD0BC
:1036CC004FF040094FF0E00AA2E600BFEF000020E7
:1036DC00DC0600206804002068B9A44B1B78012B81
:1036EC0004D04FF025094FF0F40A91E64FF03D0954
:1036FC004FF0B40A8CE601287FF48AAE9B4B1B7802
:10370C00012B04D040F2052940F24A4A80E640F2EF
:10371C000D3940F2B45A7BE6012298F800100020D3
:10372C00FFF79FFC00210846FFF785FC414600206F
:10373C00FFF746FD072241460020FFF759FD4A4698
:10374C0051460020FFF703FD68E60122397804207A
:10375C00FFF787FC40210420FFF76DFC3946402021
:10376C00FFF72EFD072239464020FFF741FD804B25
:10377C001A7802EB8202930009EB030292B2143224
:10378C0092B251460420FFF7E2FC4AE6012D2AD002
:10379C00022D66D0032D7FF444AE002E40F09F80A6
:1037AC00002C3FF43EAE012239780720FFF759FC7C
:1037BC0070210720FFF73FFC39467020FFF700FD12
:1037CC00072239467020FFF713FD694B1B7803EB7A
:1037DC0083039A004A4492B2143292B251460720A3
:1037EC00FFF7B5FC1DE61EBB002C3FF41AAE012200
:1037FC0039780520FFF735FC50210520FFF71BFC1D
:10380C0039465020FFF7DCFC072239465020FFF7E1
:10381C00EFFC574B1A7802EB8202930009EB030280
:10382C0092B2143292B251460520FFF790FCF8E5A3
:10383C00012298F800101046FFF713FC102101200C
:10384C00FFF7F9FB41461020FFF7BAFC072241466F
:10385C001020FFF7CDFC4A4651460120FFF777FCBC
:10386C00C2E71EBB002C3FF4DCAD012239780620E8
:10387C00FFF7F7FB60210620FFF7DDFB39466020E0
:10388C00FFF79EFC072239466020FFF7B1FC384B4E
:10389C001A7802EB8202930009EB030292B2143203
:1038AC0092B251460620FFF752FCBAE5012298F875
:1038BC0000100220FFF7D5FB20210120FFF7BBFBF6
:1038CC0041462020FFF77CFC072241462020FFF7D1
:1038DC008FFC4A4651460220FFF739FCC2E7012211
:1038EC0098F800100320FFF7BCFB30210320FFF7F2
:1038FC00A2FB41463020FFF763FC072241463020F3
:10390C00FFF776FC4A4651460320FFF720FC47E7B9
:10391C00184B1B782BB905212846FFF783FCBDE813
:10392C00F08707212846FFF77DFCF8E7022128469F
:10393C00FFF778FCF3E764B10E4B1B7823B9012138
:10394C002846FFF76FFCEAE702212846FFF76AFCDE
:10395C00E5E7084B1B7823B102212846FFF762FCF0
:10396C00DDE700212846FFF75DFCD8E7DC060020E8
:10397C00690400206804002070B586B005460E4628
:10398C0014462A4B1A5C012C0BD0022C2DD0032C84
:10399C002FD0002A3CD0012A3CD0022A2DD0244B17
:1039AC0002E001282BD0234B23490978914233D0D4
:1039BC0093E803000490ADF81410090C8DF8161060
:1039CC003046FFF77FFC1D4B1A6801AB106851683D
:1039DC0003C31189927A19809A70234601AA04A90B
:1039EC002846FFF701FD06B070BD02280AD0114B26
:1039FC00DAE7032809D00F4BD6E7114BD4E70022A6
:103A0C000C4BD1E700220E4BCEE70022084BCBE744
:103A1C000C4BC9E7074BC7E793E803000490ADF8DC
:103A2C0014106C238DF81630CAE700BFCC060020AA
:103A3C00D0850108C0850108F50100206404002030
:103A4C00C8850108B885010830B587B00D46144605
:103A5C0038B1012823D0022801D0124B02E0124BBE
:103A6C0000E0124B93E803000490ADF814106C23A3
:103A7C008DF816302846FFF725FC0D4B1A6801AB64
:103A8C001068516803C31189927A19809A70234681
:103A9C0001AA04A90020FFF7A7FC07B030BD054B15
:103AAC00E0E700BFD0850108C8850108B88501088A
:103ABC0064040020C085010870B5F0B104465320A1
:103ACC00FFF73CFA00F03F065E20FFF737FA00F0F4
:103ADC003F05012C1CD0022C25D0032C2ED05120BC
:103AEC00FFF72CFA00F008011C4B1B788BB341F04C
:103AFC0002015120FFF72CFA09E0012200210846AF
:103B0C00FFF7AFFA012200210420FFF7AAFA70BDDB
:103B1C0046F040015320FFF71BFA45F040015E20B0
:103B2C00FFF716FADBE746F080015320FFF710FA97
:103B3C0045F080015E20FFF70BFAD0E746F0C0019C
:103B4C005320FFF705FA45F0C0015E20FFF700FA9D
:103B5C00C5E75120FFF7FCF9D9E700BF6804002046
:103B6C0008B50320FFF7A8FF08BD10B5022404E038
:103B7C002046FFF7A1FF0134E4B2032CF8D910BDA5
:103B8C0010B5012404E02046FFF796FF0134E4B29F
:103B9C00032CF8D910BD10B5002404E02046FFF723
:103BAC008BFF0134E4B2032CF8D910BD10B5C0B0B2
:103BBC0014468DF800008DF8011019460DF1020025
:103BCC0004F09CFB044B1878A21C6B46D2B2FD216E
:103BDC00FFF7E8F940B010BD100000203F2805D8D1
:103BEC0070B54500EDB20E46002413E07047A200FC
:103BFC00A318590089B2224493009BB2C1F303204D
:103C0C003344142201F0FE0140F02000FFF7CEFFF8
:103C1C000134A4B2ABB2A342E9D870BD38B50546A5
:103C2C000C46A1B1012920D140B900211020FFF789
:103C3C008FF90A219C20FFF78BF916E00121102047
:103C4C00FFF786F90A219C20FFF782F90DE0C0B13D
:103C5C001020FFF773F960F07E01C9B21020FFF756
:103C6C0077F900219C20FFF773F9224620210C489C
:103C7C00FFF765F823462A460A49012003F060FD48
:103C8C0038BD1020FFF75AF960F07F01C9B210203F
:103C9C00FFF75EF900219C20FFF75AF9E5E700BF1A
:103CAC0000080140E485010808B501212620FFF732
:103CBC00A7F908BD10B50446F520FFF797F9074B97
:103CCC00195D0140F520FFF79BF93520FFF78EF9C0
:103CDC0000F0DF013520FFF793F910BD288A0108A9
:103CEC0010B50446F520FFF781F9084B195D014327
:103CFC00C9B2F520FFF784F93520FFF777F940F0CA
:103D0C002001C9B23520FFF77BF910BD308A0108BC
:103D1C0008B5C0210720FFF773F91420FFF766F9E7
:103D2C0000F09F011420FFF76BF900211320FFF71F
:103D3C0067F904212620FFF763F9B2210620FFF76B
:103D4C005FF908BD08B5242806D0252807D02628F9
:103D5C0008D0FFF7A9FF08BDFFF7A6FFFBE7FFF7A9
:103D6C00D7FFF8E7FFF7D4FFF5E710B5044603E0FB
:103D7C006178FFF745F902342078FF28F8D132201A
:103D8C00FFF728F910BD38B504460D4604E015F8C8
:103D9C00011BFFF735F901342078FF28F7D13220C9
:103DAC00FFF718F938BD08B501464020FFF728F990
:103DBC0008BD000070B506469B4B1B5C262B00F221
:103DCC00F880DFE813F07500870027006D0099007C
:103DDC00A200F600F600B400AB00F600F6007E0080
:103DEC009000F600F600F600F600F600F600F6007D
:103DFC00F600F600F600F600F600F600F600F60007
:103E0C00F600F600F600BD00C500CD00D500DD00C3
:103E1C00E500ED000124854B1C70854804F082FA06
:103E2C002546844804F0F2FA834804EB44039900D5
:103E3C000144FFF7A8FF7C4B9B5D022B00F0BC807C
:103E4C007E4B1B78262B00F0BC80252B00F0C1800C
:103E5C00242B00F0C680794B1B782F2B00F0CA80E6
:103E6C00764B1B78272B00F0D080012D00F0D880EA
:103E7C003046FFF735FF00211320FFF7C1F814205F
:103E8C00FFF7B4F800F09F011420FFF7B9F80220F7
:103E9C00FFF7ACF800F07F010220FFF7B1F870BD1E
:103EAC000125624B1D70664804F03CFA0224B8E709
:103EBC005E4B00221A70634804F034FA0125032487
:103ECC00AFE75A4B00221A705F4804F02BFA022518
:103EDC000B24A6E7554B00221A705C4804F022FA1A
:103EEC00012504249DE7514B00221A70584804F018
:103EFC0019FA02250C2494E74C4B00221A705548F1
:103F0C0004F010FA012505248BE7484B00221A70A7
:103F1C00514804F007FA0125062482E7434B03229B
:103F2C001A704E4804F0FEF90425082479E73F4B3B
:103F3C0002221A704A4804F0F5F90325072470E7A9
:103F4C0001253A4B1D70474804F0ECF9092468E749
:103F5C000125364B1D70444804F0E4F90A2460E74F
:103F6C000125324B1D70414804F0DCF90D2458E753
:103F7C0001252E4B1D703E4804F0D4F90E2450E759
:103F8C0001252A4B1D703B4804F0CCF90F2448E75F
:103F9C000125264B1D70384804F0C4F9102440E765
:103FAC00224B00221A70354804F0BCF9012511246B
:103FBC0037E701252C4634E7CE211620FFF720F8F1
:103FCC003EE72F4805EBC50359000144FFF7DBFE24
:103FDC0041E72C48C5EBC50359000144FFF7D3FE5C
:103FEC0039E7294805EB450105EB81010144FFF751
:103FFC00CAFE30E7254804F009FA254805EB85038D
:10400C0099000144FFF7BFFE2AE7224804F0FEF9AD
:10401C00214805EB850399000144FFF7B4FE24E722
:10402C003046FFF747FE26E7DC040020830400201F
:10403C00388A0108C48A0108F88A01081E05002084
:10404C00408A0108488A0108508A01085C8A0108E4
:10405C00648A0108708A0108788A0108808A01083C
:10406C00848A01088C8A0108948A01089C8A0108B8
:10407C00A48A0108AC8A0108B48A0108BC8A010828
:10408C00F09001089C8F010818900108CC8A010857
:10409C00FC8E0108E08A0108948D010810B5274BAD
:1040AC001B5C0D2B47D8DFE803F00D070B094646C8
:1040BC004646464646460D07022404E0042402E028
:1040CC00032400E00124FFF775FE1D4B1B78262B03
:1040DC0013D0A3F12402D2B2012A16D92F2B1AD055
:1040EC00272B20D01420FEF781FF40F04001C9B2ED
:1040FC001420FEF785FF204610BD124804EB840304
:10410C0059000144FFF73FFEECE70F4800EBC401F8
:10411C00FFF739FEE6E70D4804EB44039900014430
:10412C00FFF731FEDEE70A4804EB44039900014433
:10413C00FFF729FED6E70024DDE700BFDC040020F2
:10414C001E05002078900108748F01085C8E010810
:10415C00F48C010810B5264B1B5C0D2B46D8DFE800
:10416C0003F00D070B0945454545454545450D07EC
:10417C00022404E0042402E0032400E00124FFF7FD
:10418C0019FE1C4B1B78262B0ED0A3F12402D2B2A5
:10419C00012A12D92F2B19D0272B1FD040211320E5
:1041AC00FEF72EFF204610BD134804EB440104EB30
:1041BC0081010144FFF7E7FDF0E70F4804EB4401F0
:1041CC0004EB81010144FFF7DEFDE7E70B4804EB4C
:1041DC00840399000144FFF7D6FDDFE7084804EBA0
:1041EC00840399000144FFF7CEFDD7E70024D9E7FB
:1041FC00DC0400201E050020AC900108988E0108FC
:10420C00308D010838B5054602212F20FEF7F8FE47
:10421C000420FEF7EBFE04460420FEF7E7FE044400
:10422C000420FEF7E3FE04440420FEF7DFFE044402
:10423C00640804F4FC742A4621460B4804F072F816
:10424C0004F0F8010820FEF7DBFE0620FEF7CEFE98
:10425C0000F0F900E10901F00201014341F0040111
:10426C000620FEF7CDFE38BD008A010808B50021F6
:10427C002F20FEF7C5FE0420FEF7B8FE08BDF8B5EA
:10428C00064606212F20FEF7BBFE0420FEF7AEFEED
:10429C00B04243D204461E2717E045F080010720A8
:1042AC00FEF7AEFED5B30820FEF794FE06212F20B4
:1042BC00FEF7A6FE0420FEF799FE0446731C9842F6
:1042CC0014DCA31B0133022B28D93FB3013FFFB2EF
:1042DC000720FEF78BFE00F03F05B442DDD0002D29
:1042EC00DBD0013DEDB20134E4B2F6E70720FEF776
:1042FC007DFE00F03F00841C3F2C00D93F2444F08D
:10430C0080010720FEF77CFE3F2C07D00820FEF72B
:10431C0061FE0420FEF76AFE0446D2E7F8BD10B534
:10432C004420FEF763FE044640F04001C9B244202D
:10433C00FEF766FE04F0BF014420FEF761FE10BDDF
:10434C0038B5674B88221A700024032C0DD8FE2038
:10435C00FEF74CFE282808D0614A13780133DBB2F3
:10436C00013313700134E4B2EFE7FF20FEF73EFE99
:10437C005C4C2070FD20FEF739FE00F007025A4B12
:10438C001A702178594803F0CDFF0023584A136066
:10439C00584A1360584A13602378023B252B73D874
:1043AC00DFE803F0137213727272727272727272AD
:1043BC0072727272727272727272727272727272D1
:1043CC0072727272133747724E624C4804F01EF8C8
:1043DC004B4CFFF7A4FF2046FFF7C7FC454B1B686F
:1043EC00002B58D1474B03241C705C709C70DC7004
:1043FC000020FFF7DFFC0120FFF7DCFC0220FFF7B9
:10440C00D9FC2046FFF7D6FC3F4B01221A70002442
:10441C0047E00123364A1360364A1360324B1B784F
:10442C00012B01D0394CD4E72E4B25221A70384C75
:10443C00CFE701232E4A13602E4A1360354CC8E790
:10444C0001232B4A13602B4A1360274B1B78012B3B
:10445C0005D0F3B9284B01221A602F4CB9E7214B38
:10446C002F221A702D4CB4E70123214A1360214AE4
:10447C0013601D4B1B78042B01D0214CA9E7284855
:10448C0003F0C4FF1E4CA4E7264803F0BFFF1C4CEE
:10449C009FE7214C9DE72448FFF767FCA2E7013416
:1044AC00E4B2032C1AD80023204A1355204A135582
:1044BC00204A13550725134B1D5501200BF0AAF963
:1044CC001D4B1D701D4B14221A701D4B1B78012B9C
:1044DC00E5D101210846FFF7A1FBE0E738BD00BF9D
:1044EC00E80400201E0500200C050020C0890108EE
:1044FC00E404002084040020B8040020DC890108B6
:10450C00DC8C0108DC0400201D050020DC8B01087C
:10451C00608F0108089001085C900108448E010826
:10452C00E4890108F4890108E48F010810050020D2
:10453C00A40400207C0400201C000020200000208B
:10454C001E01002030B4044600200125072102463C
:10455C000BE044FA01F32B405BB20343D8B26D007D
:10456C00EDB20239C9B20132D2B2032AF1D9802597
:10457C00072100220AE004FA01F32B405BB203434B
:10458C00D8B26D080239C9B20132D2B2032AF2D9BB
:10459C0030BC70476D4B1A786D4B1A706D4B1A7896
:1045AC006D4B1A706D4B1B78172B30D0062B37D0F8
:1045BC00072B3CD0092B41D0082B46D00A2B4BD0D3
:1045CC000C2B50D00B2B55D00D2B5AD00F2B5FD062
:1045DC000E2B64D0112B69D0102B6ED0132B73D0F3
:1045EC00122B78D0142B7DD0212B00F08580222B20
:1045FC0000F08980232B00F08D80242B00F091801B
:10460C00252B00F09580262B00F099807047002315
:10461C00534A1370534A072111704D4A1370704757
:10462C004F4B00221A704F4B08221A7070474C4B9C
:10463C0000221A704B4B10221A707047484B002204
:10464C001A70484B04221A707047454B00221A709E
:10465C00444B02221A707047414B00221A70414B96
:10466C000C221A7070473E4B00221A703D4B0A22E6
:10467C001A7070473A4B00221A703A4B14221A7077
:10468C007047374B00221A70364B12221A70704743
:10469C00334B02221A70334B00221A707047304B86
:1046AC0004221A702F4B00221A7070472C4B0122D7
:1046BC001A702C4B00221A707047294B00221A706A
:1046CC00284B80221A707047254B00221A70254BFC
:1046DC0020221A707047224B00221A70214B402264
:1046EC001A70704700231E4A13701E4A1370184A22
:1046FC001370194A13707047194B00221A70194B1A
:10470C0003221A707047164B00221A70154B0722A1
:10471C001A707047124B00221A70124B07221A7033
:10472C0070470F4B00221A700E4B07221A707047FD
:10473C000B4B02221A700B4B00221A707047084B5D
:10474C0000221A70074B07221A705FE71C05002025
:10475C001705002082040020DA040020F004002059
:10476C001605002080040020B54B1B78162B40F258
:10477C00D5832DE9F04182B0B24B1E78022E02D0C7
:10478C0002B0BDE8F0810420FFF70DFB0120FEF71D
:10479C0021FCB620FEF72AFC0746B520FEF726FCC6
:1047AC00B420FEF723FC17F0F00F1AD017F0800F8F
:1047BC005FD117F0400F04D0A14B9B78162B00F261
:1047CC00BB8017F0200F04D09D4B5B78162B00F2AA
:1047DC00128117F0100F04D0994B1B78162B00F296
:1047EC008D81994B1B68012BCAD1984B1C78984B27
:1047FC001D5D002D40F01B82964B1B5D083BDBB210
:10480C00012B00F24D82944B1F78944B93F800804F
:10481C00934B1B780F2B00F0D1810E2B00F0CD8128
:10482C00102B00F01582112B00F01482122B00F0CB
:10483C001482132B00F01482062B00F01482072B29
:10484C0000F01482092B00F01482082B00F0148263
:10485C000A2B00F015820C2B00F015820B2B00F0AC
:10486C0015820D2B00F01582172B00F015822E46A9
:10487C00A4E1734BDB78162B9BD90320FFF793FA3B
:10488C0000258A2408E02046FEF7B0FB754B5855EE
:10489C000135EDB20134E4B2A12CF4D90021A720EA
:1048AC00FEF7AEFB8321A720FEF7AAFB002305E051
:1048BC005A1C6C49885C6C49C854D3B2042BF7D988
:1048CC00052306E09A1C6749895C674AD154013379
:1048DC00DBB2092BF6D9654803F024FD002406E071
:1048EC00614B195D624803F01DFD0134E4B2052CE7
:1048FC00F6D95D4C617A5E4803F014FDE378612BC8
:10490C007FF457AF637A9E2B7FF453AF594B1978D2
:10491C0041F008011970584803F004FD2379382B35
:10492C007FF447AF6379022B7FF443AF514A13787E
:10493C0023F0080313703CE70220FFF734FA00253C
:10494C008A2408E02046FEF751FB464B58550135AA
:10495C00EDB20134E4B2A12CF4D90021A720FEF76A
:10496C004FFB8321A720FEF74BFB002305E05A1CCD
:10497C003C49885C4149C854D3B2042BF7D9052370
:10498C0006E09A1C3749895C3C4AD1540133DBB2AE
:10499C00092BF6D93A4803F0C5FC002406E0374B46
:1049AC00195D334803F0BEFC0134E4B2052CF6D992
:1049BC00324C617A2E4803F0B5FCE378612B7FF41E
:1049CC0000AF637A9E2B7FF4FCAE2A4B197841F032
:1049DC0004011970284803F0A5FC2379382B7FF4C7
:1049EC00F0AE6379022B7FF4ECAE224A137823F0FD
:1049FC0004031370E5E60120FFF7D5F900258A249E
:104A0C0008E02046FEF7F2FA164B58550135EDB288
:104A1C000134E4B2A12CF4D90021A720FEF7F0FA5E
:104A2C008321A720FEF7ECFA002305E05A1C0D4960
:104A3C00885C1449C854D3B2042BF7D905232AE057
:104A4C0010050020A4040020EC04002054010020D8
:104A5C007C040020DC0400201C05002082040020C3
:104A6C00F0040020C00400206C0400201089010810
:104A7C001889010855010020208901080005002033
:104A8C0034890108880400209A1CB749895CB74A0C
:104A9C00D1540133DBB2092BF6D9B54803F042FCF3
:104AAC00002406E0B14B195DB24803F03BFC013425
:104ABC00E4B2052CF6D9AD4C617AAE4803F032FC69
:104ACC00E378612B7FF485AE637A9E2B7FF481AE05
:104ADC00A94B197841F002011970A84803F022FC87
:104AEC002379382B7FF475AE6379022B7FF471AE8A
:104AFC00A14A137823F0020313706AE60020FFF733
:104B0C0052F900258A2408E02046FEF76FFA964BEE
:104B1C0058550135EDB20134E4B2A12CF4D9002181
:104B2C00A720FEF76DFA8321A720FEF769FA002370
:104B3C0005E05A1C8C49885C9149C854D3B2042BAB
:104B4C00F7D9052306E09A1C8749895C8C4AD15415
:104B5C000133DBB2092BF6D98A4803F0E3FB0024BE
:104B6C0006E0874B195D834803F0DCFB0134E4B2AB
:104B7C00052CF6D9824C617A7E4803F0D3FBE3789E
:104B8C00612B7FF42EAE637A9E2B7FF42AAE7A4B88
:104B9C00197841F001011970784803F0C3FB2379AF
:104BAC00382B7FF41EAE6379022B7FF41AAE724A57
:104BBC00137823F00103137013E604263046FFF735
:104BCC00C1FC06462846FFF7BDFC05463846FFF7F4
:104BDC00B9FC07464046FFF7B5FC80462046FFF778
:104BEC00E2F831465A20FEF70BFA29465920FEF717
:104BFC0007FA39466020FEF703FA41465F20FEF7BC
:104C0C00FFF961216F20FEF7FBF90A20FEF7E2F9AC
:104C1C0060216F20FEF7F4F9CDF800803B462A4660
:104C2C003146594803F07EFB584B00221A60584B12
:104C3C001878584B1B5C022B5BD0554B1B78554A94
:104C4C00D35C012B00F00981504B00221A6097E5D0
:104C5C000126B3E72E468025B0E72E464025ADE76A
:104C6C002E462025AAE72E460825A7E72E46102516
:104C7C00A4E72E460425A1E733462E461D469DE7A4
:104C8C002E460C259AE72E460A2597E72E46142524
:104C9C0094E72E46122591E72F462E4607258DE7E1
:104CAC002046FFF780F83C4C21785920FEF7A8F9F4
:104CBC003A4D29785A20FEF7A3F9394E31785D2008
:104CCC00FEF79EF9374B19786020FEF799F94121D0
:104CDC006F20FEF795F90A20FEF77CF940216F2032
:104CEC00FEF78EF933782A7821782F4803F01AFBD7
:104CFC009AE7FFF758F8A5216E20FEF781F90221FB
:104D0C006E20FEF77DF9244B1B78063B092B00F235
:104D1C009380DFE803F04D5E806F91919191910546
:104D2C0050216E20FEF76CF900216E20FEF768F919
:104D3C0000216E20FEF764F900216E20FEF760F969
:104D4C0049216F20FEF75CF90520FEF743F9482155
:104D5C006F20FEF755F90D4B00221A600E4B197897
:104D6C00124803F0DFFA68E7C00400208804002032
:104D7C003C89010818890108550100202089010887
:104D8C00F4040020448901084C890108EC0400203B
:104D9C00540100207C040020F00400208204002038
:104DAC001C05002081040020648901087889010811
:104DBC0008216E20FEF724F900216E20FEF720F961
:104DCC00FF216E20FEF71CF900216E20FEF718F96A
:104DDC00B6E704216E20FEF713F900216E20FEF7D2
:104DEC000FF9FF216E20FEF70BF900216E20FEF764
:104DFC0007F9A5E702216E20FEF702F9FF216E20CC
:104E0C00FEF7FEF800216E20FEF7FAF800216E2066
:104E1C00FEF7F6F894E701216E20FEF7F1F8FF217A
:104E2C006E20FEF7EDF800216E20FEF7E9F8002168
:104E3C006E20FEF7E5F883E700216E20FEF7E0F820
:104E4C0000216E20FEF7DCF800216E20FEF7D8F86A
:104E5C0000216E20FEF7D4F872E7FFF79BFB304B76
:104E6C001878FEF7A0FF00215A20FEF7C9F80021A0
:104E7C006020FEF7C5F800216620FEF7C1F800217E
:104E8C006C20FEF7BDF845216F20FEF7B9F8052020
:104E9C00FEF7A0F844216F20FEF7B2F8214D2878D8
:104EAC00FFF750FB01465A20FEF7AAF81E4E307849
:104EBC00FFF748FB01466020FEF7A2F81B4F38783D
:104ECC00FFF740FB01466620FEF79AF8184C207855
:104EDC00FFF738FB01466C20FEF792F845216F2056
:104EEC00FEF78EF80520FEF775F844216F20FEF7CB
:104EFC0087F8104B00221A600F4B1B780F4A127860
:104F0C000F4909780F4803F00DFA3B78327829786D
:104F1C00207800900C4803F005FA95E6704700BF26
:104F2C0054010020160500208004002017050020E5
:104F3C00DA040020EC0400201C0500208204002070
:104F4C00F00400208489010898890108074B0F227E
:104F5C001A700023064A1370064A1370064BC522BA
:104F6C001A70064B01221A60704700BFF004002033
:104F7C00820400201C05002081040020EC04002089
:104F8C0008B5444803F0CEF904214020FEF738F868
:104F9C008321A720FEF734F88021BE20FEF730F8DD
:104FAC0042216F20FEF72CF840217020FEF728F8E4
:104FBC0020217120FEF724F800217220FEF720F842
:104FCC000021C020FEF71CF80021C120FEF718F8C4
:104FDC000B21C220FEF714F80C21C320FEF710F8A9
:104FEC000D21C420FEF70CF80E21C520FEF708F8A1
:104FFC001921C620FEF704F87821C720FEF700F827
:10500C002121C820FDF7FCFF0721CB20FDF7F8FF7D
:10501C000821CC20FDF7F4FF0921CD20FDF7F0FF8E
:10502C000A21CE20FDF7ECFF0421CF20FDF7E8FF8D
:10503C000021D020FDF7E4FF0021D120FDF7E0FF97
:10504C006021D220FDF7DCFF1021D320FDF7D8FF23
:10505C000621D420FDF7D4FFBE21D520FDF7D0FFCB
:10506C003921D620FDF7CCFF2721D720FDF7C8FF2B
:10507C000E21C220FDF7C4FF0F21C320FDF7C0FF96
:10508C001021C420FDF7BCFF1121C520FDF7B8FF8E
:10509C0008BD00BFA8890108F0B583B000243AE030
:1050AC009F4B1B5D3BB99F4B1B5DFF2B31D00133DD
:1050BC009C490B552DE00023994A1355994A1355D9
:1050CC000725994B1D552146984B1878FEF73AFE4B
:1050DC002146974803F026F901200AF09BFB954BDB
:1050EC001D70954B14221A70944B1B78012B53D0C6
:1050FC00934B00221A70934B01221A702546884B51
:10510C001B5D012B00F09480854B5B5D022B00F046
:10511C0031810134E4B2032C00F20D842046FEF7F9
:10512C0042FE0120FDF762FF064610F0800FB7D15A
:10513C0025467D4B1B5D083BDBB2012B31D9824BE5
:10514C0060221A70804B1B78B3432ED0744B5B5D7E
:10515C00002B4DD0022B56D0724A525DFF2A02D042
:10516C00013270494A55032BC8D16E4B5B5D022B43
:10517C00C4D96B4B01225A556A4B00225A55214611
:10518C006A4B1878FEF7DEFD2946704803F0CAF822
:10519C0020460AF03FFBB1E701210846FEF73EFD31
:1051AC00A6E7694B60221A70CCE75D4B5B5D022B66
:1051BC000BD093B95A4B01225A555A4B00225A55CF
:1051CC002946634803F0AEF898E7564B5B5DFF2B1E
:1051DC0094D00133534A535590E7514B02225A5500
:1051EC00504B00225A5529465A4803F09BF885E744
:1051FC004B4B01225A554B4B00225A5529465648C7
:10520C0003F090F87AE7554B53F82530632B04D80C
:10521C000133524A42F8253070E7414B03225A556C
:10522C00404B00225A5529464D4803F07BF865E760
:10523C000320FDF7DBFE00F008024A4B1A6000F079
:10524C000702394B1F5D062A11D0042A18D0052AF3
:10525C004FD0022A1ED03ABB434B1B68002B49D0BF
:10526C00304B5B5D13F0020F44D0262242E03F4BE3
:10527C001B68002BE9D016F0040F34D0092239E05A
:10528C00394B1B688BB3274B5B5D13F0020F2ED190
:10529C000C222FE0344B1B6863B3224B5B5D13F085
:1052AC00020F27D0232225E0032A23D92E4B1B687B
:1052BC000BB93A461EE009212F20FDF7A1FE042070
:1052CC00FDF794FEA0F14903DBB20B2B21D9A0F121
:1052DC005603DBB20B2B1ED9A0F17103DBB20E2BE4
:1052EC001BD93A4606E0082204E00C2202E02422F4
:1052FC0000E00D220C4B5B5D93423FF405AF0A4B73
:10530C005A5529461A4803F00DF82046FEF752FD6F
:10531C00FAE62022EEE72222ECE72522EAE700BF9C
:10532C00A404002010050020DC0400201E05002031
:10533C009C8601081C000020200000201E0100207B
:10534C001101002008000020DB0400201087010858
:10535C00B4860108C8860108E086010844010020D3
:10536C00F4860108E0040020B8040020E4040020C6
:10537C002C870108C14B5B5D002B4BD1C04B00222D
:10538C005A55C04B1C70C04B5B5D0C3BDBB2012B08
:10539C0021D9A4F10A00BD4B595DC0B2FDF730FE16
:1053AC00BB4B1B782F2B25D0BA4B595DF720FDF743
:1053BC0027FEB94B595DFA20FDF722FEB74B1B783F
:1053CC00B74A11788B423FF4A4AEB44B1970B54870
:1053DC0002F0A8FF9DE60320FDF708FE10F0080F71
:1053EC00D7D1A94A535D23F0080353552046FEF745
:1053FC00E1FCCEE7A74B595DF820FDF701FEA64B6B
:10540C005D5D2946FA20FDF7FBFD2946FB20FDF7E3
:10541C00F7FDD3E7012B7ED0022B00F0B880032BD5
:10542C0000F0F380062B40F26781132B40F273815E
:10543C00142B00F09481152B00F02982162B7FF48D
:10544C0068AE8F4B5B5D9BBB8F4B5B5D083BDBB2F0
:10545C00012B40F237829448FEF787FC8A4B5B5D48
:10546C00023BDBB2012B40F22F8221464020FDF79C
:10547C00C7FD8021BE20FDF7C3FDB620FDF7B6FDAC
:10548C00B520FDF7B3FDB420FDF7B0FD0021A7203A
:10549C00FDF7B6FD0120FDF79DFD8321A720FDF74B
:1054AC00AFFD794B5B5D023BDBB2012B40F211820D
:1054BC00734B5B5D012B00F01382714B5B5D022B18
:1054CC007FF427AE7948FEF750FC21464020FDF7CB
:1054DC0097FD8021BE20FDF793FDB620FDF786FDDC
:1054EC00B520FDF783FDB420FDF780FDA420FDF76A
:1054FC007DFDA220FDF77AFDA320FDF777FD0021AD
:10550C00A720FDF77DFD0120FDF764FD8321A72079
:10551C00FDF776FDFDE55E4B1B78232B7FF6F9AD91
:10552C000120FDF763FD06460146614802F0FAFED4
:10553C00554B595DA1F10803DBB2012B23D906F0C1
:10554C006406602E7FF4E5AD0B1FDBB2012B7FF6FA
:10555C00E0AD0C293FF4DDAD0D293FF4DAAD0029A7
:10556C003FF4D7AD01293FF4D4AD2046FEF7F2FD50
:10557C0000283FF4CEAD424B02225A5529464D48E5
:10558C0002F0D0FEC5E54C4802F0CCFEC1E5404B24
:10559C001B78232B7FF6BDAD0120FDF727FD0646BA
:1055AC000146434802F0BEFE374B595DA1F108039A
:1055BC00DBB2012B25D906F01103102B03D0304B95
:1055CC005B5D022B0FD016F0040F7FF4A2AD0B1F06
:1055DC00DBB2012B07D90C2905D00D2903D011B151
:1055EC0001297FF496AD2046FEF758FD00283FF4C4
:1055FC0090AD234B01225A552946304802F092FEB9
:10560C0087E52D4802F08EFE83E5214B1B78232B7A
:10561C007FF67FAD0120FDF7E9FC064601462448E4
:10562C0002F080FE184B595D8B1EDBB2012B49D961
:10563C00012B4ED90B1FDBB2012B06D90C2904D040
:10564C000D2902D009B1012906D116F0040F03D19E
:10565C000B4B5B5D012B47D0A1F10803DBB2012B97
:10566C0046D916F0010F3FF454AD2046FEF7A2FBCD
:10567C002946134802F056FE4BE500BF10050020EA
:10568C007C04002078040020DC0400201C8A010823
:10569C001E050020208A0108248A01081D0500200F
:1056AC008304002048870108F88D0108988C0108B4
:1056BC0060870108808701087087010894870108BA
:1056CC001888010816F0040FB2D19C4802F02AFE8B
:1056DC001FE516F0040FADD0994B5B5D002BA9D1E3
:1056EC00984802F01FFE14E5974802F01BFE10E5E7
:1056FC00964802F017FE0CE5954E06EB85039A785A
:10570C00DA705A789A7016F825205A70FEF7AEFDAA
:10571C0006F82500FDE48E4F07EB8506B378F37091
:10572C007378B37017F825307370FEF79FFD07F888
:10573C002500F3781B1A0133022B3FF6EAACB37841
:10574C001B1A0133022B3FF6E4AC73781B1A01339E
:10575C00022B3FF6DEAC7F4B13225A55D9E4FEF7F1
:10576C0085FD0646764B5B5D7B4F7A5D00922A4643
:10577C0001467A4802F0D6FD7B5D9A1ED2B2012A10
:10578C0012D9012B37D91A1FD2B2012A37D9A3F15A
:10579C000C02D2B2012A36D9082B38D0092B3AD0B8
:1057AC006F4B14225A5502E06D4B06225A556C4B26
:1057BC005A5D6C4B1A706C4B1B78012B2FD0684BBD
:1057CC005A5D6A4B5B5D9A422FD15D4B5B5D002B42
:1057DC0032D1674B1B78243BDBB2012B3FD95E4B9C
:1057EC005B5D082B4BD0092B4DD040F6091161485D
:1057FC0002F098FD8DE45A4B05225A55D7E7584BC9
:10580C0005225A55D3E7564B05225A55CFE7544B30
:10581C0000225A55CBE7524B01225A55C7E740217B
:10582C004FF47A7002F022F8C9E7534B1B782946E3
:10583C00524802F077FDC8E7B10861F07F01C9B2A8
:10584C000720FDF7DDFB3E4B5B5D012B03D04C4885
:10585C0002F0DCFD5DE44B4802F0D8FD59E43E4B10
:10586C005B5D13F0200FBAD04749A1FB0631490804
:10587C0061F07F01C9B20720FDF7C2FBAFE74348D7
:10588C0002F0C4FD45E4424802F0C0FD41E42C4B5B
:10589C005B5D83B9364B1B78243BDBB2012B3FF6A7
:1058AC0038AC2D4B5B5D13F0200F3FF432AC16205F
:1058BC00FEF7E5FC2DE42046FEF7A4FC0C20FEF7D9
:1058CC00DEFC26E43348C7E51921C620FDF798FB1A
:1058DC00CBE5314B1C702946304802F023FDE7E53F
:1058EC00FFF74EFB2E48FEF740FA21464020FDF70D
:1058FC0087FB04214020FDF783FB8021BE20FDF7B0
:10590C007FFBB620FDF772FBB520FDF76FFBB420D3
:10591C00FDF76CFB2421A720FDF772FB0120FDF79E
:10592C0059FBA7210846FDF76BFB1B4B19781D484B
:10593C0002F0F8FCC1E503B0F0BD00BFA887010878
:10594C007C040020C4870108E08701080488010852
:10595C00A804002010050020DC0400202C8801087D
:10596C00200000201C0000201E010020D406002076
:10597C001E050020D8880108E8000020588801087E
:10598C00A488010898880108ABAAAAAAB0880108C3
:10599C00C4880108548C010854010020EC880108CB
:1059AC00F48B0108F8880108044B1A78044B1B7817
:1059BC009A4201D001207047002070475901002005
:1059CC005A010020044B1A78044B1B789A4201D0E0
:1059DC00012070470020704757010020580100201B
:1059EC00064A13780649C85C0133DBB213701D2BD1
:1059FC0002D9134600221A70704700BF5A010020CA
:105A0C005C050020064A13780649C85C0133DBB2FA
:105A1C0013701D2B02D9134600221A70704700BF59
:105A2C00580100209C05002000B583B002A901F8A4
:105A3C00010D4FF6FF7301220248FCF76BFB03B01C
:105A4C005DF804FB7C03002000B583B002A901F8CB
:105A5C00010D4FF6FF7301220248FCF75BFB03B00C
:105A6C005DF804FB0004002000B583B0194B1A78D4
:105A7C006AB9194B1A78D2B9184B1A7812BB184B51
:105A8C001A78184B1978184801F03EFE0CE0124BAE
:105A9C001B78144909781248007801900F48007857
:105AAC000090124801F030FE03B05DF804FB0B4B84
:105ABC001B780C4909780A48007800900C4801F0D2
:105ACC0023FEF1E7064B1B7806490978094801F0DB
